:020000040800F2
:10000000B810002071020008091300080B13000843
:100010000D1300080F130008111300080000000062
:1000200000000000000000000000000013130008A2
:100030001513000800000000171300081B13000828
:100040008B0200088B0200088B0200088B0200085C
:100050008B0200088B0200088B0200088B0200084C
:100060008B0200088B0200088B0200088B0200083C
:100070008B0200088B0200088B0200088B0200082C
:100080008B0200088B0200088B0200088B0200081C
:100090008B0200088B0200088B0200088B0200080C
:1000A0008B0200088B0200088B0200088B020008FC
:1000B0008B0200088B0200088B0200088B020008EC
:1000C0008B0200088B0200088B0200088B020008DC
:1000D0008B0200088B0200088B0200088B020008CC
:1000E0008B0200088B020008911500088B020008A3
:1000F0008B0200088B0200088B0200088B020008AC
:100100008B0200088B0200088B0200088B0200089B
:100110008B0200088B0200088B0200088B0200088B
:100120008B0200088B0200088B0200088B0200087B
:100130008B0200088B0200088B0200088B0200086B
:100140008B0200088B0200088B020008E3150008F0
:100150008B0200088B0200088B0200088B0200084B
:100160008B0200088B0200088B0200088B0200083B
:100170008B0200088B0200088B0200088B0200082B
:100180008B0200088B02000800F002F800F060F813
:100190000AA090E8000C82448344AAF10107DA45E2
:1001A00001D100F055F8AFF2090EBAE80F0013F0D4
:1001B000010F18BFFB1A43F0010318473831000044
:1001C000583100000A444FF0000C10F8013B13F0C6
:1001D000070408BF10F8014B1D1108BF10F8015BA0
:1001E000641E05D010F8016B641E01F8016BF9D193
:1001F00013F0080F1EBF10F8014BAD1C0C1B09D1EA
:100200006D1E58BF01F801CBFAD505E014F8016B5B
:1002100001F8016B6D1EF9D59142D6D370470000ED
:100220000023002400250026103A28BF78C1FBD8FF
:10023000520728BF30C148BF0B6070471FB503F09D
:1002400053F89DE8030002F071FF1FBD10B510BD0B
:1002500002F0C8FF1146FFF7F1FF01F00DF802F0C0
:10026000E6FF03B4FFF7F2FF03BC03F017F800004A
:100270000948804709480047FEE7FEE7FEE7FEE73A
:10028000FEE7FEE7FEE7FEE7FEE7FEE70448054976
:10029000054A064B70470000C71300088901000893
:1002A000B8080020B8100020B80C0020B80C0020BE
:1002B0002849084328490860704730B50F23C278A1
:1002C00001780125FAB1244A126801F1E02102F413
:1002D000E062C2F5E062C2F30722C2F10404D34037
:1002E0004278A24084781C401443220181F8002403
:1002F000007800F01F018D404009800000F1E020EF
:10030000C0F8005130BD01F01F0085404809800051
:1003100000F1E020C0F8805130BD104A1140014387
:100320000D48001F016070470B4A121D002911681B
:1003300001D0014300E08143116070474FF0E0219C
:100340000428086903D020F004000861704740F0D9
:100350000400FAE70000FA050CED00E080FFFF1F43
:10036000F848016841F001010160F64A00210832B5
:1003700011600268F44B1A400260031DF34A1A60D0
:10038000F04BF34A84331A60F04A103A1B1D1A608E
:10039000026822F480220260EA480C300160181DD5
:1003A00001607047E7490022891C0A700870704795
:1003B00002460020510901290CD002290CD0E14944
:1003C0007431096802F01F02012393400B4200D0F0
:1003D00001207047DB49F4E7DA497031F1E718B5DD
:1003E00000204FF4A04400903120FFF7E1FF009976
:1003F000491C0091A14201D00028F5D03120FFF71F
:10040000D7FF002800D0012018BDCE4A116821F086
:10041000F80141EAC00010607047CE49086070479B
:10042000C849002270310A700A70012802D00428DD
:1004300001D1052008707047C7490860704741EA3C
:1004400082115A0810B5C54B029C03EB02421143BE
:10045000014341EA0460BB49091D086010BDBD4964
:1004600008667047800140EA0170B649843108602F
:100470007047B84988667047800140EA0160B14919
:1004800040EA0270883108607047B24908677047D7
:10049000B049C8647047AB4B08331A68084322F070
:1004A000EC62104318607047A64B08331A68084383
:1004B00022F07842104318607047A24A083211684F
:1004C00021F003010143116070479E480830006825
:1004D00000F00C0070479B4A0832116821F0F001CF
:1004E000014311607047974A0832116821F4E051C6
:1004F000014311607047934A0832116821F460414A
:1005000041EAC0001060704770B58E4B083319681F
:10051000934C11F00C0104D06610042903D0082973
:1005200003D004601BE0066019E0864A121D1168C2
:10053000C1F38055116801F03F0115B1B6FBF1F12F
:1005400001E0B4FBF1F114681268C4F3881461434C
:10055000C2F30142521C5200B1FBF2F10160196872
:100560000F2202EA11117F4A545C0168E1404160A8
:100570001C68072505EA9424145D21FA04F48460BC
:100580001B6805EA5333D25CD140C16070BDC0F333
:100590000121032908D16B4B08331968724A21F4F1
:1005A000F81102400A431A60664970310A68C0F3C4
:1005B0000B0002430A60704767494439086070477E
:1005C00065494039086070476249C1F85C0170476D
:1005D0005C4A8C32116821F440110143116070476C
:1005E000584A8C32116821F4400101431160704770
:1005F000544A8C321168401E21F01F0101431160E2
:100600007047504A8C3211686FF0FF0321F4F851A3
:1006100003EB00200843106070474A4A8C3211688F
:1006200021F440310143116070475049C1F8E001A5
:100630007047444A30320029116801D0014300E07C
:100640008143116070473F4A34320029116801D05C
:10065000014300E08143116070473A4A3832002973
:10066000116801D0014300E0814311607047354AB1
:1006700040320029116801D0014300E0814311603C
:100680007047304A44320029116801D0014300E02C
:100690008143116070472B4A10320029116801D044
:1006A000014300E0814311607047264A143200295B
:1006B000116801D0014300E0814311607047214A75
:1006C00018320029116801D0014300E08143116014
:1006D00070471C4A20320029116801D0014300E014
:1006E000814311607047174A24320029116801D0F4
:1006F000014300E0814311607047124A50320029E3
:10070000116801D0014300E08143116070470D4A38
:1007100054320029116801D0014300E08143116087
:100720007047084A58320029116801D0014300E09F
:10073000814311607047034A60320029116817D065
:10074000014316E000380240FFFFF6EA10300024B3
:100750000030002000004742800E47420000FFFFAB
:100760000024F40000000020FFFCFF0F00104742AF
:10077000814311607047194A0029116801D0014373
:1007800000E081431160704714490C31012808686A
:1007900003D020F008000860704740F00800FAE736
:1007A0000E4A573A0029117801D0014300E08143F5
:1007B0001170704709481030016841F08071016084
:1007C00070470146054A0020583A12680A4200D094
:1007D000012070470149563908707047643802405B
:1007E000774910B5884206D101210846FFF753FF2B
:1007F000002101205BE07349884206D101210220DB
:10080000FFF749FF0021022051E06F49884206D1DD
:1008100001210420FFF73FFF0021042047E06B493E
:10082000884206D101210820FFF735FF002108206A
:100830003DE06749884206D101211020FFF72BFFD8
:100840000021102033E06349884206D10121202095
:10085000FFF721FF0021202029E05F49884206D1CF
:1008600001214020FFF717FF002140201FE05B49D6
:10087000884206D101218020FFF70DFF0021802052
:1008800015E05749884202D1012184150AE05549F3
:10089000884202D10121441504E0534988420AD11B
:1008A000012104152046FFF7F6FE00212046BDE891
:1008B0001040FFF7F0BE10BDF0B5002201274FF049
:1008C000030C0B6807FA02F52B40AB422CD10668EB
:1008D00053000CFA03F4A64306600E79D0F800E04A
:1008E0009E4046EA0E0606600E79012E01D0022EC9
:1008F00012D18668A64386604E79D0F808E09E4003
:1009000046EA0E0686604668AE43466045688E79C4
:100910009640B6B235434560C568A543C560CC79FD
:100920009C40C3681C43C460521C102AC9D3F0BD4C
:100930004FF6FF7101600021017141718171C17138
:10094000704708B541F480320092C261C1610099DC
:10095000C161C169C069009008BD024600201269EA
:100960000A4200D001207047006980B270470246F9
:10097000002052690A4200D001207047406980B2CD
:10098000704701837047418370470AB10183704704
:10099000418370474161704742694A4042617047F4
:1009A0004B07DB0E9A40C90810B500EB8100016AC5
:1009B0000F249C40A1430162016A1143016210BDF2
:1009C000000002400004024000080240000C024007
:1009D000001002400014024000180240001C0240B7
:1009E0000020024000240240002802403549002037
:1009F0000860091D0860091D0860091D086031496B
:100A0000314814310860704730B52E4A8379016847
:100A100053B313688B431360111D0B680468A34321
:100A20000B60017911440B68046823430B60254B6C
:100A3000083319680468A14319601C1D2168056802
:100A4000A94321604179102905D011440A68006842
:100A500002430A6030BD19680268114319602168B9
:100A600000680143216030BD0079104402688A4368
:100A7000026030BD0021016001710C224271817160
:100A80007047104910310A6802430A6070470146F6
:100A90000C4A0020143212680A4200D0012070472C
:100AA00008491431086070470146064A0020143294
:100AB00012680A4200D001207047024914310860D0
:100AC00070470000003C0140FFFF7F0070B55A48AE
:100AD0004168491C4160816811B18168491E81608B
:100AE000AFF300800024554E18E006EB84056868DB
:100AF00090B1017B81B1826872B1521E82606968D7
:100B00000AD148690969884768680168816068682E
:100B1000416809B900210173641CE4B23078A04235
:100B2000E3D870BD464801684FF47A70B1FBF0F02D
:100B3000401EB0F1807F12D24FF0E0225061414B55
:100B4000F02083F8140D00209061072010613E48CA
:100B5000B1FBF0F13848C160012101707047FEE738
:100B600035480078002805D04FF0E020016941F0B9
:100B70000201016170474FF0E020016921F002019C
:100B8000016170472DE9F0472C4C0546DDF82090B7
:100B900020781E4617468846052802D30020BDE867
:100BA000F087182002F04CFA0028F8D00560C0E960
:100BB00001850773C0E90469217804EB810148606D
:100BC0002178491C2170EAE71C4B30B400211A78C7
:100BD00006E003EB81046468844203D0491CC9B277
:100BE0008A42F6D88A4218D003EB81004068EFF3BE
:100BF000108472B605E003EB8102491C9568C9B206
:100C000055601A78521E8A42F5DC1978491E19700F
:100C100004B962B630BC02F042BA30BC7047002161
:100C2000017370470121017370470168816070474B
:100C3000416070470160704710000020F001002003
:100C4000240000200FE000E0C0C62D001CB50020ED
:100C50000321CDE9000103464FF4704401222146EF
:100C6000184800F00BFA17481A3004801CBD1CB558
:100C700000210220CDE900010B460A46012112485D
:100C800000F0FCF91CBD10480069C1070F4805D0F1
:100C9000017829B9012101700846704700210170CF
:100CA0000020704708480069C107084803D00121A7
:100CB00001700020704701780029FAD000210170EE
:100CC00001207047000C024000000240200000207C
:100CD00008B5BD480090BD4BBD4A0121BD4801F09B
:100CE000BFFCBD490220087008BDBB4800787047B2
:100CF0000021017041708170C17001714171B6486D
:100D0000007870471CB5B4490978012901D0022048
:100D10001CBD02218DF8001000218DF80110027811
:100D200011438DF80110427841EA42018DF801101B
:100D3000827841EA82018DF80110C1788DF80210A5
:100D400001798DF8031040798DF804000522694679
:100D5000A04801F0B8FE01201CBD1CB50020009089
:100D600001909D48007801284FF0020007D18DF8CE
:100D7000000005226946974801F0A5FE01201CBD30
:100D80000021017041708170C170017141718171E8
:100D9000C171017241728172C172017341738173B9
:100DA000C173017441748174C1748B4800787047B9
:100DB0001CB5894A1278012A01D002201CBD8DF889
:100DC000000000208DF801000A78034610438DF8DA
:100DD00001004A7840EA42028DF80120887842EA10
:100DE00080028DF80120C87842EAC0028DF8012007
:100DF000087942EA00128DF80120487942EA40124F
:100E00008DF80120887942EA80128DF80120C87996
:100E100042EAC0108DF801008DF802300A7A43EAE8
:100E200002008DF802004A7A40EA42008DF8020082
:100E30008A7A40EA82008DF80200CA7A40EAC2004B
:100E40008DF802000A7B40EA02108DF802004A7B0E
:100E500040EA42108DF802008A7B40EA82108DF849
:100E60000200CA7B40EAC2108DF80200087C8DF8AF
:100E70000300487C8DF80400887C8DF80500C87C50
:100E80008DF8060007226946524801F01CFE012039
:100E90001CBD1CB50021009101914F490978012921
:100EA00001D002201CBD8DF8000007226946494888
:100EB00001F009FE01201CBD00210170417081700C
:100EC000C170017141718171C17101724172817290
:100ED000C172017341734048007870470EB500211C
:100EE0003D4A0091019102911278012A01D002201D
:100EF0000EBD01228DF800208DF8011002780A4302
:100F00008DF80120837842EA43028DF8012043786E
:100F100042EA83028DF80120C37842EAC3028DF8C9
:100F20000120037942EA03128DF80120837942EA15
:100F300043128DF80120437942EA83128DF8012093
:100F4000C37942EAC3128DF801208DF80210017AAC
:100F50008DF80310417A8DF80410817A8DF8051010
:100F6000C17A8DF80610017B8DF80710407B8DF853
:100F7000080009226946174801F0A5FD01200EBDB1
:100F80000EB50020009001900290134800780128CF
:100F900001D002200EBD01208DF800000922694613
:100FA0000C4801F090FD01200EBD0A460A4910B51B
:100FB0000978012901D0022010BD0146054801F041
:100FC00082FD012010BD0000D0010020A000002003
:100FD0006C00002060020020EC010020A3490844BE
:100FE000C0F38F2070472DE9F04F9A46DDE909B82C
:100FF00089460346FFF7F2FFC5B200204FF0030E0B
:101000000121814011EA090F28D0994E36F8154088
:101010000C4326F81540DF6844000EFA04F6B74387
:101020000BFA04FC47EA0C07DF601F6802FA04FCB5
:10103000B74347EA0C071F60012A01D0022A0DD1ED
:101040005F6889B28F430AFA00F189B20F435F608B
:10105000996808FA04F4B14321439960401CC0B276
:101060001028CDD3BDE8F08F00B5FFF7B7FF012101
:101070008140804802681143016000BDFCB51646FE
:10108000DDE907C50C00074608D0FFF7EDFFCDE905
:1010900000C5324621463846FFF7A5FFFCBD2DE9C5
:1010A000FC4F9946DDE90BB792460D00064622D06B
:1010B000FFF7DAFF002201214FF00F0C01FA02F0D6
:1010C00028420DD0D00806EB8003186A5407E40EBE
:1010D0000CFA04F820EA080007FA04F42043186226
:1010E000521C102AEAD3CDE9009B5346022229461E
:1010F0003046FFF778FFBDE8FC8FF0B50E46054699
:10110000FFF76CFF00225A49C4B24FF0010C0327CD
:101110000CFA02F333420CD028684FEA420E07FA69
:101120000EFE40EA0E00286031F81400984321F8C2
:101130001400521CD2B2102AEAD3F0BDF0B500223E
:101140000125032605FA02F30B4205D00468570077
:1011500006FA07F39C430460521CD2B2102AF1D362
:10116000F0BDF0B500220127032607FA02F33C4642
:101170000B4208D00568530006FA03FC25EA0C056B
:101180009C4025430560521CD2B2102AEDD3F0BD1D
:10119000F0B500220125032605FA02F30B4205D023
:1011A0000468570006FA07F31C430460521CD2B2CD
:1011B000102AF1D3F0BDF0B5002201260324022746
:1011C00006FA02F30B4209D00568530004FA03FC47
:1011D00025EA0C0507FA03F31D430560521CD2B241
:1011E000102AEDD3F0BDF0B500230127032507FA3F
:1011F00003F40C4209D0C6685C0005FA04FC26EA38
:101200000C0602FA04F42643C6605B1CDBB2102B0A
:10121000EDD3F0BD41F48032C261C161C261C169E8
:10122000C0697047002102E0491C89B240080128CA
:10123000FAD80846704700B5FFF7D0FE012181407B
:101240000C4802688A43026000BD00B5FFF7C6FE85
:10125000074931F8100000BD00B5FFF7BFFE044993
:1012600031F81000C04380B200BD00000000FEBF96
:10127000080200203038024090B0002400F0A3F8AB
:10128000FFF7E4FCFFF7F3FCFFF74CFCFFF720FD52
:101290000EA8FFF72DFD6846FFF70EFE04A8FFF726
:1012A0006FFD09A8FFF76CFDDFF85480154D4FF076
:1012B00001094FF0150A0027AE1408F1020BFFF7E1
:1012C00014FD012802D0ABF80060F8E7A8F8006030
:1012D0002869C00700D06CB12869C007EFD1012C84
:1012E000EDD100248DF803708DF808706846FFF783
:1012F000F5FDE4E701248DF803908DF808A0F5E7EB
:10130000180C0240000002407047FEE7FEE7FEE7CF
:10131000FEE7704770477047704710B5FFF7D6FB80
:1013200010BD00000CB500225449009201920868DB
:1013300040F4803008604FF4A043086800F40030A7
:1013400001900098401C0090019810B900989842B4
:10135000F3D10868800334D501200190474840301C
:10136000026842F0805202604548026842F44042FE
:1013700002604248083002680260026842F400429B
:101380000260026842F4A0520260031F3D4A1A60E4
:101390000A6842F080720A600A689201FCD53A49F4
:1013A00040F205720A60016821F0030101600168E2
:1013B00041F0020101600168C1F381010229FAD103
:1013C0000CBD01920CBD314810B5016841F47001AB
:1013D00001602A48016841F001010160274A0021AB
:1013E0000832116002682A4B1A400260031D294A24
:1013F0001A60026822F48022026020480C300160EA
:10140000FFF790FF21494FF000608039086010BD60
:1014100070B51A4D083528681F4B204910F00C0094
:1014200004D05E10042803D0082803D00B601BE012
:101430000E6019E0114A121D1068C0F38054106844
:1014400000F03F0014B1B6FBF0F001E0B3FBF0F0A8
:1014500013681268C3F388135843C2F30142521C45
:101460005200B0FBF2F0086028680C4AC0F3031089
:10147000121D105C0A68C2400A6070BD003802404C
:101480000070004008544007003C024088ED00E036
:10149000FFFFF6FE103000240024F400240000209A
:1014A00030B5012185B00846FFF7C3F84FF4C050AE
:1014B000009003208DF8050002208DF80400002420
:1014C000494D8DF806408DF8074069462846FFF7DC
:1014D000F3F90A220B212846FFF762FA0A220C21AF
:1014E0002846FFF75DFA01218803FFF7CAF80121BA
:1014F0008020FFF7A8F801210807FFF7EAF84FF46A
:1015000080252846FFF7D9FA8DF80C4008208DF881
:101510000D00012402958DF80E4002A8FFF774FA21
:101520002846FFF7CAFA2A208DF810008DF81140DE
:1015300004208DF812008DF8134004A8FEF7BDFEBC
:101540002846FFF7BAFA05B030BD08B54FF4C060C1
:10155000FEF7AEFE43208DF8000001208DF801005B
:1015600003218DF802108DF803006846FEF7A5FEF2
:1015700008BDC0EB00100021C0000722B0FBF2F054
:10158000491C8142FCD970474FF47A714843F0E717
:10159000164810B5807AF0B11548016821F00601AF
:1015A00001600120FEF7FEFE3120FEF701FF00285A
:1015B000FAD00120FEF753FF3920FEF7F9FE00288C
:1015C000FAD00220FEF779FFFEF77FFF0828FBD153
:1015D000064800F01BFCBDE810404FF48020FFF7E8
:1015E0006CBA024800F041BE0000024060020020D8
:1015F00010ED00E0F8B50026044637460096FC4D95
:101600000320FFF7B6FFE068006900907F1CAF423F
:1016100001D90020F8BD00980028F1DA00980021D7
:1016200040F0010000900098E2681061E0680269F3
:101630000092491CA94202D8009AD207F7D1032090
:10164000FFF797FF3046F8BD30B505460020EC782F
:10165000002C0CD105EB8202DB1C9B08D2F8D020B9
:1016600003E051F8045B1560641C9C42F9D330BD63
:1016700010B504460023D21C9008D4F8D02003E013
:10168000146841F8044B5B1C8342F9D3084610BD33
:1016900070B500220123C27040268370154614469F
:1016A0008680012901D069B115E0C372082101705B
:1016B00004214FF0A04241709115C18002210172B6
:1016C000837208E0C4720C21017006214170C94A7E
:1016D0004FF4A061C18002F50061C0E9032100213F
:1016E0000AE002EB411303F5106600EB810403F5F9
:1016F0003063A661491C636543788B42F1D802F5DB
:10170000806141614031C0F8CC10002108E002EB5B
:10171000411300EB810403F5A063491CC4F8903029
:1017200003788B42F3D8002108E002EB013300EB91
:10173000810403F58053491CC4F8D03003788B42F0
:10174000F3D802F56062C0F80C21284670BD70B570
:101750000446017A0025C068012915D0C16841F00E
:101760004001C1602046FFF745FF617A4FF45020E9
:1017700009B14FF4E810E16888631420FFF704FF13
:10178000E078012819D020E0816B627A21F4803161
:101790000AB141F480118163E068C16821F0401111
:1017A00021F42021C1602046FFF724FFE0780128C2
:1017B0000BD1E1682A208860E2E7E068816821F0C7
:1017C0001E010A3141F020018160284670BDC068C9
:1017D0000022816841F00101816010467047C068B5
:1017E0000022816821F0010181601046704738B500
:1017F0000024034622460094009840F02000009008
:10180000009861F38A1000900098D96808617848C0
:10181000D9680B690093521C824202D8009B9B0638
:10182000F7D40320FFF7A5FE204638BD38B50024C5
:10183000024621460094009840F010000090009865
:10184000D36818616A48D26813690093491C8142C1
:1018500002D8009BDB06F7D40320FFF78AFE204660
:1018600038BD10B5C3680024D868012920F0C042F3
:1018700001D019B104E042F0005201E042F0804290
:10188000DA603220FFF780FE204610BDC068406954
:1018900000F001007047C068406910F0010F01D0EE
:1018A0000020704701207047C068406910F00100B7
:1018B00000D001207047C0684169806908407047C6
:1018C000C068406870470069026861F30102026005
:1018D000704730B5C368002211469A61C4686FF042
:1018E00080436361C568541E6C60C4686361C468EA
:1018F000414BA361C37803B9102141F48721C0682B
:1019000041F0081141F4401141F08041836941F0F8
:1019100004018B430B438361104630BD2DE9F04138
:1019200004460027D0F80C013D46AC462B46076024
:101930002069016821F4C0510160E07A4026012845
:1019400026D103212046FFF7BEFFE16880204862D0
:10195000E16866F31F4C60F30F0CC1F828C00CEB74
:101960001C4161F30F0360F31F43E068C0F80431CA
:1019700003EB134060F30F03E06865F31F43C0F807
:10198000083103EB134060F30F03E068C0F80C313B
:1019900010212046FFF72BFF2046FFF747FF206965
:1019A00005612069456121694FF0FF308861206938
:1019B000C56100204FF09042FF2313E004EB800C40
:1019C000DCF818E0DEF80010002901DA114600E02A
:1019D0002946CEF80010DCF818100D61DCF818105C
:1019E0008B60401C61788142E8D800201AE000003A
:1019F000400D0300000004400008008004EB800C50
:101A0000DCF854E0DEF80010002901DA114600E0AD
:101A10002946CEF80010DCF854100D61DCF85410A3
:101A20008B60401C61788142E8D82069016941F4EB
:101A300080710161E078012808D1032066F38A00F3
:101A4000216940F4803066F3594008632046FFF76F
:101A500040FF3846BDE8F0810146002009698968E9
:101A6000C1F3410139B1012903D0022905D003296D
:101A700000D102207047032070470120704710B545
:101A800001690024896883691A68C1F3410129B199
:101A9000012903D0022904D0032905D16FF30A02DA
:101AA00002E06FF30A02D21C1A600069416841F437
:101AB00080714160204610BDF0B506460D780020CB
:101AC0004F780124AC40034606EB8502012F18D065
:101AD000526D64F31F43146825040DD40D8965F31A
:101AE0000A04CD78897965F3934461F3995444F0FD
:101AF000805141F4004111603169CA691A43CA61D9
:101B0000F0BD926964F30F03E5E770B50B78044606
:101B100000254E7801229A40284604EB8301012ECD
:101B200009D0496D62F31F400D602169CA69824383
:101B3000CA61284670BD896962F30F00F4E7F0B509
:101B40004B780A7800240125D1F814C000EB8202FA
:101B5000012B17D0566D32683369BCF1000F64D089
:101B60008D680CEB05077F1EB7FBF5F767F3DC43C9
:101B7000C3F3C9476F4367F312033361C378012B83
:101B800059D05EE097693A683E69BCF1000F0DD00C
:101B90008B686CF312069C44ACF1010CBCFBF3F3B4
:101BA00063F3DC46CB78012B05D008E06FF3120617
:101BB00065F3DC4603E026F0C04606F100563E61C0
:101BC000C378012B0ED0CB78012B12D04B69BBB15F
:101BD0000B789D4003695E6B2E435E63CB78012BCF
:101BE00007D00DE00D780B6900EB8505AD696B61E1
:101BF000F4E703699B681B0ADB070CD042F08052B4
:101C00000B7842F0044200EB83039B691A60CA78A8
:101C1000012A03D026E042F00052F1E78A8A93B20B
:101C20000A78C968FFF710FD1CE08F6867F312039C
:101C300065F3DC43A1E70D780B6900EB85056D6D5D
:101C40006B61CB78012B06D14B7913B142F0005276
:101C500001E042F08052097842F0044200EB81003A
:101C6000406D02602046F0BDF0B54B7800254A6912
:101C7000012B14D00B7800EB8304636D1E681B6985
:101C8000E2B38A684A6162F3060323F4C012636D0B
:101C900002F500221A61C278012A32D037E0836946
:101CA0001F681C6932B18E68B24208D966F3060417
:101CB0004E6106E024F07F0222F4C01203E062F3DA
:101CC000060424F4C01202F500221A61C278012A27
:101CD00005D10C780A6900EB8404A469626147F0BD
:101CE00004421A60C278CAB94A69BAB10A7800696E
:101CF00001219140426B0A4342630FE0FFE70A7AF9
:101D0000C1E70B780A6900EB83035B6D5A610978C0
:101D100046F0044200EB8100406D02602846F0BDB1
:101D200002464B780978002002EB8101012B05D097
:101D3000496D0A6842F400120A6070478A691168A6
:101D4000002901DA41F0804141F40011116070472F
:101D500010B503464C780A78002003EB8202012C70
:101D600009D0526D1368C97823F40013032904D0F5
:101D7000022902D003E09269F4E743F08053136034
:101D800010BD00698169C0690840000C704700EB14
:101D90008101496D896800694069084070470069A0
:101DA0008169C069084080B27047426D5C49116129
:101DB000C178012908D1426D00F2CC515161406DCA
:101DC00001684FF080210160704710B50446D0F8DB
:101DD0001801002819D020698068C00715D0A07AA2
:101DE00030B1D4F80C01D4F80C1120F003000860D5
:101DF0002069416841F0010141600520FFF7C4FB03
:101E00002069416821F00101416010BD817A0029FB
:101E10000AD001698968C90706D0D0F80C11D0F83A
:101E20000C0121F003010160704710B50446012048
:101E300084F812010020FF2206E004EB80018B6988
:101E40009A60496D8A60401C61788142F5D82169A9
:101E500000200861216948612169C8612169401E2B
:101E600088612046FFF7E2FC2046BDE810401021C3
:101E7000BDE44A780978012A00EB810006D0406D64
:101E8000006881020ED54FF4805070478069006869
:101E9000810201D510207047800301D520207047B2
:101EA00030207047800302D54FF4005070474FF444
:101EB0004050704730B44C780B78002500EB83031A
:101EC000012C0BD05C6D2368B2F5805F17D0B2F5A2
:101ED000005F17D0B2F5405F0CD007E09C69236823
:101EE000102A05D0202A0DD0302A03D092B113E059
:101EF00030BC15E79A0208D54D7130BC28E743F491
:101F0000001309E043F0006306E043F0806040F016
:101F1000802301E023F40043236030BC70470000BD
:101F2000180008C070B50446FFF7B2FB012000237B
:101F300084F8120184F814311A46402510E002EBAF
:101F4000820104EBC10181F81D0181F81C21A1F877
:101F5000222181F81F31C1E94953521CC1F83031A7
:101F600061789142EBD8002010E000EB800104EB97
:101F7000C10181F8753381F87403A1F87A0381F8FF
:101F80007733C1E9DF53401CC1F88833617881425F
:101F9000EBD82046FFF723FC2046FFF7D8FB0021B3
:101FA0002046FFF75EFC2046FFF7B8FC2046BDE860
:101FB0007040FFF70CBC70B50D460E0601F07F04B3
:101FC00004EB840100EBC10102D501F58E7101E043
:101FD00001F55D71ED090C704D708A60CB7000D019
:101FE000CC80022B01D100220A71FFF765FD002091
:101FF00070BD10B50B460C0601F07F0202EB8201AA
:1020000000EBC10102D501F58E7101E001F55D71B2
:102010000A70DA094A70FFF778FD002010BD10B58C
:1020200001F07F0404EB840100EBC101C1F88833A7
:10203000C1F880230023C1F88C3381F8753381F80F
:102040007443C37801F55D71012B00D10A6114F06E
:10205000FF0F03D0FFF773FD002010BDFFF704FE54
:10206000FAE770B511F07F0404EB840100EBC101C5
:102070004FF0010581F81D5181F81C41C1F828215C
:10208000C1F82C2101F58E714FF00002C1E9053233
:1020900003D0FFF754FD002070BDFFF7E5FDFAE720
:1020A0000A4610B5090602F07F0306D503EB83014B
:1020B00000EBC10101F58E7105E002EB820100EB3E
:1020C000C10101F55D7101248C700B70D2094A7059
:1020D000FFF726FE002010BD0A4610B5090602F0E3
:1020E0007F0306D503EB830100EBC10101F58E717F
:1020F00005E002EB820100EBC10101F55D710024F6
:102100008C700B70D2094A70FFF722FE002010BDC0
:1021100010B50A0604D501F07F01FFF768FB01E066
:10212000FFF784FB002010BD0069002261F30A1252
:1021300001681143016070470069416821F00201A4
:1021400041600320FFF720BA0069416841F00201B5
:1021500041600320FFF718BA0A0608D501F07F0195
:1021600001EB810100EBC10101F58E7105E001EB8E
:10217000810100EBC10101F55D71FFF77ABE0B062D
:1021800008D501F07F0101EB810100EBC10101F5F0
:102190008E7105E001EB810100EBC10101F55D717C
:1021A000FFF788BE2DE9F04106460024FFF7F7FD52
:1021B000074655E0F80751D03069E1B20369426B38
:1021C000CA4006EB810102F00102896943EAC212AA
:1021D0008D681540E9071AD00125426B05FA04F114
:1021E0008A43426306EB840080698560FE48E1B261
:1021F0000068426830469047F078012807D134B92A
:1022000096F81101042802D13046FFF7CEFD2807C9
:1022100004D506EB8400082580698560E80604D5AE
:1022200006EB8400102580698560680604D506EBFE
:102230008400402580698560A80704D506EB8400EA
:10224000022580698560280608D52146304600F0C1
:1022500076F906EB84018020896988607F08641C18
:10226000002FA7D10120BDE8F0812DE9F0470646F7
:102270000024FFF710FB00287ED03046FFF71BFB41
:10228000051E7AD0280303D5304600F090F90446A5
:10229000680303D53046FFF785FF0443A8074FF0D6
:1022A000000A02D5F16802204861CF4F4FF00109C2
:1022B000002D17DAB07A30B1D6F80C01D6F80C112F
:1022C00020F0030008603069416821F0010141609D
:1022D0003868816930468847F1684FF000404861AE
:1022E00044F00104280503D5304600F0F5F8044316
:1022F000280708D53868C16830468847F168082043
:10230000486144F00104E80603D5304600F0A6F821
:102310000443E80403D5304600F060F80443A80401
:102320001AD53046FFF7ABFBF068D0F80C8030468A
:10233000FFF792FB032847D086F80290402128F44B
:102340007050B18000F5A050F168C860F1684FF49A
:102350000050486144F00104E80209D53868C169B9
:1023600030468847F1684FF48010486144F001041A
:10237000A8020CD5386801E023E023E0016A30466A
:102380008847F1684FF40010486144F00104680088
:1023900009D53868416A30468847F1684FF0804077
:1023A000486144F0010468070BD5F0684568680788
:1023B00003D53868816A30468847F068456044F044
:1023C00001042046BDE8F08786F802A04FF40071B2
:1023D00028F47050B18000F51050B5E770B5044690
:1023E000006900250126416821F00101416029466C
:1023F0002046FFF7FCF90020FF2206E004EB8001F5
:102400008B699A60496D8A60401C61788142F5D879
:1024100021694FF0FF3088612846216966F30F007B
:1024200066F31F40C861216945F00B0048612169CE
:1024300045F00B0008612069016821F4FE6101602C
:102440002046FFF7B2FCE1684FF4805048616648CF
:102450000068016920468847012070BD70B50546B7
:10246000C068816921F010018161E868066A06F0A0
:102470000F0000EB800005EBC004C6F3434004F5F9
:102480005D74072821D2DFE800F0202004202020FE
:10249000150047F6F070064217D0C6F30A1632460A
:1024A0002846E168FFF7E4F8E0683044E060A0699E
:1024B000304409E0082205F2CC512846FFF7D8F84D
:1024C000A069C6F30A110844A061E868816941F077
:1024D00010018161012070BD38B5044600208DF8DF
:1024E000000094F812018DF800003F48006841692F
:1024F0002046884720698068E2684FF40061516196
:10250000A17AD1B1C00718D094F81501012814D1CF
:102510009DF80000032810D1D4F80C01016841F0A7
:1025200001010160D4F80C01016841F00301016070
:102530002E48016841F006010160012038BD2DE9F7
:10254000F0470E4601EB860100EBC1048146D4E959
:102550004C01401AD4F8241104F58E74814200D243
:102560000846C01C870809EB860812E0451AA068D7
:10257000A84200D20546E81C8708ABB2F2B2484632
:10258000E168FFF761F8E0682844E060A06928444A
:10259000A061D8F81800806980B2B84205D9D4E9A2
:1025A0000501814201D20028E0D101200AE72DE98E
:1025B000F04105460024FFF7E4FB0746DFF82880DA
:1025C00048E0F80744D0E1B22846FFF7E0FB0646B2
:1025D000C0072AD005EB84000126416D8E60E978A2
:1025E000012911D1406D03E06400002010ED00E0EE
:1025F000016904EB840005EBC000C1F31201D0F8BF
:102600007C23511AC0F88C13D8F80000E1B202689C
:1026100028469047E878012807D134B995F8110188
:10262000052802D12846FFF7C0FBB00704D505EB0B
:1026300084000226406D8660300709D5D8F8000076
:1026400081682846884705EB84010820496D886029
:102650007F08641C002FB4D1012004E600207047DD
:102660002DE9F0411D46174688460446069EFEF7B2
:1026700017FF04F2E452414682E8E0002046FFF7EB
:1026800051FCD4F8E805006880472046BDE8F041D9
:10269000FEF75BBF1CB50446694600F02EFC9DF8B2
:1026A000002012F01F010AD001290DD0022910D0FC
:1026B00002F080012046FFF7F3FC00201CBD6946B4
:1026C000204600F021FBF8E76946204600F092FB27
:1026D000F3E76946204600F0A8FBEEE770B5054633
:1026E00041B1D5F8E4058269FAB195F812010328E1
:1026F0002AD02BE095F8110105F55D74032825D14A
:10270000A168E069884211D9401AE061E87801289F
:1027100002D1E0680844E060E069884200D30846DE
:1027200082B22846E16800F010FA0FE0D5F8E4051F
:10273000016929B195F81201032801D1284688477B
:10274000284600F00BFA01E028469047002070BDB3
:1027500070B5054641B1D5F8E40542698AB395F8EC
:102760001201032846D047E095F81101002605F52F
:102770008E74022833D1E169A06881420FD9081A0A
:10278000E061E878012803D1D4E902100844E06050
:10279000A08BE16882B2284600F0BEF91FE0216AF2
:1027A000B1FBF0F200FB121262B981420AD3606AF7
:1027B000814207D200221146284600F0ADF9666238
:1027C0000DE016E0D5F8E405C16829B195F81201CD
:1027D000032801D128468847284600F0D0F995F80B
:1027E0001601012808D1404800682969486085F829
:1027F000166101E028469047002070BD10B5002307
:10280000044640221946FFF7D6FB002340228021D0
:102810002046FFF7D0FB012084F81201D4F8E81518
:10282000A07849688847002010BD10B50446D0F84C
:10283000E80500698047032084F81201002010BDDC
:1028400010B590F8121180F81311042180F81211BC
:10285000D0F8E805C0688047002010BD10B5D0F85A
:10286000E415C96901B18847002010BD10B50446C0
:10287000D0F8E405026820469047D4F8E80580685F
:102880008047002010BD10B5D0F8E425526890476D
:10289000002010BD10B5D0F8E415096A8847002063
:1028A00010BD10B5D0F8E415496A8847002010BD66
:1028B00010B50446D0F8E80540698047012084F847
:1028C0001501002010BD10B50446D0F8E805806958
:1028D0008047D4F8E4050021426820469047002054
:1028E00084F8150110BD0000680000201220088047
:1028F0001A487047042008801848001F70470A468D
:1029000010B5174920B117A000F019FB144810BDED
:102910001CA0F9E710B50A46114922A000F00FFBF0
:102920000F4810BD0A4610B50D4920B122A000F095
:1029300006FB0B4810BD24A0F9E710B50A4608496C
:1029400025A000F0FCFA064810BD10B50A4604495F
:1029500024A000F0F4FA024810BD00008C00002012
:102960001E020020544D2055534220484944206403
:10297000657669636520696E204653206D6F6465D6
:1029800000000000544D2055534220484944206423
:10299000657669636520696E204853206D6F6465B4
:1029A0000000000053544D6963726F656C65637479
:1029B000726F6E6963730000303030303030303009
:1029C00030313143000000003030303030303030B2
:1029D000303131420000000048494420436F6E66A8
:1029E0006967000048494420496E746572666163F6
:1029F0006500000010B50446032304228121FFF77F
:102A0000DAFA0323042201212046FFF7D4FA00203A
:102A100010BD10B504468121FFF7EBFA01212046D5
:102A2000FFF7E7FA002010BD70B500220C78314D99
:102A3000134614F060041DD0202C42D14A78022A9B
:102A400014D0032A0AD00A2A0CD00B2A03D000F093
:102A5000AFF8022070BD8878686032E02549012215
:102A6000091D26E04888000AA8602AE021490122C1
:102A700008311EE04C78062C04D00A2C1CD00B2CFC
:102A80001FD11CE04C882225B5EB142F06D1CA8833
:102A9000C52A00D9C522174B2E3309E02125B5EBF5
:102AA000142F05D1134BCA881E33092A00D90922D5
:102AB000194600F021F804E001220E49F9E7887870
:102AC0002860002070BD10B5134690F81221032A2B
:102AD00003D10A468121FFF7C4FA002010BD22204D
:102AE000088004480C30704710B58121FFF710FBB7
:102AF000002010BDCC00002010B5C0F83C210223FE
:102B0000C0F8382180F81131134600240A462146C6
:102B1000FFF7A7FA204610BD10B5134600240A4659
:102B20002146FFF79EFA204610BD10B5C0F8942349
:102B30000323C0F8902380F81131134600240A467D
:102B40002146FFF76CFA204610BD10B5134600244D
:102B50000A462146FFF763FA204610BD70B50546C8
:102B60000024042085F811012346224621462846E8
:102B7000FFF777FA2846FFF718F9204670BD70B5C1
:102B800005460024052085F81101234622462146EA
:102B90002846FFF744FA2846FFF707F9204670BD9C
:102BA00001EB810100EBC100B0F88C0380B27047EB
:102BB00010B504468021FFF773FA00212046FFF785
:102BC0006FFA2046BDE81040FFF7EFB870B50A462F
:102BD000FB4D897804462970012905D894F8120123
:102BE000022806D003280BD02046BDE870401146CD
:102BF000DEE7A1B184F81011032084F812010BE084
:102C000091B194F81001884209D001462046FFF79F
:102C10003AFE297884F810112046FFF727FE204657
:102C2000BDE87040FFF79ABF022084F8120184F8D3
:102C300010112046FFF727FEF1E738B50446488813
:102C40000D46010A04295AD2DFE801F05902142086
:102C5000D4F8EC15A0780A68694690470146E888E0
:102C6000402803D094F81201012837D10820ADF88C
:102C7000000037E0D4F8E415A0788A6A69469047E6
:102C8000014602204870C4F8F01527E0C0B20628BB
:102C900035D2DFE800F003080D12171CD4F8EC154C
:102CA000A0784A6817E0D4F8EC15A0788A6812E09A
:102CB000D4F8EC15A078CA680DE0D4F8EC15A0782B
:102CC0000A6908E0D4F8EC15A0784A6903E0D4F862
:102CD000EC15A0788A69694690470146BDF8000066
:102CE00000280BD0EA88002A08D080B2824200D99E
:102CF0000246ADF800202046FFF7FEFE38BD29460B
:102D00002046FFF755FF38BD2DE9F0414A780027EE
:102D100001260A2A43D2DFE802F03C55425242081B
:102D200005422A27FFF789FF61E004468888C8B971
:102D3000C888B8B9887800F07F0594F81201032894
:102D400010D084F8145129462046FFF7EDF92046AB
:102D5000FFF704FF1DB1022084F8120147E084F858
:102D6000126144E020461AE0FFF730FF3FE0CA88D6
:102D7000012A14D190F81221022A02D0032A0ED17E
:102D800003E08F490122083116E0012200F5887125
:102D900012E090F81221022A04D0032A02D0FFF791
:102DA00007FF24E08649CE60D0F818210AB103223B
:102DB000CA60834902220C31FFF79EFE17E000F043
:102DC000E1F814E0044690F81201022801D003282B
:102DD000C8D1488801280AD10020C4F81801D4F8C5
:102DE000E4058268204690472046FFF7B7FE384644
:102DF000BDE8F08170B5054690F8120100260C463A
:102E000003280DD1207901280AD8D5F8E405826875
:102E100028469047E08830B92846FFF79FFE02E039
:102E20002846FFF7C5FE304670BD70B50D46044616
:102E300009796878002658B3012816D0032831D1C3
:102E400094F8120102282FD0032827D1688828B9C6
:102E500021B1802902D02046FFF722F9D4F8E405F9
:102E600029468268204690470EE094F81201022815
:102E70001AD0032812D16888A0B929B1802903D0BB
:102E80002046FFF729F9E9E72046FFF767FE09E04A
:102E900094F81201022807D003280DD029462046B5
:102EA000FFF786FE304670BD0029FBD08029F9D09F
:102EB0002046FFF7F5F8F5E7414A08064FF0000312
:102EC0004FF0010508D501F07F0000EB800004EB16
:102ED000C00090F81E0105E001EB810004EBC0008A
:102EE00090F8760308B1556000E05360344902223F
:102EF000091D2046FFF700FED4E790F8CC250A70A4
:102F000090F8CD254A7090F8CE2590F8CF3502EB99
:102F100003224A8090F8D02590F8D13502EB0322A5
:102F20008A8090F8D22590F8D33502EB032292B232
:102F3000CA800121C0F8402180F81111704770B596
:102F4000002300281DD00446002502E06D1CEDB2D0
:102F5000641C2678002EF9D1022404EB4504148069
:102F6000CC545B1C0322CA5400245B1C06E0CA54E8
:102F70005B1CDAB28C54521CD3B2401C0278002A7B
:102F8000F5D170BD10B504464888012201280FD044
:102F9000022833D1888810F0FF0F2FD121694968AA
:102FA000000A062821D2DFE800F0200D1115191DB6
:102FB000C4F81821D4F8E40582682046904718E048
:102FC000C001002021F0700110310EE021F07001ED
:102FD00020310AE021F07001303106E021F070016B
:102FE000403102E021F0700150310548016084F861
:102FF00016212046BDE81040FFF7B0BD10BD00000F
:10300000680000200D490220087070470B4902201B
:10301000087070470949012008707047074902206D
:103020000870704705490220087070470349022064
:10303000087070470149022008707047EC010020B9
:1030400070B5064600F056F8056806F10B0020F052
:103050000704B4429CBF002070BD2B466A68BAB119
:103060001068A04210D304F1080188423CBF5068A8
:10307000586007D35168101941601168091B01603D
:1030800058601460101D70BD13465268002AE7D1C5
:103090002146284600F036F80028DED170BD70B514
:1030A0000446051F00F026F80068002C14BF446891
:1030B00070BD002C18BFAC423CBF20466468F8D3FA
:1030C00001680A18AA4218BF456003D12A6805465C
:1030D0001144016028684119A1421CBF6C6070BD99
:1030E0006168696021680844286070BD7047704756
:1030F00070470000004870475C0800207047704728
:103100007047704738B504460A4600206946AFF359
:103110000080002808BF38BD02460099204600F014
:103120003FF8012038BD012000F054B8F8B5AFF3E6
:103130000080054600200C46102000BF0646A81956
:10314000A0420DD9324669460020AFF30080070047
:1031500008BF00F03FF80098A04218BF0546C41908
:10316000FFF7C8FF05600746F01D20F0070046196D
:10317000284600F00AF8B44208BFF8BDA21B314649
:103180003868BDE8F84000F00BB800210160C0E9E4
:103190000110704710207047004870475408002005
:1031A000034640688C46002818BF88423CBF03464F
:1031B0004068F8D318681844884207D00CF103001F
:1031C00020F00700001D411A521A0146081D0A602E
:1031D000FFF765BF10B500F039F8BDE8104000F00A
:1031E0002FB870477546FFF7D7FFAE460500694612
:1031F000534620F00700854618B020B5FDF746F885
:10320000BDE820404FF000064FF000074FF00008E7
:103210004FF0000B21F00701AC46ACE8C009ACE868
:10322000C009ACE8C009ACE8C0098D46704710B5CC
:103230000446AFF300802046BDE81040FDF711B80A
:10324000002801D000F02AB87047000010B501280E
:1032500005D0002103A000F027F8012010BD09A12E
:10326000F8E7000053494752544D454D3A204F75F9
:1032700074206F662068656170206D656D6F72796E
:10328000000000003A2048656170206D656D6F7226
:103290007920636F7272757074656400014918203B
:1032A000ABBEFEE72600020070B505460C460A20BC
:1032B00000E06D1C00F011F835B128780028F8D135
:1032C00002E0641C00F009F814B120780028F8D15D
:1032D000BDE870400A20AFF3008008B569468DF85C
:1032E00000000320ABBE08BD4FF04070E1EE100AB5
:1032F000704700001433000800000020F0010000B7
:10330000C401000840340008F0010020C80E00008D
:1033100020020008412D01020304040515060708D8
:1033200009847A030A692813DD26140851271B082B
:103330009508135D281B08FD0C1A41081A2B041A66
:1033400095041AA3041AB1041AC704223842201A99
:10335000ED0C1AF5041315291B08FF081A25081A85
:103360003B041A4B041704030904120132021640ED
:10337000830410571A026A22011AF51C13132A1B20
:10338000082904819AE90C81DADF14140902221356
:1033900001011DE0320904B52A03121421110114A0
:1033A0000122C516070581030410110A050109064B
:1033B000A1018501050719E029E7151813250175F5
:1033C0000195088102950175088103950675081419
:1033D0001A651E11142965811AC02F1702A101094F
:1033E00001A128098502050919012903333D950327
:1033F0007501331954192228113009310938158102
:10340000257F750895038106C0362B05A1343A0344
:10341000343A10342A1034592E5C320933309C046B
:103420008102300A24043001111305301B080D04F9
:103430001A15041A2D041A35041A1D041A250441FC
:040000050800018965
:00000001FF
