:020000040800F2
:10000000C806002031020008D5210008D7210008C9
:10001000D9210008DB210008DD21000800000000D4
:10002000000000000000000000000000DF210008C8
:10003000E121000800000000E3210008E72100089A
:100040004B0200084B0200084B0200084B0200085C
:100050004B0200084B0200084B0200084B0200084C
:100060004B0200084B0200084B0200084B0200083C
:100070004B0200084B0200084B0200084B0200082C
:100080004B0200084B0200084B0200084B0200081C
:100090004B0200084B0200084B0200084B0200080C
:1000A0004B0200084B0200084B0200084B020008FC
:1000B0004B0200084B0200084B0200084B020008EC
:1000C0004B0200084B0200084B0200084B020008DC
:1000D0004B0200084B0200084B0200084B020008CC
:1000E0004B0200084B0200084B0200084B020008BC
:1000F0004B0200084B0200084B0200084B020008AC
:100100004B0200084B0200084B0200084B0200089B
:100110004B0200084B0200084B0200084B0200088B
:100120004B0200084B0200084B0200084B0200087B
:100130004B0200084B0200084B0200084B0200086B
:100140004B0200084B0200084B0200084B0200085B
:100150004B0200084B0200084B0200084B0200084B
:100160004B0200084B0200084B0200084B0200083B
:100170004B0200084B0200084B0200084B0200082B
:100180004B0200084B02000800F002F800F040F8B3
:100190000AA090E8000C82448344AAF10107DA45E2
:1001A00001D100F035F8AFF2090EBAE80F0013F0F4
:1001B000010F18BFFB1A43F0010318474429000040
:1001C00064290000103A24BF78C878C1FAD85207D1
:1001D00024BF30C830C144BF04680C6070470000C1
:1001E0000023002400250026103A28BF78C1FBD840
:1001F000520728BF30C148BF0B6070471FB502F0DF
:1002000079FC9DE8030002F027F91FBD10B510BD71
:1002100002F07EF91146FFF7F1FF01F093FF02F0C3
:100220009CF903B4FFF7F2FF03BC02F0CDF9000024
:100230000948804709480047FEE7FEE7FEE7FEE77A
:10024000FEE7FEE7FEE7FEE7FEE7FEE704480549B6
:10025000054A064B704700009322000889010008F8
:10026000C8000020C8060020C8020020C8020020E4
:10027000F848016841F001010160F64A00210832A6
:1002800011600268F44B1A400260031DF34A1A60C1
:10029000F04BF34A84331A60F04A103A1B1D1A607F
:1002A000026822F480220260EA480C300160181DC6
:1002B00001607047E7490022891C0A700870704786
:1002C00002460020510901290CD002290CD0E14935
:1002D0007431096802F01F02012393400B4200D0E1
:1002E00001207047DB49F4E7DA497031F1E718B5CE
:1002F00000204FF4A04400903120FFF7E1FF009967
:10030000491C0091A14201D00028F5D03120FFF70F
:10031000D7FF002800D0012018BDCE4A116821F077
:10032000F80141EAC00010607047CE49086070478C
:10033000C849002270310A700A70012802D00428CE
:1003400001D1052008707047C7490860704741EA2D
:1003500082115A0810B5C54B029C03EB02421143AF
:10036000014341EA0460BB49091D086010BDBD4955
:1003700008667047800140EA0170B6498431086020
:100380007047B84988667047800140EA0160B1490A
:1003900040EA0270883108607047B24908677047C8
:1003A000B049C8647047AB4B08331A68084322F061
:1003B000EC62104318607047A64B08331A68084374
:1003C00022F07842104318607047A24A0832116840
:1003D00021F003010143116070479E480830006816
:1003E00000F00C0070479B4A0832116821F0F001C0
:1003F000014311607047974A0832116821F4E051B7
:10040000014311607047934A0832116821F460413A
:1004100041EAC0001060704770B58E4B0833196810
:10042000934C11F00C0104D06610042903D0082964
:1004300003D004601BE0066019E0864A121D1168B3
:10044000C1F38055116801F03F0115B1B6FBF1F120
:1004500001E0B4FBF1F114681268C4F3881461433D
:10046000C2F30142521C5200B1FBF2F10160196863
:100470000F2202EA11117F4A545C0168E140416099
:100480001C68072505EA9424145D21FA04F48460AD
:100490001B6805EA5333D25CD140C16070BDC0F324
:1004A0000121032908D16B4B08331968724A21F4E2
:1004B000F81102400A431A60664970310A68C0F3B5
:1004C0000B0002430A60704767494439086070476F
:1004D00065494039086070476249C1F85C0170475E
:1004E0005C4A8C32116821F440110143116070475D
:1004F000584A8C32116821F4400101431160704761
:10050000544A8C321168401E21F01F0101431160D2
:100510007047504A8C3211686FF0FF0321F4F85194
:1005200003EB00200843106070474A4A8C32116880
:1005300021F440310143116070475049C1F8E00196
:100540007047444A30320029116801D0014300E06D
:100550008143116070473F4A34320029116801D04D
:10056000014300E08143116070473A4A3832002964
:10057000116801D0014300E0814311607047354AA2
:1005800040320029116801D0014300E0814311602D
:100590007047304A44320029116801D0014300E01D
:1005A0008143116070472B4A10320029116801D035
:1005B000014300E0814311607047264A143200294C
:1005C000116801D0014300E0814311607047214A66
:1005D00018320029116801D0014300E08143116005
:1005E00070471C4A20320029116801D0014300E005
:1005F000814311607047174A24320029116801D0E5
:10060000014300E0814311607047124A50320029D3
:10061000116801D0014300E08143116070470D4A29
:1006200054320029116801D0014300E08143116078
:100630007047084A58320029116801D0014300E090
:10064000814311607047034A60320029116817D056
:10065000014316E000380240FFFFF6EA10300024A4
:100660000030002000004742800E47420000FFFF9C
:100670000024F40000000020FFFCFF0F00104742A0
:10068000814311607047194A0029116801D0014364
:1006900000E081431160704714490C31012808685B
:1006A00003D020F008000860704740F00800FAE727
:1006B0000E4A573A0029117801D0014300E08143E6
:1006C0001170704709481030016841F08071016075
:1006D00070470146054A0020583A12680A4200D085
:1006E000012070470149563908707047643802404C
:1006F000FE4910B5884206D101210846FFF77BFF6D
:10070000002101205BE0B0F1804F09D0F849884218
:100710000DD101210220FFF764FF0021022070E0CB
:1007200001210846FFF75DFF0021012069E0F14942
:10073000884206D101210420FFF753FF0021042045
:100740005FE0ED49884206D101210820FFF749FF0B
:100750000021082055E0E949884206D101211020F6
:10076000FFF73FFF002110204BE0E549884206D10A
:1007700001212020FFF735FF0021202041E0E14941
:10078000884206D101210220FFF735FF0021022017
:1007900015E0DD49884202D101210C040AE0DB4961
:1007A000884202D101214C0404E0D94988420AD18F
:1007B00001218C042046FFF71EFF00212046BDE8E2
:1007C0001040FFF718BFD349884206D101214020CD
:1007D000FFF707FF0021402013E0CF49884206D1F0
:1007E00001218020FFF7FDFE0021802009E0CB4998
:1007F00088420AD1841501212046FFF7F2FE00212C
:100800002046BDE81040FFF7ECBE10BD30B50288B1
:10081000B64CBC4DA0420DD0A8420BD0B0F1804FD9
:1008200008D0B34B984205D0B24B984202D0B24B9D
:10083000984203D122F070034A881A43AF4B984282
:1008400006D0AF4B984203D022F440730A891A4372
:1008500002804A68C2620A880285A04201D0A8428A
:1008600001D1897A01860121818230BD4FF0FF31AB
:1008700041600021018001814180817270470185C2
:1008800082827047028822F070020A430280704719
:1008900041627047C1627047406A7047008D70477F
:1008A0000029018802D041F0020101E021F002019B
:1008B000018070470029018802D041F0040101E065
:1008C00021F00401018070470029018802D041F025
:1008D000800101E021F0800101807047028822F050
:1008E0000802028002880A4302807047028822F4CC
:1008F0004072028002880A43028070470029018802
:1009000002D041F0010101E021F0010101807047B6
:1009100030B5028C22F001020284028C8388048BA1
:1009200022F0020224F073050C882C438D891543B4
:100930004A882A436D4DA84202D0724DA8420DD17B
:1009400022F00805CA8923F440732A4322F00405E3
:100950008A882A430D8A1D434B8A2B438380048354
:1009600089684163028430BD70B5028C22F01002A8
:100970000284028C8388048B0D8824F4E6464FF6AB
:10098000FF7404EA052535438E8922F0200204EA2B
:10099000061616434A8804EA02123243534EB04206
:1009A00002D0584EB04215D122F08006CA8923F4F5
:1009B000406304EA0212324322F040068A8804EAC5
:1009C000021232430E8A04EA86061E434B8A04EA68
:1009D000830333438380058389688163028470BD08
:1009E00070B5028C22F480720284028C8388848B1E
:1009F0000D8824F0730425438E894FF6FF7422F48A
:100A0000007204EA062616434A8804EA02223243A8
:100A1000364EB04202D03B4EB04215D122F40066B1
:100A2000CA8923F4405304EA0222324322F4806646
:100A30008A8804EA022232430E8A04EA06161E431A
:100A40004B8A04EA03133343838085838968C16337
:100A5000028470BD70B5028C22F480520284058C31
:100A60008288838B0C8823F4E6464FF6FF7303EAF3
:100A70000424344325F400568D8903EA05353543B3
:100A80004E8803EA06362E43184DA84202D01D4D6B
:100A9000A84205D122F480450A8A03EA82122A4339
:100AA0008280848389680164068470BD002101808E
:100AB0004180818081608181C18101824182704752
:100AC00030B50124058C00F118038C40A543058442
:100AD00031B308292CD0091FC1F34E001844016816
:100AE00048F6FF731940016001681AE000000140F8
:100AF0000004004000080040000C004000100040CE
:100B00000014004000040140004001400044014046
:100B10000048014000180040001C00400020004038
:100B200006E04FF6FF7303EA02221143016030BD75
:100B300003EB510001684FF68F73194001600168A3
:100B4000F3E74163704781637047C1637047016495
:100B50007047028B22F070020A4302837047028BB7
:100B60004FF6FF7322F4E04203EA012111430183AF
:100B70007047828B22F070020A4382837047828B17
:100B80004FF6FF7322F4E04203EA0121114381830F
:100B90007047028B22F008020A4302837047028BDF
:100BA0004FF6FF7322F4006203EA0121114301832F
:100BB0007047828B22F008020A4382837047828B3F
:100BC0004FF6FF7322F4006203EA0121114381838F
:100BD0007047028B22F004020A4302837047028BA3
:100BE0004FF6FF7322F4806203EA0121114301836F
:100BF0007047828B22F004020A4382837047828B03
:100C00004FF6FF7322F4806203EA012111438183CE
:100C10007047028B22F080020A4302837047028BE6
:100C20004FF6FF73C2F30E0203EA01211143018361
:100C30007047828B22F080020A4382837047828B46
:100C40004FF6FF73C2F30E0203EA012111438183C1
:100C50007047028C22F002020A4302847047028C21
:100C600022F008020A4302847047028C4FF6FF7399
:100C700022F0200203EA0111114301847047028C23
:100C80004FF6FF7322F0800203EA01111143018441
:100C90007047028C4FF6FF7322F4007203EA0121C1
:100CA000114301847047028C4FF6FF7322F40062F7
:100CB00003EA0121114301847047028C4FF6FF7350
:100CC00022F4005203EA013111430184704710B548
:100CD0000123048C8B409C430484038C8A4013437F
:100CE000038410BD10B50423048C8B409C43048402
:100CF000038C8A401343038410BD828B22F440622C
:100D00008283828B4FF6FF7303EA01210A438283B9
:100D10007047828B22F00C028283828B0A4382838B
:100D20007047028B22F440620283028B4FF6FF73FE
:100D300003EA01210A4302837047F0B5048C24F0D2
:100D400010040484078B068C4FF6FF7404EA011527
:100D500027F4734704EA0331394304EA02220A43C1
:100D600026F0A001294341F0100102830184F0BD67
:100D7000028B22F00C020283028B0A43028370472B
:100D80002DE9F0410C460E884988A2882389054642
:100D90000EB3042E26D0082E2E8C4FF6FF7028D0CE
:100DA00026F480562E84AF8B2E8C00EA022200EAB5
:100DB000013127F473473A4300EA0330104326F425
:100DC00020420A4342F48051A8832984E1882846BE
:100DD000BDE8F04191E700F062F9E1882846BDE8FE
:100DE000F041C5E7FFF7A9FFE1882846BDE8F041DB
:100DF00097E726F480762E84AF8B2E8C00EA0121B3
:100E000000EA0310104327F0F307384326F420626A
:100E10000A4342F48071A8832984E1882846BDE80A
:100E2000F04176E700210180418001228280C1806B
:100E3000018170472DE9F0410C460026498807469C
:100E4000012501B90226A288012A00D102252088A5
:100E500023890028384610D0FFF76FFFE188384615
:100E6000FFF75FFF23892A463146384600F017F91D
:100E7000E1883846BDE8F0417AE700F010F9E188F2
:100E80003846FFF775FF23892A4631463846FFF773
:100E900054FFE1883846BDE8F04142E7406B7047B7
:100EA000806B7047C06B7047006C704710B50A8844
:100EB0004B88CC881A438B8823431A430B891A43E7
:100EC0004B8989891A430A43A0F8442010BD0021A8
:100ED000018041808180C180018141818181704791
:100EE000002930F8441F02D041F4004101E0C1F371
:100EF0000E01018070470029818802D041F0040171
:100F000001E021F00401818070470029818802D02E
:100F100041F0010101E021F0010181807047002AC8
:100F2000828901D00A4300E08A438281704781822E
:100F3000704702460020128A0A4200D00120704702
:100F4000C9430182704702460020138A92890B42EE
:100F500002EA010202D0002A00D001207047C943F2
:100F6000018270471143A0F848107047002A828917
:100F700001D00A4300E08A438281704700298188BA
:100F800002D041F0080101E021F0080181807047A2
:100F9000018921F0070101817047028922F0700266
:100FA0000A430281704700B50346FFF7F6FF188930
:100FB00040F00700188100BD70B516460D46602947
:100FC00004464FF0010231460AD000F068F8294685
:100FD0002046FFF7E2FF208940F00700208170BD26
:100FE000FFF7ABFEF3E730B504894FF6FF7505EA6E
:100FF00003231343E4B20B432343038130BD10B5F5
:101000000446FFF7F0FF208940F07700208110BDF3
:1010100010B50446FFF7E7FF208940F480402081A7
:1010200010BD828822F07002828082880A4382800A
:101030007047028922F00702028102890A43028175
:101040007047028922F08002028102890A430281EC
:10105000704770B50589048B068C25F007050D4394
:101060004FF6FC410C4040F201110C434FF6FF716A
:1010700001EA031126F0220611433143058104835E
:10108000018470BD0029818802D041F0800101E017
:1010900021F0800181807047A0F85010704770B532
:1010A000048C24F001040484058B048C4FF6FF7635
:1010B00006EA0313134325F0F3052B4324F00A0239
:1010C0000A4342F001010383018470BD70B55A48A0
:1010D0004168491C4160816811B18168491E816085
:1010E000AFF300800024554E18E006EB84056868D5
:1010F00090B1017B81B1826872B1521E82606968D1
:101100000AD1486909698847686801688160686828
:10111000416809B900210173641CE4B23078A0422F
:10112000E3D870BD464801684FF47A70B1FBF0F027
:10113000401EB0F1807F12D24FF0E0225061414B4F
:10114000F02083F8140D00209061072010613E48C4
:10115000B1FBF0F13848C160012101707047FEE732
:1011600035480078002805D04FF0E020016941F0B3
:101170000201016170474FF0E020016921F0020196
:10118000016170472DE9F0472C4C0546DDF82090B1
:1011900020781E4617468846052802D30020BDE861
:1011A000F087182001F0E2F80028F8D00560C0E9C7
:1011B00001850773C0E90469217804EB8101486067
:1011C0002178491C2170EAE71C4B30B400211A78C1
:1011D00006E003EB81046468844203D0491CC9B271
:1011E0008A42F6D88A4218D003EB81004068EFF3B8
:1011F000108472B605E003EB8102491C9568C9B200
:1012000055601A78521E8A42F5DC1978491E197009
:1012100004B962B630BC01F0D8B830BC70470021C8
:101220000173704701210173704701688160704745
:1012300041607047016070471000002034000020BA
:10124000200000200FE000E0C0C62D007FB504465E
:101250000D466846FFF7E0F84FF6FF70A860B4F15E
:10126000804F02D0AC498C4205D1039828604FF0E2
:10127000FF30686028E0A9498C420BD0A8498C4215
:1012800008D0A8498C4205D0A7498C4202D0A74972
:101290008C4201D1019915E0A5498C4211D0A54994
:1012A0008C420ED0A4498C420BD0A4498C4208D069
:1012B000A3498C4205D0A3498C4202D0A2498C425A
:1012C00005D10399C5E90010002004B070BD0220CB
:1012D000FBE72DE9F04704462DED028BB0EE408A86
:1012E000F0EE608A0025006801F061FB53EC182BDA
:1012F00001F070FB07D22561E56003206561BDEC5C
:10130000028BBDE8F0879FED910B51EC180B53EC6D
:10131000102B01F0E3FA03D12561E560656124E05B
:101320006068B0F5803F01D2401C60602561D4E95F
:1013300001862768A946761C6D1CB7FBF5F001F005
:1013400036FB53EC182B01F071F901F003FBC4E9F3
:101350000305404501D9B542EED9B54207D9C4F8D5
:101360001090C4F80C90C4F814900420C7E751EC16
:10137000180B01F0EFFA60610020C0E76749754A79
:10138000884203D1116841F0010111607149091FC0
:10139000B0F1804F55D0664B984203D10B6843F0B3
:1013A00002030B60634B984203D10B6843F00403C4
:1013B0000B60594B984203D10B6843F008030B6054
:1013C0005D4B984203D10B6843F010030B605B4BFD
:1013D000984203D10B6843F020030B60504B9842B6
:1013E00003D1136843F0020313604E4B984203D1BC
:1013F000136843F4803313604B4B984203D1136856
:1014000043F400331360494B984203D1136843F40B
:10141000802313604A4A904203D10A6842F0400296
:101420000A60484A904203D10A6842F080020A608A
:10143000454A904203D1086840F48070086000205B
:101440007047086840F00100F8E73449414A884293
:1014500003D1116821F0010111603E49091FB0F16B
:10146000804F55D0324B984203D10B6823F00203D2
:101470000B60304B984203D10B6823F004030B60E0
:10148000254B984203D10B6823F008030B602A4BCD
:10149000984203D10B6823F010030B60274B98424E
:1014A00003D10B6823F020030B601D4B984203D13E
:1014B000136823F0020313601A4B984203D1136898
:1014C00023F480331360184B984203D1136823F43C
:1014D00000331360154B984203D1136823F4802323
:1014E0001360174A904203D10A6822F040020A6052
:1014F000144A904203D10A6822F080020A60124A1C
:10150000904203D1086820F4807008600020704782
:10151000086820F00100F8E7000C004000000140DE
:1015200000040140004001400044014000480140E7
:10153000000400400008004000100040001400407B
:1015400000180040001C0040002000400000000087
:10155000000000004438024070B504462DED028BB7
:101560008AB0FC48B0EE408AF0EE608A0D468442B4
:1015700002D0F948844204D104200AB0BDEC028BA9
:1015800070BD694620462C60FFF760FE009801F0B0
:101590000EFA53EC182B01F01DFA54D39FEDEF0B0C
:1015A00051EC180B53EC102B01F098F901D10220EB
:1015B000E3E7B0EE480AF0EE680A6846FFF789FEF6
:1015C0000398E8B351EC180B01F0C4F953EC182B55
:1015D0009FEDE40BE86051EC100B01F027F801F0EF
:1015E000B9F92861039868600498A8602046FFF75D
:1015F000C5FE04980026401EADF818000398ADF80B
:101600002060401E0790ADF81A608DF8226006A990
:101610002046FFF7FBF801212046FFF755F9D34894
:10162000844202D0D248844203D101212046FFF7F0
:1016300057FC208840F00100208085F8246000E0FD
:1016400001E0002099E7012097E71CB502004FF068
:10165000060001D005201CBD0923032259B1012930
:10166000F9D1CDE9002300231A464902C14800F010
:101670007CFC00201CBDCDE9002300231A468021FC
:10168000BD48F4E71CB502004FF0060001D005206C
:101690001CBD0923032259B10129F9D1CDE9002349
:1016A00000231A460902B34800F05FFC00201CBD6D
:1016B000CDE9002300231A460221AF48F4E77CB5A8
:1016C0000200AE4CAE4D4FF006004FF009064FF051
:1016D000030303D0012A15D005207CBD39B10129AF
:1016E000FBD1CDE9003600231A46402112E0CDE9B6
:1016F000003600231A464FF4804113E000F035FC19
:1017000000207CBD41B10129FBD1CDE90036002389
:101710001A4649022846F1E7CDE9003600231A4669
:101720004FF400412046E9E71CB502004FF00600E7
:1017300001D005201CBD032259B10129FAD1009224
:10174000002301921A4680218A4800F00EFC0020F6
:101750001CBD0092002301921A464FF40071874885
:10176000F3E71CB502004FF0060001D005201CBDB8
:10177000032259B10129FAD10092002301921A469D
:1017800040217C4800F0F1FB00201CBD00920023AA
:1017900001921A464FF480717848F3E77CB5020055
:1017A000754C784D4FF006004FF0030303D0012A2B
:1017B00014D005207CBD39B10129FBD100930193E0
:1017C00000231A46202111E00093019300231A46BA
:1017D000042112E000F0C9FB00207CBD41B10129C9
:1017E000FBD10093019300231A4640212846F1E7DC
:1017F0000093019300231A4608212046EAE77CB5AE
:101800000200614C614D4FF006004FF0030308D019
:10181000012A19D0A615022A25D0032A32D0052084
:101820007CBD39B10129FBD10093019300231A46F5
:1018300020212FE00093019300231A46402131E03C
:1018400000F093FB00207CBD39B10129FBD100934E
:10185000019300231A4640211CE0009301930023CA
:101860001A4680211EE039B10129ECD10093019381
:1018700000231A4680210DE00093019300231A46AD
:1018800031460FE041B10129DDD1009301930023DE
:101890001A4631462846D3E70093019300231A469F
:1018A0004FF400712046CBE77CB50200324D344E38
:1018B0004FF006004FF002034FF0030407D0012A57
:1018C00018D0022A25D0032A33D005207CBD39B197
:1018D0000129FBD1CDE9004300231A46890220E00B
:1018E000CDE9004300231A46012130E000F03DFB22
:1018F00000207CBD39B10129FBD1CDE90043002393
:101900001A46C9020DE0CDE9004300231A46022120
:101910001DE041B10129ECD1CDE9004300231A4675
:1019200009033046E2E7CDE9004300231A460421CB
:101930000DE039B10129DCD1CDE9004300231A467D
:101940001248D3E7CDE9004300231A460821284670
:10195000CCE7000000100040001400400000000030
:10196000000000000000000080842E4100000140C3
:101970000004014000140240000002400004024044
:10198000001C0240001002400008024000200240FB
:101990007CB502004FF006004FF002034FF0030445
:1019A000FD4DFE4E07D0012A18D0022A25D0032A69
:1019B00033D005207CBD39B10129FBD1CDE90043ED
:1019C00000231A46090330E0CDE9004300231A46FC
:1019D000402132E000F0C9FA00207CBD39B1012974
:1019E000FBD1CDE9004300231A4649031DE0CDE9B0
:1019F000004300231A4680211FE039B10129ECD1B0
:101A0000CDE9004300231A4689030EE0CDE90043E7
:101A100000231A464FF480710FE041B10129DCD157
:101A2000CDE9004300231A46C9033046D2E7CDE989
:101A3000004300231A464FF400712846CAE72DE9F7
:101A4000FC410400D64FD44DD64E4FF006004FF067
:101A500002024FF0030308D0012C21D0022C37D012
:101A6000032C44D00520BDE8FC8149B101290DD0EB
:101A70000229F8D1CDE9003200231A4649023EE09E
:101A8000CDE9003200231A46402119E0CDE90032A9
:101A900000231A46102139E000F067FA0020E2E73F
:101AA00049B101290ED00229DDD1CDE90032002350
:101AB0001A46802123E0CDE9003200231A46802116
:101AC0003846E9E7CDE9003200231A4620211DE01F
:101AD00039B10129C7D1CDE9003200231A460902E4
:101AE0000DE0CDE9003200231A4601210EE041B19C
:101AF0000129B8D1CDE9003200231A464902304607
:101B0000CAE7CDE9003200231A4602212846C3E77E
:101B10007CB50200A24D4FF006004FF001034FF0DC
:101B2000030408D09C4E012A20D0022A2DD0032A7B
:101B30003AD005207CBD49B101290DD00229F9D147
:101B4000CDE9004300231A4689033CE0CDE9004378
:101B500000231A46012136E0CDE9004300231A464E
:101B6000202130E000F001FA00207CBD39B10129CC
:101B7000FBD1CDE9004300231A4608211CE0CDE942
:101B8000004300231A4602211DE039B10129ECD19E
:101B9000CDE9004300231A4689020DE0CDE9004358
:101BA00000231A4604210EE041B10129DDD1CDE91F
:101BB000004300231A46C9023046D3E7CDE900436B
:101BC00000231A4608212846CCE72DE9FC418C4623
:101BD0000200734D744E4FF006004FF001034FF0BA
:101BE00003044FF4007108D04F00012A1BD0022AD1
:101BF0002AD0032A3BD0052035E7BCF1000F07D0DF
:101C0000BCF1010FF8D1CDE9004300231A463AE0B8
:101C1000CDE9004300231A464FF480713BE000F009
:101C2000A4F900201FE7BCF1000F08D0BCF1010FA0
:101C3000E2D1CDE9004300231A46394623E0CDE93D
:101C4000004300231A4626E0BCF1000F09D0BCF186
:101C5000010FD1D1CDE9004300231A464FF40051C2
:101C600011E0CDE9004300231A46394613E0BCF1E8
:101C7000000F0AD0BCF1010FBED1CDE90043002313
:101C80001A464FF480413046C9E7CDE900430023AE
:101C90001A464FF400612846C1E70B4600684349E5
:101CA000884202D1114618468FE7B0F1804F05D027
:101CB0003F49884205D111461846C0E611461846EC
:101CC00026E73C49884202D11146184660E63A4967
:101CD000884202D111461846E6E53849884202D1C9
:101CE000114618468BE53649884202D111461846FE
:101CF00054E53449884202D11146184631E532494B
:101D0000884202D1114618460EE53049884202D178
:101D100011461846D3E42E49884202D1114618468E
:101D2000B0E42C49884202D1114618468DE40420C3
:101D3000704730B504464068154685B0A84202D8C1
:101D4000032005B030BD70200222ADF80000ADF8D0
:101D50000C20012004EB81020295ADF802005561D0
:101D60000A1E00FA01F0C0B206D0012937D00229BC
:101D700047D0032A68D156E094F8241001420AD1D2
:101D8000014384F8241069462068FEF7C1FD08214C
:101D90002068FEF7FEFE1FE000040240000C024037
:101DA0000000024000080240001002400000014014
:101DB0000004004000080040000C00400004014006
:101DC000004001400044014000480140001800402C
:101DD000001C0040002000402068456334E094F877
:101DE000241001420AD1014384F824106946206876
:101DF000FEF7BAFD08212068FEF7D1FE2068856352
:101E000022E094F8241001420AD1014384F82410FE
:101E100069462068FEF7E4FD08212068FEF7C9FE48
:101E20002068C56310E094F8241001420AD10143F0
:101E300084F8241069462068FEF70CFE082120680B
:101E4000FEF7BDFE2068056400207AE710EE102A38
:101E5000144B9A4201DD426805E0B5EEC00AF1EE8E
:101E600010FA01D8002264E74268521E00EE902A60
:101E70006423F8EE600A20EE800ABCEEC00A10EE81
:101E8000102AB2FBF3F2EEE730B40369934202D2B8
:101E900030BC032070474468641E5443B4FBF3F223
:101EA00030BC46E70000C842A3490844C0F38F2075
:101EB00070472DE9F04F9A46DDE909B88946034697
:101EC000FFF7F2FFC5B200204FF0030E0121814061
:101ED00011EA090F28D0994E36F815400C4326F820
:101EE0001540DF6844000EFA04F6B7430BFA04FC11
:101EF00047EA0C07DF601F6802FA04FCB74347EAB1
:101F00000C071F60012A01D0022A0DD15F6889B237
:101F10008F430AFA00F189B20F435F60996808FAAB
:101F200004F4B14321439960401CC0B21028CDD3C2
:101F3000BDE8F08F00B5FFF7B7FF01218140804871
:101F400002681143016000BDFCB51646DDE907C516
:101F50000C00074608D0FFF7EDFFCDE900C532467B
:101F600021463846FFF7A5FFFCBD2DE9FC4F9946F9
:101F7000DDE90BB792460D00064622D0FFF7DAFFE7
:101F8000002201214FF00F0C01FA02F028420DD07F
:101F9000D00806EB8003186A5407E40E0CFA04F824
:101FA00020EA080007FA04F420431862521C102AA1
:101FB000EAD3CDE9009B5346022229463046FFF77B
:101FC00078FFBDE8FC8FF0B50E460546FFF76CFFC5
:101FD00000225A49C4B24FF0010C03270CFA02F355
:101FE00033420CD028684FEA420E07FA0EFE40EA50
:101FF0000E00286031F81400984321F81400521C98
:10200000D2B2102AEAD3F0BDF0B500220125032692
:1020100005FA02F30B4205D00468570006FA07F3ED
:102020009C430460521CD2B2102AF1D3F0BDF0B52B
:1020300000220127032607FA02F33C460B4208D090
:102040000568530006FA03FC25EA0C059C4025436D
:102050000560521CD2B2102AEDD3F0BDF0B50022BB
:102060000125032605FA02F30B4205D00468570048
:1020700006FA07F31C430460521CD2B2102AF1D3B3
:10208000F0BDF0B5002201260324022706FA02F370
:102090000B4209D00568530004FA03FC25EA0C053D
:1020A00007FA03F31D430560521CD2B2102AEDD388
:1020B000F0BDF0B500230127032507FA03F40C4215
:1020C00009D0C6685C0005FA04FC26EA0C0602FA90
:1020D00004F42643C6605B1CDBB2102BEDD3F0BDCD
:1020E00041F48032C261C161C261C169C069704797
:1020F000002102E0491C89B240080128FAD80846AC
:10210000704700B5FFF7D0FE012181400C480268FE
:102110008A43026000BD00B5FFF7C6FE074931F8EB
:10212000100000BD00B5FFF7BFFE044931F81000F4
:10213000C04380B200BD00000000FEBF4C00002084
:10214000303802408AB04FF47A7500F0A2F8FEF7FA
:10215000E9FF9FED1D0B6946E806FFF7FDF9012237
:1021600000216846FFF799FD40F2DC563246002117
:102170006846FFF789FE284600F00FF86F003C46DE
:10218000224600216846FFF77FFE304600F005F842
:1021900020462C46A042F3D1F1E70D4908B50A6864
:1021A0000092EFF3058242B14FF0E021002809D000
:1021B0000A69D203FAD5401EF8E70A68009BD21AD2
:1021C0008242FAD308BD0000000000000000494030
:1021D000140000207047FEE7FEE7FEE7FEE77047C9
:1021E00070477047704710B5FEF770FF10BD0000D4
:1021F0000CB50022544900920192086840F48030E6
:1022000008604FF4A043086800F400300190009883
:10221000401C0090019810B900989842F3D10868CA
:10222000800334D50120019047484030026842F0D5
:10223000805202604548026842F4404202604248CF
:10224000083002680260026842F4004202600268DC
:1022500042F4A0520260031F3D4A1A600A6842F02D
:1022600080720A600A689201FCD53A4940F2057210
:102270000A60016821F003010160016841F0020178
:1022800001600168C1F381010229FAD10CBD0192FC
:102290000CBD314810B5016841F4700101602A4855
:1022A000016841F001010160274A002108321160F4
:1022B00002682A4B1A400260031D294A1A6002680C
:1022C00022F48022026020480C300160FFF790FF6A
:1022D00021494FF000608039086010BD70B51A4D7B
:1022E000083528681F4B204910F00C0004D05E1000
:1022F000042803D0082803D00B601BE00E6019E00F
:10230000114A121D1068C0F38054106800F03F009D
:1023100014B1B6FBF0F001E0B3FBF0F01368126803
:10232000C3F388135843C2F30142521C5200B0FB5E
:10233000F2F0086028680C4AC0F30310121D105C0C
:102340000A68C2400A6070BD003802400070004058
:1023500008544007003C024088ED00E0FFFFF6FE15
:10236000103000240024F4002000002070B5064640
:1023700000F056F8056806F10B0020F00704B4429F
:102380009CBF002070BD2B466A68BAB11068A0429D
:1023900010D304F1080188423CBF5068586007D34D
:1023A0005168101941601168091B01605860146080
:1023B000101D70BD13465268002AE7D121462846F9
:1023C00000F036F80028DED170BD70B50446051F58
:1023D00000F026F80068002C14BF446870BD002C83
:1023E00018BFAC423CBF20466468F8D301680A18A5
:1023F000AA4218BF456003D12A680546114401600E
:1024000028684119A1421CBF6C6070BD6168696099
:1024100021680844286070BD70477047704700000D
:10242000004870476C000020704770477047704745
:1024300038B504460A4600206946AFF300800028FC
:1024400008BF38BD02460099204600F03FF8012041
:1024500038BD012000F054B8F8B5AFF30080054650
:1024600000200C46102000BF0646A819A0420DD936
:10247000324669460020AFF30080070008BF00F035
:102480003FF80098A04218BF0546C419FFF7C8FFDF
:1024900005600746F01D20F007004619284600F0A9
:1024A0000AF8B44208BFF8BDA21B31463868BDE83F
:1024B000F84000F00BB800210160C0E9011070473E
:1024C00010207047004870476400002003464068B1
:1024D0008C46002818BF88423CBF03464068F8D3AA
:1024E00018681844884207D00CF1030020F0070058
:1024F000001D411A521A0146081D0A60FFF765BF08
:1025000010B500F039F8BDE8104000F02FB8704762
:102510007546FFF7D7FFAE4605006946534620F0E3
:102520000700854618B020B5FDF790FEBDE82040B5
:102530004FF000064FF000074FF000084FF0000B7F
:1025400021F00701AC46ACE8C009ACE8C009ACE832
:10255000C009ACE8C0098D46704710B50446AFF31A
:1025600000802046BDE81040FDF75BBE002801D08A
:1025700000F02AB87047000010B5012805D00021EE
:1025800003A000F027F8012010BD09A1F8E7000022
:1025900053494752544D454D3A204F7574206F664C
:1025A0002068656170206D656D6F727900000000B4
:1025B0003A2048656170206D656D6F727920636F98
:1025C000727275707465640001491820ABBEFEE735
:1025D0002600020070B505460C460A2000E06D1C7E
:1025E00000F011F835B128780028F8D102E0641C19
:1025F00000F009F814B120780028F8D1BDE8704047
:102600000A20AFF3008008B569468DF8000003206A
:10261000ABBE08BD491058BFC1F140415B1058BF67
:10262000C3F140438B42EFF3008070472DE9C04176
:1026300030B4DFF8A0C23CEA111418BF3CEA13140E
:1026400000F0EC8081EA03051CEA111444EAD57419
:1026500018BF1CEA131500F0C780A4EB05044FF067
:10266000004545EAC12145EAC32341EA505143EA06
:10267000525304F17F74994204F500344FEAC020AC
:102680004FEAC22208BF904200F09C804FEA1365D7
:102690000FF24016765D4FEA134506FB05F7C7F1CA
:1026A000807706FB07F74FEAD737A7FB0368764228
:1026B000C8F58038A7FB06CE38BFA8F1010807FB94
:1026C00008E64FF0000EA6FB028CE6FB03CEDCF121
:1026D000000CCEF1004E38BFAEF1010EA6FB0C5837
:1026E0004FF000074FF00005E6FB0E87A1FB08C680
:1026F000A0FB07CE16EB0E0645F10005E1FB0765D2
:1027000015F1E04E7EBFA4F580345FEA46066D41C8
:1027100016F1800745F100054FEA17274FEA0666D4
:1027200047EA0567A6F1DE46B6F1805F4FEA152558
:102730001FD9384624F0010C05EBC471BCF1FE6FC3
:1027400001EB0C1102D8F0BCBDE8008124425CBF53
:1027500001F5801E9EEAC47F02D4F0BCBDE8008172
:10276000244238D4F0BCA1F1C041BDE8004100F0E2
:10277000BBB94FEAD22242EA43524FEAD323A7FB26
:1027800002864FEAD02040EA415007FB03661EEA6A
:102790000E0F4FEAD12105FB026658BFA6EB00568B
:1027A000B6EB00564FEA520E4EEAC37E18EB0E0E01
:1027B00056EB530EBDD518EB02085E417F1C55F158
:1027C0000005B6E74FF480154FF000074FF0000604
:1027D0004FF00008ADE7F0BC4FF0000001F1C04140
:1027E00001F00041BDE8008111EA0C1F0CEA13154D
:1027F00000D00CE013EA0C1F00F025804FF0000021
:10280000F0BC81EA030101F00041BDE80081F0BCA9
:10281000BDE8004181EA030100F066B9F0BCBDE803
:10282000004170B500F012F9097EFC3E00F007B8D7
:1028300081EA03014FF0000001F00041704781EA96
:10284000030100F051B9F0BCBDE800414FF00000B9
:1028500021497047FFFDFBF9F7F5F4F2F0EEEDEBDF
:10286000E9E8E6E4E3E1E0DEDDDBDAD8D7D5D4D38E
:10287000D1D0CFCDCCCBCAC8C7C6C5C4C2C1C0BFDA
:10288000BEBDBCBBBAB9B8B7B6B5B4B3B2B1B0AFE0
:10289000AEADACABAAA9A8A8A7A6A5A4A3A3A2A1C4
:1028A000A09F9F9E9D9C9C9B9A999998979796957F
:1028B00095949393929191908F8F8E8E8D8C8C8B1B
:1028C0008B8A8989888887878685858484838382A3
:1028D000828181800000FF070000F87F51EA030C2D
:1028E00017D41CF5801F58BFBCF5801F00F106806F
:1028F000994218BF704708BF9042704707D711F53B
:10290000801F58BF13F5801F19D499427047894220
:1029100070471CF5801F08D5BCF5801FF7D58B428A
:1029200018BF704708BF824270474FF4001C1CEB71
:10293000410F38BF1CEB430F01D28B42704770B57B
:1029400000F084F8922449004FF000514FF080537A
:10295000FFF760BE4FEA1153A3F58063D3F11E0366
:10296000A8BFD3F1200C08DB4FF0004242EAC1229D
:1029700052EA505232FA03F0704709420BD4102B3E
:10298000C4BF0020704703F5787CBCF1FF3F05D041
:102990004FF0FF3070474FF00000704770B500F007
:1029A00055F800BF4992248000207047F0E7B0FA44
:1029B00080F310FA03F10AD0C3F11D0303F580631D
:1029C0004FEA41504FEA035202EBD12170474FF0DA
:1029D0000000704751EA030C17D41CF5801F58BF44
:1029E000BCF5801F00F10680994218BF704708BFF0
:1029F0009042704707D711F5801F58BF13F5801F0D
:102A000019D499427047894270471CF5801F08D538
:102A1000BCF5801FF7D58B4218BF704708BF8242B4
:102A200070474FF4001C1CEB410F38BF1CEB430FE9
:102A300001D28B42704770B500F008F8922449002B
:102A40004FF000514FF08053FFF7E4BD0EF1020E3E
:102A50002EF0030E5EF8046B364205D4012A43EBD8
:102A6000030515F5001F12D8012841EB010C1CF5D8
:102A7000001F0CD80ED14FEAD17C15F5001F0CEBCE
:102A80004C0C0CF1020C08BF4CEBD37C04E04FF073
:102A9000080C01E04FEAD37C0CEB4C0526FA05F656
:102AA00006F00706B6F1040C06D20EEB860CBDE864
:102AB00070404CF0010C6047DFE80CF0090B02029B
:102AC0004FF000414FF00000A1F5002170BD194604
:102AD0001046012851EB010418BFD4F5001484BF3F
:102AE000002001F0004170BD0808A0F500114FEA78
:102AF000310170474FF04070E1EE100A704700005E
:102B0000202B00080000002034000000C401000851
:102B1000542B00083400002094060000E001000857
:102B20000000000001020304010203040607080973
:102B30000000000000000000000000000000000095
:102B4000007A030A000000000000000001020304F4
:042B50000607080963
:040000050800018965
:00000001FF
