:020000040800F2
:100000009806002029020008CF070008D107000841
:10001000D3070008D5070008D70700080000000034
:10002000000000000000000000000000D9070008E8
:10003000DB07000800000000DD070008DF070008FC
:10004000430200084302000843020008430200087C
:10005000430200084302000843020008430200086C
:10006000430200084302000843020008430200085C
:10007000430200084302000843020008430200084C
:10008000430200084302000843020008430200083C
:10009000430200084302000843020008430200082C
:1000A000430200084302000843020008430200081C
:1000B000430200084302000843020008430200080C
:1000C00043020008430200084302000843020008FC
:1000D00043020008430200084302000843020008EC
:1000E00043020008430200084302000843020008DC
:1000F00043020008430200084302000843020008CC
:1001000043020008430200084302000843020008BB
:1001100043020008430200084302000843020008AB
:10012000430200084302000843020008430200089B
:10013000430200084302000843020008430200088B
:10014000430200084302000843020008430200087B
:10015000430200084302000843020008430200086B
:10016000430200084302000843020008430200085B
:10017000430200084302000843020008430200084B
:10018000430200084302000800F002F800F03CF8C7
:100190000AA090E8000C82448344AAF10107DA45E2
:1001A00001D100F031F8AFF2090EBAE80F0013F0F8
:1001B000010F18BFFB1A43F0010318472408000081
:1001C00044080000103A24BF78C878C1FAD8520712
:1001D00024BF30C830C144BF04680C6070470000C1
:1001E0000023002400250026103A28BF78C1FBD840
:1001F000520728BF30C148BF0B6070471FB500F0E1
:10020000EAFB1FBD10B510BD00F0AFFB1146FFF7B4
:10021000F5FF00F0D9FA00F0CDFB03B4FFF7F2FFD1
:1002200003BC00F0D1FB00000948804709480047A3
:10023000FEE7FEE7FEE7FEE7FEE7FEE7FEE7FEE796
:10024000FEE7FEE704480549054A064B70470000F3
:1002500087080008890100089800002098060020FF
:100260009802002098020020F848016841F001013E
:100270000160F64A0021083211600268F44B1A400E
:100280000260031DF34A1A60F04BF34A84331A608C
:10029000F04A103A1B1D1A60026822F480220260A4
:1002A000EA480C300160181D01607047E7490022E0
:1002B000891C0A7008707047024600205109012904
:1002C0000CD002290CD0E1497431096802F01F02F8
:1002D000012393400B4200D001207047DB49F4E733
:1002E000DA497031F1E718B500204FF4A0440090CE
:1002F0003120FFF7E1FF0099491C0091A14201D094
:100300000028F5D03120FFF7D7FF002800D00120CA
:1003100018BDCE4A116821F0F80141EAC000106012
:100320007047CE4908607047C849002270310A7092
:100330000A70012802D0042801D1052008707047F6
:10034000C7490860704741EA82115A0810B5C54B89
:10035000029C03EB02421143014341EA0460BB49A2
:10036000091D086010BDBD4908667047800140EA5C
:100370000170B649843108607047B8498866704793
:10038000800140EA0160B14940EA027088310860AA
:100390007047B24908677047B049C8647047AB4BB3
:1003A00008331A68084322F0EC6210431860704763
:1003B000A64B08331A68084322F0784210431860AD
:1003C0007047A24A0832116821F00301014311600D
:1003D00070479E480830006800F00C0070479B4A48
:1003E0000832116821F0F001014311607047974A0B
:1003F0000832116821F4E051014311607047934ABB
:100400000832116821F4604141EAC0001060704771
:1004100070B58E4B08331968934C11F00C0104D061
:10042000924E042903D0082903D004601BE0066023
:1004300019E0864A121D1168C1F38055116801F058
:100440003F0115B1B6FBF1F101E0B4FBF1F1146825
:100450001268C4F388146143C2F30142521C520073
:10046000B1FBF2F1016019680F2202EA1111804A12
:10047000545C0168E14041601C68072505EA94244A
:10048000145D21FA04F484601B6805EA5333D25CDE
:10049000D140C16070BDC0F30121032908D16B4B6D
:1004A00008331968734A21F4F81102400A431A60AC
:1004B000664970310A68C0F30B0002430A60704756
:1004C000674944390860704765494039086070479A
:1004D0006249C1F85C0170475C4A8C321168401E69
:1004E00021F01F01014311607047584A8C32116896
:1004F0006FF0FF0321F4F85103EB00200843106074
:100500007047524A8C32116821F440110143116046
:1005100070474E4A8C32116821F44001014311604A
:1005200070474A4A8C32116821F44031014311600E
:1005300070475149C1F8E0017047444A3032002900
:10054000116801D0014300E08143116070473F4AC8
:1005500034320029116801D0014300E08143116069
:1005600070473A4A38320029116801D0014300E04F
:10057000814311607047354A40320029116801D02B
:10058000014300E0814311607047304A4432002942
:10059000116801D0014300E08143116070472B4A8C
:1005A00010320029116801D0014300E0814311603D
:1005B0007047264A14320029116801D0014300E037
:1005C000814311607047214A18320029116801D017
:1005D000014300E08143116070471C4A203200292A
:1005E000116801D0014300E0814311607047174A50
:1005F00024320029116801D0014300E081431160D9
:100600007047124A50320029116801D0014300E0BE
:100610008143116070470D4A54320029116801D09E
:10062000014300E0814311607047084A58320029B5
:10063000116801D0014300E0814311607047034A13
:1006400060320029116819D0014318E000380240D7
:10065000FFFFF6EA1030002400300020000047427F
:10066000800E47420000FFFF0024F40040787D0127
:1006700000000020FFFCFF0F001047428143116083
:100680007047194A0029116801D0014300E08143F5
:100690001160704714490C310128086803D020F01C
:1006A00008000860704740F00800FAE70E4A573A21
:1006B0000029117801D0014300E081431170704797
:1006C00009481030016841F08071016070470146AF
:1006D000054A0020583A12680A4200D001207047AB
:1006E00001495639087070476438024001B53248F4
:1006F0000099416041680029FCD108BD01B54FF463
:100700007A70009941432C48416041680029FCD12E
:1007100008BD29488168491C8160C16811B1C16860
:10072000491EC1604168002902D04168491E4160EC
:10073000704710B5204C207800281CD10120FFF70D
:10074000B5FDFFF7D0FD0028FBD01C481C49006810
:10075000B0FBF1F0401EB0F1807F0DD24FF0E021F0
:100760004861184AF02082F8140D002088610720A3
:1007700008610120207010BDFEE70F4880687047B7
:100780000D48C06870470C49886070470A49C860C6
:10079000704709480078002805D04FF0E020016933
:1007A00041F00201016170474FF0E020016921F042
:1007B00002010161704700001000002020000020AD
:1007C00040420F000FE000E000F05DF8FEE77047E8
:1007D000FEE7FEE7FEE7FEE7704770477047FFF76A
:1007E00098BF00000CB5002254490092019208689D
:1007F00040F4803008604FF4A043086800F40030F3
:1008000001900098401C0090019810B900989842FF
:10081000F3D10868800334D5012001904748403067
:10082000026842F0805202604548026842F4404249
:1008300002604248083002680260026842F40042E6
:100840000260026842F4A0520260031F3D4A1A602F
:100850000A6842F080720A600A689201FCD53A493F
:1008600040F205720A60016821F00301016001682D
:1008700041F0020101600168C1F381010229FAD14E
:100880000CBD01920CBD314810B5016841F47001F6
:1008900001602A48016841F001010160274A0021F6
:1008A0000832116002682A4B1A400260031D294A6F
:1008B0001A60026822F48022026020480C30016035
:1008C000FFF790FF21494FF000608039086010BDAC
:1008D00070B51A4D083528681F4B204910F00C00E0
:1008E00004D01F4E042803D0082803D00B601BE05F
:1008F0000E6019E0114A121D1068C0F38054106890
:1009000000F03F0014B1B6FBF0F001E0B3FBF0F0F3
:1009100013681268C3F388135843C2F30142521C90
:100920005200B0FBF2F0086028680C4AC0F30310D4
:10093000121D105C0A68C2400A6070BD0038024097
:100940000070004019544007003C024088ED00E070
:10095000FFFFF6FE103000240024F40020000020E9
:1009600040787D01704770477047754600F028F861
:10097000AE4605006946534620F00700854618B08C
:1009800020B5FFF75FFCBDE820404FF000064FF0B8
:1009900000074FF000084FF0000B21F00701AC46B4
:1009A000ACE8C009ACE8C009ACE8C009ACE8C009D3
:1009B0008D4670470446AFF300802046FFF72DFCBC
:1009C000004870473400002001491820ABBEFEE704
:1009D0002600020070474FF04070E1EE100A7047A9
:1009E000000A00080000002034000000C4010008D4
:1009F000340A00083400002064060000E00100080A
:100A000000000000010203040102030406070809B4
:100A100000000000000000000000000000000000D6
:100A2000007A030A00000000000000000102030435
:040A300006070809A4
:0400000508000229C4
:00000001FF
