:020000040800F2
:10000000C8080020310200080D1E00080F1E00085D
:10001000111E0008131E0008151E00080000000035
:10002000000000000000000000000000171E000893
:10003000191E0008000000001B1E00081F1E0008FB
:100040004B0200084B0200084B0200084B0200085C
:100050004B0200084B0200084B0200084B0200084C
:100060004B0200084B0200084B0200084B0200083C
:100070004B0200084B0200084B0200084B0200082C
:100080004B0200084B0200084B0200084B0200081C
:100090004B0200084B0200084B0200084B0200080C
:1000A0004B0200084B0200084B0200084B020008FC
:1000B0004B0200084B0200084B0200084B020008EC
:1000C0004B0200084B0200084B0200084B020008DC
:1000D0004B0200084B0200084B0200084B020008CC
:1000E0004B0200084B0200084B0200084B020008BC
:1000F0004B0200084B0200084B0200084B020008AC
:100100004B0200084B0200084B0200084B0200089B
:100110004B0200084B0200084B0200084B0200088B
:100120004B0200084B0200084B0200084B0200087B
:100130004B0200084B0200084B0200084B0200086B
:100140004B0200084B0200084B0200084B0200085B
:100150004B0200084B0200084B0200084B0200084B
:100160004B0200084B0200084B0200084B0200083B
:100170004B0200084B0200084B0200084B0200082B
:100180004B0200084B02000800F002F800F040F8B3
:100190000AA090E8000C82448344AAF10107DA45E2
:1001A00001D100F035F8AFF2090EBAE80F0013F0F4
:1001B000010F18BFFB1A43F0010318472424000065
:1001C00044240000103A24BF78C878C1FAD85207F6
:1001D00024BF30C830C144BF04680C6070470000C1
:1001E0000023002400250026103A28BF78C1FBD840
:1001F000520728BF30C148BF0B6070471FB502F0DF
:1002000027F89DE8030001F045FF1FBD10B510BDA4
:1002100001F09CFF1146FFF7F1FF01F0B5FD01F081
:10022000BAFF03B4FFF7F2FF03BC01F0EBFF0000DD
:100230000948804709480047FEE7FEE7FEE7FEE77A
:10024000FEE7FEE7FEE7FEE7FEE7FEE704480549B6
:10025000054A064B70470000CB1E000889010008C4
:10026000C8020020C8080020C8040020C8040020DC
:10027000F848016841F001010160F64A00210832A6
:1002800011600268F44B1A400260031DF34A1A60C1
:10029000F04BF34A84331A60F04A103A1B1D1A607F
:1002A000026822F480220260EA480C300160181DC6
:1002B00001607047E7490022891C0A700870704786
:1002C00002460020510901290CD002290CD0E14935
:1002D0007431096802F01F02012393400B4200D0E1
:1002E00001207047DB49F4E7DA497031F1E718B5CE
:1002F00000204FF4A04400903120FFF7E1FF009967
:10030000491C0091A14201D00028F5D03120FFF70F
:10031000D7FF002800D0012018BDCE4A116821F077
:10032000F80141EAC00010607047CE49086070478C
:10033000C849002270310A700A70012802D00428CE
:1003400001D1052008707047C7490860704741EA2D
:1003500082115A0810B5C54B029C03EB02421143AF
:10036000014341EA0460BB49091D086010BDBD4955
:1003700008667047800140EA0170B6498431086020
:100380007047B84988667047800140EA0160B1490A
:1003900040EA0270883108607047B24908677047C8
:1003A000B049C8647047AB4B08331A68084322F061
:1003B000EC62104318607047A64B08331A68084374
:1003C00022F07842104318607047A24A0832116840
:1003D00021F003010143116070479E480830006816
:1003E00000F00C0070479B4A0832116821F0F001C0
:1003F000014311607047974A0832116821F4E051B7
:10040000014311607047934A0832116821F460413A
:1004100041EAC0001060704770B58E4B0833196810
:10042000934C11F00C0104D0924E042903D00829FA
:1004300003D004601BE0066019E0864A121D1168B3
:10044000C1F38055116801F03F0115B1B6FBF1F120
:1004500001E0B4FBF1F114681268C4F3881461433D
:10046000C2F30142521C5200B1FBF2F10160196863
:100470000F2202EA1111804A545C0168E140416098
:100480001C68072505EA9424145D21FA04F48460AD
:100490001B6805EA5333D25CD140C16070BDC0F324
:1004A0000121032908D16B4B08331968734A21F4E1
:1004B000F81102400A431A60664970310A68C0F3B5
:1004C0000B0002430A60704767494439086070476F
:1004D00065494039086070476249C1F85C0170475E
:1004E0005C4A8C32116821F440110143116070475D
:1004F000584A8C32116821F4400101431160704761
:10050000544A8C321168401E21F01F0101431160D2
:100510007047504A8C3211686FF0FF0321F4F85194
:1005200003EB00200843106070474A4A8C32116880
:1005300021F440310143116070475149C1F8E00195
:100540007047444A30320029116801D0014300E06D
:100550008143116070473F4A34320029116801D04D
:10056000014300E08143116070473A4A3832002964
:10057000116801D0014300E0814311607047354AA2
:1005800040320029116801D0014300E0814311602D
:100590007047304A44320029116801D0014300E01D
:1005A0008143116070472B4A10320029116801D035
:1005B000014300E0814311607047264A143200294C
:1005C000116801D0014300E0814311607047214A66
:1005D00018320029116801D0014300E08143116005
:1005E00070471C4A20320029116801D0014300E005
:1005F000814311607047174A24320029116801D0E5
:10060000014300E0814311607047124A50320029D3
:10061000116801D0014300E08143116070470D4A29
:1006200054320029116801D0014300E08143116078
:100630007047084A58320029116801D0014300E090
:10064000814311607047034A60320029116819D054
:10065000014318E000380240FFFFF6EA10300024A2
:100660000030002000004742800E47420000FFFF9C
:100670000024F40040787D0100000020FFFCFF0F03
:1006800000104742814311607047194A00291168E0
:1006900001D0014300E081431160704714490C31DF
:1006A0000128086803D020F008000860704740F077
:1006B0000800FAE70E4A573A0029117801D00143A1
:1006C00000E081431170704709481030016841F023
:1006D0008071016070470146054A0020583A12684F
:1006E0000A4200D00120704701495639087070470E
:1006F00064380240774910B5884206D10121084686
:10070000FFF751FF002101205BE07349884206D1C9
:1007100001210220FFF747FF0021022051E06F492D
:10072000884206D101210420FFF73DFF002104206B
:1007300047E06B49884206D101210820FFF733FFCB
:10074000002108203DE06749884206D101211020A0
:10075000FFF729FF0021102033E06349884206D1CA
:1007600001212020FFF71FFF0021202029E05F4901
:10077000884206D101214020FFF715FF00214020CB
:100780001FE05B49884206D101218020FFF70BFF63
:100790000021802015E05749884202D101218415AB
:1007A0000AE05549884202D10121441504E0534929
:1007B00088420AD1012104152046FFF7F4FE0021EA
:1007C0002046BDE81040FFF7EEBE10BDF0B5002298
:1007D00001274FF0030C0B6807FA02F52B40AB42E0
:1007E0002CD1066853000CFA03F4A64306600E7978
:1007F000D0F800E09E4046EA0E0606600E79012E13
:1008000001D0022E12D18668A64386604E79D0F8B8
:1008100008E09E4046EA0E0686604668AE434660A3
:1008200045688E799640B6B235434560C568A543A4
:10083000C560CC799C40C3681C43C460521C102A1C
:10084000C9D3F0BD4FF6FF71016000210171417104
:100850008171C171704708B541F480320092C26164
:10086000C1610099C161C169C069009008BD0246BB
:10087000002012690A4200D001207047006980B24E
:1008800070470246002052690A4200D0012070479A
:10089000406980B2704701837047418370470AB155
:1008A00001837047418370474161704742694A4004
:1008B000426170474B07DB0E9A40C90810B500EB48
:1008C0008100016A0F249C40A1430162016A114327
:1008D000016210BD00000240000402400008024016
:1008E000000C0240001002400014024000180240B8
:1008F000001C024000200240002402400028024068
:10090000C14910B5884202D10121841424E0BF49B5
:10091000884202D10121041404E0BD4988420AD171
:100920000121C4132046FFF75CFE2046BDE81040BD
:100930000021FFF756BEB749884202D10121441475
:100940000AE0B549884202D101210C0504E0B3490F
:1009500088420AD101214C052046FFF74CFE204673
:10096000BDE810400021FFF746BE10BD30B502883B
:100970004C8802F441530A88CD8822438C882C434A
:1009800022430C8922434C8922438C892243CC89FF
:1009900022431A430280828B22F400628283098AF6
:1009A000018230BDF0B502220023858B01244FF275
:1009B0004006354085830284868B8D68022D3DD0AC
:1009C0008A8802B10224964A13681B0203D5136871
:1009D00023F400031360924A7C3213681268C3F355
:1009E00088138F4FC2F302723F1F3D683F6805F0C6
:1009F0003F057F0201D58B4F00E08B4FB7FBF5F52C
:100A00005D43B5FBF2F2CB88B3F5007F2BD06301D9
:100A1000B2FBF3F202EB82028B685200B2FBF3F2FC
:100A2000521D92B20A23B2FBF3F202F00103D21A72
:100A30004FF6FF74C2F34F0204EA0323941EFE2C08
:100A400001D302220023CC881A43144304840A8869
:100A50004B881A438B8889890B431A43324342F4EB
:100A600000618183F0BD120AD4E70021018041803A
:100A70008180C180018141818181C1810721018201
:100A800070470021018041808180C1800222826004
:100A9000818170470029018802D041F0400101E0C6
:100AA00021F04001018070470029818B02D041F480
:100AB000806101E021F4806181837047028822F423
:100AC0000062028002880A4302807047B1F5804FBD
:100AD000018803D021F480410180704741F48041B6
:100AE000FAE7A1F57E420188FF3A02D041F4807115
:100AF00001E021F48071018070470029818802D0D3
:100B000041F0040101E021F00401818070470029D7
:100B1000818802D041F0100101E021F010018180B4
:100B2000704730B5828B00234FF24004224082830D
:100B300002220284848B0A884FF48075B2F5007F0C
:100B400000D002B92B464A888D8889892A431943E7
:100B50000A43224342F40061818330BD808970479B
:100B6000818170470029018802D041F4005101E0E1
:100B700021F4005101807047018841F480510180C7
:100B80007047012901D0008B7047808A7047008A26
:100B90007047002A828801D00A4300E08A4382809D
:100BA0007047090901238B40002A828899B201D03D
:100BB0000A4300E08A43828070470246002012897F
:100BC0000A4200D001207047C9430181704730B507
:100BD00001F00F030125024605FA03F40020A3B239
:100BE000090905FA01F49188A4B2128921401A4238
:100BF00002D0002900D0012030BD01F00F020121F8
:100C00009140C943018170470030014000380040E5
:100C1000003C0040003401400050014000540140BD
:100C20000838024040787D010024F40070B55A482D
:100C30004168491C4160816811B18168491E816029
:100C4000AFF300800024554E18E006EB8405686879
:100C500090B1017B81B1826872B1521E8260696875
:100C60000AD14869096988476868016881606868CD
:100C7000416809B900210173641CE4B23078A042D4
:100C8000E3D870BD464801684FF47A70B1FBF0F0CC
:100C9000401EB0F1807F12D24FF0E0225061414BF4
:100CA000F02083F8140D00209061072010613E4869
:100CB000B1FBF0F13848C160012101707047FEE7D7
:100CC00035480078002805D04FF0E020016941F058
:100CD0000201016170474FF0E020016921F002013B
:100CE000016170472DE9F0472C4C0546DDF8209056
:100CF00020781E4617468846052802D30020BDE806
:100D0000F087182001F050F90028F8D00560C0E9FC
:100D100001850773C0E90469217804EB810148600B
:100D20002178491C2170EAE71C4B30B400211A7865
:100D300006E003EB81046468844203D0491CC9B215
:100D40008A42F6D88A4218D003EB81004068EFF35C
:100D5000108472B605E003EB8102491C9568C9B2A4
:100D600055601A78521E8A42F5DC1978491E1970AE
:100D700004B962B630BC01F046B930BC70470021FE
:100D800001737047012101737047016881607047EA
:100D90004160704701607047100000203C00002057
:100DA000280000200FE000E0C0C62D007CB5012126
:100DB0000420FFF7C6FB00208DF806008DF8070021
:100DC00003208DF805000120C403FA4E8DF80400BD
:100DD000694630460094FFF7F9FC611000916946BE
:100DE0003046FFF7F3FCA510694630460095FFF743
:100DF000EDFC21463046FFF74EFD29463046FFF711
:100E00004AFD0021EC4800F0A4FC7CBD70B5E94E21
:100E100004464FF4005529463046FFF73EFDE64AAA
:100E2000108840060DD510898007FCD01089000677
:100E3000F9D4948110898007FCD010890006F9D478
:100E4000908929463046BDE87040FFF724BDD94A55
:100E5000012808D002280BD1800300290146104642
:100E600004D0FFF718BD4FF48040F6E7FFF715BD3B
:100E7000704708B500210091814201D2491CFAE770
:100E800008BD10B50C4618B1012805D1012100E0BC
:100E900000210120FFF7DBFF2046BDE81040B5E749
:100EA0002DE9F041C54F0024E000B97808308842B0
:100EB00022D3F878B0EBC40F22D344F040010020D5
:100EC000FFF7DFFF387840F080010020FFF7D9FFFF
:100ED000C4EBC4003D7800EB4006DFF8E48208E094
:100EE00005EB8601012018F80110FFF7CAFF6D1C01
:100EF000EDB278788542F3D9641CE4B2062CD3D3E2
:100F000053203870002078702F21B970F870BDE838
:100F1000F08130B5A94C2578A84200D220706078C5
:100F2000824200D96270A078814200D2A170E0783C
:100F3000834200D9E37030BDA04A107151717047EF
:100F400010B580210020FFF79CFF4021BDE8104034
:100F5000002096E710B5FFF7F3FF0020984A0146FE
:100F60004FF4FC731154401C9842FBD300210846F7
:100F7000FFF7E2FF00212F2353220846FFF7C9FFA6
:100F8000BDE810408CE710B50446FFF70FFF0021C5
:100F90000220FFF75CFF42F21070FFF76AFF0121A9
:100FA0000220FFF754FF21210020FFF76AFF1421E0
:100FB0000020FFF766FF7F2C00D97F2444F08001DA
:100FC0000020FFF75EFF20210020FFF75AFF0C21D1
:100FD0000020FFF756FFFFF7B3FF0C210020FFF7BB
:100FE00050FFBDE81040B5E710B5044621210020B0
:100FF000FFF747FF7F2C00D97F2444F080010020B9
:10100000FFF73FFF2021BDE81040002039E730B452
:1010100054281BD2302919D2140001F007034FF0D5
:10102000010202FA03F24FEAD103C3EBC303644D9A
:1010300003EB430300EB8303EC5C01D0144300E0BB
:101040009443EC5430BC0B46024662E730BC704718
:10105000012801D00D2100E00C21002011E72DE92D
:10106000F74F92460746012A17D006204FF0080C8A
:10107000DFF8488198F804100144542907D998F8FA
:101080000520624488F80520002288F80420002604
:1010900007EB4709A0F1010B37E004204FF0060CE5
:1010A000E6E7202F08D3BAF1010F07D0454901EB3D
:1010B0004900304410F8C05C3DB109E0424909EBF9
:1010C0000100304410F8605CF6E70FB1202F1AD110
:1010D000002411E00198012825FA04F01ED098F8A8
:1010E000051040F300022144C9B298F80400521CD4
:1010F000FFF78DFF641CE4B26445EBD398F804104D
:10110000491C88F80410761CF6B25E45C9DB98F8D5
:101110000410491C88F80410BDE8FE8F98F80510EB
:1011200000F001022144C9B298F80400E0E770B56C
:1011300015460E46044604E02A463146641CFFF775
:101140008EFF20780028F7D170BD2DE9F04394463A
:10115000DDF81C901F460C460546604501D9AC469B
:101160001546BC4201D90F461C46BCEB0500A7EB57
:10117000040609D09EB1B0423CDDC0EB46077100C9
:10118000404201EB400832E04A4621462846FFF73C
:101190003EFF641CE4B2A742F6D2BDE8F0834A46A3
:1011A00021462846FFF733FF6D1CEDB2AC45F6D261
:1011B000F3E7000000080240003800402000002053
:1011C000540000205A220008A02400084A46214664
:1011D0002846FFF71CFF6D1CEDB2002F04DD641CD8
:1011E000E4B208EB070001E007EB460007B26545F3
:1011F000ECD11BE0C6EB400C7100404201EB400813
:1012000012E04A4621462846FFF701FF641CE4B27B
:10121000BCF1000F04DD6D1CEDB208EB0C0001E029
:101220000CEB46000FFA80FCBC42EAD14A4621464C
:101230002846BDE8F043EAE62DE9F8411D46079C43
:1012400016460F4680460B460094FFF77EFF424647
:101250002B46394610460094FFF777FF32462B465F
:10126000394610460094FFF770FF2B463246194668
:1012700040460094FFF769FFBDE8F8812DE9F84189
:101280001D4617460C468046079E08E023463A4610
:10129000194640460096FFF758FF641CE4B2AC4282
:1012A000F4D3E9E72DE9FF4F844650001446C0F11E
:1012B000000881B00F460819C2F10106C1B24FF013
:1012C000010900256046049AFFF7A1FE381BC1B250
:1012D0006046049AFFF79BFE0CEB0400C0B239464F
:1012E000049AFFF794FEACEB0400C0B23946049AAE
:1012F00059E0002E08DB08F102000FFA80F8641EA6
:1013000006EB080024B206B209F102000FFA80F9D8
:101310006D1C06EB09002DB206B20CEB050007EBC5
:10132000040A00900AF0FF01C0B2049AFFF76FFEB2
:10133000ACEB050B0AF0FF010BF0FF00049AFFF77E
:1013400066FE0098A7EB040A0AF0FF01C0B2049AF7
:10135000FFF75DFE0AF0FF010BF0FF00049AFFF7B4
:1013600056FE0CEB040007EB050A00900AF0FF01A3
:10137000C0B2049AFFF74BFEACEB040B0AF0FF017E
:101380000BF0FF00049AFFF742FE0098A7EB050A56
:101390000AF0FF01C0B2049AFFF739FE0AF0FF011C
:1013A0000BF0FF00049AFFF732FEA542A1DB05B067
:1013B000BDE8F08F2DE9FE4F804650001446C0F185
:1013C000000A0F460819C2F10106C1B299464FF052
:1013D000010B00251A464046FFF719FE381BC1B223
:1013E0004A464046FFF713FE08EB04000190C0B2E6
:1013F0004A463946FFF70BFEA8EB040C0CF0FF0041
:101400004A463946FFF703FE01983B46C2B2CDF883
:1014100000900CF0FF00194643E0002E08DB0AF1B3
:1014200002000FFA80FA641E06EB0A0024B206B22C
:101430000BF102000FFA80FB6D1C06EB0B002DB2C6
:1014400006B208EB0500C2B20290A8EB0500CDE998
:1014500000903919CBB2C9B2C0B2FFF776FE01983D
:10146000391BC2B20298CBB2CDF80090C9B2C0B25B
:10147000FFF76BFEA8EB04017819CAB20291C3B260
:10148000C1B208EB0400CDE90090C0B2FFF75DFEE9
:101490000299781BCAB2C3B2C1B20198CDF80090CC
:1014A000C0B2FFF752FEA542B7DB35E670471CB568
:1014B00030B1032803D10521FE48FFF7F7FF1CBD1B
:1014C00005210320CDE9000100231A464FF4E04135
:1014D000F94800F06CFB1CBD7CB50525F74E0324D4
:1014E00040B101280CD0032803D10521F448FFF7AF
:1014F000DDFF7CBD00231A464FF4607130460CE0DE
:1015000000231A464FF400613046CDE9004500F053
:101510004EFB0023EB481A46C021CDE9004500F000
:1015200046FB7CBD1CB50522E74C032140B10128D8
:101530000CD0032803D10521E448FFF7B7FF1CBDF9
:10154000CDE9001200231A46642105E0CDE900121E
:1015500000231A464FF4E041204600F028FB1CBD52
:101560001CB50622032140B101280DD0032803D168
:101570000621D748FFF79AFF1CBDCDE900120023D2
:101580001A463821D34806E0CDE9001200231A4656
:101590004FF4E051D04800F00AFB1CBD7CB5052596
:1015A000CC4E032450B1012816D002281AD00328AB
:1015B00003D10521C948FFF779FF7CBD00231A46F6
:1015C0004FF480613046CDE9004500F0F0FA002389
:1015D0001A460C21C04809E000231A464FF4604126
:1015E000304603E00023BE481A460D21CDE90045F0
:1015F00000F0DDFA7CBD1CB50522032140B10128B5
:101600000DD0032803D10521B648FFF74FFF1CBDBD
:10161000CDE9001200231A46E021B34805E0CDE9E8
:10162000001200231A463821AA4800F0C0FA1CBD57
:101630002DE9FF4F85B00446DDE912BA99461646FA
:101640006846FFF712FAA748A84F0025844208D140
:10165000386840F4805038600698FFF7CCFFADF84A
:1016600004509E48DFF884828442A8F104080AD11D
:10167000D8F8001041F48041C8F800100698FFF730
:101680008DFFADF80450924884420AD1D8F800107A
:1016900041F40041C8F800100698FFF761FFADF86B
:1016A00004508A48844208D1386840F400503860B9
:1016B0000698FFF737FFADF804508148844208D1FF
:1016C000386840F4801038600698FFF705FFADF8E1
:1016D00004507848844208D1386840F400103860DB
:1016E0000698FFF7E4FEADF80450ADF80C90ADF8A5
:1016F00000504FF40070ADF80EA0ADF802B0ADF898
:101700000A0046B10121012E08D00220022E08D085
:10171000032E0BD00EE0ADF8065004E0ADF80650F5
:1017200006E0ADF80600ADF8085003E0ADF806009D
:10173000ADF80810208820F040002080694620463F
:10174000FFF714F9208840F04000208009B0BDE880
:10175000F08F2DE9FC410446624800250F464FF406
:101760008276844205D1CDE9006520230022FFF76F
:101770005FFF5A48844206D1CDE90065202300224C
:101780003946FFF755FF5248844206D1CDE900653E
:10179000202300223946FFF74BFF4C48844206D1F4
:1017A000CDE90065202300223946FFF741FF444878
:1017B000844206D1CDE90065202300223946FFF797
:1017C00037FF3C48844206D1CDE900652023002242
:1017D0003946FFF72DFFBDE8FC812DE9FC410446A9
:1017E00040480025174688464FF48276844204D14B
:1017F000CDE900652023FFF71BFF3848844206D15E
:10180000CDE9006520233A464146FFF711FF3048F5
:10181000844206D1CDE9006520233A464146FFF7D0
:1018200007FF2A48844206D1CDE9006520233A46C5
:101830004146FFF7FDFE2248844206D1CDE900650E
:1018400020233A464146FFF7F3FE1A488442C2D1AC
:10185000CDE9006520233A464146FFF7E9FEBAE7A5
:101860002DE9FC470446DDE90A651E481F469046FF
:101870008946844205D1CDE9006513463A46FFF713
:10188000D7FE1648844206D1CDE9006543463A4664
:101890004946FFF7CDFE0E48844206D1CDE90065EA
:1018A00043463A464946FFF7C3FE0848844225D1DD
:1018B00043461DE00054014000180240001402405D
:1018C00000500140001C0240001002400034014062
:1018D000003C004000040240000802400038004084
:1018E0000020024000300140000002404438024025
:1018F000CDE900653A464946FFF79AFE77488442AB
:1019000006D1CDE9006543463A464946FFF790FEC9
:101910007348844206D1CDE9006543463A464946BC
:10192000FFF786FEBDE8FC877FB50D00044620D09A
:101930006846FEF771FD6B48844208D06A488442CD
:1019400005D06648844202D06548844201D103999B
:1019500000E0029900200124421C04FA02F3B1FBCA
:10196000F3F3AB4202D8C00004B070BDD0B2082877
:10197000F2D33820F8E702880388C2F3C02223F0AC
:10198000400303800129018808D021F4006101800F
:10199000018841F0400101801046704741F4006128
:1019A000F5E730B50488640614D50489A407FCD093
:1019B00004892406F9D400240AE00D5D8581058997
:1019C000AD07FCD005892D06F9D485891555641C11
:1019D0009C42F2D330BD10B503885B0613D5038952
:1019E0009B07FCD003891B06F9D4002309E0CC5CDB
:1019F00084810489A407FCD004892406F9D484894D
:101A00005B1C9342F3D310BD30B50488640613D534
:101A10000489A407FCD004892406F9D4002409E031
:101A200082810589AD07FCD005892D06F9D4858909
:101A30000D55641C9C42F3D330BD30B50488640658
:101A400016D50489A407FCD004892406F9D40024FF
:101A50000CE031F8145085810589AD07FCD005896B
:101A60002D06F9D4858922F81450641C9C42F0D3C9
:101A700030BD10B503885B0614D503899B07FCD0E5
:101A800003891B06F9D400230AE031F8134084814E
:101A90000489A407FCD004892406F9D484895B1C3A
:101AA0009342F2D310BD30B50488640614D504897E
:101AB000A407FCD004892406F9D400240AE082811A
:101AC0000589AD07FCD005892D06F9D4858921F853
:101AD0001450641C9C42F2D330BD00000050014001
:101AE000005401400030014000340140A349084443
:101AF000C0F38F2070472DE9F04F9A46DDE909B811
:101B000089460346FFF7F2FFC5B200204FF0030EEF
:101B10000121814011EA090F28D0994E36F815406D
:101B20000C4326F81540DF6844000EFA04F6B7436C
:101B30000BFA04FC47EA0C07DF601F6802FA04FC9A
:101B4000B74347EA0C071F60012A01D0022A0DD1D2
:101B50005F6889B28F430AFA00F189B20F435F6070
:101B6000996808FA04F4B14321439960401CC0B25B
:101B70001028CDD3BDE8F08F00B5FFF7B7FF0121E6
:101B80008140804802681143016000BDFCB51646E3
:101B9000DDE907C50C00074608D0FFF7EDFFCDE9EA
:101BA00000C5324621463846FFF7A5FFFCBD2DE9AA
:101BB000FC4F9946DDE90BB792460D00064622D050
:101BC000FFF7DAFF002201214FF00F0C01FA02F0BB
:101BD00028420DD0D00806EB8003186A5407E40EA3
:101BE0000CFA04F820EA080007FA04F4204318620B
:101BF000521C102AEAD3CDE9009B53460222294603
:101C00003046FFF778FFBDE8FC8FF0B50E4605467D
:101C1000FFF76CFF00225A49C4B24FF0010C0327B2
:101C20000CFA02F333420CD028684FEA420E07FA4E
:101C30000EFE40EA0E00286031F81400984321F8A7
:101C40001400521CD2B2102AEAD3F0BDF0B5002223
:101C50000125032605FA02F30B4205D0046857005C
:101C600006FA07F39C430460521CD2B2102AF1D347
:101C7000F0BDF0B500220127032607FA02F33C4627
:101C80000B4208D00568530006FA03FC25EA0C0550
:101C90009C4025430560521CD2B2102AEDD3F0BD02
:101CA000F0B500220125032605FA02F30B4205D008
:101CB0000468570006FA07F31C430460521CD2B2B2
:101CC000102AF1D3F0BDF0B500220126032402272B
:101CD00006FA02F30B4209D00568530004FA03FC2C
:101CE00025EA0C0507FA03F31D430560521CD2B226
:101CF000102AEDD3F0BDF0B500230127032507FA24
:101D000003F40C4209D0C6685C0005FA04FC26EA1C
:101D10000C0602FA04F42643C6605B1CDBB2102BEF
:101D2000EDD3F0BD41F48032C261C161C261C169CD
:101D3000C0697047002102E0491C89B240080128AF
:101D4000FAD80846704700B5FFF7D0FE0121814060
:101D50000C4802688A43026000BD00B5FFF7C6FE6A
:101D6000074931F8100000BD00B5FFF7BFFE044978
:101D700031F81000C04380B200BD00000000FEBF7B
:101D80004C0200203038024000F09FF84020FFF75E
:101D9000FAF803210E20FFF7CFF80022012110A04E
:101DA000FFF7C5F90D210F20FFF7C6F8002201212A
:101DB0000EA0FFF7BCF91A211E20FFF7BDF8002284
:101DC00001210DA0FFF7B3F92A212D20FFF7B4F868
:101DD000012211460AA0FFF7AAF9FFF761F8FEE712
:101DE00053544D33324634787800000044697363AD
:101DF0006F766572790000003230313400000000E7
:101E00006D616A65726C652E657500007047FEE74E
:101E1000FEE7FEE7FEE7704770477047704710B572
:101E2000FEF704FF10BD00000CB5002254490092DB
:101E30000192086840F4803008604FF4A0430868BD
:101E400000F4003001900098401C0090019810B9F7
:101E500000989842F3D10868800334D5012001909E
:101E600047484030026842F08052026045480268AC
:101E700042F4404202604248083002680260026850
:101E800042F400420260026842F4A0520260031F62
:101E90003D4A1A600A6842F080720A600A6892013C
:101EA000FCD53A4940F205720A60016821F003014D
:101EB0000160016841F0020101600168C1F3810124
:101EC0000229FAD10CBD01920CBD314810B5016850
:101ED00041F4700101602A48016841F0010101608C
:101EE000274A00210832116002682A4B1A4002601A
:101EF000031D294A1A60026822F4802202602048E9
:101F00000C300160FFF790FF21494FF000608039ED
:101F1000086010BD70B51A4D083528681F4B204960
:101F200010F00C0004D01F4E042803D0082803D062
:101F30000B601BE00E6019E0114A121D1068C0F31F
:101F40008054106800F03F0014B1B6FBF0F001E0DF
:101F5000B3FBF0F013681268C3F388135843C2F35D
:101F60000142521C5200B0FBF2F0086028680C4A93
:101F7000C0F30310121D105C0A68C2400A6070BDF5
:101F8000003802400070004008544007003C024006
:101F900088ED00E0FFFFF6FE103000240024F4007E
:101FA0002800002040787D0170B5064600F056F804
:101FB000056806F10B0020F00704B4429CBF002026
:101FC00070BD2B466A68BAB11068A04210D304F104
:101FD000080188423CBF5068586007D35168101907
:101FE00041601168091B016058601460101D70BDCC
:101FF00013465268002AE7D12146284600F036F8F9
:102000000028DED170BD70B50446051F00F026F82B
:102010000068002C14BF446870BD002C18BFAC428F
:102020003CBF20466468F8D301680A18AA4218BF6A
:10203000456003D12A6805461144016028684119AA
:10204000A1421CBF6C6070BD616869602168084472
:10205000286070BD704770477047000000487047A7
:102060006C020020704770477047704738B50446CF
:102070000A4600206946AFF30080002808BF38BD3B
:1020800002460099204600F03FF8012038BD0120AB
:1020900000F054B8F8B5AFF30080054600200C46B8
:1020A000102000BF0646A819A0420DD93246694645
:1020B0000020AFF30080070008BF00F03FF8009851
:1020C000A04218BF0546C419FFF7C8FF05600746C0
:1020D000F01D20F007004619284600F00AF8B44227
:1020E00008BFF8BDA21B31463868BDE8F84000F0D3
:1020F0000BB800210160C0E9011070471020704743
:102100000048704764020020034640688C4600285F
:1021100018BF88423CBF03464068F8D3186818448B
:10212000884207D00CF1030020F00700001D411A7F
:10213000521A0146081D0A60FFF765BF10B500F08E
:1021400039F8BDE8104000F02FB870477546FFF72A
:10215000D7FFAE4605006946534620F00700854686
:1021600018B020B5FEF772F8BDE820404FF0000629
:102170004FF000074FF000084FF0000B21F007016F
:10218000AC46ACE8C009ACE8C009ACE8C009ACE8B2
:10219000C0098D46704710B50446AFF30080204655
:1021A000BDE81040FEF73DB8002801D000F02AB885
:1021B0007047000010B5012805D0002103A000F0F1
:1021C00027F8012010BD09A1F8E700005349475244
:1021D000544D454D3A204F7574206F6620686561F7
:1021E00070206D656D6F7279000000003A204865BF
:1021F0006170206D656D6F727920636F727275709A
:102200007465640001491820ABBEFEE72600020099
:1022100070B505460C460A2000E06D1C00F011F870
:1022200035B128780028F8D102E0641C00F009F8E4
:1022300014B120780028F8D1BDE870400A20AFF32F
:10224000008008B569468DF800000320ABBE08BDCC
:102250004FF04070E1EE100A7047000000000000EF
:1022600000002F000000000700070000147F147F0B
:102270001400242A7F2A1200323408162600364918
:1022800055225000000503000000001C2241000000
:102290000041221C000014083E08140008083E08F3
:1022A00008000000503000001010101010000060F6
:1022B000600000002010080402003E5149453E0025
:1022C00000427F4000004261514946002141454B98
:1022D00031001814127F10002745454539003C4A4B
:1022E0004949300001710905030036494949360062
:1022F000064949291E000036360000000056360007
:1023000000000814224100001414141414000041A9
:1023100022140800020151090600324959513E00B9
:102320007E1111117E007F49494936003E414141ED
:1023300022007F4141221C007F49494941007F0919
:10234000090901003E4149497A007F0808087F00D9
:1023500000417F4100002040413F01007F081422DE
:1023600041007F40404040007F020C027F007F041C
:1023700008107F003E4141413E007F0909090600E7
:102380003E4151215E007F091929460046494949CD
:10239000310001017F0101003F4040403F001F200C
:1023A00040201F003F4038403F0063140814630082
:1023B000070870080700615149454300007F41410B
:1023C0000000552A552A55000041417F00000402B3
:1023D00001020400404040404000000102040000AF
:1023E0002054545478007F484444380038444444CE
:1023F0002000384444487F00385454541800087E64
:10240000090102000C5252523E007F080404780079
:1024100000447D4000002040443D00007F102844DF
:10242000000000417F4000007C04180478007C0814
:10243000040478003844444438007C141414080020
:10244000081414187C007C080404080048545454F0
:102450002000043F444020003C4040207C001C20E1
:1024600040201C003C4030403C00442810284400E0
:102470000C5050503C004464544C4400007F3E1CBF
:102480000800081C3E7F0000087C7E7C0800103E8F
:102490007E3E10003E3E3E3E3E00007F3E1C080059
:1024A0000000000017000300031F0A1F0A1F050990
:1024B00004120F171C000300000E11110E0005027C
:1024C00005040E04100800040404001000080402AF
:1024D0001F111F121F101D151711151F07041F179D
:1024E000151D1F151D01011F1F151F17151F000AA0
:1024F00000100A00040A110A0A0A110A040115034D
:102500000E15161E051E1F150A0E11111F110E1F86
:1025100015151F05050E151D1F041F111F1108108D
:102520000F1F041B1F10101F061F1F0E1F0E110E62
:102530001F05020E111E1F0D16121509011F010F96
:10254000100F0718071F0C1F1B041B031C03191572
:10255000131F110002040800111F020102101010C5
:102560000102001A161C1F120C0C12120C121F0C66
:102570001A16041E0506150F1F021C001D00101060
:102580000D1F0C12111F101E0E1E1E021C0C120C11
:102590001E0A04040A1E1C0202141E0A021F120E46
:1025A000101E0E100E1E1C1E120C1202141E1A1EDD
:1025B00016041B11001F00111B040406021F1F1F1D
:1025C000000000000000000000000000000000000B
:1025D00000000000000000000000000000000000FB
:1025E00000260008000000203C000000C401000894
:1025F0003C2600083C0000208C080000E001000898
:102600000000000001020304010203040607080998
:1026100000000000000000000000000000000000BA
:102620000000000000000000007A030A0000000023
:0C26300000000000010203040607080976
:040000050800018965
:00000001FF
