:020000040800F2
:10000000E8D50120C1010008DD5C0008DF5C0008C4
:10001000E15C0008E35C0008E55C0008000000000B
:10002000000000000000000000000000E75C000885
:10003000E95C000800000000EB5C0008EF5C0008D1
:10004000DB010008DB010008DB010008DB01000820
:10005000DB010008DB010008DB010008DB01000810
:10006000DB010008DB010008DB010008DB01000800
:10007000DB010008DB010008DB010008DB010008F0
:10008000DB010008DB010008DB010008DB010008E0
:10009000DB010008DB010008DB010008DB010008D0
:1000A000DB010008DB010008DB010008DB010008C0
:1000B000DB010008DB010008DB010008DB010008B0
:1000C000DB010008DB010008DB010008DB010008A0
:1000D000DB010008DB010008DB010008DB01000890
:1000E000DB010008DB010008DB010008DB01000880
:1000F000DB010008DB010008DB010008DB01000870
:10010000DB010008DB010008DB010008DB0100085F
:10011000DB010008DB010008DB010008DB0100084F
:10012000DB010008DB010008DB010008DB0100083F
:10013000DB010008DB010008DB010008DB0100082F
:10014000DB010008DB010008DB010008DB0100081F
:10015000DB010008DB010008DB010008DB0100080F
:10016000DB010008DB010008DB010008DB010008FF
:10017000DB010008DB010008DB010008DB010008EF
:10018000DB010008DB010008DB010008DB010008DF
:10019000DB010008DB010008DB010008DB010008CF
:1001A000E5200008DB010008E9200008DFF80CD09A
:1001B00005F0B6FE00480047615A0008E8D5012066
:1001C0000648804706480047FEE7FEE7FEE7FEE7F1
:1001D000FEE7FEE7FEE7FEE7FEE7FEE7B75D0008A5
:1001E000AD010008F948016841F001010160F74ADA
:1001F0000021083211600268F54B1A400260031DAD
:10020000F44A1A60F14BF44A84331A60F14A103A06
:100210001B1D1A60026822F480220260EB480C3039
:100220000160181D01607047E8490022891C0A70AE
:100230000870704702460020510901290CD002299C
:100240000CD0E2497431096802F01F020123934087
:100250000B4200D001207047DC49F4E7DB497031E4
:10026000F1E718B500204FF4A04400903120FFF7CB
:10027000E1FF0099491C0091A14201D00028F5D06E
:100280003120FFF7D7FF002800D0012018BDCF4A4A
:10029000116821F0F80141EAC00010607047CF49B1
:1002A00008607047C949002270310A700A7001283D
:1002B00002D0042801D1052008707047C8490860A1
:1002C000704741EA82115A0810B5C64B029C03EBF5
:1002D00002421143014341EA0460BC49091D086020
:1002E00010BDBE4908667047800140EA0160B74909
:1002F00040EA0270843108607047B84988667047E8
:10030000800140EA0160B14940EA0270883108602A
:100310007047B24908677047B049C8647047AB4B33
:1003200008331A68084322F0EC62104318607047E3
:10033000A64B08331A68084322F07842104318602D
:100340007047A24A0832116821F00301014311608D
:1003500070479E480830006800F00C0070479B4AC8
:100360000832116821F0F001014311607047974A8B
:100370000832116821F4E051014311607047934A3B
:100380000832116821F4604141EAC00010607047F2
:1003900070B58E4B08331968934C11F00C0104D0E2
:1003A0006610042903D0082903D004601BE006600E
:1003B00019E0864A121D1168C1F38055116801F0D9
:1003C0003F0115B1B6FBF1F101E0B4FBF1F11468A6
:1003D0001268C4F388146143C2F30142521C5200F4
:1003E000B1FBF2F1016019680F2202EA11117F4A94
:1003F000545C0168E14041601C68072505EA9424CB
:10040000145D21FA04F484601B6805EA5333D25C5E
:10041000D140C16070BDC0F30121032908D16B4BED
:1004200008331968724A21F4F81102400A431A602D
:10043000664970310A68C0F30B0002430A607047D6
:10044000674944390860704765494039086070471A
:100450006249C1F85C0170475C4A8C32116821F432
:100460004011014311607047584A8C32116821F4E1
:100470004001014311607047544A8C321168401E9C
:1004800021F01F01014311607047504A8C321168FE
:100490006FF0FF0321F4F85103EB002008431060D4
:1004A00070474A4A8C32116821F44031014311608F
:1004B00070475049C1F8E0017047444A3032002982
:1004C000116801D0014300E08143116070473F4A49
:1004D00034320029116801D0014300E081431160EA
:1004E00070473A4A38320029116801D0014300E0D0
:1004F000814311607047354A40320029116801D0AC
:10050000014300E0814311607047304A44320029C2
:10051000116801D0014300E08143116070472B4A0C
:1005200010320029116801D0014300E081431160BD
:100530007047264A14320029116801D0014300E0B7
:10054000814311607047214A18320029116801D097
:10055000014300E08143116070471C4A20320029AA
:10056000116801D0014300E0814311607047174AD0
:1005700024320029116801D0014300E08143116059
:100580007047124A50320029116801D0014300E03F
:100590008143116070470D4A54320029116801D01F
:1005A000014300E0814311607047084A5832002936
:1005B000116801D0014300E0814311607047034A94
:1005C00060320029116817D0014316E0003802405C
:1005D000FFFFF6EA10300024003000200000474200
:1005E000800E47420000FFFF0024F40000000020BE
:1005F000FFFCFF0F00104742814311607047194A0A
:100600000029116801D0014300E081431160704767
:1006100014490C310128086803D020F00800086054
:10062000704740F00800FAE70E4A573A002911785F
:1006300001D0014300E08143117070470948103038
:10064000016841F08071016070470146054A002051
:10065000583A12680A4200D00120704701495639C1
:10066000087070476438024010B50121CC0520465F
:10067000FFF755FF2046BDE810400021FFF74FBFB0
:1006800030B5A34B00241968A24A114019601968BB
:10069000026811431960596B21F007015963596BC6
:1006A000426811435963416841B301292DD00229A1
:1006B00030D00329C16832D00A01016944690902B6
:1006C00024038568214315430D43996B0D439D63B6
:1006D0008169D963196C6FF30D011964196CC269D2
:1006E00011431964818C5A6C02F040425A645A6C6E
:1006F000006A024342EA01425A6430BDC168047D87
:100700000A02018A09042406DBE7C1680A02018A99
:100710000904D6E7C1684A010169C902D1E74A0163
:10072000016944698902E403CBE70021016041606B
:10073000C1608160016141618161C16101624162A9
:1007400070477348016841F00101016070477048CB
:10075000016841F00401016070476D490028086894
:1007600002D040F0020001E020F002000860704773
:1007700070B567490268CA600A696FF30D020A61C1
:100780000A6943681A430A61CA69634B1A40CA611D
:10079000848AD0E902622504036946EA0216047ECF
:1007A00045EA03231E43CA6946EA04661643CE613E
:1007B0000A6A02F07F420A62026A838C0C6A1202A1
:1007C000C56942EA03422C4314430C62806AC86242
:1007D00070BD0021016041608160C16001614161C3
:1007E0008161C161016241628162704770B54849AF
:1007F00002684A618A696FF30D028A618A694368F7
:100800001A438A614A6A444B1A404A62848AD0E990
:1008100002622504036946EA0216047E45EA0323C0
:100820001E434A6A46EA046616434E628A6A02F02A
:100830007F428A62026A838C8C6A1202C56942EA2C
:1008400003422C4314438C62806A086370BD00210C
:10085000016041608160C160016141618161C1618C
:10086000016241628162704729490028C86902D04B
:1008700040F0200001E020F02000C86170472449CA
:100880000028486A02D040F0200001E020F020005B
:10089000486270471E4A59B1D16C4FF601739943B3
:1008A000D164D16C000240F001000143D164704773
:1008B000D06C20F00100D0647047154988647047FF
:1008C000134A0029116801D0014300E081431160FF
:1008D00070470F4A0146002052680A4200D00120AA
:1008E00070470B4988607047094B10B55C68002160
:1008F00014EA102F00D001211A68024202D009B177
:10090000012010BD002010BD0149000A8860704719
:1009100000B00240FCE0FCFFC000FC008100A1F13F
:10092000C04140B143F2D20008606FF070404860AF
:10093000C1F8040170474FF0204243F2DB00106021
:10094000F3E730B501688900A1F1C0410B68FE4AA8
:100950001340D0E901242243D0E903452C4322432C
:100960004469224384692243C4692243046A2243BE
:10097000446A2243846A2243C46A2243046B2243AA
:10098000446B22431A430A608168082907D1016831
:100990008900A1F1C0410A6842F040020A60416B3F
:1009A000B1F5801F15D1016899B14FF020414A6817
:1009B0000B6822F4700243F480130B600B6843F45D
:1009C00080730B60836BE14C1B8A04EB035313436E
:1009D0004B60816BD1E9002342EA03128B688C895A
:1009E0001B0243EA04431A430B8A42EA03520B7D7B
:1009F000896942EA03620A4301688900A1F1C041A2
:100A00004A60816AB1F5804F08D000686FF070418C
:100A10008000A0F1C040C0F8041130BDC16BD1E925
:100A2000002342EA03128B680C8A1B0243EA045338
:100A30001A430B7D896942EA036200680A43800019
:100A4000A0F1C040C0F8042130BD00210222C0E95D
:100A500000121022C0E902120161C162416112025A
:100A60008161C0E907125200C0E9092101634163B5
:100A7000B7498163C16370478000A0F1C04000297D
:100A8000016802D041F0010101E0B24A1140016069
:100A9000704710B5182340244FF020414FF0FC322E
:100AA000102805D041F8803F4C608A60CA6010BDB4
:100AB0000B664C668A66CA6610BD30B502684FF098
:100AC0002041102A1BD0D1F88020A34B02EA030258
:100AD000D0E9013443EA0403D0E9034544EA0504BC
:100AE00043EA0403446943EA4423846943EA443300
:100AF00043EA020343F0080403D18A6E03E00A6E5E
:100B0000E3E7D1F88820C269D2E9003543EA05233A
:100B10001589127B4FEA054545EA026243EA020362
:100B200001D1CA6E01E0D1F88C20006AD0E900251D
:100B300042EA05220589007B4FEA054545EA006047
:100B400042EA000203D10C668B66CA6630BD41F8EA
:100B5000804F8B60CA6030BD10220021C0E90021A7
:100B6000C0E90221016141618161C269FC2111601A
:100B7000C2695160C2699160C269D160026A116044
:100B8000026A5160026A9160006AC16070474FF06A
:100B9000204251B1102804D052F8800F40F00400D8
:100BA0000AE0106E40F004000AE06A49C91E1028ED
:100BB00004D052F8800F084010607047106E084053
:100BC000106670474FF0204251B1102804D052F8FF
:100BD000800F40F040000AE0106E40F040000AE054
:100BE0005C493F39102804D052F8800F084010604B
:100BF0007047106E0840106670474FF02041102873
:100C000002D0D1F894007047486F70474FF02040F1
:100C1000182140F8A01F002141604FF0FC31816095
:100C2000C1600161704710B54FF0204151F8A02F0D
:100C30004A4B84681A4043685B0243EA44330468C1
:100C40001443234343F010020A608A68C268D2E961
:100C5000003443EA04231489127B240444EA026228
:100C600013438B60CA680269D2E9003443EA042363
:100C70001489127B240444EA02621343CB600A699C
:100C80004069D0E9002342EA03220389007B1B0468
:100C900043EA006002430A6110BD00210160416027
:100CA0008160C268FC211160C2685160C2689160B5
:100CB000C268D16002691160026951600269916085
:100CC0000269D16042691160426951604269916074
:100CD0004069C16070474FF02041002851F8A00FD3
:100CE00002D040F0040002E01A4AD21E1040086010
:100CF00070478000A0F1C0404FF43471C0F840113B
:100D00006FF07041C0F848114FF020410020C1F849
:100D10005001C1F85401C1F858017047F0B5066898
:100D2000B100A1F1C041D1F84011CD0BD0E90112C1
:100D30001143D0E903231A4311434269ED031143E0
:100D400082691143C2690BE08000E7FF0000F0FFF9
:100D5000A0FC0008FEFF0F008101F0FFCD01FEFFA7
:100D6000046A1143436A2143194329434FF0204544
:100D7000F6B3D5F8406122436FF30E0633431A43AE
:100D8000C5F8402102689200A2F1C042C2F84011A9
:100D90006FF00F02130114030168160449B38900B0
:100DA000A1F1C041D1F8481101F0704C816AD1E93C
:100DB000007E02EB0E127F1E17438A6803EB0222AD
:100DC00017430A8A04EB02421743D5F8482147EA41
:100DD0000C0702F07043CA68898A120306EB0151BE
:100DE000A2F580520A431A43C5F84821006801E081
:100DF00006E008E08000A0F1C040C0F84871F0BDF6
:100E0000C5F84011C4E7D5F84811806A01F0704771
:100E1000D0E9001C02EB0C12491E1143826803EB5F
:100E200002221143924BC26803EB02321143028A41
:100E300004EB02421143828A007E06EB0252114308
:100E40001A0302EB006001433943C5F84811F0BDB5
:100E5000002202604260102140238260C0E9031337
:100E6000802343614B01C0E9063202624262826A1A
:100E70001160826A5160826A9160826AD160826A7E
:100E80001161826A5161806A81617047D0E9001204
:100E9000114382686FF01F03C06803EB421242EAFD
:100EA000402001434FF02040C0F8501170474FF0F0
:100EB00020410028D1F8580103D000F01800800824
:100EC000704700F0060070474FF02041D1F85421E0
:100ED00042EA4000C1F8540170474FF02041D1F878
:100EE000502142EA4010C1F8500170478000A0F143
:100EF000C0400029D0F8401102D041F4007102E056
:100F000047F6FF521140C0F84011704730B54FF41A
:100F100080752C014FF02043A2B1102804D0A842C4
:100F200005D153F8840F06E0586E084313E0A04241
:100F300004D153F8A40F0843186030BDD3F854010E
:100F4000084313E0102804D0A84206D153F8840FB8
:100F500007E0586E8843586630BDA04203D153F86D
:100F6000A40F8843E8E7D3F854018843C3F8540139
:100F700030BD00224FF0204310280AD0B0F5807F0A
:100F800009D0B0F5805F09D0D3F85801814309D169
:100F900007E0586EFAE7D3F88400F7E7D3F8A40027
:100FA000F4E70122104670474FF0204210280BD082
:100FB000B0F5807F0CD0B0F5805F0CD0D2F8540132
:100FC0008843C2F854017047506E8843506670479A
:100FD00052F8840F01E052F8A40F88431060704764
:100FE00030B500231C464FF02045102815D0B0F531
:100FF000807F14D0B0F5805F14D0D5F85421D5F897
:10100000584102EA010580B101280ED002EAD10060
:1010100008B105B10123184630BD6A6EF1E7D5F875
:101020008420EEE7D5F8A420EBE704F00100EFE719
:101030004FF0204210280CD0B0F5807F0ED0B0F5D4
:10104000805F0ED0D2F8540140F00100C2F8540184
:101050007047506E20EAD1005066704752F8840FF6
:1010600001E052F8A40F20EAD100106070470000A0
:1010700000F0FFFFD24910B5884202D101214C0592
:101080000AE0D049884202D101218C0504E0CE4912
:1010900088420AD10121CC052046FFF75EFA20469E
:1010A000BDE810400021FFF758BA10BD7FB50446D7
:1010B00080880D4620F03F066846FFF769F9C3496E
:1010C0000298B0FBF1F189B20E43A680228822F08B
:1010D00001022280BE4B2A689A421BD85200B0FB04
:1010E000F2F080B2042800D20420491C2184A0839D
:1010F000208840F00100208020884FF6F53108401C
:10110000A9886A89114301432180A8892989084354
:1011100020817FBDEB88A3F53F46FF3E0BD002EB5D
:10112000C20303EB0212B0FBF2F080B240F4804045
:10113000020506D007E002EB4202B0FBF2F080B2FB
:10114000F6E740F001004FF4967251434FF47A7283
:10115000B1FBF2F140F40040C7E741F28831016091
:10116000002181804BF6FF72C280018141814FF4E2
:101170008041818170470029018802D041F001013E
:1011800001E021F00101018070470029818C02D02B
:1011900021F0100101E041F0100181847047828C40
:1011A00001F00F0122F00F021143818470470029E2
:1011B000018802D041F4807101E021F48071018046
:1011C00070470029018802D041F4007101E021F448
:1011D00000710180704712B141F0010101E001F09E
:1011E000FE01018270470029018802D041F480612C
:1011F00001E021F4806101807047828901F0FE01E5
:1012000022F0FE021143818170470029818902D0BA
:1012100041F0010101E021F00101818170470029C5
:10122000018802D041F0400101E021F0400101803D
:1012300070470029018802D041F4004101E0C1F368
:101240000E01018070470029018803D021F0800140
:101250000180704741F08001FAE7B1F5804F818B42
:1012600002D021F4804101E041F480418183704744
:10127000B1F5006F018803D021F40061018070474F
:1012800041F40061FAE7B1F5005F018803D021F471
:1012900000510180704741F40051FAE700290188AC
:1012A00002D041F0100101E021F0100101807047EF
:1012B00001827047008AC0B270470029018802D0BD
:1012C00041F4805101E021F4805101807047B1F573
:1012D000006F018803D021F400610180704741F460
:1012E0000061FAE70029018802D041F0200101E005
:1012F00021F0200101807047008B000A704700290F
:10130000818802D041F4006101E021F40061818014
:1013100070470029818802D041F4805101E021F416
:1013200080518180704708B508440090008808BD4E
:10133000002A828801D00A4300E08A4382807047F5
:10134000034600209A8A1B8B42EA034222F07F4226
:10135000914300D101207047818A008B41EA00410E
:1013600021F07F4070470CB50246002000920A0F22
:1013700021F07F41019202D0009A143202E0009ADB
:10138000090C1832009212680A4200D001200CBDEC
:10139000C9438182704710B5034600209A884FF4F4
:1013A000E06404EA11449B8A224021F07F410B4211
:1013B00002D0002A00D0012010BDC94381827047AD
:1013C0000054004000580040005C004040420F00C4
:1013D000A086010010B501218C062046FFF7C7F852
:1013E0002046BDE810400021FFF7C1B830B5F74AEC
:1013F0001368F7490B401360038A146845692C434E
:1014000044EA03441460121D13680B401360038BFD
:101410001468C5692C4344EA03441460121D136820
:101420000B401360038C1468456A2C4344EA034460
:101430001460121D13680B401360018D1368C46A99
:10144000234343EA01431360111D0A68E14B1A402C
:101450000A60D0E900231A43D0E9023423431A4337
:101460000B681A430A60416B0A02018E0B04D749CC
:1014700024310C6804F07F440C600C68806B1343CB
:1014800004431C430C6030BD002101604160816059
:10149000C160016141618161C1610162416281623A
:1014A000C1620163416381637047C84910310028FC
:1014B000086802D040F0010001E020F0010008605F
:1014C0007047C24910310028086802D040F48030CB
:1014D00001E020F4803008607047BC4910310A6890
:1014E000BC4B1A400A600A680B68C2F30212096812
:1014F000C3F30223C1F302310260C0E90131704736
:1015000002210160416081607047B0493831086054
:101510007047AE491C310860704770B58A884368CF
:1015200003F4704343600B6843EA024343608A89D3
:10153000836803F4704383608B6843EA02438360EB
:10154000026922F0070202610A690261CA6991F820
:10155000243014020A8C85691204002686618D6984
:1015600042EA0362254315438561426922F0FF0286
:1015700042614A694261C26940F207739A43C2619B
:10158000D1E90A231A43C261826A86620A6B8262C7
:101590000A8FC36A03F0E023C3624B6B43EA024342
:1015A000C362026B6FF30A020263C96B016370BD11
:1015B0000021016041608160FF22C160C0E9041226
:1015C0008161C1614FF4C0620162C0E90912072262
:1015D000C0E90B2141638163C16370470029016841
:1015E00002D041F0010101E021F0010101607047EA
:1015F00076493C310A6800220A600A680968120CC0
:1016000089B2C0E900217047002101604160704744
:101610006E4940310968014201D001207047002025
:10162000704710B592B1026842F0020202604A6847
:10163000C46813020A8904F07F44C460C46809685E
:1016400043EA02430C431C43C46003E0016821F0F9
:10165000020101605D4901201C31086010BD0021BC
:1016600001604160816070470029016802D041F04B
:10167000100101E021F010010160544901201C31EA
:101680000860704710B58A6814028A8913040A78C2
:1016900049681C4341EA02612143016410BD0021F5
:1016A000016041608160C160704710B5436803F418
:1016B00070434360836803F470438360434B1B1D96
:1016C0001C6801EB144312FA84F20169521C5B1C82
:1016D000F1B101291ED004291ED002291CD00329F2
:1016E0001AD0072918D00121C46AC4F30C04E41EDF
:1016F000B4FBF1F1046B1944491EC4F30A0443EA34
:10170000014114444160641E42EA0441816010BDFD
:101710000421E9E70321E7E70221E5E7416170479A
:1017200081627047F0B503690BB3012B21D0042B04
:1017300021D0022B1FD0032B1DD0072B1BD0012340
:101740004468C4F30C0584684E19C4F30C041719DB
:10175000761E45EA064545607F1E44EA07448460DC
:101760005943CB1C43EA0141C1620263F0BD04232B
:10177000E6E70323E4E70223E2E702690AB3012A6A
:1017800021D0042A28D0022A26D0032A24D0072ACE
:1017900022D00122C36A1B0CB3FBF2F3F1B1012981
:1017A0001ED004291ED002291CD003291AD00729D3
:1017B00018D001225343DA1C42EA0342C26201619B
:1017C00070470422E6E70322E4E7000008680140CE
:1017D00000F800F08F88FE0F0222DBE70422E9E721
:1017E0000322E7E70222E5E7144A0029116801D045
:1017F000014300E081431160704701460F4A002019
:10180000121D12680A4200D0012070470B490831AE
:1018100008607047094A0021121D1268024200D078
:101820000121064A1268024202D009B10120704724
:101830000020704701490831086070473468014052
:10184000C14910B5884202D10121841424E0BF4966
:10185000884202D10121041404E0BD4988420AD122
:101860000121C4132046FEF778FE2046BDE8104053
:101870000021FEF772BEB749884202D1012144140B
:101880000AE0B549884202D101210C0504E0B349C0
:1018900088420AD101214C052046FEF768FE204609
:1018A000BDE810400021FEF762BE10BD30B50288D1
:1018B0004C8802F441530A88CD8822438C882C43FB
:1018C00022430C8922434C8922438C892243CC89B0
:1018D00022431A430280828B22F400628283098AA7
:1018E000018230BDF0B502220023858B01244FF226
:1018F0004006354085830284868B8D68022D3DD05D
:101900008A8802B10224964A13681B0203D5136821
:1019100023F400031360924A7C3213681268C3F305
:1019200088138F4FC2F302723F1F3D683F6805F076
:101930003F057F0201D58B4F00E08B4FB7FBF5F5DC
:101940005D43B5FBF2F2CB88B3F5007F2BD063018A
:10195000B2FBF3F202EB82028B685200B2FBF3F2AD
:10196000521D92B20A23B2FBF3F202F00103D21A23
:101970004FF6FF74C2F34F0204EA0323941EFE2CB9
:1019800001D302220023CC881A43144304840A881A
:101990004B881A438B8889890B431A43324342F49C
:1019A00000618183F0BD120AD4E7002101804180EB
:1019B0008180C180018141818181C18107210182B2
:1019C00070470021018041808180C18002228260B5
:1019D000818170470029018802D041F0400101E077
:1019E00021F04001018070470029818B02D041F431
:1019F000806101E021F4806181837047028822F4D4
:101A00000062028002880A4302807047B1F5804F6D
:101A1000018803D021F480410180704741F4804166
:101A2000FAE7A1F57E420188FF3A02D041F48071C5
:101A300001E021F48071018070470029818802D083
:101A400041F0040101E021F0040181807047002988
:101A5000818802D041F0100101E021F01001818065
:101A6000704730B5828B00234FF2400422408283BE
:101A700002220284848B0A884FF48075B2F5007FBD
:101A800000D002B92B464A888D8889892A43194398
:101A90000A43224342F40061818330BD808970474C
:101AA000818170470029018802D041F4005101E092
:101AB00021F4005101807047018841F48051018078
:101AC0007047012901D0008B7047808A7047008AD7
:101AD0007047002A828801D00A4300E08A4382804E
:101AE0007047090901238B40002A828899B201D0EE
:101AF0000A4300E08A438280704702460020128930
:101B00000A4200D001207047C9430181704730B5B7
:101B100001F00F030125024605FA03F40020A3B2E9
:101B2000090905FA01F49188A4B2128921401A42E8
:101B300002D0002900D0012030BD01F00F020121A8
:101B40009140C94301817047003001400038004096
:101B5000003C00400034014000500140005401406E
:101B60000838024000127A000024F40070B55A4888
:101B70004168491C4160816811B18168491E8160DA
:101B800004F074F80024554E18E006EB84056868EC
:101B900090B1017B81B1826872B1521E8260696826
:101BA0000AD148690969884768680168816068687E
:101BB000416809B900210173641CE4B23078A04285
:101BC000E3D870BD464801684FF47A70B1FBF0F07D
:101BD000401EB0F1807F12D24FF0E0225061414BA5
:101BE000F02083F8140D00209061072010613E481A
:101BF000B1FBF0F13848C160012101707047FEE788
:101C000035480078002805D04FF0E020016941F008
:101C10000201016170474FF0E020016921F00201EB
:101C2000016170472DE9F0472C4C0546DDF8209006
:101C300020781E4617468846052802D30020BDE8B6
:101C4000F08718200DF0F6FF0028F8D00560C0E9F5
:101C500001850773C0E90469217804EB81014860BC
:101C60002178491C2170EAE71C4B30B400211A7816
:101C700006E003EB81046468844203D0491CC9B2C6
:101C80008A42F6D88A4218D003EB81004068EFF30D
:101C9000108472B605E003EB8102491C9568C9B255
:101CA00055601A78521E8A42F5DC1978491E19705F
:101CB00004B962B630BC0DF095BF30BC704700214E
:101CC000017370470121017370470168816070479B
:101CD000416070470160704710000020CC02002076
:101CE0008C0000200FE000E0C0C62D001CB50321D1
:101CF0000020CDE9000103464C030122214619488A
:101D000000F086F817481A3004801CBD1CB500216D
:101D10000220CDE900010B460A460121124800F0DD
:101D200077F81CBD10480069C107104805D001783C
:101D300029B9012101700846704700210170002077
:101D4000704709480069C107084803D001210170A4
:101D50000020704701780029FAD00021017001208D
:101D600070470000001802400000024020000020E0
:101D7000A3490844C0F38F2070472DE9F04F9A46DD
:101D8000DDE909B889460346FFF7F2FFC5B2002036
:101D90004FF0030E0121814011EA090F28D0994E1E
:101DA00036F815400C4326F81540DF6844000EFA5B
:101DB00004F6B7430BFA04FC47EA0C07DF601F6820
:101DC00002FA04FCB74347EA0C071F60012A01D05E
:101DD000022A0DD15F6889B28F430AFA00F189B2F5
:101DE0000F435F60996808FA04F4B1432143996096
:101DF000401CC0B21028CDD3BDE8F08F00B5FFF76E
:101E0000B7FF01218140804802681143016000BD95
:101E1000FCB51646DDE907C50C00074608D0FFF7FC
:101E2000EDFFCDE900C5324621463846FFF7A5FF54
:101E3000FCBD2DE9FC4F9946DDE90BB792460D003C
:101E4000064622D0FFF7DAFF002201214FF00F0CE7
:101E500001FA02F028420DD0D00806EB8003186A80
:101E60005407E40E0CFA04F820EA080007FA04F418
:101E700020431862521C102AEAD3CDE9009B534636
:101E8000022229463046FFF778FFBDE8FC8FF0B507
:101E90000E460546FFF76CFF00225A49C4B24FF0C8
:101EA000010C03270CFA02F333420CD028684FEAE6
:101EB000420E07FA0EFE40EA0E00286031F81400C8
:101EC000984321F81400521CD2B2102AEAD3F0BD74
:101ED000F0B500220125032605FA02F30B4205D0D6
:101EE0000468570006FA07F39C430460521CD2B200
:101EF000102AF1D3F0BDF0B500220127032607FA1E
:101F000002F33C460B4208D00568530006FA03FC76
:101F100025EA0C059C4025430560521CD2B2102ACC
:101F2000EDD3F0BDF0B500220125032605FA02F33A
:101F30000B4205D00468570006FA07F31C430460FF
:101F4000521CD2B2102AF1D3F0BDF0B50022012606
:101F50000324022706FA02F30B4209D00568530056
:101F600004FA03FC25EA0C0507FA03F31D43056098
:101F7000521CD2B2102AEDD3F0BDF0B500230127D8
:101F8000032507FA03F40C4209D0C6685C0005FA81
:101F900004FC26EA0C0602FA04F42643C6605B1C25
:101FA000DBB2102BEDD3F0BD41F48032C261C161D0
:101FB000C261C169C0697047002102E0491C89B251
:101FC00040080128FAD80846704700B5FFF7D0FE50
:101FD000012181400C4802688A43026000BD00B5BF
:101FE000FFF7C6FE074931F8100000BD00B5FFF746
:101FF000BFFE044931F81000C04380B200BD0000AC
:102000000000FEBFE40200203038024010B501217C
:102010000803FEF752FAFFF7D5FD00F05AFD01F074
:1020200074FE022801D0022010BD04F0D9FF08B1CF
:10203000032010BD2D4901208871002010BD10B56E
:10204000002000F0D8FDFF2000F0D8FD00F0BCFA21
:10205000264901200839087010BD10B5002000F095
:10206000CDFDFF2000F0C7FD00F09BFA1F490020C6
:102070000839087010BD10B504F0AEFE1B490446C7
:1020800008394A681AB1087808B100F0DBFD20462B
:1020900010BD0120704770B5144C083C6078401C9E
:1020A000C0B26070322819D3002565700F4801F066
:1020B00023FF0E480E4902880A6042884A60007970
:1020C00070B1002008724D72A178884200D129B108
:1020D000A070074805F036FD04F07EFE002070BDBC
:1020E0000120EFE702F0A4BB02F09EBB2C00002011
:1020F000FC02002070477CB50425012440B1012872
:1021000013D0032803D10421FD48FFF7F3FF7CBD62
:1021100001231A461902FB48CDE90045FFF789FE65
:1021200001231A465902F84804E00123F7481A46E9
:102130004FF4C071CDE90045FFF77BFE7CBD1CB5B7
:102140000421012248B101280FD0022814D003280D
:1021500002D1EF48FFF7CEFF1CBDCDE900210123DE
:102160001A464FF44061EB480CE0CDE90021012311
:102170001A460321E84805E0CDE9002101231A466B
:102180003021E248FFF755FE1CBD1CB50421E14C8F
:10219000012248B101280DD0022812D0032802D113
:1021A000DE48FFF7A7FF1CBDCDE9002101231A4639
:1021B000C0210CE0CDE9002101231A464FF4407103
:1021C00005E0CDE9002101231A464FF410712046A5
:1021D000FFF72FFE1CBD2DE9FF4715460446CF4AE9
:1021E0000026CF48CF4F4FF480484BF6FF799442FA
:1021F0000CD1026842F4001202600846FFF7C5FFE6
:102200003868A84200D93D6038681EE0C04A944250
:102210000CD1026842F4800202600846FFF78FFF8B
:102220007868A84200D97D6078680EE0B44A94428C
:1022300016D1026842F4000202600846FFF75BFF15
:10224000B868A84200D9BD60B868ADF80460ADF8C0
:1022500008600090ADF80C80ADF80A60ADF806900B
:10226000208820F00100208069462046FEF71EFFEE
:10227000208840F001002080BDE8FF8770B504464B
:10228000008820F480602080208840F40070208046
:10229000A44D44F620602D1FA34E286003E02A6859
:1022A000521E2A6008D031462046FFF749F8002820
:1022B000F5D0208AC0B270BD012070BD70B5044653
:1022C000008840F480702080964D44F620662D1FD3
:1022D0002E6003E02868401E28602AD0A08AC0072C
:1022E000F8D01BB1208840F4806020805AB921F0DA
:1022F000010020822E6003E02868401E286018D06C
:10230000A08A8007F8D5012A10D141F0010020826F
:102310002E60854E3E3E03E02868401E286008D0AF
:1023200031462046FFF70CF80028F5D0208B00201E
:1023300070BD012070BD7B4A44F62061121F116000
:1023400003E01168491E11600BD0818A0906F8D597
:10235000818A4907F5D5018841F400710180002088
:102360007047012070476F4B44F620621B1F1A60B4
:10237000828A120603D41A680AB1521EF7E7018254
:10238000704770B5164600230C4605461A46FFF7FF
:1023900095FF31462846FFF7E6FF2846FFF7CBFFBB
:1023A0000023012221462846FFF788FF2846BDE882
:1023B000704063E770B50546008840F4806028806F
:1023C000584C44F62060241F574E206003E02268DA
:1023D000521E226008D031462846FEF7B1FF002881
:1023E000F5D0288AC0B270BD012070BD2DE9F04142
:1023F0001D4616460C46804601230022069FFFF725
:102400005DFF31464046FFF7AEFF01231A462146E5
:102410004046FFF753FF00247E1E0AE0B4424046C8
:1024200002D1FFF72BFF01E0FFF7C4FF2855641C22
:10243000E4B2BC42F2D3BDE8F08110B501230446FA
:102440001A46FFF73BFF2046BDE8104016E72DE98E
:10245000F0411E461546012380461A46FFF72EFF1F
:102460000024771E0AE0BC42404602D1FFF706FF77
:1024700001E0FFF79FFF2855641CE4B2B442F2D399
:10248000D9E770B51D461646002304461A46FFF7E5
:1024900015FF31462046FFF766FF29462046FFF725
:1024A00062FF2046BDE8704045E72DE9F0411D463A
:1024B0001446002307461A46069EFFF7FFFE2146F4
:1024C0003846FFF750FF002405E0295D3846FFF746
:1024D0004AFF641CE4B2B442F7D33846BDE8F04189
:1024E00029E770B51546002304461A46FFF7E6FEB5
:1024F00029462046FFF737FF2046BDE870401AE71F
:10250000005C00400000024000080240001C024045
:1025100000580040000402400014024000540040F3
:102520004038024038000020400003002DE9F0410F
:102530001D461646002307461A46FFF7BFFE002435
:1025400005E0315D3846FFF70EFF641CE4B2AC4293
:10255000F7D33846BDE8F041EDE670B500240546F6
:1025600001232246FFF7AAFE00B901242846FFF7FF
:10257000E2FE204670BD00000288520601D4002011
:10258000704702899207FCD002891206F9D4818132
:1025900001898907FCD001890906F9D48089C0B274
:1025A0007047FF48002181604171704730B5FC4A97
:1025B0004FF41634002180B2A1F140539568891C74
:1025C000A142E852F8D330BDF5484FF4163181608E
:1025D00001214171704730B591B01E20009040F24A
:1025E0000D1001900420029040F24310039002204D
:1025F0000490FF2005900020069007900890099015
:102600004FF480600A9005200B9040F2E3100D908B
:10261000C01E0E904FF4A0700F904FF05040E14C50
:102620000C9069462046FEF778FFDF490C914FF485
:10263000C0610A91DB4D07210B9180356946284620
:10264000FEF76BFF0120FEF764FF01212046FEF735
:10265000C5FF01212846FEF7C1FF0120FEF759FF03
:102660000120FEF72EFF0120FEF71FFFFF2120466D
:10267000FFF754F800212846FFF750F80120FEF735
:1026800048FF11B030BDC94800B501688FB041F0B6
:1026900080610160C5481438016841F4000101609F
:1026A000002002900390009001900C900D900E90ED
:1026B00004220721C020FDF723FE4FF48030FDF7F0
:1026C000F0FE0120FDF725FE3D20FDF7B3FD0028BB
:1026D000FAD009200490012005901D2006900320C7
:1026E000079040F20D10089040F24310099040F21C
:1026F00017100A9040F247100B906846FEF776FEDE
:102700000FB000BDAA4B10B54FF400521A80A94A71
:10271000042414800146A848FFF72EFFA548801E18
:10272000048010BD01B5009801E0401E0090002813
:10273000FBD108BD9E4B10B59B1E4FF400521A8072
:102740009C4A0424148001469B48FFF715FF9948D2
:10275000801E048010BD10B5CA20FFF7D3FFC32030
:10276000FFF7E8FF0820FFF7E5FF5020FFF7E2FF43
:10277000CF20FFF7C7FF0020FFF7DCFFC120FFF7E6
:10278000D9FF3020FFF7D6FFED20FFF7BBFF642015
:10279000FFF7D0FF0320FFF7CDFF1220FFF7CAFF9E
:1027A0008120FFF7C7FFE820FFF7ACFF8520FFF788
:1027B000C1FF0020FFF7BEFF7820FFF7BBFFCB2053
:1027C000FFF7A0FF3920FFF7B5FF2C20FFF7B2FF7E
:1027D0000020FFF7AFFF3420FFF7ACFF0220FFF728
:1027E000A9FFF720FFF78EFF2020FFF7A3FFEA20C5
:1027F000FFF788FF0020FFF79DFF0020FFF79AFFFB
:10280000B120FFF77FFF0020FFF794FF1B20FFF7A9
:1028100091FFB620FFF776FF0A20FFF78BFFA2207B
:10282000FFF788FFC020FFF76DFF1020FFF782FF42
:10283000C120FFF767FF1020FFF77CFFC520FFF7DF
:1028400061FF4520FFF776FF1520FFF773FFC720D4
:10285000FFF758FF9020FFF76DFF3620FFF752FF7C
:10286000C820FFF767FFF220FFF74CFF0020FFF7BB
:1028700061FFB020FFF746FFC220FFF75BFFB620E5
:10288000FFF740FF0A20FFF755FFA720FFF752FF91
:102890002720FFF74FFF0420FFF74CFF2A20FFF708
:1028A00031FF0020FFF746FF0020FFF743FF002025
:1028B000FFF740FFEF20FFF73DFF2B20FFF722FF40
:1028C0000020FFF737FF0020FFF734FF0120FFF75C
:1028D00031FF3F20FFF72EFFF620FFF713FF012007
:1028E000FFF728FF0020FFF725FF0620FFF722FF54
:1028F0002C20FFF707FF314C2046FFF713FF26205F
:10290000FFF700FF0120FFF715FFE020FFF7FAFEB9
:102910000F20FFF70FFF2920FFF70CFF2420FFF700
:1029200009FF0C20FFF706FF0E20FFF703FF092029
:10293000FFF700FF4E20FFF7FDFE7820FFF7FAFEBD
:102940003C20FFF7F7FE0920FFF7F4FE1320FFF706
:10295000F1FE0520FFF7EEFE1720FFF7EBFE11203A
:10296000FFF7E8FE0020FFF7E5FEE120FFF7CAFED3
:102970000020FFF7DFFE1620FFF7DCFE1B20FFF72D
:10298000D9FE0420FFF7D6FE1120FFF7D3FE072063
:10299000FFF7D0FE3120FFF7CDFE332010E000001E
:1029A0000803002084680140005802D044380240E7
:1029B0001A0C02401A0802400050014040420F0029
:1029C000FFF7B8FE4220FFF7B5FE0520FFF7B2FE85
:1029D0000C20FFF7AFFE0A20FFF7ACFE2820FFF720
:1029E000A9FE2F20FFF7A6FE0F20FFF7A3FE112060
:1029F000FFF788FE2046FFF795FE2920FFF782FEAD
:102A0000BDE810402C207DE62DE9FC47012400257F
:102A1000DFF80C94CDE900542B462246610348466A
:102A2000FFF7F6F9FF4FCDE90054002301220421FE
:102A30003846FFF7EDF90E25032400231A4641F628
:102A40005801F948CDE90045FFF7F3F90926DFF809
:102A5000DC83CDE9004600231A4603214046FFF7F8
:102A6000E8F900231A464FF470614046CDE900456D
:102A7000FFF7DFF900231A464FF498613846CDE995
:102A80000045FFF7D6F900231A464FF489614846FE
:102A9000CDE90045FFF7CDF900231A463915E44882
:102AA000CDE90045FFF7C5F9CDE90045E14D00232B
:102AB0001A464FF40C612846FFF7BBF9CDE90046F2
:102AC00000231A464FF4A0512846FFF7B2F9BDE89B
:102AD000FC8710B5FFF798FFD24904201831088011
:102AE0000021D54800F03FFF00F0E4FCFFF733FE83
:102AF000FFF7C9FDFFF76FFDD0480021F0224180AC
:102B00000180CF4802804FF4A072428001220271FE
:102B100081734171FF22816002734173FFF741FDB0
:102B20004FF6FF742046FFF741FDFFF74DFD2046AD
:102B3000FFF73CFDBDE8104033E510B52920FFF755
:102B4000E1FDBDE810400120FEF7AFBC10B5282024
:102B5000FFF7D8FDBDE810400020FEF7A6BC70B519
:102B6000B74B1D8885421FD95C888C421CD99C7B41
:102B700093B2B34A4FF0504692685CB1012C0ED02C
:102B8000022C12D0C1F1EF0189B2C0EB001001EBB1
:102B9000001006E0C0F5963005FB110001E005FBD2
:102BA000010006EB4000135270BDA0F23F104042FE
:102BB00080B2EAE7A249F0224FF4A073887330B1E3
:102BC000012804D00B804A800020087170470A80D9
:102BD0004B800120F9E710B5994C9A48217BFEF70C
:102BE0009DFD9848617B8030FEF798FDBDE8104060
:102BF0000120FEF78EBC92490873ECE790494873B8
:102C0000E9E78F4810B5407940B1FFF7CAFCFF20D3
:102C1000FFF7F1FF0020BDE81040EFE7FFF7D4FC1D
:102C20000020FFF7E8FFFF20F5E71CB5002000902B
:102C300001904FF4A073F0224FF05041824802F00F
:102C4000E7FE1CBD1CB50020009001904FF4A0735E
:102C5000F0227D494FF0504002F0DAFE1CBD2DE914
:102C6000F047DFF8D8C1DDE908A8ACF800009146CC
:102C7000ACF802101A781E461044714A128890422D
:102C800006D970780844ACF802000020ACF80000C7
:102C9000002529E0A9F1200111FB005072680024F1
:102CA00032F810701CE007FA04F0000409D5BCF8F3
:102CB00002005246284481B2BCF80000204480B291
:102CC0000BE0B8F1000F0ADBBCF8020042462844D2
:102CD00081B2BCF80000204480B2FFF740FF641CC2
:102CE0003078A042DFD86D1C7078A842D2D83078F6
:102CF000BCF800100844ACF80000BDE8F0872DE9EE
:102D0000FC434E4DDDE9099828801F4614460646CF
:102D100069800BE00A2A0ED00D2A15D0CDE9009863
:102D20003B4669882888641CFFF799FF2278002AAF
:102D3000F0D1BDE8FC8368887978401C084468803D
:102D400060780D2802D02E80641CEFE700202880D8
:102D5000641CF9E730B54D7800241D8002E00B7843
:102D600023449CB210F8013B002BF8D1148030BDF5
:102D70002DE9F84F9446324A0C46054611881F4605
:102D8000481EA94200D885B2614501D81FFA80FCCF
:102D90005188481EA14200D884B2B94200D887B2F7
:102DA000654502D2ACEB050001E0A5EB0C000FFA83
:102DB00080F9BC4201D2381B00E0E01B0FFA80F81A
:102DC0004FF0FF30654501D2012100E0014600913E
:102DD000BC4200D2012083464846C14501DCC8F10F
:102DE000000000EBD070401006B2C9F1000A214685
:102DF00028460A9AFFF7B3FE654501D1BC4229D0A7
:102E00003046564505DDA0EB08010EB20099294475
:102E10008DB24045EBDA06EB090006B216E0000081
:102E2000000C024000080240000002400004024082
:102E300000140240001802400050014044000020ED
:102E40000803002084680140005802D004EB0B0006
:102E500084B2CCE7BDE8F88F2DE9F8411D46079C08
:102E600016460F4680460B460094FFF781FF424608
:102E70002B46394610460094FFF77AFF32462B4620
:102E8000394610460094FFF773FF2B463246194629
:102E900040460094FFF76CFFBDE8F8812DE9F04F44
:102EA0000746C2F101000FFA80FCC2EBC2304000BD
:102EB00098460E464FF0010A0FFA80F90025144695
:102EC000DDF824B05AE0BCF1000F09DB09F1020083
:102ED0000FFA80F9641E0CEB090024B20FFA80FC93
:102EE0000AF102000FFA80FA6D1C0CEB0A000FFACF
:102EF00080FC2DB25FEAC8700DD0701B81B2381B08
:102F000080B25A46FFF72BFE301B81B2781B80B28D
:102F10005A46FFF724FE5FEA88700DD5301B81B258
:102F2000781980B25A46FFF71AFE701B81B2381921
:102F300080B25A46FFF713FE5FEA48700DD530198C
:102F400081B2781980B25A46FFF709FE701981B232
:102F5000381980B25A46FFF702FE5FEA08700DD5B5
:102F6000301981B2781B80B25A46FFF7F8FD70190C
:102F700081B2381B80B25A46FFF7F1FDA542A2DBB1
:102F8000BDE8F08F2DE9FC4F8146DDE90B451E467B
:102F900090460F464A4570D0BE426ED02CB942468C
:102FA000394648460095FFF757FF4146C14501D9CC
:102FB000C8468946B74202D930463E460746A8EB86
:102FC000090000EBD070B4EB600F01DDC0F34F04DB
:102FD000F01B00EBD070B4EB600F01DDC0F34F04C9
:102FE000A8EB0400CDE9005082B209EB040B3B468C
:102FF0001FFA8BF01946FFF7BBFEA6EB040A274425
:103000004A461FFA8AF3B9B210460095FFF7B0FEA0
:1030100042461FFA8AF3B9B210460095FFF7A8FEA0
:103020000198334682B200951FFA8BF01946FFF7DC
:103030009FFE3EB20FFA8BF022B280460123144667
:1030400031460095FFF72AFF0198314607B20095F7
:10305000022322463846FFF721FF0FFA8AF6384648
:103060000423224631460095FFF718FF31464046BB
:10307000082322460095FFF711FFBDE8FC8F2DE9DC
:10308000FC4F0446C2F101000FFA80F90120DDF87F
:103090002C800190C2EBC23040009A460F460FFAD6
:1030A00080FB0026154671E0B9F1000F09DB0BF13A
:1030B00002000FFA80FB6D1E09EB0B002DB20FFA18
:1030C00080F9761C019836B2801C00B20190484409
:1030D0000FFA80F95FEACA7013D0781BA11B8AB27D
:1030E00083B281B2A0B2CDF80080FFF741FEB81BD9
:1030F000611B8AB283B281B2A0B2CDF80080FFF723
:1031000037FE5FEA8A7013D5781B83B281B2A019AB
:10311000A2B280B2CDF80080FFF72AFEB81B83B2BE
:1031200081B26019A2B280B2CDF80080FFF720FE14
:103130005FEA4A7013D57819A1198AB283B281B2B5
:10314000A0B2CDF80080FFF713FEB81983B281B2A8
:103150006019A2B280B2CDF80080FFF709FE5FEAE5
:103160000A7013D5781983B281B2A01BA2B280B2C3
:10317000CDF80080FFF7FCFDB819611B8AB283B25D
:1031800081B2A0B2CDF80080FFF7F2FDAE428BDB3A
:1031900073E72DE9F8411D4617460C468046079E09
:1031A00008E023463A46194640460096FFF7E0FD00
:1031B000641CA4B2AC42F4D96EE62DE9F84F814606
:1031C000DDE90A451E4690460F464A4566D0BE4296
:1031D00064D02CB94246394648460095FFF7D9FFDE
:1031E0004146C14501D9C8468946B74202D9304651
:1031F0003E460746A8EB090000EBD070B4EB600F29
:1032000001DDC0F34F04F01B00EBD070B4EB600F96
:1032100001DDC0F34F04A8EB040B09EB040A1FFA0D
:103220008BF21FFA8AF0334639460095FFF7B1FF5B
:10323000361B2744B3B21FFA8AF2B9B2484600954A
:10324000FFF7A7FFB3B2B9B21FFA8BF04246009561
:10325000FFF79FFF39B20FFA8AF022B20F4681467C
:10326000012314460095FFF70AFF0FFA8BF8394641
:103270000223224640460095FFF701FF761E36B234
:1032800040460423224631460095FFF7F8FE3146BA
:103290004846082322460095FFF7F1FEDAE52DE9BE
:1032A000FF4F0746C2F1010014460FFA80FCC2EB43
:1032B000C43040000FFA80F881B00E46081981B280
:1032C0004FF001090025B8B2049AFFF748FC301B03
:1032D00081B2B8B2049AFFF742FC3819B1B280B299
:1032E000049AFFF73CFC381BB1B280B259E0BCF144
:1032F000000F09DB08F102000FFA80F8641E0CEBE6
:10330000080024B20FFA80FC09F102000FFA80F9DC
:103310006D1C0CEB09002DB20FFA80FC781906EB3E
:10332000040A00901FFA8AF180B2049AFFF717FC92
:10333000A7EB050B1FFA8AF11FFA8BF0049AFFF72F
:103340000EFC0098A6EB040A1FFA8AF180B2049AD8
:10335000FFF705FC1FFA8AF11FFA8BF0049AFFF7BA
:10336000FEFB381906EB050A00901FFA8AF180B2BD
:10337000049AFFF7F4FBA7EB040B1FFA8AF11FFA7C
:103380008BF0049AFFF7EBFB0098A6EB050A1FFAF7
:103390008AF180B2049AFFF7E2FB1FFA8AF11FFA62
:1033A0008BF0049AFFF7DBFBA542A0DB05B0E7E555
:1033B0002DE9FE4F0746C2F1010014460FFA80F8CE
:1033C000C2EBC43040000FFA80FA0E46081981B2F1
:1033D00099464FF0010B0025B8B21A46FFF7BFFB24
:1033E000301B81B2B8B24A46FFF7B9FB38190190D9
:1033F000B1B280B24A46FFF7B2FBA7EB040CB1B200
:103400001FFA8CF04A46FFF7AAFB0198B3B282B2CA
:10341000CDF80090B1B21FFA8CF042E0B8F1000F85
:1034200009DB0AF102000FFA80FA641E08EB0A00B9
:1034300024B20FFA80F80BF102000FFA80FB6D1C2A
:1034400008EB0B002DB20FFA80F8781982B20290C7
:10345000781BCDE9009031198BB289B280B2FFF7A9
:1034600087FC0198311B82B202988BB2CDF8009094
:1034700089B280B2FFF77CFC381B82B20290381907
:10348000CDE9009071198BB289B280B2FFF770FC60
:103490000298711B82B201988BB2CDF8009089B26C
:1034A00080B2FFF765FCA542B8DBBDE8FE8F0000E7
:1034B000002070472DE9F04F97B0784C4FF6FF7A17
:1034C000CDF810A0207818B1012017B0BDE8F08F1A
:1034D00000F0A8F87248016841F0010101604FF066
:1034E00002080722CDE910824FF0040BCDF848B056
:1034F000CDE91328CDF854801020CDF85880CDE9BF
:1035000007B040204FF0010909900025CDE905954D
:103510004FF4C070CDE90A054FF40060CDE90C0509
:1035200080000E9010A80F904E4605A8FDF7F6FB00
:10353000CDE902650827CDE900675646CDF810A011
:1035400001E0401E049020210120FDF712FD10B182
:1035500004980028F5D16846FDF798FC514804907E
:10356000411E049101D30846FAE7CDE90087CDF862
:103570000890CDE90356C84601E0401E0490202182
:103580000120FDF7F6FC10B104980028F5D168463B
:10359000FDF77CFC0320CDE900070297CDE9035637
:1035A00001E0401E049020210120FDF7E2FC10B153
:1035B00004980028F5D16846FDF768FCCDE900B70E
:1035C00040F23120CDF80880CDE90306474601E0FE
:1035D000401E049020210120FDF7CBFC10B104987F
:1035E0000028F5D16846FDF751FC4FF42A70FDF72D
:1035F0006BFC049601E0401E049020210120FDF7A1
:10360000B8FC10B104980028F5D14FF05040452186
:1036100000F8501F0078452802D02570002054E79C
:10362000277051E77CB5FFF743FF002835D10C2503
:10363000032400231A4660211B48CDE90045FEF70C
:10364000F8FB00231A4601211848CDE90045FEF792
:10365000F0FB00231A464CF203711548CDE90045F2
:10366000FEF7E7FB00231A464FF683711148CDE9B8
:103670000045FEF7DEFB00231A464FF63F010E48D9
:10368000CDE90045FEF7D5FB00231A4648F2331179
:103690000A48CDE90045FEF7CCFB7CBD4800002080
:1036A00038380240F0FE0F010004024000080240DA
:1036B000000C0240001002400014024000180240BA
:1036C00070471CB530B1032803D10521FE48FFF730
:1036D000F7FF1CBD05210320CDE9000100231A4698
:1036E0004FF4E041F948FEF7A4FB1CBD7CB505256D
:1036F000F74E032440B101280CD0032803D1052143
:10370000F448FFF7DDFF7CBD00231A464FF46071DB
:1037100030460CE000231A464FF400613046CDE9F4
:103720000045FEF786FB0023EB481A46C021CDE991
:103730000045FEF77EFB7CBD1CB50522E74C03214E
:1037400040B101280CD0032803D10521E448FFF73C
:10375000B7FF1CBDCDE9001200231A46642105E025
:10376000CDE9001200231A464FF4E0412046FEF74F
:1037700060FB1CBD1CB50622032140B101280DD001
:10378000032803D10621D748FFF79AFF1CBDCDE9D6
:10379000001200231A463821D34806E0CDE9001272
:1037A00000231A464FF4E051D048FEF742FB1CBDFF
:1037B0007CB50525CC4E032450B1012816D0022833
:1037C0001AD0032803D10521C948FFF779FF7CBD32
:1037D00000231A464FF480613046CDE90045FEF7DC
:1037E00028FB00231A460C21C04809E000231A4692
:1037F0004FF46041304603E00023BE481A460D21D5
:10380000CDE90045FEF715FB7CBD1CB50522032163
:1038100040B101280DD0032803D10521B648FFF798
:103820004FFF1CBDCDE9001200231A46E021B3482A
:1038300005E0CDE9001200231A463821AA48FEF718
:10384000F8FA1CBD2DE9FF4F85B00446DDE912BA38
:10385000994616466846FEF7A8F8A748A84F0025DF
:10386000844208D1386840F4805038600698FFF7E9
:10387000CCFFADF804509E48DFF884828442A8F162
:1038800004080AD1D8F8001041F48041C8F80010AB
:103890000698FFF78DFFADF80450924884420AD194
:1038A000D8F8001041F40041C8F800100698FFF75E
:1038B00061FFADF804508A48844208D1386840F46A
:1038C000005038600698FFF737FFADF80450814884
:1038D000844208D1386840F4801038600698FFF7B9
:1038E00005FFADF804507848844208D1386840F4A8
:1038F000001038600698FFF7E4FEADF80450ADF80C
:103900000C90ADF800504FF40070ADF80EA0ADF87B
:1039100002B0ADF80A0046B10121012E08D0022004
:10392000022E08D0032E0BD00EE0ADF8065004E0B6
:10393000ADF8065006E0ADF80600ADF8085003E01B
:10394000ADF80600ADF80810208820F04000208077
:1039500069462046FDF7AAFF208840F040002080FD
:1039600009B0BDE8F08F2DE9FC410446624800250E
:103970000F464FF48276844205D1CDE900652023BD
:103980000022FFF75FFF5A48844206D1CDE9006567
:10399000202300223946FFF755FF5248844206D1C2
:1039A000CDE90065202300223946FFF74BFF4C4844
:1039B000844206D1CDE90065202300223946FFF775
:1039C00041FF4448844206D1CDE90065202300220E
:1039D0003946FFF737FF3C48844206D1CDE9006500
:1039E000202300223946FFF72DFFBDE8FC812DE999
:1039F000FC41044640480025174688464FF482762D
:103A0000844204D1CDE900652023FFF71BFF38482D
:103A1000844206D1CDE9006520233A464146FFF7AE
:103A200011FF3048844206D1CDE9006520233A4693
:103A30004146FFF707FF2A48844206D1CDE90065D9
:103A400020233A464146FFF7FDFE2248844206D134
:103A5000CDE9006520233A464146FFF7F3FE1A48B8
:103A60008442C2D1CDE9006520233A464146FFF7A2
:103A7000E9FEBAE72DE9FC470446DDE90A651E4880
:103A80001F4690468946844205D1CDE9006513461C
:103A90003A46FFF7D7FE1648844206D1CDE90065C5
:103AA00043463A464946FFF7CDFE0E48844206D1CA
:103AB000CDE9006543463A464946FFF7C3FE08484C
:103AC000844225D143461DE00054014000180240C5
:103AD0000014024000500140001C0240001002404F
:103AE00000340140003C0040000402400008024055
:103AF0000038004000200240003001400000024039
:103B000044380240CDE900653A464946FFF79AFE3F
:103B10007748844206D1CDE9006543463A46494696
:103B2000FFF790FE7348844206D1CDE90065434615
:103B30003A464946FFF786FEBDE8FC877FB50D0093
:103B4000044620D06846FCF723FC6B48844208D02A
:103B50006A48844205D06648844202D0654884425F
:103B600001D1039900E0029900200124421C04FACB
:103B700002F3B1FBF3F3AB4202D8C00004B070BD56
:103B8000D0B20828F2D33820F8E702880388C2F3BD
:103B9000C02223F0400303800129018808D021F4CA
:103BA00000610180018841F04001018010467047AA
:103BB00041F40061F5E730B50488640614D5048942
:103BC000A407FCD004892406F9D400240AE00D5D82
:103BD00085810589AD07FCD005892D06F9D4858935
:103BE0001555641C9C42F2D330BD10B503885B06AA
:103BF00013D503899B07FCD003891B06F9D4002346
:103C000009E0CC5C84810489A407FCD004892406E3
:103C1000F9D484895B1C9342F3D310BD30B504887A
:103C2000640613D50489A407FCD004892406F9D4BA
:103C3000002409E082810589AD07FCD005892D06A5
:103C4000F9D485890D55641C9C42F3D330BD30B541
:103C50000488640616D50489A407FCD004892406C8
:103C6000F9D400240CE031F8145085810589AD07A2
:103C7000FCD005892D06F9D4858922F81450641CDE
:103C80009C42F0D330BD10B503885B0614D5038980
:103C90009B07FCD003891B06F9D400230AE031F806
:103CA000134084810489A407FCD004892406F9D434
:103CB00084895B1C9342F2D310BD30B5048864063E
:103CC00014D50489A407FCD004892406F9D400245F
:103CD0000AE082810589AD07FCD005892D06F9D45B
:103CE000858921F81450641C9C42F2D330BD000039
:103CF00000500140005401400030014000340140B8
:103D000002468221C348FEF73CBB1CB5FDF75AFFB3
:103D1000C04CC14A00212046FEF75DFA022303226F
:103D200082212046FEF7ADFB052000F05CF9002360
:103D3000032282212046FEF7A4FB022000F053F963
:103D40000221009101AB002282212046FEF74EFBAA
:103D5000BDF8040041BAA1F50062113A01D0032078
:103D60001CBD0223032282212046FEF78AFB052088
:103D700000F039F90023032282212046FEF781FB5F
:103D8000022000F030F90420FFF7BAFF20F0010311
:103D9000042282212046FEF774FB0420FFF7B0FFC7
:103DA00020F00203042282212046FEF76AFB492309
:103DB000202282212046FEF764FB022000F013F946
:103DC0000123212282212046FEF75BFB1720FFF70B
:103DD00097FF40F01E03172282212046FEF751FB79
:103DE0009A23412282212046FEF74BFB01234A22DF
:103DF00082212046FEF745FB01234B2282212046EB
:103E0000FEF73FFB00234B2282212046FEF739FBC1
:103E10000123562282212046FEF733FB012358223C
:103E200082212046FEF72DFB0323402282212046DB
:103E3000FEF727FBFF230B2282212046FEF721FB02
:103E4000022000F0D0F802201CBD70B504464F20BF
:103E5000FFF756FF60F30F255020FFF751FF60F387
:103E60000705A5F5B47528B20B2190FBF1F001B25E
:103E7000002901DC002104E0B1F5A07F01DB40F264
:103E80003F11A14201DD081B00E0601A00B20428C6
:103E900001DD88B270BD204670BD70B504464D206E
:103EA000FFF72EFF60F30F254E20FFF729FF60F389
:103EB000070529B240F6B830814202DCA1F63C7118
:103EC00001E0A1F6D861484200B20F2190FBF1F069
:103ED00001B2EF2901DDEF2102E0002900DA002123
:103EE000A14201DD081B00E0601A00B2042801DDD8
:103EF00088B270BD204670BD70B50446007960710F
:103F00004020FFF7FDFE434E00064FF001050DD4A3
:103F1000257101234B2282213046FEF7B2FA00239D
:103F20004B2282213046FEF7ACFA5AE0A07930B13C
:103F3000012811D0022818D0032821D02AE0208897
:103F4000FFF7ABFFC0F1EF0020806088FFF77DFF37
:103F5000A0F23F10404206E02088FFF79EFF20803D
:103F60006088FFF772FF608014E06088FFF795FFBC
:103F700060802088FFF769FFA0F23F10404208E010
:103F80002088FFF78AFFC0F1EF0060802088FFF7EC
:103F90005CFF208001234B2282213046FEF771FA1C
:103FA00000234B2282213046FEF76BFAA0790021D4
:103FB0004FF49F7260B101280AD02088401E9042C1
:103FC0000ED2608860B1EF280AD22171002070BD46
:103FD0002088401EEE2803D2608808B19042F4D9B0
:103FE0002571012070BD0D4908B50A680092EFF3F4
:103FF000058242B14FF0E021002809D00A69D203BE
:10400000FAD5401EF8E70A68009BD21A8242FAD31A
:1040100008BD0000005C0040A086010014000020E4
:104020004FF4C8310E4802F075BA0E480068704768
:104030000C4908B50A680092EFF3058242B14FF0CF
:10404000E021002809D00A69D203FAD5401EF8E71A
:104050000A68009BD21A8242FAD308BD70477047A3
:104060001803002014000020F0B5FA4C0125059E2D
:104070002560F94C4FF481372760E060E163002050
:1040800020612064E261636305EB064060642068A0
:1040900040F0010020602068C007FCD1F0BD70B581
:1040A000EC4C01234FF07F45236008C803F47F44A4
:1040B000DEB244EA0644C3F30746344325EA030369
:1040C0001C4310C1521EF0D170BD38B500240094BD
:1040D00000F01DFD38BD38B50D46002401462846C8
:1040E000009400F026FD38BD38B50024009400F09F
:1040F0000EFD38BD38B50D46002401462846009413
:1041000000F017FD38BD38B50224009400F0FFFC24
:1041100038BD38B50D46022401462846009400F00B
:1041200008FD38BD38B50324009400F0F0FC38BD1C
:1041300038B50D46032401462846009400F0F9FCEA
:1041400038BD38B50424009400F0E1FC38BD38B522
:104150000D46042401462846009400F0EAFC38BDD0
:10416000BC4A0121116020B9BC48BD4900688842A1
:1041700001D100207047BB49884201D1012070471E
:10418000B949884201D102207047B849884201D11B
:1041900003207047B649884201D104207047B549D1
:1041A000884201D105207047B349884201D10620D9
:1041B0007047B249884201D107207047FEE71EB51B
:1041C000A44C01232360FF23B3EB116F28D080F0B0
:1041D0007F40009081F07F4001909F48A849016096
:1041E000C0F80CD001A9416102A9C1634FF480312C
:1041F00041EA0261C161C2F1FF0109064162002189
:1042000041634FF001114164016841F00101016017
:1042100000E030BF0168C907FBD1029880F07F4001
:104220001EBD2DE9F0418B4E012504463560C8883E
:104230000F46082808D12521104604F05BFE18B16E
:10424000F86808B1007920B12046BDE8F04104F0DB
:10425000C8BE8C492268A068FFF721FF7E482178FC
:10426000884A3560C262491EC9B205EB0121C161AD
:10427000C16941F02001C1611046BDE8F08170B50F
:104280001C46034673480E4601210160154622462E
:104290007D49184600F061FC22467C49304600F01A
:1042A0005CFC2346774A7949774800F061FC224656
:1042B0002946BDE87040734800F04FBC2DE9FF5F10
:1042C000DFF890B14FF0010A109C16460F46804669
:1042D0000025CBF800A040E022466B49404600F0A4
:1042E0003CFC22466949384600F037FC5A4812998E
:1042F000654B664ADFF88C91DFF884C1CBF800A0EB
:10430000C0F800C0C3604261C0F83C904FF48032F6
:1043100042EA0162C261C1F1FF0109064162002166
:1043200041630AEB04414164016841F0010101600D
:104330000168C907FCD122463146524800F00DFC05
:10434000039821180E9808EB8108204407EB80079A
:104350000F986D1C204406EB800611988542BBD354
:10436000BDE8FF9F2DE9F0410E463A490446012081
:1043700008601546204604F025FE0746204604F056
:104380002DFE36492B1D383105EB000C51F8240069
:1043900006F11E023744456805F4704545601D3737
:1043A00042EA074051F82420506051F82400826806
:1043B00002F47042826051F824100CF1030C43EABD
:1043C0000C408860BDE8F0410220FDF7A2B8F0B4CF
:1043D000204C0123214E23600B061C0A3836C1F302
:1043E0000723C1F3074556F820100F6C00270F6410
:1043F00044EA032456F820002C4344EA026404648F
:10440000F0BC0120FDF785B82DE9F0470E4608A95C
:10441000154691E880030F4A01211C461160FFF701
:104420009FFE0D494FF400720A60CE60CD63C1F863
:104430001080C1F84090C861384664F31F4048645A
:10444000086840F0010008600868C007FCD1BDE8BA
:10445000F08700002800002000B002404C0000203F
:1044600054FD000874FD00083CFD00080CFD000828
:1044700024FD0008DCFC0008C4FC0008F4FC000873
:10448000000202001893012018A2012018B1012097
:104490002DE9F04391B004464021684601F01FFD2C
:1044A000DFF800940126022CC9F800607ED2FE4D90
:1044B000286AC8B9012108462E62FDF795F9002146
:1044C000582000F014FB582000F006FB01214802A0
:1044D000FCF7F6F900215A2000F009FB5A2000F001
:1044E000FBFAF24902208860204604F06BFD686008
:1044F000204604F073FD1E21A86000916968C01C6D
:104500001D3101910421CDE902102046FFF728FE5C
:10451000A8610490FF204FF00008CDE90508CDF810
:104520001C80CDF82080CDF824806F682046C9F823
:10453000006004F0CBFC7843C01DC11700EB517044
:10454000C0104FF4C061E8600A9107210B91C11CB3
:10455000CDE90D10A8680F90D548D34E694650F8A4
:10456000240038360C9056F82400FCF7D6FF20467D
:1045700004F0ACFC2861082805DC56F82400012171
:1045800000F014FB1DE0C848CA4950F824008842D6
:1045900017D156F82400012100F008FBC64F404611
:1045A000C5F8148079688847E86100E011E00146A9
:1045B00020466A69FFF70BFF6869401C6861FF28A5
:1045C000F0DD56F824000121FDF708F80120FCF782
:1045D000A0FF11B0BDE8F083FEB50E46B149044618
:1045E000012008601546204600F0EDFAB049AE4BB8
:1045F00051F82420303300FB062100FB0522002067
:1046000053F82430CDE900300290A7482C3050F800
:1046100024302046FFF7F8FEFEBD2DE9FE4F0F4681
:10462000DDE90C959F4904460120DDF838A00860BB
:104630001E469046204600F0C6FA9D4951F82420B7
:104640009949283151F8241000FB012296489649D7
:104650002C30343150F8240051F8243008FB007716
:1046600009FB006607FB032106FB03220026401B13
:10467000CDF800A0CDE901062B462046FFF7C4FE89
:10468000BDE8FE8F2DE9F05FDFF818A2DDE90A6BC7
:104690004FF001091D4690460F460446CAF80090A7
:1046A00002F03CFC012832D0ED1BA6EB08062046A8
:1046B0006D1C761C00F087FA7B4A7D49283251F840
:1046C000241052F8242000FB021277482C3050F8B6
:1046D0002410083008FB017350F82400D84603FB6F
:1046E000002720464C1BCAF80090FFF739FD6F49A0
:1046F000724A0A60C1F83880CF630C64486365F37E
:104700001F464E64086840F00100086012E0002275
:104710001921204604F078FE33462A4641463846A1
:1047200004F0A8FB2046BDE8F05F654A192104F0BB
:104730006BBE30BF0868C007FBD1BDE8F09F2DE914
:10474000FE430F46DDE90A58564904460120086039
:1047500099461646204600F036FA534A5449283204
:10476000514B51F8241052F82420343300FB02112D
:104770004D4853F824302C3050F82400CDF80080F8
:1047800006FB007202FB0312C5F1F001401BCDE9EC
:1047900001102B4649462046FFF736FEBDE8FE8352
:1047A0002DE9F05F0E460AA9994691E8100C1546CE
:1047B000074600F008FA3C4A3D4928323A4B51F886
:1047C000271052F82720343300FB0211364853F8E3
:1047D00027302C3050F8270005FB006202FB03183D
:1047E000051BABEB04063846FFF7BAFCDFF8B4C094
:1047F0000121CCF800102D494FF4813CC1F800C0D4
:10480000C1F80C90C1F83C800E610D640522CA61AC
:1048100048634AEA04404864086840F001000860C0
:104820000868C007FCD188E72049022088607047EB
:1048300070B52449012008601B4D0024243555F82B
:104840002400002842DB1849174A2C31303251F835
:10485000241052F824205143134A343252F82420B1
:104860005043134A52F8242001FB00210E4A3832EB
:1048700052F82400836A0023836252F82400816284
:104880000120FCF746FE55F82410204602F068FF90
:10489000054955F82400283141F824004FF0FF3035
:1048A00012E00000280000204C00002000B0024070
:1048B000BCFC0008F4FC0008DCFC0008000203005B
:1048C000854600083C68014045F82400641C012C22
:1048D000B5DB70BD2DE9FC411546C34F04460026EB
:1048E0000122C24B07F10C000F2971D2DFE801F061
:1048F0007F087F0C2329813C382D4F7F5D711D007F
:104900002046FFF7C5FD74E057F824206968B84BCE
:104910005143B54A53F82430083250F8240052F875
:10492000242001FB023181625FE0AF492868083929
:1049300041F824005DE02A7920462968FFF747FD09
:1049400057E00120FCF7B1FD53E0296801B10121D6
:1049500050F82400FCF742FE0120FCF7DAFD48E0A5
:10496000D5E9001220460FE06A4601A9204602F070
:10497000EDFA9D49286847F82400091D686841F848
:104980002400DDE900212046FFF7ECFC31E02D6832
:104990001A6050F824104A6922F0FF024A6150F868
:1049A0002400C5F1FF014161D6E750F824002968D1
:1049B00001B101211A600029016802D041F0020111
:1049C00001E021F0020101608A490220086010E044
:1049D0000DE0296850F82400C1F3074201F47F4339
:1049E0001A43C9B242EA0141C1600220B5E74FF063
:1049F000FF363046BDE8FC812DE9F04100231A4620
:104A00007D497E4801F0D6FF4FF4A0742246F02184
:104A1000002004F041FD2246F021002004F066FD54
:104A20000024714E651E083E714F06F1100846F8CD
:104A3000245057F82410204604F044FD204604F08A
:104A400045FAC11048F824106D4A2121204604F08F
:104A5000DBFC6C4A2321204604F0D6FC2046FFF7FD
:104A60007FFB042809D8684A1921204604F0CCFCB1
:104A7000664A2521204604F0C7FC2046FFF770FB5C
:104A8000022804D1624A2421204604F0BDFC614979
:104A9000614801F0A7FB6149614801F0AFFB614942
:104AA000614801F0A5FB6149614801F0B3FB614930
:104AB000614801F0A9FB614802F088FF604802F0FC
:104AC0008BFF604802F08EFF5F4802F091FF641C8C
:104AD000012CACDBBDE8F08100F01F020121914008
:104AE0004009800000F1E020C0F80011704709077C
:104AF000090E002806DA00F00F0000F1E02080F82F
:104B0000141D704700F1E02080F800147047F8B5DC
:104B10000F4636490125069E0D6014464B49FFF7A6
:104B2000BEFA33460022394648480094FFF79CFA03
:104B3000F8BDF8B50D462D4914460122069E0A60BF
:104B40000023324641490094FFF78EFA2246294657
:104B5000BDE8F8403D48FFF7A2BA10B5234C012349
:104B6000236008C8521E83F07F4308C1F9D110BDED
:104B700070B51E4C0125364E2560364C2660E0602F
:104B80006161E26300202061A0612064E0616062F5
:104B9000606305EB03406064206840F00100206022
:104BA00000E030BF2068C007FBD170BD002901685C
:104BB00002D041F0100101E021F0100101600D4927
:104BC000022008607047094A01211160064A06491F
:104BD000121D51F8201052F820205143024A083289
:104BE00052F8200048437047780000202800002039
:104BF000BCFC0008246801403CFD000898FD00084A
:104C0000D94500081B46000885460008A147000852
:104C10003F470008314100082541000813410008C2
:104C2000074100084F41000843410008F5400008D3
:104C3000E9400008D7400008CB4000087F42000848
:104C400023420008BF410008BD420008189301201C
:104C50000002020000B0024070B5FE4C2068C007A0
:104C6000FCD10225A560FC48016841F40001016007
:104C7000016821F400010160F848FBF701FD20689C
:104C800040F0010020602068C007FCD1A56070BD25
:104C900030B5F24C2834A56824692C440444EF480C
:104CA00084611C3080E80E0030BD2DE9F041EB4FEF
:104CB000044628371546387E0E4601286DD1B8883F
:104CC000A0426ADDF888B04267DD002D65D0002C77
:104CD00002DA101985B20024002E00DA0026B98805
:104CE0006019884202DBB888001B85B2DB480221CC
:104CF00041604FF4403101600021416103F01F0128
:104D00008160C3F34511C160C3F3C4210161787EA2
:104D100001280AD1B87E398806FB01414843398809
:104D20002B46491B0122FFF7B3FF787E80B93988F3
:104D300078883A88801B401E00FB0210001BB97E59
:104D4000401B484339882B46491B0122FFF7A0FF2F
:104D5000787E03280DD138883988801B401E01FBDE
:104D60000400B97E4843398801232A46491EFFF7CB
:104D70008FFF787E02280DD138887988491B091B5E
:104D800000FB0160B97E4843398801232A46491E49
:104D9000FFF77EFFBDE8F0415EE7BDE8F081AF4878
:104DA00010B528304FF05041816000230361F0229C
:104DB00002804FF4A07141804FF496344461C28068
:104DC0008180437602218176817E6143C160A24960
:104DD00020310A6842F400020A600121017610BD08
:104DE0009E492831CA68401E42430A61704770B527
:104DF0009A4B28335C7E92B2012C14D05C7EE4B1D5
:104E00005C7E032C29D05C7E022C0BD19C681D6932
:104E10002C445D88281A1D88401E00FB0510997ED1
:104E20004843225270BD9C681D6925449C7E1B88A6
:104E300001FB030044432A5370BD9C681D6925444F
:104E40001C88241A5888401A1988401E641E00FBCA
:104E50000140997E48432A5270BD9C681D692C44CC
:104E60001D881E8800FB0650401A997E401ED7E719
:104E70007A4A30B52832537E012B09D0537E8BB14C
:104E8000537E032B1BD0537E022B23D0002030BD3A
:104E9000936814691C44937E128801FB020043430B
:104EA000E05A30BD9368146923441488201A54884A
:104EB000611A1488401E491E01FB040013E0936828
:104EC000146923441488158800FB0540401A917E1C
:104ED000401E09E09368146923445488201A1488FA
:104EE000401E00FB0410917E4843185A30BD032831
:104EF0000AD85A49283148764FF4A072F02320B1DD
:104F0000012802D0CB808A807047CA808B8070478E
:104F1000524902224A604FF440320A600F224A612D
:104F200000F01F028A60C0F34512C0F3C420C1E93B
:104F3000032001F12800826803691A448A61002273
:104F4000CA6142880A620088486285E62DE9F0411C
:104F5000DFF808C10F460CF1280C04469CF8180035
:104F600006991D46164601287AD1BCF80400A042D5
:104F700076D9BCF80600B84272D9BCF80620781978
:104F8000904203D3BCF80600C01B85B2BCF80420D5
:104F9000A019904203D3BCF80400001B86B22F482E
:104FA000022242604FF4403202600F22426101F05F
:104FB0001F028260C1F34512C1F3C421C0E903217D
:104FC0009CF8190001280DD19CF81A00BCF80010BB
:104FD00007FB01414843BCF800103346891B2A46B1
:104FE000FFF756FE9CF81900A8B9BCF80000BCF801
:104FF0000210BCF80020491BC91B01FB0200001B6A
:105000009CF81A10801B4843BCF800103346891BDB
:105010002A46FFF73DFE9CF81900032811D1BCF881
:105020000000BCF80010C01B401B01FB04009CF8F2
:105030001A104843BCF800102B46491B3246FFF7B4
:1050400027FE9CF81900022819D1BCF80000BCF812
:10505000021006E000B002401038024018C00120E3
:1050600010E0891B091B00FB01409CF81A10484303
:10507000BCF800102B46491B3246FFF709FEBDE87D
:10508000F041E9E589E62DE9F04115460C46064672
:10509000FE4F387E01286CD1B888B04269DDF888AF
:1050A000A04266DD002D64D0002E00DA0026002C20
:1050B00000DA0024F9886019884202DBF888001BB6
:1050C00085B2F2480221283841604FF44031016036
:1050D0000F21416103F01F018160C3F34511C160DD
:1050E000C3F3C4210161787E01280AD1B87E3988D2
:1050F00004FB01614843398801232A46491EFFF712
:10510000C7FD787E80B9388879883A88491B091BA1
:1051100001FB0200B97E801B401E484339880123F1
:105120002A46491EFFF7B4FD787E03280DD1388842
:105130003988001B401B01FB0600B97E48433988B3
:105140002B46491B0122FFF7A3FD787E02280DD1D3
:1051500039887888801B401E01FB0040B97E484397
:1051600039882B46491B0122FFF792FDBDE8F0412B
:1051700072E512E62DE9F04799460E460746DDF83E
:1051800020A0904609B200B253464A460D46044656
:10519000FFF779FF07EB0800401E00B253464A466E
:1051A0002946FFF770FF5346424629462046FFF73F
:1051B0007CFD06EB090001B2534642462046BDE89D
:1051C000F04772E52DE9F04F0746C2F101000FFAF2
:1051D00080FCC2EBC230400098460E464FF0010AF8
:1051E0000FFA80F900251446DDF824B05AE0BCF12E
:1051F000000F09DB09F102000FFA80F9641E0CEBC5
:10520000090024B20FFA80FC0AF102000FFA80FABA
:105210006D1C0CEB0A000FFA80FC2DB25FEAC8701F
:105220000DD0701B81B2381B80B25A46FFF7DFFDEC
:10523000301B81B2781B80B25A46FFF7D8FD5FEA77
:1052400088700DD5301B81B2781980B25A46FFF7AD
:10525000CEFD701B81B2381980B25A46FFF7C7FDE8
:105260005FEA48700DD5301981B2781980B25A467C
:10527000FFF7BDFD701981B2381980B25A46FFF7A9
:10528000B6FD5FEA08700DD5301981B2781B80B287
:105290005A46FFF7ACFD701981B2381B80B25A46EE
:1052A000FFF7A5FDA542A2DBBDE8F08F2DE9FC5F6D
:1052B0001E46DDE90C4517008846824670D0002E58
:1052C0006ED04FF0FF30B4EB570F02D900EB57010F
:1052D0008CB2B4EB560F02D900EB560084B2B4EB9B
:1052E000570F5FD8B4EB560F5CD8002C5AD06042F1
:1052F00007EB400B00900AEB040000B21FFA8BF2A0
:1053000081462B460FFA88F1FFF7CFFC08EB060029
:105310000190401E01B21FFA8BF248462B46FFF760
:10532000C4FC00982B4606EB400B08EB040006B2C9
:105330001FFA8BF231460FFA8AF0FFF7A4FE0AEB50
:105340000708A8F101001FFA8BF2314600B22B4684
:10535000FFF799FE22B231464846012317460095D1
:10536000FFF730FFA8EB0400401E0FFA80F831462B
:1053700002233A4640460095FFF724FF0198009526
:10538000001B401E04B2404604233A462146FFF764
:1053900019FF2146484608233A460095FFF712FFB9
:1053A000BDE8FC9F414650460095FFF7E3FEF7E756
:1053B0002DE9FE4F0027141A002C00DC841A0FFA86
:1053C00084F85C1A002C00DCCC1A0FFA84FC064628
:1053D0000D464FF0FF34B24203DB012001900090F4
:1053E00001E001940094AB4203DB4FF0010BDA467D
:1053F00001E0A346DA46E0454FF0000008DB8246B4
:10540000019008EBD870C1464410CDF808C026E0E2
:105410000090E1460CEBDC70CDF808804FF0000BFB
:105420004410C8461BE0012229B230B20C9BFFF7A2
:105430003CFC0298204404B24C4508DBA4EB090074
:1054400004B20198304406B205EB0B0005B2009897
:105450007F1C304406B205EB0A0005B23FB2474557
:10546000E1DDBDE8FE8F2DE9FC5F0646C2F10100DB
:105470000FFA80F901200190C2EBC23040009A4639
:105480000F46DDF830800FFA80FB01E040C00120BC
:105490000025144671E0B9F1000F09DB0BF10200A1
:1054A0000FFA80FB641E09EB0B0024B20FFA80F99F
:1054B0006D1C01982DB2801C00B2019048440FFA77
:1054C00080F95FEACA7013D0381B01B2701B02B2B8
:1054D0000B463046CDF80080FFF76AFF781B01B21B
:1054E000301B02B20B463046CDF80080FFF760FF5C
:1054F0005FEA8A7013D5381B01B2701900B20B46EF
:105500003246CDF80080FFF753FF781B01B2301907
:1055100000B20B463246CDF80080FFF749FF5FEA44
:105520004A7013D5381901B2701902B20B463046D1
:10553000CDF80080FFF73CFF781901B2301900B2B6
:105540000B463246CDF80080FFF732FF5FEA0A7063
:1055500013D5381901B2701B00B20B463246CDF894
:105560000080FFF725FF781901B2301B02B20B460D
:105570003046CDF80080FFF71BFFA5428BDB0FE71D
:105580002DE9FC5F1E46DDE90C4517008A46814681
:1055900067D04FF0FF30B4EB570F02D900EB570143
:1055A0008CB2B4EB560F02D900EB560084B2B4EBC8
:1055B000570F57D8B4EB560F54D8E4B3C4F10008D2
:1055C00007EB480082B209EB0400CDE9005080B23D
:1055D0005146FFF7BBFC06EB480B0AEB04081FFA29
:1055E0008BF31FFA88F1224648460095FFF7AEFC80
:1055F0001FFA8BF309EB0700A0EB040B1FFA88F1ED
:105600001FFA8BF022460095FFF7A0FC01980FFAD5
:1056100088F100B222B288460095814601231746E0
:10562000FFF721FFABF10100414600B280460223A3
:105630003A46009500E015E0FFF715FF0AEB06007B
:10564000001B401E04B2404604233A462146009502
:10565000FFF709FF2146484608233A460095FFF721
:1056600002FF9DE6514648460095FFF76FFC97E61E
:10567000F8B516460D4604460CE034F8020B34F833
:10568000021B0096B4F90230B4F9002009B200B24E
:10569000FFF78EFE6D1E2D042D0CEED1F8BD2DE909
:1056A000FF4F0746C2F1010091460FFA80F8C2EBA6
:1056B000C93040000FFA80FA83B00E4601EB0900B2
:1056C00001B24FF0010B14B238B200255A46069BC6
:1056D0000090FFF7D8FCA6EB090001B20122069B5F
:1056E0000098FFF7D0FC07EB090031B200B20122AD
:1056F000069B0091FFF7C7FCA7EB090000B201224F
:10570000069B009954E0B8F1000F09DB0AF1020092
:105710000FFA80FA641E08EB0A0024B20FFA80F830
:105720000BF102000FFA80FB08EB0B000FFA80F878
:1057300030196D1C01B22DB2781900B20190894662
:105740000122069BFFF79FFC781B494600B2814669
:105750000122069BFFF797FC301B01B2009101224A
:10576000069B0198FFF78FFC48460122069B009993
:10577000FFF789FC701901B2381900B2019089460F
:105780000122069BFFF77FFC381B00B249460090C0
:105790000122069BFFF777FC701B01B289460122AC
:1057A000069B0198FFF76FFC49460122069B009873
:1057B000FFF769FCA542A6DB07B075E52DE9FF4FB1
:1057C0008146C2F10100904607B2C2EBC8304000EA
:1057D0000FFA80FA83B00E4601EB080001B24FF0D9
:1057E000010B14B20FFA89F000255A46069B00906F
:1057F000FFF749FCA6EB080001B20122069B0098C6
:10580000FFF741FC09EB080031B200B20122069B10
:105810000091FFF738FCA9EB080000B201900122CB
:10582000069B0099FFF72FFC4FF6FF7101EA480233
:10583000DDE90010069B3BE0002F08DB0AF10200C7
:105840000FFA80FA641E07EB0A0024B207B20BF1CC
:1058500002000FFA80FB07EB0B006D1C07B22DB2A4
:105860004FF6FF7000EA4502301901B2A9EB0500BE
:1058700000B280460092069BFFF717FA301B01B278
:105880004046069B009AFFF710FA4FF6FF7000EAB9
:105890004402701901B2A9EB040000B280460092E4
:1058A000069BFFF702FA701B01B24046069B009A66
:1058B000FFF7FBF9A542BFDB7EE72DE9F84F1BB2EE
:1058C000DDE90B54DDF828B012B209B200B29A46F5
:1058D0009146884607460094FFF76AFD2BB20FFAFF
:1058E0008BF21E461546514648460094FFF760FD70
:1058F00043463A46314628460094FFF759FDBDE835
:10590000F88F2DE9FE4F84460027A2EB0C000C46D1
:10591000002801DCACEB020001B2181B002800DCFF
:10592000E01A00B20FFA8CF625B24FF0FF3862454C
:1059300003D301229346019202E0C346CDF80480CE
:10594000A34203D34FF0010AD14601E0C246D1463B
:1059500081424FF0000207DB9146019201EBD172C8
:1059600054108846029028E0934600EBD0724FF026
:10597000000A5410804602911FE00E9800900D9886
:10598000294603B20C9802B23046FFF711FD029887
:10599000204404B2444508DBA4EB080004B201989B
:1059A000304406B205EB0A0005B206EB0B0006B266
:1059B00005EB09007F1C05B23FB24745DDDD50E530
:1059C000F0B5244CDDE905762568ED07FCD14FF0F4
:1059D000020CC4F808C0204DD5F800E04EF4000ECB
:1059E000C5F800E0D5F800E02EF4000EC5F800E0A0
:1059F0006D152560E060E16327612664C4F81CC072
:105A000062F31F436364206840F001002060F0BD32
:105A10003CB5DDE90545CDE90045FFF7D1FF0D486F
:105A20000168C907FCD1022181603CBD0B49028895
:105A30000A8042884A8082688A60C268CA600279A5
:105A40008A760A884B885A434A61007C4876487EA9
:105A5000FFF74DBA00B002401038024040C00120AC
:105A60001FB500F0A8F9FCF7ADF8FCF73FF9FCF71B
:105A7000CDFA7F4D00281AD07E494FF0E0222868E9
:105A800080F4804028600B684FF064000093EFF3CF
:105A900005832BB90B68009C1B1B8342FAD3EEE7EE
:105AA0001369DB0300D5401E0028F9D1E7E7002683
:105AB0004FF40470CDE9026002270A21CDE90067A6
:105AC0001E23DB22084603F085FE80466A4903F068
:105AD000E5FE6AA1404603F0F0FE0124214640465F
:105AE00003F03DFF142000F0E5FF641CE4B2642CD9
:105AF000F4D94FF4B874CDE90264CDE900671E23F0
:105B0000DB2232210A2000F0B7FA804661A100F0C2
:105B100021FB6649404600F005FB01F05DF901F00C
:105B20000DFAA0427ED1DFF848A14FF400590AF1E6
:105B3000060AAAF80090404604F064FA5A2340F29C
:105B40000D1232210A2000F0DDFE40F27110CDE985
:105B50000260CDE90067322369225A210A2000F051
:105B60008BFA80464FF4B970CDE90260CDE9006749
:105B7000322369225A217C2000F07EFA054640F249
:105B80007310CDE90260CDE90067322369229621C6
:105B90000A2000F071FA04464FF4BA70CDE90260B1
:105BA000CDE900673223692296217C2000F064FA57
:105BB00006463F49404600F0B5FA3D49284600F008
:105BC000B1FA3B49204600F0ADFA3949304600F0C1
:105BD000A9FA38A1404600F0BDFA39A1284600F0E4
:105BE000B9FA3AA1204600F0B5FA3AA1304600F0E1
:105BF000B1FA4FF400420021404600F07FFA4FF422
:105C00007F420121404600F079FA8022002120469F
:105C100000F074FAFF220121204600F06FFA01F033
:105C2000DBF800E006E0AAF102054FF480474C469D
:105C3000564607E0286880F400502860642000F091
:105C400039FF6CE701F07AF9A0F58070713807D060
:105C5000012807D0022807D00328F3D13780F1E7C5
:105C60002C80EFE73480EDE72F80EBE7FCF713BAE9
:105C70001418024014000020D01B01084C4F41446E
:105C8000494E472E2E506C656173652077616974AB
:105C90002E2E0000436C69636B206D6520746F20AD
:105CA000636F6E74696E75652E2E0000A00F01087B
:105CB000D0060108475245454E206F6E0000000097
:105CC000475245454E206F6666000000524544200D
:105CD0006F6E0000524544206F6666007047FEE715
:105CE000FEE7FEE7FEE7704770477047704710B564
:105CF000FBF73CFF10BD00001CB500215B4A009182
:105D00000191106840F4803010604FF4A043106897
:105D100000F4003001900098401C0090019810B9E8
:105D200000989842F3D11068800342D50120019079
:105D30004E484030016841F0805101604C4908688C
:105D400040F4404008604948083003680360036835
:105D500043F400430360036843F4A0530360041F4B
:105D6000444B2360136843F08073136013689B01F6
:105D7000FCD50A6842F480320A604A68D203FCD536
:105D80000A6842F400320A604A689203FCD53A4A33
:105D900040F205711160016821F0030101600168A2
:105DA00041F0020101600168C1F381010229FAD1C9
:105DB0001CBD01911CBD314810B5016841F4700152
:105DC00001602A48016841F001010160274A002171
:105DD0000832116002682A4B1A400260031D294AEA
:105DE0001A60026822F48022026020480C300160B0
:105DF000FFF782FF21494FF000608039086010BD35
:105E000070B51A4D083528681F4B204910F00C005A
:105E100004D05E10042803D0082803D00B601BE0D8
:105E20000E6019E0114A121D1068C0F3805410680A
:105E300000F03F0014B1B6FBF0F001E0B3FBF0F06E
:105E400013681268C3F388135843C2F30142521C0B
:105E50005200B0FBF2F0086028680C4AC0F303104F
:105E6000121D105C0A68C2400A6070BD0038024012
:105E700000700040085A4007003C024088ED00E0F6
:105E8000FFFFF6FE103000240024F4008C000020F8
:105E900010B5431A934209D28318881803E010F80A
:105EA000011D03F8011D521EF9D210BD40EA010385
:105EB0009B0703D009E008C9121F08C0042AFAD2C0
:105EC00003E011F8013B00F8013B521EF9D210BD6E
:105ED000D2B201E000F8012B491EFBD2704700222C
:105EE000F6E710B513460A4604461946FFF7F0FFD9
:105EF000204610BD30B504460020034600E05B1C80
:105F0000934203D2E05CCD5C401BF8D030BD034629
:105F100011F8012B00F8012B002AF9D1184670471F
:105F2000064C074D06E0E06840F0010394E80700E6
:105F300098471034AC42F6D3FAF73CF9C03901085F
:105F4000E039010870B58C1810F8015B15F00703F3
:105F500001D110F8013B2A1106D110F8012B03E002
:105F600010F8016B01F8016B5B1EF9D12B0705D40A
:105F70000023521E0DD401F8013BFAE710F8013B53
:105F8000CB1A921C03E013F8015B01F8015B521E6F
:105F9000F9D5A142D8D3002070BD000038B54568BE
:105FA00004460146284603F002FE00282AD0206855
:105FB000304A0F2819D006DC0B2824D00C2810D02A
:105FC0000E2851D12FE0112802D028284CD145E0CD
:105FD0009268002A16D02146284601B0BDE830401C
:105FE0001047214628465268F7E7284600F05AFB3A
:105FF0000090406E0468684600F09EFB002C01D0C3
:106000002846A04738BD284600F04CFB0090683079
:1060100000F0B0FA009803216C3000F0B3FA684643
:1060200000F08AFB20E0E168486809680D2902D089
:10603000202913D105E0002810DD284608F05AF980
:1060400006E0002804DD2846BDE8384008F052B9D3
:106050002846BDE83840022108F062B9E06818B966
:106060000021284600F06DF82046BDE8384003F0D6
:1060700095BF00008C010020F0B585B00DF1280C13
:10608000BCE8F0004FF0000C8DE8F01000F002F8D2
:1060900005B0F0BDF0B585B00C46DDE90D514C31D1
:1060A000DFF850C0DDE90A67CDE902C12146CDE93C
:1060B000006703F0C3FE040018D000F0F3FA1022CA
:1060C0002946049003F058FE049830220A493430DF
:1060D000FFF7DEFE084D04990C3D2868486604A8C9
:1060E00000F02AFB286841682046884705B0204612
:1060F000F0BD00009D5F000898010020F8B515462E
:106100000C4606000DD000F0CDFA0090032C02D210
:1061100000EB84004563684600F00EFB304604F057
:106120009AFAF8BD38B50D46040009D000F0BAFA65
:1061300000904565684600F0FFFA204604F08BFAAF
:1061400038BD4FF480720029114601D003F0B9BD6B
:1061500003F011BD2DE9FF410E4605004FF001048B
:106160001CD000F09FFA0190876E01A8009700F004
:10617000E3FA3146684602F007FC78B10098002443
:10618000B84208D0284600F08DFA01900099816647
:1061900001A800F0D1FA284604F05DFA04B02046C8
:1061A000BDE8F08110B5002001F000FC6FF07F40E9
:1061B00001F0FEFB012001F047FC002001F04CFC47
:1061C000002001F053FC002001F0F4FB04480068BB
:1061D00001F0F2FBBDE81040002001F011BC00000E
:1061E000F8000020014AC2E900017047A000002029
:1061F000014AC2E900017047A8000020014AC2E933
:1062000000017047B0000020014AC2E90001704758
:10621000B8000020014AC2E9000170477001002067
:106220002DE9F04FDFF828B191B04FF0FF35DBF8E2
:106230000030B3F922100691DE69B3F92490F469B5
:10624000A189814206D8E289824203D3471AD4F851
:10625000008012E0D4E9018100296FD00A888242CF
:106260006CD84D88854269D3801A82B2486800EBA9
:106270008200B0F90070B0F90250781C5ED0307E18
:10628000A17C10FB01FA217CCDE90801B3F92A6059
:10629000304603F0CFF8C0B20E90DBF8000007FBE9
:1062A0000A81A37C826B0127CDE90412CDE9027338
:1062B000C069DDE90832C17E807ECDE90001494632
:1062C000069802F049FC681C18D046F0020003F062
:1062D000B1F8DBF80000A37C05FB0A81826BCDE9F5
:1062E0000273CDE90412C069DDE90832C17E807E07
:1062F000CDE900014946069802F02EFCDBF80000CB
:106300005D46C069417E007E814214D9022E12D0C2
:1063100086F0040003F08EF82868C069027EC37E10
:1063200012FB0391437E857E099A06984B4402FB3B
:10633000050202F09FFD0E9803F07CF8DBF80000E8
:10634000627C418C1144418411B0BDE8F08F0000A3
:10635000FC00002004480068C069C06909B1027CE3
:106360000A60407C70470000FC000020022008808A
:106370007047C06982898A4202D8C2898A4210D293
:10638000806880B102888A420DD843888B420AD344
:10639000406800EB8100A0EB8200B0F9000000280B
:1063A00001DB012070470020704700002DE9F04319
:1063B0002F4C034687B020681946B0F92A80C0697F
:1063C000C06900F084F800284ED041680088181A8F
:1063D00001EBC0054046AE7803F02CF881462068FA
:1063E0006A680123816BCDE90236CDE90421C169D8
:1063F000CB7E8A7ECDE900230B7EB0F924102A786B
:10640000B0F9220002F0A8FB2068C069477E067E32
:10641000B7421DD9C07E47434643B8F1020F17D09B
:1064200000F06BFD804600F04BFD01F0C1FA2168E1
:106430002A78CB69B1F92200DB7E12FB0302B1F9A5
:106440002410CB19314402F015FD404601F0B0FA9A
:10645000484602F0EFFF20686A78C369B0F922105D
:106460009B7E12FB0311418407B0BDE8F08300005E
:10647000FC00002030B50F4C05460B46206829462D
:10648000C069C06900F023F8002811D04168008875
:1064900024682A1A0120E46900EBC200085CA47E8B
:1064A00010FB04F0002B03D011F832106143196087
:1064B00030BD0000FC00002001200880704700B5BE
:1064C000C06900F004F8002800D0012000BD06E0FB
:1064D00002888A4202D842888A4202D28068002812
:1064E000F6D17047002801D004F0E2BF704738B5FC
:1064F0000546FFF7F7FF040009D000F0D3F82A465D
:106500000021009002F076FA684600F015F9204666
:1065100038BD0000024A106021F00300506070474F
:1065200018C1012010B5002814D004460A48006B99
:1065300010F8341000290DD002290BD2042101EBF0
:10654000C4014158486804F077FF2046BDE8104078
:1065500008F080B910BD00005CC00120002805D003
:10656000034A916B016001B148609063704700007D
:106570005CC0012010B504460068FFF7D3FF00207F
:10658000206010BD70B50D460646002405E000BF32
:1065900006EB8400FFF7EEFF641CAC42F8DB70BD35
:1065A0002DE9F041044607F0BBFD2648E41C24F029
:1065B0000305C16B2D1DA94200D90D46846B13E064
:1065C00054F8042CAA420ED184B1216809B1626842
:1065D0004A60616809B122680A60826BA2422ED1CA
:1065E000216881632BE02468002CE9D18046416B4F
:1065F00080680F1857F8040C3E1A306838B1002034
:1066000008F0A8F957F8040C3E1A3068B8B9706859
:10661000A84214DB3044441B304608F053F9D8F844
:106620000810491BC8F80810D8F810102944C8F8F9
:10663000101070683146401B04F0FEFE20C4204656
:10664000BDE8F0815CC0012010B5002407F068FDB2
:106650000C490F2001EBC002126C1AB101EBC00013
:10666000006C08E0401EF5D508E04168A14200D961
:106670000C46806810B180680028F6D1A4F10C00A7
:1066800010BD00005CC00120002138B10449042283
:1066900002EBC000096B085841680C390846704786
:1066A0005CC0012005498A69521C8A61096B01EBB3
:1066B000C0010A78521C0A7000F056B85CC0012074
:1066C0007CB506460C460846FFF70CFF05001CD0BB
:1066D000DEB13046FFF7D8FFA04200DA0446284674
:1066E000FFF7E0FF00903046FFF7DCFF0146019026
:1066F00022460098FFF7CCFB684600F01DF801A881
:1067000000F01AF83046FFF70DFF28467CBD000068
:1067100010B5FFF799FF64220649B0F5800F04D940
:1067200090FBF2F0C969484310BDC9694143B1FB10
:10673000F2F010BD5CC001200A4902680B6B52F8F0
:10674000082C03EBC2021378022B03D38B690BB125
:106750005B1E8B611178491E117000210160084693
:10676000704700005CC00120002806D003490422C5
:1067700002EBC000096B0858083070475CC001206C
:1067800070B50C46054600F05DFCC1B223462846B4
:10679000BDE87040002200F001B80000F0B52D27E0
:1067A0001C68B0F1004F08D0002500280DDA661CE7
:1067B0001E6027704042012408E0661C01251E600F
:1067C0006FF000402770491E01E00024091BC9B288
:1067D0002AB3491EC9B222E00C46491EC9B29442EE
:1067E00005D1124C27781C68661C1E602770104C5F
:1067F00054F8216090FBF6F4E4B20A2C11D804FBA3
:10680000160011B90DB1641CE4B20A2C02D10124A6
:10681000491CC9B21E683034771C1F6034700029CF
:10682000DAD1196800200870F0BD0000F0000020E7
:10683000D030010870B506460D461446104600F0EB
:1068400063FB0300164804EB84010AD050F82100D2
:1068500041688068711A2A1ABDE87040184601F034
:10686000CDB800EB8104A268B24201D0012200E061
:106870000022E368AB4201D0012300E000231A4369
:106880000CD0236943B150F82100816840686A1A2E
:10689000311A184601F060F8C4E9026570BD0000C5
:1068A000A8C2012010B5C2B2CBB2D21A02D5C2F131
:1068B000000212B293B2C0F30722C1F3072403FB14
:1068C00003F3121B01D5524212B2000C92B2A0EB9C
:1068D000114002FB023200B2002801DA404200B24D
:1068E00080B200FB002010BD10B50021084600F06A
:1068F0006DFB40F6FF725042BDE810401346014662
:10690000AFF300802DE9FC4107461C4615460E46B4
:10691000042002F08FFD80461148C068C16C006DF4
:106920000F4406440D440444ADF80070ADF8045023
:10693000ADF80260ADF80640684604F039F907E0AA
:1069400023462A463146384602F094FA04F0F2F81B
:106950000028F5D1404602F06DFDBDE8FC81000045
:10696000F00000202DE9F0411C4616460D46074672
:10697000022B02DB0020BDE8F0811C20FFF710FE97
:106980000028F8D00DB105610AE0094A52F8241038
:1069900009B905E011460A68002AFBD109690161BD
:1069A00084618682002101604160C0E90217E2E74C
:1069B0001401002070B51D46FFF7D4FF040001D07C
:1069C00000F00EF8E068006820B90348006800EBAA
:1069D00085008465204670BDFC000020FFF7BEBD29
:1069E00070B590B38269022A30DA1C4C54F8221038
:1069F00019B944F822002FE019464B68002BFBD14F
:106A000006E0CB68C5681B682D68AB4203DD0968EA
:106A10000029F6D11AE0C1B1CB68C6681B68366898
:106A2000B3420CD1838A012B05D008E01946DB68FC
:106A30001B68AB4203DB0B68002BF7D129B14B6815
:106A400033B118604A68426004E0FFE7012070BD7E
:106A500044F8220048600160002070BD140100204D
:106A600008F044BC022801DB00207047054951F8BA
:106A7000200004E0C16809680029F6D000680028F9
:106A8000F8D17047140100202DE9F8431D46164641
:106A9000884604000CD0FFF705FE009000680768E8
:106AA0006846FFF749FE2B46324641462046B84726
:106AB000BDE8F88370B50446FDF7B7FA051908E09C
:106AC00000F08AF9052C01DD052000E02046FDF7E5
:106AD000AFFAFDF7AAFA2C1A002CF1DC70BD000009
:106AE0002DE9FC4706005BD000F01EFA3B4C8146C6
:106AF0002068B0F9228000F041FA216807468A8CAC
:106B0000D01B888441E000BF47F6FF71304601F09A
:106B1000D7FD82460146304601F0A8FD21680546B2
:106B200091F82C0000F0030001283FD0022839D052
:106B300000204A8C101A4884ADF800006A1E1044E8
:106B4000ADF80400888CADF80200A9F101010844F9
:106B5000ADF806006A465146304601F0BDFA21689C
:106B6000BDF8020088845146304601F015F806440D
:106B700030780A281CD00D281AD0BDF800002168F2
:106B800028444884307818B1761C30780028BBD16E
:106B90002068818C39448184818D21F003018185B5
:106BA000BDE8FC8705EBD5704010C2E72846C0E77A
:106BB000206890F82C1001F0030101290BD0022964
:106BC00009D0018C418431780A29DBD1828C02EB17
:106BD00009018184D6E7A0F82280F4E7FC000020B8
:106BE00047F6FF73AFF300802DE9FC411F46904646
:106BF00006000D464FF0000416D065B1084603F0BC
:106C0000BDFE040007D002462946684601F0C5FDD6
:106C1000684603F0B3FE3B4642462946304601F043
:106C2000B3FA204603F0AAFEBDE8FC811CB50A4673
:106C30000146684601F092FE2448BDF80010006845
:106C400030F84C2F1144ADF80010BDF802108288C6
:106C50001144ADF80210BDF8041002881144ADF8DB
:106C60000410BDF8061080880844ADF80600684698
:106C700003F09EFF27E000BFBDF900400BE000BF1E
:106C8000BDF90210204602F097F8BDF90610204623
:106C900002F092F8A41CBDF90400A042F0DABDF99C
:106CA00002400AE0BDF90000214602F085F8BDF976
:106CB0000400214602F080F8A41CBDF90600A042A1
:106CC000F0DA03F037FF0028D6D11CBDFC0000200D
:106CD0002DE9FC41104F04463B68D86C4518196DEE
:106CE000ADF800500E198418ADF80440ADF80260FC
:106CF000ADF80660684603F05BFF08E0386822469E
:106D00003146C06E03682846984703F013FF0028F9
:106D1000F4D1BDE8FC810000FC0000202DE9FC411D
:106D20001C4C2468E66C94F818C03718206DACF140
:106D3000010C4518C418A7EB0C001644ADF8000070
:106D400006EB0C00ADF80400A5EB0C00ADF802005A
:106D500004EB0C00ADF80600684603F029FF15E0CF
:106D600032462946384601F0FBFF32462146384676
:106D700001F0F6FF621E691C384602F051F8621EEF
:106D8000691C304602F04CF803F0D4FE0028E7D12D
:106D9000BDE8FC81FC0000207CB50E4B1B68DC6C60
:106DA0002618186DADF8006045188418ADF8046019
:106DB000ADF80250ADF80640684603F0F9FE06E073
:106DC00022462946304602F02BF803F0B3FE002895
:106DD000F6D17CBDFC00002010B5002400E00124A9
:106DE00000F004F80028FAD1204610BD064810B57E
:106DF0000068002410B1804700B1012403F066F957
:106E000000B10124204610BD1C01002008B50B462E
:106E1000002805D0009281888268C08800F001F8BF
:106E200008BD10B50828029C30D008DC04FB01F432
:106E300001280AD0022813D0042804D11CE010280D
:106E400028D020282CD0002010BD04EBD30003F064
:106E50000701105CC1F10701C84000F0010010BD3E
:106E600004EB93000621105C01EA4301C1F1060125
:106E7000C84000F0030010BD04EB5300D907105CBC
:106E800002D000F00F0010BD000910BD04FB01305E
:106E9000105C10BD481004FB003032F8100010BD2B
:106EA000881004FB003052F8200010BD034951F84F
:106EB0002000C1688A6A08211047000014010020E0
:106EC00010B502F007F8BDE8104002F0B3B80000BA
:106ED00002490968C9694A6800211047FC0000207E
:106EE000024A1268D269526810470000FC00002074
:106EF000002801D003F024B9704710B501F0F2FF6B
:106F0000BDE8104002F096B80021022802D20249E2
:106F100051F82010084670476801002001480068B9
:106F2000007C7047FC00002002480068C069407E79
:106F300070470000FC00002001F08EBB02490022D7
:106F400088688A60704700005C01002070B51446B4
:106F50000D4602F00DF8002802D0002028602060C5
:106F600070BD01F0D7BB10B5044601F0C5FB01466A
:106F70002046BDE8104001F079BB00000A4900201E
:106F8000096891F82C2002F00C02042A07D0082A84
:106F900001D00C2A02D1C869007E40087047C86938
:106FA000007E401E70470000FC000020024951F89E
:106FB000200000690068704714010020024951F860
:106FC00020000069406870471401002070B50D462C
:106FD00006F092FE0446284606F096FE204370BD59
:106FE000124810B5016821F001010160104801212B
:106FF00081601049016000680F49884200D0FEE7B7
:1070000001F050F80D492E200870FDF728F80C48C3
:1070100007F04EF808F0A0FD04460021084600F0F5
:10702000F7FC03F073FA204610BD0000002000E0DA
:1070300000300240C2A507F4CDB5E8B5F00000204D
:1070400024C1012010B5011E01DD024600E04A42C4
:10705000064B012053F82040944202D8401C0A28D5
:10706000F8DB002900DA401C10BD0000D030010818
:107070001CB520B90C480068006E002812D0FFF73C
:1070800011FB009044696846FFF756FB002C09D0BD
:107090002046FFF707FB019081688968884701A8AF
:1070A000FFF74AFB1CBD0000FC00002001490A4616
:1070B00000F002B801F0FFFF2DE9F04387B015465C
:1070C0000C465FEA000842D0002000F073FC8146C5
:1070D00020480068066E4046FFF7E4FA009000681A
:1070E000806900F051FC074640F6FF70001904D19A
:1070F0000098B0F90440B0F906500098611E02896A
:10710000ADF804401144ADF808104189681E0844E8
:10711000ADF80650ADF80A0002F046FE6846FFF7EB
:107120000BFB01A803F044FD06E02A462146404639
:1071300000F0F8FA03F0FEFC0028F6D1384600F023
:1071400023FC304600F048F9484600F033FC07B015
:10715000BDE8F083FC0000202DE9FE4F834619486E
:107160008A46194900680C9E9846407C9146002743
:1071700051F82040E1680968042903D02468002CF4
:10718000F8D100E014B9FFF76DFC04460121E06876
:10719000C26A20469047050011D02469A068804744
:1071A000401C02D1094C46F001060096CDE901547D
:1071B00043464A465146584600F09AF90746384633
:1071C000BDE8FE8FFC00002014010020F83001080B
:1071D00038B5040018D00D480068006EA04201D1F7
:1071E00000F0C8FB2046FFF75DFA0090406908B147
:1071F00000F0DBFD00980068FFF7F0FB6846FFF742
:107200009BFA2046FFF78EF938BD0000FC000020F5
:107210002DE9FF4F83B0454CDDF840B098468A46D3
:1072200007002BD002A901A8FFF79BFEB7F9006069
:10723000002E00DA0026B7F90250002D00DA0025F2
:107240002068A146407C01F0ACFE01990144491E32
:10725000B7F9040007F009F80446D9F80000407CAB
:1072600001F0A5FE02990144491EB7F9060006F097
:10727000FCFFA71B7F1C441B641C0BE0206800263E
:107280003546407C01F08DFE07462068407C01F0C9
:107290008EFE0446B8F1000F01D1C4F10008002FA2
:1072A00001DD002C03DC002007B0BDE8F08F434671
:1072B0003A4629463046CDF800B0FFF74DFF5FEA69
:1072C000000909D000F054F88046484600F084F8E0
:1072D0000027DFF85CB01FE0514605988847012081
:1072E000E2E7E11B414502DA484600F05FF83FB1B2
:1072F000EA193146484600F099F84846FFF7B8FECB
:10730000514605988847DBF8001009B100208847EE
:107310004846FFF7CBFE4744A742E2DB4846FFF76B
:1073200057FF002000F058F8BDE70000FC000020E7
:107330005C02002038B5002460B1FFF7B3F900907B
:10734000006800698068804702F000FA04466846D9
:10735000FFF7F2F9204638BD38B5FFF7A3F900F181
:10736000180400906846FFF7E7F9204638BD000092
:1073700038B5002418B907480068006E38B1FFF727
:1073800091F90090B0F90A406846FFF7D5F9204618
:1073900038BD0000FC00002010B504F0B1FB00284F
:1073A00003D0BDE8104000F06DB810BD38B50C46F4
:1073B00020B908480068006E00280AD0FFF772F96B
:1073C0000090B0F90A10A14200DD44816846FFF741
:1073D000B3F938BDFC000020F8B5134E0500306845
:1073E000046E0CD00CB100F0C5FA02F0CDFD2846B9
:1073F000FFF758F9009031680A6E1AB106E000F004
:10740000B9FA0EE0D1E90223C1E919230D6600683B
:10741000FFF7E6FA6846FFF78FF902F07DF801F012
:10742000D3FF2046F8BD0000FC0000207CB51546C7
:107430000C4620B912480068006E00281FD0FFF7E4
:1074400031F92DB20090C58024B2848001F0BCFFD8
:107450000098406980B1FFF725F9009A0190B2F9D0
:1074600008108180B2F90A20C28011B10AB10480EB
:10747000458001A8FFF760F96846FFF75DF97CBD1C
:10748000FC00002001490A4600F002B801F0FFFFAD
:107490007FB515460C46060028D0FFF703F940F6E5
:1074A000FF710190091903D1B0F90440B0F90650F9
:1074B0000289611E1144ADF80840ADF80C104189F5
:1074C000681E0844ADF80E00ADF80A5001A8FFF799
:1074D00033F902A803F06CFB06E02A462146304649
:1074E00000F008F903F026FB0028F6D17FBD00006C
:1074F0002DE9FF4FDFF8E0B083B01C46DBF8001049
:10750000DDE91060924600274B7C3A461299FFF75E
:1075100029FA05005DD028698068804702F016F9D5
:1075200081460AFB09F0C01D4FEAD008FFF7F0F8CA
:10753000F10705D1C11700EB9170801000EB4000FE
:10754000002C06DC1838B0FBF8F06442A04200DCE6
:107550000446F00707D10090DDE9030123465246B7
:1075600000F09AFB0746002C03DC2846FFF736FAAA
:107570002FE004FB08F01830F10702D0FEF7B2FF4D
:1075800001E0FEF7B4FF06001CD0FFF78BF8019076
:107590000560039981800499C180A0F808A0448106
:1075A000C0F80C80C0E9049701A8FFF7C5F812984D
:1075B000AE602861DBF80000407CA861304607B06F
:1075C000BDE8F08F2846FFF709FA17B13846FEF7F5
:1075D000A9FF0020F3E70000FC0000202DE9F74F91
:1075E00092B090461298FFF75DF80B90B0F9081032
:1075F0000691B0F90A100D9100680069D0F804B046
:107600000BA8FFF799F8384C384D2068407C55F8A6
:107610002000C1688A6A082190478146182801D352
:107620004FF020092068407C55F820000069079041
:1076300003C80C902E48814201D0012000E00020B8
:107640001090002000F0C3FB002849D10026DDE99E
:107650001207B2460FAB069C4546761C0193FFF716
:107660007BFE014604FB0AF001EB8002234629461B
:107670003846CDF800B000F029FE050030D0109853
:10768000D0B1DDE906134A46284600F051FC98B90E
:10769000DDE906702C46D0F810C0BCF1000F05D013
:1076A000294604233A460846E04705E00C9920683D
:1076B000884701C47F1EF9D10020CDE9030505905C
:1076C00001200090CDE901094146034608F1010877
:1076D000069A139801F040FA0D98401E0D90B6D10D
:1076E00015B0BDE8F08F0000FC0000201401002060
:1076F000B3900008F8B515460E460746FEF7D2FFD0
:10770000009000681621C068426A00209047044635
:107710006846FFF711F8002C03D02A463146384658
:10772000A047F8BDF8B515460E460746FEF7BAFF66
:10773000009044696846FEF7FFFF3846FFF7FAFD00
:107740000346082800DD2CB12A463146384607F0AA
:10775000EDFDF8BD2A463146384607F07FFFF8BDFB
:10776000094A126802B10020074A1C3252F8203040
:10777000002B07DBA2F1180343F820104FF0FF3174
:1077800042F82010704700003001002010B500289A
:1077900021D009B30AB3B1F90040B2F900309C42DC
:1077A00000DA23460380B1F90240B2F902309C426C
:1077B00000DA23464380B1F90440B2F904309C4218
:1077C00000DD23468380B1F90610B2F9062091420C
:1077D00000DC1146C18010BD11460A68026049688C
:1077E000416010BD00280BD003880B4403808388C0
:1077F00019448180418811444180C1881144C1806D
:107800007047000070B5104D0446D5E9000188426C
:107810000ED10E49884203D1D0E90F12406C03E02B
:107820000C38D0E9001280682160C4E9012006E02C
:1078300090E80E0084E80E0006F07CFA2860207ABA
:10784000002800D0012070BD4802002018C201208D
:107850000448D0E90010814201D101207047002086
:107860007047000048020020054A10B50349116026
:1078700007F072FCBDE8104000F002B9A9A10008B1
:107880002001002070B5094C0020D4E900218A4273
:107890000AD0D2E90056104606F056FA206031466A
:1078A000284602F017FF012070BD00005C01002097
:1078B0002DE9FC41154DDDE908742D68B5F9086026
:1078C000864200DD3046B5F90C60964200DA324659
:1078D000824219DBB5F90A608E4200DD3146B5F906
:1078E0000E509D4200DA2B468B420DDB00E02C4609
:1078F000E5682D6825B1042D02D02568002DF6D14C
:10790000CDE9007401F048FCBDE8FC81FC000020DA
:10791000B0F90220B1F906309A4213DCB1F9022025
:10792000B0F906309A420DDCB0F90020B1F904300C
:107930009A4207DCB1F90010B0F90400814201DC81
:1079400001207047002070470146024878220068F5
:10795000FEF79EBAFC000020002801D007F0FAB91B
:1079600070470000024978220968FEF791BA0000CA
:10797000FC00002010B501F0DBFC01F0CDFDBDE8FE
:10798000104002F011BA000070B504460548022C00
:107990000068457C02D24474FFF7ECFF02480460A3
:1079A000284670BDFC000020EC01002001F0E2BC84
:1079B00001F018BD01F03EBD03490968CA6900B174
:1079C000C861104670470000FC0000200149C861F2
:1079D00070470000C0000020014948607047000067
:1079E000F00000200149086070470000C00000203E
:1079F0000149486070470000C000002001F036BD1A
:107A0000024909688A7E887610467047FC0000208B
:107A1000094A30B41080094A1180094A1268537C1F
:107A2000084A52F82330DA68146A0A46A446014626
:107A300030BC1846604700002C0100202E010020B9
:107A4000FC00002014010020024909680A7E087623
:107A500010467047FC00002003490968B1F92C204A
:107A60008885104670470000FC0000200349096823
:107A7000B1F92A204885104670470000FC0000201C
:107A800002480068002800D00047704750020020DC
:107A900002498A6802B98860FFF7F2BF5C010020E2
:107AA00010B5040009D006F027FF204607F0F6FBCA
:107AB0002046BDE81040FEF735BD10BD38B50C4678
:107AC00060B1FEF7EFFD00908089204201D00124D3
:107AD00000E000246846FEF72FFE00E00124204667
:107AE00038BD000038B50546002028600648046807
:107AF00044B12046FEF7D6FD009000692860684634
:107B0000FEF71AFE204638BD9802002038B5040062
:107B10004FF000000D46086011D02046FEF7C2FD70
:107B20000090846844B16846FEF706FE2046FEF7E2
:107B3000B9FD0090006928606846FEF7FDFD20460B
:107B400038BD000010B504460C220749FEF7D2F9F3
:107B5000002808D0044894E80E000EC02046BDE876
:107B60001040FFF781BE10BDF4C101202DE9F041A6
:107B7000084E04460568306801682846884707466D
:107B80003068416828468847284420603846BDE868
:107B9000F0810000000100202DE9F0410C4606466E
:107BA0000025064F05E0386841683046884706449E
:107BB0000544641EF7D22846BDE8F081000100208C
:107BC0002DE9F0411E46069C1746884605463A4672
:107BD000A8687F1C3346D0F804C041462846E047D9
:107BE000641EF4D1BDE8F08170B5B0F90040091B06
:107BF000B0F904408C422CDD00F11404B0F90250BD
:107C00000069521B02FB0040CA1800EBE104521E3F
:107C1000D010B0EBE10501F007034FF0FF0102F0D7
:107C2000070221FA03F0C2F1070201FA02F1CEB213
:107C300021780FD001436D1E04F8011B002D05DDD6
:107C4000FF2229462046FEF743F92C442078304392
:107C5000207070BD30400143217070BD10B5B0F987
:107C60000030B0F90240C91A00F114030069121B78
:107C700002FB003000EBE10001F0070302788021F5
:107C8000D9400A43027010BDB0F906100269514391
:107C90001430FEF724B900002DE9F843804602F1C4
:107CA0000F000011470003FB07F01C4615468946EC
:107CB0001430FEF71CFC060013D0FEF7F3FC009016
:107CC000A0F80080A0F802908580C48006498160F9
:107CD0000121818107616846FEF72EFD3046BDE82F
:107CE000F8830020FBE700008439010870B5B0F983
:107CF0000660B0F904400B6800F11405964220DDDF
:107D00000069A34202FB005000EBE30219DAA4F180
:107D100001044FEAE400A0EBE30512F8010B03F0C5
:107D2000070400FA04F0C4B208E055B112F8014BA0
:107D300003F10803A5F1010523F00703002CF4D09B
:107D400008E0002070BD00BF4FEA44604FEA1064B5
:107D500003F101032006F7D5FF2C0AD0184605E0F1
:107D60004FEA44644FEA146400F101006606F7D458
:107D700000E0D81DC443640706D007E012F8014BA9
:107D8000FF2C0FD100F108006D1EF7D5A0EB03000A
:107D900000F101000B6070BD4FEA44624FEA1264CB
:107DA00000F101002206F7D4F0E738B50546FEF7EA
:107DB00079FC00908189491E0CB284816846FEF7E7
:107DC000BBFC002C02D12846FEF7ACFB38BD0EB53B
:107DD00008B102AA00E00022002301A9684600F0D1
:107DE000F3FB0EBD074910B5CC6818B10120C8607F
:107DF000801E03E00020C8606FF07F4000F06AFE44
:107E0000204610BD7802002010B5082A0EDC03467B
:107E1000012A1AD0022A58D0042A78D010F8042B4C
:107E200003F8012B491EF9D1012010BD102A0ADCEC
:107E30000222022AF8D1024630F8043B22F8023B23
:107E4000491EF9D1F0E7002010BD10F8042BD2072D
:107E5000120E491E34D010F8044B491E04F00104E0
:107E600042EA84122CD010F8044B491E04F001049D
:107E700042EA441224D010F8044B491E04F00104D5
:107E800042EA04121CD010F8044B491E04F001040D
:107E900042EAC40214D010F8044B491E04F0010455
:107EA00042EA84020CD010F8044B491E04F001048D
:107EB00042EA440204D010F8044B04F001042243C7
:107EC00003F8012B0029C0D1AEE710F8042B92076C
:107ED000120E491E15D010F8044B491E04F003047D
:107EE00042EA04120DD010F8044B491E04F00304BA
:107EF00042EA840205D010F8044B04F00304224344
:107F0000491E03F8012B0029DFD18DE7FFE710F8A8
:107F1000042B1207120E491E05D010F8044B04F072
:107F20000F042243491E03F8012B0029EFD17BE700
:107F30002DE9F0411E680D460446082A09DC074673
:107F4000012A21D0022A62D0042A7CD0082A1AD120
:107F500095E0102A03DC02200228F8D102E000207C
:107F6000BDE8F081D3F810C02746BCF1000F04D063
:107F70000A462146022308468AE001CCB04727F88A
:107F8000020B6D1EF9D18BE001CCB047C0074FEA60
:107F900010686D1E36D001CCB04748EA801000F062
:107FA000FF086D1E2ED001CCB04748EA401000F00B
:107FB000FF086D1E26D001CCB04748EA001000F043
:107FC000FF086D1E1ED001CCB04748EAC00000F08B
:107FD000FF086D1E16D001CCB04748EA800000F0C3
:107FE000FF086D1E0ED001CCB04748EA400000F0FB
:107FF000FF086D1E06D001CCB04740EA080000F033
:10800000FF086D1E07F8018B002DBDD148E001CCA3
:10801000B04780074FEA10686D1E18D001CCB047FA
:1080200048EA001000F0FF086D1E10D001CCB047E8
:1080300048EA800000F0FF086D1E08D001CCB04770
:1080400040EA080000E007E000F0FF086D1E07F8B6
:10805000018B002DDBD123E001CCB04700074FEAB4
:1080600010686D1E06D001CCB04740EA080000F051
:10807000FF086D1E07F8018B002DEDD110E0D3F83D
:1080800010C0BCF1000F05D00A4601460123384656
:10809000E04705E001CCB04707F8010B6D1EF9D1B0
:1080A00001205DE70A4810B5816900290ED1012140
:1080B0008161FBF7B5FFFCF79FFC054905481C31C2
:1080C0000860BDE81040084600F056BC10BD000036
:1080D000F0000020B9E300087CB5064628480D46AC
:1080E000006868B1002002F063FD06E06A46294698
:1080F000304603F0B9FD02F01DFD0028F6D17CBD2D
:10810000106800901F4C506801902268BDF8000074
:1081100032F84C1F0844ADF80000BDF80200918809
:108120000844ADF80200BDF8040011880844ADF819
:108130000400BDF8060091880844ADF806006846C2
:1081400002F036FD0EE000BF2068BDF800106A4660
:108150004184BDF8021081842946304603F084FD35
:1081600002F0E8FC0028EFD1206830F8221F428D91
:10817000891A01804188C28D891A41807CBD000026
:1081800028010020FC0000202DE9FF4F85B09A4611
:1081900090460D46FEF7C8FE4FF00009DDF814B01A
:1081A00006464C4625B1286800906868019002E0B8
:1081B0006846FEF79DFE18F00C0F02D055460027CA
:1081C00013E0BDF902402DE07F1C2946059800F020
:1081D00077FA01466D1A0598FFF7DEFC0599084409
:1081E000059005A800F0B0FA08B9002DECD108F010
:1081F0000C00042804D0082802D00C2812D105E075
:10820000BDF9060007FB1604641C0BE0BDF906006F
:10821000BDF90210401A07FB1600401C00EBD0709D
:1082200001EB60045546CDF814B043E029460598AB
:1082300000F046FA07460146ED1B059800F016FAD5
:1082400018F003010ED0012939D002290DD1BDF952
:108250000410BDF90020891A091A01EBD17102EB53
:10826000610101E0BDF900108946174A401E4844EB
:1082700012683946A2F822909484ADF80C00A01937
:10828000401EADF80890ADF80E00ADF80A4002AA05
:108290000598FFF721FF39460598FFF77DFC059902
:1082A00008440590FEF740FE044405A800F04CFA8F
:1082B000002801D1002DB9D109B0BDE8F08FBDF97A
:1082C0000410091A491CCFE7FC0000202DE9FF4FDC
:1082D00000208BB004460146009019981D461646B2
:1082E000016007AB002203A902A800F06DF918B1E4
:1082F00000200FB0BDE8F08F0798854200DD0546ED
:108300005C4F0A955C493868407C51F82010049114
:1083100009690691FEF7CAFD05903868407CFEF7B2
:108320004DFE56498146884204D05549894501D0C1
:10833000012000E00020099001CE1899884782466C
:108340005FEA106B71D0009870BB0B9800EB0408CB
:1083500048480068B0F90800404503DDA0EB080775
:10836000804600E000270299049801EB840101EBAC
:108370008701CDE90010DDE90A010A180C9B08927B
:10838000521E19464046FFF793FA012000900598C7
:1083900018280ADA0298DDE9052300EB840000EBD7
:1083A0008700E91B00F070F810E0099870B102989E
:1083B00000EB840000EB87070898A0EB080849460B
:1083C0003868884701C7B8F10108F8D12D48C0695D
:1083D00060B3DDE9020700EB840007EB8402CDE91E
:1083E0000202284C361F2B46E46930460299A0470A
:1083F000FF203168B0EB116F02D10299096804E0E7
:10840000029A1268B0EB126F01D1039A11600299BF
:10841000361D091D02910399091D03916D1EE8D1B6
:1084200019990120039708601DE01EE0FFE7BBF1EA
:10843000FF0F0ED00298CBF1FF0250F824105046E7
:1084400000F032FA039941F82400199901200860DC
:1084500005E00298039950F8240041F82400641CB8
:108460006D1E7FF469AF039843E7039941F824A098
:10847000EBE70000FC00002014010020B39000088E
:10848000B1900008C00000202DE9F05F0C1E16DD41
:108490005E68014600EB8405082A12DC611E012A91
:1084A00028D0022A48D0042A6AD0082A07D10719FE
:1084B00017F8010DB04745F8040D641EF8D1BDE86A
:1084C000F09F102AFBDC0222022AF8D15F693FB13B
:1084D0002246BC46BDE8F04F02235DF804EB60473E
:1084E00001EB440737F8020DB04745F8040D641E50
:1084F000F8D1E4E700EBE1002D1F10F801A9814657
:1085000001F00707802020FA07F800BF0AEA0800F8
:10851000C7F10701C840B04745F804093FB17F1EC5
:108520004FEA4860000E8046641EEFD1C7E7072778
:1085300019F801A90120F6E700EBA1002D1F01F0B9
:10854000030710F801A981467900C02020FA01F83C
:108550004FF0060B0AEA0800ABEB4701C840B047F2
:1085600045F804093FB17F1E4FEA8860000E80463F
:10857000641EEFD1A3E7032719F801A93846F6E7EF
:1085800000EB610001272D1FA74310F801A98146C8
:10859000B900F02020FA01F84FF0040B0AEA0800B5
:1085A000ABEB8701C840B04745F804093FB17F1ED7
:1085B0004FEA0870000E8046641EEFD17FE7012766
:1085C00019F801A90F20F6E72DE9F047204C0646DF
:1085D0001F46A06990468946002540B90120A06148
:1085E00004F120011B480860084600F0C5F96069E5
:1085F00010B900F0D9FC606107B138604EB1A068D5
:1086000030B960698000FDF7CBFFA06000B901259B
:108610003060B9F1000F0AD0E06830B960698000BD
:10862000FDF7BEFFE06000B90125C9F80000B8F110
:10863000000F0AD0206930B960698000FDF7B0FFF3
:10864000206100B90125C8F800002846BDE8F08780
:10865000C00000205DE3000803480068C069017E97
:10866000C07E11FB00F07047FC00002073B5124A79
:1086700001A900981268904700240090C8B10F49E2
:1086800000250968C969496959B10A684AB101995F
:1086900090477CBD6846FFF769FA0546FEF718FC6F
:1086A00004440198401E0190F4D5284600F040F89B
:1086B000044420467CBD000074020020FC00002021
:1086C00073B50D460098002490B10A490968C9693C
:1086D000496959B14A684AB1294690477CBD684604
:1086E000FFF744FA20B10A2802D0641CAC42F6DB42
:1086F00020467CBDFC00002031B50024009808B95C
:1087000005E0641C6846FFF731FA0028F9D12046DD
:1087100038BD0000044AB2F9002002600348B0F9F5
:1087200000000860704700002C0100202E0100208E
:1087300038B5002469460094FEF7D2FB00998142C7
:1087400000DD0C1A204638BD016811F8012B12B16A
:108750000A2A02D002E00120704701600020704721
:10876000B0F90030B1F90020934200DA0280B0F98C
:108770000230B1F90220934200DA4280B0F90430AD
:10878000B1F90420934200DD8280B0F90620B1F9EE
:1087900006108A4200DDC180704770B5B1F9004013
:1087A000B2F900309C4200DD23460380B1F902504B
:1087B000B2F90240A54200DD2C464480B1F90460C4
:1087C000B2F90450AE4200DA35468580B1F90610A0
:1087D000B2F90620914200DB1146C1809D4201DBC7
:1087E000A14201DA002070BD012070BD014602489F
:1087F0000068407C00F002B8FC000020F8B50126BB
:108800000F46054602284BDA264C5FB3012F02D0F3
:10881000022F45D116E054F8250088B92846FEF706
:1088200021F90090B8B3C0680D21426A68469047AC
:10883000020035D039460098904754F825000026AC
:10884000401C2BE0FEF70EF9009020B3C0680D210C
:10885000426A68469047020022D039460098904705
:1088600000261DE054F8250001280FD12846FEF708
:10887000F9F8009050B1C0680D21426A68469047EF
:10888000020003D0394600989047002654F825008E
:1088900010B1012101E003E00021401A44F8250055
:1088A0003046F8BD4002002070B5FF23B3EB116FD6
:1088B0002CD0C3B213FB02F500F47F4400F47F0315
:1088C00054435343000E10FB02F6C2F1FF00CAB23C
:1088D00012FB005201F47F4505FB004401F47F05C3
:1088E00005FB0033090E11FB0065C2F307204FF4AE
:1088F0007F024FF47F4102EA132201EA14214FF074
:108900007F43084303EA05431043184370BD2DE934
:10891000F04F1546DDE90CB90C4606464FF000084D
:1089200018E00B9F4FF0FF0A01CE08CCAAEB1062B3
:1089300002FB09F2B2FBFAF1CAB21946FFF7B4FF23
:1089400020F07F4001C57F1EEED1099808F1010893
:1089500004EB8004D845E4D3BDE8F08F0B881344C2
:1089600003808B889B1A83804B8813444380C9887B
:10897000891AC1807047000002494A694260486113
:1089800070470000F00000202DE9F8430768064614
:1089900088460025384600F083F840B3404600F092
:1089A0008FF8441C3846FDF76FFE84420CD1F4B1B9
:1089B0003846FDF777FE224641460090FDF768FAFB
:1089C0006846FDF7B9FE11E02046FDF78BFD040077
:1089D0000DD0FDF767FE41460090FDF798FA684616
:1089E000FDF7AAFE3046FDF7C5FD34600125284697
:1089F000BDE8F88310B502E000F8011B521E0AB171
:108A00008307F9D1930818D001EB014402F0030267
:108A100004EB042405E0046044608460C46010300A
:108A20001B1F042BF7DA01E010C05B1E002BFBD1EB
:108A300003E000BF00F8011B521E002AFAD110BD4E
:108A400010B5830702D520F8021B521E530810D020
:108A500001EB0144042B08DB046044608460C460C3
:108A600010301B1F042BF7DA01E010C05B1E002B37
:108A7000FBD1D20700D0018010BD000000B907A0D3
:108A800021B906A102E03AB1401C491C02780B78DA
:108A90009A42F8D001207047002070470000000083
:108AA00038B50D46012448B1FDF7FCFD294600907C
:108AB000FFF7E4FF04466846FDF73EFE204638BD5A
:108AC0004FF0FF3120B110F8012B491C002AFAD1D8
:108AD0000846704702490A6808601046704700005F
:108AE000C00200200449054A0968497C52F8211057
:108AF0000969096808470000FC00002014010020F3
:108B0000C1B2C0F30722C0F30740914207D18242AD
:108B100005D108311120B1FBF0F07830704701EB3E
:108B20008103FF2100EB800002EB82027F307F3364
:108B30007F32B0FBF1F0B3FBF1F3B2FBF1F202EBE9
:108B4000420103EB410100EBC00001EB80006C2807
:108B5000E4D32830704700002DE9F04F05468DB072
:108B60007C48DDF860901A9C00681E4617464FF05E
:108B7000000A78B11B9B199ACDF808900593CDE9AE
:108B80000324DDE91623CDE90023046833463A4681
:108B9000284682E0DDE9160201EB060805EB070C2A
:108BA0001043A8F10108ACF1010C012806D0C9F16D
:108BB00008000590002002910890C8E0664802680D
:108BC000B2F90A30581A002806DD361A002E65DD83
:108BD0001946199B00FB0344B2F90E00A8EB0000F4
:108BE000002802DD361A002E58DDB2F90C00ACEB7D
:108BF0000000002800DD3F1AB2F908300020AB4227
:108C000037DD581B3F1A4B46B9F1080F28D007DC57
:108C1000012B0DD0022B13D0B9F1040F29D117E08D
:108C2000102B1FD0182B20D0B9F1200F21D11CE020
:108C300020F0070304EBE0041D4400F0070018E0F7
:108C400020F0030304EBA0041D4400F0030010E037
:108C500020F0010304EB60041D4400F0010008E073
:108C6000044404E004EB400401E004EB8004054408
:108C70000020002F12DD1B9BDDF864C0CDE904034A
:108C8000CDE902C4CDE90069527C34483B4650F836
:108C90002200C26854680A462946A0470DB0BDE8C4
:108CA000F08F17990298084409902B49401E0090B4
:108CB0000A68B2F90A30834241DCB2F90E10029818
:108CC00081423CDB4FF0000BD84603950B9434E017
:108CD000BBF1000F05D10B984FF0080B10F801AB5A
:108CE0000B900599ABEB090B3AFA01F00AFA09F17E
:108CF00001F0FF0A04D118490968097C890716D4D4
:108D000015490968C96B0A680C921B9A0AB152F896
:108D10002000086016990398009B4218521E029981
:108D200000F0A8F80C490C980968C96B0860039911
:108D3000169808F1010808440390B845C8DB089864
:108D4000401C089009980290199804440898B04271
:108D5000A7DBA3E728010020FC000020140100206D
:108D6000F0B40C4612490968B1F90A30A3421CDC80
:108D7000B1F90E30A34218DBB1F90830834200DDAF
:108D80001846B1F90C30934200DA1A4682420CDBE5
:108D90004B7C084951F8235013462246E9688E68F7
:108DA00001462846B446F0BC6047F0BC704700005E
:108DB000FC000020140100200A46174930B409685D
:108DC000B1F90A30934225DCB1F90E30934221DB30
:108DD000B1F9083083421DDCB1F90C30834219DB54
:108DE0000B7C0E4CDB0709D0497C54F82130D96844
:108DF000CC690146A44630BC18466047CB6B497C21
:108E00001B6854F82140E1688D6901462046AC4654
:108E100030BC604730BC7047FC00002014010020CB
:108E2000124B30B41B68B3F9084084421CDCB3F920
:108E30000C40844218DBB3F90A408C4200DD214625
:108E4000B3F90E40944200DA22468A420CDB5C7C85
:108E5000074B53F82440E368DD6813460A46014691
:108E60002046AC4630BC604730BC7047FC00002058
:108E70001401002038B5134C2468B4F90850854219
:108E800000DD2846B4F90C50954200DA2A468242A9
:108E900017DBB4F90A508D4200DD2946B4F90E50B3
:108EA0009D4200DA2B468B420BDB0093647C064B21
:108EB00053F82440E3681D6913460A4601462046DC
:108EC000A84738BDFC00002014010020082104F050
:108ED0001BBE000002480068806B006870470000FD
:108EE000FC00002002480068C06B0068704700006A
:108EF000FC000020044B03EB800253F82000C06804
:108F0000436A104618470000140100200C2104F0A9
:108F1000FBBD0D2104F0F8BD024809210068407C2A
:108F200004F0F2BDFC000020092104F0EDBD70B595
:108F300000252C462046FDF795FD00B16D1C641CF4
:108F4000022CF7DB284670BD02480068407C00F028
:108F500003B80000FC00002010B5FDF783FD0028D9
:108F600005D0C168CA6ABDE810400221104710BD93
:108F7000F8B515460E460124FDF774FD009058B172
:108F8000C0680421426A68469047030004D02A461C
:108F900031460098984700242046F8BD0E2104F081
:108FA000B3BD032104F0B0BD032004F028BE0421AA
:108FB00004F0AABD024801210068407C04F0A4BD71
:108FC000FC000020012104F09FBD000002480221A6
:108FD0000068407C04F098BDFC000020022104F0F1
:108FE00093BD00F003B800F001B800002DE9F04196
:108FF000002809D0876837B10D4E716819B104682F
:10900000B4F5807F02DD0020BDE8F0813068844245
:1090100000DD0446002507E057F82500FFF762FD54
:10902000716841F825006D1CA542F5DB7068EBE71F
:109030007C0100200449054A0968497C52F8211046
:109040000969496808470000FC000020140100205D
:1090500010B5A0F17801102906D201EB011000EB48
:10906000012000EB003010BD6C2804D3942801D2FD
:10907000002010BD28380621B0FBF1F3B3FBF1F45A
:1090800001FB130201FB14312423B0FBF3F002EBCC
:10909000021201EB011102EB420201EB410100EB74
:1090A000001000EB400002EB012101EB004010BD7D
:1090B0007047704710B500F01F01074A074BC0F317
:1090C0004514C0F3C4201B5D105C515C00EB032011
:1090D00000EB014010BD00001C1F01083C1F0108EF
:1090E0000106C0F30723C0F30742080A40EA032041
:1090F0001043704710B50A4C606860B92068800062
:10910000FDF74EFA606040B104F1080105480860BF
:109110000846FFF731FC002010BD012010BD000003
:109120007C010020E5E300082DE9F041FFF7FFFE98
:109130000746002528E02846FDF794FC18B328468A
:10914000FEF722FC80462846FFF7C0FE082817DC01
:109150000F48104950F825000069884210D0284671
:10916000FFF7E2FE0646002408E0E0B2FFF762FFE8
:109170000246E1B2284600F063F9641CB442F4DB15
:109180004046FEF701FC6D1CBD42D4DBBDE8F0811A
:10919000140100208C1F01082DE9FF4F83B01646F3
:1091A000DDE910408B46C0684769426A7AB1012107
:1091B00011A8904705000AD00698CDE9000433466F
:1091C0005A4603991198A84707B0BDE8F08F574851
:1091D0000068407CFDF76AFE8246082801DC012019
:1091E00005E0BAF1100F01DC022000E00420804607
:1091F000002596E04046B8F1010F05D0022871D055
:10920000B8F1040F25D17CE0BAF1090F21D2DFE8D3
:109210000AF08605213F3F5959595900039815E036
:1092200001465A461198B847C5F1070188404FF6E4
:109230007F722178EA40114001436D1C217004EBDC
:10924000E50425F00700054109F101008146B0421F
:10925000E6DD64E0039817E001465A461198B847E6
:109260000621A1EB450188406B004FF63F72217843
:10927000DA40114001436D1C217004EBA50425F078
:109280000300054109F101008146B042E4DD46E0FA
:10929000039813E001465A461198B8470421A1EB00
:1092A000850188402178AB000F229A40114001438C
:1092B00021702C4485F0010509F101008146B0427E
:1092C000E8DD2CE0DDF80C9007E001465A461198E5
:1092D000B847207009F1010944444846B145F4DD1E
:1092E0001DE0FFE7DDF80C9007E001465A461198B3
:1092F000B847208009F1010944444846B145F4DDEE
:109300000DE0DDF80C9007E001465A461198B84789
:10931000206009F1010944444846B145F4DD0BF1F0
:10932000010B06998B457FF765AF4DE7FC000020E8
:1093300010B50E4C0E492068407C51F8200050B109
:10934000C1680968042903D000680028F8D102E048
:1093500008B1FDF785FB20680021016600F10801D6
:109360004161BDE8104000F02FB80000FC00002073
:109370001401002001490968496808477801002064
:10938000044909680A7C520701D5C96B00E0896B62
:1093900008607047FC0000207CB5094C0546206839
:1093A000417C084850F82100C1680A6B6946904723
:1093B00020686A4629460830FFF7EFF97CBD0000B7
:1093C000FC000020140100200448016804484A7C85
:1093D000083150F82200C268126B1047FC000020D0
:1093E0001401002001490968096808477801002034
:1093F000044909680A7C520701D5896B00E0C96BF2
:1094000008607047FC000020F8B515460E460124A0
:10941000FDF728FB009058B1C0681621426A6846E3
:109420009047030004D02A4631460098984700240C
:109430002046F8BD0149096889680847780100207D
:10944000F8B515460E460124FDF70CFB009058B107
:10945000C0681021426A68469047030004D02A463B
:1094600031460098984700242046F8BDF8B51546C7
:109470000E460124FDF7F6FA009058B1C0680321AA
:10948000426A68469047030004D02A463146009855
:10949000984700242046F8BDF8B515460E4601242D
:1094A000FDF7E0FA009058B1C0680B21426A6846A7
:1094B0009047030004D02A4631460098984700247C
:1094C0002046F8BD38B50D460124FDF7CBFA0090D3
:1094D00050B1C0680921426A68469047020003D033
:1094E0002946009890470024204638BDF8B5154617
:1094F0000E460124FDF7B6FA009058B1C0680A2163
:10950000426A68469047030004D02A4631460098D4
:10951000984700242046F8BD10B5074C2068006B22
:10952000FFF7E0FAFFF764FF2068406BFFF7DAFA15
:10953000BDE81040FFF724BFFC0000202DE9FF4FDD
:109540008DB01746674ADDF870901E9E209812680D
:109550001D4600248AB11D9B1F98CDE90293CDE9D9
:109560000460DDE91A03CDE9000314682B463A468E
:109570000D98A04711B0BDE8F08F0D9A01EB0508DA
:1095800002EB070CDDE91A231A43A8F10108ACF13C
:10959000010C012A06D0C9F108004FF0000B02911E
:1095A00005909CE0504A1268B2F90A40631A002BF9
:1095B00006DDED1A002DDDDD21461D9C03FB046652
:1095C000B2F90E30A8EB0303002B02DDED1A002DDB
:1095D000D0DDB2F90C30ACEB0303002B00DDFF1A39
:1095E0000D9B1C1AB2F90830A3420DDDA3EB040C4D
:1095F0000CEB0003181A20F007000444A7EB0C073B
:1096000006EBE30603F00700002FB3DD1F9BDDF838
:1096100074C0CDE9040303968DE82012527C3348D0
:109620003B4650F82200C26855680A462146A847C2
:10963000A0E71B990298084409902B49401E03900B
:109640000A68B2F90A30834243DCB2F90E1002987C
:1096500081423EDB4FF0000A0D980B96D0460090F9
:1096600035E000BFBAF1000F05D10B984FF0080AA2
:1096700010F8014B0B900599AAEB090A34FA01F096
:1096800004FA09F4E4B204D117490968097C89078E
:1096900017D415490968C96B0A680C921F9A0AB158
:1096A00052F82000086000991A980A180846DDE967
:1096B0000213521EFFF7DEFB0B490C980968C96BB9
:1096C000086000991A9808F1010808440090B8450C
:1096D000C8DB099802901D980BF1010B0644AB45BD
:1096E000A7DB47E728010020FC0000201401002030
:1096F000002818D0410817D0810817D0C10817D00A
:10970000010917D0410917D0010A17D0410A17D013
:10971000010B15D0C10B13D0010C11D0810C11D04D
:10972000000E11D0202070470120704702207047A2
:1097300003207047042070470520704708207047B9
:1097400010207047122070471820704700B5002283
:10975000FFF7CEFF012804D0811E062903D8082276
:109760000BE0012209E0A0F10901072901D810222C
:1097700003E011380F2800D82022104600BD38B56C
:10978000446805460146204600F011FA002811D031
:1097900028680B280FD00F2817D12046FCF782FF2E
:1097A0000090406E05686846FCF7C6FF002D01D0AA
:1097B0002046A84738BD2046FCF774FF009038309B
:1097C000FCF7D8FE6846FCF7B7FF2846BDE83840EE
:1097D00000F0E4BBF0B585B00DF1280CBCE8F0005A
:1097E0004FF0000C8DE8F01000F002F805B0F0BD6D
:1097F0002DE9FF410C46DDE90D61DDE90BC7403184
:10980000DFF88CE00A9DCDE902E1CDE9005C21465C
:1098100000F014FB050037D00520FCF768FE0400BB
:1098200032D02846FCF73EFF00223146009000F07F
:10983000A3FA1849284600F058FA174E0098182243
:1098400031684166311D4C30FCF722FB0098022143
:10985000A0F84010642181640021416480F86870A0
:1098600084632046FCF71EFF014601900022009809
:1098700005F036FC01A8FCF75FFF6846FCF75CFFCB
:10988000306841682846884704B02846BDE8F08122
:109890007F970008B4300108C801002038B50D4694
:1098A000040009D0FCF7FEFE0090C5646846FCF792
:1098B00043FF204600F0CFFE38BD70B588B00C469F
:1098C00005003CD0FCF7EEFE0090816B0191C06C6E
:1098D000FEF772F80646009800F0E1F802460290A2
:1098E00003A9009800F0DEF802A8FCF725FF44B3B6
:1098F0006846FCF721FF214601A8FFF745F8D8B1DB
:109900002846FCF7CFFE00900199816390F868101B
:10991000224641F0020180F8681005A900F0C2F863
:109920006846FCF709FF03A905AA0846FDF72EFFC4
:1099300003A9284600F054FE3046FEF73DF808B073
:1099400070BD009810F8681F21F00201017003A992
:10995000284600F045FE6846FCF7EEFEECE7F0B561
:1099600087B00C4607007ED0FCF79CFE0090416C4F
:10997000A14200DD0C46816CA14200DA0C46416B2D
:10998000A14271D090F8681040F6FF76C907416B8C
:109990004FF0000519D0A14207DD214600F0C3F8C1
:1099A000ADF80E000098416B05E000F0BCF8ADF892
:1099B0000E002146009800F0B6F8ADF80A00ADF8A8
:1099C0000850ADF80C6000985FE0A14207DD214629
:1099D00000F0A9F8ADF808000098416B05E000F030
:1099E000A2F8ADF808002146009800F09CF8ADF808
:1099F0000C000098ADF80A50ADF80E6090F86810B1
:109A0000890742D404950595806BFCF73DFE052837
:109A10000EDA0098856B6846FCF78EFE0521284615
:109A2000FCF74EFE05463846FCF73CFE0090856389
:109A3000009800F034F8019030B30098C06CFDF746
:109A4000BBFF0546DDE9000204A900F02BF802A9DE
:109A500004AA0846FDF79AFEDDE90001224605F05A
:109A60003FFB04A901E018E014E0DDE9000200F08A
:109A700019F802A904AA0846FDF788FE2846FDF752
:109A80009BFF01A8FCF758FE00E0446302A938469A
:109A900000F0A6FD6846FCF74FFE07B0F0BD806BF6
:109AA000FCF700BE2DE9F04105460C46B0F9040074
:109AB000B5F90010471AB5F90600B5F902107F1C78
:109AC000401A00F101081046FDF74DFA0646FDF771
:109AD00033FAE96A95F84020096802F00302012A86
:109AE00007D0022A08D1B91B01EBD17141F34F0114
:109AF00002E0BA1B511A491E2180A8EB000101EBBC
:109B0000D17141F34F0161802288AB8F761E1A44D8
:109B10002280EB8F324419446180401EA2800844A9
:109B2000E080BDE8F08170B590F8682012F0010483
:109B3000C26A136804D0B0F90620B0F9025003E0FD
:109B4000B0F90420B0F90050551BD0E911206D1C6C
:109B5000914200DA1146814200DD01465E4205EB8A
:109B600046050CB1411A00E0891A4D43801A95FB55
:109B7000F0F0184470BD38B50D4604000ED0FCF767
:109B800091FD0090428E1146AA43914203D0428635
:109B9000204600F060FD6846FCF7CEFD38BD1CB5E0
:109BA000684600F0CDFA684603F03AFA1CBDFEB5EF
:109BB0000C4606004FF0010552D0FCF773FD0190F2
:109BC000216816294ED008DC0D2938D0112928D05B
:109BD000142972D015293ED120E01E2945D01F2915
:109BE00065D0B1F5407F36D1C16AE2680968C262CA
:109BF00010680C1A01A8FCF79FFD3046FCF752FDD7
:109C00006242234611460094029001F0A7FB02A88D
:109C1000FCF792FD304600F01EFD1BE0B0F930006D
:109C200043E090F83200C00615D5E068007A90B1A4
:109C300001A8FCF781FD304600F032FE0BE0E06841
:109C4000C06840B1007A30B101A8FCF775FD30461C
:109C500000F0F1F80025019810B101A8FCF76CFDA7
:109C60002846FEBDA1890186F4E7E168408E0129FE
:109C700006D020F00101304600F042F8092507E047
:109C8000C1060ED540F00101304600F039F8082534
:109C900001A8FCF751FD2946304600F012FD0020D6
:109CA00003E001A8FCF748FD0120E060D2E790F84E
:109CB0003200C0F30010F8E7FFE7E16800F04EF86B
:109CC000C8E738B50C4605000ED0FCF7EBFC009059
:109CD000418E34EA010204D021434186284600F037
:109CE000BAFC6846FCF728FD38BD1FB50022029279
:109CF0004FF4407203910092694600F0B1FD1FBD20
:109D000038B50C460546FCF7CDFC0090418EA142CB
:109D100003D04486284600F09EFC6846FCF70CFD04
:109D200038BD7CB50C00054603D1684600F008FA42
:109D30006C4695F83200000705D52246694628464C
:109D400000F022F86C462146284603F055FA002818
:109D500003D0E86A0169204688477CBD70B50C468F
:109D6000054600F0D1FEE86A21460268BDE8704071
:109D70000846FEF7F3BD0000024B1B68C362428633
:109D8000018670476402002030B5858800881488F9
:109D9000281AD5889388451B0D805288801A8880A0
:109DA0004C80CB8030BD000002490120096881F859
:109DB00054007047FC0000202DE9F0418AB00400F7
:109DC00036D0FCF76FFC0190D0E90012CDE9041207
:109DD000876A056A01A8FCF7AFFC204600F0CAFEBE
:109DE000060025D0204600F0D8F98046B80704D5F3
:109DF0002A46414604A801F01BF82046FCF752FC15
:109E000001904046FCF74EFC06903046FCF74AFCB9
:109E1000039005620698019AC1691162C46101A8A4
:109E2000FCF78AFC06A8FCF787FC03A8FCF784FC77
:109E30000AB0BDE8F08101F099BB00002DE9FC5F9C
:109E4000DFF838A10746DDE90C54DAF81400DDF834
:109E50003CB0984691460E4604434DB9BAF802000C
:109E600048B347480AF138010068407C51F8205057
:109E7000681C0ED0FDB12846FCF714FC0190B0F927
:109E80000010B0F902200F441644B9F1000F02D0BF
:109E900006E000250FE0B0F90430591A01F101097C
:109EA000B8F1000F04D1B0F90600801A00F10108E2
:109EB00001A8FCF741FC0BF12C00FCF718FB5FEA52
:109EC000000B57D0BAF80200401CAAF8020058460E
:109ED000FCF7E8FB0090078007EB09014680491E6C
:109EE000818006EB0801491EC1800E990161254A57
:109EF000816A2240114381626846FCF71DFCDAF852
:109F00000C005E4650B1FCF72FFC07463046FCF7CC
:109F10002BFC0146786948617E6101E0CAF80CB00B
:109F20002946584600F0BCFEA00602D5584600F06F
:109F300079FCE00705D0DAF8201001F10101CAF838
:109F40002010600602D55846FFF736FFA0070DD552
:109F50005846FCF7A7FB0090816A41F0020181623C
:109F60006846FCF7E9FB584600F075FB01215846AE
:109F700001F0B3F95846BDE8FC9F0000E401002061
:109F8000FC0000209F3F070003490020096881F87A
:109F90005400FFF719BA0000FC00002010B5044679
:109FA000C168D4E90020172A0DD004DC0E2A0CD099
:109FB000142A07D104E0222A0CD0282A02D10CE06E
:109FC00000F092FD0020E06010BD2146BDE8104089
:109FD00000F04DBC6FF07040F5E7BDE8104000F0B8
:109FE0003ABB38B504000BD0FCF75CFB009000686E
:109FF000FDF756FD6846FCF79FFB2046FCF792FAFA
:10A0000038BD0000F8B505005CD000F06DFF0028F9
:10A0100058D0284600F0C0FD06460B21284601F026
:10A020005CF9284600F011FD2846FCF73BFB009048
:10A03000406A08B1FDF7CCF8234C002104F150022E
:10A04000A162A06852F82030AB4201D142F8201042
:10A050001D4A483252F82030AB4201D142F820105C
:10A06000206904E04368AB4200D1416000680028E9
:10A07000F8D10721284600F024FB009801F0DAFD12
:10A08000284600F007FD284601F09CF80098806AF9
:10A09000C10703D0216AA1F101012162800602D526
:10A0A000A088401EA0806846FCF746FB6088401EE2
:10A0B00060802846FCF736FA0348383050F826000E
:10A0C00000F0B0FBF8BD0000E40100202DE9F041F4
:10A0D000002500E0012503F007F90028FAD1154E0C
:10A0E000154C306890F8540038B1A08828B1E06968
:10A0F000012720B10068804704E000270EE001201E
:10A10000FEF774FB306890F8540038B1A08828B18D
:10A1100002F03AFFA08808B10125F3E73FB1E069FA
:10A1200010B14068804702E00020FEF75FFB284640
:10A13000BDE8F081FC000020E401002000F0BEBC7E
:10A1400001460448006810B903480068806C00F0BC
:10A1500005B8000008020020FC00002000F0C4BC8C
:10A16000034804490068407C51F820007047000013
:10A17000FC0000201C0200200021022802D202491B
:10A1800051F82010084670471C02002010B5002826
:10A1900002D0FCF7E9FAC06910BD10B5002802D062
:10A1A000FCF7E2FA806910BD2DE9F04F9BB04FF04B
:10A1B000000B5E46CDF820B0CDF824B0CDF828B025
:10A1C000FDF746FB18B100201BB0BDE8F08F6846D4
:10A1D000FDF718FB0098C64DC64C401C11D00098E6
:10A1E00000281DDB019800281ADBC3490098B1F94B
:10A1F00000100844C14900900198B1F900100844CA
:10A200001DE00198401C1BD120689DF8081000EB50
:10A21000400005EB8000007A884207D15846D3E71A
:10A220000098401C0CD10198401C09D1206800EB1B
:10A23000400055F8201005EB800000914068019027
:10A2400005A800F0CBFB9DF80900022800D2206091
:10A2500007AA12A92068FCF779FE12990098401A03
:10A26000009007990198009A401A0190206800EB2D
:10A27000400055F8201091420AD105EB8000019A68
:10A280004168914204D1007A9DF8081088427CD040
:10A29000DDE900019DF80920FCF7CCFA984F3968F8
:10A2A00009B1684688479748216850F8210018B9D5
:10A2B000DDE9000100F0B1FA06907A6812B1069962
:10A2C000684690478A4F2068383707EBC0014868D6
:10A2D000069A824201D0012200E000220DF12009FD
:10A2E000F0B1EAB1486800F0C3FDC8B1206807EBDF
:10A2F000C000406800F0B1FD90B19DE8070008ABD8
:10A3000007C31220CDF844900E90206807EBC000E0
:10A3100040680EA901F007F8206807EBC00046600E
:10A32000069800F0A5FD00287ED00699206807EB6E
:10A33000C002516000EB400005EB80009DF8081062
:10A34000007ADFF8ACA188420AF1280A5DD00698AD
:10A35000C0B30698FCF7A6F99DF8081013908DF885
:10A360003410216801EB410105EB8101097A8DF878
:10A370003510B0F900200099891A0B91B0F902004C
:10A380000199081A0C9013A800E0ACE0FCF7D4F98E
:10A390000BA8119011200E90206800EB400105EBF6
:10A3A000810191E88C000492CDE914379DF80820D2
:10A3B0000A729DF8281031B10AEBC0014F68069A65
:10A3C0004A6001E021E000270AEBC000D0F80480D9
:10A3D00006980EA900F060FF21680AEBC1004368EF
:10A3E000434501D04068069001EB410005EB800336
:10A3F000DDE91412049807C33FB1384600F05DF957
:10A4000018B121680AEBC100476020689DF8081068
:10A4100000EB400805EB8802137A0B434BD00C236A
:10A420004FF0010B574600E052E00AEBC0000E93DC
:10A430004368DDF818C09C4515D043689BB109B14D
:10A44000119608E055F828100891516809918DF887
:10A450002860CDF8449040680EA900F064FF2068A1
:10A4600007EBC000466020689DF8081000EB400232
:10A4700005EB82021172069951B39DE80E000DF1B1
:10A480002008A8E80E009DF8281021B1069907EBD6
:10A49000C000416008E01C48007808B100F044F9B1
:10A4A000206807EBC00046600698CDF844900EA9DE
:10A4B00000F039FF0CE0069850B1069800F0CDFC92
:10A4C00030B19DE8070008AB07C310200E90EBE702
:10A4D00021689DE81C0001EB410005EB80001CC0D9
:10A4E000684600F013F905A800F056FE96E6000055
:10A4F00060C20120EC0100202C0100202E01002070
:10A500006C0200202C0200203C0200202DE9FF5F9D
:10A510002C4D6878002853D100272B48EF60AF629C
:10A520000068DFF8A8903C464764AF806F804FF02A
:10A53000020A4FF0FF3B40F6FF7805F1380620464F
:10A54000FCF790FA98B1CDE90297CDE900BA002165
:10A55000424643460846FFF771FC1A4A46F8240073
:10A5600040326FF0704142F8241000F074F8641C1F
:10A57000022CE4DB164FDFF85C80DFF85C900024EF
:10A5800007EBC40000F02AFA08EBC40000F026FA3A
:10A5900009EBC40000F022FA641C022CF0DB3068E6
:10A5A00000F040F9FFF700FC0120064968703031E7
:10A5B0000A48086004B00846BDE8F05FFEF7DCB961
:10A5C000BDE8FF9FE4010020FC00002009FB00081B
:10A5D00078C2012088C2012098C20120F9E3000856
:10A5E00070B586B00D4606002CD0FCF75BF80090E5
:10A5F000846AA10723D5D0E90010CDE90110E0035A
:10A6000002D5304600F0A1FB5DB128680390686870
:10A61000049003A9009800F0E9F903A901A8FEF746
:10A620009FF8314601A800F0E9F940B140F6010079
:10A630000440012C08D001A9304600F083FB684695
:10A64000FCF77AF806B070BD0098026A816901A82B
:10A6500000F0EEFBF3E70021FFF7C2BFFEB51546A1
:10A660000E4604001CD0FCF71DF80246009090F83E
:10A670002800800711D5314601A8FEF78EF860B199
:10A680006846FCF759F82A4601A9204603F0ACFDBC
:10A690002046FFF77BFD04460CE06846FCF74CF8CB
:10A6A000FEBD2A4601A92046FFF7D8FF2046FCF749
:10A6B0005BF8046A002CF4D1FEBD00F015BC00F07C
:10A6C00025BC1FB5262203910092694600F0CFF801
:10A6D0001FBD000010B50C4C0A4A03462468002038
:10A6E00086B052F82420002A0AD00E200090CDE92E
:10A6F000043104A803906946104600F0AFFD012024
:10A7000006B010BD34020020EC010020054A01EB28
:10A71000410102EB8101D0E9002380680A60C1E9B0
:10A7200001307047D0C2012000F020BD70B5154641
:10A7300006468AB00C4651EA05006CD0002E6AD05D
:10A740003046FBF7AFFF0590D0E90012CDE90212C9
:10A75000CDE9061284B1816A0A0608D5890506D4B6
:10A76000BDF81810A1EB0401ADF8181004E0BDF815
:10A770001C102144ADF81C1085B1816ACA0508D5AA
:10A78000490506D4BDF81A10A1EB0501ADF81A1061
:10A7900004E0BDF81E102944ADF81E10806AC00305
:10A7A00002D5304600F0D1FA05AB07CBC0E9001264
:10A7B00090F8280080070AD506AA02A908A8FCF785
:10A7C000E5FF0598026A816908A800F031FBBDF930
:10A7D0001E00BDF90E10401A0090BDF91C00BDF915
:10A7E0000C10431ABDF91A00BDF90A10421ABDF93E
:10A7F0001800BDF90810411A059800F0AFFD059941
:10A8000001F10800FDF7ACFF0521304600F065FDC1
:10A8100005A8FBF791FF0AB070BD0A46014600206B
:10A8200004F016B970B50C4D04002868866C01D18F
:10A830000A49CC688464204600F006FDFEF7C4FD9A
:10A840002046FBF791FF2968B0F90020CA64B0F9EF
:10A8500002000865304670BDFC000020E4010020C5
:10A86000002801D000F0FABC704700F023BD70B59D
:10A870000C00054609D0FFF790FC002805D02146C2
:10A88000A560BDE8704000F0E9BC70BD10B5FBF7F5
:10A8900089FC024900200968486410BDFC000020C2
:10A8A000F0B587B004004FF00000029003900490D0
:10A8B00005903BD0204D1F4F286857F82000A0423C
:10A8C00034D0CDE900041E21029110B102A900F09C
:10A8D000C5FC0120059002A9204600F0BFFC0599A7
:10A8E00020266846002902D1296847F82140059FA3
:10A8F0001DD105462046FFF750FC040005D002A9F3
:10A900000296059500F0AAFCF4E7009C2046FFF7AC
:10A91000D4FE28B90BE002A90296059500F09EFC32
:10A920002046FFF73AFC0400F5D100E0012707B00C
:10A930003846F0BD34020020EC010020F8B5164680
:10A940000C46050018D0FBF7ADFE0090B0F90410DE
:10A95000B0F90020891A641AB0F90610B0F90200A3
:10A96000641E081A361A761E6846FBF7E5FE324664
:10A9700021462846FFF7DAFEF8BD0000044910B56D
:10A9800009684C6C486400F005F8204610BD0000D2
:10A99000FC0000200EB50E48006890F8541009B174
:10A9A0000C4811E0806CFBF77DFE0090D0E90010B0
:10A9B000CDE901106846FBF7BFFE0748416A11B1B7
:10A9C00001A800F01BF801A804F092F80EBD0000E9
:10A9D000FC00002008C20120E401002002490A68AE
:10A9E0000260086070470000F40100200B46B0F9D7
:10A9F0000220B0F900101846FCF7F4BE38B50C463A
:10AA000005462046FBF74EFE0146009090F82800D0
:10AA1000800703D46846FBF78FFE12E02846FDF757
:10AA20009FFE0098806920B104466846FBF784FECB
:10AA3000E7E76846FBF780FE204601F005F90028AD
:10AA400001DA002038BD012038BDF8B5054668465A
:10AA5000FDF748F81AE001212046FDF72FF800998C
:10AA600081B178B10846FBF77FFE4068A84209D162
:10AA700069462046009EFDF749F804463046FFF738
:10AA8000B0FA04E069462046FDF740F80446002C81
:10AA9000E1D1F8BD38B50446FBF704FE00908169AA
:10AAA00041B1026A00F0C4F9204600F0A3FB00990E
:10AAB000002088616846FBF73FFE38BD70B516463A
:10AAC0000D46FBF751FEC4690BE031462046A8470E
:10AAD000324629462046FFF7F1FF2046FBF744FEA9
:10AAE000046A002CF1D170BD38B50C4600280AD09C
:10AAF000002C08D0FBF7D6FD2146009000F004F8AA
:10AB00006846FBF719FE38BD00224A800A80828819
:10AB10000388D21A8A80C2884088101AC880704779
:10AB200010B5FFF73AFB002802D0FBF71DFEC06905
:10AB300010BD00000D4810B5006890F854000028C2
:10AB400006D00B4C6069012803DD401E60610020C7
:10AB500010BD2069401C206102F05EFD18B1FFF7B6
:10AB600019FF012010BD6069EFE70000FC00002024
:10AB700000C2012070B50546FFF7D2FF08E0AC42E5
:10AB800001D1002406E0FBF7EFFD006AA84201D0E6
:10AB90000400F4D1204670BD10B50446FBF7E4FD77
:10ABA00080690028F9D12046BDE8104001F04CB87A
:10ABB000F0B5384E074687B0306890F8541041B170
:10ABC000354C6169491C6161012905DD012007B02F
:10ABD000F0BDFFF7DFFEF9E7806CFBF763FD2F4D5B
:10ABE0004FF0FF3100902161297821B181680291F5
:10ABF000C068039007E090F8281089073CD5D0E999
:10AC00000010CDE902101FB1394602A8FDF7A8FDDA
:10AC10003068406C78B3009804903068406C0168EC
:10AC2000059140680690686A30B104A8FBF784FD7E
:10AC3000686AFBF737FD049005A90498FFF7D6FE74
:10AC400005A902A8FDF78CFD0DF11000FBF774FDBE
:10AC5000696A19B102A8FFF7D1FEB0B13068816C02
:10AC600002A8FFF7CBFE80B1DDE90201C4E90001D3
:10AC7000FFF760FFABE706E06069401E6061684671
:10AC8000FBF75AFD04E06846E0E76069401E60613A
:10AC900000209CE7FC00002000C20120E40100200D
:10ACA000FEB50D00044647D0FBF7FCFC00900021E8
:10ACB000856101622846FBF7F5FC00990290C569A1
:10ACC00091F8281001F008062DB12846FBF7EAFCA0
:10ACD000019036B115E0C4616846FBF72DFD02A86E
:10ACE00028E090F8280000070BD50098056202982C
:10ACF000C4616846FBF720FD02A8FBF71DFD01A813
:10AD000018E002A8FBF718FD01A8FBF715FD28467F
:10AD1000FBF72AFD11E004620BE02846FBF724FD57
:10AD20005EB990F82810090707D5019804620098C9
:10AD300005626846FBF700FDFEBD0190056A002D27
:10AD4000EBD1E8E7202203F04FBA38B504001ED05B
:10AD5000FBF7A8FC009090F82810890714D5406AEA
:10AD600020B1FCF735FA0099002048622046FFF731
:10AD70000DFA044606E02046FFF7E7FF2046FBF702
:10AD8000F3FC046A002CF6D16846FBF7D5FC38BD0D
:10AD900070B5064615460C460846FBF7E5FC806A8A
:10ADA000C00302D54FF4804300E020232A46214609
:10ADB0003046BDE87040AFF300802DE9FF41984672
:10ADC000164607460D0031D00846FBF76BFC009095
:10ADD000846A0246A00726D5394601A8FDF7DDFCA6
:10ADE00008B340F601000440012C07D0424601A9F7
:10ADF000284603F0F9F90098C46912E00098434628
:10AE0000026A816901A8FFF7D8FFF4E7B4420AD0CB
:10AE1000424601A92046FFF721FC2046FBF7A4FC8F
:10AE2000046A002CF2D16846FBF786FCBDE8FF817E
:10AE30002023FFF7C2BF000070B50C46002550B1BB
:10AE40004CB100BFFBF790FC8069A04201D1012505
:10AE500001E00028F6D1284670BD10B50124FBF7AB
:10AE600083FC90F82800C00600D50024204610BDC1
:10AE700070B5104D06460E4C286804EBC0004168C2
:10AE80003046FFF7D9FF296804EBC102516829B1A8
:10AE900000215268B24203D1012202E00121F8E709
:10AEA00000220143114301D0012070BD002070BD7C
:10AEB00078C20120EC01002090F828309B0711D5C2
:10AEC000B0F900308B420DDCB0F904308B4209DB65
:10AED000B0F90210914205DCB0F90600904201DBA6
:10AEE000012070470020704710B504460648C0682E
:10AEF00006E0A04201D1012010BDFBF735FC4069FE
:10AF00000028F6D110BD0000E4010020F0B58BB0A0
:10AF100006004FF0000015460C4604900590069080
:10AF200007903DD054EA05003AD03046FBF7BAFB13
:10AF30000090D0E90012CDE902122A462146FCF722
:10AF400051FC00982A4621460830FCF74BFC00983B
:10AF5000C7696846FBF7F0FB2A462146384603F0EE
:10AF600088F93046FBF79EFB009090F8281089077F
:10AF70000AD5816941B1026AFFF70AFF0098026AA7
:10AF8000816902A8FFF704FF6846FBF7D5FB0320A1
:10AF9000049007AA08A831C204A9304600F05EF95F
:10AFA0000BB0F0BD2DE9F14187B000250798FBF704
:10AFB00079FB0190D0E90212CDE903120769866995
:10AFC000846A01A8FBF7B8FB44F2200814EA080FD2
:10AFD00030D0DFB103A80799FFF710FDB0B1079893
:10AFE000FFF720FC60070DD556B144F30000401C6C
:10AFF0000090002307AA114903A8FCF709F905E00E
:10B000000120F5E7079800F065F801250798FBF7A0
:10B0100049FB0190816A21EA080181628A0402D514
:10B0200041F00401816201A8FBF786FB044988888E
:10B03000401E888008B02846BDE8F081C5FA0008A7
:10B04000E4010020F0B589B00546FBF72BFB029028
:10B05000866A0469D0E90210CDE9001002A8FBF766
:10B060006BFB002C31D0B0072FD52E212846FFF7DF
:10B07000FCFB174C6F46207800F101002070F004B3
:10B080004FF00F0609D5CDE904650797FFF7FEFBE2
:10B0900004A9284600F0E2F810E03846FFF788FDE2
:10B0A0000AE0CDE904650797FFF7F0FB04A92846FD
:10B0B00000F0D4F8FFF73EFD0028F2D120782F21D0
:10B0C000401E20702846FFF7D0FB09B0F0BD0000FD
:10B0D000E401002038B50446FBF7E4FA0090806AEA
:10B0E00040F601010840012805D06846FBF724FB23
:10B0F000204603F0E9FA1448006A002823D02046CD
:10B1000003F03AFB2046FBF72FFB8569046A18E041
:10B110002046FBF729FB90F82800C043800702D1A6
:10B12000204603F0E3FA204603F026FB2046FBF717
:10B130001BFB046A002CEBD12846FBF715FB856945
:10B14000046A002DF6D138BDE4010020B0F90010EA
:10B15000B0F90420914205DCB0F90210B0F9060004
:10B16000814201DD00207047012070477FB5094D05
:10B17000074C286854F82000002808D018210091B6
:10B18000694600F06BF82968002044F821007FBD73
:10B190002C020020EC010020094B1968002905D081
:10B1A0000022814206D108680AB110607047002869
:10B1B000186070470A4609680029F2D170470000FC
:10B1C000F401002070B505460948C0680CE000BFD6
:10B1D000FBF7CAFA04464069A84205D12846FBF7A6
:10B1E000C3FA4069606170BD0028F1D170BD0000F4
:10B1F000E401002070B50646FBF7B6FA0546806903
:10B20000002809D0FBF7B0FA0446C069B0420ED15D
:10B21000FBF7AAFA006AE06170BD00BFFBF7A4FA71
:10B220000146006AB04202D1286A086270BD002857
:10B23000F4D170BD0B46B0F90210B0F900004A42DB
:10B2400041421846FCF7CEBA10B5FFF7A5FC00281E
:10B2500003DBBDE81040FCF797BB10BD70B50D4C8B
:10B2600006460D46206814280DDA3046FBF77CFAB6
:10B2700001696E6041B12068401C20602846884703
:10B280002068401E206070BD2846BDE87040FEF773
:10B2900085BE00006802002070B50C460546FFF729
:10B2A000DCFD002805D021462846BDE87040FFF7A8
:10B2B000D5BF70BD7FB5054600200090019002907B
:10B2C00003900C462846FBF74FFA0269002A03D088
:10B2D0006846CDE9004590477FBD1FB5CDE9001018
:10B2E0006946FFF7BBFF1FBD7FB505460E464868A0
:10B2F000C9680391CDE901050D202C46009008E0B6
:10B300002046FEF74AFF040003D069460396FFF784
:10B31000C3FF2046FFF7D1F90028F1D13146284676
:10B32000FFF7BAFF7FBDF8B5CC680D46064684B17D
:10B33000FBF7B8F90090B0F900002168081A206006
:10B3400000996068B1F90210401A60606846FBF726
:10B35000F3F929463046FFF7C7FFF8BD2DE9FF4F47
:10B3600081B09B46C66962E03046FBF79BF9014617
:10B370000090D1E90004896A254601F42073024651
:10B38000802B09D0B3F5207F029B134406D063F3D2
:10B390000F02029B234405E002EB0B0363F30F0251
:10B3A00004EB0B0301F4A06163F30F04B1F5807F9C
:10B3B0000BD0B1F5A06F03994FEA224307D019448F
:10B3C00061F31F422314039906E00E9913141944E4
:10B3D00061F31F420E99231419440FFA82FA61F3A4
:10B3E0001F440FFA80F917144FEA2048AAEB09010D
:10B3F000A7EB080251EA020002D03046FFF75FF9DE
:10B400002AB221B2A2EB0900A1EB0A01091AC7EB8B
:10B410002440C8EB2542821A51EA020002D030468D
:10B42000FFF784F90098066A6846FBF785F9002E55
:10B430009AD105B0BDE8F08F2DE9F0411B4D0C46C7
:10B440000646A968686B0144491EA019884205D8C0
:10B45000016819B941680E4403F034FA686BA042E0
:10B460000AD254F8040C271A386828B978680644B8
:10B47000384603F027FA3C46304602F0CFFB05EB96
:10B48000C0073246002120463B6C03F047FF57F8C7
:10B49000400F083400B144602060002060603C60D0
:10B4A0002868304428603046BDE8F0815CC0012047
:10B4B0002DE9F041054602F033FE2B48C46BAC4247
:10B4C00002D8ED1C25F00304804600680C34A0422D
:10B4D00002D20020BDE8F08103F09CF90600F9D00B
:10B4E000204602F09BFB424611E000BF02EBC00188
:10B4F000096C59B18D686B68A3420BD2A96829B158
:10B500008D686B68A34205D2002DF7D1401C10282E
:10B51000ECD31FE0F5B1D8F83C00191B0C301F46E6
:10B52000814200D23C46284603F0CCF90421D8F8E9
:10B53000300001EBC6010023455022463146284623
:10B5400003F0ECFEA74203DD2919381BFFF774FF57
:10B550003046BFE7204603F0FDF90028C0D0304652
:10B5600003F078F9B5E700005CC001207CB5040069
:10B5700016D0FBF797F80090016A91B190F8280077
:10B58000000713D40846FBF78DF8019090F82800C7
:10B59000000708D56846FBF7CFF801A8FBF7CCF801
:10B5A0007CBD6846FAE701A8FBF7C6F800988569F4
:10B5B0006846FBF7C1F82046FFF71CFE29462046E7
:10B5C000FFF76EFB2046FFF746F8002202492046AF
:10B5D000FEF7B4FD7CBD0000BFFA000801207047F3
:10B5E000F0B40F4C246814B1A446F0BC60470D4D74
:10B5F000DFF834C010C855FA84F63778C4F307264C
:10B60000C4F307441CF806602C5D521E04EB46147C
:10B6100004EBC7240C801944ECD1F0BC7047000047
:10B62000B00000201C1D01081C1E0108F0B40B4CCA
:10B63000246814B1A446F0BC604710C82506C4F3C2
:10B6400007262D0AC4F3074445EA062525430D6065
:10B650001944521EF1D1F0BC704700007001002067
:10B6600010B510C80C601944521EFAD110BD00006C
:10B670002DE9F047DFF83490DFF834A098461746FC
:10B6800005460C4640CDD9F8001026F07F4088478B
:10B690000AEB16617F1E0978C1F10F0140EA011023
:10B6A00020704444EED1BDE8F0870000F41B01088F
:10B6B0001C1C01082DE9F047DFF83090984616462B
:10B6C00005460C464FF47F4A80CDD9F8001027F08C
:10B6D0007F408847014607F07F428AEA12400843CC
:10B6E00020804444761EEFD1BDE8F087DCFC0008E2
:10B6F0002DE9F041134C24681CB1A446BDE8F0418B
:10B700006047114D4FF0800E10C855FA84F696F838
:10B7100000C0C4F30726BEEB146FAF5DC4F3074649
:10B72000AE5D01D9012400E000240CEB471707EBC4
:10B73000862606EBC4340C801944521EE4D1BDE8C1
:10B74000F0810000A00000201C1D0108F0B4144C82
:10B75000246814B1A446F0BC6047112420C8EEB29E
:10B76000C5F30727C5F3074C2D0EA5F207156D424B
:10B770000836B5FBF4F50837B6FBF4F6B7FBF4F77B
:10B780000CF1080CBCFBF4FC2D0305EB062505EBC6
:10B79000071565440D801944521EDFD1F0BC704777
:10B7A000A80000202DE9F0410E4C24681CB1A446ED
:10B7B000BDE8F04160474FF07F4620C805F0FF0E1E
:10B7C000C5F3072CC5F3074726EA050444EA0E45EE
:10B7D00045EA0C253D4325430D601944521EECD12A
:10B7E000BDE8F081B80000202DE9F0478146FDF763
:10B7F00093FB4FF0000807466FF07F444546FDF786
:10B80000A3FB060018D000BF56F82510494502D109
:10B810002846BDE8F0876D1CBD42F5DB5FF00005F2
:10B82000484656F82510FBF73DF8A04201D20446E1
:10B83000A8466D1CBD42F3DB4046EAE7F0B5C4B252
:10B84000C0F30725611CC0F30740552901D301212E
:10B8500000E000216A1C552A01D3012200E00022E9
:10B86000431C552B01D3012300E000234FF0FF3C84
:10B870000CEB02272F400CEB03250CEB01260540B7
:10B8800026408818C418480000EB8200114300EBE2
:10B89000C30019430AD0F1192944C4EB841211449E
:10B8A000C4EBC412B1FBF2F100EB5100F0BD00009B
:10B8B00010B50749044620F07F40096888470549CC
:10B8C00001EB14610978C1F10F0140EA011010BDCC
:10B8D000F41B01081C1C010810B50749044620F0A0
:10B8E0007F400968884704F07F414FF47F4282EA35
:10B8F0001141084310BD0000DCFC00087047000047
:10B9000010B50C4951FA80F21378C0F30722C0F346
:10B9100007448A5C095D8024B4EB106F01D90120D3
:10B9200000E0002001EB421101EB832101EBC0306C
:10B9300010BD00001C1D010810B5C3B2C0F30721E3
:10B94000C0F30742040E1120083308310832B3FB5C
:10B95000F0F3B1FBF0F1B2FBF0F2A4F20714644291
:10B96000B4FBF0F0000300EB032000EB01101044E7
:10B9700010BD000010B5084A52FA80F1074BC0F321
:10B980000724C0F307401B5D105C097800EB4310EF
:10B9900000EBC12010BD00001C1D01081C1E010889
:10B9A0000106C0F30723C0F30742080A40EA032058
:10B9B0001043704710B54FF07F41C4B2C0F3072366
:10B9C000C0F30742814341EA044040EA03201043A8
:10B9D000084310BD2DE9F05F9A46DDE90A879146DC
:10B9E0000C4605468B46164635F8020B41468847FD
:10B9F000B84701C4761EF7D15046BAF1200F06D2DF
:10BA0000024649465846BDE8F05FFCF7FDB9BDE87F
:10BA1000F09F2DE9F04117468846054602F0D2FB1B
:10BA2000AC68002C1BD0B84519D0E8680821826AA0
:10BA300028469047D4E90312514341436068CA083D
:10BA400002FB080102FB0706636B23B13A4641463D
:10BA5000A869984702E03046FAF71AFA2660BDE86E
:10BA6000F081704770472DE9F041054640690E4668
:10BA70003421008801EB8000FAF734FD0746FAF71D
:10BA800011FE044628688069FAF7ECFFC1688A6AEB
:10BA900008219047032810DB04280DDD082809DD64
:10BAA000102803DD20200421A06108E010200221DD
:10BAB000A06104E0082000E004200121A0612161D0
:10BAC00068690088E06148436061FAF7BDFD61691B
:10BAD000814200DD606104F1340000212060C4E98E
:10BAE000027184F83060012E05D0E1696FF0030225
:10BAF00002EB8101084460602046BDE8F08100004F
:10BB00002DE9F04385B08146FAF7CCFD0390B0F9FA
:10BB10000080B0F90270B0F90440B0F90650466AEE
:10BB200003A8FAF709FEA4EB0804ED1B641C6D1CC6
:10BB3000002C01DD002D03DC002005B0BDE8F08302
:10BB4000AEB13046FAF7AEFD0490B0F90440B0F95A
:10BB5000065004A8FAF7F0FD4046444501D1BD4225
:10BB60004FD001463A463046FBF760FC49E0FEF70D
:10BB7000F7FA814513D1FDF71DFA0646FDF726FABF
:10BB8000B44201DC85420ADDB44200DD3446854220
:10BB900000DD05462A4621464846FEF7CFFE1D4AEF
:10BBA0001D4901208DE807002B46224639464046B4
:10BBB000FBF79EFC06464846FAF774FD0390466282
:10BBC0000EB3816A41F48031816203A8FAF7B4FDB3
:10BBD0003046FBF701FC07460120FCF703F930462D
:10BBE000FBF7BAFB0D496C43A2000978FCF702FF92
:10BBF0004846FFF727FA0020FCF7F4F83846FBF731
:10BC0000EBFB304699E703A8FAF796FD4846FFF7A5
:10BC100019FA91E7F8300108503901086002002054
:10BC20000349884202D101F13C0070470C3870474B
:10BC300018C2012010B50446E069FEF7E3F9E06997
:10BC40000028F9D110BD00000146064A002000BFBF
:10BC500052F820308B4204D0401C0228F8DB4FF011
:10BC6000FF3070471C020020F7B51546184A01A99D
:10BC7000009812689047174C00902068406920B1E6
:10BC80002946FBF745FE002821D00120FCF7AEFD38
:10BC90002068C069406920B18268DDE900019047F1
:10BCA00012E00D4D0CE06846FBF760FF0646206889
:10BCB000C069016830468847296809B1304688471D
:10BCC0000198401E0190EED50020FCF78FFDFEBDCF
:10BCD00074020020FC000020240100202DE9F05F08
:10BCE000D0F808A0DDF828809946DAF81C404144D5
:10BCF00002FB04163449DDE90B7399F80020DFF8E4
:10BD0000C4B00968D3E900C31BF80240097CC8F13C
:10BD1000080524FA08F411F0030118D0012903D012
:10BD2000022934D0032930D10069806880475B46FE
:10BD3000E10706D0DAF8002032F81610414022F868
:10BD40001610761C6D1E4FEA540434D037E0BD4205
:10BD500001D2284600E038460146E20701D01A46E3
:10BD600000E06246DAF80080640828F81620761CA5
:10BD7000401EF2D16D1AA7EB010704D119F8011F7B
:10BD800008251BF80140002FE1D1BDE8F09F99B2D2
:10BD90005846E20703D0DAF8002022F81610761C85
:10BDA0006D1E4FEA540403D119F8012F0825845C55
:10BDB0007F1EEED1E9E719F8011F08255C5C7F1EA4
:10BDC000B6D1E2E7A41F0108FC0000202DE9FF5FC7
:10BDD0009046DDE90E924B4B99F80050C2F10804F1
:10BDE0008A465D5DDDE91071D540474A139E1268B1
:10BDF000127C12F0030225D0012A03D0022A37D088
:10BE0000032A7DD10069806880471FFA80FBBC420D
:10BE100000D93C463F1BBAF1000F65D0E8070AD0B5
:10BE2000DAF808004146039A03685046984731887B
:10BE300081EA0B013180B61C6D0808F10108641E0F
:10BE4000ECD15BE02F4ABC4200D93C46B7EB04077B
:10BE500005F001006D0831F8200026F8020B641E81
:10BE6000F6D1002F4CD019F8010F0824155CEAE731
:10BE700088881FFA80FBBC4200D93C463F1BBAF1C0
:10BE8000000F16D08DB1E80708D0DAF80800414657
:10BE9000039A036850469847A6F800B0B61C08F10C
:10BEA0000108641E11D06D08ECE706EB4406A044BF
:10BEB0000BE045B1E80701D0A6F800B0B61C641E3F
:10BEC00003D06D08F5E706EB4406002F18D019F8EB
:10BED000011F0C480824455CCDE719F8011F0948EB
:10BEE0000824455C93E70BE0E80703D0308880EA3C
:10BEF0000B003080B61C6D08641EF5D1002FECD10C
:10BF0000BDE8FF9FA41F0108FC0000202DE9FF4FA2
:10BF100081B08A46DDF8388011ACDFF8FCB098F8C3
:10BF200000509146DDE90F1745CC1BF80550C1F1D3
:10BF30000804CD4039495B460968097C11F00301CA
:10BF40001ED0012903D002292FD0032961D1106806
:10BF50000069806880475946BC4200D93C463F1B77
:10BF6000EA0702D0326842403260361D6D08641E16
:10BF7000F6D1002F4DD018F8012F08248D5CEBE787
:10BF80001946BC4200D93C46B7EB040705F0010254
:10BF90006D0850F82220641E04C6F7D1002F38D057
:10BFA00018F8012F08248D5CEBE740680090BC4234
:10BFB00000D93C463F1BBAF1000F16D08DB1E807FF
:10BFC00008D0DAF808004946049A036850469847B2
:10BFD00000983060361D09F10109641E11D06D080A
:10BFE000ECE706EB8406A1440BE045B1E80701D07D
:10BFF00000983060361D641E03D06D08F5E706EB2F
:10C000008406002F05D018F8011F08241BF80150E2
:10C01000CDE705B0BDE8F08FA41F0108FC000020AB
:10C020002DE9FF5F424893460EAA0068B2E89002ED
:10C03000007C0D191E7810F0030198464FF0C000E7
:10C040001CD0022937D1B9F1000F55D04FEA000AB0
:10C05000C4F103004100C1F106022AFA02F03040A7
:10C06000C84006D059F820305A462946009802F0B8
:10C0700007FE6D1C641C042C38D03AE0B9F1000FA7
:10C080001BD08246C4F103004100C1F106022AFA26
:10C0900002F03040C840294659F820306D1C5A46FD
:10C0A000009802F0EDFD641C042C02D118F8016F19
:10C0B00000247F1EE6D1BDE8FF9F8146C4F1030046
:10C0C0004000C0F1060129FA01F33340C34029467C
:10C0D0006D1C5A46009802F0D3FD641C042C02D15A
:10C0E00018F8016F00247F1EE8D1E4E718F8016F0B
:10C0F00000247F1EACD1DEE74FEA0009C4F1030043
:10C100004000C0F1060129FA01F33340C34004D0D6
:10C110005A462946009802F0B3FD6D1C641C042C9D
:10C1200002D118F8016F00247F1EE7D1C3E7000099
:10C13000FC0000202DE9FF5F8B460FA9DDF8388059
:10C14000B1E82104C0F10401CCB298F8001040001D
:10C1500081402F48129F91460068CEB2007C10F0BB
:10C16000030004D001283AD002284FD114E0AC4299
:10C1700000DDECB22D1BB1093AF8210027F8020BC3
:10C18000B006060E641E14F0FF04F4D1002D3DD05D
:10C19000042418F8016FEAE7AC4200DDECB22D1B75
:10C1A000B0090DD0B109BBF1000F3AF82100388079
:10C1B00006D0DBF808004946039A036858469847BA
:10C1C000B006BF1C060E641E09F1010914F0FF043D
:10C1D000E6D1002D1AD0042418F8016FDCE7AC4238
:10C1E00000DDECB22D1BB00903D0388880F0FF00D1
:10C1F0003880B006BF1C060E641E14F0FF04F2D196
:10C20000002D03D0042418F8016FE8E7BDE8FF9F74
:10C21000FC0000202DE9FF5F8B460FA9DDF8388078
:10C22000B1E82104C0F10401CCB298F8001040003C
:10C2300081402F48129F91460068CEB2007C10F0DA
:10C24000030004D0012839D002284ED113E0AC42BB
:10C2500000DDECB22D1BB1095AF8210001C7B00670
:10C26000060E641E14F0FF04F5D1002D3DD0042409
:10C2700018F8016FEBE7AC4200DDECB22D1BB00902
:10C280000DD0B109BBF1000F5AF82100386006D07B
:10C29000DBF808004946039A036858469847B006F9
:10C2A0003F1D060E641E09F1010914F0FF04E6D1DA
:10C2B000002D1AD0042418F8016FDCE7AC4200DD31
:10C2C000ECB22D1BB00903D0386880F0FF00386055
:10C2D000B0063F1D060E641E14F0FF04F2D1002DBF
:10C2E00003D0042418F8016FE8E7BDE8FF9F0000C1
:10C2F000FC0000202DE9F0479946DDE908540A9F2B
:10C3000092465FEA0108064608D0D8F8080023469E
:10C310004A46D0F804C051464046E0473069C068FC
:10C3200030B1A20029463846BDE8F047F9F7B0BD64
:10C3300028462146002604C8120E02D1761C491E4A
:10C34000F9D156B1B20029463846F9F7A1FD07EBFD
:10C35000860705EB8605A41B0CE02868010EFF2963
:10C3600005D2C1F1FF023968FCF79EFA38603F1D23
:10C370002D1D641E002CDBD1BDE8F0872DE9FF5F89
:10C38000424893460EAA0068B2E89002007C0D195C
:10C390001E7810F0030198464FF0F0001CD00229DF
:10C3A00037D1B9F1000F55D04FEA000AC4F10100AE
:10C3B0008100C1F104022AFA02F03040C84006D0E0
:10C3C00059F820305A462946009802F059FC6D1C55
:10C3D000641C022C38D03AE0B9F1000F1BD0824621
:10C3E000C4F101008100C1F104022AFA02F03040D8
:10C3F000C840294659F820306D1C5A46009802F072
:10C400003FFC641C022C02D118F8016F00247F1E2F
:10C41000E6D1BDE8FF9F8146C4F101008000C0F174
:10C42000040129FA01F33340C34029466D1C5A46E2
:10C43000009802F025FC641C022C02D118F8016F50
:10C4400000247F1EE8D1E4E718F8016F00247F1E66
:10C45000ACD1DEE74FEA0009C4F101008000C0F171
:10C46000040129FA01F33340C34004D05A46294657
:10C47000009802F005FC6D1C641C022C02D118F817
:10C48000016F00247F1EE7D1C3E70000FC000020FD
:10C490002DE9F05F92460BAA8946B2E842010A9F55
:10C4A0009B468B003A78C1F102009A40D5B24D4AC2
:10C4B0000E9CC0B21268127C12F003021AD0012A3C
:10C4C00079D0022A38D100295FD028090DD0290956
:10C4D000B9F1000F38F82100208006D0D9F8080003
:10C4E0005A465146036848469847A41C0AF1010A77
:10C4F000761E48E039B12909761E38F8210024F863
:10C50000020B17F8015F022E10DB701006F0010617
:10C510002A0938F8221005F00F02218038F822107D
:10C520006180241D17F8015F401EF1D1002E03D059
:10C53000290938F821002080BDE8F09F28090DD096
:10C540002909B9F1000F38F82100208006D0D9F868
:10C5500008005A46514603684846984715F00F00B0
:10C560000DD038F820006080B9F1000F07D0D9F85D
:10C5700008005A460AF10101036848469847241DFD
:10C580000AF1020AB61E17F8015F022ED6DA002E53
:10C59000D2D02809D0D038F820002080B9F1000F7F
:10C5A000CAD0D9F808005A46514603684846BDE843
:10C5B000F05F1847FFE7B04200DDF0B2361AA90974
:10C5C00003D0218881F0FF0121802907A41C0D0ED2
:10C5D000401E10F0FF00F2D1002EADD0022017F85F
:10C5E000015FE8E7FC0000202DE9F05F92460BAA0E
:10C5F0008946B2E842010A9F9B468B003A78C1F116
:10C6000002009A40D5B24D4A0E9CC0B21268127C0C
:10C6100012F003021AD0012A78D0022A37D1002959
:10C620005ED028090DD02909B9F1000F58F8210072
:10C63000206006D0D9F808005A465146036848469B
:10C640009847241D0AF1010A761E47E031B12909F5
:10C65000761E58F8210001C417F8015F022E10DB86
:10C66000701006F001062A0958F8221005F00F0292
:10C67000216058F822106160083417F8015F401EED
:10C68000F1D1002E03D0290958F821002060BDE81F
:10C69000F09F28090DD02909B9F1000F58F82100A1
:10C6A000206006D0D9F808005A465146036848462B
:10C6B000984715F00F000DD058F820006060B9F1D0
:10C6C000000F07D0D9F808005A460AF101010368A3
:10C6D0004846984708340AF1020AB61E17F8015F67
:10C6E000022ED6DA002ED2D02809D0D058F8200059
:10C6F0002060B9F1000FCAD0D9F808005A46514657
:10C7000003684846BDE8F05F1847FFE7B04200DD28
:10C71000F0B2361AA90903D0216881F0FF01216027
:10C720002907241D0D0E401E10F0FF00F2D1002E2F
:10C73000ADD0022017F8015FE8E70000FC00002000
:10C7400070B5DDE90454002C55D08068C6690068D6
:10C7500002FB061100EB41002D490968097C11F02C
:10C76000030125D0022946D14EE01978083D34F85E
:10C7700021100180597834F821104180997834F8DB
:10C7800021108180D97834F82110C180197934F8CA
:10C7900021100181597934F821104181997934F8B7
:10C7A00021108181D979083334F82110C1811030EA
:10C7B000082DDADA12E019782D1F34F821100180E3
:10C7C000597834F821104180997834F8211081800B
:10C7D000D9781B1D34F82110C1800830042DEADA05
:10C7E00007E000BF13F8011B6D1E34F8211020F87C
:10C7F000021B002DF6D170BD197811B134F821104B
:10C8000001806D1E5B1C801C002DF5DC70BD0000DE
:10C81000FC0000202DE9FF4F85B0834681689146DA
:10C820005548DDE91262DDE91474DDF85C800068CA
:10C830001D46042A49D005DC012A11D0022A2FD135
:10C8400000203EE0082A54D0102A29D1D1F844C053
:10C85000BCF1000F02D0007CC00772D0002086E03F
:10C86000D1F838C0BCF1000F02D0007CC00701D065
:10C87000002012E001A8A0E8C8011698009045E049
:10C8800016980AEB09028DE82101234658460699BD
:10C89000FFF724FA3C440AF101008246B042EFDB84
:10C8A00009B0BDE8F08F00BF16980AEB09028DE8C9
:10C8B0002101234658460699FFF7B2FB3C440AF192
:10C8C00001008246B042EFDBEAE700200DE000BF46
:10C8D00016980AEB09028DE821012346584606996D
:10C8E000FFF74CFD3C440AF101008246B042EFDB09
:10C8F000D6E7D1F83CC0BCF1000F0ED0007C800719
:10C900000BD4B8F1000F08D08DE8C80123464A4681
:10C91000DBF818000699E047C2E700200CE000BFF2
:10C92000CDE900580AEB0902234658460699FFF75D
:10C9300007FF3C440AF101008246B042F0DBAFE75A
:10C94000FFE78DE8C800E1E7DBF80800069A08EB8E
:10C950000903D0F81CC0006803FB0C2200EB420066
:10C9600021466A00F9F794FA3C4408F10100804638
:10C97000B042E9DB94E70000FC0000202DE9FF4F06
:10C980008DB0A848DDE91D860068DDE91A970C46E0
:10C99000006EF9F787FE0690406908B1F9F782FE4C
:10C9A0000A900698C068089006A8F9F7C5FEA01975
:10C9B0000E900A9850B19B490968097C890705D1F6
:10C9C0000EACCDF800900ECCFBF7FAF8DDE90E01C5
:10C9D00002F0C0FF0446102F03D0182F5CDB0020AC
:10C9E00056E000251FE000BFDDE90EB02844DDF869
:10C9F00028A0109E02905FEA08010FD020000DD001
:10CA00007200F9F745FABAF1000F07D0DAF808001A
:10CA10003346594647685046029AB8471C986D1CE1
:10CA20008044089804444D45DEDBF1E00A98039009
:10CA3000DDE90EB10B985FEA080508440190DDF8C6
:10CA400040A026461ED0EEB1039830B18068534610
:10CA500059464768019A0398B8470D9928680969AB
:10CA6000096888473080039828B180685946019A40
:10CA7000036803989847B61C2D1D0BF1010BBAF102
:10CA8000010AEAD108981C9904440B988844401C78
:10CA90000B904845CADBBBE0082F03D01F98002845
:10CAA0006CD06DE0002065E01F9800280A9832D015
:10CAB000DDE90EA102900BEB010000901F9804909D
:10CAC0005848109F454600682646007C10F0030039
:10CAD00002D0022848D109E015F8011B04987F1EF6
:10CAE00030F8210026F8020BF6D13DE0287858B145
:10CAF000049931F820003080029828B180685146AE
:10CB0000009A036802989847B61C6D1C0AF1010A46
:10CB10007F1EEBD128E0DDE90EA101900BEB0100B7
:10CB200002904048109F464600682546007C10F061
:10CB3000030002D0022817D105E03A4641462046BC
:10CB4000F9F7A6F910E0307840B12880019828B1B3
:10CB5000806851460368DDE901029847AD1C761CE8
:10CB60000AF1010A7F1EEED108981C9904448844FA
:10CB70000BF101008346484596DB49E02A481F90A7
:10CB8000002543E03846012F04D002281CD0042F92
:10CB900037D128E023480068006EF9F783FD06903E
:10CBA000CDF80080109A1F990594CDE90310CDE9C6
:10CBB00001620F980A992B18DDE90D02FFF706F9BB
:10CBC00006A8F9F7B9FD1CE010991F98CDE9008679
:10CBD000CDE902100F9804942B18DDE90D020A9993
:10CBE000FFF7A8FA0DE010991F98CDE90086CDE96E
:10CBF00002100F9804942B18DDE90D020A99FFF733
:10CC000047FC1C990898884404446D1C4D45B9DBC9
:10CC10000A98002802D00AA8F9F78EFD11B0BDE8E5
:10CC2000F08F0000FC000020283001082DE9FF4FA4
:10CC30008FB0A148DDE91C960068DDE91F870C462E
:10CC4000006EF9F72FFD0690406908B1F9F72AFD4B
:10CC50000A900698C068089006A8F9F76DFD04EBE5
:10CC6000070010900A9850B193490968097C890718
:10CC700005D410ACCDF800900ECCFAF7A1FFDDE999
:10CC8000100102F085FE0446182E15DB002510E089
:10CC90001298CDF80080CDE9010411980A992B185B
:10CCA000DDE90F02FFF726FB1E990898884404442B
:10CCB0006D1C4D45ECDBF6E0102E05D0082E3ED065
:10CCC0002198002873D0A7E0002034E0109802904B
:10CCD00011990B98DDF828A00844DDF848B04646C5
:10CCE00001902546BAF1000F07D0DAF80800DDE917
:10CCF000012147685B465046B8470F99308809695B
:10CD0000496888472860BAF1000F06D0DAF80800B1
:10CD1000DDE9012103685046984702982D1D401C0B
:10CD2000B61C0290BBF1010BE7D108981E99044490
:10CD30000B988844401C0B904845C7DBB3E00020AB
:10CD400064E0219800280A9832D0DDE910A1039010
:10CD50000BEB01000190219800905748129F454627
:10CD600000682646007C10F0030002D0022847D15C
:10CD700008E015F8011B00987F1E50F8210001C63D
:10CD8000F7D13DE0287858B1009951F82000306083
:10CD9000039828B180685146019A03680398984720
:10CDA000361D6D1C0AF1010A7F1EEBD128E031E02F
:10CDB0000490DDE910A0584402903F48129F454678
:10CDC00000682646007C10F0030002D0022817D12C
:10CDD00005E03A4641462046F9F75AF810E028782F
:10CDE00040B13060049828B180685146029A0368C7
:10CDF00004989847361D6D1C0AF1010A7F1EEED17A
:10CE000008981E99044488440BF101008346484564
:10CE100097DB48E029482190002542E0012E04D00C
:10CE2000022E1CD0042E37D128E023480068006E63
:10CE3000F9F738FCCDF800800690219A12990594F4
:10CE4000CDE90320CDE9017111980A992B18DDE98C
:10CE50000F02FFF75BF806A8F9F76EFC1CE02198BB
:10CE60001299CDE90210CDE90087119804942B188E
:10CE7000DDE90F020A99FFF7CDF90DE0219812992B
:10CE8000CDE90210CDE90087119804942B18DDE953
:10CE90000F020A99FFF7A8FB1E986D1C80440898A2
:10CEA00004444D45BADB0A98002802D00AA8F9F7D5
:10CEB00043FC13B0BDE8F08FFC00002010390108DE
:10CEC00070471CB56846FDF73BF9684600F002F86C
:10CED0001CBD70472DE9F041DFF888800468466882
:10CEE000D8F80000FCF77EFAD8F80800FCF77AFAC8
:10CEF00025B237B224143A4629462046F9F7E8FE0F
:10CF00003614611C32462846F9F746FFD8F800006F
:10CF1000FCF768FA7A1E691C601CF9F7D9FE721ECC
:10CF2000A11C681CF9F738FFD8F81000FCF75AFA72
:10CF3000691C3A463046F9F7CBFE611C324638464A
:10CF4000F9F72AFFD8F80C00FCF74CFA7A1EA91C56
:10CF5000701EF9F7BDFE721EA11C781EBDE8F041DF
:10CF6000F9F71ABFAC020020704708B5009200F034
:10CF7000F3F908BD08B5009200F002FA08BD08B543
:10CF8000009200F053FA08BD2DE9F041134E9EB017
:10CF90000125B46A04B9F4686846FAF7E3FC10485E
:10CFA0000068D0E90C875CB12046FDF7FBFF00B1BB
:10CFB0006D1E2046F9F7D8FB44690CB1002DF3D162
:10CFC0004046B462FAF7F4FC3846FAF7EFFC6846DC
:10CFD000FAF7BAFC1EB0BDE8F0810000E4010020C1
:10CFE000FC0000202DE9F04100EB81041E461746AD
:10CFF000069D206DFCF7BEF9A06DFCF7F3F9F9F77B
:10D0000073FC002D08D031463846F9F7DFFF28467B
:10D01000BDE8F041F9F764BDBDE8F08170477047A5
:10D020002DE9F041DFF85C8005684668D8F800001B
:10D03000FCF7D8F9341437B22E142DB223463A46F1
:10D0400031462846F9F76AFED8F81000FCF7CAF90D
:10D05000BA1E691C701CF9F73BFEA21E711C681CED
:10D06000F9F79AFED8F80400FCF7BCF97A1E691C9F
:10D07000601EF9F72DFEA21E711C781EBDE8F0415E
:10D08000F9F78ABEAC02002008B500930B4600F009
:10D0900063F908BD2DE9FC47DFF8AC8081461E46E8
:10D0A000D8F8000015468A46006EF9F7FBFA0190A1
:10D0B000406908B1F9F7F6FA00902946504602F0A7
:10D0C00049FC04460198C768D8F80000017CC907EC
:10D0D00015D0D9F810008068804787B2009820B139
:10D0E00081682A460B685146984720886D1C784015
:10D0F00020800198B542C0680444EFDD19E0C06BA0
:10D100000168009870B11FFA81F800982A4681687A
:10D110000B6851469847A4F800806D1C3C44B5420A
:10D12000F3DD06E0701B401C89B221803C44401EA8
:10D13000FBD101A8F9F700FB0098002802D068464F
:10D14000F9F7FAFABDE8FC87FC0000202DE9FC475E
:10D15000284F1E46154638688946006EF9F7A2FA30
:10D160000190406908B1F9F79DFA009029464846B8
:10D1700002F00EFC396804460198CA6B097CD0F8AD
:10D180000C801768C90715D000680069806880475F
:10D190000746009820B181682A460B68494698479F
:10D1A00020686D1C784020600198B542C068044436
:10D1B000EFDD13E0009858B100982A4681680B68AB
:10D1C0004946984727606D1C4444B542F4DD05E0AC
:10D1D000701B401C27604444401EFBD101A8F9F796
:10D1E000ABFA0098002802D06846F9F7A5FABDE826
:10D1F000FC870000FC0000207CB50D46C16A0C686D
:10D20000D0E90212CDE900126946FEF713F8B5F92C
:10D210000000BDF900102044884214DCB5F9040078
:10D22000BDF90410001B88420DDBB5F90200BDF901
:10D2300002102044884206DCB5F90600BDF906104C
:10D24000001B884201DA01207CBD00207CBD0170FA
:10D25000012070472DE9F047224C0426A06AE0B176
:10D26000E06806EBD0014518E800FEF721F9070059
:10D2700036D0216B06EBC700B1460E58E068083681
:10D28000C2003046D4F82880F8F702FEA762266371
:10D29000E0684B4601466A1E0EE01248BC30D0E9F9
:10D2A00001100830B1FBF0F5AD1CDDE7471C03EBC6
:10D2B000C00C401C46F80C709042F7D309EBC0003C
:10D2C0000022325021626068691A0844E56060609B
:10D2D0005FEA080001D0F9F725F90020BDE8F087E2
:10D2E0000120FBE75CC00120F8B5184DE86AC8B121
:10D2F000EC6813E02046F9F7D5F90090018D090498
:10D3000008D5264644696846F9F716FA3046FCF710
:10D3100079FE03E044696846F9F70EFA002CE9D17A
:10D320000020E862A86900B180470948006808B198
:10D33000804738B90748006890F8540020B1FAF7E0
:10D34000A1FA08B10120F8BD0020F8BDE4010020D9
:10D3500020010020FC0000207CB58468069D246B21
:10D3600044B1064E3668F66B3668CDE900568069E2
:10D37000A0477CBD009500F0ABF87CBDFC00002010
:10D380002DE9FF4FDFF8A0A00C4685B0DAF80000C9
:10D39000DDF848801F46C16B154609680391006E91
:10D3A000F9F780F901902946204602F0D3FA0646A3
:10D3B0000198391B01F1010BD0F80C90406950B372
:10D3C000F9F770F9A8EB0501491C00915B462A4664
:10D3D00002902146FAF7F4FB02A8F9F7ADF91AE03A
:10D3E000DAF80000007CC0070DD005985F4634468F
:10D3F00000698068804780B22188414024F8021B80
:10D400007F1EF9D105E003985A4681B23046FBF7FA
:10D4100017FB4E446D1C4545E2DD01A8F9F78CF978
:10D4200009B0BDE8F08F0000FC0000202DE9FE4FA0
:10D43000264E1F46144630680D46DDF83090006ECB
:10D44000F9F730F901902146284602F0A1FA791B3C
:10D4500001F1010A316880460198C96BD0F80CB01F
:10D460000E68406958B3F9F71DF9A9EB0401491C8E
:10D4700000915346224602902946FAF7A1FB02A8E2
:10D48000F9F75AF91BE011480068007CC0070CD07E
:10D4900001985746454600680069806880472968BA
:10D4A000414002C57F1EFAD107E0BAF1000004DD59
:10D4B00001464046491E40C0FCD1D844641C4C453E
:10D4C000E1DD01A8F9F738F9BDE8FE8FFC00002086
:10D4D000F0B584684E48059E5B1A07685B1CF86BC4
:10D4E0003F7C0568E06924684FEA600C0CFB02FC95
:10D4F000B21A0CEB510C4610521C002004EB8C04A9
:10D50000FF074FEAC17130D061B11100204607D04A
:10D51000404F05687D40056000EB8600491EF8D14C
:10D52000241D5B1E022B12DB11000CD0481E704321
:10D530001D4604EB8000AD1E0768FF4380C0022D2E
:10D54000F9DA491EF2D1044623F001001B1A002B20
:10D550000ADD002A08D04FF6FF712068484020609D
:10D5600004EB8604521EF8D1F0BD69B111002046CB
:10D5700008D00788491EBFB247EA0547076000EB9D
:10D580008600F6D1241D5B1E05EB0541102B1DDB2B
:10D59000103B170015D0A7F1010006FB00F09C46D8
:10D5A00004EB8000BCF1100C016041608160C1603F
:10D5B000016141618161C16100F12000F2D57F1EEE
:10D5C000E9D1103323F00F070446DB1B022B12DBDB
:10D5D00017000CD0781E70439C4604EB8000ACF121
:10D5E000020C02C0BCF1020FF9DA7F1EF2D1044630
:10D5F00023F001001B1A002BB6DD002AB4D02068EE
:10D600006FF30F002843206004EB8604521EF4E7FA
:10D61000FC0000200000FFFFFEB54F4CD4E90201E2
:10D62000CDE90001206970B3A089401C00B2ADF8BB
:10D6300000006189ADF80210B4F90410884207DDDA
:10D640002088ADF80000E08910F10100ADF802007B
:10D65000BDF90200B4F90610884274DC3F4D286819
:10D66000806CF9F71FF80290BDF90000B4F90010C2
:10D67000884220D1E088ADF80600A088ADF804000B
:10D680002868806C0FE0FFE72088ADF80000608814
:10D69000DCE700BFF9F768F80646006A0022694631
:10D6A00000F0D5F8B0690028F4D10298002269464C
:10D6B000C06900F0CCF8BDF80000ADF8040028689F
:10D6C000806C0AE0F9F750F80646006A00226946C5
:10D6D00000F046F80028EED1B0690028F2D1029897
:10D6E00000226946C06900F03BF80028E3D1B4F994
:10D6F0000400BDF90010ADF80400884207DADDE946
:10D700000001C4E9020102A8F9F716F898E72868B1
:10D71000806C08E0F9F728F80546006A002269469F
:10D7200000F05CF8A8690028F4D10298002269464C
:10D73000C06900F053F802A8F8F7FEFF206944F62C
:10D740002061884201DD0020FEBDDDE90001C4E961
:10D7500002010120FEBD000000C20120FC000020EB
:10D76000FEB517460E460546002433E02846F8F776
:10D7700099FF0090856A0146A80726D527B13A4649
:10D7800001A8FBF70AF803E0D1E90001CDE90101A6
:10D7900001A93046FAF7BCF8B8B1E80702D0009802
:10D7A000C56910E0BDF80800401C308001240CE081
:10D7B00001AA31462846FFF7D3FF00B101242846CD
:10D7C000F8F7D2FF056A002DF2D10098056A684685
:10D7D000F8F7B2FF002DC9D12046FEBDFEB51646B2
:10D7E0000D46044630E02046F8F75CFF0090846A5E
:10D7F0000146A00723D526B1324601A8FAF7CDFF8E
:10D8000003E0D1E90001CDE9010101A92846FAF7B9
:10D810007FF8A0B1E00702D00098C4690DE0BDF820
:10D820000400401EA8800AE001AA29462046FFF70E
:10D83000D5FF2046F8F798FF046A002CF4D1009831
:10D84000046A6846F8F778FF002CCCD1FEBDFEB51F
:10D8500016460D46044648E02046F8F723FF0090A0
:10D86000846A0146A0073BD526B1324601A8FAF7E3
:10D8700094FF03E0D1E90001CDE9010101A92846A7
:10D88000FAF746F800B3E00702D00098C46925E033
:10D8900000983EB1B0F90210B6F90200814203DDF2
:10D8A000084601E0B0F90200B5F90210814205DA3C
:10D8B000BDF90600401E03E0E88011E0BDF90A0052
:10D8C000B5F906108842F7DB0AE001AA294620468E
:10D8D000FFF7BDFF2046F8F747FF046A002CF4D19C
:10D8E0000098046A6846F8F727FF002CB4D1FEBD03
:10D8F0002DE9F0410C46C96886B049B306685EB3AD
:10D9000094F83000012829D0E2696FF00303206801
:10D9100003EB8202656810446060276A2D1D28466B
:10D92000A269FAF771FA61694FF000080291CDE936
:10D930000358CDF81480A1690120CDE90001F068F9
:10D94000E368E26A456839463046A847C4F80C8067
:10D95000002006B0BDE8F0810120FAE72568656087
:10D96000A76ADCE7F8F7DEBD2DE9F0470D46B3F90D
:10D97000041006461C469146B14220DCB4F908006A
:10D98000B0421CDBB4F90600A84218DCB4F90A2046
:10D99000AA4214DB2F1A711A88463A466069F9F7D1
:10D9A00035FA60B1B4F90800B4F90410401A401C0B
:10D9B00000FB0780203454F82000BDE8F087D9F838
:10D9C00000000028F9D0C1682A464B693146BDE8FD
:10D9D000F04718470078704701207047012901D0AF
:10D9E000002070470048704768300108012901D0C5
:10D9F000002070470048704768300108012901D0B5
:10DA0000002070470048704750390108262946D247
:10DA1000DFE801F045431D191B451F454513151748
:10DA20002145232545454527292B31454533454586
:10DA300045454545372D2F3F453B1A4870471A4805
:10DA400070471A4870471A4870471A4870471A4872
:10DA500070471A4870471A4870471A4870471A4862
:10DA600070471A4870471A4870471A4870471A4852
:10DA700070471A4870471A48704700688068006B02
:10DA8000704700688068806B704700688068C06B72
:10DA9000704700688068006C70471248704700202B
:10DAA000704700008FF00008B7F0000801F0000890
:10DAB00025ED000865DC000875EA00080DF1000896
:10DAC00099E00008EBE20008E1E200089BEA0008A8
:10DAD000DFEA0008CDEA000813BA000833F10008B5
:10DAE0005DEB000879E80008162901D00020704796
:10DAF0000048704725770008162901D0002070479C
:10DB000000487047DD75000870B500240D460228F6
:10DB100007DAF8F7A7FF20B1C1688A6A294690475B
:10DB20000446204670BD80680F2917D2DFE801F057
:10DB300016080A0C0E1616161014121214141400DD
:10DB4000C0687047006970474069704780697047D6
:10DB50001020704701207047002070474FF0FF30C1
:10DB600070470068C268926A1047082901D00020F7
:10DB700070472020704710B5FBF7CEF9B0F5807FD5
:10DB800003D0802803D307211AE0082118E0402899
:10DB900001D3062114E0202801D3052110E010282C
:10DBA00001D304210CE0082801D3032108E0042854
:10DBB00001D3022104E0022801D3012100E0002169
:10DBC00001208840401E10BD0F207047FF20704785
:10DBD000FF2070474FF6FF7070474FF0FF307047DF
:10DBE0004FF6FF7070474FF6FF7070474FF6FF70AB
:10DBF00070476FF07F4070474FF0FF30704770B54F
:10DC000000240646012531462846FFF77DFF844261
:10DC100000DA04466D1EF6D5204670BD0146054A61
:10DC20000F2000BF02EBC003DB6B8B4201D9401E0B
:10DC3000F8D570475CC001208068C369006802FBAA
:10DC4000031130F81100704710B50846114601F075
:10DC500081FE008810BD10B50846114601F098FEFF
:10DC6000006810BD70B514460D46064600F0AAFACD
:10DC7000B068002803D0016A2960406A206070BD46
:10DC8000806800220A804A80828A521E8A80008B25
:10DC9000401EC880704738B50C468068F8F702FD12
:10DCA000009081882180C188618081880289114427
:10DCB000491EA180C18840890844401EE080684612
:10DCC000F8F73AFD38BD38B50C468068F8F7EAFC3D
:10DCD000009081882180C1886180818802891144F7
:10DCE000491EA180C18840890844401EE0806846E2
:10DCF000F8F722FD38BD0000024909684884002079
:10DD000070470000FC000020024909688884002058
:10DD100070470000FC000020054A904201D1503AB3
:10DD200001E000F1080209B18A4200D010467047B4
:10DD3000ECC101200349884202D1A1F13C007047A7
:10DD40000C30704754C201200021FFF7E5BF0000EE
:10DD5000F0B4124C646814B1A446F0BC6047541E81
:10DD600004FB030401EB82000D4DDFF838C0001FF7
:10DD70002188E41A01F01F06521EAF5DC1F345165B
:10DD800005EBD1211CF80660097801EB062101EBB7
:10DD9000074140F80419EBD1F0BC7047B0000020F7
:10DDA0001C1F01083C1F0108F0B40B4C646814B13F
:10DDB000A446F0BC6047046818442506C4F307264F
:10DDC0002D0AC4F3074445EA0625254320C1521E07
:10DDD000F1D1F0BC704700007001002010B504685C
:10DDE000184410C1521EFAD110BD00002DE9F047B1
:10DDF0001446521E984602FB080601EB8405DFF824
:10DE00003090DFF830A02D1F3778D9F8041038464D
:10DE100088470AEB1711A6EB08060978641EC1F1C2
:10DE2000FF0140EA016045F80409EDD1BDE8F08743
:10DE3000F41B01080C1C01082DE9F0471446521E82
:10DE4000984602FB080601EB8405DFF82C902D1F95
:10DE50004FF07F4A3788D9F80410F8B2884707F4A2
:10DE60007F428AEA0241014345F80419A6EB0806FD
:10DE7000641EEFD1BDE8F087DCFC0008F0B4144C60
:10DE8000646814B1A446F0BC6047541E04FB03044C
:10DE900001EB82000F4D001F2188E41A01F01F06DC
:10DEA000521E15F806C0C1F34416AF5DC1F38426B7
:10DEB00041F3C031AE5DC1F1FF0106EB072606EB71
:10DEC0000C4606EB016140F80419E5D1F0BC70473F
:10DED000A00000201C1F0108F0B4144C646814B1A9
:10DEE000A446F0BC6047541E04FB030501EB82000E
:10DEF0000F49001F2C88ED1AC4F3032611F806C041
:10DF0000C4F303168F5D04F00F0601EB14348E5D2D
:10DF10002478E443240604EB064404EB0724644419
:10DF200040F80449521EE5D1F0BC7047A80000201B
:10DF30000C1C01082DE9F0410E4C64681CB1A4468C
:10DF4000BDE8F04160474FF07F460568184405F092
:10DF5000FF0EC5F3072CC5F3074726EA050444EA7C
:10DF60000E4545EA0C253D43254320C1521EECD108
:10DF7000BDE8F081B800002070B50446FAF7CCFF88
:10DF80000546FAF7E1FFAC4201D3002070BD00283E
:10DF9000FCD050F8240070BD70B5C0F38001C0F310
:10DFA000C00201EA000602EA0003C0F3400404EAEA
:10DFB000000560193144C5EBC010C6EBC1111A440D
:10DFC000C3EBC21240EA012040EA024070BD0000EB
:10DFD00010B507490446C0B249688847054901EBB6
:10DFE00014110978C1F1FF0140EA016010BD000081
:10DFF000F41B01080C1C010810B506490446C0B208
:10E000004968884704F47F414FF07F4282EA01412A
:10E01000084310BDDCFC000810B50A49C0F3842297
:10E02000C0F344148B5C00F01F0240F3C0308A5CE4
:10E03000095DC0F1FF0003EB012101EB024101EB9F
:10E04000006010BD1C1F010810B50A49C0F303226F
:10E0500000F00F048B5CC0F30312C0F303300C5DBF
:10E06000085C8A5CC043000600EB044000EB022021
:10E07000184410BD0C1C010810B54FF07F41C4B20C
:10E08000C0F30723C0F30742814341EA044040EA5A
:10E0900003201043084310BD70B5054600F092F808
:10E0A000044600220121A869F6F714FC204370BD44
:10E0B00070B5184D0446E868011DC0E90E01091D40
:10E0C00000646161417C05F1240050F82100C168C1
:10E0D0000A6B04F1080190470F48E066A868E06108
:10E0E000E8680830606101202076FCF739F8A06408
:10E0F000032084F870006FF070402063606300209C
:10E10000FBF738F96FF07F40FBF76CF903482861A3
:10E1100070BD0000F00000206CFD00087C1F0108AD
:10E120002DE9F041244C94F82400002841D1012528
:10E1300004F1BC0684F8245071684FF420508142E9
:10E1400000D90146306801F033F8B06810B9706842
:10E150008008B0601A49194808600846FAF70CFCB4
:10E160005A20E0610020102101FA00F204EBC00304
:10E17000401CDA631028F7D3D6E900100223C4E963
:10E1800002030E18143EC4E90C6100224FF0040C87
:10E190005B1E05E0571C0CEBC20E521C46F80E70BD
:10E1A0009342F7D825626360FDF746F9FFF752F80E
:10E1B000E562BDE8F08100005CC0012085E3000855
:10E1C000E800002010B50446806848B94820F8F7F8
:10E1D000E7F948220021A060FAF70CFCA06808B11A
:10E1E000002010BD012010BDFEB514460D460646A8
:10E1F000F8F7BAFA0090836A980731D52846FCF7F9
:10E20000A5FF00282CD040F601000340012B27D0A9
:10E210003046F8F747FA02460090294601A8FAF777
:10E22000BCFA01A8FCF792FFB8B1009944F22002B1
:10E23000886A104205D0083101AA0846F9F7A6FA03
:10E240000BE0DDE9012320438862C1E9022305498F
:10E250008888401C8880F9F713FC6846F8F76CFA48
:10E26000FEBD0000E40100207047884200DD084642
:10E2700070472DE9F0478AB00446002091468A464F
:10E2800001900290039006AE4FF00308049022E044
:10E290002046F8F707FA4A4651460090F9F7A2FAE5
:10E2A00000984A4651460830F9F79CFA0098D0E9A0
:10E2B00007576846F8F740FA4A4651462846FFF79E
:10E2C000D8FFCDF80480CDE906A901A9204604961F
:10E2D000FCF7C4FF3C46002CDAD10AB0BDE8F08759
:10E2E000002280690621F6F7F5BA0022806905212F
:10E2F000F6F7F0BA38B505464FF48071FBF7E1FC4C
:10E300002846F8F7CFF9009090F828406846F8F7CB
:10E3100013FAA00703D501212846FCF7D2F938BD2E
:10E32000F8B50C4606464FF48071FBF724FC3046E6
:10E33000F8F7B8F90090018D078E8DB26846F8F7AE
:10E34000FBF9022C02D13846F9F7A2FBA80703D546
:10E3500021463046FCF7B5F9F8BD000010B5084C71
:10E36000A068F8F7FBF8E068F8F7F8F82069F8F724
:10E37000F5F800202061E060A0606061A06110BD40
:10E38000C00000200B4910B5002081F82400014690
:10E39000084880223C30FAF72DFBBC2200210548BA
:10E3A000FAF728FB03480C220021BDE81040BC30DE
:10E3B000FAF720BB5CC00120084910B50020886135
:10E3C000014678220648FAF715FB04480822002186
:10E3D000BDE810402430FAF70DBB0000F00000202B
:10E3E00024C1012010B5034C6068F8F7B7F800208D
:10E3F000606010BD7C0100200B4A10B500215170F7
:10E40000D162084602F1500402F14803C2F810102C
:10E4100044F8201043F82010401C0228F8D3116261
:10E4200051625161D16110BDE4010020F8B50E4682
:10E430000546F8F737F90090448E6846F8F77CF9FE
:10E44000F16889B1087A00284FEAC45005D0002845
:10E4500002DB2846FFF74EFFF8BD0028FCDA022158
:10E460002846FFF75DFFF8BD0321F9E7F0B589B055
:10E470000746F8F717F90090468E3846C6F3002491
:10E48000FCF7EBFC08B1254600E002250098406D42
:10E49000F9F792FA01A8F8F72BFDDDE90101CDE9C2
:10E4A000030144B10099C86A406940B180470098AF
:10E4B000C06A026811E00098C06A4068F6E7086D1B
:10E4C000FAF790FFBDF90A30BDF90820BDF9041034
:10E4D000BDF90600F8F722FC012203A90846FAF765
:10E4E0003DFA009800EB8500406BFAF743FF009877
:10E4F00000EB8500006CFAF775FF03A8FCF73EFA05
:10E50000F8F7F2F90098022D06DA006F10B10CB19D
:10E51000012004E0002002E0406F00B102200099D9
:10E5200001EB8000C56E6846F8F706F900231A462D
:10E5300039462846F8F7A8FA3846F8F7B3F80090B5
:10E54000806E18B3DDE90301CDE9050124B1012294
:10E55000114605A8F9F746F900985E30B0F9022097
:10E56000B0F9001005A8F9F73DF90220F9F77EFA95
:10E570000098806EF8F796F800990790B1F95C2042
:10E5800005A9F8F72DFB07A8F8F7D6F8F0070CD087
:10E590000098C06CFAF726FF0098C06A016802294B
:10E5A00000DC022101A8F8F741FB0020FCF7E6F9A6
:10E5B0006846F8F7C1F809B0F0BD30B58DB0F8F78E
:10E5C00071F808900BA8FBF7BBFD08980BA9C06A6F
:10E5D000026804A8FAF7C2F90898416BFBF7A3FA9E
:10E5E0000446089890F86810C90722D0DDE90401B4
:10E5F000CDE90601ADF81A4006A8FCF7BFF90025E1
:10E600002B462A46294600950898FEF7EBFCDDE9E3
:10E610000401CDE90601641EADF81E4006A8FCF712
:10E62000ADF900231A46012100950898FEF7DAFC9F
:10E630003DE0FBF734FA019040B10898C06CF9F75F
:10E64000BBF902A9019A0898FBF72CFA0220F9F706
:10E650000DFA0546DDE90401CDE90601601EADF8BD
:10E660001C0006A8FCF78AF901980090BDF90A3051
:10E67000BDF9082000210898FEF7B4FCDDE904018B
:10E68000CDE90601ADF8184006A8FCF777F9019826
:10E690000090BDF90A30BDF9082001210898FEF765
:10E6A000A1FC2846F9F7E2F901A8F8F745F800209F
:10E6B000FCF764F90BA90898FBF733FB08A8F8F7F7
:10E6C0003BF80DB030BD000010B50446F8F74CF82B
:10E6D000806AC00301D5034900E003492046BDE834
:10E6E000104008479973000845B000082DE9FC4127
:10E6F0001F4C80462068806CF7F7D4FF009040469E
:10E70000F7F7D0FF0146019000980830F9F700F9BB
:10E7100028B32068009A0199D0E91356083201F114
:10E720000800FAF73AF86846F8F706F8114FC7F804
:10E73000248001992068B1F90020C264B1F9021067
:10E74000016501A8F7F7F8FF4046FFF7BDFF00207D
:10E7500078622068C0E913560120BDE8FC81684654
:10E76000F7F7EAFF01A8F7F7E7FF0020F5E7000059
:10E77000FC000020E40100202DE9FC410546F7F7EC
:10E7800091FF009090F8281089073DD5C46939E0C1
:10E790002046F7F787FF019090F82810C9438907B2
:10E7A0002BD100990831F9F7B3F830B30098D0E9CC
:10E7B00002676846F7F7C0FF01A8F7F7BDFF2046DC
:10E7C000FFF794FF70B12046F7F7CEFF0190204687
:10E7D000FFF7D2FF2046F7F7C7FF01902846F7F76B
:10E7E000C3FF00902846F7F75DFF00902046F7F73B
:10E7F00059FF01900098C0E902670198046A01A8D6
:10E80000F7F79AFF002CC3D16846F7F795FFBDE8EC
:10E81000FC81000010B50E4C6168E06A814209D8A5
:10E82000401EE062FEF716FDE16A491CE16208B194
:10E83000002010BD60680422401E6060206A216BC9
:10E8400002EBC0028A582262012201F8302010BD7A
:10E850005CC00120074910B54A680424521C4A6074
:10E860000A6B04EBC0040B6A1351002302F830302A
:10E87000086210BD5CC00120F0B58668DDE9057452
:10E88000F56902FB05105D1A15F10105D6F800C007
:10E890003CF810C0401C24F802CB6D1EF6D1104687
:10E8A000521CB842ECDBF0BD13B500680199FFF7CC
:10E8B0001FF80198846801A8F7F73EFF2046F7F794
:10E8C00031FE1CBD10B504464068FFF7A7F90146AC
:10E8D000084863680268D21A026000EBC102D4E9FA
:10E8E0000201403200B1416009B1086010BD106002
:10E8F00010BD00005CC001207CB5050025D0144C83
:10E900002068A84206D1F7F7CDFE0090806820600D
:10E91000684611E004462046F7F7C4FE019080687F
:10E92000A8420DD1F7F7BEFE01990090806888607B
:10E930006846F7F701FF01A8F7F7FEFE00207CBD4F
:10E94000044601A8F7F7F8FEE5E701207CBD0000CA
:10E95000980200202DE9F05FDFF894808346D8F814
:10E960003440D8F80810601E0F182046D0E9001572
:10E97000B9BB6619BE4236D2D6E9001989B3D8F8B8
:10E98000303013F83130012B2DD1D8F828209142A6
:10E9900001D1012100E000218A46FFF793FF306892
:10E9A000D8F83010042202EBC0004A460C50314621
:10E9B0002046F7F76DFABAF1000F05D0D8F83010FD
:10E9C000321B891AC8F8301004EB09012846FCF7FD
:10E9D00033FDBBF1000F05D0834503D80020BDE80F
:10E9E000F09F00E04D462C44BC42BED30120F6E728
:10E9F0005CC001202DE9F8431F4690460E460500F5
:10EA00000AD0F7F74FFE3A4641460090FCF754FA19
:10EA100028B10098C46912E00020BDE8F883684678
:10EA2000F7F78AFEF8E73B46424631462046FFF7B5
:10EA3000E1FF00B105462046F7F796FE046A0CB1E7
:10EA4000B442F0D16846F7F777FE2846E5E70000C4
:10EA500070B50646064814460D460068FBF78CFB69
:10EA600023462A463146BDE87040FFF7C3BF000089
:10EA7000EC01002038B50546002000900C462846E1
:10EA8000FFF7A0FBAA68002A06D0946200946A46A9
:10EA90000A21A869F5F71EFF38BD08B56A4600913E
:10EAA00080690B21F5F716FF08BD0000064910B577
:10EAB00009684A6B824206D04863FAF713F8BDE84A
:10EAC0001040FAF75DBC10BDFC0000201CB5CDE97C
:10EAD000001280696A460D21F5F7FCFE1CBD08B5E1
:10EAE0006A46009180690C21F5F7F4FE08BD00002C
:10EAF0001FB504460F480168486C38B1026802929D
:10EB0000406803900C48406A18B901E020460EE0C6
:10EB1000886CF7F7C7FD02A90090FBF767FF68460E
:10EB2000F7F70AFE214602A8F9F71AFE02A8FAF73B
:10EB300033FC1FBDFC000020E4010020064910B595
:10EB400009680A6B824206D00863F9F7CBFFBDE87B
:10EB50001040FAF74DBC10BDFC00002070B5144603
:10EB60000D460646FFF72EFBB068002809D0232D7E
:10EB700012D007DC192D0BD0202D0BD0212D00D168
:10EB8000446370BD242D09D0252DFAD1C46370BD16
:10EB9000046370BD846370BD046470BD446470BD63
:10EBA00030B509490B681A7C82EA0004640707D56E
:10EBB0009C6BDB6B25681B6823600B68DB6B1D603F
:10EBC00009680874104630BDFC0000202DE9FC41A6
:10EBD000074600200090019015460E46BC68B869B3
:10EBE000FAF794F98046B869FAF793F948EA4008C9
:10EBF000B869FAF7D3F948EA8000082825D2DFE897
:10EC000000F004070E101B1E2B2DCDE900651CE043
:10EC1000E1686069401A801BCDE9000515E00096A7
:10EC200004E0E1686069401A801B00902169A069D6
:10EC3000401A401B019008E0CDE9005605E021692B
:10EC4000A069401A401BCDE900066A460321B86955
:10EC5000F5F740FEBDE8FC81009504E02169A0695C
:10EC6000401A401B0090E1686069401A801BE1E790
:10EC70000068C3681B6A18470068C3681B6A1847A6
:10EC800010B58068C469006802FB041120F81130D7
:10EC900010BD00007CB510481C46154600680E46A5
:10ECA000006EF7F7FFFC01902946304600F052FE57
:10ECB00004800198406950B1F7F7F4FC0090816836
:10ECC0002A460B68314698476846F7F735FD01A894
:10ECD000F7F732FD7CBD0000FC0000207CB5104839
:10ECE0001E46144600680D46006EF7F7DBFC0190E7
:10ECF0002146284600F04CFE06600198406950B15C
:10ED0000F7F7D0FC0090816822460B6829469847A7
:10ED10006846F7F711FD01A8F7F70EFD7CBD00006E
:10ED2000FC0000207CB506460020009001901446AF
:10ED30000D463046FFF746FAB368002B08D0C3E90A
:10ED40000854CDE900546A460821B069F5F7C2FDC0
:10ED50007CBD00002DE9F74FA8B0F7F7A3FC0390A6
:10ED600001680891B0F9042029998A420AD1B0F9C2
:10ED700006002A99884205D103A8F7F7DDFC2BB0DD
:10ED8000BDE8F08F0020F8F727FB259008988269EE
:10ED90009A4818920168487C1790824200D04A74C1
:10EDA0000398B0F904100991B0F90820B0F906B041
:10EDB000A2EB0101B0F90A2001F1010AA2EB0B015B
:10EDC00001F101012491017C89077DD541690C91F4
:10EDD00000F120011B91099A2999A1EB02082A99B7
:10EDE000B8F1000FA1EB0B074FF0FF3109DD012255
:10EDF00010920022554616926A1ECDF838801E9257
:10EE000009E0AAF10102169200220E92169A0D460E
:10EE1000424410911E92002F09DD0121DDF89090EF
:10EE20001D91A9F101011F9700240B9107E01D918D
:10EE3000249C89460021641E1F91E1190B91C06832
:10EE4000F7F730FC2190089804A9C068026B089875
:10EE5000904710990398FCF706FE1A9010990398B2
:10EE6000FCF701FE2290A1E01F98844204DB0B987E
:10EE7000844201DC012000E0002026900BEB04001E
:10EE800038440790169E8CE000202390224631469D
:10EE90000C98F7F7BBFF209000287DD01B9800EB63
:10EEA000860104FB0AF001EB80000F90099881199C
:10EEB00001EB080006900E98864208DB1E988642F9
:10EEC00005DC269818B100E07EE0012000E000207B
:10EED0000090BDF910100698814215DCBDF91210A2
:10EEE0000798814210DCBDF91410069881420BDBB3
:10EEF000BDF916100798814206DB0146039B089A6C
:10EF00000698FEF731FD2390009840B1B6EB08015A
:10EF100020D4E21B1ED40C98F7F778FFD0B90998DB
:10EF2000BDF91020304404EB0B01824212DCBDF924
:10EF300012208A420EDCBDF9142082420ADBBDF9A0
:10EF400016208A4206DB229A00920F9A089B1268CA
:10EF500000F078F8BDF91010069881421ADCBDF96E
:10EF600012100798814215DCBDF9141006988142F1
:10EF700010DBBDF91610079881420BDBDDE920019B
:10EF80000DF1180C51F820201A980090BCE80B00E5
:10EF900000F058F80F9900E001E0239808601098FD
:10EFA0000644AE427FF470AF1D9804444C457FF494
:10EFB0005BAF1A990398FFF777FC22990398FFF744
:10EFC00073FC21A8F7F7B8FB0398299981802A9947
:10EFD000C18029995144491E0181249A2A991144DA
:10EFE000491E4181DDE91710884203D008460349D4
:10EFF000096848742598F8F7EFF9BDE6FC00002091
:10F000002DE9FC41074600200090019015460E4670
:10F010003846FFF7D7F8BC68002C11D0E06930B94A
:10F02000B869F9F7BBFF08B1E56100E0E661C4E942
:10F030000365CDE900656A460721B869F5F74AFC22
:10F04000BDE8FC812DE9F0410646069C0D461746B9
:10F05000606AA84205D194F93010206A0844B04291
:10F0600003D021461846FEF743FC6068076094F918
:10F070003010606800EB81006060E06808B9C4E9A6
:10F080000A65401CE060C4E90865BDE8F08138B558
:10F090000546002000900C462846FFF793F8AA6822
:10F0A000002A07D05460146000946A460221A869BF
:10F0B000F5F710FC38BD2DE9F04115460E46074620
:10F0C000FFF780F8BC68002C06D0B869F9F766FF36
:10F0D000C4E9056510B1E561BDE8F081E661FBE7D3
:10F0E00008B542630091416C806C521A6423401A47
:10F0F0005A4392FBF0F06946F7F742FB009825214E
:10F1000000F8011B00210090017008BD38B50546CC
:10F11000002000900C462846FFF754F8AA68002A01
:10F1200006D0D46200946A460921A869F5F7D2FB9B
:10F1300038BD38B50446002000900D462046FFF744
:10F1400041F8A068002805D000956A460E21A06904
:10F15000F5F7C0FB38BD000070B5144C0546D4E986
:10F160000010814212D0FCF75BFD297A027A9142AD
:10F170000CD12168814209D0FCF752FD297A007A2E
:10F18000814203D16068FCF74BFD60600ECD606882
:10F1900080E80E00FEF7CEFD60602168814203D159
:10F1A0000846FEF7C7FD206070BD00004802002041
:10F1B000F0B58E080023FF220546002406E0E7187C
:10F1C000B7FBF2FC02FB1C7780C5641CB442F6D38B
:10F1D000054600240BE004EB030CBCFBF2FE80CDE3
:10F1E00002FB1ECCBC4501D00320F0BD641CB44220
:10F1F000F1D35B1C022BDFD34E080023054600240D
:10F2000007E0E718B7FBF2FC02FB1C7725F8027B4E
:10F21000641CB442F5D3054600240CE004EB030C57
:10F22000BCFBF2FE35F8027B02FB1ECCBC4501D0D4
:10F230000220F0BD641CB442F0D35B1C022BDDD372
:10F2400000230546002407E0E618B6FBF2F702FBB0
:10F25000176605F8016B641C8C42F5D30546002443
:10F260000CE000BFE718B7FBF2FC15F8016B02FBDE
:10F270001C77B74201D00120F0BD641C8C42F1D351
:10F280005B1C022BDDD30022134602E000F8013B99
:10F29000521C8A42FAD30020F0BD00007CB5050064
:10F2A00020D0F7F7FFF9104900904C68AC4214D118
:10F2B0004068486013E02046F7F7F4F9019044688D
:10F2C000AC4207D1009801994068486001A8F7F75F
:10F2D00033FA04E001A8F7F72FFA002CEBD16846C7
:10F2E000F7F72AFA7CBD0000980200200A4A8169DB
:10F2F00052F82130834202D1036842F8213041683C
:10F3000009B102680A60016809B142684A600021D7
:10F31000016041607047000014010020006180E836
:10F320000E00104440F8042C704700002DE9F74F00
:10F33000C8488B469CB0D0E90010CDE91910924620
:10F340001C98F7F7AFF91190D0E90454B0F9081000
:10F35000D0F80C800A91DFF80093B0F90A001390FE
:10F36000D9F800004E46407CF7F7A0FD10901198A8
:10F3700000680069406817903068407CF7F71EFE0F
:10F38000064611A8F7F7D8F9082D01D8012004E0A6
:10F39000102D01D8022000E004200F90012D21D073
:10F3A00000271098082871D3082D6FD91798B042FC
:10F3B0006CD0D9F80000407CF7F7F8FD12900A985D
:10F3C0008000F7F78FF81B9000287DD01C98F7F786
:10F3D000C3FF8146002C78D02046F7F763F900265A
:10F3E00018908AE019AFDCE700200C90189832469C
:10F3F00081684B690CA998470A990446884221D133
:10F400001B98F7F74FF9129B179ACDE90023014695
:10F41000169048462246109BFCF7DCFA03AB00200E
:10F42000169A109985C301200090CDE90101034689
:10F430000AEB060158460A9AF9F78EFB16A8F7F769
:10F440007BF958E0012D1ED053E00C9801AB09EB7D
:10F45000E00200F007010492CDE90571012100915D
:10F46000A3E822010AEB0601584401232246FAF7D9
:10F4700065F80C98324620440C90189881684B69C6
:10F480000CA998470446002CDFD134E04FE01B98CC
:10F49000F7F708F9169001460C9B0F98179A03FB93
:10F4A0000090129BCDE900232246109BFCF792FAB4
:10F4B00002AB10980021169A87C3012000900AEB36
:10F4C000060101900C9A01E02EE01EE00BEB020019
:10F4D00001232246F9F740FB16A8F7F72DF90C98FF
:10F4E000324620440C90189881684B690CA99847C3
:10F4F0000446002CCBD1C144761C13988642FFF6FB
:10F5000073AF18A8F7F718F90BE0012001A90597C8
:10F510000090A1E8210351465846139B0A9AF9F737
:10F520001BFB1B98F6F7FEFF1FB0BDE8F08F1C9881
:10F53000F7F712FF8146002C7ED02046F7F7B2F88D
:10F540000024189070E000200C90189822468168E2
:10F550004B690CA998470A99064688421DD1069422
:10F5600000E0641C1898621C81684B690CA99847DC
:10F57000B042F6D0012001A905970090A1E821032F
:10F5800006980A9A261A0AEB0001731C5846F9F7E6
:10F59000E3FA761C06FB089044E0012D1ED03DE006
:10F5A0000C9801AB09EBE00200F007010492CDE9F1
:10F5B000057101210091A3E822010AEB04015844DE
:10F5C00001233246F9F7BAFF0C98224630440C90DA
:10F5D000189881684B690CA998470646002EDFD120
:10F5E0001EE00C9A0F9901AB02FB0190CDE90407D4
:10F5F00001200090A3E821010BEB02000AEB0401BB
:10F6000001233246F9F7A8FA0C98224630440C90B0
:10F61000189881684B690CA998470646002EE0D1DE
:10F6200009EB08008146641C139884428BDB18A800
:10F63000F7F782F878E7FFE7012001A90597009026
:10F64000A1E8210351465846139B0A9AF9F784FA18
:10F650006AE700009C390108FC0000202DE9FF4FFB
:10F660008DB01F4690460D98F7F71CF80890B74EDE
:10F67000B0F90AB000F11804D0F80C903068407C62
:10F68000F7F714FC082801D8012504E0102801D858
:10F69000022500E004250898AD4A01680969079130
:10F6A0003168497C52F821100A6907990692166858
:10F6B000D1F804A091420FD10021CDE904410121EC
:10F6C00001AA0091A2E88202B0F908205B464146F7
:10F6D0000E98F9F741FA30E1202F02D0102F74D0A4
:10F6E0002BE1B0F9084008A8F7F726F805FB04F06D
:10F6F000F6F7F8FE5FEA000AEDD0F6F7D3FF0990BF
:10F700000D98F6F7CFFF00F1180408900898012D26
:10F71000B0F9087004D0022D13D0042D38D121E0A7
:10F720000698DDF82490D0F810C0BCF1000F01D08D
:10F73000012320E001CCB04709F8010B7F1EF9D16D
:10F7400026E00698DDF82490D0F810C0BCF1000F38
:10F7500001D002230FE001CCB04729F8020B7F1E35
:10F76000F9D115E00698DDF82490D0F810C0BCF16E
:10F77000000F07D004233A4649462046E04704EBF1
:10F78000870405E001CCB04749F8040B7F1EF9D18E
:10F790000020E900099ACDE90210CDE904200120FA
:10F7A000009001900898414608F10108B0F908203E
:10F7B00001230E98F9F7D0F9BBF1010BA6D109A8E6
:10F7C000F6F7BAFF5046B6E0FFE7B0F9084008A8E0
:10F7D000F6F7B2FF05FB04F0F6F784FE0C90002864
:10F7E0007BD0F6F75FFF09900D98F6F75BFF00F10D
:10F7F00018040890B0F908008000F6F773FE0B902B
:10F8000010B1F6F74FFF0A900898012DB0F9087073
:10F8100004D0022D23D0042D69D141E00698DDF8F3
:10F820002490006988B10798D0F814C0BCF1000F8B
:10F830000BD00B9848B102233A4620460A99E0477C
:10F8400006980123D0F810C040E034F8020B51466E
:10F850008847B04709F8010B7F1EF6D147E00698AC
:10F86000DDF82490006988B10798D0F814C0BCF185
:10F87000000F0BD00B9848B102233A4620460A9954
:10F88000E04706980223D0F810C01FE034F8020BBE
:10F8900051468847B04729F8020B7F1EF6D126E073
:10F8A0000698DDF824900069C0B10798D0F814C01C
:10F8B000BCF1000F12D00B9880B102233A462046CB
:10F8C0000A99E04706980423D0F810C03A46494602
:10F8D0000A98E04704EB470409E02EE034F8020BF5
:10F8E00051468847B04749F8040B7F1EF6D10020E7
:10F8F000E900099ACDE90210CDE904200120009029
:10F9000001900898414608F10108B0F90820012348
:10F910000E98F9F721F9BBF1010B7FF475AF0B9845
:10F9200028B10AA8F6F708FF0B98F6F7FBFD09A81F
:10F93000F6F702FF0C98F6F7F5FD0898002802D0BC
:10F9400008A8F6F7F9FE11B0BDE8F08FFC00002022
:10F950001401002038B505460C480C460068006EBE
:10F96000F6F7A0FE0090B0F90620C36800F1180178
:10F97000A21A02FB0311B0F9040001EB4501A1EB4F
:10F9800040046846F6F7D8FE204638BDFC0000204B
:10F9900038B505460C480C460068006EF6F782FE46
:10F9A0000090B0F90620C36800F11801A21A02FB0A
:10F9B0000311B0F9040001EB8501A1EB8004684656
:10F9C000F6F7BAFE204638BDFC0000202DE9F041D4
:10F9D00015460E460446FEF72FF907462069806853
:10F9E000804787EA00032A4631462046BDE8F041B9
:10F9F000FFF746B9FEB50746124815460E460068A1
:10FA0000006EF6F74FFE019029463046FFF7A2FF41
:10FA100004463869806880472188414021800198E8
:10FA2000406950B1F6F73EFE009081682A460B68A7
:10FA3000314698476846F6F77FFE01A8F6F77CFE48
:10FA4000FEBD0000FC000020FEB5144815460E4621
:10FA50000068006EF6F726FE019029463046FFF753
:10FA600097FF044601980068006980688047014656
:10FA70002068484020600198406950B1F6F712FEB6
:10FA8000009081682A460B68314698476846F6F729
:10FA900053FE01A8F6F750FEFEBD0000FC0000205A
:10FAA00002E008C8121F08C1002AFAD17047704747
:10FAB000002001E001C1121F002AFBD17047FAF7B4
:10FAC000CABD0000F8B50F4C07462068806CF6F7F9
:10FAD000E9FD00902268D0E90256D2E90212C0E99D
:10FAE00002126846F6F728FE3868FBF7F3FA20683A
:10FAF000806CF6F7D7FD0090C0E902566846F6F72D
:10FB00001BFEF8BDFC00002010B5044600680E285E
:10FB100002D00F2817D108E0E0684168012917D109
:10FB20000068BDE81040F7F7B3BF6068FCF78CF8D9
:10FB3000084951F820006FF07041884203D0F7F770
:10FB400035FFF6F7D1FE2046BDE81040FAF726BA99
:10FB500010BD000024020020F8B5F9F735FCF9F7D4
:10FB6000C9FA04003BD100252846F6F77BFF009038
:10FB700048B1C0680C21426A68469047010007D02E
:10FB80000098884704436D1C022DEDDB14B126E07C
:10FB90000120F8BDF9F7C8FA012540F6FF7628469E
:10FBA000F6F760FF0090C0B12846F7F7EDFE04209D
:10FBB000F9F740FC0021324633460846F9F75AF976
:10FBC0000020F9F737FC00980E21C068426A6846A9
:10FBD0009047010001D0009888476D1EDFD5204670
:10FBE000F8BD000010B5002821D0114B0022001FE5
:10FBF000196803E0814203D80A4649680029F9D10F
:10FC000052B11368841A9C4204D1006818441060F1
:10FC1000104602E0506000E0186039B102680B1A2B
:10FC2000934203D10B681A4402604968416010BDD9
:10FC3000C4020020F0B50B30154D20F00701002460
:10FC4000144A0FE003688B420BD38B4205D95E1A2E
:10FC500043184768C3E9006700E04368136002C0C7
:10FC600004E0021D10680028ECD12046002802D1D3
:10FC7000286808B10020F0BD064A07481060074A0E
:10FC8000121A22F00702C0E9002401202860D7E7F9
:10FC9000C8020020C4020020ECC20120E8C60120F6
:10FCA0000F0000000F000000FF0000000F00000028
:10FCB0000F0000000F00000000000000000000D056
:10FCC00000B004D0B1B80008D1DF0008CDDB0008D7
:10FCD0000100000071B60008EDDD0008018B00088E
:10FCE00051900008D1DB0008000000000000000077
:10FCF00000000000D9B80008F9DF0008D5DB0008D3
:10FD000001000000B5B6000839DE000801B900089E
:10FD100019E00008E1DB000801000000F1B600086E
:10FD20007DDE000839B9000849E00008E7DB00087B
:10FD3000010000004DB70008D9DE000875B90008C1
:10FD4000B5900008EDDB000801000000E1B50008F7
:10FD500051DD0008B5B9000879E00008F9DB0008BA
:10FD600000000000A5B7000835DF0008618D00081D
:10FD7000B98D0008A1B90008E1900008F3DB000884
:10FD8000010000002DB60008A9DD00083DEB0008C9
:10FD9000ADEA0008A1EB00080000000015C800084B
:10FDA0006BCF000889D0000859D3000839DC00085F
:10FDB00081EC0008CDF90008CDEB00080DDA000851
:10FDC00027DB0008DDD9000881DC00080000000006
:10FDD0000000000000000000000000606060606043
:10FDE00060006060000000D8D8D8D8000000000093
:10FDF00000000000000000120012007F007F0024BD
:10FE000000FE00FE00480048000000000010107CCA
:10FE1000D2D0D07C1616967C10100000000078001E
:10FE2000CC40CC80CD007AF005980998119800F06C
:10FE300000000000000000003C0066006600660054
:10FE40003CC066C0638063003DC0000000000060ED
:10FE500060606000000000000000000018303060AA
:10FE6000606060606030301800603030181818181A
:10FE7000181830306000185A3C5A18000000000072
:10FE800000000000000000000400040004003F80A7
:10FE90000400040004000000000000000000000056
:10FEA00000000000006060C0C0000000000000F81A
:10FEB00000000000000000000000000000000060E2
:10FEC00060000000040408081010202040408080DA
:10FED00000007CC6C6C6C6C6C6C67C0000000018A8
:10FEE000781818181818187E000000007C868606FE
:10FEF0000C183060FE000000007C8606063C0606FA
:10FF0000867C000000000C1C2C4C8CFE0C0C0C00A1
:10FF10000000007E60607C060606867C0000000013
:10FF20003C60C0FCC6C6C6C67C00000000FE060CD5
:10FF30000C1818303030000000007CC6C6C67CC6E5
:10FF4000C6C67C000000007CC6C6C6C67E060C780D
:10FF50000000000000006060000000606000000021
:10FF600000000060600000006060C0C00000000091
:10FF70000000018006001800600060001800060004
:10FF800001800000000000000000000000007F80F1
:10FF9000000000007F800000000000000000000062
:10FFA00000000000000060001800060001800180D1
:10FFB000060018006000000000000000788C0C189B
:10FFC00030300030300000000000003E0041009E54
:10FFD00080B680B680B680B6809B0040003F0000AF
:10FFE00000000000001C001C003600360063007F8B
:10FFF000006300C180C180000000000000FCC6C694
:020000040801F1
:10000000C6FCC6C6C6FC000000007CC2C2C0C0C0A0
:10001000C2C27C000000000000FC00C600C300C398
:1000200000C300C300C300C600FC000000000000C5
:1000300000FCC0C0C0F8C0C0C0FC00000000FCC094
:10004000C0C0F8C0C0C0C0000000007CC2C2C0CEAA
:10005000C6C6C67E000000000000C300C300C30087
:10006000C300FF00C300C300C300C30000000000C2
:100070000000F060606060606060F0000000007888
:1000800018181818181818F000000000C6CCD8F07E
:10009000E0F0D8CCC600000000C0C0C0C0C0C0C0E6
:1000A000C0FC000000000000E1C0E1C0B2C0B2C06E
:1000B0009CC09CC088C088C080C0000000000000B8
:1000C000E2E2B2B29A9A8E8E860000000000007EB4
:1000D00000C300C300C300C300C300C300C3007E4D
:1000E00000000000000000FCC6C6C6C6FCC0C0C0C0
:1000F0000000000000007E00C300C300C300C30076
:10010000C300C300C3007E0006000300000000001F
:10011000FC00C600C600C600FC00D800CC00C6002B
:10012000C3000000000000007CC2C2C07C068686BE
:100130007C00000000FC30303030303030300000C7
:100140000000C6C6C6C6C6C6C6C67C000000000003
:1001500000C300C300C300660066003C003C0018FA
:100160000018000000000000000000C630C630C6C5
:1001700030CF306F6079E079E030C030C0000000EF
:100180000000000000C300C30066003C0018003CF3
:10019000006600C300C3000000000000000000C3B0
:1001A00000C300660066003C001800180018001824
:1001B00000000000000000FC0C0C183060C0C0FC07
:1001C000000000786060606060606060606078007F
:1001D000808040402020101008080404007818187F
:1001E000181818181818181878000000000C0012B9
:1001F000002100408000000000000000000000001E
:10020000000000000000000000000000000000FFEF
:100210000030180000000000000000000000000096
:10022000003C46067EC6C67E000000C0C0C0DCE6BC
:10023000C6C6C6C6FC00000000000078C4C0C0C02E
:10024000C4780000000606067EC6C6C6C6CE760086
:1002500000000000007CC6C6FEC0C27C0000003862
:100260006060F06060606060600000000000007E20
:10027000C6C6C6C6CE76067C00C0C0C0DCE6C6C612
:10028000C6C6C6000000C0C000C0C0C0C0C0C0C05C
:10029000000000606000E060606060606060C0005E
:1002A000C0C0C0CCD8F0E0F0D8CC000000C0C0C0C6
:1002B000C0C0C0C0C0C0C0000000000000000000FE
:1002C00000FB80CCC0CCC0CCC0CCC0CCC0CCC0006B
:1002D00000000000000000DCE6C6C6C6C6C600007E
:1002E000000000007CC6C6C6C6C67C000000000038
:1002F00000DCE6C6C6C6C6FCC0C0000000007EC664
:10030000C6C6C6CE76060600000000D8F8C0C0C03B
:10031000C0C000000000000078C4E0781C8C7800A9
:100320000000006060F860606060603800000000FD
:100330000000C6C6C6C6C6CE76000000000000C6D5
:10034000C6C66C6C383800000000000000000000D9
:10035000CCC0CCC06D806D80738033003300000052
:10036000000000000000CCCC783078CCCC0000003D
:10037000000000C6C6C66C6C38381830000000009B
:10038000FC0C183060C0FC0000001C30303030E045
:1003900030303030301C00303030303030303030A1
:1003A00030303000E0303030301C3030303030E031
:1003B000000000000000000000007840FC408FC0FA
:1003C000878000000000000000000000040401001D
:1003D000CCFD000805050100D9FD00080606010056
:1003E000E6FD000809090200F3FD00080808010005
:1003F0000DFE00080E0E02001AFE00080B0B020094
:1004000034FE0008040401004EFE00080606010048
:100410005BFE00080606010068FE000808080100EF
:1004200075FE00080B0B020082FE000804040100A8
:100430009CFE000806060100A9FE00080404010055
:10044000B6FE000808080100C3FE00080808010005
:10045000D0FE000808080100DDFE000808080100C1
:10046000EAFE000808080100F7FE0008080801007D
:1004700004FF00080808010011FF00080808010037
:100480001EFF0008080801002BFF000808080100F3
:1004900038FF00080808010045FF000805050100B5
:1004A00052FF0008050501005FFF00080B0B02006A
:1004B0006CFF00080B0B020086FF00080B0B02000C
:1004C000A0FF000807070100BAFF00080A0A02009F
:1004D000C7FF00080A0A0200E1FF0008080801003F
:1004E000FBFF0008080801000800010809090200D4
:1004F00015000108070701002F000108060601008A
:100500003C0001080808010049000108090902002F
:1005100056000108050501007000010806060100EB
:100520007D000108080801008A0001080707010092
:10053000970001080B0B0200A40001080808010045
:10054000BE00010809090200CB00010808080100EB
:10055000E500010809090200F2000108090902008A
:100560000C01010808080100260101080707010025
:1005700033010108080801004001010809090200CF
:100580004D0101080D0D0200670101080909020073
:1005900081010108090902009B0101080707010008
:1005A000B501010806060100C201010808080100A2
:1005B000CF01010806060100DC0101080B0B020057
:1005C000E90101080808010003020108070701000A
:1005D00010020108080801001D02010808080100B6
:1005E0002A02010807070100370201080808010074
:1005F0004402010808080100510201080505010034
:100600005E020108080801006B02010808080100E9
:1006100078020108030301008502010804040100B7
:1006200092020108070701009F020108030301006D
:10063000AC0201080B0B0200B90201080808010016
:10064000D302010808080100E002010808080100BF
:10065000ED02010808080100FA020108060601007F
:10066000070301080707010014030108060601003B
:1006700021030108080801002E03010808080100F1
:100680003B0301080B0B02004803010807070100A8
:1006900062030108080801006F0301080707010051
:1006A0007C0301080707010089030108070701000F
:1006B0009603010807070100A30301080B0B0200C2
:1006C000B003010820007E00CC03010800000000F8
:1006D000AD63000875640008B9640008BF640008D1
:1006E00000000000000000000D0D0101C40601081B
:1006F0000B070900000000000000000000000000DF
:10070000000000000000183C3C3C181800181800BD
:1007100000000000006666660000000000000000A7
:100720000000000036367F3636367F363600000051
:100730000018183C666030180C06663C181800005B
:100740000070D8DA760C18306E5B1B0E00000000CB
:1007500000386C6C38606F66663B0000000000007B
:100760001818180000000000000000000000000C35
:100770001818303030303018180C000000003018D5
:10078000180C0C0C0C0C181830000000000000367F
:100790001C7F1C360000000000000000000018183C
:1007A0007E1818000000000000000000000000009B
:1007B00000001C1C0C1800000000000000007E005F
:1007C0000000000000000000000000000000000029
:1007D0001C1C00000000000006060C0C181830302D
:1007E000606000000000001E333737333B3B331E90
:1007F0000000000000000C1C7C0C0C0C0C0C0C000D
:1008000000000000003C6666060C1830607E0000A8
:10081000000000003C6666061C0666663C000000A0
:100820000000003030363636667F060600000000D5
:1008300000007E6060607C06060C7800000000000E
:10084000001C18307C666666663C000000000000F4
:100850007E060C0C18183030300000000000003C00
:100860006666763C6E66663C0000000000003C66F2
:100870006666663E0C183800000000000000001C90
:100880001C0000001C1C00000000000000001C1CDC
:100890000000001C1C0C1800000000060C18306042
:1008A00030180C060000000000000000007E007EF2
:1008B0000000000000000000006030180C060C185A
:1008C00030600000000000003C66660C181800183C
:1008D000180000000000007EC3C3CFDBDBCFC07F69
:1008E000000000000000183C6666667E66666600D2
:1008F00000000000007C6666667C6666667C000020
:10090000000000003C666660606066663C000000B7
:10091000000000786C66666666666C780000000011
:1009200000007E6060607C6060607E00000000000F
:10093000007E6060607C606060600000000000001D
:100940003C666660606E66663E0000000000006601
:100950006666667E666666660000000000003C18FB
:100960001818181818183C000000000000060606A9
:1009700006060666663C00000000000066666C6CB9
:10098000786C6C666600000000000060606060606B
:100990006060607E0000000000006363776B6B6B3B
:1009A0006363630000000000006363737B6F676331
:1009B00063630000000000003C666666666666666B
:1009C0003C0000000000007C6666667C6060606041
:1009D0000000000000003C666666666666663C0CC9
:1009E00006000000007C6666667C6C666666000039
:1009F000000000003C666030180C06663C000000F9
:100A00000000007E181818181818181800000000A8
:100A1000000066666666666666663C00000000006A
:100A200000666666666666663C18000000000000A8
:100A30006363636B6B6B3636360000000000006644
:100A4000663418182C6666660000000000006666B2
:100A500066663C181818180000000000007E0606A4
:100A60000C183060607E0000000000003C30303028
:100A7000303030303030303C0000006060303018B2
:100A8000180C0C060600000000003C0C0C0C0C0CB2
:100A90000C0C0C0C0C3C00183C6600000000000024
:100AA0000000000000000000000000000000000046
:100AB000000000FF0038180C0000000000000000DB
:100AC00000000000000000003C06063E66663E0096
:100AD000000000000060607C66666666667C000060
:100AE0000000000000003C66606060663C000000A2
:100AF00000000006063E66666666663E0000000070
:100B0000000000003C66667E60603C000000000063
:100B1000001E3030307E30303030000000000000E9
:100B200000003E66666666663E06067C0000006063
:100B3000607C666666666666000000000018180045
:100B40007818181818187E00000000000C0C003CE3
:100B50000C0C0C0C0C0C0C0C780000006060666631
:100B60006C786C6666000000000000781818181891
:100B70001818187E00000000000000007E6B6B6BF0
:100B80006B6B6300000000000000007C6666666618
:100B9000666600000000000000003C66666666664F
:100BA0003C00000000000000007C66666666667C13
:100BB00060606000000000003E66666666663E0695
:100BC00006060000000000666E7060606060000055
:100BD0000000000000003E60603C06067C00000053
:100BE00000000030307E30303030301E0000000019
:100BF000000000006666666666663E000000000053
:100C000000000066666666663C1800000000000092
:100C10000000636B6B6B6B36360000000000000059
:100C20000066663C183C666600000000000000009C
:100C30006666666666663C0C18F000000000007E82
:100C4000060C1830607E0000000000000C18181818
:100C50003060301818180C00000000181818181808
:100C600018181818181818000000301818180C0652
:100C70000C181818300000000071DB8E0000000016
:100C800000000000000000007E7E7E7E7E7E7E7E74
:100C90007E00000008080100F406010808080100B1
:100CA00003070108080801001207010808080100ED
:100CB00021070108080801003007010808080100A1
:100CC0003F070108080801004E0701080808010055
:100CD0005D070108080801006C0701080808010009
:100CE0007B070108080801008A07010808080100BD
:100CF0009907010808080100A80701080808010071
:100D0000B707010808080100C60701080808010024
:100D1000D507010808080100E407010808080100D8
:100D2000F30701080808010002080108080801008B
:100D3000110801080808010020080108080801003E
:100D40002F080108080801003E08010808080100F2
:100D50004D080108080801005C08010808080100A6
:100D60006B080108080801007A080108080801005A
:100D7000890801080808010098080108080801000E
:100D8000A708010808080100B608010808080100C2
:100D9000C508010808080100D40801080808010076
:100DA000E308010808080100F2080108080801002A
:100DB00001090108080801001009010808080100DC
:100DC0001F090108080801002E0901080808010090
:100DD0003D090108080801004C0901080808010044
:100DE0005B090108080801006A09010808080100F8
:100DF00079090108080801008809010808080100AC
:100E00009709010808080100A6090108080801005F
:100E1000B509010808080100C40901080808010013
:100E2000D309010808080100E209010808080100C7
:100E3000F109010808080100000A0108080801007A
:100E40000F0A0108080801001E0A0108080801002D
:100E50002D0A0108080801003C0A010808080100E1
:100E60004B0A0108080801005A0A01080808010095
:100E7000690A010808080100780A01080808010049
:100E8000870A010808080100960A010808080100FD
:100E9000A50A010808080100B40A010808080100B1
:100EA000C30A010808080100D20A01080808010065
:100EB000E10A010808080100F00A01080808010019
:100EC000FF0A0108080801000E0B010808080100CC
:100ED0001D0B0108080801002C0B0108080801007F
:100EE0003B0B0108080801004A0B01080808010033
:100EF000590B010808080100680B010808080100E7
:100F0000770B010808080100860B0108080801009A
:100F1000950B010808080100A40B0108080801004E
:100F2000B30B010808080100C20B01080808010002
:100F3000D10B010808080100E00B010808080100B6
:100F4000EF0B010808080100FE0B0108080801006A
:100F50000D0C0108080801001C0C0108080801001C
:100F60002B0C0108080801003A0C010808080100D0
:100F7000490C010808080100580C01080808010084
:100F8000670C010808080100760C01080808010038
:100F9000850C010820007F00940C0108000000006F
:100FA000AD63000875640008B9640008BF640008F8
:100FB00000000000000000000F0F0101940F010865
:100FC0000C07090000000000000000000000000005
:100FD000000000000000183C3C3C181818001818CD
:100FE00000000000006666662400000000000000AB
:100FF000000000000000006C6CFE6C6C6CFE6C6C01
:101000000000000018187CC6C2C07C060686C67C9C
:101010001818000000000000C2C60C183060C68618
:10102000000000000000386C6C3876DCCCCCCC764C
:1010300000000000003030306000000000000000C0
:101040000000000000000C18303030303030180C38
:1010500000000000000030180C0C0C0C0C0C1830B8
:10106000000000000000000000663CFF3C6600003D
:1010700000000000000000000018187E1818000092
:101080000000000000000000000000000018181818
:101090003000000000000000000000FE0000000022
:1010A0000000000000000000000000000000181810
:1010B000000000000000000002060C183060C08034
:1010C000000000000000386CC6C6C6C6C6C66C3834
:1010D0000000000000001838781818181818187E3A
:1010E0000000000000007CC6060C183060C0C6FE80
:1010F0000000000000007CC606063C060606C67C12
:101100000000000000000C1C3C6CCCFE0C0C0C1E03
:10111000000000000000FEC0C0C0FC060606C67C41
:101120000000000000003860C0C0FCC6C6C6C67C17
:10113000000000000000FEC606060C1830303030FB
:101140000000000000007CC6C6C67CC6C6C6C67CC1
:101150000000000000007CC6C6C67E0606060C78AD
:10116000000000000000000018180000001818001F
:1011700000000000000000001818000000181830DF
:1011800000000000000000060C18306030180C064B
:101190000000000000000000007E00007E00000053
:1011A000000000000000006030180C060C183060D1
:1011B0000000000000007CC6C60C181818001818A3
:1011C000000000000000007CC6C6DEDEDEDCC07C65
:1011D00000000000000010386CC6C6FEC6C6C6C6B9
:1011E000000000000000FC6666667C66666666FCC1
:1011F0000000000000003C66C2C0C0C0C0C2663C27
:10120000000000000000F86C6666666666666CF8B2
:10121000000000000000FE6662687868606266FE9A
:10122000000000000000FE6662687868606060F0A0
:101230000000000000003C66C2C0C0DEC6C6663AC0
:10124000000000000000C6C6C6C6FEC6C6C6C6C6AA
:101250000000000000003C18181818181818183C56
:101260000000000000001E0C0C0C0C0CCCCCCC7848
:10127000000000000000E666666C78786C6666E642
:10128000000000000000F06060606060606266FE68
:10129000000000000000C6EEFEFED6C6C6C6C6C6EA
:1012A000000000000000C6E6F6FEDECEC6C6C6C6DA
:1012B0000000000000007CC6C6C6C6C6C6C6C67C06
:1012C000000000000000FC6666667C60606060F004
:1012D0000000000000007CC6C6C6C6C6C6D6DE7CBE
:1012E0000C0E00000000FC6666667C6C666666E6B6
:1012F0000000000000007CC6C660380C06C6C67C34
:101300000000000000007E7E5A1818181818183CBB
:10131000000000000000C6C6C6C6C6C6C6C6C67C5B
:10132000000000000000C6C6C6C6C6C6C66C38109F
:10133000000000000000C6C6C6C6D6D6D6FEEE6CBB
:10134000000000000000C6C66C7C38387C6CC6C645
:10135000000000000000666666663C181818183C1D
:10136000000000000000FEC6860C183060C2C6FEF9
:101370000000000000003C30303030303030303C75
:101380000000000000000080C0E070381C0E060263
:101390000000000000003C0C0C0C0C0C0C0C0C3C75
:1013A0000000000010386CC60000000000000000C3
:1013B000000000000000000000000000000000002D
:1013C00000FF00000030180C0000000000000000CA
:1013D000000000000000000000780C7CCCCCCC7633
:1013E000000000000000E06060786C666666667C65
:1013F0000000000000000000007CC6C0C0C0C67C29
:101400000000000000001C0C0C3C6CCCCCCCCC765A
:101410000000000000000000007CC6FEC0C0C67CCA
:101420000000000000001C36323078303030307858
:1014300000000000000000000076CCCCCCCCCC7CBE
:101440000CCC78000000E060606C7666666666E64C
:101450000000000000001818003818181818183C70
:101460000000000000000606000E0606060606063E
:1014700066663C000000E06060666C78786C66E64A
:101480000000000000003818181818181818183C28
:10149000000000000000000000ECFED6D6D6D6C644
:1014A000000000000000000000DC666666666666FC
:1014B0000000000000000000007CC6C6C6C6C67C56
:1014C000000000000000000000DC66666666667CC6
:1014D0006060F000000000000076CCCCCCCCCC7C6E
:1014E0000C0C1E000000000000DC7666606060F0FE
:1014F0000000000000000000007CC660380CC67CC4
:10150000000000000000103030FC30303030361C5D
:10151000000000000000000000CCCCCCCCCCCC768D
:10152000000000000000000000C6C6C6C6C66C3839
:10153000000000000000000000C6C6D6D6D6FE6C33
:10154000000000000000000000C66C3838386CC68F
:10155000000000000000000000C6C6C6C6C6C67E69
:10156000060CF8000000000000FECC183060C6FE3B
:101570000000000000000E18181870181818180E37
:10158000000000000000181818181818181818186B
:10159000000000000000701818180E1818181870B5
:1015A000000000000076DC000000000000000000E9
:1015B0000000000000001C300000000000000000DF
:1015C0000000000000007018000000000000000093
:1015D000000000000010386C000000000000000057
:1015E0000000000000C6C60000000000000000006F
:1015F000000000000076DC00000000000000000099
:101600000000000000000000003818181818183CEE
:10161000000000000000386C6C6C786C6666666CCC
:1016200060C00000102810007CC6C6FEC6C6C6C634
:10163000000000000030483000780C7CCCCCCC7628
:101640000000000000001E7AD8D8D8FED8D8DADE14
:10165000000000000000FC666666F6F6666666FC42
:10166000000000000000F0607C666666667C60F04A
:10167000000000000000000000CC323E70B0B26CF0
:10168000000000000000D060B0187CC6C6C6C67C52
:10169000000000000000E06060786C6C786060F032
:1016A0000000000000007CC6CECED6D6E6E6C67CA2
:1016B0000000000000000000003A44CED6E644B826
:1016C00000000000000000386CC6C6FEC6C6C6C6D4
:1016D00000000000000000FE66626878686266FE36
:1016E000000000000000003C181818181818183CDA
:1016F000000000000000007CC6C6C6C6C6C6C67C88
:1017000000000000000000C6C6C6C6C6C6C6C67C2D
:1017100000000000000000C6E6F6FEDECEC6C6C62B
:101720000000000000001818001818183C3C3C1875
:1017300000000000000030300030303060C6C67C51
:10174000000000001C30000000000000000000004D
:101750000000000070180000000000000000000001
:1017600000000000386C00000000000000000000D5
:1017700000000000C6C600000000000000000000DD
:101780000000000076DC0000000000000000000007
:101790000000000000000000000000000000000049
:1017A00018300000000000000000000000000000F1
:1017B0000000000000000010107CD0D0D0D0D67CFB
:1017C0001010000000001C30303078303030325CB7
:1017D0000000000000000000423C24243C420000C5
:1017E000000000000000663C187E18187E181818CB
:1017F0000000000000001818181800001818181829
:101800000000000000003C6460384444380C4C7810
:101810000000000000C6C60000000000000000003C
:1018200000000000000000007E425A5E5A427E0026
:101830000000000000007008788888740000000034
:10184000000000000000000000366CD86C3600007C
:101850000000000000000000000000FC0404000084
:1018600000000000000000000000007C00000000FC
:1018700000000000000000007C4454444C547C00F4
:1018800000000000FE00000000000000000000005A
:10189000000000000070D888D87000000000000030
:1018A000000000000000000010107C1010007C0000
:1018B00000000000788C0C183060FC000000000074
:1018C00000000000788C0C780C8C78000000000080
:1018D00000000000000E18200000000000000000C2
:1018E0000000000000000000006666666666667C18
:1018F0006060C00000007ED4D4D474141414143E6C
:10190000000000000000000000003838380000002F
:101910000000000060E060606060F0000000000017
:101920000000000000003C6666663C00000000000D
:10193000000000000000000000D86C366CD80000E9
:1019400000000000000040C0444810244C941E04D5
:1019500000000000000040C04448102C5284081EC3
:10196000000000000000C0204428D0244C941E0435
:10197000000000000000000000663C183C6600000B
:1019800000000000000000001818007E0018180079
:101990000000000000000000000818387FFF7F38BA
:1019A00018080000000000000010181CFEFFFE1CBC
:1019B0001810000000000000000010387CFE3838CD
:1019C0003838000000000000000038383838FE7C4D
:1019D000381000000000000606060616367EFE7C63
:1019E00030100000000000000000030306060CCCCD
:1019F000783800009D00FFFF9E00FFFF9F00FFFF63
:101A0000A000FFFFA100FFFFA200FFFFFFFFFFFFFD
:101A1000FFFFFFFFFFFFFFFFFFFFFFFFFFFFFFFFD6
:101A2000FFFFFFFFFFFFFFFFFFFFFFFFFFFFFFFFC6
:101A3000FFFFFFFF7E00FFFF7600FFFF7F00FFFF3D
:101A40008000FFFF8100FFFF8200FFFF8300FFFF98
:101A50008400FFFF8500FFFF8600FFFF8700FFFF78
:101A60008800FFFF8900FFFF8A00FFFF8B00FFFF58
:101A70008C00FFFF8D00FFFF8E00FFFF8F00FFFF38
:101A80009000FFFF9100FFFF9200FFFF9300FFFF18
:101A90009400FFFF7D00FFFF9500FFFF9600FFFF12
:101AA0009700FFFF9800FFFF9900FFFF9A00FFFFDC
:101AB0007700FFFF700079007000780070007A00F6
:101AC00070007C0070007B006600FFFF6800FFFF75
:101AD00023007D00710079007100780071007A00A8
:101AE00071007B00720079007200780072007A0049
:101AF00072007B006900FFFF75007C0073007900B5
:101B00007300780073007A0073007C0073007B0020
:101B10009B00FFFF6E00FFFF7400790074007800E7
:101B200074007A0074007B00390078006A00FFFFBF
:101B30006500FFFF4100600041005F00410061005F
:101B400041006300410062006700FFFF6B00FFFF80
:101B500043007D004500600045005F0045006100D6
:101B6000450062006400600064005F006400610082
:101B7000640062006C00FFFF4E0063004F006000D5
:101B80004F005F004F0061004F0063004F00620094
:101B90009C00FFFF6F00FFFF55005F0055006000D5
:101BA000550061005500620059005F006D00FFFFA5
:101BB000590062009000FF00F4190108C40F0108E9
:101BC000C40F0108B41B010820007F0008080100B1
:101BD00021620008556300086D6300087363000804
:101BE000000000000000000010100101BC1B0108F3
:101BF0000C070A003DB8000899DF0008C9DB00089F
