:020000040800F2
:10000000A82800205D020008774D0008794D0008FF
:100010007B4D00087D4D00087F4D0008000000006A
:10002000000000000000000000000000814D0008FA
:10003000834D000800000000854D0008894D000830
:1000400077020008770200087702000877020008AC
:10005000770200087702000877020008770200089C
:10006000770200087702000877020008770200088C
:10007000770200087702000877020008770200087C
:10008000770200087702000877020008770200086C
:10009000770200087702000877020008770200085C
:1000A000770200087702000877020008770200084C
:1000B000770200087702000877020008770200083C
:1000C000770200087702000877020008770200082C
:1000D000770200087702000877020008770200081C
:1000E000770200087702000877020008770200080C
:1000F00077020008770200087702000877020008FC
:1001000077020008770200087702000877020008EB
:1001100077020008770200087702000877020008DB
:1001200077020008770200087702000877020008CB
:1001300077020008770200087702000877020008BB
:1001400077020008770200087702000877020008AB
:10015000770200087702000877020008770200089B
:10016000770200087702000877020008770200088B
:10017000770200083B500008770200087702000869
:10018000770200087702000877020008770200086B
:10019000770200087702000877020008770200085B
:1001A00077020008770200087702000800F002F8E2
:1001B00000F045F80AA090E8000C82448344AAF1BC
:1001C0000107DA4501D100F03AF8AFF2090EBAE8BA
:1001D0000F0013F0010F18BFFB1A43F0010318477B
:1001E000B0970000D0970000103A24BF78C878C1BB
:1001F000FAD8520724BF30C830C144BF04680C602D
:10020000704700000023002400250026103A28BF74
:1002100078C1FBD8520728BF30C148BF0B60704778
:10022000642907F01183002070471FB507F04BFDCC
:100230009DE8030007F0EAFB1FBD10B510BD07F0F5
:10024000B9FC1146FFF7F1FF04F090FD07F0D7FC71
:1002500003B4FFF7F2FF03BC07F008FD094880472D
:1002600009480047FEE7FEE7FEE7FEE7FEE7FEE798
:10027000FEE7FEE7FEE7FEE704480549054A064BB0
:10028000704700004F4E0008AD010008A822002072
:10029000A8280020A8240020A824002028490843DA
:1002A00028490860704730B50F23C27801780125CE
:1002B000FAB1244A126801F1E02102F4E062C2F5C9
:1002C000E062C2F30722C2F10404D3404278A240A4
:1002D00084781C401443220181F80024007800F047
:1002E0001F018D404009800000F1E020C0F800515E
:1002F00030BD01F01F0085404809800000F1E0207A
:10030000C0F8805130BD104A114001430D48001F14
:10031000016070470B4A121D0029116801D001438A
:1003200000E08143116070474FF0E0210428086924
:1003300003D020F004000861704740F00400FAE7A1
:100340000000FA050CED00E080FFFF1FF94801688E
:1003500041F001010160F74A002108321160026892
:10036000F54B1A400260031DF44A1A60F14BF44A3F
:1003700084331A60F14A103A1B1D1A60026822F495
:1003800080220260EB480C300160181D016070474C
:10039000E8490022891C0A70087070470246002054
:1003A000510901290CD002290CD0E24974310968A5
:1003B00002F01F02012393400B4200D0012070473E
:1003C000DC49F4E7DB497031F1E718B500204FF460
:1003D000A04400903120FFF7E1FF0099491C0091F3
:1003E000A14201D00028F5D03120FFF7D7FF002827
:1003F00000D0012018BDCF4A116821F0F80141EA70
:10040000C00010607047CF4908607047C94900229A
:1004100070310A700A70012802D0042801D1052029
:1004200008707047C8490860704741EA82115A084D
:1004300010B5C64B029C03EB02421143014341EA53
:100440000460BC49091D086010BDBE4908667047BC
:10045000800140EA0160B74940EA027084310860D7
:100460007047B84988667047800140EA0160B14929
:1004700040EA0270883108607047B24908677047E7
:10048000B049C8647047AB4B08331A68084322F080
:10049000EC62104318607047A64B08331A68084393
:1004A00022F07842104318607047A24A083211685F
:1004B00021F003010143116070479E480830006835
:1004C00000F00C0070479B4A0832116821F0F001DF
:1004D000014311607047974A0832116821F4E051D6
:1004E000014311607047934A0832116821F460415A
:1004F00041EAC0001060704770B58E4B0833196830
:10050000934C11F00C0104D0924E042903D0082919
:1005100003D004601BE0066019E0864A121D1168D2
:10052000C1F38055116801F03F0115B1B6FBF1F13F
:1005300001E0B4FBF1F114681268C4F3881461435C
:10054000C2F30142521C5200B1FBF2F10160196882
:100550000F2202EA1111804A545C0168E1404160B7
:100560001C68072505EA9424145D21FA04F48460CC
:100570001B6805EA5333D25CD140C16070BDC0F343
:100580000121032908D16B4B08331968734A21F400
:10059000F81102400A431A60664970310A68C0F3D4
:1005A0000B0002430A60704767494439086070478E
:1005B00065494039086070476249C1F85C0170477D
:1005C0005C4A8C32116821F440110143116070477C
:1005D000584A8C32116821F4400101431160704780
:1005E000544A8C321168401E21F01F0101431160F2
:1005F0007047504A8C3211686FF0FF0321F4F851B4
:1006000003EB00200843106070474A4A8C3211689F
:1006100021F440310143116070475149C1F8E001B4
:100620007047444A30320029116801D0014300E08C
:100630008143116070473F4A34320029116801D06C
:10064000014300E08143116070473A4A3832002983
:10065000116801D0014300E0814311607047354AC1
:1006600040320029116801D0014300E0814311604C
:100670007047304A44320029116801D0014300E03C
:100680008143116070472B4A10320029116801D054
:10069000014300E0814311607047264A143200296B
:1006A000116801D0014300E0814311607047214A85
:1006B00018320029116801D0014300E08143116024
:1006C00070471C4A20320029116801D0014300E024
:1006D000814311607047174A24320029116801D004
:1006E000014300E0814311607047124A50320029F3
:1006F000116801D0014300E08143116070470D4A49
:1007000054320029116801D0014300E08143116097
:100710007047084A58320029116801D0014300E0AF
:10072000814311607047034A60320029116819D073
:10073000014318E000380240FFFFF6EA10300024C1
:100740000030002000004742800E47420000FFFFBB
:100750000024F40040787D0100000020FFFCFF0F22
:1007600000104742814311607047194A00291168FF
:1007700001D0014300E081431160704714490C31FE
:100780000128086803D020F008000860704740F096
:100790000800FAE70E4A573A0029117801D00143C0
:1007A00000E081431170704709481030016841F042
:1007B0008071016070470146054A0020583A12686E
:1007C0000A4200D00120704701495639087070472D
:1007D00064380240774910B5884206D101210846A5
:1007E000FFF751FF002101205BE07349884206D1E9
:1007F00001210220FFF747FF0021022051E06F494D
:10080000884206D101210420FFF73DFF002104208A
:1008100047E06B49884206D101210820FFF733FFEA
:10082000002108203DE06749884206D101211020BF
:10083000FFF729FF0021102033E06349884206D1E9
:1008400001212020FFF71FFF0021202029E05F4920
:10085000884206D101214020FFF715FF00214020EA
:100860001FE05B49884206D101218020FFF70BFF82
:100870000021802015E05749884202D101218415CA
:100880000AE05549884202D10121441504E0534948
:1008900088420AD1012104152046FFF7F4FE002109
:1008A0002046BDE81040FFF7EEBE10BDF0B50022B7
:1008B00001274FF0030C0B6807FA02F52B40AB42FF
:1008C0002CD1066853000CFA03F4A64306600E7997
:1008D000D0F800E09E4046EA0E0606600E79012E32
:1008E00001D0022E12D18668A64386604E79D0F8D8
:1008F00008E09E4046EA0E0686604668AE434660C3
:1009000045688E799640B6B235434560C568A543C3
:10091000C560CC799C40C3681C43C460521C102A3B
:10092000C9D3F0BD4FF6FF71016000210171417123
:100930008171C171704708B541F480320092C26183
:10094000C1610099C161C169C069009008BD0246DA
:10095000002012690A4200D001207047006980B26D
:1009600070470246002052690A4200D001207047B9
:10097000406980B2704701837047418370470AB174
:1009800001837047418370474161704742694A4023
:10099000426170474B07DB0E9A40C90810B500EB67
:1009A0008100016A0F249C40A1430162016A114346
:1009B000016210BD00000240000402400008024035
:1009C000000C0240001002400014024000180240D7
:1009D000001C024000200240002402400028024087
:1009E00010B501218C062046FFF775FE2046BDE8B4
:1009F00010400021FFF76FBE30B5F74A1368F74982
:100A00000B401360038A146845692C4344EA03448D
:100A10001460121D13680B401360038B1468C569C2
:100A20002C4344EA03441460121D13680B40136006
:100A3000038C1468456A2C4344EA03441460121D75
:100A400013680B401360018D1368C46A234343EAA3
:100A500001431360111D0A68E14B1A400A60D0E996
:100A600000231A43D0E9023423431A430B681A4384
:100A70000A60416B0A02018E0B04D74924310C68CD
:100A800004F07F440C600C68806B134304431C43E8
:100A90000C6030BD0021016041608160C160016176
:100AA00041618161C161016241628162C162016330
:100AB000416381637047C84910310028086802D03B
:100AC00040F0010001E020F0010008607047C249D9
:100AD00010310028086802D040F4803001E020F492
:100AE000803008607047BC4910310A68BC4B1A401E
:100AF0000A600A680B68C2F302120968C3F3022392
:100B0000C1F302310260C0E9013170470221016086
:100B1000416081607047B049383108607047AE4924
:100B20001C310860704770B58A88436803F47043CD
:100B300043600B6843EA024343608A89836803F495
:100B4000704383608B6843EA02438360026922F04A
:100B5000070202610A690261CA6991F8243014022D
:100B60000A8C85691204002686618D6942EA036257
:100B7000254315438561426922F0FF0242614A69BB
:100B80004261C26940F207739A43C261D1E90A2304
:100B90001A43C261826A86620A6B82620A8FC36AE2
:100BA00003F0E023C3624B6B43EA0243C362026B70
:100BB0006FF30A020263C96B016370BD002101601B
:100BC00041608160FF22C160C0E904128161C1619E
:100BD0004FF4C0620162C0E909120722C0E90B218B
:100BE00041638163C16370470029016802D041F00D
:100BF000010101E021F001010160704776493C31BB
:100C00000A6800220A600A680968120C89B2C0E901
:100C10000021704700210160416070476E494031FA
:100C20000968014201D0012070470020704710B5CB
:100C300092B1026842F0020202604A68C46813027C
:100C40000A8904F07F44C460C468096843EA024327
:100C50000C431C43C46003E0016821F00201016001
:100C60005D4901201C31086010BD00210160416018
:100C7000816070470029016802D041F0100101E055
:100C800021F010010160544901201C3108607047B7
:100C900010B58A6814028A8913040A7849681C43CB
:100CA00041EA02612143016410BD002101604160FD
:100CB0008160C160704710B5436803F470434360BE
:100CC000836803F470438360434B1B1D1C6801EB76
:100CD000144312FA84F20169521C5B1CF1B1012920
:100CE0001ED004291ED002291CD003291AD007299E
:100CF00018D00121C46AC4F30C04E41EB4FBF1F162
:100D0000046B1944491EC4F30A0443EA0141144424
:100D10004160641E42EA0441816010BD0421E9E79C
:100D20000321E7E70221E5E74161704781627047EF
:100D3000F0B503690BB3012B21D0042B21D0022B7A
:100D40001FD0032B1DD0072B1BD001234468C4F3F5
:100D50000C0584684E19C4F30C041719761E45EA75
:100D6000064545607F1E44EA074484605943CB1C16
:100D700043EA0141C1620263F0BD0423E6E70323B5
:100D8000E4E70223E2E702690AB3012A21D0042A38
:100D900028D0022A26D0032A24D0072A22D00122D2
:100DA000C36A1B0CB3FBF2F3F1B101291ED0042975
:100DB0001ED002291CD003291AD0072918D00122DD
:100DC0005343DA1C42EA0342C262016170470422C3
:100DD000E6E70322E4E700000868014000F800F0BD
:100DE0008F88FE0F0222DBE70422E9E70322E7E710
:100DF0000222E5E7144A0029116801D0014300E00E
:100E000081431160704701460F4A0020121D12688D
:100E10000A4200D0012070470B4908310860704732
:100E2000094A0021121D1268024200D00121064A1F
:100E30001268024202D009B10120704700207047B9
:100E40000149083108607047346801408100A1F110
:100E5000C04140B143F2D20008606FF0704048607A
:100E6000C1F8040170474FF0204243F2DB001060EC
:100E7000F3E730B501688900A1F1C0410B68FE4A73
:100E80001340D0E901242243D0E903452C432243F7
:100E90004469224384692243C4692243046A224389
:100EA000446A2243846A2243C46A2243046B224375
:100EB000446B22431A430A608168082907D10168FC
:100EC0008900A1F1C0410A6842F040020A60416B0A
:100ED000B1F5801F15D1016899B14FF020414A68E2
:100EE0000B6822F4700243F480130B600B6843F428
:100EF00080730B60836BE14C1B8A04EB0353134339
:100F00004B60816BD1E9002342EA03128B688C8924
:100F10001B0243EA04431A430B8A42EA03520B7D45
:100F2000896942EA03620A4301688900A1F1C0416C
:100F30004A60816AB1F5804F08D000686FF0704157
:100F40008000A0F1C040C0F8041130BD01688900E4
:100F5000A1F1C041D1F80421C06BC94B1A40D0E9BE
:100F6000003443EA041384688589240244EA054472
:100F70008069234303431343C1F8043130BD00218A
:100F80000222C0E900121022C0E902120161C1620E
:100F9000416112028161C0E907125200C0E90921D2
:100FA00001634163B7498163C16370478000A0F169
:100FB000C0400029016802D041F0010101E0B24ABD
:100FC00011400160704710B5182340244FF02041B4
:100FD0004FF0FC32102805D041F8803F4C608A6009
:100FE000CA6010BD0B664C668A66CA6610BD30B515
:100FF00002684FF02041102A1BD0D1F88020A34B6B
:1010000002EA0302D0E9013443EA0403D0E90345CC
:1010100044EA050443EA0403446943EA4423846937
:1010200043EA443343EA020343F0080403D18A6EDF
:1010300003E00A6EE3E7D1F88820C269D2E90035FF
:1010400043EA05231589127B4FEA054545EA02620A
:1010500043EA020301D1CA6E01E0D1F88C20006A94
:10106000D0E9002542EA05220589007B4FEA0545C3
:1010700045EA006042EA000203D10C668B66CA664C
:1010800030BD41F8804F8B60CA6030BD1022002116
:10109000C0E90021C0E90221016141618161C269A9
:1010A000FC211160C2695160C2699160C269D1605E
:1010B000026A1160026A5160026A9160006AC1604E
:1010C00070474FF0204251B1102804D052F8800FE1
:1010D00040F004000AE0106E40F004000AE06A49A3
:1010E000C91E102804D052F8800F084010607047C5
:1010F000106E0840106670474FF0204251B1102822
:1011000004D052F8800F40F040000AE0106E40F02A
:1011100040000AE05C493F39102804D052F8800FA3
:10112000084010607047106E0840106670474FF01E
:101130002041102802D0D1F894007047486F7047C2
:101140004FF02040182140F8A01F002141604FF0CF
:10115000FC318160C1600161704710B54FF02041E2
:1011600051F8A02F4A4B84681A4043685B0243EA57
:10117000443304681443234343F010020A608A682E
:10118000C268D2E9003443EA04231489127B2404A0
:1011900044EA026213438B60CA680269D2E90034F0
:1011A00043EA04231489127B240444EA02621343B1
:1011B000CB600A694069D0E9002342EA032203892F
:1011C000007B1B0443EA006002430A6110BD00215A
:1011D000016041608160C268FC211160C268516099
:1011E000C2689160C268D160026911600269516091
:1011F000026991600269D16042691160426951607F
:10120000426991604069C16070474FF020410028F9
:1012100051F8A00F02D040F0040002E01A4AD21E9A
:101220001040086070478000A0F1C0404FF4347156
:10123000C0F840116FF07041C0F848114FF02041E4
:101240000020C1F85001C1F85401C1F8580170479D
:10125000F0B50668B100A1F1C041D1F84011CD0B45
:10126000D0E901121143D0E903231A431143426923
:10127000ED03114382690DE08000E7FF0000F0FFFD
:101280000000F0CFD07C0008FEFF0F008101F0FFCE
:10129000CD01FEFF1143C269046A1143436A214331
:1012A000194329434FF02045F6B3D5F84061224356
:1012B0006FF30E0633431A43C5F8402102689200CB
:1012C000A2F1C042C2F840116FF00F0213011403E3
:1012D0000168160449B38900A1F1C041D1F8481151
:1012E00001F0704C816AD1E9007E02EB0E127F1E84
:1012F00017438A6803EB022217430A8A04EB02426F
:101300001743D5F8482147EA0C0702F07043CA6832
:10131000898A120306EB0151A2F580520A431A434F
:10132000C5F84821006801E006E008E08000A0F16F
:10133000C040C0F84871F0BDC5F84011C4E7D5F809
:101340004811806A01F07047D0E9001C02EB0C12D2
:10135000491E1143826803EB02221143924BC2687B
:1013600003EB02321143028A04EB02421143828AE8
:10137000007E06EB025211431A0302EB00600143A8
:101380003943C5F84811F0BD0022026042601021C7
:1013900040238260C0E90313802343614B01C0E90D
:1013A000063202624262826A1160826A5160826A17
:1013B0009160826AD160826A1161826A5161806A39
:1013C00081617047D0E90012114382686FF01F03FA
:1013D000C06803EB421242EA402001434FF0204034
:1013E000C0F8501170474FF020410028D1F8580143
:1013F00003D000F018008008704700F00600704726
:101400004FF02041D1F8542142EA4000C1F8540184
:1014100070474FF02041D1F8502142EA4010C1F806
:10142000500170478000A0F1C0400029D0F8401161
:1014300002D041F4007102E047F6FF521140C0F8BB
:101440004011704730B54FF480752C014FF02043A8
:10145000A2B1102804D0A84205D153F8840F06E0A9
:10146000586E084313E0A04204D153F8A40F084378
:10147000186030BDD3F85401084313E0102804D09D
:10148000A84206D153F8840F07E0586E8843586687
:1014900030BDA04203D153F8A40F8843E8E7D3F846
:1014A00054018843C3F8540130BD00224FF020435B
:1014B00010280AD0B0F5807F09D0B0F5805F09D040
:1014C000D3F85801814309D107E0586EFAE7D3F801
:1014D0008400F7E7D3F8A400F4E701221046704730
:1014E0004FF0204210280BD0B0F5807F0CD0B0F523
:1014F000805F0CD0D2F854018843C2F85401704781
:10150000506E88435066704752F8840F01E052F8DD
:10151000A40F88431060704730B500231C464FF07D
:101520002045102815D0B0F5807F14D0B0F5805F2D
:1015300014D0D5F85421D5F8584102EA010580B1FC
:1015400001280ED002EAD10008B105B101231846E6
:1015500030BD6A6EF1E7D5F88420EEE7D5F8A42017
:10156000EBE704F00100EFE74FF0204210280CD029
:10157000B0F5807F0ED0B0F5805F0ED0D2F8540168
:1015800040F00100C2F854017047506E20EAD100CB
:101590005066704752F8840F01E052F8A40F20EA19
:1015A000D10010607047000000F0FFFFC14910B586
:1015B000884202D10121841424E0BF49884202D12B
:1015C0000121041404E0BD4988420AD10121C41359
:1015D0002046FFF776F82046BDE810400021FFF7CF
:1015E00070B8B749884202D1012144140AE0B549D4
:1015F000884202D101210C0504E0B34988420AD196
:1016000001214C052046FFF766F82046BDE8104052
:101610000021FFF760B810BD30B502884C8802F495
:1016200041530A88CD8822438C882C4322430C895D
:1016300022434C8922438C892243CC8922431A437A
:101640000280828B22F400628283098A018230BD8B
:10165000F0B502220023858B01244FF2400635406D
:1016600085830284868B8D68022D3DD08A8802B1E5
:101670000224964A13681B0203D5136823F400035F
:101680001360924A7C3213681268C3F388138F4F39
:10169000C2F302723F1F3D683F6805F03F057F02BD
:1016A00001D58B4F00E08B4FB7FBF5F55D43B5FBE4
:1016B000F2F2CB88B3F5007F2BD06301B2FBF3F2DB
:1016C00002EB82028B685200B2FBF3F2521D92B21F
:1016D0000A23B2FBF3F202F00103D21A4FF6FF74B1
:1016E000C2F34F0204EA0323941EFE2C01D302220C
:1016F0000023CC881A43144304840A884B881A4375
:101700008B8889890B431A43324342F400618183F9
:10171000F0BD120AD4E70021018041808180C180A0
:10172000018141818181C1810721018270470021AE
:10173000018041808180C180022282608181704766
:101740000029018802D041F0400101E021F0400170
:10175000018070470029818B02D041F4806101E053
:1017600021F4806181837047028822F40062028044
:1017700002880A4302807047B1F5804F018803D088
:1017800021F480410180704741F48041FAE7A1F5DE
:101790007E420188FF3A02D041F4807101E021F4D9
:1017A0008071018070470029818802D041F00401D6
:1017B00001E021F00401818070470029818802D076
:1017C00041F0100101E021F010018180704730B537
:1017D000828B00234FF24004224082830222028443
:1017E000848B0A884FF48075B2F5007F00D002B96F
:1017F0002B464A888D8889892A4319430A43224304
:1018000042F40061818330BD8089704781817047D7
:101810000029018802D041F4005101E021F4005177
:1018200001807047018841F480510180704701298F
:1018300001D0008B7047808A7047008A7047002A69
:10184000828801D00A4300E08A43828070470909F8
:1018500001238B40002A828899B201D00A4300E01C
:101860008A43828070470246002012890A4200D0D3
:1018700001207047C9430181704730B501F00F0363
:101880000125024605FA03F40020A3B2090905FA6E
:1018900001F49188A4B2128921401A4202D0002991
:1018A00000D0012030BD01F00F0201219140C94359
:1018B000018170470030014000380040003C00408A
:1018C00000340140005001400054014008380240FB
:1018D00040787D010024F40010B50121CC0520469C
:1018E000FEF7D1FE2046BDE810400021FEF7CBBE3A
:1018F00030B5A34B00241968A24A11401960196839
:10190000026811431960596B21F007015963596B43
:10191000426811435963416841B301292DD002291E
:1019200030D00329C16832D00A0101694469090233
:1019300024038568214315430D43996B0D439D6333
:101940008169D963196C6FF30D011964196CC2694F
:1019500011431964818C5A6C02F040425A645A6CEB
:10196000006A024342EA01425A6430BDC168047D04
:101970000A02018A09042406DBE7C1680A02018A17
:101980000904D6E7C1684A010169C902D1E74A01E1
:10199000016944698902E403CBE7002101604160E9
:1019A000C1608160016141618161C1610162416227
:1019B00070477348016841F0010101607047704849
:1019C000016841F00401016070476D490028086812
:1019D00002D040F0020001E020F0020008607047F1
:1019E00070B567490268CA600A696FF30D020A613F
:1019F0000A6943681A430A61CA69634B1A40CA619B
:101A0000848AD0E902622504036946EA0216047E4C
:101A100045EA03231E43CA6946EA04661643CE61BB
:101A20000A6A02F07F420A62026A838C0C6A12021E
:101A3000C56942EA03422C4314430C62806AC862BF
:101A400070BD0021016041608160C1600161416140
:101A50008161C161016241628162704770B548492C
:101A600002684A618A696FF30D028A618A69436874
:101A70001A438A614A6A444B1A404A62848AD0E90E
:101A800002622504036946EA0216047E45EA03233E
:101A90001E434A6A46EA046616434E628A6A02F0A8
:101AA0007F428A62026A838C8C6A1202C56942EAAA
:101AB00003422C4314438C62806A086370BD00218A
:101AC000016041608160C160016141618161C1610A
:101AD000016241628162704729490028C86902D0C9
:101AE00040F0200001E020F02000C8617047244948
:101AF0000028486A02D040F0200001E020F02000D9
:101B0000486270471E4A59B1D16C4FF60173994330
:101B1000D164D16C000240F001000143D1647047F0
:101B2000D06C20F00100D06470471549886470477C
:101B3000134A0029116801D0014300E0814311607C
:101B400070470F4A0146002052680A4200D0012027
:101B500070470B4988607047094B10B55C680021DD
:101B600014EA102F00D001211A68024202D009B1F4
:101B7000012010BD002010BD0149000A8860704797
:101B800000B00240FCE0FCFFC000FC0070B55A4809
:101B90004168491C4160816811B18168491E8160BA
:101BA000AFF300800024554E18E006EB840568680A
:101BB00090B1017B81B1826872B1521E8260696806
:101BC0000AD148690969884768680168816068685E
:101BD000416809B900210173641CE4B23078A04265
:101BE000E3D870BD464801684FF47A70B1FBF0F05D
:101BF000401EB0F1807F12D24FF0E0225061414B85
:101C0000F02083F8140D00209061072010613E48F9
:101C1000B1FBF0F13848C160012101707047FEE767
:101C200035480078002805D04FF0E020016941F0E8
:101C30000201016170474FF0E020016921F00201CB
:101C4000016170472DE9F0472C4C0546DDF82090E6
:101C500020781E4617468846052802D30020BDE896
:101C6000F087182005F05EFD0028F8D00560C0E977
:101C700001850773C0E90469217804EB810148609C
:101C80002178491C2170EAE71C4B30B400211A78F6
:101C900006E003EB81046468844203D0491CC9B2A6
:101CA0008A42F6D88A4218D003EB81004068EFF3ED
:101CB000108472B605E003EB8102491C9568C9B235
:101CC00055601A78521E8A42F5DC1978491E19703F
:101CD00004B962B630BC05F054BD30BC7047002179
:101CE000017370470121017370470168816070477B
:101CF000416070470160704710000020040100201F
:101D00004C0000200FE000E0C0C62D001CB50321F0
:101D10000020CDE9000103464C0301222146194869
:101D200002F020F817481A3004801CBD1CB50021B1
:101D30000220CDE900010B460A460121124802F0BB
:101D400011F81CBD10480069C107104805D0017882
:101D500029B9012101700846704700210170002057
:101D6000704709480069C107084803D00121017084
:101D70000020704701780029FAD00021017001206D
:101D800070470000001802400000024020000020C0
:101D90000288520601D40020704702899207FCD0C5
:101DA00002891206F9D4818101898907FCD0018951
:101DB0000906F9D48089C0B27047FF4800218160CC
:101DC0004171704730B5FC4A4FF41634002180B29F
:101DD000A1F140539568891CA142E852F8D330BD67
:101DE000F5484FF41631816001214171704730B5DB
:101DF00091B01E20009040F20D100190042002903E
:101E000040F24310039002200490FF200590002030
:101E100006900790089009904FF480600A90052082
:101E20000B9040F2E3100D90C01E0E904FF4A07086
:101E30000F904FF05040E14C0C9069462046FEF761
:101E400072FEDF490C914FF4C0610A91DB4D07210E
:101E50000B91803569462846FEF765FE0120FEF7A6
:101E60005EFE01212046FEF7BFFE01212846FEF757
:101E7000BBFE0120FEF753FE0120FEF728FE0120E5
:101E8000FEF719FEFF212046FEF74EFF00212846EF
:101E9000FEF74AFF0120FEF742FE11B030BDC948EF
:101EA00000B501688FB041F080610160C548143809
:101EB000016841F40001016000200290039000904D
:101EC00001900C900D900E9004220721C020FEF787
:101ED000CBFA4FF48030FEF798FB0120FEF7CDFAE5
:101EE0003D20FEF75BFA0028FAD00920049001207B
:101EF00005901D2006900320079040F20D100890D9
:101F000040F24310099040F217100A9040F2471037
:101F10000B906846FEF770FD0FB000BDAA4B10B5E0
:101F20004FF400521A80A94A042414800146A8489C
:101F3000FFF72EFFA548801E048010BD01B5009854
:101F400001E0401E00900028FBD108BD9E4B10B55B
:101F50009B1E4FF400521A809C4A042414800146B0
:101F60009B48FFF715FF9948801E048010BD10B5EF
:101F7000CA20FFF7D3FFC320FFF7E8FF0820FFF7D1
:101F8000E5FF5020FFF7E2FFCF20FFF7C7FF00205B
:101F9000FFF7DCFFC120FFF7D9FF3020FFF7D6FFA6
:101FA000ED20FFF7BBFF6420FFF7D0FF0320FFF712
:101FB000CDFF1220FFF7CAFF8120FFF7C7FFE820FF
:101FC000FFF7ACFF8520FFF7C1FF0020FFF7BEFF42
:101FD0007820FFF7BBFFCB20FFF7A0FF3920FFF7EA
:101FE000B5FF2C20FFF7B2FF0020FFF7AFFF342032
:101FF000FFF7ACFF0220FFF7A9FFF720FFF78EFFE6
:102000002020FFF7A3FFEA20FFF788FF0020FFF75B
:102010009DFF0020FFF79AFFB120FFF77FFF002010
:10202000FFF794FF1B20FFF791FFB620FFF776FF25
:102030000A20FFF78BFFA220FFF788FFC020FFF7E1
:102040006DFF1020FFF782FFC120FFF767FF102010
:10205000FFF77CFFC520FFF761FF4520FFF776FF04
:102060001520FFF773FFC720FFF758FF9020FFF7F9
:102070006DFF3620FFF752FFC820FFF767FFF22001
:10208000FFF74CFF0020FFF761FFB020FFF746FF8E
:10209000C220FFF75BFFB620FFF740FF0A20FFF7E3
:1020A00055FFA720FFF752FF2720FFF74FFF04201F
:1020B000FFF74CFF2A20FFF731FF0020FFF746FF14
:1020C0000020FFF743FF0020FFF740FFEF20FFF75E
:1020D0003DFF2B20FFF722FF0020FFF737FF0020F6
:1020E000FFF734FF0120FFF731FF3F20FFF72EFFFE
:1020F000F620FFF713FF0120FFF728FF0020FFF76E
:1021000025FF0620FFF722FF2C20FFF707FF314CA9
:102110002046FFF713FF2620FFF700FF0120FFF7FF
:1021200015FFE020FFF7FAFE0F20FFF70FFF292031
:10213000FFF70CFF2420FFF709FF0C20FFF706FF35
:102140000E20FFF703FF0920FFF700FF4E20FFF7E7
:10215000FDFE7820FFF7FAFE3C20FFF7F7FE09208E
:10216000FFF7F4FE1320FFF7F1FE0520FFF7EEFE68
:102170001720FFF7EBFE1120FFF7E8FE0020FFF726
:10218000E5FEE120FFF7CAFE0020FFF7DFFE162084
:10219000FFF7DCFE1B20FFF7D9FE0420FFF7D6FE79
:1021A0001120FFF7D3FE0720FFF7D0FE3120FFF705
:1021B000CDFE332010E000001C01002084680140A7
:1021C000005802D0443802401A0C02401A0802405B
:1021D0000050014040420F00FFF7B8FE4220FFF7D9
:1021E000B5FE0520FFF7B2FE0C20FFF7AFFE0A2078
:1021F000FFF7ACFE2820FFF7A9FE2F20FFF7A6FE71
:102200000F20FFF7A3FE1120FFF788FE2046FFF7FF
:1022100095FE2920FFF782FEBDE810402C207DE6C8
:102220002DE9FC4701240025DFF80C94CDE900548A
:102230002B4622466103484601F094FDFF4FCDE94D
:102240000054002301220421384601F08BFD0E25A5
:10225000032400231A4641F65801F948CDE9004508
:1022600001F091FD0926DFF8DC83CDE9004600236B
:102270001A460321404601F086FD00231A464FF41A
:1022800070614046CDE9004501F07DFD00231A460E
:102290004FF498613846CDE9004501F074FD002304
:1022A0001A464FF489614846CDE9004501F06BFDBF
:1022B00000231A463915E448CDE9004501F063FDD5
:1022C000CDE90045E14D00231A464FF40C61284644
:1022D00001F059FDCDE9004600231A464FF4A05104
:1022E000284601F050FDBDE8FC8710B5FFF798FFC8
:1022F000D2490420183108800021D54800F063FF3E
:1023000000F008FDFFF733FEFFF7C9FDFFF76FFD93
:10231000D0480021F02241800180CF4802804FF454
:10232000A07242800122027181734171FF2281609B
:1023300002734173FFF741FD4FF6FF742046FFF72C
:1023400041FDFFF74DFD2046FFF73CFDBDE8104085
:1023500033E510B52920FFF7E1FDBDE8104001206D
:10236000FEF7A9BB10B52820FFF7D8FDBDE8104047
:102370000020FEF7A0BB70B5B74B1D8885421FD962
:102380005C888C421CD99C7B93B2B34A4FF0504678
:1023900092685CB1012C0ED0022C12D0C1F1EF0179
:1023A00089B2C0EB001001EB001006E0C0F59630DA
:1023B00005FB110001E005FB010006EB4000135294
:1023C00070BDA0F23F10404280B2EAE7A249F0227D
:1023D0004FF4A073887330B1012804D00B804A8079
:1023E0000020087170470A804B800120F9E710B582
:1023F000994C9A48217BFEF797FC9848617B803086
:10240000FEF792FCBDE810400120FEF788BB924920
:102410000873ECE790494873E9E78F4810B54079B5
:1024200040B1FFF7CAFCFF20FFF7F1FF0020BDE835
:102430001040EFE7FFF7D4FC0020FFF7E8FFFF2094
:10244000F5E71CB50020009001904FF4A073F02236
:102450004FF05041824802F061FC1CBD1CB50020C9
:10246000009001904FF4A073F0227D494FF050404E
:1024700002F054FC1CBD2DE9F047DFF8D8C1DDE9BE
:1024800008A8ACF800009146ACF802101A781E4675
:102490001044714A1288904206D970780844ACF80A
:1024A00002000020ACF80000002529E0A9F120017D
:1024B00011FB00507268002432F810701CE007FA1B
:1024C00004F0000409D5BCF802005246284481B249
:1024D000BCF80000204480B20BE0B8F1000F0ADB2A
:1024E000BCF802004246284481B2BCF800002044F7
:1024F00080B2FFF740FF641C3078A042DFD86D1C2B
:102500007078A842D2D83078BCF800100844ACF8F3
:102510000000BDE8F0872DE9FC434E4DDDE9099848
:1025200028801F461446064669800BE00A2A0ED012
:102530000D2A15D0CDE900983B4669882888641C8F
:10254000FFF799FF2278002AF0D1BDE8FC83688864
:102550007978401C0844688060780D2802D02E806D
:10256000641CEFE700202880641CF9E730B54D7843
:1025700000241D8002E00B7823449CB210F8013B3C
:10258000002BF8D1148030BD2DE9F84F9446324A23
:102590000C46054611881F46481EA94200D885B240
:1025A000614501D81FFA80FC5188481EA14200D81D
:1025B00084B2B94200D887B2654502D2ACEB0500BF
:1025C00001E0A5EB0C000FFA80F9BC4201D2381BE8
:1025D00000E0E01B0FFA80F84FF0FF30654501D2B4
:1025E000012100E001460091BC4200D20120834657
:1025F0004846C14501DCC8F1000000EBD070401036
:1026000006B2C9F1000A214628460A9AFFF7B3FE2E
:10261000654501D1BC4229D03046564505DDA0EBC9
:1026200008010EB2009929448DB24045EBDA06EB61
:10263000090006B216E00000000C0240000802404B
:102640000000024000040240001402400018024052
:1026500000500140340000201C010020846801402B
:10266000005802D004EB0B0084B2CCE7BDE8F88F31
:102670002DE9F8411D46079C16460F4680460B463D
:102680000094FFF781FF42462B46394610460094DE
:10269000FFF77AFF32462B46394610460094FFF783
:1026A00073FF2B463246194640460094FFF76CFFF5
:1026B000BDE8F8812DE9F04F0746C2F101000FFA9D
:1026C00080FCC2EBC230400098460E464FF0010A33
:1026D0000FFA80F900251446DDF824B05AE0BCF169
:1026E000000F09DB09F102000FFA80F9641E0CEB00
:1026F000090024B20FFA80FC0AF102000FFA80FAF6
:102700006D1C0CEB0A000FFA80FC2DB25FEAC8705A
:102710000DD0701B81B2381B80B25A46FFF72BFEDA
:10272000301B81B2781B80B25A46FFF724FE5FEA65
:1027300088700DD5301B81B2781980B25A46FFF7E8
:102740001AFE701B81B2381980B25A46FFF713FE89
:102750005FEA48700DD5301981B2781980B25A46B7
:10276000FFF709FE701981B2381980B25A46FFF797
:1027700002FE5FEA08700DD5301981B2781B80B275
:102780005A46FFF7F8FD701981B2381B80B25A46DD
:10279000FFF7F1FDA542A2DBBDE8F08F2DE9FC4F6C
:1027A0008146DDE90B451E4690460F464A4570D0EE
:1027B000BE426ED02CB94246394648460095FFF7D6
:1027C00057FF4146C14501D9C8468946B74202D99B
:1027D00030463E460746A8EB090000EBD070B4EB4C
:1027E000600F01DDC0F34F04F01B00EBD070B4EBC1
:1027F000600F01DDC0F34F04A8EB0400CDE90050E9
:1028000082B209EB040B3B461FFA8BF01946FFF727
:10281000BBFEA6EB040A27444A461FFA8AF3B9B264
:1028200010460095FFF7B0FE42461FFA8AF3B9B290
:1028300010460095FFF7A8FE0198334682B2009536
:102840001FFA8BF01946FFF79FFE3EB20FFA8BF08E
:1028500022B280460123144631460095FFF72AFF35
:102860000198314607B20095022322463846FFF709
:1028700021FF0FFA8AF63846042322463146009596
:10288000FFF718FF31464046082322460095FFF720
:1028900011FFBDE8FC8F2DE9FC4F0446C2F1010099
:1028A0000FFA80F90120DDF82C800190C2EBC230D4
:1028B00040009A460F460FFA80FB0026154671E04D
:1028C000B9F1000F09DB0BF102000FFA80FB6D1E5E
:1028D00009EB0B002DB20FFA80F9761C019836B285
:1028E000801C00B2019048440FFA80F95FEACA7078
:1028F00013D0781BA11B8AB283B281B2A0B2CDF8EB
:102900000080FFF741FEB81B611B8AB283B281B21F
:10291000A0B2CDF80080FFF737FE5FEA8A7013D5CA
:10292000781B83B281B2A019A2B280B2CDF8008028
:10293000FFF72AFEB81B83B281B26019A2B280B23F
:10294000CDF80080FFF720FE5FEA4A7013D57819B2
:10295000A1198AB283B281B2A0B2CDF80080FFF78C
:1029600013FEB81983B281B26019A2B280B2CDF859
:102970000080FFF709FE5FEA0A7013D5781983B269
:1029800081B2A01BA2B280B2CDF80080FFF7FCFD9F
:10299000B819611B8AB283B281B2A0B2CDF80080AF
:1029A000FFF7F2FDAE428BDB73E72DE9F8411D46E0
:1029B00017460C468046079E08E023463A461946CD
:1029C00040460096FFF7E0FD641CA4B2AC42F4D987
:1029D0006EE62DE9F84F8146DDE90A451E46904630
:1029E0000F464A4566D0BE4264D02CB942463946AD
:1029F00048460095FFF7D9FF4146C14501D9C84671
:102A00008946B74202D930463E460746A8EB090040
:102A100000EBD070B4EB600F01DDC0F34F04F01B8E
:102A200000EBD070B4EB600F01DDC0F34F04A8EBF6
:102A3000040B09EB040A1FFA8BF21FFA8AF03346E3
:102A400039460095FFF7B1FF361B2744B3B21FFA92
:102A50008AF2B9B248460095FFF7A7FFB3B2B9B200
:102A60001FFA8BF042460095FFF79FFF39B20FFA2D
:102A70008AF022B20F468146012314460095FFF7E3
:102A80000AFF0FFA8BF8394602232246404600958A
:102A9000FFF701FF761E36B2404604232246314638
:102AA0000095FFF7F8FE3146484608232246009578
:102AB000FFF7F1FEDAE52DE9FF4F0746C2F101000D
:102AC00014460FFA80FCC2EBC43040000FFA80F8C5
:102AD00081B00E46081981B24FF001090025B8B245
:102AE000049AFFF748FC301B81B2B8B2049AFFF792
:102AF00042FC3819B1B280B2049AFFF73CFC381B93
:102B0000B1B280B259E0BCF1000F09DB08F102005C
:102B10000FFA80F8641E0CEB080024B20FFA80FC58
:102B200009F102000FFA80F96D1C0CEB09002DB2BF
:102B30000FFA80FC781906EB040A00901FFA8AF15C
:102B400080B2049AFFF717FCA7EB050B1FFA8AF176
:102B50001FFA8BF0049AFFF70EFC0098A6EB040A0C
:102B60001FFA8AF180B2049AFFF705FC1FFA8AF176
:102B70001FFA8BF0049AFFF7FEFB381906EB050AE3
:102B800000901FFA8AF180B2049AFFF7F4FBA7EBDA
:102B9000040B1FFA8AF11FFA8BF0049AFFF7EBFB84
:102BA0000098A6EB050A1FFA8AF180B2049AFFF793
:102BB000E2FB1FFA8AF11FFA8BF0049AFFF7DBFBA6
:102BC000A542A0DB05B0E7E52DE9FE4F0746C2F1BF
:102BD000010014460FFA80F8C2EBC43040000FFA2F
:102BE00080FA0E46081981B299464FF0010B002574
:102BF000B8B21A46FFF7BFFB301B81B2B8B24A46E3
:102C0000FFF7B9FB38190190B1B280B24A46FFF71D
:102C1000B2FBA7EB040CB1B21FFA8CF04A46FFF7E7
:102C2000AAFB0198B3B282B2CDF80090B1B21FFAFC
:102C30008CF042E0B8F1000F09DB0AF102000FFA54
:102C400080FA641E08EB0A0024B20FFA80F80BF138
:102C500002000FFA80FB6D1C08EB0B002DB20FFA7F
:102C600080F8781982B20290781BCDE90090311972
:102C70008BB289B280B2FFF787FC0198311B82B218
:102C800002988BB2CDF8009089B280B2FFF77CFC3D
:102C9000381B82B202903819CDE9009071198BB2BD
:102CA00089B280B2FFF770FC0298711B82B2019862
:102CB0008BB2CDF8009089B280B2FFF765FCA542D7
:102CC000B8DBBDE8FE8F00000F48016841F040010D
:102CD00001600E48016841F00401016070470B4833
:102CE000016821F0040101600748016821F04001FA
:102CF000016070470548001D0168C907FCD0034802
:102D00000830006870470000343802400008065060
:102D1000002070472DE9F04F97B0784C4FF6FF7ABE
:102D2000CDF810A0207818B1012017B0BDE8F08FC1
:102D300000F0A8F87248016841F0010101604FF00D
:102D400002080722CDE910824FF0040BCDF848B0FD
:102D5000CDE91328CDF854801020CDF85880CDE966
:102D600007B040204FF0010909900025CDE90595F5
:102D70004FF4C070CDE90A054FF40060CDE90C05B1
:102D800080000E9010A80F904E4605A8FEF760FA3E
:102D9000CDE902650827CDE900675646CDF810A0B9
:102DA00001E0401E049020210120FEF77EFB10B1BF
:102DB00004980028F5D16846FEF704FB51480490BA
:102DC000411E049101D30846FAE7CDE90087CDF80A
:102DD0000890CDE90356C84601E0401E049020212A
:102DE0000120FEF762FB10B104980028F5D1684677
:102DF000FEF7E8FA0320CDE900070297CDE9035674
:102E000001E0401E049020210120FEF74EFB10B18E
:102E100004980028F5D16846FEF7D4FACDE900B74A
:102E200040F23120CDF80880CDE90306474601E0A5
:102E3000401E049020210120FEF737FB10B10498BA
:102E40000028F5D16846FEF7BDFA4FF42A70FEF768
:102E5000D7FA049601E0401E049020210120FEF7DD
:102E600024FB10B104980028F5D14FF050404521C3
:102E700000F8501F0078452802D02570002054E744
:102E8000277051E77CB5FFF743FF002835D10C25AB
:102E9000032400231A4660211B48CDE9004500F0B9
:102EA00072FF00231A4601211848CDE9004500F0C1
:102EB0006AFF00231A464CF203711548CDE900451C
:102EC00000F061FF00231A464FF683711148CDE9E7
:102ED000004500F058FF00231A464FF63F010E4808
:102EE000CDE9004500F04FFF00231A4648F23311A8
:102EF0000A48CDE9004500F046FF7CBD38000020BF
:102F000038380240F0FE0F01000402400008024081
:102F1000000C024000100240001402400018024061
:102F200070471CB530B1032803D10521FE48FFF7D7
:102F3000F7FF1CBD05210320CDE9000100231A463F
:102F40004FF4E041F94800F01EFF1CBD7CB505259B
:102F5000F74E032440B101280CD0032803D10521EA
:102F6000F448FFF7DDFF7CBD00231A464FF4607183
:102F700030460CE000231A464FF400613046CDE99C
:102F8000004500F000FF0023EB481A46C021CDE9C0
:102F9000004500F0F8FE7CBD1CB50522E74C03217E
:102FA00040B101280CD0032803D10521E448FFF7E4
:102FB000B7FF1CBDCDE9001200231A46642105E0CD
:102FC000CDE9001200231A464FF4E041204600F0FC
:102FD000DAFE1CBD1CB50622032140B101280DD02C
:102FE000032803D10621D748FFF79AFF1CBDCDE97E
:102FF000001200231A463821D34806E0CDE900121A
:1030000000231A464FF4E051D04800F0BCFE1CBD2E
:103010007CB50525CC4E032450B1012816D00228DA
:103020001AD0032803D10521C948FFF779FF7CBDD9
:1030300000231A464FF480613046CDE9004500F088
:10304000A2FE00231A460C21C04809E000231A46BC
:103050004FF46041304603E00023BE481A460D217C
:10306000CDE9004500F08FFE7CBD1CB50522032193
:1030700040B101280DD0032803D10521B648FFF740
:103080004FFF1CBDCDE9001200231A46E021B348D2
:1030900005E0CDE9001200231A463821AA4800F0C5
:1030A00072FE1CBD2DE9FF4F85B00446DDE912BA62
:1030B000994616466846FEF72EFBA748A84F0025FE
:1030C000844208D1386840F4805038600698FFF791
:1030D000CCFFADF804509E48DFF884828442A8F10A
:1030E00004080AD1D8F8001041F48041C8F8001053
:1030F0000698FFF78DFFADF80450924884420AD13C
:10310000D8F8001041F40041C8F800100698FFF705
:1031100061FFADF804508A48844208D1386840F411
:10312000005038600698FFF737FFADF8045081482B
:10313000844208D1386840F4801038600698FFF760
:1031400005FFADF804507848844208D1386840F44F
:10315000001038600698FFF7E4FEADF80450ADF8B3
:103160000C90ADF800504FF40070ADF80EA0ADF823
:1031700002B0ADF80A0046B10121012E08D00220AC
:10318000022E08D0032E0BD00EE0ADF8065004E05E
:10319000ADF8065006E0ADF80600ADF8085003E0C3
:1031A000ADF80600ADF80810208820F0400020801F
:1031B00069462046FEF730FA208840F04000208023
:1031C00009B0BDE8F08F2DE9FC41044662480025B6
:1031D0000F464FF48276844205D1CDE90065202365
:1031E0000022FFF75FFF5A48844206D1CDE900650F
:1031F000202300223946FFF755FF5248844206D16A
:10320000CDE90065202300223946FFF74BFF4C48EB
:10321000844206D1CDE90065202300223946FFF71C
:1032200041FF4448844206D1CDE9006520230022B5
:103230003946FFF737FF3C48844206D1CDE90065A7
:10324000202300223946FFF72DFFBDE8FC812DE940
:10325000FC41044640480025174688464FF48276D4
:10326000844204D1CDE900652023FFF71BFF3848D5
:10327000844206D1CDE9006520233A464146FFF756
:1032800011FF3048844206D1CDE9006520233A463B
:103290004146FFF707FF2A48844206D1CDE9006581
:1032A00020233A464146FFF7FDFE2248844206D1DC
:1032B000CDE9006520233A464146FFF7F3FE1A4860
:1032C0008442C2D1CDE9006520233A464146FFF74A
:1032D000E9FEBAE72DE9FC470446DDE90A651E4828
:1032E0001F4690468946844205D1CDE900651346C4
:1032F0003A46FFF7D7FE1648844206D1CDE900656D
:1033000043463A464946FFF7CDFE0E48844206D171
:10331000CDE9006543463A464946FFF7C3FE0848F3
:10332000844225D143461DE000540140001802406C
:103330000014024000500140001C024000100240F6
:1033400000340140003C00400004024000080240FC
:1033500000380040002002400030014000000240E0
:1033600044380240CDE900653A464946FFF79AFEE7
:103370007748844206D1CDE9006543463A4649463E
:10338000FFF790FE7348844206D1CDE900654346BD
:103390003A464946FFF786FEBDE8FC877FB50D003B
:1033A000044620D06846FDF7A7F86B48844208D051
:1033B0006A48844205D06648844202D06548844207
:1033C00001D1039900E0029900200124421C04FA73
:1033D00002F3B1FBF3F3AB4202D8C00004B070BDFE
:1033E000D0B20828F2D33820F8E702880388C2F365
:1033F000C02223F0400303800129018808D021F472
:1034000000610180018841F0400101801046704751
:1034100041F40061F5E730B50488640614D50489E9
:10342000A407FCD004892406F9D400240AE00D5D29
:1034300085810589AD07FCD005892D06F9D48589DC
:103440001555641C9C42F2D330BD10B503885B0651
:1034500013D503899B07FCD003891B06F9D40023ED
:1034600009E0CC5C84810489A407FCD0048924068B
:10347000F9D484895B1C9342F3D310BD30B5048822
:10348000640613D50489A407FCD004892406F9D462
:10349000002409E082810589AD07FCD005892D064D
:1034A000F9D485890D55641C9C42F3D330BD30B5E9
:1034B0000488640616D50489A407FCD00489240670
:1034C000F9D400240CE031F8145085810589AD074A
:1034D000FCD005892D06F9D4858922F81450641C86
:1034E0009C42F0D330BD10B503885B0614D5038928
:1034F0009B07FCD003891B06F9D400230AE031F8AE
:10350000134084810489A407FCD004892406F9D4DB
:1035100084895B1C9342F2D310BD30B504886406E5
:1035200014D50489A407FCD004892406F9D4002406
:103530000AE082810589AD07FCD005892D06F9D402
:10354000858921F81450641C9C42F2D330BD0000E0
:10355000005001400054014000300140003401405F
:1035600008B524480090244B244A0021244803F045
:103570009DF824490120087008BD2248007810B148
:10358000214800787047052070471E4810B5007824
:1035900030B11A491A4803F070FABDE81040ECE760
:1035A000052010BD18490978012901D00020704775
:1035B00016494A7842700978017001207047124913
:1035C0000978022901D00020704711490A88028039
:1035D0004A8842808A888280CA88C2800A7A0272B7
:1035E0008A7A82724A7A427200208880C8800220D9
:1035F00070470000B400002074000020541F002019
:10360000A819002039000020FD000020FE00002045
:103610003822002038B532B1012A07D0022A08D05A
:10362000032A08D009E04BF2237206E04BF6CA32B7
:1036300003E0002201E04FF47842009201EB4101E7
:103640001B2202EB4103162400EB4000072204EB8F
:10365000410102EB4002032404EB4000FFF7A5F90F
:1036600038BD10B504462DED028BFFF743FB00EE8D
:10367000100AB8EE400ADFEDF78A20EE280A9FED27
:10368000F68A20EE080ABDEEC00A10EE100A20707D
:10369000FFF730FB00EE100AB8EE400A20EE280AD1
:1036A00020EE080ABDEEC00A10EE100A6070BDECF4
:1036B000028B10BD30B50021E84B11E003EB410255
:1036C00092F9004090F90050AC4207D192F90120E4
:1036D00090F90140A24201D1012030BD491C89B2BC
:1036E000B3F8E22B8A42E9D8002030BD10B5DC489F
:1036F000FFF7B7FFDA48FFF7DDFF0028F7D1D8481A
:10370000022241780078BDE8104083E7D349B1F840
:10371000E22B22B1B1F8E42B521CA1F8E42BB1F852
:10372000E22B521CA1F8E22B0278B1F8E43B01F83D
:1037300013204078B1F8E42B01EB42014870704748
:1037400030B5C84A012082F8E60BC44981F8E60B7F
:103750000020A1F8E40BA1F8E20BA1F8E80BFF2090
:10376000A2F8E80BBE4D0320AD1E287068702846F5
:10377000FFF7CCFF002404E0062C02D12878401C7F
:103780002870B748801EFFF7C1FF641CA4B2072C45
:10379000F2D330BD38B54BF223704FF480740090F3
:1037A0002346ED2214210120FFF7FFF800200090AE
:1037B0002346ED2214210120FEF75AFF38BDAA4806
:1037C0004178012908D94178491E417041784FF468
:1037D0007A72B2FBF1F141607047A34841780F293A
:1037E00008D24178491C417041784FF47A72B2FB9B
:1037F000F1F141607047994A10B5B2F8E23B83425B
:103800001CD902EB40031C780C705B784B7007E00E
:1038100002EB40018B780B70CB784B70401C80B270
:10382000B2F8E41B8142F3D8B2F8E40B401EA2F8D0
:10383000E40BB2F8E20B401EA2F8E20B10BD1CB57F
:1038400040F21D542046FEF7BDFAFFF7A3FF00200B
:10385000CDE90004854B86A205212820FEF75BFEFA
:103860001CBD81480521417041784FF47A72B2FB4A
:10387000F1F14160002101720121017070471CB516
:10388000FEF7B0F9FEF742FA7F484FF4C0410180DD
:10389000FFF71AFAFEF729FD0120FEF797FDFFF763
:1038A0005FFEFFF7DEFFFFF74BFFFFF7C8FFFFF7F5
:1038B0001DFF764800240460DFF8A4B101270BF156
:1038C000040B694DDFF89C91DFF89081FFF75DFEF6
:1038D00069686E48026891427DD8297A00297AD1B8
:1038E0005F4BDB1F5978002975D1046099F8E60B0E
:1038F000C44688F8E60BB8F8E40B18F8100003F19A
:1039000009063070B8F8E40B08EB4000407870709E
:1039100096F900108BF8001096F901008BF8010061
:103920001A7892B99CF8E62B32B1012A06D0022A05
:1039300007D0032A09D106E0491E00E0491C317076
:1039400003E0401E00E0401C70702878002896F9C3
:10395000000000F1010113D011B1272803D003E0CA
:103960002620307000E0347096F90100411C02D02E
:10397000272803D00EE0262070700BE0747009E059
:1039800039B1272805D096F90100411C01D027281C
:1039900000D15F7018789A4658B931490020891DC6
:1039A000FFF729FF2E48801CFFF784FE08B18AF834
:1039B00001709AF80100C0B9294A96F9000092F9FD
:1039C0000010884211D196F9010092F90110884245
:1039D0000BD1901C00E02AE0FFF798FEBCF8E80B42
:1039E000401CACF8E80BFFF781FE9AF80100C8B95B
:1039F0009AF8000018B91A48801CFFF787FE18488B
:103A00000022801D41780078FFF704FE717830783D
:103A10000322FFF7FFFD9BF801109BF80000012235
:103A2000FFF7F8FD9AF80010504601B104700C4EF3
:103A3000F61F7078A0B3B07898BBB7704FF6FF7AD6
:103A4000CDE900A4124B13A278215820FEF763FDA4
:103A5000064B27E00000802F000018425E01002086
:103A600041000020480D00203419002024000020CF
:103A7000536E616B652047616D652056312E302095
:103A8000627920544D0000001A18024014000020F2
:103A90002C00002047616D650A4F5645520000001A
:103AA00008E008E0CDE900A46DA2B4211C20FEF7D7
:103AB00032FD00E0B470FFF760FD01284FF40050C4
:103AC00048D06E4908806E4801782A78914203D127
:103AD00041786A78914216D02978017069784170EE
:103AE0000F2000906B782A7866A16D4803F070FE75
:103AF00040F21D50CDE900406A4B694A40F209117D
:103B00000A20FEF708FDB9F8E82B4946B8F8E83B6B
:103B100040469A423FF4DAAEB0F8E82BA1F8E82B21
:103B2000B0F8E83B69784B432978B0F8E82BC1F14D
:103B300002014B435CA15A4803F04AFE40F21D507B
:103B4000CDE90040574B564A40F21D110A20FEF7BE
:103B5000E2FCBBE64949891E08805948FFF722FD6F
:103B6000574801780029AED1407870285DD00BDC31
:103B7000612820D064282FD0692853D06D28A2D185
:103B80002878D0B32C709EE7722854D0732835D093
:103B9000752844D0772896D198F8E61B404639B16D
:103BA00090F8E61B012903D090F8E60B02288AD191
:103BB0002C72022130E098F8E61B4046022907D01B
:103BC00090F8E61B032903D090F8E60B0028DAD121
:103BD0002C7289F8E64B76E798F8E61B40460229F6
:103BE00007D090F8E61B032903D090F8E60B0128D4
:103BF000C9D12C7289F8E67B65E726E098F8E61BC8
:103C0000404639B190F8E61B012903D090F8E60B45
:103C10000328B8D12C72032189F8E61B53E7FFF77C
:103C2000DCFD50E7FFF7CBFD4DE7287A08B12C7299
:103C300049E72F7247E7FFF7ADFDFFF781FDFFF77B
:103C400055FD74702C7237703DE72F703BE7144AB6
:103C50000B78323202EB40000370497841707047B4
:103C600050726573732027722720746F20737461FC
:103C7000727420616761696E212100001A18024088
:103C8000401900204D6F64653A2534643B20537021
:103C90006565643A202532642F25326400000000F7
:103CA0002C01002024000020486974733A253464F4
:103CB0003B2053636F72653A202535640000000095
:103CC0003D000020A3490844C0F38F2070472DE930
:103CD000F04F9A46DDE909B889460346FFF7F2FF3F
:103CE000C5B200204FF0030E0121814011EA090FF7
:103CF00028D0994E36F815400C4326F81540DF6859
:103D000044000EFA04F6B7430BFA04FC47EA0C072A
:103D1000DF601F6802FA04FCB74347EA0C071F6024
:103D2000012A01D0022A0DD15F6889B28F430AFAB5
:103D300000F189B20F435F60996808FA04F4B14357
:103D400021439960401CC0B21028CDD3BDE8F08F4C
:103D500000B5FFF7B7FF0121814080480268114399
:103D6000016000BDFCB51646DDE907C50C0007463D
:103D700008D0FFF7EDFFCDE900C5324621463846B1
:103D8000FFF7A5FFFCBD2DE9FC4F9946DDE90BB718
:103D900092460D00064622D0FFF7DAFF00220121ED
:103DA0004FF00F0C01FA02F028420DD0D00806EBBC
:103DB0008003186A5407E40E0CFA04F820EA08009D
:103DC00007FA04F420431862521C102AEAD3CDE902
:103DD000009B5346022229463046FFF778FFBDE894
:103DE000FC8FF0B50E460546FFF76CFF00225A49DE
:103DF000C4B24FF0010C03270CFA02F333420CD08B
:103E000028684FEA420E07FA0EFE40EA0E002860CC
:103E100031F81400984321F81400521CD2B2102A31
:103E2000EAD3F0BDF0B500220125032605FA02F31E
:103E30000B4205D00468570006FA07F39C43046060
:103E4000521CD2B2102AF1D3F0BDF0B500220127E6
:103E5000032607FA02F33C460B4208D005685300DC
:103E600006FA03FC25EA0C059C4025430560521C1C
:103E7000D2B2102AEDD3F0BDF0B500220125032601
:103E800005FA02F30B4205D00468570006FA07F35F
:103E90001C430460521CD2B2102AF1D3F0BDF0B51D
:103EA000002201260324022706FA02F30B4209D05E
:103EB0000568530004FA03FC25EA0C0507FA03F32E
:103EC0001D430560521CD2B2102AEDD3F0BDF0B5EF
:103ED00000230127032507FA03F40C4209D0C66822
:103EE0005C0005FA04FC26EA0C0602FA04F42643F8
:103EF000C6605B1CDBB2102BEDD3F0BD41F4803209
:103F0000C261C161C261C169C0697047002102E03C
:103F1000491C89B240080128FAD80846704700B504
:103F2000FFF7D0FE012181400C4802688A430260FD
:103F300000BD00B5FFF7C6FE074931F8100000BD0F
:103F400000B5FFF7BFFE044931F81000C04380B24E
:103F500000BD00000000FEBF4C19002030380240B8
:103F600070B5FE4C2068C007FCD10225A560FC4856
:103F7000016841F400010160016821F40001016061
:103F8000F848FDF7B5FC206840F00100206020688B
:103F9000C007FCD1A56070BD30B5F24C2834A568CF
:103FA00024692C440444EF4884611C3080E80E00EE
:103FB00030BD2DE9F041EB4F044628371546387ED9
:103FC0000E4601286DD1B888A0426ADDF888B0425B
:103FD00067DD002D65D0002C02DA101985B20024AF
:103FE000002E00DA0026B9886019884202DBB88802
:103FF000001B85B2DB48022141604FF44031016073
:104000000021416103F01F018160C3F34511C160CC
:10401000C3F3C4210161787E01280AD1B87E3988B2
:1040200006FB0141484339882B46491B0122FFF713
:10403000B3FF787E80B9398878883A88801B401E23
:1040400000FB0210001BB97E401B484339882B46F9
:10405000491B0122FFF7A0FF787E03280DD1388885
:104060003988801B401E01FB0400B97E4843398813
:1040700001232A46491EFFF78FFF787E02280DD1C3
:1040800038887988491B091B00FB0160B97E4843C9
:10409000398801232A46491EFFF77EFFBDE8F0411B
:1040A0005EE7BDE8F081AF4810B528304FF05041D1
:1040B000816000230361F02202804FF4A0714180EF
:1040C0004FF496344461C280818043760221817628
:1040D000817E6143C160A24920310A6842F4000236
:1040E0000A600121017610BD9E492831CA68401E30
:1040F00042430A61704770B59A4B28335C7E92B296
:10410000012C14D05C7EE4B15C7E032C29D05C7E53
:10411000022C0BD19C681D692C445D88281A1D88CF
:10412000401E00FB0510997E4843225270BD9C68DA
:104130001D6925449C7E1B8801FB030044432A53D0
:1041400070BD9C681D6925441C88241A5888401A33
:104150001988401E641E00FB0140997E48432A5284
:1041600070BD9C681D692C441D881E8800FB06508C
:10417000401A997E401ED7E77A4A30B52832537EDE
:10418000012B09D0537E8BB1537E032B1BD0537E62
:10419000022B23D0002030BD936814691C44937E09
:1041A000128801FB02004343E05A30BD9368146952
:1041B00023441488201A5488611A1488401E491E0A
:1041C00001FB040013E093681469234414881588E4
:1041D00000FB0540401A917E401E09E09368146977
:1041E00023445488201A1488401E00FB0410917E3A
:1041F0004843185A30BD03280AD85A49283148760E
:104200004FF4A072F02320B1012802D0CB808A8025
:104210007047CA808B807047524902224A604FF42F
:1042200040320A600F224A6100F01F028A60C0F328
:104230004512C0F3C420C1E9032001F128008268BF
:1042400003691A448A610022CA6142880A620088AE
:10425000486285E62DE9F041DFF808C10C460CF113
:10426000280C05469CF8180006991E46174601289A
:104270007AD1BCF80400A84276D9BCF80600A04266
:1042800072D9BCF80620A019904203D3BCF80600EE
:10429000001B86B2BCF80420E819904203D3BCF896
:1042A0000400401B87B22F48022242604FF4403284
:1042B00002600F22426101F01F028260C1F34512C9
:1042C000C1F3C421C0E903219CF8190001280DD1D4
:1042D0009CF81A00BCF8001004FB01514843BCF8DC
:1042E00000103B46C91B3246FFF756FE9CF81900EA
:1042F000A8B9BCF80000BCF80210BCF80020891B6B
:10430000091B01FB0200401B9CF81A10C01B48430C
:10431000BCF800103B46C91B3246FFF73DFE9CF837
:104320001900032811D1BCF80000BCF80010001BD4
:10433000801B01FB05009CF81A104843BCF80010D4
:104340003346891B3A46FFF727FE9CF819000228DE
:1043500019D1BCF80000BCF8021006E000B0024021
:10436000103802406419002010E0C91B491B00FBF3
:1043700001409CF81A104843BCF800103346891BD2
:104380003A46FFF709FEBDE8F041E9E589E62DE987
:10439000F04115460C460646FE4F387E01286CD18A
:1043A000B888B04269DDF888A04266DD002D64D08F
:1043B000002E00DA0026002C00DA0024F9886019AB
:1043C000884202DBF888001B85B2F24802212838B7
:1043D00041604FF4403101600F21416103F01F0142
:1043E0008160C3F34511C160C3F3C4210161787ECC
:1043F00001280AD1B87E398804FB01614843398815
:1044000001232A46491EFFF7C7FD787E80B9388808
:1044100079883A88491B091B01FB0200B97E801B81
:10442000401E4843398801232A46491EFFF7B4FD40
:10443000787E03280DD138883988001B401B01FB8A
:104440000600B97E484339882B46491B0122FFF7F5
:10445000A3FD787E02280DD139887888801B401E04
:1044600001FB0040B97E484339882B46491B012295
:10447000FFF792FDBDE8F04172E512E62DE9F04745
:1044800099460E460746DDF820A0904609B200B2D4
:1044900053464A460D460446FFF779FF07EB0800EE
:1044A000401E00B253464A462946FFF770FF534666
:1044B000424629462046FFF77CFD06EB090001B283
:1044C000534642462046BDE8F04772E52DE9F04FDD
:1044D0000746C2F101000FFA80FCC2EBC230400077
:1044E00098460E464FF0010A0FFA80F9002514464F
:1044F000DDF824B05AE0BCF1000F09DB09F102003D
:104500000FFA80F9641E0CEB090024B20FFA80FC4C
:104510000AF102000FFA80FA6D1C0CEB0A000FFA88
:1045200080FC2DB25FEAC8700DD0701B81B2381BC1
:1045300080B25A46FFF7DFFD301B81B2781B80B294
:104540005A46FFF7D8FD5FEA88700DD5301B81B25F
:10455000781980B25A46FFF7CEFD701B81B2381928
:1045600080B25A46FFF7C7FD5FEA48700DD5301993
:1045700081B2781980B25A46FFF7BDFD701981B239
:10458000381980B25A46FFF7B6FD5FEA08700DD5BC
:10459000301981B2781B80B25A46FFF7ACFD701912
:1045A00081B2381B80B25A46FFF7A5FDA542A2DBB7
:1045B000BDE8F08F2DE9FC5F1E46DDE90C451700D4
:1045C0008846824670D0002E6ED04FF0FF30B4EB9C
:1045D000570F02D900EB57018CB2B4EB560F02D93A
:1045E00000EB560084B2B4EB570F5FD8B4EB560F14
:1045F0005CD8002C5AD0604207EB400B00900AEBCD
:10460000040000B21FFA8BF281462B460FFA88F1A4
:10461000FFF7CFFC08EB06000190401E01B21FFA25
:104620008BF248462B46FFF7C4FC00982B4606EB5E
:10463000400B08EB040006B21FFA8BF231460FFA6A
:104640008AF0FFF7A4FE0AEB0708A8F101001FFAA1
:104650008BF2314600B22B46FFF799FE22B231466B
:104660004846012317460095FFF730FFA8EB0400EA
:10467000401E0FFA80F8314602233A464046009524
:10468000FFF724FF01980095001B401E04B240462E
:1046900004233A462146FFF719FF214648460823DE
:1046A0003A460095FFF712FFBDE8FC9F4146504691
:1046B0000095FFF7E3FEF7E72DE9FE4F0027141AF8
:1046C000002C00DC841A0FFA84F85C1A002C00DC41
:1046D000CC1A0FFA84FC06460D464FF0FF34B24266
:1046E00003DB01200190009001E001940094AB42B3
:1046F00003DB4FF0010BDA4601E0A346DA46E04562
:104700004FF0000008DB8246019008EBD870C146EC
:104710004410CDF808C026E00090E1460CEBDC70B8
:10472000CDF808804FF0000B4410C8461BE0012272
:1047300029B230B20C9BFFF73CFC0298204404B233
:104740004C4508DBA4EB090004B20198304406B2E2
:1047500005EB0B0005B200987F1C304406B205EB58
:104760000A0005B23FB24745E1DDBDE8FE8F2DE905
:10477000FC5F0646C2F101000FFA80F901200190AA
:10478000C2EBC23040009A460F46DDF830800FFA87
:1047900080FB01E08C1900200025144671E0B9F17E
:1047A000000F09DB0BF102000FFA80FB641E09EB1E
:1047B0000B0024B20FFA80F96D1C01982DB2801CF9
:1047C00000B2019048440FFA80F95FEACA7013D032
:1047D000381B01B2701B02B20B463046CDF8008088
:1047E000FFF76AFF781B01B2301B02B20B4630465E
:1047F000CDF80080FFF760FF5FEA8A7013D5381BA1
:1048000001B2701900B20B463246CDF80080FFF7B6
:1048100053FF781B01B2301900B20B463246CDF877
:104820000080FFF749FF5FEA4A7013D5381901B2DB
:10483000701902B20B463046CDF80080FFF73CFFFE
:10484000781901B2301900B20B463246CDF800801B
:10485000FFF732FF5FEA0A7013D5381901B2701BF7
:1048600000B20B463246CDF80080FFF725FF7819DD
:1048700001B2301B02B20B463046CDF80080FFF784
:104880001BFFA5428BDB0FE72DE9FC5F1E46DDE930
:104890000C4517008A46814669D0002E67D04FF03C
:1048A000FF30B4EB570F02D900EB57018CB2B4EBD9
:1048B000560F02D900EB560084B2B4EB570F57D80D
:1048C000B4EB560F54D8E4B3C4F1000807EB48002A
:1048D00082B209EB0400CDE9005080B25146FFF7E7
:1048E000B9FC06EB480B0AEB04081FFA8BF31FFA1E
:1048F00088F1224648460095FFF7ACFC1FFA8BF37F
:1049000009EB0700A0EB040B1FFA88F11FFA8BF0EC
:1049100022460095FFF79EFC01980FFA88F100B23D
:1049200022B288460095814601231746FFF71FFFF4
:10493000ABF10100414600B2804602233A460095A1
:1049400000E015E0FFF713FF0AEB0600001B401E16
:1049500004B2404604233A4621460095FFF707FF7C
:104960002146484608233A460095FFF700FF9BE69C
:10497000514648460095FFF76DFC95E6F8B516469A
:104980000D4604460CE034F8020B34F8021B009686
:10499000B4F90230B4F9002009B200B2FFF78CFE7E
:1049A0006D1E2D042D0CEED1F8BD2DE9FF4F0746ED
:1049B000C2F1010091460FFA80F8C2EBC930400005
:1049C0000FFA80FA83B00E4601EB090001B24FF0F6
:1049D000010B14B238B200255A46069B0090FFF72F
:1049E000D6FCA6EB090001B20122069B0098FFF756
:1049F000CEFC07EB090031B200B20122069B009108
:104A0000FFF7C5FCA7EB090000B20122069B009945
:104A100054E0B8F1000F09DB0AF102000FFA80FA46
:104A2000641E08EB0A0024B20FFA80F80BF10200B2
:104A30000FFA80FB08EB0B000FFA80F830196D1CA1
:104A400001B22DB2781900B2019089460122069B6D
:104A5000FFF79DFC781B494600B281460122069B68
:104A6000FFF795FC301B01B200910122069B0198D3
:104A7000FFF78DFC48460122069B0099FFF787FC53
:104A8000701901B2381900B2019089460122069BC3
:104A9000FFF77DFC381B00B2494600900122069BBF
:104AA000FFF775FC701B01B289460122069B019835
:104AB000FFF76DFC49460122069B0098FFF767FC53
:104AC000A542A6DB07B073E52DE9FF4F8146C2F191
:104AD0000100904607B2C2EBC83040000FFA80FADE
:104AE00083B00E4601EB080001B24FF0010B14B287
:104AF0000FFA89F000255A46069B0090FFF747FC05
:104B0000A6EB080001B20122069B0098FFF73FFCCC
:104B100009EB080031B200B20122069B0091FFF7B9
:104B200036FCA9EB080000B201900122069B009917
:104B3000FFF72DFC4FF6FF7101EA4802DDE9001096
:104B4000069B3BE0002F08DB0AF102000FFA80FA17
:104B5000641E07EB0A0024B207B20BF102000FFA41
:104B600080FB07EB0B006D1C07B22DB24FF6FF70F8
:104B700000EA4502301901B2A9EB050000B28046F7
:104B80000092069BFFF715FA301B01B24046069BC8
:104B9000009AFFF70EFA4FF6FF7000EA4402701910
:104BA00001B2A9EB040000B280460092069BFFF719
:104BB00000FA701B01B24046069B009AFFF7F9F914
:104BC000A542BFDB7EE72DE9F84F1BB2DDE90B54B0
:104BD000DDF828B012B209B200B29A469146884672
:104BE00007460094FFF768FD2BB20FFA8BF21E46C2
:104BF0001546514648460094FFF75EFD43463A4647
:104C0000314628460094FFF757FDBDE8F88F2DE99F
:104C1000FE4F84460027A2EB0C000C46002801DC66
:104C2000ACEB020001B2181B002800DCE01A00B255
:104C30000FFA8CF625B24FF0FF38624503D30122FC
:104C40009346019202E0C346CDF80480A34203D309
:104C50004FF0010AD14601E0C246D14681424FF0F1
:104C6000000207DB9146019201EBD1725410884695
:104C7000029028E0934600EBD0724FF0000A5410E7
:104C8000804602911FE00E9800900D98294603B2CD
:104C90000C9802B23046FFF70FFD0298204404B290
:104CA000444508DBA4EB080004B20198304406B286
:104CB00005EB0A0005B206EB0B0006B205EB090096
:104CC0007F1C05B23FB24745DDDD4EE5F0B5244C13
:104CD000DDE905762568ED07FCD14FF0020CC4F83C
:104CE00008C0204DD5F800E04EF4000EC5F800E0F5
:104CF000D5F800E02EF4000EC5F800E06D15256033
:104D0000E060E16327612664C4F81CC062F31F43BE
:104D10006364206840F001002060F0BD3CB5DDE92F
:104D20000545CDE90045FFF7D1FF0D480168C907EA
:104D3000FCD1022181603CBD0B4902880A80428877
:104D40004A8082688A60C268CA6002798A760A8864
:104D50004B885A434A61007C4876487EFFF74BBA3D
:104D600000B00240103802408C19002000F06FF8AB
:104D7000FEF785FDFEE77047FEE7FEE7FEE7FEE78C
:104D8000704770477047704710B5FCF7FFFE10BDC5
:104D90001CB500215B4A00910191106840F48030FD
:104DA00010604FF4A043106800F4003001900098A8
:104DB000401C0090019810B900989842F3D11068F7
:104DC000800342D5012001904E484030016841F0F7
:104DD000805101604C49086840F4404008604948EF
:104DE000083003680360036843F40043036003680A
:104DF00043F4A0530360041F444B2360136843F043
:104E00008073136013689B01FCD50A6842F48032FA
:104E10000A604A68D203FCD50A6842F400320A608C
:104E20004A689203FCD53A4A40F205711160016864
:104E300021F003010160016841F002010160016895
:104E4000C1F381010229FAD11CBD01911CBD314879
:104E500010B5016841F4700101602A48016841F011
:104E600001010160274A00210832116002682A4BC3
:104E70001A400260031D294A1A60026822F4802247
:104E8000026020480C300160FFF782FF21494FF09B
:104E900000608039086010BD70B51A4D083528686B
:104EA0001F4B204910F00C0004D01F4E042803D0E3
:104EB000082803D00B601BE00E6019E0114A121D98
:104EC0001068C0F38054106800F03F0014B1B6FBC6
:104ED000F0F001E0B3FBF0F013681268C3F388133D
:104EE0005843C2F30142521C5200B0FBF2F008607A
:104EF00028680C4AC0F30310121D105C0A68C240F7
:104F00000A6070BD0038024000700040085440073D
:104F1000003C024088ED00E0FFFFF6FE1030002468
:104F20000024F4004C00002040787D017CB5012174
:104F30000220FBF776FB4FF45040032400908DF8DD
:104F4000054002208DF8040001208DF806003C4D3C
:104F50008DF8070069462846FBF7A8FC0C2211468D
:104F60002846FBF717FD0C220E212846FBF712FD01
:104F70000C220F212846FBF70DFD4FF400518DF850
:104F80000540002000918DF8040069462846FBF793
:104F90008DFC01214807FBF744FB7CBD08B54FF4AD
:104FA000C060FBF77BF94D208DF8000001208DF8E3
:104FB000010003218DF802108DF803006846FBF70D
:104FC00072F908BD1F4800294FF0100101D0FBF70E
:104FD000D4BCFBF7D0BC08B50021C0EB0010C0006A
:104FE00000910721B0FBF1F10098401C009088422D
:104FF000FAD908BD4FF47A714843ECE71CB501219A
:105000000420FBF70EFB1020009003208DF8050014
:1050100001208DF8040000208DF80600094C8DF861
:10502000070069462046FBF741FC10212046FBF7AC
:10503000A2FCC820FFF7DEFF1CBD034801F0B9BA8F
:105040000004024000080240A8190020F8B500261C
:10505000044637460096FE4D0320FFF7BCFFE0688C
:10506000006900907F1CAF4201D90020F8BD009874
:105070000028F1DA0098002140F00100009000982B
:10508000E2681061E06802690092491CA94202D8F6
:10509000009AD207F7D10320FFF79DFF3046F8BDF5
:1050A00030B505460020EC78002C0CD105EB8202CF
:1050B000DB1C9B08D2F8D02003E051F8045B15609C
:1050C000641C9C42F9D330BD10B504460023D21CA9
:1050D0009008D4F8D02003E0146841F8044B5B1C1E
:1050E0008342F9D3084610BD70B50022C270012377
:1050F000837040268680022615461446012901D079
:1051000059B115E0C3720821017004214FF0A0428B
:1051100041709115C18006720AE0C4720C210170C1
:10512000062141704FF4A061C180CA4A0672C37063
:1051300002F50061C0E9032100210AE002EB4113FE
:1051400003F5106600EB810403F53063A661491C8A
:10515000636543788B42F1D802F58061416140314B
:10516000C0F8CC10002108E002EB411300EB8104F1
:1051700003F5A063491CC4F8903003788B42F3D840
:10518000002108E002EB013300EB810403F58053BA
:10519000491CC4F8D03003788B42F3D802F5606222
:1051A000C0F80C21284670BD70B50446017A002570
:1051B000C068012915D0C16841F04001C160204696
:1051C000FFF744FF617A4FF4341009B14FF47410C3
:1051D000E16888631420FFF70DFFE07801281BD0F9
:1051E00022E0816B627A21F480310AB141F48011AE
:1051F0008163E068C16821F0401121F4202141F46D
:105200008011C1602046FFF721FFE07801280BD113
:10521000E1682A208860E0E7E068816821F01E01EB
:105220000A3141F020018160284670BDC06800222B
:10523000816841F00101816010467047C06800221A
:10524000816821F0010181601046704738B5002463
:10525000034622460094009840F0200000900098F9
:1052600061F38A1000900098D96808617848D9687D
:105270000B690093521C824202D8009B9B06F7D414
:105280000320FFF7A8FE204638BD38B500240246AB
:1052900021460094009840F0100000900098D368D8
:1052A00018616B48D26813690093491C814202D887
:1052B000009BDB06F7D40320FFF78DFE204638BDA8
:1052C00010B5C3680024D868012920F0C04201D07D
:1052D00019B104E042F0005201E042F08042DA608D
:1052E0003220FFF787FE204610BDC068406900F0FD
:1052F00001007047C068406910F0010F01D0002024
:10530000704701207047C068406910F0010000D06C
:1053100001207047C0684169806908407047C068D3
:105320004068704710B5C368002211469A61C4688E
:10533000531E6361C4686360C4686FF08043636137
:10534000C468454BA361C37803B91021C06841F01C
:105350000C5141F00801836941F400118B430B4368
:105360008361104610BDD0F8CC00006820F02E00FC
:10537000704770B50C460546FFF724FE2846FFF738
:10538000F2FFC10408D4012C04D1D5F8CC1040F4AC
:1053900080500860C10405D524B9D5F8CC1020F49C
:1053A00080500860BDE87040C820FFF723BE70B58C
:1053B0000546FFF7D8FF40F4807455F8CC0F046021
:1053C0000A20FFF717FE296824F480700860142073
:1053D000FFF710FE012070BD4069026861F3010211
:1053E000026070472DE9F041002704463D463E46E5
:1053F000FFF704FED4F80C010660207A01280ED0D5
:1054000001212046FFF7E8FF2046FFF7D0FF606943
:10541000016821F004010160E07A10B117E0002179
:10542000EFE7E0684FF400714162304661F30F002E
:10543000E268491061F31F4090624FF440723046B9
:1054400062F30F0061F31F40E168C1F8000105E05D
:10545000400D030000000440000800801021204699
:10546000FFF7F4FE2046FFF710FF4FF0FF3107E093
:1054700004EB850050F8902F91600068C6606D1CA9
:105480002078A842F4D801212046FFF772FF204679
:10549000FFF748FF3846BDE8F0814069806840F377
:1054A0000000401C7047406940697047F0B500EB50
:1054B00081060027D6F890403D467B1E2A46A36011
:1054C000C378012B00D1042200EB411393F8B143C0
:1054D00034B1012C1FD0022C02D0032C27D10EE0B6
:1054E00042F0890293F8AE4342F4826284B993F8A1
:1054F000B04342F04002D4B142F0200217E093F8EA
:10550000AEC342F0990242F4C062BCF1000F0ED06B
:1055100042F480720BE093F8AEC342F0010242F411
:105520000872BCF1000F02D042F08002F0E7D6F81A
:105530009040E26001228A4041698C6914438C6189
:10554000C068816941F00071816193F8AC0360F338
:105550009C5593F8AD0360F3CE2593F8AE0360F34A
:10556000CF3593F8AF0302280CD025F4003093F820
:10557000B113B3F8B22361F3934062F30A00032935
:1055800003D004E045F40030F1E740F00050D6F8D5
:10559000901008603846F0BDF0B500EB41140026CD
:1055A000D4F8BC3305464FF4807C37466BB1B4F871
:1055B000B2239818401EB0FBF2F080B2604505D9C6
:1055C00012026046C4F8BC2300E0012094F8AE2328
:1055D000AAB1B4F8B2234243C4F8BC2362F3120761
:1055E00060F3DC4794F8B40305EB810360F35E7766
:1055F000D3F890000761E878012803D007E0D4F8D9
:10560000BC23EBE7D3F89020D4F8B803506153F8EB
:10561000900F02682846FFF740FF60F35D7222F0AA
:1056200080401A6840F000401060E87890BB94F821
:10563000AE0378BBD4F8BC2362B394F8B10330B1A5
:10564000012810D0022802D0032819D10BE0E86805
:10565000C36AD21CC2F38F029BB2934210D28269FA
:1056600042F020020BE068690069D21CC2F38F028D
:1056700080B2904204D2E868826942F0806282611E
:10568000B4F8BC030A4683B2D4F8B80301462846EE
:10569000FFF706FD3046F0BD10B500EB8101002399
:1056A000D1F89020116841F0404111F4402F09D009
:1056B000C1F38144022C05D04069006910F47F0FCA
:1056C00003D004E0C068C06AF8E721F0004111602F
:1056D000184610BD10B500EB8100002350F8901F54
:1056E0004FF00042012464F3DC420A610068016863
:1056F00021F0804141F000410160184610BD10B515
:1057000004460020616988616169401E486100218A
:105710000AE004EB8100D0F89000026822F08022B9
:1057200042F080420260491C20788842F1D820462D
:10573000FFF7ABFD2046BDE81040102186E510B50F
:10574000002204461346C0F8102304EB8200C0F880
:105750001433C0F85033A01880F88C33521CD2B2E6
:105760000F2AF2D30820A4F8B2032046FFF7BCFCAE
:105770002046FFF763FD2046FFF716FD0121204676
:10578000FFF79EFD2046FFF72DFE2046FFF74EFD5A
:10579000002010BDD0F8CC000068C0F34140704735
:1057A00010B5FFF704FE002010BDD0F810037047BD
:1057B0004069806880B27047084490F89B03704746
:1057C00000EB8100D0F850037047084490F88C0338
:1057D0007047FFF76BBE0022431883F89B2300EB52
:1057E0004113C3F8C023FFF7D7BE00000CB5014634
:1057F000D1F8900000680090009820F0004000F17F
:1058000000400090009820F0804000F1804000901F
:10581000009AD1F89000026000200190019820F4D5
:10582000001000F5001001900198CA685061012035
:105830000CBD38B5044600200090FE480068816821
:1058400020468847009820F0005000F1005000905A
:105850000098E1684861012038BDFEB50446002685
:1058600000250020009002900190D4F8CC00006840
:105870000290D4F8CC0000680190019820F0040058
:105880000190019820F002000190019820F008009A
:105890000190019820F0200001900298C0F3400090
:1058A00058B1019820F00200801C0190E148006886
:1058B00041682046884745F001050298C0F3C000C2
:1058C000002842D0019820F008000830019002988A
:1058D000C0F38000002838D0D648006841682046D0
:1058E00088470298C0F34140022804D00298C0F3D0
:1058F0004140012828D16069006800900298C0F3F7
:105900004140022811D141F27071606941600098F4
:1059100000F00300022818D0207A022803D10221C7
:105920002046FFF759FD01260FE04BF680316069F4
:105930004160009800F00300012806D001212046B4
:10594000FFF74AFD012600E001260298C0F340104F
:1059500030B1019820F020002030019045F0010581
:1059600016B12046FFF723FD0199D4F8CC00016061
:105970002846FEBD7FB505460C4605F1900050F85F
:105980002460B0680390F0680290DDE902100840DE
:10599000039005F1900050F82400006801900398EE
:1059A000C0F38000D0B100200090009820F00400E7
:1059B000001D00900098B06005F1900050F82400A0
:1059C000C0680090009820F00200801C009005F153
:1059D000900050F824000099C160B4E10398C0F32E
:1059E000401048B100200090009820F020002030A6
:1059F00000900098B060A6E10398C0F34020F8B191
:105A000005F1900050F82400C0680090009820F044
:105A10000200801C009005F1900050F824000099CD
:105A2000C160E1B22846FFF737FE002000900098E1
:105A300020F4007000F5007000900098B06082E1E2
:105A4000039800F0010038B3002105F5457040F8D7
:105A5000241005F1900050F82400C06800900098D0
:105A600020F00200801C009005F1900050F8240006
:105A70000099C160E1B22846FFF70EFE00200090B9
:105A8000009820F00100401C00900098B0600121B7
:105A900005F56370015556E10398C0F3C00010B3DB
:105AA00000200090009820F0080008300090009836
:105AB000B06005F1900050F82400C0680090009894
:105AC00020F00200801C009005F1900050F82400A6
:105AD0000099C160E1B22846FFF7DEFD052105F51A
:105AE000637001552FE10398C0F3001038B3002113
:105AF00005F5457040F8241005F1900050F8240099
:105B0000C0680090009820F00200801C009005F111
:105B1000900050F824000099C160E1B22846FFF7D8
:105B2000BBFD00200090009820F010001030009085
:105B30000098B060032105F56370015503E10398F7
:105B4000C0F3C01040B305F1900050F82400C068C5
:105B50000090009820F00200801C009005F1900059
:105B600050F824000099C160E1B22846FFF794FD87
:105B700005F5457050F82410491C40F82410062102
:105B80007830015500200090009820F0800080308F
:105B900000900098B060D6E00398C0F3801038B34E
:105BA000002105F5457040F8241005F1900050F8EB
:105BB0002400C0680090009820F00200801C009033
:105BC00005F1900050F824000099C160E1B2284628
:105BD000FFF762FD00200090009820F04000403068
:105BE00000900098B060042105F563700155AAE0AB
:105BF0000398C0F3802078B305F1900050F824009A
:105C0000C0680090009820F00200801C009005F110
:105C1000900050F824000099C160E1B22846FFF7D7
:105C20003BFD00200090009820F010001030009004
:105C3000009801E06C000020B060082105F5637059
:105C4000015500200090009820F4806000F58060ED
:105C500000900098B06076E0FFE70398C0F3400042
:105C6000002870D005F1900050F82400C068009022
:105C7000009820F00200009005F1900050F82400F8
:105C80000099C16005F56370005D012815D10121FF
:105C900005F29B3001550198C0F38140022848D19C
:105CA00005F56B7000EB4410407E80F0010105F5B6
:105CB0006B7000EB441041763BE005F56370005DCE
:105CC000032804D1022105F29B30015531E005F58E
:105CD0006370005D04280FD105F56B7000EB441074
:105CE0000079012803D1E1B22846FFF7F3FC022135
:105CF00005F29B3001551CE005F56370005D052839
:105D000004D1042105F29B30015512E005F56370C2
:105D1000005D06280DD105F5457050F824000328D4
:105D200007D1032105F29B3001550021873840F847
:105D3000241000200090009820F00200801C0090A9
:105D40000098B06000BF012004B070BD70B586B08F
:105D500005460C4605F1900050F82460B0680590A7
:105D6000F0680490DDE904100840059005F190000A
:105D700050F8240000680390002004900598C0F3B8
:105D80008000D0B100200190019820F00400001D97
:105D900001900198B06005F1900050F82400C068AF
:105DA0000190019820F00200801C019005F1900004
:105DB00050F824000199C16073E00598C0F34010C9
:105DC00048B100200190019820F02000203001907F
:105DD0000198B06065E00598C0F3C00078B305F1A4
:105DE000900050F82400C0680190019820F0020053
:105DF000801C019005F1900050F824000199C160C9
:105E0000052105F56370015500200190019820F0EF
:105E10001000103001900198B060002001900198AE
:105E200020F00800083001900198B060059820F03B
:105E300010000590E1B22846FFF72EFC31E0FFE7A5
:105E40000598C0F3802060B305F1900050F824005D
:105E5000C0680190019820F00200801C019005F1BB
:105E6000900050F824000199C160E1B22846FFF784
:105E700013FC00200190019820F0100010300190D8
:105E80000198B060082105F563700155002001906C
:105E9000019820F4806000F5806001900198B06066
:105EA00000BF0598C0F34020F8B105F1900050F80C
:105EB0002400C0680190019820F00200801C01902D
:105EC00005F1900050F824000199C160E1B2284624
:105ED000FFF7E2FB00200190019820F4007000F52C
:105EE000007001900198B06042E1059800F0010057
:105EF000002871D0E878012812D105F1900050F8FF
:105F000024000069029005F56B7000EB44100069F5
:105F10000299C1F31201411A05F5547040F824109A
:105F2000012105F5637001550021783840F82410EF
:105F300000200190019820F00100401C0190019880
:105F4000B0600398C0F3814020B10398C0F3814052
:105F500002282AD105F1900050F82400C068019071
:105F6000019820F00200801C019005F1900050F88B
:105F700024000199C160E1B22846FFF78DFB0020A3
:105F80000190019820F01000103001900198B0604D
:105F900005F56B7000EB4410007E80F0010105F503
:105FA0006B7000EB44100176E2E00398C0F381408F
:105FB000032899D1039820F0005000F1005003907D
:105FC00005F1900050F8240003990160012105F2C9
:105FD0009B300155CCE0FFE70598C0F34000002856
:105FE00051D005F1900050F82400C068019001984C
:105FF00020F00200019005F1900050F82400019972
:10600000C16005F56370005D012804D1012105F22E
:106010009B3001552DE005F56370005D052804D126
:10602000042105F29B30015523E005F56370005D06
:10603000062804D005F56370005D082808D100210A
:1060400005F5457040F8241003218730015510E014
:106050000398C0F3814003280BD105F56B7000EB6A
:106060004410007E80F0010105F56B7000EB4410D8
:10607000017600200190019820F00200801C019020
:106080000198B06074E00598C0F3C01040B305F10A
:10609000900050F82400C0680190019820F00200A0
:1060A000801C019005F1900050F824000199C16016
:1060B00005F5457050F82410491C40F824100621BD
:1060C00078300155E1B22846FFF7E6FA002001904A
:1060D000019820F08000803001900198B06047E086
:1060E0000598C0F30010E8B30398C0F3814003287B
:1060F00015D105F1900050F82400C0680190019876
:1061000020F00200801C019005F1900050F824005E
:106110000199C160E1B22846FFF7BEFA18E0039882
:10612000C0F3814020B10398C0F3814002280FD111
:10613000039820F0004000F100400390039820F005
:106140008040039005F1900050F82400039901600D
:10615000032105F56370015500200190019820F09E
:10616000100000E004E0103001900198B06000BF22
:10617000012006B070BD7CB50546002400262846E7
:10618000FFF791F9019000BF1BE0019880B2012157
:10619000A1400840A0B105F1900050F8240000682B
:1061A00000900098C0F3C03028B121462846FFF780
:1061B000CDFD064304E021462846FFF7DBFB0643FE
:1061C000641C2878A042E0D830467CBDFEB5044669
:1061D0006069006900900198C0F3C30104F56B7019
:1061E00000EB41100069C01CC0F38F0674E04FF64D
:1061F000FF71009801EA80050198C0F3C30104F51E
:106200006B7000EB41100069A84216D20198C0F3F0
:10621000C30104F56B7000EB4110008A85B20020C9
:106220000290029820F0806000F180600290E068A7
:10623000806902998843E16888610198C0F3C301CD
:1062400004F56B7000EB41100069C01CC0F38F06B1
:106250000198C0F3C302C0F3C30304F56B7000EBF5
:1062600043102B46C1682046FEF71AFF0198C0F381
:10627000C30104F56B7000EB4110C068411901982F
:10628000C0F3C30204F56B7000EB4210C1600198CB
:10629000C0F3C30104F56B7000EB41100069411BB2
:1062A0000198C0F3C30204F56B7000EB421001616A
:1062B0000198C0F3C30104F56B7000EB4110406915
:1062C00041190198C0F3C30204F56B7000EB421052
:1062D0004161606900690090009880B2B0420ADDB7
:1062E0000198C0F3C30104F56B7000EB4110006925
:1062F00000287FF47CAF0120FEBD7FB50446E06836
:10630000C06A00900198C0F3C30104F56B7000EB04
:1063100041100069C01CC0F38F0673E04FF6FF7197
:10632000009801EA80050198C0F3C30104F56B7081
:1063300000EB41100069A84215D20198C0F3C301D7
:1063400004F56B7000EB4110008A85B200200390C9
:10635000039820F0200020300390E06880690399C2
:106360008843E16888610198C0F3C30104F56B704C
:1063700000EB41100069C01CC0F38F060198C0F308
:10638000C302C0F3C30304F56B7000EB43102B464C
:10639000C1682046FEF784FE0198C0F3C30104F5EE
:1063A0006B7000EB4110C06841190198C0F3C30243
:1063B00004F56B7000EB4210C1600198C0F3C3019B
:1063C00004F56B7000EB41100069411B0198C0F3AC
:1063D000C30204F56B7000EB421001610198C0F339
:1063E000C30104F56B7000EB41104069411901983D
:1063F000C0F3C30204F56B7000EB42104161E0682A
:10640000C06A0090009880B2B0420ADD0198C0F3E3
:10641000C30104F56B7000EB4110006900287FF4A4
:106420007DAF012004B070BD30B585B004460020BA
:1064300000900390039820F0100010300390E06863
:10644000806903998843E1688861E068006A049084
:10645000049800F00F00009004F190009DF80010E7
:1064600050F82100006801900498C0F343400228CE
:1064700006D0032878D0052877D0072873D175E097
:106480000498C0F30A10002869DD04F56B709DF8CC
:10649000001000EB4110C068002860D00498C0F3E1
:1064A0000A1204F56B709DF8003000EB4310C168D0
:1064B0002046FEF709FE049800F00F0104F56B700A
:1064C00000EB4110C0680499C1F30A11014404981B
:1064D00000F00F0204F56B7000EB4210C1600498ED
:1064E00000F00F0104F56B7000EB41104069049956
:1064F000C1F30A110144049800F00F0204F56B7017
:1065000000EB4210416104F56B709DF8001000EB48
:106510004110456904F554709DF8001040F8215071
:1065200004F190009DF8001050F8210000690290DD
:106530000298C0F3C940002811DD019820F0004006
:1065400000F100400190019820F08040019004F19A
:1065500090009DF80020019950F82200016006E0AB
:1065600002E002E0FFE700BF00BF00BF00BF00BFC6
:10657000039820F0100010300390E06880690399C0
:106580000843E1688861012005B030BD38B5044694
:106590000020009031480068016820468847009834
:1065A00020F00800083000900098E1684861012060
:1065B00038BD38B505460024002000902846FEF777
:1065C000A2FE002847D02846FEF7A4FE00900098BF
:1065D00008B9002038BD0098C0F3C00018B12846A3
:1065E000FFF7D4FF04430098C0F3001018B1284609
:1065F000FFF71AFF04430098C0F3401018B1284673
:10660000FFF77BFE04430098C0F3806018B1284672
:10661000FFF7DCFD04430098C0F3406018B1284642
:10662000FFF7A9FD04430098C0F3006018B12846A5
:10663000FFF713F904430098C0F3407018B12846DF
:10664000FFF7F7F804430098C0F3405018B128460C
:10665000FFF7CCF804432046BCE700006C000020A4
:106660000121C0F81013002070470021C0F810135A
:10667000084670470020704770B50C460021217015
:106680006170A17001220546E27022774020A0715E
:1066900084F8201084F821202179284600F00FFB8F
:1066A0006179284600F00BFB002070BD2DE9F04118
:1066B0001D4614460F468046069EFEF737FC002016
:1066C000FEF79CFC21464046FFF7D6FFE4E91F5643
:1066D00039464046FFF733F8606800688047404617
:1066E000BDE8F041FEF75ABC2DE9F05F0026804678
:1066F0008E740C46087F0B2509270121DFF8FC94D6
:106700004FF0080B4FF0050A0C2817D2DFE800F015
:10671000D1060E39415A677B849EAFC4627904F179
:106720001401404600F009FD0220AEE061794046C8
:10673000FFF742F8012802D003281ED0B9E0207DDF
:10674000618B00F0800051B141F28832A9F800203D
:10675000802802D084F81CA008E0032005E0322243
:10676000A9F80020802806D0072020774046FFF7B0
:106770001FF820829DE02777F8E7257784F812A09C
:1067800097E02379A2894046A16800F005FD042026
:106790007BE021794046FFF70FF801280DD004284F
:1067A0000DD0032876D04046FFF702F8218A411A1F
:1067B000B9F8000081426DD87BE02777F3E7607875
:1067C000207076E0627908EB421080F8C513637997
:1067D000A2894046A16800F0C4FC062055E061791A
:1067E0004046FEF7E9FF012804D0042804D002281F
:1067F00006D044E0072048E0607820700C2044E098
:1068000084F81CA055E0002223791146404600F090
:10681000C3FC84F81CB04CE021794046FEF7CCFF65
:10682000074601282ED0032F34D04046FEF7C0FF84
:10683000218A411AB9F8000081422BD8042F38D19F
:10684000607820700420A074032632E06179002271
:1068500008EB411090F8C51381F0010180F8C513D1
:1068600063791146404600F07CFC0A200DE0617916
:106870004046FEF7A1FF012804D0022808D00328D3
:1068800008D016E0607820700D20207711E001E03C
:1068900027770EE025770CE0A07B401CC0B2A073E8
:1068A000022801D8217704E084F812B060782070C3
:1068B00002263046BDE8F09F70B50A25044605293A
:1068C0000AD0042908D006290BD12570D0F8800001
:1068D0000068BDE870400047D4F88000406C8047F5
:1068E000257070BD2DE9F0410C4680460125897860
:1068F0000026FF2092B02F460A2956D2DFE801F089
:10690000052332565F71849BAEB80822214640466B
:1069100000F0E8FC002848D194F82900A071404616
:10692000FEF73EFFA770A0790023CDE900606179F2
:106930001A46404600F090F9A0790023CDE90060A6
:1069400021791A462EE012222146404600F0CAFC68
:1069500000282AD1D4F88000C16904F122008847B8
:10696000022083E001222146404600F0EBFD002892
:106970007FD10220FEF73EFB84F82070D4F880001F
:10698000A41C006A80470320207000960196A27F15
:10699000A1780023404600F05FF900960196A27F9F
:1069A000E1780023404600F057F962E009222146D1
:1069B000404600F079FD00285BD1042056E0E28ECD
:1069C0002146404600F070FDA0BBD4F8800004F1E1
:1069D000500204F13E01436A04F134009847052057
:1069E00044E094F83020062652B1009002AB2146D4
:1069F000404600F083FDE8B9D4F88000816A11E0D8
:106A0000D4F88000816A12E094F8312007265AB148
:106A1000009002AB2146404600F070FD50B9D4F81A
:106A20008000C16A02A803E0D4F88000C16A74A0A3
:106A30008847A6701DE094F83220082652B10090D5
:106A400002AB2146404600F059FD90B9D4F88000D1
:106A5000016BE7E7D4F88000016BE8E794F8392090
:106A60002146404600F07AFD18B90920A07000E0E8
:106A7000002512B02846BDE8F0812DE9FC41022630
:106A80000C4605468DF80060FEF78FFE20B9207891
:106A900010B1022800D026702078002604F12007CB
:106AA0000B2848D2DFE800F0061294474965777F4B
:106AB000554784002846FEF778FE00283BD0012089
:106AC0002070BDE8FC416420FEF794BAD4F8800041
:106AD000806880470021284600F0D7F86071802147
:106AE000284600F0D2F820712846FEF759FE00280B
:106AF00021D1D4F88000241DC06880472846FEF7C5
:106B000049FEC0B26077042104F8041CE16F896972
:106B10008847A078CDE90060637F227F21782846EE
:106B200000F070F8A078CDE90060637F227F617883
:106B3000284600F067F8BDE8FC8121462846FFF7AB
:106B4000D1FE0028F7D1D4F88000406B80470820A0
:106B50000DE0D4F88000806B80470128EBD1E06F16
:106B600021460268284690470028E4D1052020707D
:106B7000E1E7E06F21468268284690478DF80000E3
:106B80009DF8000008B90620F1E79DF800102046A6
:106B9000BDE8FC4190E6E06F2146C2682846904778
:106BA0008DF80000F1E721462846BDE8FC419BE551
:106BB00021462846FFF760FDD4F8800040688047F2
:106BC000E06F3946426802B02846BDE8F041104700
:106BD000D4F880000069804721462846FFF74CFD25
:106BE000D4F8800040688047E06F39464268284604
:106BF0009047284600F06FF826709CE77000002050
:106C00004E2F41002DE9F04100EB4105DDE906671B
:106C100095F88C4504F07F0C00EB411484F8ADC36B
:106C200095F88C55C5F3C01584F8AE5384F8AC23A1
:106C300084F8B163A4F8B27384F8AF33002284F807
:106C4000C42384F8C52313B9012284F8B023FEF7C6
:106C50002DFC0020BDE8F08170B500EB4114059DCE
:106C60000AB184F8AC23B4F8B223AA4202D00DB121
:106C7000A4F8B25394F8AF239A4202D00BB184F82F
:106C8000AF33FEF713FC002070BD30B50346002281
:106C90004FF6FF7403EB4205B5F88C552D0404D56F
:106CA000521CD2B2082AF5D32246A24205D003EBE9
:106CB000420041F40041A0F88C15D0B230BD082943
:106CC00007D200EB4100B0F88C15C1F30E01A0F81B
:106CD0008C15002070470221002200EB4103491C63
:106CE000C9B2A3F88C250829F7D30020704700000B
:106CF0002DE9FC47B94E8246062086F8420091F8FD
:106D00004400002501270C46012806D0D1F8800058
:106D1000006C80473846BDE8FC8794F845000128A0
:106D200002D0022802D003E0AD4800E0AD48306553
:106D30004FF0000986F8429086F8459094F852008A
:106D400086F84800B4F85400A6F8460094F85600B7
:106D5000A6F84A000A2802D20A20A6F84A0094F8A7
:106D60004270022F00D902274FF0030829E004EBFC
:106D7000C50090F852100A060CD586F8441090F819
:106D8000521050464036FFF780FF06F8060B36F8E3
:106D900046190AE086F8431090F852105046FFF763
:106DA00074FF86F84100B6F84610CDE9008101462F
:106DB00094F8213094F820205046FFF723FF6D1CF3
:106DC000EDB2BD42D3D3884981F800900027A1E7F6
:106DD00070B5824C0646002594F8401041B1FEF78C
:106DE0005BFC94F840103046FFF769FF84F8405090
:106DF00094F8411041B13046FEF74EFC14F8411FA3
:106E00003046FFF75CFF25707748057070BD2DE9AF
:106E1000FC41724D0126044695F845C0212300220D
:106E2000374600F58870BCF1050F62D2DFE80CF040
:106E3000032F033F51000922CDE900024FF4045310
:106E40000122204600F036FA00BB644894F8101185
:106E50005430017094F81111417094F8121194F8A3
:106E6000132101EB0221418094F81411017194F86F
:106E70001511417194F81611817194F8171194F855
:106E8000182101EB0221018185F8457031E0534A58
:106E90004FF4085354321289CDE9000201222046F2
:106EA00000F008FA28BB032085F8450021E00B75A7
:106EB0000A234B75CA820A834A83002320461A4656
:106EC00000F018F9042108B1032812D185F8451003
:106ED0000FE00B750B234B75CF820A8317464A834D
:106EE000002320461A4600F005F910B985F84570D0
:106EF00000263046BDE8FC812DE9F047374C81463D
:106F00000F4694F842004FF00008032538B1364E82
:106F1000032810D0042808D005284AD11BE0206D92
:106F200000688047042084F842004846FEF7B5FA1E
:106F300001283CD03DE014F8403F2849A27948465A
:106F400000F065F9012030700520A0704846FEF77A
:106F50002FFCA0812DE04846FEF72AFCB4F84C1027
:106F6000401AB4F84A10884221D294F8401048469A
:106F7000FEF722FC012807D094F840104846FEF79F
:106F80001BFC04280AD014E03078012811D100201D
:106F90003070206D4168114888470AE094F840300D
:106FA00094F848203946484600F0F1FA08B984F8C8
:106FB00042504046BDE8F087F0B41C46DDE9043598
:106FC00021260E7509264E7544EA0222CA82002245
:106FD0000A834B832A46F0BC00F08CB8D81F0020EF
:106FE00084000020A40000207200002000F088BB74
:106FF0002DE9F047354C0023A370E37023716370D3
:10700000017802290DD020290BD0194621700025C6
:107010000221425C012A06D0022A04D0032A02D0AF
:1070200002E00121F2E70125491CC9B20829F0D389
:10703000012D36D0DFF89480A37008F10B08A8F179
:1070400006069946E370022206F10C05875CB7B18B
:10705000A1787754491CA170002106E0875C15F8DF
:1070600001C0674503D0491CC9B29942F6D3994281
:1070700005D1E178875C08F80170491CE170521C69
:10708000D2B2082AE2D3E07801280CD084F801902B
:10709000A07820710020315C2954401CC0B2062821
:1070A000F9D3BDE8F08798F80000607022780849AD
:1070B000012A06D0095C0648E830405C00F026FB57
:1070C000E6E7085C0349085CF8E700008C00002054
:1070D000A49700080E99000800F0B7BA0449027896
:1070E000CA7042780A7080784870084600F0BFBACB
:1070F000AC00002030B50120CC780546012C0BD027
:10710000022C08D10A7F0D2A10D00B2A12D00C2A8B
:1071100001D1CD70032030BD0C784C7007240C7069
:107120008A608B810D770222CA7030BDCD7000203D
:10713000087730BDCD70022030BD10B50B4600EB96
:107140004211002481F8AE43032481F8B443C1F80E
:10715000B8330823C1F8BC331146FEF73CFBC0B27C
:1071600010BD70B500EB4314002584F8AE53C4E99C
:10717000EE121AB194F8C51359B102E0012184F856
:10718000C513022184F8B4131946FEF724FB00202E
:1071900070BD84F8B453F7E770B50C4600EB4311AB
:1071A000012581F8AE53022581F8B453C1E9EE42BE
:1071B0001946FEF710FB002070BD70B500EB4314BC
:1071C000002584F8AE53C4E9EE1294F8C51339B122
:1071D000022184F8B4131946FEF7FDFA002070BDB1
:1071E00084F8B453F7E770B50C4600EB4311012562
:1071F00081F8AE53C1E9EE4291F8C42302B10222F4
:1072000081F8B4231946FEF7E6FA002070BD70B588
:107210000C4600EB4311012581F8AE53C1E9EE4263
:1072200091F8C4235AB1022481F8B44382F00102D8
:1072300081F8C4231946FEF7CEFA002070BD002461
:10724000F2E770B50D4600EB4314002184F8AE134D
:10725000C4E9EE5294F8C42302B1022184F8B413B5
:1072600082F0010184F8C4131946FEF7B4FA002035
:1072700070BD70B50C4600EB4311012581F8AE538B
:10728000C1E9EE42002281F8B4231946FEF7A3FAC1
:10729000002070BD70B500EB4314002584F8AE5398
:1072A000C4E9EE1284F8B4531946FEF794FA0020AC
:1072B00070BD000030B442F08002DDE902540A756E
:1072C00006224A750322CB82B2EB132F02D140F281
:1072D000094200E000220A834C8323462A4630BC40
:1072E000FFF708BF7CB51646044600F58870CDE967
:1072F00000060D464FF4807300222046FFF7DAFFA8
:1073000000283CD194F8101105F8221F94F81111AF
:10731000697094F8121194F81321082E01EB0221E0
:10732000698094F81411297194F81511697194F811
:107330001611A97194F81711E97120D994F8181150
:1073400094F8192101EB0221298194F81A1194F87B
:107350001B2101EB0221698194F81C1194F81D2175
:1073600001EB0221A98194F81E11A97394F81F1151
:10737000E97394F82011297494F8211169747CBD83
:107380000A8803781A440A800178084470472DE976
:10739000FF4F85B007461878129938705878787082
:1073A00092469878DA781C4600EB022078801879AB
:1073B00038715A797A719A79BA71DA79FA71227ACE
:1073C0003A7209296DD90921DFF81882ADF80C103D
:1073D00002285CD960E003A92046FFF7D1FF0446EC
:1073E0004078042853D194F90260069806EBC60150
:1073F00001EB000BE078032849D22146684600F0F3
:10740000DDF89DF804000025022840D83BE003A9E0
:107410002046FFF7B5FF04464078052833D10AEB34
:10742000061000EBC50998F80000B04202D088F8B9
:10743000006007E02079617900EB0121B8F80200D3
:10744000814224D36946584600F0B8F8217889F87B
:107450000010617889F80110A17889F80210E178AC
:1074600089F80310217962796D1C01EB0221A9F8DA
:107470000410A17989F80610207961796DB200EBCA
:107480000120A8F802009DF80400A842BFDC78881B
:10749000BDF80C1088429ED80020A8F8020088F899
:1074A000000009B0BDE8F08F2DE9FC47154600F556
:1074B0008878CDE90085002407460E464FF4007316
:1074C0002246FFF7F7FE5FEA000907D013E03919FB
:1074D00091F810110155641CA4B200E04248AC427E
:1074E000F5D3434606F1500206F13E0106F13400A1
:1074F0000095FFF74CFF4846BDE8FC877CB500F5DA
:107500008875069E1C46CDE9005642F44073002261
:10751000FFF7D0FE002814D16978032911D129780A
:107520008A1EB24200DC16460021B2B2AD1C04E055
:107530006B5C891C04F8013B89B29142F8D30021AD
:1075400021707CBD30B400230B7505244C75CA82B4
:107550000B834B8330BC1A46FFF7CCBD30B40023FD
:107560000B7509244C75CA820B834B8330BC1A46B9
:10757000FFF7C0BD30B401240C750B244C75CB82D1
:107580000A8300224A8330BC1346FFF7B3BD30B4F0
:1075900002240C7501244C750024CC820A83150644
:1075A0004C8300EB431202D582F8C44301E082F819
:1075B000C543002330BC1A46FFF79CBD0A78027011
:1075C0004A7842708A788270CA78C2700A790271E9
:1075D0004A7942718A798271CA79C271097A0172D3
:1075E00070470000B0000020382000204B490320E5
:1075F0004870704749490320487070474749002048
:10760000487070474549032048707047434903203C
:1076100048707047002806D0012804D0022802D004
:107620003E49002048707047704770477047704768
:1076300070477047704739490420487070470120EF
:107640007047364900204870704734480221417025
:10765000017800290AD00021017031480180418061
:107660008180C1800121017241728172704770B5C1
:1076700002782B493AB190F900208A800A8890F963
:1076800000301A440A8042783AB190F90120CA8049
:107690004A8890F901301A444A80C2784FF00003BA
:1076A000D6071E4A4FF0010402F10402157803D0F8
:1076B00035B914700B7203E0012D01D113700C72F7
:1076C000C578AE07154D05F104056D7803D535B9BC
:1076D00054704B7203E0012D01D153704C72C0788D
:1076E00045070E4800F10400807804D5002801D138
:1076F00094708B7270BD0128FCD193708C7270BD38
:10770000064901204870891C08707047034900220F
:10771000891C0A704870704770470000FC00002008
:107720003822002070B5064600F054F9056806F1CD
:107730000B0020F00704B4429CBF002070BD2B4614
:107740006A68BAB11068A04210D304F108018842F7
:107750003CBF5068586007D35168101941601168E8
:10776000091B016058601460101D70BD13465268FB
:10777000002AE7D12146284600F034F90028DED15E
:1077800070BD70B50446051F00F024F90068002C98
:1077900014BF446870BD002C18BFAC423CBF2046EB
:1077A0006468F8D301680A18AA4218BF456003D17B
:1077B0002A6805461144016028684119A1421CBF8E
:1077C0006C6070BD6168696021680844286070BDA4
:1077D0000FB41CB5074B06AA7B4469460090059878
:1077E00000F0A9F90020694600F0B8F91CBC5DF86A
:1077F00014FB00008103000070B504468569006831
:10780000C10601D5302600E02026C00707D070BD94
:10781000D4E9012130469047206A401C20626D1E49
:10782000F6D570BD70B5044685690078C00707D1EC
:1078300070BDD4E9012120209047206A401C2062BD
:107840006D1EF6D570BD00002DE9F04106460024FE
:1078500010687529314616A510D0AFF300800028B6
:1078600002DA404213A507E031688A0701D512A564
:1078700002E0490704D511A5012401E0AFF300801F
:1078800000210A2206F1240709E0B0FBF2FCB0FB5C
:10789000F2F302FB1C00303078541846491C0028D3
:1078A000F3D123462A463046BDE8F04100F0E4B863
:1078B000000000002D0000002B0000002000000050
:1078C0002DE9F0474FF0000A89460446C0F820A091
:1078D0002046E1688847002876D0252806D0D4E9DC
:1078E00001219047206A401C2062F1E7E1682046B0
:1078F00000258847C4F81CA006460027C4F818A035
:107900002A2E09D0304600F0D7F938B304EB8708A7
:10791000303EC8F8186019E059F8041B204604EB03
:1079200087029161E1688847012F064618D1E06916
:10793000002820DA25F020051DE0D8F8180000EB1B
:10794000800006EB40003038C8F818002046E16897
:107950008847064600F0B0F90028EED1012F0AD082
:107960002E2E08D12046E16888477F1C0646022F4C
:1079700045F02005C4DBA069002803DA404245F049
:107980000105A061E80701D025F01005B6B1A6F108
:107990004100192802D8203645F400654A46314690
:1079A000204625604D46F8F73BFC58B1012806D02B
:1079B000ED1D25F0070000F1080989E704E005F155
:1079C000040985E730468AE7206ABDE8F0877047FA
:1079D00070477047004870474C220020704770473E
:1079E0007047704738B504460A4600206946AFF331
:1079F0000080002808BF38BD02460099204600F0EC
:107A0000B7F8012038BD012000F0CCB8F8B5AFF3CD
:107A10000080054600200C46102000BF0646A8192D
:107A2000A0420DD9324669460020AFF3008007001E
:107A300008BF00F0B7F80098A04218BF0546C41967
:107A4000FFF7C8FF05600746F01D20F00700461944
:107A5000284600F00AF8B44208BFF8BDA21B314620
:107A60003868BDE8F84000F083B800210160C0E943
:107A700001107047102070472DE9F0470D469946D8
:107A80009246044600F124080168880604D5E0699E
:107A900021F01001216000E00120A84201DD471B18
:107AA00000E00027A1697A1902EB0900081AA06119
:107AB0002078C00602D42046FFF79EFE002608E08C
:107AC000D4E901211AF806009047206A401C761C70
:107AD00020624E45F4DB2078C0060AD52046FFF729
:107AE0008BFE06E0D4E9012130209047206A401C3B
:107AF0002062381EA7F10107F4DC07E0D4E9012178
:107B000018F805009047206A401C2062281EA5F145
:107B10000105F3DC2046FFF785FE2078000602D53C
:107B20000220BDE8F0870120FBE7000001694A1C44
:107B300002610878704700B58FB0CDE901310021AE
:107B4000059105497944CDE9031011466846FFF7D0
:107B5000B7FE0FB000BD0000E5FFFFFF0A6802F8A6
:107B6000010B0A6070470000004870474422002063
:107B7000034640688C46002818BF88423CBF034635
:107B80004068F8D318681844884207D00CF1030005
:107B900020F00700001D411A521A0146081D0A6014
:107BA000FFF7EFBD10B500F039F8BDE8104000F068
:107BB0002FB870477546FFF7D7FFAE4605006946F8
:107BC000534620F00700854618B020B5F8F754FB5F
:107BD000BDE820404FF000064FF000074FF00008CE
:107BE0004FF0000B21F00701AC46ACE8C009ACE84F
:107BF000C009ACE8C009ACE8C0098D46704710B5B3
:107C00000446AFF300802046BDE81040F8F720BBE3
:107C1000002801D000F02AB87047000010B50128F4
:107C200005D0002103A000F027F8012010BD09A114
:107C3000F8E7000053494752544D454D3A204F75DF
:107C400074206F662068656170206D656D6F727954
:107C5000000000003A2048656170206D656D6F720C
:107C60007920636F72727570746564000149182021
:107C7000ABBEFEE72600020070B505460C460A20A2
:107C800000E06D1C00F011F835B128780028F8D11B
:107C900002E0641C00F009F814B120780028F8D143
:107CA000BDE870400A20AFF3008008B569468DF842
:107CB00000000320ABBE08BD30380A2801D20120E5
:107CC0007047002070474FF04070E1EE100A704797
:107CD0000F0000000F000000FF0000000F00000078
:107CE0000F0000000F000000000000000000000076
:107CF0000000000000000000000000000000000084
:107D00000010001000100010001000100000001003
:107D100000000000002800280028000000000000EB
:107D2000000000000000000000240024007C00246B
:107D30000048007C00480048000000000038005463
:107D400000500038001400540054003800100000A7
:107D5000002000540058003000280054001400088F
:107D60000000000000100028002800100034004827
:107D70000048003400000000001000100010000057
:107D800000000000000000000000000000080010DB
:107D9000002000200020002000200020001000080B
:107DA0000020001000080008000800080008000873
:107DB0000010002000100038001000280000000013
:107DC0000000000000000000000000000010001093
:107DD000007C001000100000000000000000000007
:107DE0000000000000000000000000100010001063
:107DF000000000000000000000000038000000004B
:107E00000000000000000000000000000000000072
:107E10000000001000000000000800080010001022
:107E20000010001000200020000000000038004476
:107E300000440054004400440044003800000000A6
:107E40000010003000500010001000100010001052
:107E50000000000000380044004400040008001046
:107E60000020007C000000000038004400040018DE
:107E7000000400040044003800000000000800185E
:107E8000002800280048007C0008000800000000CE
:107E9000007C0040004000780004000400440038EA
:107EA0000000000000380044004000780044004416
:107EB0000044003800000000007C000400080010AE
:107EC00000100020002000200000000000380044C6
:107ED0000044003800440044004400380000000022
:107EE0000038004400440044003C000400440038D2
:107EF0000000000000000000001000000000000072
:107F00000000001000000000000000000000001051
:107F10000000000000000010001000100000000031
:107F2000000C003000400030000C00000000000099
:107F3000000000000000007C0000007C0000000049
:107F4000000000000000000000600018000400189D
:107F50000060000000000000003800440004000839
:107F60000010001000000010000000000038004465
:107F7000004C0054005C004000400038000000004D
:107F800000100028002800280028007C004400443D
:107F900000000000007800440044007800440044E1
:107FA0000044007800000000003800440040004019
:107FB000004000400044003800000000007000480D
:107FC00000440044004400440048007000000000E9
:107FD000007C00400040007C004000400040007CED
:107FE00000000000007C004000400078004000409D
:107FF0000040004000000000003800440040004005
:10800000005C0044004400380000000000440044CC
:108010000044007C00440044004400440000000090
:108020000038001000100010001000100010003880
:108030000000000000040004000400040004000428
:108040000044003800000000004400480050006078
:10805000005000480048004400000000004000407C
:1080600000400040004000400040007C0000000054
:108070000044006C006C0054004400440044004480
:108080000000000000440064006400540054004CF0
:10809000004C00440000000000380044004400444C
:1080A0000044004400440038000000000078004410
:1080B0000044004400780040004000400000000000
:1080C0000038004400440044004400440054003898
:1080D0000004000000780044004400440078004898
:1080E0000048004400000000003800440040003018
:1080F000000800040044003800000000007C00106C
:10810000001000100010001000100010000000000F
:10811000004400440044004400440044004400384B
:10812000000000000044004400440028002800280B
:1081300000100010000000000044004400540054EF
:108140000054006C002800280000000000440028B3
:108150000028001000100028002800440000000043
:1081600000440044002800280010001000100010F7
:1081700000000000007C0004000800100010002037
:108180000040007C000000000018001000100010EB
:108190000010001000100010001000180020002037
:1081A000001000100010001000080008000000007F
:1081B000003000100010001000100010001000101F
:1081C00000100030001000280028004400000000CB
:1081D000000000000000000000000000000000009F
:1081E0000000000000000000000000FE0020001061
:1081F000000000000000000000000000000000007F
:108200000000000000380044003C0044004C0034F2
:10821000000000000040004000580064004400449A
:108220000064005800000000000000000038004416
:10823000004000400044003800000000000400043A
:108240000034004C00440044004C003400000000A6
:108250000000000000380044007C0040004400386A
:1082600000000000000C0010007C00100010001046
:108270000010001000000000000000000034004C5E
:1082800000440044004C00340004007800400040EA
:108290000058006400440044004400440000000012
:1082A00000100000007000100010001000100010FE
:1082B000000000000010000000700010001000100E
:1082C00000100010001000E0004000400048005086
:1082D00000600050004800440000000000700010E2
:1082E000001000100010001000100010000000002E
:1082F0000000000000780054005400540054005462
:108300000000000000000000005800640044004429
:108310000044004400000000000000000038004459
:108320000044004400440038000000000000000049
:1083300000580064004400440064005800400040BD
:10834000000000000034004C00440044004C0034A5
:1083500000040004000000000058006400400040D9
:108360000040004000000000000000000038004411
:108370000030000800440038000000000020002009
:1083800000780020002000200020001800000000DD
:10839000000000000044004400440044004C00344D
:1083A00000000000000000000044004400280028F5
:1083B00000280010000000000000000000540054DD
:1083C0000054006C0028002800000000000000009D
:1083D00000440028001000100028004400000000A5
:1083E0000000000000440044002800280010001095
:1083F0000010006000000000007C00080010002059
:108400000040007C00000000001800100010001068
:1084100000200020001000100010001800100010B4
:1084200000100010001000100010001000100010CC
:1084300000300010001000100008000800100010AC
:10844000001000300000000000000074004C00002C
:10845000000000000000000000000000000000001C
:10846000000000000000000000000000000000000C
:1084700000000000000000000000000000000000FC
:10848000000000000000000000000000E003E00326
:10849000E003E003E003E003E003E003C003C00304
:1084A000C001C001C001C001C00100000000000007
:1084B000E003E003E0030000000000000000000013
:1084C0003C1E3C1E3C1E3C1E3C1E3C1E3C1E000036
:1084D000000000000000000000000000000000009C
:1084E000000000000000000000000000000000008C
:1084F00000000000CE01CE03DE039E039C039C0718
:10850000FF3FFF7F3807380F780F780F780EFFFF97
:10851000FFFFF01EF01CE01CE03CE03DE0390000F5
:108520000000000000000000FC03FE0FEE1FE01E34
:10853000E01EE01EE01EE01FE00FE007F003FC017C
:10854000FE01FE01FE01FE01FE01FE01FE3DFC3FBB
:10855000F00FE001E001000000000000033E07F71B
:108560008FE78EE79EE3BCE3B8E7F8E7F0F7E03F7C
:10857000C001FF03FF07F307F30FF31EF33CF338CB
:10858000F3787FF03FE000000000000000000000F2
:10859000E007F80F780F781F781F781F780FF00F1B
:1085A000E00F801FC37FC3FBE7F3F7F1F7F0FFF0A5
:1085B0007FF03EF87F7CFF3FEF1F000000000000CF
:1085C00000000000E003E003E003E003E003C00379
:1085D000C0010000000000000000000000000000DA
:1085E000000000000000000000000000000000008B
:1085F00000000000000000003F007C00F001E001EE
:10860000C003C00780078007800F000F000F000F16
:10861000000F000F000F800F80078007C007C00306
:10862000E001F0017C003F000F000000007E001F11
:10863000C007C003E001F001F000F000F80078008E
:1086400078007800780078007800F800F000F000FA
:10865000F001E001C003C007001F007E00780000A9
:10866000E003C003C001CE39FF3F7F3F200370030A
:10867000F807780F3C1F38060000000000000000DB
:1086800000000000000000000000000000000000EA
:1086900000000000000000000000000000000000DA
:1086A000C001C001C001C001C001C001C001FFFF85
:1086B000FFFFC001C001C001C001C001C001000036
:1086C00000000000000000000000000000000000AA
:1086D000000000000000000000000000000000009A
:1086E00000000000000000000000E003E003E003E1
:1086F000E003E001E001E001C001800300000000B0
:108700000000000000000000000000000000000069
:108710000000FE3FFE3F00000000000000000000DF
:108720000000000000000000000000000000000049
:108730000000000000000000000000000000000039
:108740000000000000000000000000000000000029
:108750000000E003E003E003E0030000000000008D
:10876000000000000F000F001E001E003C003C0037
:1087700078007800F000F000E001E001C003C003E1
:1087800080078007000F000F001E001E003C003C09
:108790000078007800F00000F007F80F7C1F3E3EE4
:1087A0001E3C1F7C1F7C0F780F780F780F780F7896
:1087B0000F780F781F7C1F7C1E3C3E3E7C1FF80FFD
:1087C000F00700000000000000000000F000F007CB
:1087D000F03FF03FF001F001F001F001F001F00195
:1087E000F001F001F001F001F001F001F001F00101
:1087F000F001FF3FFF3F000000000000000000000C
:10880000E00FF83F7C3C3C003E003E003E003C0058
:108810003C007C00F800F001E003C0078007000F77
:10882000001E003E003CFE3FFE3F00000000000036
:1088300000000000F00FF81F7C1C3E003E003E00D0
:108840003C003C00F800F00FF80F7C003E001E00DA
:108850001E001E001E003E007C1CF81FE01F0000D2
:1088600000000000000000007800F800F800F801A7
:10887000F803F807F807780F781E781E783C7878A8
:108880007878FFFFFFFF78007800780078007800A4
:10889000780000000000000000000000FC1FFC1F2A
:1088A000FC1F001E001E001E001E001EE01FF81F01
:1088B000FC007C003E003E001E003E003E003C00EE
:1088C0007C1CF81FE01F00000000000000000000FA
:1088D000FC01FE078E0F001F001E003E003C003C06
:1088E000F83DFC3F3E7F1F7E0F3C0F3C0F3C0F3C92
:1088F0000F3E1F1E3E1FFC0FF00300000000000093
:1089000000000000FF3FFF3FFF3F0F001E001E0062
:108910003C0038007800F000F000E001E001C00306
:10892000C0038007800F800F000F001F001F000092
:108930000000000000000000F807FC0F3E1F1E1E94
:108940001E3E1E3E1E1E3C1FF80FF007F80FFC1EB9
:108950003E3E1F3C1F7C0F7C0F7C1F3C3E3FFC1F9C
:10896000F00700000000000000000000F007F80F12
:108970007C1E3E3C1E3C1F7C1F7C1F7C1F7C1F3CC2
:108980003F3EFF1FEF071F001E001E003E003C0081
:10899000F838F03FE01F0000000000000000000079
:1089A000000000000000000000000000E003E00301
:1089B000E003E003000000000000000000000000F1
:1089C0000000E003E003E003E0030000000000001B
:1089D0000000000000000000000000000000000097
:1089E000E003E003E003E0030000000000000000FB
:1089F000000000000000E003E003E003E003E0010A
:108A0000E001E001C003800300000000000000005E
:108A10000000000003000F003F00FC00F003C00F47
:108A2000003F00FE003FC00FF003FC003F000F00BE
:108A30000300000000000000000000000000000033
:108A40000000000000000000000000000000000026
:108A5000FFFFFFFF000000000000FFFFFFFF00001E
:108A60000000000000000000000000000000000006
:108A700000000000000000000000000000E000F81E
:108A8000007E801FE007F8017E001F007E00F801D5
:108A9000E007801F007E00F800E0000000000000FA
:108AA00000000000F01FFC3F3E381F381F381E003A
:108AB0001E003C007800F000E001C003C003C007C6
:108AC000C007000000000000C007C007C00700008A
:108AD0000000000000000000F803FE0F1E1F0F3E04
:108AE0007F3CFF78EF79C773C7F38FF38FF38FF372
:108AF0009FF39FF3FF73FF7BF779003C1C1FFC0F74
:108B0000F80300000000000000000000000000006A
:108B10000000E003E003F007F007F007780F780F9C
:108B20007C0E3C1E3C1E3E3CFE3FFF3F1F780F78F4
:108B30000FF007F007F00000000000000000000048
:108B4000000000000000F83FFC3F3E3C1E3C1E3C85
:108B50001E3C3E3C7C3CF03FF83F7E3C1F3C1F3CB3
:108B60000F3C0F3C1F3CFE3FF83F000000000000A0
:108B700000000000000000000000FF01FF07871F49
:108B8000003E003C007C0078007800780078007897
:108B9000007C007C003E003F831FFF07FF010000B8
:108BA0000000000000000000000000000000F07F56
:108BB000FC7F7E781F781F780F780F780F780F78FA
:108BC0000F780F780F780F781F781E787E78F87FEF
:108BD000E07F000000000000000000000000000036
:108BE0000000FF3FFF3F003E003E003E003E003ED3
:108BF000003EFE3FFE3F003E003E003E003E003E87
:108C0000003EFF3FFF3F00000000000000000000AA
:108C1000000000000000FF1FFF1F001E001E001EBE
:108C2000001E001E001EFF1FFF1F001E001E001E54
:108C3000001E001E001E001E001E0000000000009E
:108C400000000000000000000000FE03FF0F871F6F
:108C5000003E007C007C007800F800F87FF87FF888
:108C60000F780F7C0F7C0F3E8F1FFF0FFE0300005D
:108C700000000000000000000000000000001F7C59
:108C80001F7C1F7C1F7C1F7C1F7C1F7C1F7CFF7F29
:108C9000FF7F1F7C1F7C1F7C1F7C1F7C1F7C1F7C19
:108CA0001F7C000000000000000000000000000029
:108CB0000000FF3FFF3FE003E003E003E003E003C9
:108CC000E003E003E003E003E003E003E003E0038C
:108CD000E003FF3FFF3F0000000000000000000035
:108CE000000000000000FC1FFC1F7C007C007C00DA
:108CF0007C007C007C007C007C007C007C007C0094
:108D000078007800F838F03FC03F00000000000015
:108D1000000000000000000000001F3C1E3C3C3C26
:108D2000783CF03CE03DE03FC03F803FC03FE03F4B
:108D3000F03DF03C783C7C3C3E3C1F3C0F3C00004E
:108D40000000000000000000000000000000003EE5
:108D5000003E003E003E003E003E003E003E003E23
:108D6000003E003E003E003E003E003E003EFF3F13
:108D7000FF3F0000000000000000000000000000B5
:108D800000001FF81FFC1FFC3FFE3FFE3FFE7FFF61
:108D900077FF77FFF7F7E7F7E7F3E7F3C7F307F0B6
:108DA00007F007F007F000000000000000000000DE
:108DB0000000000000000F7C0F7C0F7E0F7F0F7FF4
:108DC0008F7F8F7FCF7FEF7BEF79FF79FF78FF7801
:108DD0007F783F783F781F781F7800000000000000
:108DE00000000000000000000000F007FC1F3E3EF5
:108DF0001F7C0F780F780FF80FF80FF80FF80FF8A7
:108E00000FF80F780F781F7C3E3EFC1FF007000024
:108E10000000000000000000000000000000FC3F17
:108E2000FF3F1F3E0F3E0F3E0F3E0F3E1F3E3F3E99
:108E3000FC3FF03F003E003E003E003E003E003E54
:108E4000003E0000000000000000000000000000E4
:108E50000000F007FC1F3E3E1F7C0F780F780FF8D4
:108E60000FF80FF80FF80FF80FF80F780F781F7C36
:108E70003E3EFC1FF8077C003F000F00030000008F
:108E8000000000000000F03FFC3F7E3C3E3C1E3CEA
:108E90001E3C3E3C3C3CFC3CF03FE03FF03DF83C9F
:108EA0007C3C3E3C1E3C1F3C0F3C00000000000090
:108EB00000000000000000000000FC07FE1F0E3E46
:108EC000003C003C003C003EC01FF80FFE037F004A
:108ED0001F000F000F001F203E3CFC3FF01F000052
:108EE0000000000000000000000000000000FFFF84
:108EF000FFFFE003E003E003E003E003E003E0033F
:108F0000E003E003E003E003E003E003E003E00349
:108F1000E00300000000000000000000000000006E
:108F200000000F7C0F7C0F7C0F7C0F7C0F7C0F7C74
:108F30000F7C0F7C0F7C0F7C0F7C0F7C1E3C1E3C3B
:108F40003E3EFC1FF0070000000000000000000093
:108F500000000000000007F007F007F80F780F7C12
:108F60001E3C1E3C1E3E3C1E3C1F781F780FF80F17
:108F7000F007F007F007E003E00300000000000046
:108F80000000000000000000000003E003F003F018
:108F900007F0E7F3E7F3E7F3E773F77BF77FFF7F8C
:108FA0007F7F7F7F7E7F7E3F3E3E3E3E3E3E000097
:108FB000000000000000000000000000000007F8B2
:108FC0000F7C1E3E3E3E3C1FF80FF007E007E0031B
:108FD000E003F007F80F7C0F7C1E3E3C1F780F78F3
:108FE0000FF0000000000000000000000000000082
:108FF000000007F807780F7C1E3C1E3E3C1F780FD0
:10900000F80FF007E003E003E003E003E003E00310
:10901000E003E003E00300000000000000000000A7
:10902000000000000000FF7FFF7F0F001F003E00D8
:109030007C00F800F000E001E003C007800F000FA3
:10904000001E003E007CFF7FFF7F0000000000004C
:1090500000000000FF078007800780078007800767
:1090600080078007800780078007800780078007C8
:1090700080078007800780078007800780078007B8
:109080008007FF07FF07000000780078003C003CE5
:10909000001E001E000F000F80078007C003C003E2
:1090A000E001E001F000F000780078003C003C00B6
:1090B0001E001E000F000F0007000000F07FF000F0
:1090C000F000F000F000F000F000F000F000F00020
:1090D000F000F000F000F000F000F000F000F00010
:1090E000F000F000F000F000F000F07FF07F0000F2
:1090F000C000C001C001E003E003F007F0077807FB
:10910000780F380F3C1E3C1E1E3C1E3C0F380F785B
:1091100007780000000000000000000000000000D0
:10912000000000000000000000000000000000003F
:10913000000000000000000000000000000000002F
:109140000000000000000000000000000000FFFF21
:10915000FFFF000000000000F00000000000000021
:1091600000000000000000000000000000000000FF
:1091700000000000000000000000000000000000EF
:1091800000000000000000000000000000000000DF
:109190000000000000000000F80FFC3F7C3C3E0097
:1091A0003E003E00FE07FE1F3E3E3E7C3E783E7C7B
:1091B0007E7CFF3FCF1F0000000000000000000089
:1091C000003C003C003C003C003C003CF83DFE3FC5
:1091D0003E3F1F3E0F3C0F3C0F3C0F3C0F3C0F3CF3
:1091E0001F3C1E3C3E3FFC3FF03B000000000000E7
:1091F000000000000000000000000000000000006F
:10920000FE03FF0F871F003E003E003C007C007CF9
:10921000007C003C003E003E871FFF0FFE03000065
:1092200000000000000000001F001F001F001F00C2
:109230001F001F00FF07FF1F3F3E1F3C1F7C1F7CBE
:109240001F7C1F781F781F7C1F7C3F3C7F3EFF1FC9
:10925000DF0F000000000000000000000000000020
:109260000000000000000000F803FC0F3E1F1E3E3F
:109270001F3C1F7CFF7FFF7F007C007C003C003E8A
:10928000071FFF0FFE0300000000000000000000A9
:10929000FF01E103C003C007C007C007FF7FFF7FD6
:1092A000C007C007C007C007C007C007C007C00786
:1092B000C007C007C007C007C007000000000000CB
:1092C000000000000000000000000000000000009E
:1092D000EF07FF1F7F3E1F3C1F7C1F7C1F781F78FE
:1092E0001F781F7C1F7C3F3C7F3EFF1FDF0F1E004F
:1092F0001E001E007C38F83F003C003C003C003C57
:10930000003C003CFC3DFE3F9E3F1F3F1F3E1F3C7C
:109310001F3C1F3C1F3C1F3C1F3C1F3C1F3C1F3C75
:109320001F3C00000000000000000000F001F00100
:109330000000000000000000E07FE07FE001E001AD
:10934000E001E001E001E001E001E001E001E00115
:10935000E001E001E001000000000000000000006A
:10936000F800F8000000000000000000F83FF83F9F
:10937000F800F800F800F800F800F800F800F8002D
:10938000F800F800F800F800F800F800F800F00025
:10939000F071E07F003C003C003C003C003C003CA5
:1093A0001F3C3E3C7C3CF83CF03DE03DC03FC03FB4
:1093B000E03FF03DF83C7C3C3E3C1F3C1F3C000045
:1093C0000000000000000000F07FF001F001F0015B
:1093D000F001F001F001F001F001F001F001F00105
:1093E000F001F001F001F001F001F001F001F001F5
:1093F000F00100000000000000000000000000007C
:1094000000000000000000009EF7FFFFFFFFFFFFCD
:10941000E7FBE7F9C7F1C7F1C7F1C7F1C7F1C7F13A
:10942000C7F1C7F1C7F10000000000000000000014
:10943000000000000000000000000000FC3DFE3FB6
:109440009E3F1F3F1F3E1F3C1F3C1F3C1F3C1F3CBD
:109450001F3C1F3C1F3C1F3C1F3C00000000000045
:1094600000000000000000000000000000000000FC
:10947000F007FC1F3E3E1F3C1F7C0F780F780F78D3
:109480000F780F781F7C1F3C3E3EFC1FF00700004A
:1094900000000000000000000000000000000000CC
:1094A00000000000F83DFE3F3E3F1F3E0F3C0F3CDA
:1094B0000F3C0F3C0F3C0F3C1F3C1E3E3E3FFC3F11
:1094C000F83F003C003C003C003C003C0000000039
:1094D0000000000000000000EE07FE1F7E3E1E3C64
:1094E0001E7C1E781E781E781E781E781E7C3E7CA0
:1094F0007E3EFE1FDE0F1E001E001E001E001E0010
:109500000000000000000000000000007F1FFF1F9F
:10951000E71FC71F871F001F001F001F001F001F1E
:10952000001F001F001F001F001F000000000000A0
:10953000000000000000000000000000000000002B
:10954000FC07FE1F0E1E003E003E003FE01FFC0712
:10955000FE003E001E001E003E3CFC3FF01F0000CF
:109560000000000000000000000000000000800774
:1095700080078007FF7FFF7F8007800780078007C5
:10958000800780078007800780078007C007FF03E8
:10959000FF010000000000000000000000000000CB
:1095A00000000000000000001E3C1E3C1E3C1E3C53
:1095B0001E3C1E3C1E3C1E3C1E3C1E3C3E3C7E3C5B
:1095C000FE3EFE1FDE0F0000000000000000000055
:1095D00000000000000000000000000007F00F780D
:1095E0000F781E3C1E3C1E3E3C1E3C1E780F780F22
:1095F000F00FF007F007E003E003000000000000B8
:10960000000000000000000000000000000000005A
:1096100003F0E3F1E3F3E7F3F7F3F7F3F77F777F93
:109620007F7F7F7F7F7F3E3E3E3E3E3E3E3E000050
:10963000000000000000000000000000000000002A
:10964000000000000F7C1E3E3C3E3C1FF80FF00760
:10965000F007E003F007F807F80F7C1E3E3E1F3CC2
:109660001F78000000000000000000000000000063
:10967000000000000000000007F80F780F7C1E3C7F
:109680001E3C3C1E3C1E3C1F780FF80FF007F007F5
:10969000E003E003C003C003C0038007800F007F26
:1096A000000000000000000000000000FF3FFF3F3E
:1096B0001F003E007C00F800F001E003C007800FAF
:1096C000001F001E003CFF7FFF7F00000000000025
:1096D00000000000FE01E003C003C003C003C0039C
:1096E000E001E001E001C001C003803F803FC00312
:1096F000C001E001E001E001C003C003C003C003FA
:10970000E003FE017E000000C001C001C001C001F5
:10971000C001C001C001C001C001C001C001C00141
:10972000C001C001C001C001C001C001C001C00131
:10973000C001C001C001C001C0010000C03FE00382
:10974000E001E001E001E001C001C003C003C0018D
:10975000E001FE00FE00E001C001C003C003C00143
:10976000E001E001E001E001E003C03F003F000054
:1097700000000000000000000000000000000000E9
:10978000000000000000073FC77FE773FFF17EF095
:1097900000000000000000000000000000000000C9
:1097A00000000000000000001F323021132223249B
:1097B000182526273433191A111420151731122FA2
:1097C000162E02030405060708090A0B2B6E0F105C
:1097D0003D0C0D1B1C1D2A2829013536371E7071C2
:1097E00072737475767778797A7B7C7D7E4B505571
:1097F0004C5156594F54535A5F64696A6C5D6267A5
:109800005C61665B606563682D810000000000009C
:109810000000000000000000000000000000000048
:109820000000000000000000006B00380000000095
:109830000000000000000000000000000000000028
:109840000000000000000000000000000000000018
:109850000000000000000000000000000000000008
:1098600000000000000000000000000000000000F8
:1098700000000000000000000000000000000000E8
:10988000000000003A2C3C7F40393E8000603132BD
:1098900033343536373839302D3D000D0971776551
:1098A00072747975696F705B5D5C00617364666783
:1098B000686A6B6C3B27000A00007A786376626EF8
:1098C0006D2C2E2F00000000002000000000000082
:1098D0000000000000000000000000000D0000007B
:1098E00000000000000000373431002F38353230DE
:1098F0002A3936332E2D2B000A000000000000000C
:109900000000000000000000000000000000007ED9
:1099100021402324255E262A28295F2B00000051A0
:10992000574552545955494F507B7D7C0041534413
:109930004647484A4B4C3A22000A00005A584356C0
:10994000424E4D3C3E3F0000000000000000000081
:109950000000000000000000000000000000000007
:1099600000000000000000000000000000000000F7
:1099700000000000000000000000000000000000E7
:1099800000000000000000000000000000000000D7
:10999000B09900080000002004010000E801000860
:1099A000B49A000804010020A42700000402000863
:1099B0000000000001020304010203040607080975
:1099C0000000000000000000000000000000000097
:1099D00000000000070A0000EC7C0008101A0000DC
:1099E0005884000800000000000001000000000092
:1099F000000000000000000000000000007A030AE0
:109A0000000000000000000001020304060708092E
:109A100075660008616600086B660008600000203B
:109A200000000000F16C0008D16D00080F6E000806
:109A3000F96E0008ED6F0008F16F000800000000EB
:109A40000000000000000000000000000000000016
:109A500000000000D9700008DD7000080000000060
:109A600000000000ED75000819770008F575000882
:109A70000D76000805760008437600081576000884
:109A8000297600082B7600082D7600082F7600082E
:109A90003176000833760008357600083F760008F6
:109AA0000000000037760008FD7500080100000086
:049AB00000000000B2
:04000005080001AD41
:00000001FF
