:020000040800F2
:10000000B0060020390200086511000867110008D9
:10001000691100086B1100086D1100080000000054
:100020000000000000000000000000006F11000848
:10003000711100080000000073110008771100081A
:10004000530200085302000853020008530200083C
:10005000530200085302000853020008530200082C
:10006000530200085302000853020008530200081C
:10007000530200085302000853020008530200080C
:100080005302000853020008530200080000000059
:100090000000000000000000000000005302000803
:1000A00053020008530200085302000853020008DC
:1000B00053020008530200085302000853020008CC
:1000C00053020008530200085302000853020008BC
:1000D0005302000853020008530200080000000009
:1000E00053020008530200085302000800000000F9
:1000F00000000000000000000000000053020008A3
:1001000000000000530200085302000853020008D8
:1001100000000000000000000000000000000000DF
:10012000530200085302000853020008530200085B
:100130005302000800000000000000000000000062
:100140000000000000000000000000005302000852
:10015000530200085302000853020008530200082B
:1001600053020008530200080000000000000000D5
:10017000000000000000000000000000000000007F
:100180000000000053020008000000000000000012
:10019000530200085302000800F002F800F03CF897
:1001A0000AA090E8000C82448344AAF10107DA45D2
:1001B00001D100F031F8AFF2090EBAE80F0013F0E8
:1001C000010F18BFFB1A43F0010318477411000018
:1001D00094110000103A24BF78C878C1FAD85207A9
:1001E00024BF30C830C144BF04680C6070470000B1
:1001F0000023002400250026103A28BF78C1FBD830
:10020000520728BF30C148BF0B6070471FB501F0CF
:1002100092F81FBD10B510BD01F053F81146FFF75D
:10022000F5FF00F06FFF01F071F803B4FFF7F2FF84
:1002300003BC01F079F800000948804709480047ED
:10024000FEE7FEE7FEE7FEE7FEE7FEE7FEE7FEE786
:10025000FEE7FEE704480549054A064B70470000E3
:100260008111000899010008B0000020B0060020AC
:10027000B0020020B0020020FA48016841F00101FC
:100280000160F84A0021083211600268F64B1A40FA
:100290000260031DF54A1A60F24BF54A84331A6076
:1002A000026822F480220260EE480C300160ED48C2
:1002B0008C3001607047EB490022891C0A7008707D
:1002C000704702460020510901290CD002290CD0A8
:1002D000E4497431096802F01F02012393400B4284
:1002E00000D001207047DF49F4E7DE497031F1E7C3
:1002F00018B500204FF4A04400903120FFF7E1FF33
:100300000099491C0091A14201D00028F5D031206C
:10031000FFF7D7FF002800D0012018BDD14A11688F
:1003200021F0F80141EAC00010607047D14908602F
:100330007047CC49002270310A700A70012802D03F
:10034000042801D1052008707047CB490860704728
:1003500041EA82115A0810B5C84B029C03EB0242D5
:100360001143014341EA0460BE49091D086010BD04
:10037000C04908667047800140EA0170B9491043DE
:10038000843108607047BB4988667047800140EA45
:100390000160B44940EA0270883108607047B5498D
:1003A00008677047B349C8647047AE4B08331A6892
:1003B000084322F0EC62104318607047A94B0833E1
:1003C0001A68084322F07842104318607047A54A23
:1003D0000832116821F00301014311607047A14800
:1003E0000830006800F00C0070479E4A083211681F
:1003F00021F0F0010143116070479A4A08321168F8
:1004000021F4E051014311607047964A08321168A7
:1004100021F4604141EAC0001060704770B5914B13
:1004200008331968964C11F00C0104D0954E04293C
:1004300003D0082903D004601BE0066019E0894A54
:10044000121D1168C1F38055116801F03F0115B10B
:10045000B6FBF1F101E0B4FBF1F114681268C4F3EA
:1004600088146143C2F30142521C5200B1FBF2F105
:10047000016019680F2202EA1111834A545C016875
:10048000E14041601C68072505EA9424145D21FAC7
:1004900004F484601B6805EA5333D25CD140C16028
:1004A00070BDC0F30121032908D16E4B08331968D0
:1004B000764A21F4F81102400A431A606949703102
:1004C0000A68C0F30B0002430A6070476A49443966
:1004D0000860704768494039086070476549C1F84D
:1004E0005C0170475F4A8C321168401E21F01F0189
:1004F0000143116070475B4A8C3211686FF0FF0353
:1005000021F4F85103EB0020084310607047554A6E
:100510008C32116821F440310143116070475C490D
:10052000C1F8E00170474F4A30320029116801D00C
:10053000014300E08143116070474A4A3432002988
:10054000116801D0014300E0814311607047454AC2
:1005500040320029116801D0014300E0814311605D
:100560007047404A44320029116801D0014300E03D
:100570008143116070473B4A10320029116801D055
:10058000014300E0814311607047364A143200296C
:10059000116801D0014300E0814311607047314A86
:1005A00020320029116801D0014300E0814311602D
:1005B00070472C4A24320029116801D0014300E021
:1005C000814311607047274A50320029116801D0D9
:1005D000014300E0814311607047224A54320029F0
:1005E000116801D0014300E08143116070471D4A4A
:1005F00060320029116801D0014300E0814311609D
:100600007047184A64320029116801D0014300E0A4
:10061000814311607047134970310128086803D085
:1006200020F008000860704740F00800FAE70D4A23
:100630000D320029117801D0014300E0814311708F
:10064000704708487430016841F08071016070475C
:100650000146044A00200C3212680A4200D00120F0
:100660007047000000380240FFFFF6EA1030002417
:100670000030002000004742800E47420000FFFF8C
:100680000024F40040787D0100000020FFFCFF0FF3
:100690000010474201490870E2E700000E380240AE
:1006A000D24910B5884202D101214C050AE0D04957
:1006B000884202D101218C0504E0CE4988420AD14A
:1006C0000121CC052046FFF76AFF2046BDE8104017
:1006D0000021FFF764BF10BD7FB5044680880D463A
:1006E00020F03F066846FFF799FEC3490298B0FB29
:1006F000F1F189B20E43A680228822F00102228005
:10070000BE4B2A689A421BD85200B0FBF2F080B26E
:10071000042800D20420491C2184A083208840F0B2
:100720000100208020884FF6F5310840A9886A89A9
:10073000114301432180A8892989084320817FBD75
:10074000EB88A3F53F46FF3E0BD002EBC20303EB61
:100750000212B0FBF2F080B240F48040020506D0F5
:1007600007E002EB4202B0FBF2F080B2F6E740F0A5
:1007700001004FF4967251434FF47A72B1FBF2F1DB
:1007800040F40040C7E741F28831016000218180D8
:100790004BF6FF72C280018141814FF4804181811B
:1007A00070470029018802D041F0010101E021F0E9
:1007B0000101018070470029818C02D021F01001D5
:1007C00001E041F0100181847047828C01F00F013B
:1007D00022F00F021143818470470029018802D062
:1007E00041F4807101E021F480710180704700299B
:1007F000018802D041F4007101E021F40071018010
:10080000704712B141F0010101E001F0FE010182E7
:1008100070470029018802D041F4806101E021F491
:10082000806101807047828901F0FE0122F0FE02A2
:100830001143818170470029818902D041F0010173
:1008400001E021F00101818170470029018802D077
:1008500041F0400101E021F0400101807047002992
:10086000018802D041F4004101E0C1F30E01018092
:1008700070470029018803D021F080010180704772
:1008800041F08001FAE7B1F5804F818B02D021F46D
:10089000804101E041F4804181837047B1F5006FF0
:1008A000018803D021F400610180704741F40061A8
:1008B000FAE7B1F5005F018803D021F4005101800F
:1008C000704741F40051FAE70029018802D041F055
:1008D000100101E021F01001018070470182704792
:1008E000008AC0B270470029018802D041F48051CB
:1008F00001E021F4805101807047B1F5006F01885B
:1009000003D021F400610180704741F40061FAE7EF
:100910000029018802D041F0200101E021F02001EE
:1009200001807047008B000A70470029818802D03F
:1009300041F4006101E021F40061818070470029E9
:10094000818802D041F4805101E021F480518180FE
:10095000704708B508440090008808BD002A8288C6
:1009600001D00A4300E08A4382807047034600209A
:100970009A8A1B8B42EA034222F07F42914300D1C4
:1009800001207047818A008B41EA004121F07F40BD
:1009900070470CB50246002000920A0F21F07F41FB
:1009A000019202D0009A143202E0009A090C183227
:1009B000009212680A4200D001200CBDC943818216
:1009C000704710B5034600209A884FF4E06404EAAB
:1009D00011449B8A224021F07F410B4202D0002A21
:1009E00000D0012010BDC9438182704700540040EF
:1009F00000580040005C004040420F00A08601000B
:100A000070472DE9F04F15460446DFF8E8B300269D
:100A1000DFF8E4C304220123F848F94F87B04FF40C
:100A200080494BF6FF7A5C452DD1DCF8008048F414
:100A30000018CCF8008031B101290AD0022911D068
:100A4000032916D019E0CDE9003201231A46C0214E
:100A500005E0CDE9003201231A464FF4407100F061
:100A600064FA0AE0CDE9003201231A464FF410710E
:100A7000F5E704215846FFF7C3FF3868A84200D9BC
:100A80003D60386866E0DFF87CB3DFF87CE35C4506
:100A90002ED1DCF8008048F48008CCF8008031B119
:100AA00001290BD0022912D0032917D01AE0CDE971
:100AB000003201231A464FF4406105E0CDE90032CF
:100AC00001231A460321D14800F02FFA0AE0CDE9AC
:100AD000003201231A4630217046F5E704215846BA
:100AE000FFF78EFF7868A84200D97D60786831E012
:100AF000C748844239D1DCF8008048F40008CCF8BB
:100B0000008021B1012913D003291BD01DE09B4691
:100B100090460123CDE900B81A461902BD4800F0FD
:100B200004FA0123CDE900B81A465902BA4806E092
:100B3000CDE9003201231A464FF4C071704600F02F
:100B4000F4F902E00421FFF75BFFB868A84200D97E
:100B5000BD60B868ADF80C60ADF810600290ADF8FB
:100B60001490ADF81260ADF80EA0208820F00100BE
:100B7000208002A92046FFF7AFFD208840F0010049
:100B8000208007B0BDE8F08F70B50446008820F4DF
:100B900080602080208840F400702080984D44F6CA
:100BA00020602D1F9D4E286003E02A68521E2A6097
:100BB00008D031462046FFF7D9FE0028F5D0208A1C
:100BC000C0B270BD012070BD70B50446008840F40D
:100BD000807020808A4D44F620662D1F2E6003E031
:100BE0002868401E28602AD0A08AC007F8D01BB110
:100BF000208840F4806020805AB921F001002082D2
:100C00002E6003E02868401E286018D0A08A800764
:100C1000F8D5012A10D141F0010020822E607F4ECC
:100C20003E3E03E02868401E286008D0314620463A
:100C3000FFF79CFE0028F5D0208B002070BD01201E
:100C400070BD6F4A44F62061121F116003E0116805
:100C5000491E11600BD0818A0906F8D5818A49079F
:100C6000F5D5018841F40071018000207047012012
:100C70007047634B44F620621B1F1A60828A12067B
:100C800003D41A680AB1521EF7E70182704770B5A3
:100C9000164600230C4605461A46FFF795FF3146D7
:100CA0002846FFF7E6FF2846FFF7CBFF0023012287
:100CB00021462846FFF788FF2846BDE8704063E7D5
:100CC00070B50546008840F4806028804C4C44F69E
:100CD0002060241F514E206003E02268521E2260D3
:100CE00008D031462846FFF741FE0028F5D0288A73
:100CF000C0B270BD012070BD2DE9F0411C46174601
:100D00000E46804601230022069DFFF75DFF39460F
:100D10004046FFF7AEFF01231A4631464046FFF733
:100D200053FF05E0404645B1FFF7CAFF04F8010B49
:100D30006D1EADB2F6D2BDE8F081FFF725FFF5E7F5
:100D400010B5012304461A46FFF73EFF2046BDE8D2
:100D5000104019E770B51C461546012306461A4691
:100D6000FFF732FF04E0304634B1FFF7A9FF2870E7
:100D7000641EA4B2F7D270BDFFF706FFF7E770B5A7
:100D80001D461646002304461A46FFF71DFF31464E
:100D90002046FFF76EFF29462046FFF76AFF2046F0
:100DA000BDE870404DE72DE9F0411D461746002390
:100DB00006461A46069CFFF707FF394601E015F87C
:100DC000011B3046FFF755FF641EA4B2F7D2304630
:100DD000BDE8F04135E770B51546002304461A46D4
:100DE000FFF7F2FE29462046FFF743FF2046BDE805
:100DF000704026E7005400404038024000040240A2
:100E00001400002000580040001C02400014024062
:100E1000005C004000000240000802404000030067
:100E200070B51C461546002306461A46FFF7CCFE51
:100E300004E015F8011B3046FFF71BFF641EA4B247
:100E4000F7D23046BDE87040FBE670B50024054699
:100E500001232246FFF7B8FE00B901242846FFF718
:100E6000F0FE204670BD0000A3490844C0F38F2067
:100E700070472DE9F04F9A46DDE909B889460346E7
:100E8000FFF7F2FFC5B200204FF0030E01218140B1
:100E900011EA090F28D0994E36F815400C4326F870
:100EA0001540DF6844000EFA04F6B7430BFA04FC61
:100EB00047EA0C07DF601F6802FA04FCB74347EA01
:100EC0000C071F60012A01D0022A0DD15F6889B288
:100ED0008F430AFA00F189B20F435F60996808FAFC
:100EE00004F4B14321439960401CC0B21028CDD313
:100EF000BDE8F08F00B5FFF7B7FF012181408048C2
:100F000002681143016000BDFCB51646DDE907C566
:100F10000C00074608D0FFF7EDFFCDE900C53246CB
:100F200021463846FFF7A5FFFCBD2DE9FC4F994649
:100F3000DDE90BB792460D00064622D0FFF7DAFF37
:100F4000002201214FF00F0C01FA02F028420DD0CF
:100F5000D00806EB8003186A5407E40E0CFA04F874
:100F600020EA080007FA04F420431862521C102AF1
:100F7000EAD3CDE9009B5346022229463046FFF7CB
:100F800078FFBDE8FC8FF0B50E460546FFF76CFF15
:100F900000225A49C4B24FF0010C03270CFA02F3A5
:100FA00033420CD028684FEA420E07FA0EFE40EAA0
:100FB0000E00286031F81400984321F81400521CE8
:100FC000D2B2102AEAD3F0BDF0B5002201250326E3
:100FD00005FA02F30B4205D00468570006FA07F33E
:100FE0009C430460521CD2B2102AF1D3F0BDF0B57C
:100FF00000220127032607FA02F33C460B4208D0E1
:101000000568530006FA03FC25EA0C059C402543BD
:101010000560521CD2B2102AEDD3F0BDF0B500220B
:101020000125032605FA02F30B4205D00468570098
:1010300006FA07F31C430460521CD2B2102AF1D303
:10104000F0BDF0B5002201260324022706FA02F3C0
:101050000B4209D00568530004FA03FC25EA0C058D
:1010600007FA03F31D430560521CD2B2102AEDD3D8
:10107000F0BDF0B500230127032507FA03F40C4265
:1010800009D0C6685C0005FA04FC26EA0C0602FAE0
:1010900004F42643C6605B1CDBB2102BEDD3F0BD1D
:1010A00041F48032C261C161C261C169C0697047E7
:1010B000002102E0491C89B240080128FAD80846FC
:1010C000704700B5FFF7D0FE012181400C4802684F
:1010D0008A43026000BD00B5FFF7C6FE074931F83C
:1010E000100000BD00B5FFF7BFFE044931F8100045
:1010F000C04380B200BD00000000FEBF34000020ED
:10110000303802401CB514A00068019000F038F897
:10111000134D124A00212846FFF773FC05230022D5
:10112000D0212846FFF72BFE032401AB0022D0215B
:1011300028460094FFF737FE0022D0212846FFF70B
:10114000A6FD8DF8040001AB0022D02128460094B2
:10115000FFF7D2FDFEE7000000010200A0860100BB
:10116000005400407047FEE7FEE7FEE7FEE77047E9
:1011700070477047704710B5FFF7FCFF10BD0000C7
:10118000444810B5016841F47001016042480168AB
:1011900041F001010160404A0021083211600268FB
:1011A0003E4B1A400260031D3D4A1A60026822F459
:1011B0008022026038480C30016000F039F835496F
:1011C0004FF000608039086010BD70B5324E0022CB
:1011D00008363068334B344910F00C0003D0042833
:1011E00003D0082803D00B6018E0304815E02A48E7
:1011F000001D0468C4F38055046804F03F042DB951
:10120000B3FBF4F20368C3F388135A430068C0F3D6
:101210000140401C4000B2FBF0F008603068224AF8
:10122000C0F30310121D105C0A68C2400A6070BD52
:1012300019484030016841F0805101601C48016844
:1012400041F44041016014480830016801600168C0
:101250000160016841F480510160021F154911606D
:10126000111F0A6842F080720A600A689201FCD578
:10127000114A40F202711160016821F0030101601E
:10128000016841F0020101600168C1F38101022996
:10129000FAD1704788ED00E000380240FFFFF6FE0B
:1012A000103000240024F4002000002040787D014C
:1012B0000070004010640107003C02407047704716
:1012C0007047754600F02CF8AE4605006946534657
:1012D00020F00700854618B020B5FEF7BBFFBDE83B
:1012E00020404FF000064FF000074FF000084FF08D
:1012F000000B21F00701AC46ACE8C009ACE8C0091E
:10130000ACE8C009ACE8C0098D46704710B504468A
:10131000AFF300802046BDE81040FEF786BF000016
:10132000004870474C00002001491820ABBEFEE782
:101330002600020070474FF04070E1EE100A70473F
:10134000601300080000002034000000D4010008F1
:1013500094130008340000207C060000F00100080F
:10136000000000000102030401020304060708094B
:1013700000000000FFFFFFFFFFFFFFFFFFFFFFFF79
:1013800000E1F50500000000000000000102030478
:04139000060708093B
:040000050800019955
:00000001FF
