:020000040800F2
:10000000881300204D020008E9550008EB55000850
:10001000ED550008EF550008F155000800000000FC
:10002000000000000000000000000000F355000880
:10003000F555000800000000F7550008FB550008C2
:1000400067020008670200086702000867020008EC
:1000500067020008670200086702000867020008DC
:1000600067020008670200086702000867020008CC
:1000700067020008670200086702000867020008BC
:1000800067020008670200086702000867020008AC
:10009000670200086702000867020008670200089C
:1000A000670200086702000867020008670200088C
:1000B000670200086702000867020008670200087C
:1000C000670200086702000867020008670200086C
:1000D000670200086702000867020008670200085C
:1000E000670200086702000867020008670200084C
:1000F000670200086702000867020008670200083C
:10010000670200086702000867020008670200082B
:10011000670200086702000867020008670200081B
:10012000670200086702000867020008670200080B
:1001300067020008670200086702000867020008FB
:1001400067020008670200086702000867020008EB
:1001500067020008670200086702000867020008DB
:1001600067020008670200086702000867020008CB
:1001700067020008670200086702000867020008BB
:1001800067020008670200086702000867020008AB
:10019000670200086702000867020008670200089B
:1001A00067020008670200086702000800F002F812
:1001B00000F03CF80AA090E8000C82448344AAF1C5
:1001C0000107DA4501D100F031F8AFF2090EBAE8C3
:1001D0000F0013F0010F18BFFB1A43F0010318477B
:1001E000E8F1000008F20000103A24BF78C878C196
:1001F000FAD8520724BF30C830C144BF04680C602D
:10020000704700000023002400250026103A28BF74
:1002100078C1FBD8520728BF30C148BF0B60704778
:100220001FB505F00FFE1FBD10B510BD05F0B9FAE2
:100230001146FFF7F5FF05F0F5F805F0D7FA03B41E
:10024000FFF7F2FF03BC05F0DBFA00000948804726
:1002500009480047FEE7FEE7FEE7FEE7FEE7FEE7A8
:10026000FEE7FEE7FEE7FEE704480549054A064BC0
:1002700070470000C3560008AD010008880D00203B
:1002800088130020880F0020880F0020F94801689B
:1002900041F001010160F74A002108321160026853
:1002A000F54B1A400260031DF44A1A60F14BF44A00
:1002B00084331A60F14A103A1B1D1A60026822F456
:1002C00080220260EB480C300160181D016070470D
:1002D000E8490022891C0A70087070470246002015
:1002E000510901290CD002290CD0E2497431096866
:1002F00002F01F02012393400B4200D001207047FF
:10030000DC49F4E7DB497031F1E718B500204FF420
:10031000A04400903120FFF7E1FF0099491C0091B3
:10032000A14201D00028F5D03120FFF7D7FF0028E7
:1003300000D0012018BDCF4A116821F0F80141EA30
:10034000C00010607047CF4908607047C94900225B
:1003500070310A700A70012802D0042801D10520EA
:1003600008707047C8490860704741EA82115A080E
:1003700010B5C64B029C03EB02421143014341EA14
:100380000460BC49091D086010BDBE49086670477D
:10039000800140EA0160B74940EA02708431086098
:1003A0007047B84988667047800140EA0160B149EA
:1003B00040EA0270883108607047B24908677047A8
:1003C000B049C8647047AB4B08331A68084322F041
:1003D000EC62104318607047A64B08331A68084354
:1003E00022F07842104318607047A24A0832116820
:1003F00021F003010143116070479E4808300068F6
:1004000000F00C0070479B4A0832116821F0F0019F
:10041000014311607047974A0832116821F4E05196
:10042000014311607047934A0832116821F460411A
:1004300041EAC0001060704770B58E4B08331968F0
:10044000934C11F00C0104D06610042903D0082944
:1004500003D004601BE0066019E0864A121D116893
:10046000C1F38055116801F03F0115B1B6FBF1F100
:1004700001E0B4FBF1F114681268C4F3881461431D
:10048000C2F30142521C5200B1FBF2F10160196843
:100490000F2202EA11117F4A545C0168E140416079
:1004A0001C68072505EA9424145D21FA04F484608D
:1004B0001B6805EA5333D25CD140C16070BDC0F304
:1004C0000121032908D16B4B08331968724A21F4C2
:1004D000F81102400A431A60664970310A68C0F395
:1004E0000B0002430A60704767494439086070474F
:1004F00065494039086070476249C1F85C0170473E
:100500005C4A8C321168401E21F01F0101431160CA
:100510007047584A8C3211686FF0FF0321F4F8518C
:1005200003EB0020084310607047524A8C32116878
:1005300021F440110143116070474E4A8C3211681A
:1005400021F440010143116070474A4A8C3211681E
:1005500021F440310143116070475049C1F8E00176
:100560007047444A30320029116801D0014300E04D
:100570008143116070473F4A34320029116801D02D
:10058000014300E08143116070473A4A3832002944
:10059000116801D0014300E0814311607047354A82
:1005A00040320029116801D0014300E0814311600D
:1005B0007047304A44320029116801D0014300E0FD
:1005C0008143116070472B4A10320029116801D015
:1005D000014300E0814311607047264A143200292C
:1005E000116801D0014300E0814311607047214A46
:1005F00018320029116801D0014300E081431160E5
:1006000070471C4A20320029116801D0014300E0E4
:10061000814311607047174A24320029116801D0C4
:10062000014300E0814311607047124A50320029B3
:10063000116801D0014300E08143116070470D4A09
:1006400054320029116801D0014300E08143116058
:100650007047084A58320029116801D0014300E070
:10066000814311607047034A60320029116817D036
:10067000014316E000380240FFFFF6EA1030002484
:100680000030002000004742800E47420000FFFF7C
:100690000024F40000000020FFFCFF0F0010474280
:1006A000814311607047194A0029116801D0014344
:1006B00000E081431160704714490C31012808683B
:1006C00003D020F008000860704740F00800FAE707
:1006D0000E4A573A0029117801D0014300E08143C6
:1006E0001170704709481030016841F08071016055
:1006F00070470146054A0020583A12680A4200D065
:10070000012070470149563908707047643802402B
:10071000774910B5884206D101210846FFF753FFFB
:10072000002101205BE07349884206D101210220AB
:10073000FFF749FF0021022051E06F49884206D1AE
:1007400001210420FFF73FFF0021042047E06B490F
:10075000884206D101210820FFF735FF002108203B
:100760003DE06749884206D101211020FFF72BFFA9
:100770000021102033E06349884206D10121202066
:10078000FFF721FF0021202029E05F49884206D1A0
:1007900001214020FFF717FF002140201FE05B49A7
:1007A000884206D101218020FFF70DFF0021802023
:1007B00015E05749884202D1012184150AE05549C4
:1007C000884202D10121441504E0534988420AD1EC
:1007D000012104152046FFF7F6FE00212046BDE862
:1007E0001040FFF7F0BE10BDF0B5002201274FF01A
:1007F000030C0B6807FA02F52B40AB422CD10668BC
:1008000053000CFA03F4A64306600E79D0F800E01A
:100810009E4046EA0E0606600E79012E01D0022E99
:1008200012D18668A64386604E79D0F808E09E40D3
:1008300046EA0E0686604668AE43466045688E7995
:100840009640B6B235434560C568A543C560CC79CE
:100850009C40C3681C43C460521C102AC9D3F0BD1D
:100860004FF6FF7101600021017141718171C17109
:10087000704708B541F480320092C261C1610099AD
:10088000C161C169C069009008BD024600201269BB
:100890000A4200D001207047006980B270470246CA
:1008A000002052690A4200D001207047406980B29E
:1008B000704701837047418370470AB101837047D5
:1008C000418370474161704742694A4042617047C5
:1008D0004B07DB0E9A40C90810B500EB8100016A96
:1008E0000F249C40A1430162016A1143016210BDC3
:1008F000000002400004024000080240000C0240D8
:10090000001002400014024000180240001C024087
:1009100000200240002402400028024010B50121BE
:100920000C022046FFF777FE2046BDE8104000216C
:10093000FFF771BE30B54268C84B0C791A400B689E
:1009400042EA0422134343608268C54B4D791A4042
:10095000D1E9034323438C6844EA4504234313430A
:100960008360C26A097D22F47002491EC9B242EA5C
:100970000151C16230BD002101600171417181608E
:10098000C1600161012101757047B64B10B5D3F804
:100990000423B5490A40D0E900142143D0E90240BC
:1009A000044321431143C3F8041310BD0021016027
:1009B00041608160C16070470029816802D041F0C8
:1009C000010101E021F00101816070474268A74BFD
:1009D0001A400A434260704741628262704742682F
:1009E00022F01F020A43426070479E490028D1F856
:1009F000040302D040F4000001E020F40000C1F83C
:100A00000403704797490028D1F8040302D040F44A
:100A1000800001E020F48000C1F80403704770B545
:100A2000072609290AD9C568A1F10A0404EB440480
:100A3000A640B543A3401D43C56007E0056901EB2F
:100A40004104A640B543A3401D4305611F23072A67
:100A500009D2446B521E02EB820293409C439140A8
:100A60000C43446370BD0D2A09D2046BD21F02EB04
:100A7000820293409C4391400C43046370BDC46A5E
:100A80000D3A02EB820293409C4391400C43C462B6
:100A900070BD816841F0804181607047014600204F
:100AA0008968490000D5012070470029816802D07B
:100AB00041F4806101E021F4806181607047002988
:100AC000816802D041F0020101E021F00201816061
:100AD00070474268491E22F4604242EA4131416057
:100AE00070470029416802D041F4006101E021F41F
:100AF000006141607047C06C80B270475948D0F8BF
:100B0000080370470029816802D041F4807101E038
:100B100021F48071816070470029816802D041F41E
:100B2000007101E021F40071816070474D49002897
:100B3000D1F8040302D040F4005001E020F400504A
:100B4000C1F80403704770B5072609290AD9C5689A
:100B5000A1F10A0404EB4404A640B543A3401D439D
:100B6000C56007E0056901EB4104A640B543A34019
:100B70001D430561836BC3F30154121B921C02EBEE
:100B800082021F249440A34391400B43836370BDB2
:100B9000826B491E22F4401242EA01518163704780
:100BA00008B508440090026008BD826822F47022F3
:100BB0000A4382607047826822F440120A438260CE
:100BC0007047816841F480018160704701460020D0
:100BD0008968490200D5012070470029416802D088
:100BE00041F4806101E021F4806141607047002997
:100BF000416802D041F4805101E021F4805141600C
:100C0000704708B5084428300090006880B208BDDD
:100C100001238B4041680AB1194300E099434160C8
:100C200070470246002012680A4200D00120704737
:100C3000C9430160704730B50246002053680C0A72
:100C400001258D4011682B40214202D0002B00D09D
:100C5000012030BD6FEA112101607047FFFEFFFCEB
:100C6000FDF7FFC000200140E030FCFFFFFD3FFF2B
:100C700010B501214C072046FFF7C3FC2046BDE814
:100C800010400021FFF7BDBC30B54D4C236840F645
:100C9000FE7282409343D1E900252A43D1E90251F3
:100CA0000D432A4382401A43226030BD0021016077
:100CB00041608160C1607047414B012282401868E9
:100CC00009B1104300E09043186070473C4B1B1D76
:100CD0000209012090400029196801D0014300E079
:100CE0008143196070473649091D0028086802D001
:100CF00040F0030001E020F0030008607047304B33
:100D0000814018680AB1084300E0884318607047C2
:100D10002B4A08B5104408300090016008BD284AED
:100D200008B5104414300090016008BD082805D0B3
:100D300042EA0141224A10440162704742EA01211D
:100D4000F8E71F4908B501EB90002C3000900068CF
:100D500080B208BD1A4B9A148240186809B110433A
:100D600000E0904318607047154B814018680AB145
:100D7000084300E08843186070470246104B00208B
:100D800034331B6891400B4200D0012070478140F2
:100D90000B48343001607047094A0346002012684E
:100DA0009940074B0A4034331B680B4202D0002A9B
:100DB00000D0012070478140014834300160704705
:100DC000007400402DE9F043016821F00101016049
:100DD0000021016041608160C160016121214161A8
:100DE000B849B84A3D251039904202D18D60BDE81E
:100DF000F083B44A4FF474661832904201D18E6089
:100E0000F5E7B04A4FF474173032904201D18F6049
:100E1000EDE7AC4A4FF0746C4832904202D1C1F811
:100E200008C0E4E7A74BA84A6033984201D1CA60E2
:100E3000DDE7A44CA54B7834A04201D1CB60D6E7C6
:100E4000DFF88082A24C08F19008404501D1CC60C7
:100E5000CDE7DFF870824FF03D5908F1A808404512
:100E600002D1C1F80C90C2E79A49DFF868820839CC
:100E7000404501D10D60BAE7964D1835A84201D121
:100E80000E60B4E7934D3035A84201D10F60AEE754
:100E9000904D4835A84202D1C1F800C0A7E78D4D5A
:100EA0008C496035091FA84201D10A609FE7894A31
:100EB0007832904201D10B6099E7864A9032904295
:100EC00001D10C6093E7834AA83290428FD1C1F8D8
:100ED00000908CE730B503687F4ACC6813400A68FD
:100EE0002243D1E905452C432243CC6922430C6AB5
:100EF00022434C6A22438C6A22434C6B22438C6B04
:100F000022431A430260426922F00703D1E90B240D
:100F100022431A4342610A6942604A6882608968D2
:100F2000C16030BD0021016041608160C16001612C
:100F300041618161C161016241628162C16201639B
:100F40004163816370470029016802D041F00101CB
:100F500001E021F00101016070470029016802D021
:100F600041F4004101E021F4004101607047002993
:100F7000016802D041F0200101E021F02001016070
:100F8000704741607047406880B27047002A02682D
:100F900002D042F4002201E022F40022026001614A
:100FA00070470029016802D041F4802101E021F45A
:100FB0008021016070470AB101617047C1607047CC
:100FC000014600200968090300D501207047014649
:100FD00000200968C90700D001207047406900F06F
:100FE0003800704702463B4B00209A4202D2354AF5
:100FF000103A01E0374A103A8B0001D5526800E000
:101000001268364B1A400A4200D001207047314A1C
:10101000904202D22B48103801E02E4810382F4A57
:101020008B0001EA020101D5C16070478160704701
:101030000B0607D5436912B143F0800301E023F0AA
:1010400080034361802908D0002A026801F01E0154
:1010500001D00A4300E08A430260704730B51D4A60
:101060000024904202D2174A103A01E0194A103A7D
:101070001B4B194205D01E2303EAD12503682B40E0
:1010800002E0406900F08003880001D5506800E06C
:101090001068124A1040084201D003B101242046D2
:1010A00030BD0C4A904202D20648103801E009488F
:1010B00010380A4A8B0001EA020101D5C16070476D
:1010C00081607047106002403D000020400F00200A
:1010D00000003D20106402403F801CF07D0F7D0F1A
:1010E0003C0F3C0FFE4910B5884206D1012108464D
:1010F000FFF791FA002101205BE0B0F1804F09D0A9
:10110000F84988420DD101210220FFF77AFA002127
:10111000022070E001210846FFF773FA0021012048
:1011200069E0F149884206D101210420FFF769FAFC
:10113000002104205FE0ED49884206D1012108200A
:10114000FFF75FFA0021082055E0E949884206D1FF
:1011500001211020FFF755FA002110204BE0E5494E
:10116000884206D101212020FFF74BFA00212020E0
:1011700041E0E149884206D101210220FFF74BFA04
:101180000021022015E0DD49884202D101210C0432
:101190000AE0DB49884202D101214C0404E0D9492C
:1011A00088420AD101218C042046FFF734FA00213D
:1011B0002046BDE81040FFF72EBAD349884206D139
:1011C00001214020FFF71DFA0021402013E0CF4904
:1011D000884206D101218020FFF713FA00218020E8
:1011E00009E0CB4988420AD1841501212046FFF746
:1011F00008FA00212046BDE81040FFF702BA10BDF2
:1012000030B50288B64CBC4DA0420DD0A8420BD0E0
:10121000B0F1804F08D0B34B984205D0B24B984202
:1012200002D0B24B984203D122F070034A881A438D
:10123000AF4B984206D0AF4B984203D022F4407394
:101240000A891A4302804A68C2620A880285A0425B
:1012500001D0A84201D1897A01860121818230BD65
:101260004FF0FF3141600021018001814180817296
:101270007047018582827047028822F070020A431B
:101280000280704741627047C1627047406A704790
:10129000008D70470029018802D041F0020101E071
:1012A00021F00201018070470029018802D041F03D
:1012B000040101E021F00401018070470029018848
:1012C00002D041F0800101E021F0800101807047EF
:1012D000028822F00802028002880A4302807047D6
:1012E000028822F44072028002880A43028070471A
:1012F0000029018802D041F0010101E021F0010143
:101300000180704730B5028C22F001020284028C09
:101310008388048B22F0020224F073050C882C438E
:101320008D8915434A882A436D4DA84202D0724DDB
:10133000A8420DD122F00805CA8923F440732A433C
:1013400022F004058A882A430D8A1D434B8A2B43C9
:101350008380048389684163028430BD70B5028C48
:1013600022F010020284028C8388048B0D8824F4FE
:10137000E6464FF6FF7404EA052535438E8922F0D0
:10138000200204EA061616434A8804EA021232438F
:10139000534EB04202D0584EB04215D122F08006D2
:1013A000CA8923F4406304EA0212324322F0400661
:1013B0008A8804EA021232430E8A04EA86061E4331
:1013C0004B8A04EA830333438380058389688163FE
:1013D000028470BD70B5028C22F480720284028C8B
:1013E0008388848B0D8824F0730425438E894FF6FF
:1013F000FF7422F4007204EA062616434A8804EABF
:1014000002223243364EB04202D03B4EB04215D19A
:1014100022F40066CA8923F4405304EA02223243CC
:1014200022F480668A8804EA022232430E8A04EAA1
:1014300006161E434B8A04EA0313334383808583D5
:101440008968C163028470BD70B5028C22F4805239
:101450000284058C8288838B0C8823F4E6464FF641
:10146000FF7303EA0424344325F400568D8903EA0C
:10147000053535434E8803EA06362E43184DA842FB
:1014800002D01D4DA84205D122F480450A8A03EA04
:1014900082122A438280848389680164068470BD35
:1014A000002101804180818081608181C181018230
:1014B0004182704730B50124058C00F118038C403F
:1014C000A543058431B308292CD0091FC1F34E0070
:1014D0001844016848F6FF731940016001681AE07A
:1014E000000001400004004000080040000C0040E3
:1014F0000010004000140040000401400040014082
:10150000004401400048014000180040001C004019
:101510000020004006E04FF6FF7303EA0222114369
:10152000016030BD03EB510001684FF68F73194025
:1015300001600168F3E74163704781637047C163ED
:10154000704701647047028B22F070020A430283E5
:101550007047028B4FF6FF7322F4E04203EA012149
:10156000114301837047828B22F070020A43828309
:101570007047828B4FF6FF7322F4E04203EA0121A9
:10158000114381837047028B22F008020A430283D1
:101590007047028B4FF6FF7322F4006203EA0121C9
:1015A000114301837047828B22F008020A43828331
:1015B0007047828B4FF6FF7322F4006203EA012129
:1015C000114381837047028B22F004020A43028395
:1015D0007047028B4FF6FF7322F4806203EA012109
:1015E000114301837047828B22F004020A438283F5
:1015F0007047828B4FF6FF7322F4806203EA012169
:10160000114381837047028B22F080020A430283D8
:101610007047028B4FF6FF73C2F30E0203EA0121FB
:10162000114301837047828B22F080020A43828338
:101630007047828B4FF6FF73C2F30E0203EA01215B
:10164000114381837047028C22F002020A43028414
:101650007047028C22F008020A4302847047028C11
:101660004FF6FF7322F0200203EA011111430184B7
:101670007047028C4FF6FF7322F0800203EA0111DB
:10168000114301847047028C4FF6FF7322F40072FD
:1016900003EA0121114301847047028C4FF6FF7366
:1016A00022F4006203EA0121114301847047028C95
:1016B0004FF6FF7322F4005203EA01311143018413
:1016C000704710B50123048C8B409C430484038C29
:1016D0008A401343038410BD10B50423048C8B404F
:1016E0009C430484038C8A401343038410BD828B83
:1016F00022F440628283828B4FF6FF7303EA01215A
:101700000A4382837047828B22F00C028283828B91
:101710000A4382837047028B22F440620283028B69
:101720004FF6FF7303EA01210A4302837047F0B5C5
:10173000048C24F010040484078B068C4FF6FF748D
:1017400004EA011527F4734704EA0331394304EA34
:1017500002220A4326F0A001294341F0100102832E
:101760000184F0BD028B22F00C020283028B0A433B
:10177000028370472DE9F0410C460E884988A28803
:10178000238905460EB3042E26D0082E2E8C4FF644
:10179000FF7028D026F480562E84AF8B2E8C00EA62
:1017A000022200EA013127F473473A4300EA03308A
:1017B000104326F420420A4342F48051A88329842E
:1017C000E1882846BDE8F04191E700F062F9E18840
:1017D0002846BDE8F041C5E7FFF7A9FFE1882846A4
:1017E000BDE8F04197E726F480762E84AF8B2E8CEF
:1017F00000EA012100EA0310104327F0F307384301
:1018000026F420620A4342F48071A8832984E18887
:101810002846BDE8F04176E70021018041800122A1
:101820008280C180018170472DE9F0410C4600267D
:1018300049880746012501B90226A288012A00D15C
:101840000225208823890028384610D0FFF76FFF33
:10185000E1883846FFF75FFF23892A46314638463C
:1018600000F017F9E1883846BDE8F0417AE700F06A
:1018700010F9E1883846FFF775FF23892A4631467B
:101880003846FFF754FFE1883846BDE8F04142E7AB
:10189000406B7047806B7047C06B7047006C70473F
:1018A00010B50A884B88CC881A438B8823431A4387
:1018B0000B891A434B8989891A430A43A0F84420AB
:1018C00010BD0021018041808180C1800181418162
:1018D00081817047002930F8441F02D041F4004153
:1018E00001E0C1F30E01018070470029818802D018
:1018F00041F0040101E021F00401818070470029DA
:10190000818802D041F0010101E021F001018180D4
:101910007047002A828901D00A4300E08A4382810D
:1019200070478182704702460020128A0A4200D026
:1019300001207047C9430182704702460020138A84
:1019400092890B4202EA010202D0002A00D0012053
:101950007047C943018270471143A0F8481070478F
:10196000002A828901D00A4300E08A4382817047BD
:101970000029818802D041F0080101E021F008012E
:1019800081807047018921F0070101817047028938
:1019900022F070020A430281704700B50346FFF748
:1019A000F6FF188940F00700188100BD70B5164693
:1019B0000D46602904464FF0010231460AD000F07E
:1019C00068F829462046FFF7E2FF208940F007002B
:1019D000208170BDFFF7ABFEF3E730B504894FF609
:1019E000FF7505EA03231343E4B20B43234303814A
:1019F00030BD10B50446FFF7F0FF208940F07700B6
:101A0000208110BD10B50446FFF7E7FF208940F4A0
:101A10008040208110BD828822F0700282808288FE
:101A20000A4382807047028922F0070202810289FC
:101A30000A4302817047028922F0800202810289F2
:101A40000A430281704770B50589048B068C25F026
:101A500007050D434FF6FC410C4040F201110C43C9
:101A60004FF6FF7101EA031126F0220611433143BC
:101A700005810483018470BD0029818802D041F072
:101A8000800101E021F0800181807047A0F85010B2
:101A9000704770B5048C24F001040484058B048C19
:101AA0004FF6FF7606EA0313134325F0F3052B43A5
:101AB00024F00A020A4342F001010383018470BD4D
:101AC0008100A1F1C04140B143F2D20008606FF043
:101AD00070404860C1F8040170474FF0204243F263
:101AE000DB001060F3E710B5D0E901121143D0E933
:101AF00003231A4311434269114382691143C269A6
:101B00001143026A1143426A1143826A1143C26A55
:101B10001143026B1143426B114302689200A2F120
:101B2000C04211608168082907D101688900A1F1CC
:101B3000C0410A6842F040020A60416BB1F5801F63
:101B400015D1016899B14FF020414A680B6822F421
:101B5000700243F480130B600B6843F480730B60D6
:101B6000836BFA4C1B8A04EB035313434B60816B6A
:101B7000D1E9002342EA03128B688C891B0243EAF5
:101B800004431A430B8A42EA03520B7D896942EAF5
:101B900003620A4301688900A1F1C0414A60816A79
:101BA000B1F5804F08D000686FF070418000A0F15F
:101BB000C040C0F8041110BDC16BD1E9002342EA56
:101BC00003128B680C8A1B0243EA04531A430B7DF1
:101BD000896942EA036200680A438000A0F1C040BC
:101BE000C0F8042110BD00210222C0E90012102219
:101BF000C0E902120161C162416112028161C0E962
:101C000007125200C0E9092101634163D049816391
:101C1000C16370478000A0F1C0400029016802D074
:101C200041F0010101E0CB4A11400160704710B55D
:101C3000182340244FF020414FF0FC32102805D0EB
:101C400041F8803F4C608A60CA6010BD0B664C66EC
:101C50008A66CA6610BD30B5D0E901121143D0E9D9
:101C600003231A431143426941EA4221826941EA4E
:101C7000423141F00804C169D1E9002342EA03225C
:101C80000B89097B1B0443EA01610A43016AD1E91C
:101C9000003543EA05230D89097B2D0445EA0161DE
:101CA0000B4301684FF02040102904D040F8804FCA
:101CB0008260C36030BD04668266C36630BD102298
:101CC0000021C0E90021C0E9022101614161816177
:101CD000C269FC211160C2695160C2699160C26928
:101CE000D160026A1160026A5160026A9160006A02
:101CF000C16070474FF0204251B1102804D052F813
:101D0000800F40F004000AE0106E40F004000AE08A
:101D10009049C91E102804D052F8800F0840106066
:101D20007047106E0840106670474FF0204251B166
:101D3000102804D052F8800F40F040000AE0106EE6
:101D400040F040000AE083493F39102804D052F89F
:101D5000800F084010607047106E08401066704792
:101D60004FF02041102802D0D1F894007047486FFE
:101D700070474FF02040182140F8A01F002141601B
:101D80004FF0FC318160C1600161704710B5D0E94E
:101D9000001241EA42218268102343EA4232114391
:101DA0004FF0204242F8A01FC168D1E9003443EA55
:101DB00004230C89097B240444EA01610B439360EA
:101DC0000169D1E9003443EA04230C89097B240426
:101DD00044EA01610B43D3604069D0E9001341EA52
:101DE00003210389007B1B0443EA00600143116166
:101DF00010BD0021016041608160C268FC2111605A
:101E0000C2685160C2689160C268D16002691160A5
:101E100002695160026991600269D1604269116092
:101E200042695160426991604069C16070474FF0FA
:101E30002041002851F8A00F02D040F0040002E039
:101E4000444AD21E1040086070478000A0F1C04094
:101E50004FF43471C0F840116FF07041C0F8481170
:101E60004FF020410020C1F85001C1F85401C1F8E1
:101E700058017047F0B5D0E901121143D0E90323AE
:101E80001A4311434269046A11438269436A114348
:101E9000C26906681143214319434FF0204586B3B8
:101EA00022431A43C5F8402102689200A2F1C042C1
:101EB000C2F840116FF00F021301140301681604F9
:101EC00019B3816AD1E9007C02EB0C127F1E174323
:101ED0008A6803EB022217430A8A04EB0242174383
:101EE000CA68898A120306EB0151A2F580520A439F
:101EF000C5F8482100688000A0F1C040C0F84871D2
:101F0000F0BDFFE7C5F84011D4E7806AD0E90017BB
:101F100002EB0712491E1143826803EB02221143B0
:101F20000D4BC26803EB02321143028A04EB0242FA
:101F30001143828A007E06EB025211431A0302EB20
:101F400000600143C5F84811DAE700000000F0FF27
:101F5000505E0008FEFF0F0000F0FFFF002202604D
:101F60004260102140238260C0E903138023436153
:101F70004B01C0E9063202624262826A1160826AE3
:101F80005160826A9160826AD160826A1161826A5C
:101F90005161806A81617047D0E900121143826803
:101FA0006FF01F03C06803EB421242EA4020014376
:101FB0004FF02040C0F8501170474FF020410028EA
:101FC000D1F8580103D000F018008008704700F0E5
:101FD000060070474FF02041D1F8542142EA4000FA
:101FE000C1F8540170474FF02041D1F8502142EA26
:101FF0004010C1F8500170478000A0F1C040002996
:10200000D0F8401102D041F4007102E047F6FF52CF
:102010001140C0F84011704730B54FF480752C0165
:102020004FF02043A2B1102804D0A84205D153F8A4
:10203000840F06E0586E084313E0A04204D153F821
:10204000A40F0843186030BDD3F85401084313E0CF
:10205000102804D0A84206D153F8840F07E0586E28
:102060008843586630BDA04203D153F8A40F88437B
:10207000E8E7D3F854018843C3F8540130BD002287
:102080004FF0204310280AD0B0F5807F09D0B0F57A
:10209000805F09D0D3F85801814309D107E0586E19
:1020A000FAE7D3F88400F7E7D3F8A400F4E70122B5
:1020B000104670474FF0204210280BD0B0F5807FBB
:1020C0000CD0B0F5805F0CD0D2F854018843C2F830
:1020D00054017047506E88435066704752F8840F21
:1020E00001E052F8A40F88431060704730B5002318
:1020F0001C464FF02045102815D0B0F5807F14D035
:10210000B0F5805F14D0D5F85421D5F8584102EAD3
:10211000010580B101280ED002EAD10008B105B155
:102120000123184630BD6A6EF1E7D5F88420EEE74A
:10213000D5F8A420EBE704F00100EFE74FF02042D0
:1021400010280CD0B0F5807F0ED0B0F5805F0ED097
:10215000D2F8540140F00100C2F854017047506EAB
:1021600020EAD1005066704752F8840F01E052F81F
:10217000A40F20EAD10010607047000010B50121C3
:102180008C062046FEF747FA2046BDE810400021A5
:10219000FEF741BA30B5F74A1368F7490B401360B0
:1021A000038A146845692C4344EA03441460121DF1
:1021B00013680B401360038B1468C5692C4344EA11
:1021C00003441460121D13680B401360038C1468E1
:1021D000456A2C4344EA03441460121D13680B4003
:1021E0001360018D1368C46A234343EA01431360FB
:1021F000111D0A68E14B1A400A60D0E900231A4316
:10220000D0E9023423431A430B681A430A60416B36
:102210000A02018E0B04D74924310C6804F07F4474
:102220000C600C68806B134304431C430C6030BD8E
:102230000021016041608160C16001614161816193
:10224000C161016241628162C16201634163816374
:102250007047C84910310028086802D040F00100DA
:1022600001E020F0010008607047C24910310028E9
:10227000086802D040F4803001E020F4803008602B
:102280007047BC4910310A68BC4B1A400A600A68A2
:102290000B68C2F302120968C3F30223C1F30231CF
:1022A0000260C0E901317047022101604160816034
:1022B0007047B049383108607047AE491C3108603A
:1022C000704770B58A88436803F4704343600B68B5
:1022D00043EA024343608A89836803F4704383605E
:1022E0008B6843EA02438360026922F007020261BD
:1022F0000A690261CA6991F8243014020A8C85695E
:102300001204002686618D6942EA03622543154363
:102310008561426922F0FF0242614A694261C269F5
:1023200040F207739A43C261D1E90A231A43C2619A
:10233000826A86620A6B82620A8FC36A03F0E023B4
:10234000C3624B6B43EA0243C362026B6FF30A0240
:102350000263C96B016370BD00210160416081604F
:10236000FF22C160C0E904128161C1614FF4C06203
:102370000162C0E909120722C0E90B2141638163B0
:10238000C16370470029016802D041F0010101E0FA
:1023900021F001010160704776493C310A68002252
:1023A0000A600A680968120C89B2C0E90021704706
:1023B00000210160416070476E4940310968014267
:1023C00001D0012070470020704710B592B102681B
:1023D00042F0020202604A68C46813020A8904F0EB
:1023E0007F44C460C468096843EA02430C431C4349
:1023F000C46003E0016821F0020101605D49012031
:102400001C31086010BD002101604160816070478F
:102410000029016802D041F0100101E021F0100113
:102420000160544901201C310860704710B58A686A
:1024300014028A8913040A7849681C4341EA02613C
:102440002143016410BD0021016041608160C160D1
:10245000704710B5436803F470434360836803F426
:1024600070438360434B1B1D1C6801EB144312FA3D
:1024700084F20169521C5B1CF1B101291ED00429B0
:102480001ED002291CD003291AD0072918D00121F7
:10249000C46AC4F30C04E41EB4FBF1F1046B1944E8
:1024A000491EC4F30A0443EA014114444160641E16
:1024B00042EA0441816010BD0421E9E70321E7E716
:1024C0000221E5E74161704781627047F0B5036919
:1024D0000BB3012B21D0042B21D0022B1FD0032BB7
:1024E0001DD0072B1BD001234468C4F30C0584685E
:1024F0004E19C4F30C041719761E45EA06454560CB
:102500007F1E44EA074484605943CB1C43EA0141DF
:10251000C1620263F0BD0423E6E70323E4E702237C
:10252000E2E702690AB3012A21D0042A28D0022A4C
:1025300026D0032A24D0072A22D00122C36A1B0CEA
:10254000B3FBF2F3F1B101291ED004291ED00229F8
:102550001CD003291AD0072918D001225343DA1CB2
:1025600042EA0342C262016170470422E6E70322A5
:10257000E4E700000868014000F800F08F88FE0FD3
:102580000222DBE70422E9E70322E7E70222E5E78C
:10259000144A0029116801D0014300E08143116011
:1025A000704701460F4A0020121D12680A4200D0EF
:1025B000012070470B49083108607047094A002123
:1025C000121D1268024200D00121064A126802421E
:1025D00002D009B10120704700207047014908313D
:1025E0000860704734680140C14910B5884202D183
:1025F0000121841424E0BF49884202D1012104143E
:1026000004E0BD4988420AD10121C4132046FDF7E8
:10261000F8FF2046BDE810400021FDF7F2BFB749A2
:10262000884202D1012144140AE0B549884202D10E
:1026300001210C0504E0B34988420AD101214C056F
:102640002046FDF7E8FF2046BDE810400021FDF7D9
:10265000E2BF10BD30B502884C8802F441530A88AD
:10266000CD8822438C882C4322430C8922434C89F9
:1026700022438C892243CC8922431A430280828BD5
:1026800022F400628283098A018230BDF0B5022201
:102690000023858B01244FF2400635408583028458
:1026A000868B8D68022D3DD08A8802B10224964A1D
:1026B00013681B0203D5136823F400031360924AC6
:1026C0007C3213681268C3F388138F4FC2F302720F
:1026D0003F1F3D683F6805F03F057F0201D58B4FE6
:1026E00000E08B4FB7FBF5F55D43B5FBF2F2CB880D
:1026F000B3F5007F2BD06301B2FBF3F202EB820251
:102700008B685200B2FBF3F2521D92B20A23B2FB65
:10271000F3F202F00103D21A4FF6FF74C2F34F0234
:1027200004EA0323941EFE2C01D302220023CC884A
:102730001A43144304840A884B881A438B88898976
:102740000B431A43324342F400618183F0BD120A05
:10275000D4E70021018041808180C18001814181D5
:102760008181C18107210182704700210180418060
:102770008180C180022282608181704700290188A6
:1027800002D041F0400101E021F04001018070479A
:102790000029818B02D041F4806101E021F4806145
:1027A00081837047028822F40062028002880A4313
:1027B00002807047B1F5804F018803D021F4804139
:1027C0000180704741F48041FAE7A1F57E4201881B
:1027D000FF3A02D041F4807101E021F48071018060
:1027E00070470029818802D041F0040101E021F006
:1027F0000401818070470029818802D041F01001D6
:1028000001E021F010018180704730B5828B0023F8
:102810004FF240042240828302220284848B0A8881
:102820004FF48075B2F5007F00D002B92B464A887C
:102830008D8889892A4319430A43224342F400615F
:10284000818330BD8089704781817047002901886C
:1028500002D041F4005101E021F4005101807047A1
:10286000018841F4805101807047012901D0008B1B
:102870007047808A7047008A7047002A828801D09A
:102880000A4300E08A4382807047090901238B4094
:10289000002A828899B201D00A4300E08A438280EC
:1028A00070470246002012890A4200D0012070477A
:1028B000C9430181704730B501F00F03012502467D
:1028C00005FA03F40020A3B2090905FA01F491887E
:1028D000A4B2128921401A4202D0002900D001205E
:1028E00030BD01F00F0201219140C94301817047C1
:1028F0000030014000380040003C004000340140FE
:1029000000500140005401400838024000127A0093
:102910000024F4002DE9FF4F9B462DED028B81B082
:1029200004998908002423468A46009167187E1876
:10293000751800EBC40C00EBC60600EBC70700EBF4
:10294000C505DCED012A97ED004AD6ED015A95ED5B
:10295000006A9CED005AD6ED006A97ED013AD5ED7C
:10296000014A74EE063A72EEA51A35EE261A72EE98
:10297000E52A33EE242A73EE645A4FEA430902EB48
:10298000C90831EE233A98EC020A34EE464A8CED3F
:10299000003A31EE823A35EE665A72EEC44A8CED58
:1029A000013A02EBC30C31EE631A34EE224A35EEE3
:1029B000253ADCED002A75EE653A31EEC22A9CED2F
:1029C000015A63EE226A24EEA27A09EB030C22EE8E
:1029D000006A02EBCC0C22EE202A61EE002ADCED2C
:1029E000001ADCED015A61EE200A23EEA10A64EE22
:1029F000854A23EE053A24EE251A64EE211A32EEBA
:102A0000822A63EEA53A76EE600A36EEA44A37EEE5
:102A1000433A87ED002A30EE010AC7ED010A31EE94
:102A2000E31A86ED004A86ED013A85ED000A85ED50
:102A3000011AAAF10105641C5B445FEA050A7FF4F0
:102A400075AF4FF6FF7404EA8B0A009B99E08E463F
:102A500089080024A04663001E1902EBC30302EBA1
:102A6000C405D3ED006A93ED018A02EBC60395ED30
:102A7000006AD5ED017A93ED007AD3ED018A5444D2
:102A800043465E1800EBC607751800EBC50605EB5C
:102A9000010900EBC30C00EBC9059CED000AD6ED63
:102AA000005ADCED013AD7ED000AD6ED011A95ED9A
:102AB000005A97ED014AD5ED014A30EE652A70EED5
:102AC000C52A33EEE13A73EEA11A74EE243A30EEE1
:102AD000250A70EE850A34EE641A73EE624A71EECE
:102AE000E35A30EE605A32EE014A30EE200A32EEFE
:102AF000412A32EE831A8CED000A31EEA30A65EE0C
:102B0000A61A65EE262A8CED010A65EE885A24EE97
:102B1000860A25EE085A64EE060A64EEA74A61EEBC
:102B2000073A24EE274A22EE073A21EE281A72EEDF
:102B3000A52A22EE282A71EEC51A70EEA40A30EEFC
:102B4000440AC7ED002A33EE011AC7ED011A33EE2D
:102B5000C22AC6ED000A86ED010A85ED001A85ED50
:102B6000012A049D7344AB428BD34B1E08F101082C
:102B700098457FF670AF4FF6FF7404EA8A0A4FEA71
:102B80009B039B46042B3FF662AF009990ED000A31
:102B900090ED042A90ED013A90ED054AD0ED021A2D
:102BA00090ED031AD0ED062AD0ED073A70EE020A36
:102BB00030EE420A33EE042A33EE443A71EEA24A72
:102BC00031EE234A31EE631A71EEE21A70EEA43A46
:102BD00072EE042A70EEE40A72EE444AC0ED003A46
:102BE00030EE014AC0ED012A33EE612AC0ED020A3F
:102BF00030EE410AC0ED034A31EE831A80ED044AFB
:102C000080ED052A80ED060A80ED071A2030491E66
:102C1000BCD101B0BDEC028BBDE8FF8F2DE9FF4FA9
:102C20009B462DED020B2DED048B81B00899890890
:102C3000002423468A46009167187D1805EB010C95
:102C400000EBC40600EBC505D6EC023A00EBC70763
:102C500000EBCC0C95ED007AD5ED015AD7ED002AAA
:102C6000DCED006A33EE873A97ED015A9CED016A7C
:102C700072EEA64A74EE251A4FEA430902EBC90820
:102C800035EE062A74EE655A33EE244AD8EC020A71
:102C900033EE643A86ED004A31EE824A73EEC73A6B
:102CA00035EE466A71EEC24A86ED014A02EBC30672
:102CB00072EEE62A33EEC65A73EE861AD6ED003A65
:102CC00096ED012A35EEA24A09EB030602EBC60691
:102CD00064EEA06A24EE238A75EEE22AD6EC025A4C
:102CE00025EE237A63EE207A24EE024A64EE814ACE
:102CF00023EE011A25EE022A37EE443A37EEE44A73
:102D000062EEA53A36EE811A61EEA50A62EE862AD7
:102D100061EE861A38EE022A87ED004A87ED011A25
:102D200085ED003A70EEE20A85ED012A73EEA11AF4
:102D3000CCED000AAAF10105641CCCED011A5B443C
:102D40005FEA050A7FF478AF4FF6FF7404EA8B0A56
:102D5000009B97E08E4689080024A04663001E1958
:102D600002EBC30302EBC40593ED007AD3ED018AB5
:102D700002EBC603D5ED006A95ED018AD3ED007A2A
:102D800093ED019A544443465E1800EBC60775184C
:102D900000EBC50605EB010900EBC30C00EBC90510
:102DA0009CEC021A734496ED006A97ED002AD7ED69
:102DB000010A96ED014AD5ED005A95ED015A71EEE2
:102DC000464A72EE652A71EEC43A30EEC53A31EEEB
:102DD000061A71EE841A70EE850A32EE252A34EE58
:102DE000C34A33EEA25A31EEE06A71EE425A31EE36
:102DF000021A34EE833A71EEA00A8CED001A73EEDB
:102E0000E22A26EE072A25EE871A26EE286A65EEC4
:102E1000264A65EEA85ACCED010A64EE261A25EE84
:102E2000085A62EEA70A24EE084A63EE273A62EED9
:102E3000892A31EE461A23EE093A32EE252A71EE3E
:102E4000C51A34EE844A87ED001A73EEE22A87ED44
:102E5000012A70EE830AC6ED001A86ED014AC5ED1F
:102E6000002AC5ED010A089DAB428DD34B1E08F127
:102E7000010898457FF672AF4FF6FF7404EA8A0A9C
:102E80004FEA9B039B46042B3FF664AF0099D0EDBD
:102E9000001A90ED044A90ED013AD0ED054A31EE6A
:102EA000842AD0ED030A90ED071A71EEC41AD0ED12
:102EB000022AD0ED063A33EE244A33EE645A70EE1D
:102EC000814A32EEA33A72EEE32A70EEC10A34EE82
:102ED000241A72EE435A72EE033A31EEE03A34EEBF
:102EE000642A71EEA00A35EE224A75EE621A63EE8C
:102EF000802A21EE001A65EE803A22EE002AC0ED0B
:102F0000002A23EE003A80ED011A24EE004AC0EDBB
:102F1000023A60EE800A80ED032A61EE801A80EDAD
:102F2000043A80ED054AC0ED060AC0ED071A2030CC
:102F3000491EACD101B0BDEC048B06B0BDE8F08FEA
:102F400070B504460D4680782188A38962680128FF
:102F50000DD02846FFF7DEFCE07801280DD1E2898C
:102F600021882846A368BDE8704000F010B994EDB0
:102F7000040A2846FFF752FEEEE770BD30B5018027
:102F8000224D4560827000244FF48072C3709142DC
:102F900022D004DC102931D0402906D125E0B1F53A
:102FA000806F0ED0B1F5805F03D04FF0FF34204624
:102FB00030BD01218181C18115499FED160A8160D3
:102FC00007E004218181C18111499FED130A891D08
:102FD000816080ED040AEAE710218181C1810C49FA
:102FE0009FED0E0A1E318160F3E740218181C1818E
:102FF00007499FED0B0A7E318160EAE78281C28139
:1030000008499FED090A8160E3E700006C6600084B
:103010006C5E0008000080390000803A0000803BB0
:103020000000803C6A6000080000803D2DE9F0410E
:1030300017460D460446960834E094ED000AD4ED98
:10304000010A284620EE000A2D1D083400EEA00AD1
:1030500000F03FF894ED000AD4ED010A284620EE76
:10306000000A2D1D083400EEA00A00F032F894ED9D
:10307000000AD4ED010A284620EE000A2D1D08346E
:1030800000EEA00A00F025F894ED000AD4ED010A44
:10309000284620EE000A2D1D083400EEA00A00F09C
:1030A00018F8761E002EC8D107F003060DE094ED47
:1030B000000AD4ED010A284620EE000A2D1D08342E
:1030C00000EEA00A00F005F8761E002EEFD1BDE854
:1030D000F081B5EEC00AF1EE10FA05DDF1EEC00A9E
:1030E000C0ED000A002070479FED030A80ED000A42
:1030F0004FF0FF307047000000000000F0B50024E2
:103100004F1E2546B0EC010ABE082AE0D0ED000AA9
:1031100090ED011A0830B4EEE00AF1EE10FA02D296
:10312000B0EE600A651CF0EC010AB4EEC10AF1EEE3
:1031300010FA02D2B0EE410AA51CB0EC011AB4EEAE
:10314000E00AF1EE10FA02D2B0EE600AE51CB4EE2D
:10315000C10AF1EE10FA02D2B0EE410A251D241D7B
:10316000761E002ED2D107F003040AE0F0EC010A2B
:10317000B4EEE00AF1EE10FA02D2B0EE600A0D1BD6
:10318000641E002CF2D182ED000A1D60F0BDF0B586
:103190004F080024012505EB510E2146A7F1020C32
:1031A00047E0A1422BD200EBC40500EBC106D5EDF0
:1031B000000A96ED000AC6ED000A85ED000AD5ED7D
:1031C000010A96ED010AC6ED010A85ED010A01EB3F
:1031D0000E0500EBC50604EB0E0500EBC50596EDEC
:1031E000000AD5ED000AC6ED000A85ED000AD5ED0E
:1031F000010A96ED010AC6ED010A85ED010A3C447B
:1032000000EBC10500EBC40495ED020AD4ED000A01
:10321000891CC5ED020A84ED000AD4ED010A95ED82
:10322000030AC5ED030A84ED010A1C8803EB42037F
:1032300089B26145B5D9F0BD2DE9F04792464F08F6
:103240000022012404EB51061146A7F1020941E0D6
:10325000914229D250F8314050F8325040F8315064
:1032600040F8324000EBC10400EBC205D4F804C0C2
:10327000D5F80480C4F80480C5F804C08D199419E9
:1032800050F8358050F834C040F835C040F83480EC
:1032900000EBC50500EBC404D5F804C0D4F80480E5
:1032A000C5F80480C4F804C000EBC1043A44A56822
:1032B00050F832C0C4F808C040F8325000EBC202E7
:1032C000E568D2F804C0C4F80CC055601A8803EB56
:1032D0004A03891C4945BBD9BDE8F0872DE9F04771
:1032E00092464E080022012404EB51051146A6F136
:1032F000020921E0914211D250F8214050F8227089
:1033000040F8217040F822404C19571950F824C059
:1033100050F8278040F8248040F827C000EB810453
:103320003244676850F822C0C4F804C040F82270E4
:103330001A8803EB4A03891C4945DBD9CCE7000016
:1033400030B58BB00024054601208DF81400C54827
:103350008DF805400494039402948DF8044085424E
:1033600002D1012180150AE0BF48854202D1012126
:10337000401504E0BD48854204D101210015FDF748
:1033800018F900944FF48030CDE906404FF44070B6
:103390000990089406A8FDF7F8FA69462846FDF753
:1033A000C9FA01212846FDF707FB0BB030BD7CB5FB
:1033B0000D4614460121FDF7D4F803228DF80420B0
:1033C00000238DF806308DF8073000948DF8052025
:1033D00069462846FDF708FA7CBDA249884202D01A
:1033E000A149884203D12022A149042005E09F4938
:1033F000884203D120229F491046D8E77047994957
:10340000884202D09849884203D108229849042072
:1034100005E09649884203D1102296492020C6E74C
:103420007047082292490420C1E7042290491046BF
:10343000BDE702228E490420B9E701228C4904200D
:10344000B5E78849884202D08749884203D10222E1
:103450008949104605E08549884203D108228549FB
:103460002020A4E770477F49884202D07E498842E5
:1034700003D101228049022005E07C49884203D122
:1034800002157C49202092E770477649884202D095
:103490007549884203D180227849012005E07349AB
:1034A000884203D142157349202080E770476D4957
:1034B000884202D06C49884203D140226F490120E2
:1034C00005E06A49884203D182156A4920206EE7E7
:1034D00070476449884202D06349884203D1202260
:1034E0006649012005E06149884203D18022614993
:1034F00020205CE770475B49884202D05A498842E5
:1035000003D110225D49012005E05849884203D1CA
:103510004022584920204AE7704708225749012095
:1035200045E704225549012041E702225349012081
:103530003DE701225149104639E710B50446F1B183
:1035400001291FD0022920D0032921D0042922D00B
:10355000052923D0062924D0072925D0082926D0DB
:10356000092927D00A2928D00B2929D00C292AD0AB
:103570000D292BD00E292CD00F292DD02EE0FFF7AE
:10358000D8FF2BE0FFF7D1FF28E0FFF7CAFF25E0C7
:10359000FFF7C3FF22E0FFF7AEFF1FE0FFF799FF41
:1035A0001CE0FFF784FF19E0FFF76FFF16E0FFF75D
:1035B0005AFF13E0FFF745FF10E0FFF73EFF0DE075
:1035C000FFF737FF0AE0FFF730FF07E0FFF729FFBB
:1035D00004E0FFF714FF01E0FFF7FFFE2046BDE81F
:1035E0001040ADE610B5012304461A46FDF717FA60
:1035F0002046FDF74EFA02212046FDF712FB002877
:10360000F9D02046BDE81040FDF775BA10B501208D
:10361000FDF7F8F91A490120087010BD10B5002017
:10362000FDF7F0F916490020087010BD10B50446EA
:10363000052301221221FDF7F2F92046FDF729FAB0
:1036400002212046FDF7EDFA0028F9D02046FDF7CB
:1036500052FA43F29031484340F6FF71B0FBF1F06B
:1036600080B210BD00200140002101400022014035
:103670000008024000140240000402400000024022
:10368000100000201CB50446B1F1804F0ED08D48CB
:1036900081420BD08C48814208D08C48814205D0B1
:1036A0008B48814202D08B4881420DD18A4840F834
:1036B000241089490120083908550146FCF751FFBB
:1036C00024B1012C04D005E002201CBD102000E034
:1036D0002020009003208DF8040000218DF80610B2
:1036E0008DF807108DF8050069467C48FDF77CF8D9
:1036F00000201CBD2DE9F0410446774817462DED0A
:10370000028B08389CB0005DB0EE408AF0EE608A13
:103710008846E8B3704E56F82400B0F1804F04D0CC
:103720006849884203D12C2114E0242112E0664923
:10373000884201D11C210DE06449884201D1042155
:1037400008E06349884201D1142103E061498842BD
:1037500023D10C210F9113A901F0C0FC384602F0CF
:1037600024FA53EC182B02F06FFA41EC100B13A85B
:1037700001F0F7FC189858B101214807FCF70FFF3A
:1037800001214805FCF7EDFE00251095129500E09B
:1037900009E054B1012C0BD00EE002201CB0BDECAE
:1037A000028BBDE8F0810120F8E70FA9002001E0BD
:1037B0000FA91020FDF768FA56F8240001F026FD45
:1037C00019A8FDF74DFD1698ADF86C50401E1A90E3
:1037D000179819A9401EADF86400ADF8665056F868
:1037E0002400FDF70DFD56F824002021FEF713F903
:1037F0004020CDF80880CDE903070001CDE9055050
:103800004000079080000890401109904002CDE9E7
:103810000A050120CDE90C050E954FF0606514B145
:10382000012C2FD115E02E482E4F01903846FDF780
:10383000C9FA694638460095FDF74CFB0121384628
:10384000FDF781FB01210020FDF736FA0121002060
:1038500016E0244F18373846FDF7B4FA2048694679
:103860000C30CDE900503846FDF734FB01213846D5
:10387000FDF769FB01211020FDF71EFA0121102040
:10388000FDF768FA56F824000121FDF731FD00200C
:1038900084E739B101290DD0022907D003290DD0C1
:1038A000012070470C49202208310AE00A492022F1
:1038B000883106E008492022483102E00649022208
:1038C000891F17E700080040000C0040001000406E
:1038D00000140040000401401C00002000000240D1
:1038E000087400408860024001B532480099416088
:1038F00041680029FCD108BD01B54FF47A700099E8
:1039000041432C48416041680029FCD108BD294849
:103910008168491C8160C16811B1C168491EC160DC
:103920004168002902D04168491E4160704710B5C6
:10393000204C207800281CD10120FCF7C9FCFCF7A2
:10394000E4FC0028FBD01C481C490068B0FBF1F0E7
:10395000401EB0F1807F0DD24FF0E0214861184A3F
:10396000F02082F8140D00208861072008610120F2
:10397000207010BDFEE70F48806870470D48C06892
:1039800070470C49886070470A49C8607047094809
:103990000078002805D04FF0E020016941F00201D5
:1039A000016170474FF0E020016921F002010161DF
:1039B00070470000E40000200001002040420F009A
:1039C0000FE000E01CB501214020FCF7CAFD4FF4D8
:1039D000C040009000208DF8060001218DF80410F1
:1039E0008DF8070003208DF8050069461D48FCF797
:1039F000FBFE1CBD1CB501210846FCF7B2FD0120F1
:103A0000009000208DF806008DF804008DF8070066
:103A100003208DF8050069461348FCF7E5FE1CBD40
:103A200001461048FCF745BF01460E48FCF743BF6E
:103A300001460C48FCF748BF10B501460948FCF7A1
:103A40002EFF012800D0002010BD01B1E8E7EBE710
:103A500010B501210448FCF718FF012800D0002010
:103A600010BD00000018024000000240FE48002186
:103A700081604171704770B5FB4B00214FF050429F
:103A80004FF4963402EB41069D68491CA142A853AD
:103A9000F8D370BDF4484FF41631816001214171B3
:103AA000704730B591B01E20009040F20D1001908B
:103AB0000420029040F24310039002200490FF2063
:103AC0000590002006900790089009904FF48060C0
:103AD0000A9005200B9040F2E3100D90C01E0E904E
:103AE0004FF4A0700F904FF05040E04C0C9069469E
:103AF0002046FEF7E6FBDE490C914FF4C0610A91C7
:103B0000DA4D07210B91803569462846FEF7D9FB2F
:103B10000120FEF7D2FB01212046FEF733FC0121F4
:103B20002846FEF72FFC0120FEF7C7FB0120FEF719
:103B30009CFB0120FEF78DFBFF212046FEF7C2FC17
:103B400000212846FEF7BEFC0120FEF7B6FB11B0AF
:103B500030BD00B501218FB08806FCF72AFD012198
:103B6000C805FCF7FEFC0020029003900090019035
:103B70000C900D900E9004220721C020FCF714FC3D
:103B80004FF48030FCF7E1FC0120FCF716FC3D20EF
:103B9000FCF7A4FB0028FAD009200490012005902E
:103BA0001D2006900320079040F20D10089040F26F
:103BB0004310099040F217100A9040F247100B9002
:103BC0006846FEF7E7FA0FB000BD70B505464FF442
:103BD0000051A848FCF76FFEA74C04212046FCF7D3
:103BE0006AFE2946A54801F0CCF92046BDE87040A0
:103BF0000421FCF75EBE01B5009801E0401E009074
:103C00000028FBD108BD70B505464FF40051994816
:103C1000FCF74FFE984C04212046FCF74CFE294649
:103C2000964801F0AEF92046BDE870400421FCF74B
:103C300040BE10B5CA20FFF7C8FFC320FFF7E3FF5F
:103C40000820FFF7E0FF5020FFF7DDFFCF20FFF750
:103C5000BCFF0020FFF7D7FFC120FFF7D4FF3020C3
:103C6000FFF7D1FFED20FFF7B0FF6420FFF7CBFF98
:103C70000320FFF7C8FF1220FFF7C5FF8120FFF7E1
:103C8000C2FFE820FFF7A1FF8520FFF7BCFF00205F
:103C9000FFF7B9FF7820FFF7B6FFCB20FFF795FFBE
:103CA0003920FFF7B0FF2C20FFF7ADFF0020FFF712
:103CB000AAFF3420FFF7A7FF0220FFF7A4FFF72099
:103CC000FFF783FF2020FFF79EFFEA20FFF77DFF2D
:103CD0000020FFF798FF0020FFF795FFB120FFF7C6
:103CE00074FF0020FFF78FFF1B20FFF78CFFB6202B
:103CF000FFF76BFF0A20FFF786FFA220FFF783FF85
:103D0000C020FFF762FF1020FFF77DFFC120FFF703
:103D10005CFF1020FFF777FFC520FFF756FF452017
:103D2000FFF771FF1520FFF76EFFC720FFF74DFF6C
:103D30009020FFF768FF3620FFF747FFC820FFF706
:103D400062FFF220FFF741FF0020FFF75CFFB02089
:103D5000FFF73BFFC220FFF756FFB620FFF735FF06
:103D60000A20FFF750FFA720FFF74DFF2720FFF79E
:103D70004AFF0420FFF747FF2A20FFF726FF002015
:103D8000FFF741FF0020FFF73EFF0020FFF73BFF5A
:103D9000EF20FFF738FF2B20FFF717FF0020FFF77A
:103DA00032FF0020FFF72FFF0120FFF72CFF3F20FD
:103DB000FFF729FFF620FFF708FF0120FFF723FF99
:103DC0000020FFF720FF0620FFF71DFF2C20FFF744
:103DD000FCFE2B4C2046FFF70EFF2620FFF7F5FEDA
:103DE0000120FFF710FFE020FFF7EFFE0F20FFF7A5
:103DF0000AFF2920FFF707FF2420FFF704FF0C200C
:103E0000FFF701FF0E20FFF7FEFE0920FFF7FBFE84
:103E10004E20FFF7F8FE7820FFF7F5FE3C20FFF775
:103E2000F2FE0920FFF7EFFE1320FFF7ECFE05205E
:103E3000FFF7E9FE1720FFF7E6FE1120FFF7E3FE8C
:103E40000020FFF7E0FEE120FFF7BFFE0020FFF7B4
:103E5000DAFE1620FFF7D7FE1B20FFF7D4FE042062
:103E6000FFF7D1FE11200DE014010020846801400D
:103E7000005802D0000C02400008024000500140EF
:103E800040420F00FFF7BFFE0720FFF7BCFE3120C6
:103E9000FFF7B9FE3320FFF7B6FE4220FFF7B3FE6F
:103EA0000520FFF7B0FE0C20FFF7ADFE0A20FFF75C
:103EB000AAFE2820FFF7A7FE2F20FFF7A4FE0F2061
:103EC000FFF7A1FE1120FFF780FE2046FFF793FECB
:103ED0002920FFF77AFEBDE810402C2075E62DE979
:103EE000FC4701216F20FCF73CFB03208DF8050007
:103EF00001258DF8045000246803DFF810A48DF824
:103F0000064000908DF8074069465046FCF76CFC6F
:103F10000420FF4E009069463046FCF765FC2803FC
:103F200000908DF8075069465046FCF75DFCF94D4E
:103F30000E2203212846FCF7CBFC0E220421284642
:103F4000FCF7C6FC0E2206212846FCF7C1FC0E2217
:103F50000B212846FCF7BCFC0E220C212846FCF75E
:103F6000B7FCED4F092200213846FCF7B1FC0922CD
:103F700001213846FCF7ACFC0E2208213846FCF73C
:103F8000A7FC0E2209213846FCF7A2FC0E220A21CA
:103F90003846FCF79DFC0E220B213846FCF798FCB6
:103FA0000E2206213046FCF793FC0E2207213046F4
:103FB000FCF78EFC0E220A213046FCF789FC0E220B
:103FC00003215046FCF784FC0E2206215046FCF7E4
:103FD0007FFCDFF848830E220A214046FCF778FC7C
:103FE000DFF83C930E2206214846FCF771FC0E22B6
:103FF00007214846FCF76CFC09220A214846FCF7D9
:1040000067FC0E220B214846FCF762FC09220C21BA
:104010004846FCF75DFC02208DF8040041F658008C
:1040200000908DF8074069462846FCF7DDFB40F616
:104030000370009069463846FCF7D6FB4FF4986051
:10404000009069463046FCF7CFFB48200090694657
:104050005046FCF7C9FB2815009069464046FCF71E
:10406000C3FB4FF4E650009069464846FCF7BCFBA2
:10407000BDE8FC8710B5FFF732FF0421A448FCF728
:1040800018FC0021A74800F05DFF00F0FAFBFFF7E5
:10409000D0FDFFF75EFDFFF704FDA3480021F022ED
:1040A00041800180A14802804FF4A0724280012229
:1040B000027181734171FF22816002734173FFF7C6
:1040C000D5FC4FF6FF742046FFF7D5FCFFF7E2FC66
:1040D0002046FFF7D0FCBDE81040C7E470B5934B15
:1040E0001D8885421DD95C888C421AD99C7B9B68AF
:1040F0004FF050465CB1012C0ED0022C12D0C1F111
:10410000EF0189B2C0EB001001EB001006E0C0F532
:10411000963005FB110001E005FB010006EB4000B5
:104120001A5270BDA0F23F10404280B2EAE77F49C8
:10413000F0224FF4A073887330B1012804D00B80B3
:104140004A800020087170470A804B800120F9E7FF
:1041500010B5764C7648217BFEF7B4F97448617B44
:104160008030FEF7AFF9BDE810400120FEF7A5B89A
:104170006E490873ECE76D494873E9E76B4810B581
:10418000407940B1FFF772FCFF20FFF7F1FF0020FC
:10419000BDE81040EFE7FFF77DFC0020FFF7E8FFE8
:1041A000FF20F5E710B5634A00204FF49633410035
:1041B0008C18A1F14051B4F80048401C0C80984282
:1041C000F5D310BD10B55B4A00204FF49634410082
:1041D000A1F1405311441B88401CA1F80038A042B3
:1041E000F5D310BD2DE9F047DFF83CC1DDE908A9A2
:1041F000ACF800009046ACF802101A781E46104445
:104200004A4A1288904206D970780844ACF80200F5
:104210000020ACF8000000251EE0A8F1200111FBF1
:1042200000507268002432F8107011E007FA04F0B0
:104230000004BCF80200284481B2BCF8000020440D
:1042400080B201D5524600E04A46FFF747FF641CA2
:104250003078A042EAD86D1C7078A842DDD830785A
:10426000BCF800100844ACF80000BDE8F0872DE968
:10427000FC432D4DDDE9099828801F46144606466B
:1042800069800BE00A2A0ED00D2A15D0CDE90098DE
:104290003B4669882888641CFFF7A4FF2278002A1F
:1042A000F0D1BDE8FC8368887978401C08446880B8
:1042B00060780D2802D02E80641CEFE70020288053
:1042C000641CF9E730B54D7800241D8002E00B78BE
:1042D00023449CB210F8013B002BF8D1148030BD70
:1042E0002DE9F84F9446114A0C46054611881F46A1
:1042F000481EA94200D885B2614501D81FFA80FC4A
:104300005188481EA14200D884B215E0000C02403A
:104310000008024000000240000402400014024075
:104320000018024000500140FC0000201401002051
:1043300084680140005002D0B94200D887B2654578
:1043400002D2ACEB050001E0A5EB0C000FFA80F9FE
:10435000BC4201D2381B00E0E01B0FFA80F84FF09E
:10436000FF30654501D2012100E001460091BC42C9
:1043700000D2012083464846C14501DCC8F1000057
:1043800000EBD070401006B2C9F1000A2146284661
:104390000A9AFFF7A3FE654501D1BC4211D0304611
:1043A000564505DDA0EB08010EB2009929448DB2F7
:1043B0004045EBDA06EB090006B204EB0B0084B2D1
:1043C000E4E7BDE8F88F2DE9F8411D46079C164645
:1043D0000F4680460B460094FFF782FF42462B466D
:1043E000394610460094FFF77BFF32462B4639468C
:1043F00010460094FFF774FF2B463246194640469C
:104400000094FFF76DFFBDE8F8812DE9F8411D46E6
:1044100017460C468046079E08E023463A46194652
:1044200040460096FFF75CFF641CA4B2AC42F4D394
:10443000E9E72DE9FF4F0746C2F1010014460FFAE4
:1044400080FCC2EBC43040000FFA80F881B00E4609
:10445000081981B24FF001090025B8B2049AFFF79C
:104460003DFE301B81B2B8B2049AFFF737FE38190F
:10447000B1B280B2049AFFF731FE381BB1B280B2FC
:1044800059E0BCF1000F09DB08F102000FFA80F8D7
:10449000641E0CEB080024B20FFA80FC09F1020044
:1044A0000FFA80F96D1C0CEB09002DB20FFA80FC9D
:1044B000781906EB040A00901FFA8AF180B2049A78
:1044C000FFF70CFEA7EB050B1FFA8AF11FFA8BF022
:1044D000049AFFF703FE0098A6EB040A1FFA8AF17C
:1044E00080B2049AFFF7FAFD1FFA8AF11FFA8BF0E7
:1044F000049AFFF7F3FD381906EB050A00901FFA3E
:104500008AF180B2049AFFF7E9FDA7EB040B1FFACA
:104510008AF11FFA8BF0049AFFF7E0FD0098A6EBF2
:10452000050A1FFA8AF180B2049AFFF7D7FD1FFA35
:104530008AF11FFA8BF0049AFFF7D0FDA542A0DBA9
:1045400005B0BDE8F08F2DE9FE4F0746C2F101002E
:1045500014460FFA80F8C2EBC43040000FFA80FA1C
:104560000E46081981B299464FF0010B0025B8B2EA
:104570001A46FFF7B3FD301B81B2B8B24A46FFF7C7
:10458000ADFD38190190B1B280B24A46FFF7A6FDE1
:10459000A7EB040CB1B21FFA8CF04A46FFF79EFD60
:1045A0000198B3B282B2CDF80090B1B21FFA8CF08C
:1045B00042E0B8F1000F09DB0AF102000FFA80FABD
:1045C000641E08EB0A0024B20FFA80F80BF1020017
:1045D0000FFA80FB6D1C08EB0B002DB20FFA80F870
:1045E000781982B20290781BCDE9009031198BB214
:1045F00089B280B2FFF774FE0198311B82B2029833
:104600008BB2CDF8009089B280B2FFF769FE381BFB
:1046100082B202903819CDE9009071198BB289B23B
:1046200080B2FFF75DFE0298711B82B201988BB2D7
:10463000CDF8009089B280B2FFF752FEA542B8DBF8
:10464000BDE8FE8FA0F1405000787047B0F5000F34
:1046500001D300207047A0F1405001700120704745
:104660001CB502208DF8040000208DF806008DF89E
:10467000070003208DF8050001210220FBF771FFE0
:10468000D54C0C2205212046FCF722F90C220621EC
:104690002046FCF71DF96021009169462046FCF791
:1046A000A3F801210420FBF75CFFCC4C0C22002175
:1046B0002046FCF70DF90121009169462046FCF7E0
:1046C00093F801210820FBF74CFFC54C0C22002178
:1046D0002046FCF7FDF80C2201212046FCF7F8F8F3
:1046E0000C2208212046FCF7F3F80C220921204671
:1046F000FCF7EEF80C220A212046FCF7E9F80C2220
:104700000E212046FCF7E4F80C220F212046FCF78E
:10471000DFF84CF20371009169462046FCF764F81B
:1047200001211020FBF71DFFAE4C0C22002120467A
:10473000FCF7CEF80C2201212046FCF7C9F80C2228
:1047400007212046FCF7C4F80C2208212046FCF77C
:10475000BFF80C2209212046FCF7BAF80C220A21E6
:104760002046FCF7B5F80C220B212046FCF7B0F8E8
:104770000C2211462046FCF7ABF80C220D212046F6
:10478000FCF7A6F80C220E212046FCF7A1F80C221B
:104790000F212046FCF79CF84FF683710091694683
:1047A0002046FCF721F801212020FBF7DAFE8E4C91
:1047B0000C2200212046FCF78BF80C220121204618
:1047C000FCF786F80C2202212046FCF781F80C2227
:1047D00003212046FCF77CF80C2204212046FCF73C
:1047E00077F80C2205212046FCF772F80C220B21E9
:1047F0002046FCF76DF80C2211462046FCF768F8BD
:104800000C220D212046FCF763F80C220E212046D5
:10481000FCF75EF80C220F212046FCF759F84FF602
:104820003F01009169462046FBF7DEFF0121402051
:10483000FBF797FE6D4C0C2200212046FCF748F850
:104840000C2201212046FCF743F80C2204212046CB
:10485000FCF73EF80C2205212046FCF739F80C2223
:1048600008212046FCF734F80C220F212046FCF7E3
:104870002FF848F23311009169462046FBF7B4FF48
:104880001CBD2DE9F0474FF6FF7996B04C46FFF777
:10489000E7FE01210846FBF778FE4FF002084FF0D3
:1048A000040A0FAB40460721524683E80700CDE9D2
:1048B00012181020CDF85480CDE906A0CDF8508014
:1048C000012600254020CDE9046508904FF4C07012
:1048D000CDE90905F002CDE90B0580000D900FA888
:1048E0000E9004A8FDF7C6FACDE902650827CDE9C8
:1048F000006720210120FDF7C2FB08B1641EF8D239
:104900006846FDF749FBCDE90087A846CDE9026876
:104910004D464C4620210120FDF7B1FB08B1641E35
:10492000F8D26846FDF738FB0320CDE90007CDE952
:1049300002782C4620210120FDF7A1FB08B1641E5E
:10494000F8D26846FDF728FB40F23120CDE902603D
:10495000CDE900A72C4620210120FDF790FB08B1EE
:10496000641EF8D26846FDF717FB4FF42A70FDF776
:1049700031FB20210120FDF782FB08B16D1EF8D22A
:1049800010215020FFF762FE19480078102803D04C
:10499000002016B0BDE8F0870120FAE7154A9042E2
:1049A00001D900207047A0F14050018001207047DC
:1049B000A0F14050008870470E4A921E904201D9E3
:1049C00000207047A0F14050016001207047A0F125
:1049D0004050006870470000000402400008024098
:1049E000000C024000100240001402400018024077
:1049F000500000D0FEFF7F0030B587B0012140207D
:104A0000FBF7AFFD00248DF81A408DF81B40032002
:104A10008DF8190002208DF818004FF4E040FF4D8A
:104A2000059005A92846FBF7DFFE05220D21284643
:104A3000FBF74EFF05220C212846FBF749FF052214
:104A40000E212846FBF744FF01214805FBF7B1FD85
:104A50006846FDF77EFE2020ADF80C00ADF8004062
:104A6000ADF804404FF48270ADF80E40ADF802008E
:104A7000ADF80640ADF808406815E94CADF80A00FD
:104A800069462046FDF7E6FD01212046FDF776FE4A
:104A900007B030BD30B587B000248DF81A408DF8CE
:104AA0001B4003218DF819100221DE4D8DF81810DE
:104AB00010B1012818D03CE001212020FBF751FD66
:104AC0004FF46070059005A92846FBF78DFE05227E
:104AD00007212846FBF7FCFE052208212846FBF7A4
:104AE000F7FE0522092121E001212020FBF739FDF5
:104AF00001218020FBF735FDC020059005A928463F
:104B0000FBF772FE4FF40061059105A92846FBF7FB
:104B10006BFE05220B212846FBF7DAFEC24D05226B
:104B200006212846FBF7D4FE052207212846FBF77D
:104B3000CFFE01210805FBF73CFD6846FDF709FEA5
:104B40002020ADF80C00ADF80040ADF804404FF463
:104B50008270ADF80E40ADF80200ADF80640ADF839
:104B600008404FF40070B14CADF80A006946204689
:104B7000FDF770FD01212046FDF700FE88E730B506
:104B800087B000248DF81A408DF81B4003218DF862
:104B900019100221A64D8DF8181010B1012817D058
:104BA00030E001211020FBF7DCFC6420059005A912
:104BB0002846FBF719FE052202212846FBF788FE4E
:104BC000052211462846FBF783FE0522062116E042
:104BD00001211020FBF7C5FC4FF4E040059005A92A
:104BE0002846FBF701FE05220C212846FBF770FE44
:104BF00005220D212846FBF76BFE05220E212846D3
:104C0000FBF766FE01214803FBF7D3FC6846FDF77E
:104C1000A0FD2020ADF80C00ADF80040ADF8044038
:104C20004FF48270ADF80E40ADF80200ADF80640CA
:104C3000ADF808404FF400707E4CADF80A006946AC
:104C40002046FDF707FD01212046FDF797FD1FE7F0
:104C500030B587B000248DF81A408DF81B40032131
:104C60008DF8191002218DF8181010B1012818D0F4
:104C700032E001210220FBF774FC38206E4D0590D4
:104C800005A92846FBF7B0FD062203212846FBF7BD
:104C90001FFE062204212846FBF71AFE06220521E4
:104CA00017E001210420FBF75CFC4FF4E050634D5A
:104CB000059005A92846FBF797FD06220A212846FC
:104CC000FBF706FE06220B212846FBF701FE062213
:104CD0000C212846FBF7FCFD0121C803FBF75FFC14
:104CE0006846FDF736FD2020ADF80C00ADF8004019
:104CF000ADF804404FF48270ADF80E40ADF80200FC
:104D0000ADF80640ADF808404FF400704C4CADF8DB
:104D10000A0069462046FDF79DFC01212046FDF76B
:104D20002DFDB5E670B588B000248DF80640012150
:104D30008DF8071003218DF8051002213E4D8DF8E6
:104D4000041020B1012824D002283AD053E00121D8
:104D50000220FBF706FC01210420FBF702FC0C20DB
:104D6000364E009069463046FBF73EFD3015009008
:104D700069462846FBF738FD052202213046FBF73D
:104D8000A7FD052203213046FBF7A2FD05220A21DB
:104D90002EE001210220FBF7E4FB4FF4604000907D
:104DA00069462846FBF720FD05220D212846FBF722
:104DB0008FFD05220E212846FBF78AFD05220F21D3
:104DC00016E001210802FBF7CCFB0D20009069469C
:104DD0002846FBF709FD1B4D052200212846FBF75D
:104DE00077FD052202212846FBF772FD05220321EB
:104DF0002846FBF76DFD01218803FBF7D0FB02A8D5
:104E0000FDF7A7FC2020ADF81400ADF80C40ADF87C
:104E10000840ADF816404FF4827015E000180240CB
:104E20000054014000140240001C024000500140A8
:104E3000001002400034014000040240000802401B
:104E4000003C004000200240ADF80A00ADF80E40E2
:104E5000ADF810404FF40070984CADF8120002A964
:104E60002046FDF7F7FB01212046FDF787FC08B03F
:104E700070BD30B587B000248DF81A408DF81B4006
:104E800003218DF8191002218DF8181010B1012896
:104E900018D031E001210846FBF763FBE020884D84
:104EA000059005A92846FBF79FFC052211462846D8
:104EB000FBF70EFD052206212846FBF709FD05221A
:104EC000072116E001210220FBF74BFB38207D4D26
:104ED000059005A92846FBF787FC052203212846F3
:104EE000FBF7F6FC052204212846FBF7F1FC05221E
:104EF00011462846FBF7ECFC01210803FBF759FBA0
:104F00006846FDF726FC2020ADF80C00ADF8004007
:104F1000ADF804404FF48270ADF80E40ADF80200D9
:104F2000ADF80640ADF808404FF40070664CADF89F
:104F30000A0069462046FDF78DFB01212046FDF75A
:104F40001DFCA5E5604A904201D1084691E75B4A05
:104F5000904201D10846E5E65C4A904201D10846FC
:104F600076E65B4A904201D1084608E6594A9042EB
:104F700001D108468EE5584A904201D108463BE5EA
:104F8000704710B50446818102212046FDF789FC57
:104F90000028F9D001212046FDF783FC0028F9D034
:104FA00080212046FDF77DFC0028F9D1A089C0B200
:104FB00010BD2DE9F0411D4616460F4680460024DF
:104FC00006E0395D4046FFF7DCFF3055641CA4B2B3
:104FD000AC42F6D3BDE8F0812DE9F04115460E460E
:104FE0000746002405E0315D3846FFF7CAFF641C20
:104FF000A4B2AC42F7D3EDE72DE9F0411D461746C8
:105000000E468046002406E039464046FFF7B9FFC9
:105010003055641CA4B2AC42F6D3DBE710B50446AD
:10502000818102212046FDF73CFC0028F9D00121B6
:105030002046FDF736FC0028F9D080212046FDF7F8
:1050400030FC0028F9D1A08910BD2DE9F0411D46A2
:1050500016460F468046002408E037F814104046F4
:10506000FFF7DCFF26F81400641CA4B2AC42F4D3B2
:10507000B0E72DE9F04115460E460746002406E04C
:1050800036F814103846FFF7C9FF641CA4B2AC42CE
:10509000F6D39FE72DE9F0411D4617460E468046A0
:1050A000002407E039464046FFF7B8FF26F8140011
:1050B000641CA4B2AC42F5D38CE700000038004079
:1050C000000002400004024000300140003C00406B
:1050D0000034014000500140005401407FB50446B7
:1050E0000D466846FBF7A8F94FF6FF70A860B4F1CB
:1050F000804F02D0A1498C4205D1039828604FF01F
:10510000FF30686028E09E498C420BD09D498C425C
:1051100008D09D498C4205D09C498C4202D09C49C4
:105120008C4201D1019915E09A498C4211D09A49DB
:105130008C420ED099498C420BD099498C4208D0B0
:1051400098498C4205D098498C4202D097498C42AC
:1051500005D10399C5E90010002004B070BD0220FC
:10516000FBE72DE9F04704462DED028BB0EE408AB7
:10517000F0EE608A0025006800F017FD53EC182B54
:1051800000F026FD07D22561E56003206561BDECD6
:10519000028BBDE8F0879FED860B51EC180B53ECAA
:1051A000102B00F099FC03D12561E560656124E0D6
:1051B0006068B0F5803F01D2401C60602561D4E991
:1051C00001862768A946761C6D1CB7FBF5F000F038
:1051D000ECFC53EC182B00F027FB00F0B9FCC4E901
:1051E0000305404501D9B542EED9B54207D9C4F807
:1051F0001090C4F80C90C4F814900420C7E751EC48
:10520000180B00F0A5FC60610020C0E75C4910B5F8
:10521000884202D1012108463AE0B0F1804F05D022
:105220005C49884205D10121022045E00121084660
:1052300042E05949884202D1012104203CE04F4913
:10524000884202D10121082036E05449884202D127
:105250000121102030E05249884202D10121202052
:105260002AE04849884202D10121022010E0464943
:10527000884202D1012108040AE04449884202D14F
:105280000121480404E04249884204D101218804F4
:10529000FBF78FF912E04349884202D101214020F7
:1052A0000AE04149884202D10121802004E03F49BF
:1052B000884203D101218015FBF771F9002010BD50
:1052C0002F4910B5884202D1002101203DE0B0F104
:1052D000804F05D02F49884205D10021022048E0A7
:1052E0000021012045E02C49884202D10021042000
:1052F0003FE02249884202D10021082039E02749B5
:10530000884202D10021102033E02549884202D191
:10531000002120202DE01B49884202D100210220DB
:1053200013E01949884203D100214FF480300CE08A
:105330001649884203D100214FF4003005E014499A
:10534000884205D100214FF48020FBF732F912E0AA
:105350001449884202D1002140200AE012498842C3
:1053600002D10021802004E01049884203D10021AD
:105370008015FBF714F9002010BD0000000C004060
:105380000000014000040140004001400044014091
:1053900000480140000400400008004000100040A8
:1053A0000014004000180040001C00400020004095
:1053B000000000000000000000EE903A2DE9F843E4
:1053C000B8EE601A16460C460546C0EE010A00EE1D
:1053D000106ADDE90808B8EE400A20EE800ABCEE4B
:1053E000C00A10EE101A89B2B14206D10090A4EBA7
:1053F000010083B22A4621460FE011D2A4EB010737
:105400002A460090BBB221461046FEF769FFA01B5A
:1054100083B2B9B22A46CDF800801046FEF760FF8D
:10542000BDE8F8832DED048B8AB000F04AF9FEF751
:105430007EFAFEF7C7FAFEF71DFE0220FEF777FEA2
:1054400053490120FEF71EF99FED520B0021012068
:10545000FEF71FFADFF8449100214846FEF76DF889
:105460004BF223710020CDE900010A214C4B4DA2E3
:105470000846FEF7FCFEDFF858A14FF4005B00245D
:105480004F469FED548ADFED548A544D9FED549A58
:105490004FF40076FEF76FFA1628FBD30020FEF7D4
:1054A00070FA00213846FEF79DF800EE100A05EB71
:1054B0008400B8EE400A30EE480A20EE280A80ED5B
:1054C000000A601C80B205EB8000A41CA4B280ED31
:1054D000009AB442DED301231C020022214602A816
:1054E000FDF74CFD3D4902A8FDF72AFD224638494B
:1054F0003A48FDF79BFD08AB07AA21463448FDF763
:10550000FDFD00244FF6FF7641F234274FF01E08D0
:105510005546CDE90076DDED070A05EB84007822DB
:10552000FCEEE00A90ED000ADC2110EE900A83B256
:1055300008EB440080B2FFF73FFF641CA4B2802C4C
:10554000E7D395ED010AD5ED020A264930EE200A8F
:10555000D5ED030A30EE200AD5ED040A30EE200A1C
:10556000D5ED050A30EE200AD5ED060A30EE200A08
:10557000D5ED070A30EE200A10EE100A8842584690
:1055800002DDFEF74DFA7AE7FEF74EFA77E7000004
:1055900000080040000000000088C34000200140D7
:1055A000F4000020464654206772617068696320E9
:1055B0006571756C697A65720A73746D333266341D
:1055C0002D646973636F766572792E636F6D000069
:1055D00024090020000000450000003A24010020BA
:1055E000000000000000F0427047FEE7FEE7FEE723
:1055F000FEE7704770477047704710B5FEF787F9B0
:1056000010BD00001CB500215B4A0091019110689B
:1056100040F4803010604FF4A043106800F4003074
:1056200001900098401C0090019810B90098984291
:10563000F3D11068800342D5012001904E484030DC
:10564000016841F0805101604C49086840F44040D5
:1056500008604948083003680360036843F4004366
:105660000360036843F4A0530360041F444B2360AA
:10567000136843F08073136013689B01FCD50A68BC
:1056800042F480320A604A68D203FCD50A6842F4C8
:1056900000320A604A689203FCD53A4A40F205712A
:1056A0001160016821F003010160016841F002010D
:1056B00001600168C1F381010229FAD11CBD019189
:1056C0001CBD314810B5016841F4700101602A48E1
:1056D000016841F001010160274A00210832116090
:1056E00002682A4B1A400260031D294A1A600268A8
:1056F00022F48022026020480C300160FFF782FF14
:1057000021494FF000608039086010BD70B51A4D16
:10571000083528681F4B204910F00C0004D05E109B
:10572000042803D0082803D00B601BE00E6019E0AA
:10573000114A121D1068C0F38054106800F03F0039
:1057400014B1B6FBF0F001E0B3FBF0F0136812689F
:10575000C3F388135843C2F30142521C5200B0FBFA
:10576000F2F0086028680C4AC0F30310121D105CA8
:105770000A68C2400A6070BD0038024000700040F4
:10578000085A4007003C024088ED00E0FFFFF6FEAB
:10579000103000240024F4000001002070477047FE
:1057A0007047754600F028F8AE4605006946534636
:1057B00020F00700854618B020B5FAF755FDBDE882
:1057C00020404FF000064FF000074FF000084FF068
:1057D000000B21F00701AC46ACE8C009ACE8C009F9
:1057E000ACE8C009ACE8C0098D4670470446AFF389
:1057F00000802046FAF723FD00487047240D002062
:1058000001491820ABBEFEE7260002007047491090
:1058100058BFC1F140415B1058BFC3F140438B42B8
:10582000EFF30080704700002DE9C04130B4DFF88D
:10583000A0C23CEA111418BF3CEA131400F0EC803B
:1058400081EA03051CEA111444EAD57418BF1CEA66
:10585000131500F0C780A4EB05044FF0004545EA9E
:10586000C12145EAC32341EA505143EA525304F1AE
:105870007F74994204F500344FEAC0204FEAC222F7
:1058800008BF904200F09C804FEA13650FF240166B
:10589000765D4FEA134506FB05F7C7F1807706FBF7
:1058A00007F74FEAD737A7FB03687642C8F5803879
:1058B000A7FB06CE38BFA8F1010807FB08E64FF0AA
:1058C000000EA6FB028CE6FB03CEDCF1000CCEF151
:1058D000004E38BFAEF1010EA6FB0C584FF000078A
:1058E0004FF00005E6FB0E87A1FB08C6A0FB07CE24
:1058F00016EB0E0645F10005E1FB076515F1E04EDC
:105900007EBFA4F580345FEA46066D4116F180073C
:1059100045F100054FEA17274FEA066647EA056793
:10592000A6F1DE46B6F1805F4FEA15251FD938464D
:1059300024F0010C05EBC471BCF1FE6F01EB0C11FE
:1059400002D8F0BCBDE8008124425CBF01F5801E96
:105950009EEAC47F02D4F0BCBDE80081244238D462
:10596000F0BCA1F1C041BDE8004100F065BA4FEACA
:10597000D22242EA43524FEAD323A7FB02864FEAE0
:10598000D02040EA415007FB03661EEA0E0F4FEAA3
:10599000D12105FB026658BFA6EB0056B6EB0056B8
:1059A0004FEA520E4EEAC37E18EB0E0E56EB530E24
:1059B000BDD518EB02085E417F1C55F10005B6E726
:1059C0004FF480154FF000074FF000064FF000082D
:1059D000ADE7F0BC4FF0000001F1C04101F0004123
:1059E000BDE8008111EA0C1F0CEA131500D00CE091
:1059F00013EA0C1F00F025804FF00000F0BC81EA94
:105A0000030101F00041BDE80081F0BCBDE80041A8
:105A100081EA030100F010BAF0BCBDE8004170B5A6
:105A200000F0BCF9097EFC3E00F007B881EA0301F2
:105A30004FF0000001F00041704781EA030100F0DF
:105A4000FBB9F0BCBDE800414FF0000021497047B0
:105A5000FFFDFBF9F7F5F4F2F0EEEDEBE9E8E6E433
:105A6000E3E1E0DEDDDBDAD8D7D5D4D3D1D0CFCDBA
:105A7000CCCBCAC8C7C6C5C4C2C1C0BFBEBDBCBBF3
:105A8000BAB9B8B7B6B5B4B3B2B1B0AFAEADACABEE
:105A9000AAA9A8A8A7A6A5A4A3A3A2A1A09F9F9EC8
:105AA0009D9C9C9B9A99999897979695959493937A
:105AB000929191908F8F8E8E8D8C8C8B8B8A898911
:105AC0008888878786858584848383828281818094
:105AD0000000FF070000F87F51EA030C17D41CF503
:105AE000801F58BFBCF5801F00F10680994218BF87
:105AF000704708BF9042704707D711F5801F58BF05
:105B000013F5801F19D499427047894270471CF5DC
:105B1000801F08D5BCF5801FF7D58B4218BF704792
:105B200008BF824270474FF4001C1CEB410F38BF86
:105B30001CEB430F01D28B42704770B500F02EF979
:105B4000922449004FF000514FF08053FFF75FBEA1
:105B50004FEA1153A3F58063D3F11E03A8BFD3F11D
:105B6000200C08DB4FF0004242EAC12252EA5052B8
:105B700032FA03F0704709420BD4102BC4BF002047
:105B8000704703F5787CBCF1FF3F05D04FF0FF3044
:105B900070474FF00000704770B500F0FFF800BF8D
:105BA0004992248000207047F0E7B0FA80F310FAA1
:105BB00003F10AD0C3F11D0303F580634FEA41509E
:105BC0004FEA035202EBD12170474FF000007047BB
:105BD00051EA030C17D41CF5801F58BFBCF5801F79
:105BE00000F10680994218BF704708BF9042704785
:105BF00007D711F5801F58BF13F5801F19D499429C
:105C00007047894270471CF5801F08D5BCF5801F7E
:105C1000F7D58B4218BF704708BF824270474FF4D8
:105C2000001C1CEB410F38BF1CEB430F01D28B4211
:105C3000704770B500F0B2F8922449004FF000515F
:105C40004FF08053FFF7E3BDDFF848C170B51CEAA1
:105C5000111E1EBF1CEA13159EEA0C0F95EA0C0FCD
:105C600000F06F8081EA030423EA4C134EEAD47EED
:105C700021EA4C1141F4801143F48013AE44A1FB9E
:105C8000024CA0FB0365AEF17F7E361955EB0C0587
:105C9000A1FB034C4CF10003A0FB021C16EB0C060D
:105CA000654153F10003094218BF46F0010613F4A1
:105CB000007F0BD14FEA03314FEA0530340341EA4C
:105CC000155140EA16506FF003020AE04FEAC32173
:105CD0004FEAC520F40241EA555140EA56506FF0B0
:105CE000020202EB2E4201EB025585EACE710AD088
:105CF0005FEA440C18BF24F0004450F1000041F169
:105D0000000120EAD47040F2FE7C624500D270BDF2
:105D1000A84214BF4FF080444FF04044002E08BF0B
:105D20000024BEF1806FA8BFA1F1C041BDE8704062
:105D300080F282804FF0000001F1C04101F000418B
:105D400070479EEA0C0F0CEA131518BF95EA0C0F6A
:105D500006D04FF0000081EA030E0EF0004170BD46
:105D600000F01CF88900013E00F007B800F009B807
:105D70004FEA430C5FEA5C5C08D081EA030100F063
:105D80005BB84FEA410C5FEA5C5CF6D14FF0000073
:105D9000014970470000FF070000F87F0EF1020E76
:105DA0002EF0030E5EF8046B364205D4012A43EB55
:105DB000030515F5001F12D8012841EB010C1CF555
:105DC000001F0CD80ED14FEAD17C15F5001F0CEB4B
:105DD0004C0C0CF1020C08BF4CEBD37C04E04FF0F0
:105DE000080C01E04FEAD37C0CEB4C0526FA05F6D3
:105DF00006F00706B6F1040C06D20EEB860CBDE8E1
:105E000070404CF0010C6047DFE80CF0090B020217
:105E10004FF000414FF00000A1F5002170BD194680
:105E20001046012851EB010418BFD4F5001484BFBB
:105E3000002001F0004170BD0808A0F500114FEAF4
:105E4000310170474FF04070E1EE100A70470000DA
:105E50000F0000000F000000FF0000000F00000016
:105E60000F0000000F00000000000000000400020E
:105E70000006000100050003000780008004800286
:105E800080068001800580038007400040044002B6
:105E900040064001400540034007C000C004C00266
:105EA000C006C001C005C003C007200020042002B6
:105EB00020062001200520032007A000A004A00246
:105EC000A006A001A005A003A00760006004600276
:105ED00060066001600560036007E000E004E00226
:105EE000E006E001E005E003E00710001004100206
:105EF0001006100110051003100790009004900286
:105F000090069001900590039007500050045002B5
:105F100050065001500550035007D000D004D00265
:105F2000D006D001D005D003D007300030043002B5
:105F300030063001300530033007B000B004B00245
:105F4000B006B001B005B003B00770007004700275
:105F500070067001700570037007F000F004F00225
:105F6000F006F001F005F003F0070800080408024D
:105F70000806080108050803080788008804880245
:105F80008806880188058803880748004804480275
:105F900048064801480548034807C800C804C80225
:105FA000C806C801C805C803C80728002804280275
:105FB00028062801280528032807A800A804A80205
:105FC000A806A801A805A803A80768006804680235
:105FD00068066801680568036807E800E804E802E5
:105FE000E806E801E805E803E807180018041802C5
:105FF0001806180118051803180798009804980245
:106000009806980198059803980758005804580274
:1060100058065801580558035807D800D804D80224
:10602000D806D801D805D803D80738003804380274
:1060300038063801380538033807B800B804B80204
:10604000B806B801B805B803B80778007804780234
:1060500078067801780578037807F800F804F802E4
:10606000F806F801F805F803F80704000404040230
:106070000406040104050403040784008404840264
:106080008406840184058403840744004404440294
:1060900044064401440544034407C400C404C40244
:1060A000C406C401C405C403C40724002404240294
:1060B00024062401240524032407A400A404A40224
:1060C000A406A401A405A403A40764006404640254
:1060D00064066401640564036407E400E404E40204
:1060E000E406E401E405E403E407140014041402E4
:1060F0001406140114051403140794009404940264
:106100009406940194059403940754005404540293
:1061100054065401540554035407D400D404D40243
:10612000D406D401D405D403D40734003404340293
:1061300034063401340534033407B400B404B40223
:10614000B406B401B405B403B40774007404740253
:1061500074067401740574037407F400F404F40203
:10616000F406F401F405F403F4070C000C040C022B
:106170000C060C010C050C030C078C008C048C0223
:106180008C068C018C058C038C074C004C044C0253
:106190004C064C014C054C034C07CC00CC04CC0203
:1061A000CC06CC01CC05CC03CC072C002C042C0253
:1061B0002C062C012C052C032C07AC00AC04AC02E3
:1061C000AC06AC01AC05AC03AC076C006C046C0213
:1061D0006C066C016C056C036C07EC00EC04EC02C3
:1061E000EC06EC01EC05EC03EC071C001C041C02A3
:1061F0001C061C011C051C031C079C009C049C0223
:106200009C069C019C059C039C075C005C045C0252
:106210005C065C015C055C035C07DC00DC04DC0202
:10622000DC06DC01DC05DC03DC073C003C043C0252
:106230003C063C013C053C033C07BC00BC04BC02E2
:10624000BC06BC01BC05BC03BC077C007C047C0212
:106250007C067C017C057C037C07FC00FC04FC02C2
:10626000FC06FC01FC05FC03FC0702000204020220
:106270000206020102050203020782008204820272
:1062800082068201820582038207420042044202A2
:1062900042064201420542034207C200C204C20252
:1062A000C206C201C205C203C207220022042202A2
:1062B00022062201220522032207A200A204A20232
:1062C000A206A201A205A203A20762006204620262
:1062D00062066201620562036207E200E204E20212
:1062E000E206E201E205E203E207120012041202F2
:1062F0001206120112051203120792009204920272
:1063000092069201920592039207520052045202A1
:1063100052065201520552035207D200D204D20251
:10632000D206D201D205D203D207320032043202A1
:1063300032063201320532033207B200B204B20231
:10634000B206B201B205B203B20772007204720261
:1063500072067201720572037207F200F204F20211
:10636000F206F201F205F203F2070A000A040A0239
:106370000A060A010A050A030A078A008A048A0231
:106380008A068A018A058A038A074A004A044A0261
:106390004A064A014A054A034A07CA00CA04CA0211
:1063A000CA06CA01CA05CA03CA072A002A042A0261
:1063B0002A062A012A052A032A07AA00AA04AA02F1
:1063C000AA06AA01AA05AA03AA076A006A046A0221
:1063D0006A066A016A056A036A07EA00EA04EA02D1
:1063E000EA06EA01EA05EA03EA071A001A041A02B1
:1063F0001A061A011A051A031A079A009A049A0231
:106400009A069A019A059A039A075A005A045A0260
:106410005A065A015A055A035A07DA00DA04DA0210
:10642000DA06DA01DA05DA03DA073A003A043A0260
:106430003A063A013A053A033A07BA00BA04BA02F0
:10644000BA06BA01BA05BA03BA077A007A047A0220
:106450007A067A017A057A037A07FA00FA04FA02D0
:10646000FA06FA01FA05FA03FA070600060406021C
:106470000606060106050603060786008604860250
:106480008606860186058603860746004604460280
:1064900046064601460546034607C600C604C60230
:1064A000C606C601C605C603C60726002604260280
:1064B00026062601260526032607A600A604A60210
:1064C000A606A601A605A603A60766006604660240
:1064D00066066601660566036607E600E604E602F0
:1064E000E606E601E605E603E607160016041602D0
:1064F0001606160116051603160796009604960250
:10650000960696019605960396075600560456027F
:1065100056065601560556035607D600D604D6022F
:10652000D606D601D605D603D6073600360436027F
:1065300036063601360536033607B600B604B6020F
:10654000B606B601B605B603B6077600760476023F
:1065500076067601760576037607F600F604F602EF
:10656000F606F601F605F603F6070E000E040E0217
:106570000E060E010E050E030E078E008E048E020F
:106580008E068E018E058E038E074E004E044E023F
:106590004E064E014E054E034E07CE00CE04CE02EF
:1065A000CE06CE01CE05CE03CE072E002E042E023F
:1065B0002E062E012E052E032E07AE00AE04AE02CF
:1065C000AE06AE01AE05AE03AE076E006E046E02FF
:1065D0006E066E016E056E036E07EE00EE04EE02AF
:1065E000EE06EE01EE05EE03EE071E001E041E028F
:1065F0001E061E011E051E031E079E009E049E020F
:106600009E069E019E059E039E075E005E045E023E
:106610005E065E015E055E035E07DE00DE04DE02EE
:10662000DE06DE01DE05DE03DE073E003E043E023E
:106630003E063E013E053E033E07BE00BE04BE02CE
:10664000BE06BE01BE05BE03BE077E007E047E02FE
:106650007E067E017E057E037E07FE00FE04FE02AE
:10666000FE06FE01FE05FE03FE0701000000803F5E
:1066700000000000ECFF7F3FD40FC93AB1FF7F3F1D
:10668000C70F493B4EFF7F3FC1CB963BC4FE7F3FC8
:10669000890FC93B13FE7F3F3053FB3B39FD7F3FE2
:1066A00059CB163C39FC7F3F02ED2F3C11FB7F3F5D
:1066B000900E493CC1F97F3F0030623C4AF87F3F71
:1066C0004B517B3CACF67F3F38398A3CE6F47F3F48
:1066D000B6C9963CF8F27F3F1C5AA33CE3F07F3FDB
:1066E00069EAAF3CA7EE7F3F9B7ABC3C43EC7F3F1F
:1066F000B00AC93CB8E97F3FA69AD53C05E77F3F81
:106700007B2AE23C2BE47F3F2DBAEE3C29E17F3F20
:10671000B949FB3C00DE7F3F90EC033DAFDA7F3FA1
:106720002F340A3D37D77F3FB87B103D98D37F3F4A
:106730002CC3163DD1CF7F3F880A1D3DE2CB7F3F62
:10674000CC51233DCCC77F3FF698293D8FC37F3F77
:1067500007E02F3D2ABF7F3FFC26363D9EBA7F3F94
:10676000D56D3C3DEAB57F3F91B4423D0FB17F3FCF
:106770002FFB483D0DAC7F3FAF414F3DE3A67F3F30
:106780000E88553D91A17F3F4CCE5B3D189C7F3FCD
:106790006814623D78967F3F625A683DB1907F3FB2
:1067A00038A06E3DC28A7F3FE9E5743DAB847F3FF0
:1067B000742B7B3D6D7E7F3F6CB8803D08787F3FBA
:1067C0000ADB833D7B717F3F94FD863DC76A7F3F37
:1067D0000A208A3DEC637F3F6A428D3DE95C7F3F42
:1067E000B464903DBF557F3FE786933D6D4E7F3F3C
:1067F00005A9963DF4467F3F0ACB993D543F7F3F24
:10680000F9EC9C3D8D377F3FCF0EA03D9D2F7F3F04
:106810008C30A33D87277F3F3052A63D491F7F3FE5
:10682000BA73A93DE4167F3F2B95AC3D580E7F3FD0
:1068300080B6AF3DA4057F3FBBD7B23DC9FC7E3FCC
:10684000DAF8B53DC7F37E3FDD19B93D9DEA7E3FDD
:10685000C33ABC3D4CE17E3F8D5BBF3DD4D77E3F0C
:10686000397CC23D34CE7E3FC69CC53D6DC47E3F63
:1068700036BDC83D7FBA7E3F86DDCB3D69B07E3FE9
:10688000B7FDCE3D2DA67E3FC81DD23DC99B7E3FA4
:10689000B93DD53D3D917E3F895DD83D8B867E3F9C
:1068A000377DDB3DB17B7E3FC49CDE3DB0707E3FDB
:1068B0002EBCE13D88657E3F76DBE43D385A7E3F65
:1068C0009AFAE73DC14E7E3F9A19EB3D23437E3F46
:1068D0007638EE3D5E377E3F2E57F13D722B7E3F80
:1068E000C075F43D5E1F7E3F2C94F73D24137E3F20
:1068F00073B2FA3DC2067E3F92D0FD3D38FA7D3F2D
:106900004577003E88ED7D3F2E06023EB1E07D3F9B
:106910000295033EB2D37D3FC223053E8CC67D3F28
:106920006EB2063E40B97D3F0541083ECCAB7D3F8F
:1069300086CF093E309E7D3FF35D0B3E6E907D3FDE
:106940004AEC0C3E85827D3F8B7A0E3E74747D3F0F
:10695000B708103E3D667D3FCC96113EDE577D3F29
:10696000CA24133E59497D3FB2B2143EAC3A7D3F32
:106970008340163ED82B7D3F3DCE173EDD1C7D3F2C
:10698000E05B193EBC0D7D3F6BE91A3E73FE7C3F18
:10699000DE761C3E03EF7C3F38041E3E6CDF7C3FFE
:1069A0007B911F3EAECF7C3FA51E213EC9BF7C3FE1
:1069B000B6AB223EBDAF7C3FAD38243E8A9F7C3FC4
:1069C0008CC5253E318F7C3F5152273EB07E7C3FA7
:1069D000FCDE283E086E7C3F8D6B2A3E3A5D7C3F94
:1069E00004F82B3E444C7C3F61842D3E283B7C3F89
:1069F000A2102F3EE5297C3FC99C303E7A187C3F8F
:106A0000D428323EE9067C3FC4B4333E31F57B3FA7
:106A10009840353E53E37B3F50CC363E4DD17B3FD3
:106A2000EC57383E20BF7B3F6CE3393ECDAC7B3F1B
:106A3000CF6E3B3E539A7B3F15FA3C3EB2877B3F7D
:106A40003E853E3EEA747B3F4910403EFC617B3F01
:106A5000379B413EE74E7B3F0726433EAB3B7B3FA8
:106A6000B9B0443E48287B3F4D3B463EBE147B3F79
:106A7000C2C5473E0E017B3F1850493E37ED7A3F75
:106A80004FDA4A3E3AD97A3F67644C3E16C57A3FA0
:106A900060EE4D3ECBB07A3F38784F3E599C7A3FFE
:106AA000F101513EC1877A3F898B523E02737A3F92
:106AB0000115543E1C5E7A3F589E553E10497A3F60
:106AC0008F27573EDD337A3FA4B0583E841E7A3F6D
:106AD00097395A3E04097A3F6AC25B3E5EF3793FBA
:106AE0001A4B5D3E91DD793FA8D35E3E9DC7793F4D
:106AF000135C603E83B1793F5CE4613E439B793F28
:106B0000836C633EDC84793F86F4643E4E6E793F4D
:106B1000667C663E9A57793F2204683EC040793FC2
:106B2000BA8B693EBF29793F2F136B3E9812793F8C
:106B30007F9A6C3E4AFB783FAB216E3ED6E3783FAE
:106B4000B2A86F3E3BCC783F942F713E7BB4783F28
:106B500051B6723E939C783FE83C743E8684783F01
:106B60005AC3753E526C783FA649773EF853783F3A
:106B7000CCCF783E773B783FCB557A3ED122783FD9
:106B8000A4DB7B3E040A783F56617D3E10F1773FDF
:106B9000E1E67E3EF7D7773F2236803EB7BE773FAD
:106BA000C0F8803E51A5773F4ABB813EC58B773FF9
:106BB000C07D823E1372773F2240833E3A58773F32
:106BC0007002843E3C3E773FAAC4843E1724773F40
:106BD000CE86853ECC09773FDF48863E5BEF763F29
:106BE000DA0A873EC4D4763FC1CC873E07BA763FE7
:106BF000938E883E249F763F5050893E1B84763F7B
:106C0000F8118A3EEC68763F8AD38A3E974D763FEC
:106C100007958B3E1B32763F6E568C3E7A16763F3A
:106C2000C0178D3EB3FA753FFCD88D3EC6DE753F6A
:106C3000229A8E3EB3C2753F325B8F3E7BA6753F74
:106C40002C1C903E1C8A753F10DD903E976D753F61
:106C5000DD9D913EED50753F945E923E1D34753F33
:106C6000351F933E2717753FBFDF933E0BFA743FE6
:106C700031A0943EC9DC743F8D60953E62BF743F85
:106C8000D220963ED5A1743F00E1963E2284743F07
:106C900017A1973E4966743F1661983E4B48743F72
:106CA000FE20993E272A743FCEE0993EDD0B743FCB
:106CB00086A09A3E6EED733F27609B3ED9CE733F10
:106CC000AF1F9C3E1FB0733F20DF9C3E3F91733F40
:106CD000789E9D3E3972733FB85D9E3E0E53733F62
:106CE000DF1C9F3EBE33733FEEDB9F3E4714733F76
:106CF000E59AA03EACF4723FC259A13EEBD4723F7C
:106D00008718A23E04B5723F33D7A23EF894723F73
:106D1000C595A33EC774723F3F54A43E7054723F62
:106D20009F12A53EF433723FE5D0A53E5213723F49
:106D3000128FA63E8CF2713F254DA73E9FD1713F29
:106D40001F0BA83E8EB0713FFEC8A83E578F713F03
:106D5000C486A93EFB6D713F6F44AA3E7A4C713FD9
:106D60000102AB3ED42A713F77BFAB3E0809713FA9
:106D7000D47CAC3E17E7703F153AAD3E02C5703F7C
:106D80003CF7AD3EC6A2703F49B4AE3E6680703F50
:106D90003A71AF3EE15D703F102EB03E373B703F21
:106DA000CBEAB03E6718703F6BA7B13E73F56F3FFB
:106DB000EF63B23E5AD26F3F5820B33E1BAF6F3FD6
:106DC000A5DCB33EB88B6F3FD698B43E30686F3FBA
:106DD000EC54B53E83446F3FE610B63EB0206F3FA3
:106DE000C3CCB63EBAFC6E3F8488B73E9ED86E3F99
:106DF0002A44B83E5DB46E3FB2FFB83EF88F6E3F96
:106E00001EBBB93E6D6B6E3F6E76BA3EBE466E3FA0
:106E1000A031BB3EEB216E3FB6ECBB3EF2FC6D3FBA
:106E2000AFA7BC3ED5D76D3F8B62BD3E93B26D3FE1
:106E30004A1DBE3E2D8D6D3FEBD7BE3EA1676D3F17
:106E40006F92BF3EF2416D3FD54CC03E1D1C6D3F61
:106E50001E07C13E24F66C3F48C1C13E07D06C3FBF
:106E6000557BC23EC5A96C3F4435C33E5E836C3F33
:106E700015EFC33ED45C6C3FC8A8C43E24366C3FBB
:106E80005C62C53E500F6C3FD21BC63E58E86B3F5C
:106E900029D5C63E3BC16B3F628EC73EFB996B3F17
:106EA0007C47C83E95726B3F7700C93E0C4B6B3FE9
:106EB00053B9C93E5E236B3F1072CA3E8CFB6A3FDA
:106EC000AE2ACB3E95D36A3F2CE3CB3E7BAB6A3FE9
:106ED0008B9BCC3E3C836A3FCA53CD3ED95A6A3F16
:106EE000EA0BCE3E52326A3FEAC3CE3EA7096A3F62
:106EF000CA7BCF3ED7E0693F8A33D03EE4B7693FD3
:106F00002AEBD03ECC8E693FAAA2D13E9165693F63
:106F1000095AD23E323C693F4811D33EAE12693F16
:106F200067C8D33E07E9683F647FD43E3CBF683FF3
:106F30004136D53E4C95683FFDECD53E396B683FF8
:106F400099A3D63E0341683F135AD73EA816683F1F
:106F50006B10D83E2AEC673FA3C6D83E87C1673F77
:106F6000B97CD93EC196673FAD32DA3ED86B673FF8
:106F700080E8DA3ECA40673F319EDB3E9915673FA5
:106F8000C153DC3E45EA663F2E09DD3ECCBE663F7E
:106F900079BEDD3E3093663FA273DE3E7167663F89
:106FA000A928DF3E8E3B663F8DDDDF3E880F663FC2
:106FB0004F92E03E5EE3653FEE46E13E10B7653F2F
:106FC0006AFBE13EA08A653FC4AFE23E0B5E653FCF
:106FD000FA63E33E5431653F0E18E43E7904653FA1
:106FE000FECBE43E7BD7643FCB7FE53E59AA643FAE
:106FF0007533E63E147D643FFBE6E63EAC4F643FEE
:107000005D9AE73E2122643F9C4DE83E73F4633F66
:10701000B700E93EA1C6633FAEB3E93EAC98633F1B
:107020008166EA3E956A633F3019EB3E5A3C633F06
:10703000BBCBEB3EFC0D633F217EEC3E7BDF623F32
:107040006330ED3ED7B0623F80E2ED3E1082623F9A
:107050007994EE3E2653623F4C46EF3E1A24623F3F
:10706000FBF7EF3EEAF4613F85A9F03E98C5613F2A
:10707000EA5AF13E2296613F290CF23E8A66613F50
:1070800043BDF23ED036613F386EF33EF206613FBB
:10709000071FF43EF2D6603FB1CFF43ECFA6603F6B
:1070A0003580F53E8976603F9330F63E2146603F5D
:1070B000CBE0F63E9615603FDC90F73EE9E45F3F9B
:1070C000C840F83E19B45F3F8EF0F83E27835F3F1B
:1070D0002DA0F93E12525F3FA54FFA3EDB205F3FE5
:1070E000F7FEFA3E81EF5E3F22AEFB3E05BE5E3FFD
:1070F000275DFC3E678C5E3F040CFD3EA65A5E3F5A
:10710000BBBAFD3EC3285E3F4A69FE3EBEF65D3F08
:10711000B217FF3E97C45D3FF3C5FF3E4D925D3F02
:10712000063A003FE15F5D3FFF90003F532D5D3F1A
:10713000E4E7003FA3FA5C3FB53E013FD1C75C3FA7
:107140007395013FDD945C3F1CEC013FC7615C3FE0
:10715000B142023F8E2E5C3F3299023F34FB5B3FCF
:107160009FEF023FB8C75B3FF845033F1A945B3F70
:107170003D9C033F5A605B3F6DF2033F792C5B3FC0
:107180008948043F75F85A3F919E043F50C45A3FC6
:1071900084F4043F09905A3F624A053FA05B5A3F7E
:1071A0002CA0053F16275A3FE2F5053F6AF2593FEA
:1071B000824B063F9CBD593F0EA1063FAD88593F0B
:1071C00086F6063F9C53593FE84B073F6A1E593FDE
:1071D00036A1073F17E9583F6FF6073FA1B3583F65
:1071E000924B083F0B7E583FA1A0083F5348583FA1
:1071F0009BF5083F7912583F7F4A093F7FDC573F94
:107200004E9F093F63A6573F09F4093F2670573F39
:10721000AD480A3FC739573F3D9D0A3F4803573F96
:10722000B7F10A3FA7CC563F1C460B3FE595563FAA
:107230006B9A0B3F025F563FA5EE0B3FFE27563F72
:10724000C9420C3FD9F0553FD7960C3F93B9553FF3
:10725000D0EA0C3F2C82553FB33E0D3FA44A553F28
:1072600081920D3FFB12553F38E60D3F31DB543F15
:10727000DA390E3F47A3543F658D0E3F3B6B543FB9
:10728000DBE00E3F0F33543F3B340F3FC3FA533F15
:1072900084870F3F55C2533FB8DA0F3FC789533F2A
:1072A000D52D103F1851533FDC80103F4918533FF4
:1072B000CDD3103F59DF523FA726113F49A6523F79
:1072C0006B79113F186D523F19CC113FC633523FB5
:1072D000B01E123F54FA513F3071123FC2C0513FAD
:1072E0009AC3123F1087513FEE15133F3D4D513F5A
:1072F0002A68133F4A13513F50BA133F37D9503FC2
:107300005F0C143F039F503F585E143FAF64503FE3
:1073100039B0143F3B2A503F0402153FA8EF4F3FBE
:10732000B753153FF4B44F3F54A5153F1F7A4F3F55
:10733000D9F6153F2B3F4F3F4748163F17044F3FA5
:107340009F99163FE4C84E3FDFEA163F908D4E3FAF
:10735000073C173F1C524E3F188D173F89164E3F72
:1073600012DE173FD5DA4D3FF52E183F029F4D3FF5
:10737000C07F183F10634D3F73D0183FFD264D3F2F
:107380000F21193FCBEA4C3F9471193F79AE4C3F26
:1073900000C2193F08724C3F55121A3F78354C3FD6
:1073A00093621A3FC7F84B3FB8B21A3FF8BB4B3F46
:1073B000C6021B3F097F4B3FBB521B3FFA414B3F6D
:1073C00099A21B3FCC044B3F5FF21B3F7FC74A3F54
:1073D0000C421C3F138A4A3FA2911C3F874C4A3FF4
:1073E0001FE11C3FDC0E4A3F84301D3F12D1493F54
:1073F000D17F1D3F2993493F06CF1D3F2155493F6E
:10740000221E1E3FFA16493F266D1E3FB3D8483F45
:1074100012BC1E3F4E9A483FE50A1F3FCA5B483FD9
:107420009F591F3F271D483F41A81F3F65DE473F2B
:10743000CBF61F3F849F473F3B45203F8560473F3A
:107440009393203F6721473FD2E1203F2AE2463F06
:10745000F92F213FCEA2463F067E213F5463463F8F
:10746000FBCB213FBB23463FD719223F03E4453FD7
:107470009967223F2DA4453F43B5223F3964453FDC
:10748000D302233F2624453F4B50233FF5E3443F9F
:10749000A99D233FA5A3443FEEEA233F3763443F22
:1074A0001A38243FAB22443F2C85243F00E2433F5F
:1074B00025D2243F38A1433F041F253F5160433F5D
:1074C000CB6B253F4C1F433F77B8253F29DE423F1A
:1074D0000A05263FE89C423F8451263F895B423F94
:1074E000E39D263F0B1A423F2AEA263F70D8413FD0
:1074F0005636273FB796413F6882273FE154413FC8
:1075000061CE273FEC12413F401A283FDAD0403F7E
:107510000566283FA98E403FB0B1283F5C4C403FF4
:1075200041FD283FF009403FB848293F67C73F3F2A
:107530001594293FC0843F3F57DF293FFC413F3F1F
:10754000802A2A3F1BFF3E3F8E752A3F1BBC3E3FD1
:1075500082C02A3FFF783E3F5B0B2B3FC5353E3F45
:107560001B562B3F6EF23D3FBFA02B3FF9AE3D3F78
:107570004AEB2B3F676B3D3FB9352C3FB8273D3F6A
:107580000F802C3FECE33C3F49CA2C3F03A03C3F1B
:1075900069142D3FFC5B3C3F6F5E2D3FD9173C3F8C
:1075A00059A82D3F98D33B3F29F22D3F3B8F3B3FBE
:1075B000DE3B2E3FC14A3B3F78852E3F29063B3FAD
:1075C000F7CE2E3F75C13A3F5B182F3FA47C3A3F60
:1075D000A5612F3FB7373A3FD3AA2F3FACF2393FCF
:1075E000E6F32F3F85AD393FDE3C303F4268393FFF
:1075F000BB85303FE122393F7CCE303F65DD383FEF
:107600002217313FCB97383FAD5F313F1652383F9D
:107610001DA8313F430C383F71F0313F55C6373F0D
:10762000AA38323F4A80373FC780323F233A373F3C
:10763000C9C8323FDFF3363FAF10333F7FAD363F2F
:107640007A58333F0467363F29A0333F6C20363FDA
:10765000BCE7333FB8D9353F342F343FE792353F4D
:107660008F76343FFB4B353FCFBD343FF304353F7E
:10767000F304353FCFBD343FFB4B353F8F76343F6E
:10768000E792353F342F343FB8D9353FBCE7333F1D
:107690006C20363F29A0333F0467363F7A58333F8A
:1076A0007FAD363FAF10333FDFF3363FC9C8323FBF
:1076B000233A373FC780323F4A80373FAA38323FAC
:1076C00055C6373F71F0313F430C383F1DA8313F5D
:1076D0001652383FAD5F313FCB97383F2217313FCD
:1076E00065DD383F7CCE303FE122393FBB85303FFE
:1076F0004268393FDE3C303F85AD393FE6F32F3FEE
:10770000ACF2393FD3AA2F3FB7373A3FA5612F3F9D
:10771000A47C3A3F5B182F3F75C13A3FF7CE2E3F0E
:1077200029063B3F78852E3FC14A3B3FDE3B2E3F3B
:107730003B8F3B3F29F22D3F98D33B3F59A82D3F2C
:10774000D9173C3F6F5E2D3FFC5B3C3F69142D3FDA
:1077500003A03C3F49CA2C3FECE33C3F0F802C3F49
:10776000B8273D3FB9352C3F676B3D3F4AEB2B3F78
:10777000F9AE3D3FBFA02B3F6EF23D3F1B562B3F66
:10778000C5353E3F5B0B2B3FFF783E3F82C02A3F13
:107790001BBC3E3F8E752A3F1BFF3E3F802A2A3F7F
:1077A000FC413F3F57DF293FC0843F3F1594293FAD
:1077B00067C73F3FB848293FF009403F41FD283F98
:1077C0005C4C403FB0B1283FA98E403F0566283F42
:1077D000DAD0403F401A283FEC12413F61CE273FAC
:1077E000E154413F6882273FB796413F5636273FD5
:1077F00070D8413F2AEA263F0B1A423FE39D263FBD
:10780000895B423F8451263FE89C423F0A05263F60
:1078100029DE423F77B8253F4C1F433FCB6B253FC6
:107820005160433F041F253F38A1433F25D2243FE9
:1078300000E2433F2C85243FAB22443F1A38243FCB
:107840003763443FEEEA233FA5A3443FA99D233F6E
:10785000F5E3443F4B50233F2624453FD302233FCB
:107860003964453F43B5223F2DA4453F9967223FE8
:1078700003E4453FD719223FBB23463FFBCB213FC3
:107880005463463F067E213FCEA2463FF92F213F5B
:107890002AE2463FD2E1203F6721473F9393203FB2
:1078A0008560473F3B45203F849F473FCBF61F3FC6
:1078B00065DE473F41A81F3F271D483F9F591F3F97
:1078C000CA5B483FE50A1F3F4E9A483F12BC1E3F25
:1078D000B3D8483F266D1E3FFA16493F221E1E3F71
:1078E0002155493F06CF1D3F2993493FD17F1D3F79
:1078F00012D1493F84301D3FDC0E4A3F1FE11C3F3F
:10790000874C4A3FA2911C3F138A4A3F0C421C3FBE
:107910007FC74A3F5FF21B3FCC044B3F99A21B3FFE
:10792000FA414B3FBB521B3F097F4B3FC6021B3FF7
:10793000F8BB4B3FB8B21A3FC7F84B3F93621A3FB0
:1079400078354C3F55121A3F08724C3F00C2193F20
:1079500079AE4C3F9471193FCBEA4C3F0F21193F50
:10796000FD264D3F73D0183F10634D3FC07F183F39
:10797000029F4D3FF52E183FD5DA4D3F12DE173FDF
:1079800089164E3F188D173F1C524E3F073C173F3C
:10799000908D4E3FDFEA163FE4C84E3F9F99163F59
:1079A00017044F3F4748163F2B3F4F3FD9F6153F2F
:1079B0001F7A4F3F54A5153FF4B44F3FB753153FBF
:1079C000A8EF4F3F0402153F3B2A503F39B0143F08
:1079D000AF64503F585E143F039F503F5F0C143F0D
:1079E00037D9503F50BA133F4A13513F2A68133FCB
:1079F0003D4D513FEE15133F1087513F9AC3123F43
:107A0000C2C0513F3071123F54FA513FB01E123F75
:107A1000C633523F19CC113F186D523F6B79113F5D
:107A200049A6523FA726113F59DF523FCDD3103F01
:107A30004918533FDC80103F1851533FD52D103F5C
:107A4000C789533FB8DA0F3F55C2533F84870F3F72
:107A5000C3FA533F3B340F3F0F33543FDBE00E3F3D
:107A60003B6B543F658D0E3F47A3543FDA390E3FC1
:107A700031DB543F38E60D3FFB12553F81920D3FFD
:107A8000A44A553FB33E0D3F2C82553FD0EA0C3FF0
:107A900093B9553FD7960C3FD9F0553FC9420C3F9B
:107AA000FE27563FA5EE0B3F025F563F6B9A0B3FFA
:107AB000E595563F1C460B3FA7CC563FB7F10A3F12
:107AC0004803573F3D9D0A3FC739573FAD480A3FDE
:107AD0002670573F09F4093F63A6573F4E9F093F61
:107AE0007FDC573F7F4A093F7912583F9BF5083F9B
:107AF0005348583FA1A0083F0B7E583F924B083F88
:107B0000A1B3583F6FF6073F17E9583F36A1073F2B
:107B10006A1E593FE84B073F9C53593F86F6063F84
:107B2000AD88593F0EA1063F9CBD593F824B063F91
:107B30006AF2593FE2F5053F16275A3F2CA0053F50
:107B4000A05B5A3F624A053F09905A3F84F4043FC4
:107B500050C45A3F919E043F75F85A3F8948043FEC
:107B6000792C5B3F6DF2033F5A605B3F3D9C033FC6
:107B70001A945B3FF845033FB8C75B3F9FEF023F56
:107B800034FB5B3F3299023F8E2E5C3FB142023F95
:107B9000C7615C3F1CEC013FDD945C3F7395013F86
:107BA000D1C75C3FB53E013FA3FA5C3FE4E7003F2D
:107BB000532D5D3FFF90003FE15F5D3F063A003F80
:107BC0004D925D3FF3C5FF3E97C45D3FB217FF3E48
:107BD000BEF65D3F4A69FE3EC3285E3FBBBAFD3E2E
:107BE000A65A5E3F040CFD3E678C5E3F275DFC3E5F
:107BF00005BE5E3F22AEFB3E81EF5E3FF7FEFA3EE2
:107C0000DB205F3FA54FFA3E12525F3F2DA0F93EA9
:107C100027835F3F8EF0F83E19B45F3FC840F83EBF
:107C2000E9E45F3FDC90F73E9615603FCBE0F63E1F
:107C30002146603F9330F63E8976603F3580F53EC1
:107C4000CFA6603FB1CFF43EF2D6603F071FF43EAF
:107C5000F206613F386EF33ED036613F43BDF23EDF
:107C60008A66613F290CF23E2296613FEA5AF13E54
:107C700098C5613F85A9F03EEAF4613FFBF7EF3E0E
:107C80001A24623F4C46EF3E2653623F7994EE3E03
:107C90001082623F80E2ED3ED7B0623F6330ED3E3E
:107CA0007BDF623F217EEC3EFC0D633FBBCBEB3EB6
:107CB0005A3C633F3019EB3E956A633F8166EA3E6A
:107CC000AC98633FAEB3E93EA1C6633FB700E93E5F
:107CD00073F4633F9C4DE83E2122643F5D9AE73E8A
:107CE000AC4F643FFBE6E63E147D643F7533E63EF1
:107CF00059AA643FCB7FE53E7BD7643FFECBE43E91
:107D00007904653F0E18E43E5431653FFA63E33E63
:107D10000B5E653FC4AFE23EA08A653F6AFBE13E71
:107D200010B7653FEE46E13E5EE3653F4F92E03EB1
:107D3000880F663F8DDDDF3E8E3B663FA928DF3E24
:107D40007167663FA273DE3E3093663F79BEDD3ECB
:107D5000CCBE663F2E09DD3E45EA663FC153DC3EA0
:107D60009915673F319EDB3ECA40673F80E8DA3EA7
:107D7000D86B673FAD32DA3EC196673FB97CD93EDA
:107D800087C1673FA3C6D83E2AEC673F6B10D83E39
:107D9000A816683F135AD73E0341683F99A3D63EC1
:107DA000396B683FFDECD53E4C95683F4136D53E7A
:107DB0003CBF683F647FD43E07E9683F67C8D33E55
:107DC000AE12693F4811D33E323C693F095AD23E58
:107DD0009165693FAAA2D13ECC8E693F2AEBD03E85
:107DE000E4B7693F8A33D03ED7E0693FCA7BCF3ED4
:107DF000A7096A3FEAC3CE3E52326A3FEA0BCE3E43
:107E0000D95A6A3FCA53CD3E3C836A3F8B9BCC3ED6
:107E10007BAB6A3F2CE3CB3E95D36A3FAE2ACB3E89
:107E20008CFB6A3F1072CA3E5E236B3F53B9C93E5A
:107E30000C4B6B3F7700C93E95726B3F7C47C83E49
:107E4000FB996B3F628EC73E3BC16B3F29D5C63E57
:107E500058E86B3FD21BC63E500F6C3F5C62C53E7C
:107E600024366C3FC8A8C43ED45C6C3F15EFC33EBB
:107E70005E836C3F4435C33EC5A96C3F557BC23E13
:107E800007D06C3F48C1C13E24F66C3F1E07C13E7F
:107E90001D1C6D3FD54CC03EF2416D3F6F92BF3E01
:107EA000A1676D3FEBD7BE3E2D8D6D3F4A1DBE3E97
:107EB00093B26D3F8B62BD3ED5D76D3FAFA7BC3E41
:107EC000F2FC6D3FB6ECBB3EEB216E3FA031BB3EFA
:107ED000BE466E3F6E76BA3E6D6B6E3F1EBBB93EC0
:107EE000F88F6E3FB2FFB83E5DB46E3F2A44B83E95
:107EF0009ED86E3F8488B73EBAFC6E3FC3CCB63E78
:107F0000B0206F3FE610B63E83446F3FEC54B53E61
:107F100030686F3FD698B43EB88B6F3FA5DCB33E58
:107F20001BAF6F3F5820B33E5AD26F3FEF63B23E54
:107F300073F56F3F6BA7B13E6718703FCBEAB03E59
:107F4000373B703F102EB03EE15D703F3A71AF3E5F
:107F50006680703F49B4AE3EC6A2703F3CF7AD3E6E
:107F600002C5703F153AAD3E17E7703FD47CAC3E7A
:107F70000809713F77BFAB3ED42A713F0102AB3E87
:107F80007A4C713F6F44AA3EFB6D713FC486A93E97
:107F9000578F713FFEC8A83E8EB0713F1F0BA83EA1
:107FA0009FD1713F254DA73E8CF2713F128FA63EA7
:107FB0005213723FE5D0A53EF433723F9F12A53EA7
:107FC0007054723F3F54A43EC774723FC595A33EA0
:107FD000F894723F33D7A23E04B5723F8718A23E91
:107FE000EBD4723FC259A13EACF4723FE59AA03E79
:107FF0004714733FEEDB9F3EBE33733FDF1C9F3E53
:108000000E53733FB85D9E3E3972733F789E9D3E1E
:108010003F91733F20DF9C3E1FB0733FAF1F9C3EDC
:10802000D9CE733F27609B3E6EED733F86A09A3E8C
:10803000DD0B743FCEE0993E272A743FFE20993E27
:108040004B48743F1661983E4966743F17A1973EAE
:108050002284743F00E1963ED5A1743FD220963E23
:1080600062BF743F8D60953EC9DC743F31A0943E81
:108070000BFA743FBFDF933E2717753F351F933EC2
:108080001D34753F945E923EED50753FDD9D913EEF
:10809000976D753F10DD903E1C8A753F2C1C903EFD
:1080A0007BA6753F325B8F3EB3C2753F229A8E3EF0
:1080B000C6DE753FFCD88D3EB3FA753FC0178D3EC6
:1080C0007A16763F6E568C3E1B32763F07958B3E76
:1080D000974D763F8AD38A3EEC68763FF8118A3E08
:1080E0001B84763F5050893E249F763F938E883E76
:1080F00007BA763FC1CC873EC4D4763FDA0A873EC2
:108100005BEF763FDF48863ECC09773FCE86853EE3
:108110001724773FAAC4843E3C3E773F7002843EDA
:108120003A58773F2240833E1372773FC07D823EAC
:10813000C58B773F4ABB813E51A5773FC0F8803E53
:10814000B7BE773F2236803EF7D7773FE1E67E3EE7
:1081500010F1773F56617D3E040A783FA4DB7B3EF9
:10816000D122783FCB557A3E773B783FCCCF783ED3
:10817000F853783FA649773E526C783F5AC3753E14
:108180008684783FE83C743E939C783F51B6723EBB
:108190007BB4783F942F713E3BCC783FB2A86F3EC2
:1081A000D6E3783FAB216E3E4AFB783F7F9A6C3E28
:1081B0009812793F2F136B3EBF29793FBA8B693EE6
:1081C000C040793F2204683E9A57793F667C663EFC
:1081D0004E6E793F86F4643EDC84793F836C633E67
:1081E000439B793F5CE4613E83B1793F135C603E21
:1081F0009DC7793FA8D35E3E91DD793F1A4B5D3E26
:108200005EF3793F6AC25B3E04097A3F97395A3E72
:10821000841E7A3FA4B0583EDD337A3F8F27573E05
:1082200010497A3F589E553E1C5E7A3F0115543ED8
:1082300002737A3F898B523EC1877A3FF101513EEA
:10824000599C7A3F38784F3ECBB07A3F60EE4D3E36
:1082500016C57A3F67644C3E3AD97A3F4FDA4A3EB8
:1082600037ED7A3F1850493E0E017B3FC2C5473E6D
:10827000BE147B3F4D3B463E48287B3FB9B0443E51
:10828000AB3B7B3F0726433EE74E7B3F379B413E60
:10829000FC617B3F4910403EEA747B3F3E853E3E99
:1082A000B2877B3F15FA3C3E539A7B3FCF6E3B3EF5
:1082B000CDAC7B3F6CE3393E20BF7B3FEC57383E73
:1082C0004DD17B3F50CC363E53E37B3F9840353E0B
:1082D00031F57B3FC4B4333EE9067C3FD428323EBF
:1082E0007A187C3FC99C303EE5297C3FA2102F3E86
:1082F000283B7C3F61842D3E444C7C3F04F82B3E60
:108300003A5D7C3F8D6B2A3E086E7C3FFCDE283E4A
:10831000B07E7C3F5152273E318F7C3F8CC5253E3D
:108320008A9F7C3FAD38243EBDAF7C3FB6AB223E3A
:10833000C9BF7C3FA51E213EAECF7C3F7B911F3E37
:108340006CDF7C3F38041E3E03EF7C3FDE761C3E34
:1083500073FE7C3F6BE91A3EBC0D7D3FE05B193E2E
:10836000DD1C7D3F3DCE173ED82B7D3F8340163E22
:10837000AC3A7D3FB2B2143E59497D3FCA24133E08
:10838000DE577D3FCC96113E3D667D3FB708103EDF
:1083900074747D3F8B7A0E3E85827D3F4AEC0C3EA5
:1083A0006E907D3FF35D0B3E309E7D3F86CF093E54
:1083B000CCAB7D3F0541083E40B97D3F6EB2063EE5
:1083C0008CC67D3FC223053EB2D37D3F0295033E5E
:1083D000B1E07D3F2E06023E88ED7D3F4577003EB1
:1083E00038FA7D3F92D0FD3DC2067E3F73B2FA3D22
:1083F00024137E3F2C94F73D5E1F7E3FC075F43DF5
:10840000722B7E3F2E57F13D5E377E3F7638EE3D34
:1084100023437E3F9A19EB3DC14E7E3F9AFAE73DDA
:10842000385A7E3F76DBE43D88657E3F2EBCE13DD9
:10843000B0707E3FC49CDE3DB17B7E3F377DDB3D2F
:108440008B867E3F895DD83D3D917E3FB93DD53DD0
:10845000C99B7E3FC81DD23D2DA67E3FB7FDCE3DB8
:1084600069B07E3F86DDCB3D7FBA7E3F36BDC83DDD
:108470006DC47E3FC69CC53D34CE7E3F397CC23D37
:10848000D4D77E3F8D5BBF3D4CE17E3FC33ABC3DC0
:108490009DEA7E3FDD19B93DC7F37E3FDAF8B53D71
:1084A000C9FC7E3FBBD7B23DA4057F3F80B6AF3D40
:1084B000580E7F3F2B95AC3DE4167F3FBA73A93D24
:1084C000491F7F3F3052A63D87277F3F8C30A33D19
:1084D0009D2F7F3FCF0EA03D8D377F3FF9EC9C3D18
:1084E000543F7F3F0ACB993DF4467F3F05A9963D17
:1084F0006D4E7F3FE786933DBF557F3FB464903D0F
:10850000E95C7F3F6A428D3DEC637F3F0A208A3DF4
:10851000C76A7F3F94FD863D7B717F3F0ADB833DC9
:1085200008787F3F6CB8803D6D7E7F3F742B7B3D2C
:10853000AB847F3FE9E5743DC28A7F3F38A06E3D42
:10854000B1907F3F625A683D78967F3F6814623DE4
:10855000189C7F3F4CCE5B3D91A17F3F0E88553DDF
:10856000E3A67F3FAF414F3D0DAC7F3F2FFB483D22
:108570000FB17F3F91B4423DEAB57F3FD56D3C3DA1
:108580009EBA7F3FFC26363D2ABF7F3F07E02F3D46
:108590008FC37F3FF698293DCCC77F3FCC51233D09
:1085A000E2CB7F3F880A1D3DD1CF7F3F2CC3163DD4
:1085B00098D37F3FB87B103D37D77F3F2F340A3D9C
:1085C000AFDA7F3F90EC033D00DE7F3FB949FB3CD3
:1085D00029E17F3F2DBAEE3C2BE47F3F7B2AE23C32
:1085E00005E77F3FA69AD53CB8E97F3FB00AC93C72
:1085F00043EC7F3F9B7ABC3CA7EE7F3F69EAAF3CF0
:10860000E3F07F3F1C5AA33CF8F27F3FB6C9963C8B
:10861000E6F47F3F38398A3CACF67F3F4B517B3CD8
:108620004AF87F3F0030623CC1F97F3F900E493CE1
:1086300011FB7F3F02ED2F3C39FC7F3F59CB163CAD
:1086400039FD7F3F3053FB3B13FE7F3F890FC93B12
:10865000C4FE7F3FC1CB963B4EFF7F3FC70F493BD8
:10866000B1FF7F3FD40FC93AECFF7F3F000000000D
:108670000000803FD40FC9BAECFF7F3FC70F49BB52
:10868000B1FF7F3FC1CB96BB4EFF7F3F890FC9BB78
:10869000C4FE7F3F3053FBBB13FE7F3F59CB16BC5C
:1086A00039FD7F3F02ED2FBC39FC7F3F900E49BC66
:1086B00011FB7F3F003062BCC1F97F3F4B517BBC57
:1086C0004AF87F3F38398ABCACF67F3FB6C996BCC2
:1086D000E6F47F3F1C5AA3BCF8F27F3F69EAAFBCC7
:1086E000E3F07F3F9B7ABCBCA7EE7F3FB00AC9BCDA
:1086F00043EC7F3FA69AD5BCB8E97F3F7B2AE2BC1A
:1087000005E77F3F2DBAEEBC2BE47F3FB949FBBCA8
:1087100029E17F3F90EC03BD00DE7F3F2F340ABD8F
:10872000AFDA7F3FB87B10BD37D77F3F2CC316BD74
:1087300098D37F3F880A1DBDD1CF7F3FCC5123BD49
:10874000E2CB7F3FF69829BDCCC77F3F07E02FBD26
:108750008FC37F3FFC2636BD2ABF7F3FD56D3CBD12
:108760009EBA7F3F91B442BDEAB57F3F2FFB48BD23
:108770000FB17F3FAF414FBD0DAC7F3F0E8855BD60
:10878000E3A67F3F4CCE5BBD91A17F3F681462BDE5
:10879000189C7F3F625A68BD78967F3F38A06EBDB7
:1087A000B1907F3FE9E574BDC28A7F3F742B7BBDEA
:1087B000AB847F3F6CB880BD6D7E7F3F0ADB83BD9D
:1087C00008787F3F94FD86BD7B717F3F0A208ABD7C
:1087D000C76A7F3F6A428DBDEC637F3FB46490BD42
:1087E000E95C7F3FE78693BDBF557F3F05A996BDF6
:1087F0006D4E7F3F0ACB99BDF4467F3FF9EC9CBD9F
:10880000543F7F3FCF0EA0BD8D377F3F8C30A3BD3F
:108810009D2F7F3F3052A6BD87277F3FBA73A9BDEA
:10882000491F7F3F2B95ACBDE4167F3F80B6AFBD9F
:10883000580E7F3FBBD7B2BDA4057F3FDAF8B5BD68
:10884000C9FC7E3FDD19B9BDC7F37E3FC33ABCBD4D
:108850009DEA7E3F8D5BBFBD4CE17E3F397CC2BD52
:10886000D4D77E3FC69CC5BD34CE7E3F36BDC8BD85
:108870006DC47E3F86DDCBBD7FBA7E3FB7FDCEBDEA
:1088800069B07E3FC81DD2BD2DA67E3FB93DD5BD86
:10889000C99B7E3F895DD8BD3D917E3F377DDBBD65
:1088A0008B867E3FC49CDEBDB17B7E3F2EBCE1BD8E
:1088B000B0707E3F76DBE4BD88657E3F9AFAE7BD07
:1088C000385A7E3F9A19EBBDC14E7E3F7638EEBDD9
:1088D00023437E3F2E57F1BD5E377E3FC075F4BD0A
:1088E000722B7E3F2C94F7BD5E1F7E3F73B2FABDA4
:1088F00024137E3F92D0FDBDC2067E3F457700BE69
:1089000038FA7D3F2E0602BE88ED7D3F029503BEFC
:10891000B1E07D3FC22305BEB2D37D3F6EB206BE3D
:108920008CC67D3F054108BE40B97D3F86CF09BE5C
:10893000CCAB7D3FF35D0BBE309E7D3F4AEC0CBE61
:108940006E907D3F8B7A0EBE85827D3FB70810BE4C
:1089500074747D3FCC9611BE3D667D3FCA2413BE24
:10896000DE577D3FB2B214BE59497D3F834016BEEB
:10897000AC3A7D3F3DCE17BED82B7D3FE05B19BEA4
:10898000DD1C7D3F6BE91ABEBC0D7D3FDE761CBE53
:1089900073FE7C3F38041EBE03EF7C3F7B911FBEFD
:1089A0006CDF7C3FA51E21BEAECF7C3FB6AB22BEA6
:1089B000C9BF7C3FAD3824BEBDAF7C3F8CC525BE52
:1089C0008A9F7C3F515227BE318F7C3FFCDE28BE00
:1089D000B07E7C3F8D6B2ABE086E7C3F04F82BBEB8
:1089E0003A5D7C3F61842DBE444C7C3FA2102FBE7B
:1089F000283B7C3FC99C30BEE5297C3FD42832BE51
:108A00007A187C3FC4B433BEE9067C3F984035BE3B
:108A100031F57B3F50CC36BE53E37B3FEC5738BE3D
:108A20004DD17B3F6CE339BE20BF7B3FCF6E3BBE59
:108A3000CDAC7B3F15FA3CBE539A7B3F3E853EBE94
:108A4000B2877B3F491040BEEA747B3F379B41BEF3
:108A5000FC617B3F072643BEE74E7B3FB9B044BE77
:108A6000AB3B7B3F4D3B46BE48287B3FC2C547BE24
:108A7000BE147B3F185049BE0E017B3F4FDA4ABE01
:108A800037ED7A3F67644CBE3AD97A3F60EE4DBE0F
:108A900016C57A3F38784FBECBB07A3FF10151BE50
:108AA000599C7A3F898B52BEC1877A3F011554BECB
:108AB00002737A3F589E55BE1C5E7A3F8F2757BE81
:108AC00010497A3FA4B058BEDD337A3F97395ABE79
:108AD000841E7A3F6AC25BBE04097A3F1A4B5DBEB0
:108AE0005EF3793FA8D35EBE91DD793F135C60BE33
:108AF0009DC7793F5CE461BE83B1793F836C63BEFF
:108B0000439B793F86F464BEDC84793F667C66BE15
:108B10004E6E793F220468BE9A57793FBA8B69BE80
:108B2000C040793F2F136BBEBF29793F7F9A6CBE3F
:108B30009812793FAB216EBE4AFB783FB2A86FBE58
:108B4000D6E3783F942F71BE3BCC783F51B672BECE
:108B50007BB4783FE83C74BE939C783F5AC375BEA3
:108B60008684783FA64977BE526C783FCCCF78BEDA
:108B7000F853783FCB557ABE773B783FA4DB7BBE7A
:108B8000D122783F56617DBE040A783FE1E67EBE81
:108B900010F1773F223680BEF7D7773FC0F880BE0E
:108BA000B7BE773F4ABB81BE51A5773FC07D82BE2D
:108BB000C58B773F224083BE1372773F700284BE1D
:108BC0003A58773FAAC484BE3C3E773FCE8685BEE6
:108BD0001724773FDF4886BECC09773FDA0A87BE85
:108BE0005BEF763FC1CC87BEC4D4763F938E88BE00
:108BF00007BA763F505089BE249F763FF8118ABE4F
:108C00001B84763F8AD38ABEEC68763F07958BBE7D
:108C1000974D763F6E568CBE1B32763FC0178DBE89
:108C20007A16763FFCD88DBEB3FA753F229A8EBE77
:108C3000C6DE753F325B8FBEB3C2753F2C1C90BE43
:108C40007BA6753F10DD90BE1C8A753FDD9D91BEF1
:108C5000976D753F945E92BEED50753F351F93BE84
:108C60001D34753FBFDF93BE2717753F31A094BEFB
:108C70000BFA743F8D6095BEC9DC743FD22096BE5E
:108C800062BF743F00E196BED5A1743F17A197BEA5
:108C90002284743F166198BE4966743FFE2099BED7
:108CA0004B48743FCEE099BE272A743F86A09ABEF7
:108CB000DD0B743F27609BBE6EED733FAF1F9CBE04
:108CC000D9CE733F20DF9CBE1FB0733F789E9DBE00
:108CD0003F91733FB85D9EBE3972733FDF1C9FBEEC
:108CE0000E53733FEEDB9FBEBE33733FE59AA0BECB
:108CF0004714733FC259A1BEACF4723F8718A2BE9D
:108D0000EBD4723F33D7A2BE04B5723FC595A3BE64
:108D1000F894723F3F54A4BEC774723F9F12A5BE21
:108D20007054723FE5D0A5BEF433723F128FA6BED9
:108D30005213723F254DA7BE8CF2713F1F0BA8BE88
:108D40009FD1713FFEC8A8BE8EB0713FC486A9BE38
:108D5000578F713F6F44AABEFB6D713F0102ABBEDE
:108D60007A4C713F77BFABBED42A713FD47CACBE86
:108D70000809713F153AADBE17E7703F3CF7ADBE2D
:108D800002C5703F49B4AEBEC6A2703F3A71AFBED5
:108D90006680703F102EB0BEE15D703FCBEAB0BE82
:108DA000373B703F6BA7B1BE6718703FEF63B2BE31
:108DB00073F56F3F5820B3BE5AD26F3FA5DCB3BEE8
:108DC0001BAF6F3FD698B4BEB88B6F3FEC54B5BEA7
:108DD00030686F3FE610B6BE83446F3FC3CCB6BE6B
:108DE000B0206F3F8488B7BEBAFC6E3F2A44B8BE3D
:108DF0009ED86E3FB2FFB8BE5DB46E3F1EBBB9BE1B
:108E0000F88F6E3F6E76BABE6D6B6E3FA031BBBE03
:108E1000BE466E3FB6ECBBBEEB216E3FAFA7BCBEFD
:108E2000F2FC6D3F8B62BDBED5D76D3F4A1DBEBE05
:108E300093B26D3FEBD7BEBE2D8D6D3F6F92BFBE1F
:108E4000A1676D3FD54CC0BEF2416D3F1E07C1BE4C
:108E50001D1C6D3F48C1C1BE24F66C3F557BC2BE90
:108E600007D06C3F4435C3BEC5A96C3F15EFC3BEE8
:108E70005E836C3FC8A8C4BED45C6C3F5C62C5BE58
:108E800024366C3FD21BC6BE500F6C3F29D5C6BEE0
:108E900058E86B3F628EC7BE3BC16B3F7C47C8BE84
:108EA000FB996B3F7700C9BE95726B3F53B9C9BE42
:108EB0000C4B6B3F1072CABE5E236B3FAE2ACBBE1B
:108EC0008CFB6A3F2CE3CBBE95D36A3F8B9BCCBE19
:108ED0007BAB6A3FCA53CDBE3C836A3FEA0BCEBE32
:108EE000D95A6A3FEAC3CEBE52326A3FCA7BCFBE6E
:108EF000A7096A3F8A33D0BED7E0693F2AEBD0BECC
:108F0000E4B7693FAAA2D1BECC8E693F095AD2BE4E
:108F10009165693F4811D3BE323C693F67C8D3BEF3
:108F2000AE12693F647FD4BE07E9683F4136D5BEC3
:108F30003CBF683FFDECD5BE4C95683F99A3D6BEBB
:108F4000396B683F135AD7BE0341683F6B10D8BED8
:108F5000A816683FA3C6D8BE2AEC673FB97CD9BE25
:108F600087C1673FAD32DABEC196673F80E8DABE9F
:108F7000D86B673F319EDBBECA40673FC153DCBE42
:108F80009915673F2E09DDBE45EA663F79BEDDBE15
:108F9000CCBE663FA273DEBE3093663FA928DFBE1B
:108FA0007167663F8DDDDFBE8E3B663F4F92E0BE50
:108FB000880F663FEE46E1BE5EE3653F6AFBE1BEB9
:108FC00010B7653FC4AFE2BEA08A653FFA63E3BE57
:108FD0000B5E653F0E18E4BE5431653FFECBE4BE28
:108FE0007904653FCB7FE5BE7BD7643F7533E6BE32
:108FF00059AA643FFBE6E6BE147D643F5D9AE7BE76
:10900000AC4F643F9C4DE8BE2122643FB700E9BEEF
:1090100073F4633FAEB3E9BEA1C6633F8166EABEA7
:10902000AC98633F3019EBBE956A633FBBCBEBBE98
:109030005A3C633F217EECBEFC0D633F6330EDBEC6
:109040007BDF623F80E2EDBED7B0623F7994EEBE37
:109050001082623F4C46EFBE2653623FFBF7EFBEE5
:109060001A24623F85A9F0BEEAF4613FEA5AF1BED4
:1090700098C5613F290CF2BE2296613F43BDF2BE06
:109080008A66613F386EF3BED036613F071FF4BE7B
:10909000F206613FB1CFF4BEF2D6603F3580F5BE37
:1090A000CFA6603F9330F6BE8976603FCBE0F6BE38
:1090B0002146603FDC90F7BE9615603FC840F8BE81
:1090C000E9E45F3F8EF0F8BE19B45F3F2DA0F9BE12
:1090D00027835F3FA54FFABE12525F3FF7FEFABEED
:1090E000DB205F3F22AEFBBE81EF5E3F275DFCBE13
:1090F00005BE5E3F040CFDBE678C5E3FBBBAFDBE85
:10910000A65A5E3F4A69FEBEC3285E3FB217FFBE45
:10911000BEF65D3FF3C5FFBE97C45D3F063A00BF94
:109120004D925D3FFF9000BFE15F5D3FE4E700BF10
:10913000532D5D3FB53E01BFA3FA5C3F739501BF60
:10914000D1C75C3F1CEC01BFDD945C3FB14202BF64
:10915000C7615C3F329902BF8E2E5C3F9FEF02BF1A
:1091600034FB5B3FF84503BFB8C75B3F3D9C03BF83
:109170001A945B3F6DF203BF5A605B3F894804BF9E
:10918000792C5B3F919E04BF75F85A3F84F404BF6D
:1091900050C45A3F624A05BF09905A3F2CA005BFF0
:1091A000A05B5A3FE2F505BF16275A3F824B06BF28
:1091B0006AF2593F0EA106BF9CBD593F86F606BF15
:1091C000AD88593FE84B07BF9C53593F36A107BFB5
:1091D0006A1E593F6FF607BF17E9583F924B08BF09
:1091E000A1B3583FA1A008BF0B7E583F9BF508BF15
:1091F0005348583F7F4A09BF7912583F4E9F09BFD5
:109200007FDC573F09F409BF63A6573FAD480ABF4B
:109210002670573F3D9D0ABFC739573FB7F10ABF78
:109220004803573F1C460BBFA7CC563F6B9A0BBF5A
:10923000E595563FA5EE0BBF025F563FC9420CBFF6
:10924000FE27563FD7960CBFD9F0553FD0EA0CBF4A
:1092500093B9553FB33E0DBF2C82553F81920DBF50
:10926000A44A553F38E60DBFFB12553FDA390EBF11
:1092700031DB543F658D0EBF47A3543FDBE00EBF8B
:109280003B6B543F3B340FBF0F33543F84870FBFBA
:10929000C3FA533FB8DA0FBF55C2533FD52D10BFA5
:1092A000C789533FDC8010BF1851533FCDD310BF47
:1092B0004918533FA72611BF59DF523F6B7911BFA1
:1092C00049A6523F19CC11BF186D523FB01E12BFB4
:1092D000C633523F307112BF54FA513F9AC312BF86
:1092E000C2C0513FEE1513BF1087513F2A6813BF0C
:1092F0003D4D513F50BA13BF4A13513F5F0C14BF4D
:1093000037D9503F585E14BF039F503F39B014BF48
:10931000AF64503F040215BF3B2A503FB75315BFFF
:10932000A8EF4F3F54A515BFF4B44F3FD9F615BF72
:109330001F7A4F3F474816BF2B3F4F3F9F9916BF9D
:1093400017044F3FDFEA16BFE4C84E3F073C17BF84
:10935000908D4E3F188D17BF1C524E3F12DE17BF27
:1093600089164E3FF52E18BFD5DA4D3FC07F18BF86
:10937000029F4D3F73D018BF10634D3F0F2119BF9F
:10938000FD264D3F947119BFCBEA4C3F00C219BF77
:1093900079AE4C3F55121ABF08724C3F93621ABF08
:1093A00078354C3FB8B21ABFC7F84B3FC6021BBF57
:1093B000F8BB4B3FBB521BBF097F4B3F99A21BBF62
:1093C000FA414B3F5FF21BBFCC044B3F0C421CBF2A
:1093D0007FC74A3FA2911CBF138A4A3F1FE11CBFAF
:1093E000874C4A3F84301DBFDC0E4A3FD17F1DBFF2
:1093F00012D1493F06CF1DBF2993493F221E1EBFF0
:109400002155493F266D1EBFFA16493F12BC1EBFAB
:10941000B3D8483FE50A1FBF4E9A483F9F591FBF28
:10942000CA5B483F41A81FBF271D483FCBF61FBF5F
:1094300065DE473F3B4520BF849F473F939320BF56
:109440008560473FD2E120BF6721473FF92F21BF09
:109450002AE2463F067E21BFCEA2463FFBCB21BF7C
:109460005463463FD71922BFBB23463F996722BFAB
:1094700003E4453F43B522BF2DA4453FD30223BF9C
:109480003964453F4B5023BF2624453FA99D23BF48
:10949000F5E3443FEEEA23BFA5A3443F1A3824BFB7
:1094A0003763443F2C8524BFAB22443F25D224BFE1
:1094B00000E2433F041F25BF38A1433FCB6B25BFCC
:1094C0005160433F77B825BF4C1F433F0A0526BF75
:1094D00029DE423F845126BFE89C423FE39D26BFE0
:1094E000895B423F2AEA26BF0B1A423F563627BF06
:1094F00070D8413F688227BFB796413F61CE27BFF2
:10950000E154413F401A28BFEC12413F056628BF95
:10951000DAD0403FB0B128BFA98E403F41FD28BFFF
:109520005C4C403FB84829BFF009403F159429BF23
:1095300067C73F3F57DF29BFC0843F3F802A2ABF0C
:10954000FC413F3F8E752ABF1BFF3E3F82C02ABFB2
:109550001BBC3E3F5B0B2BBFFF783E3F1B562BBF18
:10956000C5353E3FBFA02BBF6EF23D3F4AEB2BBF40
:10957000F9AE3D3FB9352CBF676B3D3F0F802CBF27
:10958000B8273D3F49CA2CBFECE33C3F69142DBFCF
:1095900003A03C3F6F5E2DBFFC5B3C3F59A82DBF35
:1095A000D9173C3F29F22DBF98D33B3FDE3B2EBF5E
:1095B0003B8F3B3F78852EBFC14A3B3FF7CE2EBF46
:1095C00029063B3F5B182FBF75C13A3FA5612FBFEE
:1095D000A47C3A3FD3AA2FBFB7373A3FE6F32FBF59
:1095E000ACF2393FDE3C30BF85AD393FBB8530BF83
:1095F0004268393F7CCE30BFE122393F221731BF6C
:1096000065DD383FAD5F31BFCB97383F1DA831BF17
:109610001652383F71F031BF430C383FAA3832BF81
:1096200055C6373FC78032BF4A80373FC9C832BFAF
:10963000233A373FAF1033BFDFF3363F7A5833BF9B
:109640007FAD363F29A033BF0467363FBCE733BF49
:109650006C20363F342F34BFB8D9353F8F7634BFB6
:10966000E792353FCFBD34BFFB4B353FF30435BFE9
:10967000F304353FFB4B35BFCFBD343FE79235BFD9
:109680008F76343FB8D935BF342F343F6C2036BF86
:10969000BCE7333F046736BF29A0333F7FAD36BFF9
:1096A0007A58333FDFF336BFAF10333F233A37BF2B
:1096B000C9C8323F4A8037BFC780323F55C637BF1F
:1096C000AA38323F430C38BF71F0313F165238BFD1
:1096D0001DA8313FCB9738BFAD5F313F65DD38BF47
:1096E0002217313FE12239BF7CCE303F426839BF7B
:1096F000BB85303F85AD39BFDE3C303FACF239BF72
:10970000E6F32F3FB7373ABFD3AA2F3FA47C3ABF27
:10971000A5612F3F75C13ABF5B182F3F29063BBF9C
:10972000F7CE2E3FC14A3BBF78852E3F3B8F3BBFD4
:10973000DE3B2E3F98D33BBF29F22D3FD9173CBFCC
:1097400059A82D3FFC5B3CBF6F5E2D3F03A03CBF83
:1097500069142D3FECE33CBF49CA2C3FB8273DBFFD
:109760000F802C3F676B3DBFB9352C3FF9AE3DBF35
:109770004AEB2B3F6EF23DBFBFA02B3FC5353EBF2E
:109780001B562B3FFF783EBF5B0B2B3F1BBC3EBFE6
:1097900082C02A3F1BFF3EBF8E752A3FFC413FBF60
:1097A000802A2A3FC0843FBF57DF293F67C73FBF9A
:1097B0001594293FF00940BFB848293F5C4C40BF91
:1097C00041FD283FA98E40BFB0B1283FDAD040BF4D
:1097D0000566283FEC1241BF401A283FE15441BFC3
:1097E00061CE273FB79641BF6882273F70D841BFFF
:1097F0005636273F0B1A42BF2AEA263F895B42BFF3
:10980000E39D263FE89C42BF8451263F29DE42BFAC
:109810000A05263F4C1F43BF77B8253F516043BF21
:10982000CB6B253F38A143BF041F253F00E243BF58
:1098300025D2243FAB2244BF2C85243F376344BF4D
:109840001A38243FA5A344BFEEEA233FF5E344BF03
:10985000A99D233F262445BF4B50233F396445BF74
:10986000D302233F2DA445BF43B5223F03E445BFA8
:109870009967223FBB2346BFD719223F546346BF97
:10988000FBCB213FCEA246BF067E213F2AE246BF48
:10989000F92F213F672147BFD2E1203F856047BFB5
:1098A0009393203F849F47BF3B45203F65DE47BFE2
:1098B000CBF61F3F271D48BF41A81F3FCA5B48BFCB
:1098C0009F591F3F4E9A48BFE50A1F3FB3D848BF74
:1098D00012BC1E3FFA1649BF266D1E3F215549BFD7
:1098E000221E1E3F299349BF06CF1D3F12D149BFFB
:1098F000D17F1D3FDC0E4ABF84301D3F874C4ABFDD
:109900001FE11C3F138A4ABFA2911C3F7FC74ABF79
:109910000C421C3FCC044BBF5FF21B3FFA414BBFD4
:1099200099A21B3F097F4BBFBB521B3FF8BB4BBFEC
:10993000C6021B3FC7F84BBFB8B21A3F78354CBFC1
:1099400093621A3F08724CBF55121A3F79AE4CBF52
:1099500000C2193FCBEA4CBF9471193FFD264DBFA1
:109960000F21193F10634DBF73D0183F029F4DBFA9
:10997000C07F183FD5DA4DBFF52E183F89164EBF70
:1099800012DE173F1C524EBF188D173F908D4EBFF1
:10999000073C173FE4C84EBFDFEA163F17044FBF2E
:1099A0009F99163F2B3F4FBF4748163F1F7A4FBF27
:1099B000D9F6153FF4B44FBF54A5153FA8EF4FBFDC
:1099C000B753153F3B2A50BF0402153FAF6450BF49
:1099D00039B0143F039F50BF585E143F37D950BF72
:1099E0005F0C143F4A1351BF50BA133F3D4D51BF56
:1099F0002A68133F108751BFEE15133FC2C051BFF5
:109A00009AC3123F54FA51BF3071123FC63352BF4E
:109A1000B01E123F186D52BF19CC113F49A652BF5C
:109A20006B79113F59DF52BFA726113F491853BF29
:109A3000CDD3103F185153BFDC80103FC78953BFAF
:109A4000D52D103F55C253BFB8DA0F3FC3FA53BFED
:109A500084870F3F0F3354BF3B340F3F3B6B54BFE2
:109A6000DBE00E3F47A354BF658D0E3F31DB54BF93
:109A7000DA390E3FFB1255BF38E60D3FA44A55BFF9
:109A800081920D3F2C8255BFB33E0D3F93B955BF18
:109A9000D0EA0C3FD9F055BFD7960C3FFE2756BFF2
:109AA000C9420C3F025F56BFA5EE0B3FE59556BF7E
:109AB0006B9A0B3FA7CC56BF1C460B3F480357BFC2
:109AC000B7F10A3FC73957BF3D9D0A3F267057BFC0
:109AD000AD480A3F63A657BF09F4093F7FDC57BF73
:109AE0004E9F093F791258BF7F4A093F534858BFDC
:109AF0009BF5083F0B7E58BFA1A0083FA1B358BFFC
:109B0000924B083F17E958BF6FF6073F6A1E59BFCF
:109B100036A1073F9C5359BFE84B073FAD8859BF5B
:109B200086F6063F9CBD59BF0EA1063F6AF259BF9B
:109B3000824B063F16275ABFE2F5053FA05B5ABF8E
:109B40002CA0053F09905ABF624A053F50C45ABF36
:109B500084F4043F75F85ABF919E043F792C5BBF93
:109B60008948043F5A605BBF6DF2033F1A945BBFA4
:109B70003D9C033FB8C75BBFF845033F34FB5BBF69
:109B80009FEF023F8E2E5CBF3299023FC7615CBFE0
:109B9000B142023FDD945CBF1CEC013FD1C75CBF0A
:109BA0007395013FA3FA5CBFB53E013F532D5DBFE6
:109BB000E4E7003FE15F5DBFFF90003F4D925DBF76
:109BC000063A003F97C45DBFF3C5FF3EBEF65DBFDA
:109BD000B217FF3EC3285EBF4A69FE3EA65A5EBF6B
:109BE000BBBAFD3E678C5EBF040CFD3E05BE5EBF8A
:109BF000275DFC3E81EF5EBF22AEFB3EDB205FBFF8
:109C0000F7FEFA3E12525FBFA54FFA3E27835FBFB1
:109C10002DA0F93E19B45FBF8EF0F83EE9E45FBFB6
:109C2000C840F83E961560BFDC90F73E214660BF05
:109C3000CBE0F63E897660BF9330F63ECFA660BF9C
:109C40003580F53EF2D660BFB1CFF43EF20661BF7B
:109C5000071FF43ED03661BF386EF33E8A6661BF9F
:109C600043BDF23E229661BF290CF23E98C561BF0A
:109C7000EA5AF13EEAF461BF85A9F03E1A2462BFB8
:109C8000FBF7EF3E265362BF4C46EF3E108262BFA9
:109C90007994EE3ED7B062BF80E2ED3E7BDF62BFDB
:109CA0006330ED3EFC0D63BF217EEC3E5A3C63BF4A
:109CB000BBCBEB3E956A63BF3019EB3EAC9863BFFC
:109CC0008166EA3EA1C663BFAEB3E93E73F463BFEB
:109CD000B700E93E212264BF9C4DE83EAC4F64BF13
:109CE0005D9AE73E147D64BFFBE6E63E59AA64BF79
:109CF0007533E63E7BD764BFCB7FE53E790465BF15
:109D0000FECBE43E543165BF0E18E43E0B5E65BFEA
:109D1000FA63E33EA08A65BFC4AFE23E10B765BFF9
:109D20006AFBE13E5EE365BFEE46E13E880F66BF3B
:109D30004F92E03E8E3B66BF8DDDDF3E716766BFB2
:109D4000A928DF3E309366BFA273DE3ECCBE66BF5D
:109D500079BEDD3E45EA66BF2E09DD3E991567BF37
:109D6000C153DC3ECA4067BF319EDB3ED86B67BF44
:109D700080E8DA3EC19667BFAD32DA3E87C167BF81
:109D8000B97CD93E2AEC67BFA3C6D83EA81668BFE7
:109D90006B10D83E034168BF135AD73E396B68BF7A
:109DA00099A3D63E4C9568BFFDECD53E3CBF68BF3D
:109DB0004136D53E07E968BF647FD43EAE1269BF25
:109DC00067C8D33E323C69BF4811D33E916569BF35
:109DD000095AD23ECC8E69BFAAA2D13EE4B769BF70
:109DE0002AEBD03ED7E069BF8A33D03EA7096ABFCD
:109DF000CA7BCF3E52326ABFEAC3CE3ED95A6ABF4F
:109E0000EA0BCE3E3C836ABFCA53CD3E7BAB6ABFF2
:109E10008B9BCC3E95D36ABF2CE3CB3E8CFB6ABFB9
:109E2000AE2ACB3E5E236BBF1072CA3E0C4B6BBF9B
:109E300053B9C93E95726BBF7700C93EFB996BBFA2
:109E40007C47C83E3BC16BBF628EC73E58E86BBFC4
:109E500029D5C63E500F6CBFD21BC63E24366CBF00
:109E60005C62C53ED45C6CBFC8A8C43E5E836CBF58
:109E700015EFC33EC5A96CBF4435C33E07D06CBFC8
:109E8000557BC23E24F66CBF48C1C13E1D1C6DBF50
:109E90001E07C13EF2416DBFD54CC03EA1676DBFEC
:109EA0006F92BF3E2D8D6DBFEBD7BE3E93B26DBF9F
:109EB0004A1DBE3ED5D76DBF8B62BD3EF2FC6DBF65
:109EC000AFA7BC3EEB216EBFB6ECBB3EBE466EBF3D
:109ED000A031BB3E6D6B6EBF6E76BA3EF88F6EBF23
:109EE0001EBBB93E5DB46EBFB2FFB83E9ED86EBF1A
:109EF0002A44B83EBAFC6EBF8488B73EB0206FBF1C
:109F0000C3CCB63E83446FBFE610B63E30686FBF29
:109F1000EC54B53EB88B6FBFD698B43E1BAF6FBF45
:109F2000A5DCB33E5AD26FBF5820B33E73F56FBF66
:109F3000EF63B23E671870BF6BA7B13E373B70BF8F
:109F4000CBEAB03EE15D70BF102EB03E668070BFC0
:109F50003A71AF3EC6A270BF49B4AE3E02C570BFF3
:109F60003CF7AD3E17E770BF153AAD3E080971BF2B
:109F7000D47CAC3ED42A71BF77BFAB3E7A4C71BF64
:109F80000102AB3EFB6D71BF6F44AA3E578F71BF9C
:109F9000C486A93E8EB071BFFEC8A83E9FD171BFD6
:109FA0001F0BA83E8CF271BF254DA73E521372BF06
:109FB000128FA63EF43372BFE5D0A53E705472BF37
:109FC0009F12A53EC77472BF3F54A43EF89472BF5F
:109FD000C595A33E04B572BF33D7A23EEBD472BF82
:109FE0008718A23EACF472BFC259A13E471473BF9A
:109FF000E59AA03EBE3373BFEEDB9F3E0E5373BFA8
:10A00000DF1C9F3E397273BFB85D9E3E3F9173BFA8
:10A01000789E9D3E1FB073BF20DF9C3ED9CE73BF9C
:10A02000AF1F9C3E6EED73BF27609B3EDD0B74BF80
:10A0300086A09A3E272A74BFCEE0993E4B4874BF53
:10A04000FE20993E496674BF1661983E228474BF13
:10A0500017A1973ED5A174BF00E1963E62BF74BFC1
:10A06000D220963EC9DC74BF8D60953E0BFA74BF5A
:10A0700031A0943E271775BFBFDF933E1D3475BFD7
:10A08000351F933EED5075BF945E923E976D75BF40
:10A09000DD9D913E1C8A75BF10DD903E7BA675BF8D
:10A0A0002C1C903EB3C275BF325B8F3EC6DE75BFBF
:10A0B000229A8E3EB3FA75BFFCD88D3E7A1676BFD3
:10A0C000C0178D3E1B3276BF6E568C3E974D76BFC5
:10A0D00007958B3EEC6876BF8AD38A3E1B8476BF99
:10A0E000F8118A3E249F76BF5050893E07BA76BF4A
:10A0F000938E883EC4D476BFC1CC873E5BEF76BFDB
:10A10000DA0A873ECC0977BFDF48863E172477BF3F
:10A11000CE86853E3C3E77BFAAC4843E3A5877BF80
:10A120007002843E137277BF2240833EC58B77BF97
:10A13000C07D823E51A577BF4ABB813EB7BE77BF87
:10A14000C0F8803EF7D777BF2236803E10F177BF48
:10A15000E1E67E3E040A78BF56617D3ED12278BF9B
:10A16000A4DB7B3E773B78BFCB557A3EF85378BF74
:10A17000CCCF783E526C78BFA649773E868478BFB4
:10A180005AC3753E939C78BFE83C743E7BB478BF5D
:10A1900051B6723E3BCC78BF942F713ED6E378BF68
:10A1A000B2A86F3E4AFB78BFAB216E3E981279BFD2
:10A1B0007F9A6C3EBF2979BF2F136B3EC04079BF99
:10A1C000BA8B693E9A5779BF2204683E4E6E79BFBA
:10A1D000667C663EDC8479BF86F4643E439B79BF2F
:10A1E000836C633E83B179BF5CE4613E9DC779BFF8
:10A1F000135C603E91DD79BFA8D35E3E5EF379BF0C
:10A200001A4B5D3E04097ABF6AC25B3E841E7ABF68
:10A2100097395A3EDD337ABFA4B0583E10497ABF11
:10A220008F27573E1C5E7ABF589E553E02737ABFF9
:10A230000115543EC1877ABF898B523E599C7ABF23
:10A24000F101513ECBB07ABF38784F3E16C57ABF88
:10A2500060EE4D3E3AD97ABF67644C3E37ED7ABF27
:10A260004FDA4A3E0E017BBF1850493EBE147BBFF9
:10A27000C2C5473E48287BBF4D3B463EAB3B7BBFFC
:10A28000B9B0443EE74E7BBF0726433EFC617BBF2F
:10A29000379B413EEA747BBF4910403EB2877BBF8B
:10A2A0003E853E3E539A7BBF15FA3C3ECDAC7BBF0C
:10A2B000CF6E3B3E20BF7BBF6CE3393E4DD17BBFB1
:10A2C000EC57383E53E37BBF50CC363E31F57BBF75
:10A2D0009840353EE9067CBFC4B4333E7A187CBF53
:10A2E000D428323EE5297CBFC99C303E283B7CBF48
:10A2F000A2102F3E444C7CBF61842D3E3A5D7CBF52
:10A3000004F82B3E086E7CBF8D6B2A3EB07E7CBF6E
:10A31000FCDE283E318F7CBF5152273E8A9F7CBF96
:10A320008CC5253EBDAF7CBFAD38243EC9BF7CBFC8
:10A33000B6AB223EAECF7CBFA51E213E6CDF7CBFFC
:10A340007B911F3E03EF7CBF38041E3E73FE7CBF33
:10A35000DE761C3EBC0D7DBF6BE91A3EDD1C7DBF69
:10A36000E05B193ED82B7DBF3DCE173EAC3A7DBF9A
:10A370008340163E59497DBFB2B2143EDE577DBFC1
:10A38000CA24133E3D667DBFCC96113E74747DBFDA
:10A39000B708103E85827DBF8B7A0E3E6E907DBFE2
:10A3A0004AEC0C3E309E7DBFF35D0B3ECCAB7DBFD7
:10A3B00086CF093E40B97DBF0541083E8CC67DBFB2
:10A3C0006EB2063EB2D37DBFC223053EB1E07DBF73
:10A3D0000295033E88ED7DBF2E06023E38FA7DBF12
:10A3E0004577003EC2067EBF92D0FD3D24137EBF5E
:10A3F00073B2FA3D5E1F7EBF2C94F73D722B7EBF79
:10A40000C075F43D5E377EBF2E57F13D23437EBFBE
:10A410007638EE3DC14E7EBF9A19EB3D385A7EBF6D
:10A420009AFAE73D88657EBF76DBE43DB0707EBF7B
:10A430002EBCE13DB17B7EBFC49CDE3D8B867EBFE2
:10A44000377DDB3D3D917EBF895DD83DC99B7EBF99
:10A45000B93DD53D2DA67EBFC81DD23D69B07EBF9A
:10A46000B7FDCE3D7FBA7EBF86DDCB3D6DC47EBFDE
:10A4700036BDC83D34CE7EBFC69CC53DD4D77EBF59
:10A48000397CC23D4CE17EBF8D5BBF3D9DEA7EBF06
:10A49000C33ABC3DC7F37EBFDD19B93DC9FC7EBFE1
:10A4A000DAF8B53DA4057FBFBBD7B23D580E7FBFDC
:10A4B00080B6AF3DE4167FBF2B95AC3D491F7FBFF3
:10A4C000BA73A93D87277FBF3052A63D9D2F7FBF1E
:10A4D0008C30A33D8D377FBFCF0EA03D543F7FBF53
:10A4E000F9EC9C3DF4467FBF0ACB993D6D4E7FBF92
:10A4F00005A9963DBF557FBFE786933DE95C7FBFC9
:10A50000B464903DEC637FBF6A428D3DC76A7FBFF4
:10A510000A208A3D7B717FBF94FD863D08787FBF0E
:10A520000ADB833D6D7E7FBF6CB8803DAB847FBF0F
:10A53000742B7B3DC28A7FBFE9E5743DB1907FBF3C
:10A5400038A06E3D78967FBF625A683D189C7FBFE9
:10A550006814623D91A17FBF4CCE5B3DE3A67FBFF7
:10A560000E88553D0DAC7FBFAF414F3D0FB17FBF52
:10A570002FFB483DEAB57FBF91B4423D9EBA7FBFF5
:10A58000D56D3C3D2ABF7FBFFC26363D8FC37FBFC4
:10A5900007E02F3DCCC77FBFF698293DE2CB7FBFB8
:10A5A000CC51233DD1CF7FBF880A1D3D98D37FBFBB
:10A5B0002CC3163D37D77FBFB87B103DAFDA7FBFC6
:10A5C0002F340A3D00DE7FBF90EC033D29E17FBFC1
:10A5D000B949FB3C2BE47FBF2DBAEE3C05E77FBFBA
:10A5E0007B2AE23CB8E97FBFA69AD53C43EC7FBF0B
:10A5F000B00AC93CA7EE7FBF9B7ABC3CE3F07FBFAB
:10A6000069EAAF3CF8F27FBF1C5AA33CE6F47FBF77
:10A61000B6C9963CACF67FBF38398A3C4AF87FBF52
:10A620004B517B3CC1F97FBF0030623C11FB7FBFC7
:10A63000900E493C39FC7FBF02ED2F3C39FD7FBFB6
:10A6400059CB163C13FE7FBF3053FB3BC4FE7FBF8C
:10A65000890FC93B4EFF7FBFC1CB963BB1FF7FBF88
:10A66000C70F493BECFF7FBFD40FC93A000080BF42
:10A6700000000000ECFF7FBFD40FC9BAB1FF7FBF5D
:10A68000C70F49BB4EFF7FBFC1CB96BBC4FE7FBF88
:10A69000890FC9BB13FE7FBF3053FBBB39FD7FBFA2
:10A6A00059CB16BC39FC7FBF02ED2FBC11FB7FBF1D
:10A6B000900E49BCC1F97FBF003062BC4AF87FBF31
:10A6C0004B517BBCACF67FBF38398ABCE6F47FBF08
:10A6D000B6C996BCF8F27FBF1C5AA3BCE3F07FBF9B
:10A6E00069EAAFBCA7EE7FBF9B7ABCBC43EC7FBFDF
:10A6F000B00AC9BCB8E97FBFA69AD5BC05E77FBF41
:10A700007B2AE2BC2BE47FBF2DBAEEBC29E17FBFE0
:10A71000B949FBBC00DE7FBF90EC03BDAFDA7FBF61
:10A720002F340ABD37D77FBFB87B10BD98D37FBF0A
:10A730002CC316BDD1CF7FBF880A1DBDE2CB7FBF22
:10A74000CC5123BDCCC77FBFF69829BD8FC37FBF37
:10A7500007E02FBD2ABF7FBFFC2636BD9EBA7FBF54
:10A76000D56D3CBDEAB57FBF91B442BD0FB17FBF8F
:10A770002FFB48BD0DAC7FBFAF414FBDE3A67FBFF0
:10A780000E8855BD91A17FBF4CCE5BBD189C7FBF8D
:10A79000681462BD78967FBF625A68BDB1907FBF72
:10A7A00038A06EBDC28A7FBFE9E574BDAB847FBFB0
:10A7B000742B7BBD6D7E7FBF6CB880BD08787FBF7A
:10A7C0000ADB83BD7B717FBF94FD86BDC76A7FBFF7
:10A7D0000A208ABDEC637FBF6A428DBDE95C7FBF02
:10A7E000B46490BDBF557FBFE78693BD6D4E7FBFFC
:10A7F00005A996BDF4467FBF0ACB99BD543F7FBFE4
:10A80000F9EC9CBD8D377FBFCF0EA0BD9D2F7FBFC4
:10A810008C30A3BD87277FBF3052A6BD491F7FBFA5
:10A82000BA73A9BDE4167FBF2B95ACBD580E7FBF90
:10A8300080B6AFBDA4057FBFBBD7B2BDC9FC7EBF8C
:10A84000DAF8B5BDC7F37EBFDD19B9BD9DEA7EBF9D
:10A85000C33ABCBD4CE17EBF8D5BBFBDD4D77EBFCC
:10A86000397CC2BD34CE7EBFC69CC5BD6DC47EBF23
:10A8700036BDC8BD7FBA7EBF86DDCBBD69B07EBFA9
:10A88000B7FDCEBD2DA67EBFC81DD2BDC99B7EBF64
:10A89000B93DD5BD3D917EBF895DD8BD8B867EBF5C
:10A8A000377DDBBDB17B7EBFC49CDEBDB0707EBF9B
:10A8B0002EBCE1BD88657EBF76DBE4BD385A7EBF25
:10A8C0009AFAE7BDC14E7EBF9A19EBBD23437EBF06
:10A8D0007638EEBD5E377EBF2E57F1BD722B7EBF40
:10A8E000C075F4BD5E1F7EBF2C94F7BD24137EBFE0
:10A8F00073B2FABDC2067EBF92D0FDBD38FA7DBFED
:10A90000457700BE88ED7DBF2E0602BEB1E07DBF5B
:10A91000029503BEB2D37DBFC22305BE8CC67DBFE8
:10A920006EB206BE40B97DBF054108BECCAB7DBF4F
:10A9300086CF09BE309E7DBFF35D0BBE6E907DBF9E
:10A940004AEC0CBE85827DBF8B7A0EBE74747DBFCF
:10A95000B70810BE3D667DBFCC9611BEDE577DBFE9
:10A96000CA2413BE59497DBFB2B214BEAC3A7DBFF2
:10A97000834016BED82B7DBF3DCE17BEDD1C7DBFEC
:10A98000E05B19BEBC0D7DBF6BE91ABE73FE7CBFD8
:10A99000DE761CBE03EF7CBF38041EBE6CDF7CBFBE
:10A9A0007B911FBEAECF7CBFA51E21BEC9BF7CBFA1
:10A9B000B6AB22BEBDAF7CBFAD3824BE8A9F7CBF84
:10A9C0008CC525BE318F7CBF515227BEB07E7CBF67
:10A9D000FCDE28BE086E7CBF8D6B2ABE3A5D7CBF54
:10A9E00004F82BBE444C7CBF61842DBE283B7CBF49
:10A9F000A2102FBEE5297CBFC99C30BE7A187CBF4F
:10AA0000D42832BEE9067CBFC4B433BE31F57BBF67
:10AA1000984035BE53E37BBF50CC36BE4DD17BBF93
:10AA2000EC5738BE20BF7BBF6CE339BECDAC7BBFDB
:10AA3000CF6E3BBE539A7BBF15FA3CBEB2877BBF3D
:10AA40003E853EBEEA747BBF491040BEFC617BBFC1
:10AA5000379B41BEE74E7BBF072643BEAB3B7BBF68
:10AA6000B9B044BE48287BBF4D3B46BEBE147BBF39
:10AA7000C2C547BE0E017BBF185049BE37ED7ABF35
:10AA80004FDA4ABE3AD97ABF67644CBE16C57ABF60
:10AA900060EE4DBECBB07ABF38784FBE599C7ABFBE
:10AAA000F10151BEC1877ABF898B52BE02737ABF52
:10AAB000011554BE1C5E7ABF589E55BE10497ABF20
:10AAC0008F2757BEDD337ABFA4B058BE841E7ABF2D
:10AAD00097395ABE04097ABF6AC25BBE5EF379BF7A
:10AAE0001A4B5DBE91DD79BFA8D35EBE9DC779BF0D
:10AAF000135C60BE83B179BF5CE461BE439B79BFE8
:10AB0000836C63BEDC8479BF86F464BE4E6E79BF0D
:10AB1000667C66BE9A5779BF220468BEC04079BF82
:10AB2000BA8B69BEBF2979BF2F136BBE981279BF4C
:10AB30007F9A6CBE4AFB78BFAB216EBED6E378BF6E
:10AB4000B2A86FBE3BCC78BF942F71BE7BB478BFE8
:10AB500051B672BE939C78BFE83C74BE868478BFC1
:10AB60005AC375BE526C78BFA64977BEF85378BFFA
:10AB7000CCCF78BE773B78BFCB557ABED12278BF99
:10AB8000A4DB7BBE040A78BF56617DBE10F177BF9F
:10AB9000E1E67EBEF7D777BF223680BEB7BE77BF6D
:10ABA000C0F880BE51A577BF4ABB81BEC58B77BFB9
:10ABB000C07D82BE137277BF224083BE3A5877BFF2
:10ABC000700284BE3C3E77BFAAC484BE172477BF00
:10ABD000CE8685BECC0977BFDF4886BE5BEF76BFE9
:10ABE000DA0A87BEC4D476BFC1CC87BE07BA76BFA7
:10ABF000938E88BE249F76BF505089BE1B8476BF3B
:10AC0000F8118ABEEC6876BF8AD38ABE974D76BFAC
:10AC100007958BBE1B3276BF6E568CBE7A1676BFFA
:10AC2000C0178DBEB3FA75BFFCD88DBEC6DE75BF2A
:10AC3000229A8EBEB3C275BF325B8FBE7BA675BF34
:10AC40002C1C90BE1C8A75BF10DD90BE976D75BF21
:10AC5000DD9D91BEED5075BF945E92BE1D3475BFF3
:10AC6000351F93BE271775BFBFDF93BE0BFA74BFA6
:10AC700031A094BEC9DC74BF8D6095BE62BF74BF45
:10AC8000D22096BED5A174BF00E196BE228474BFC7
:10AC900017A197BE496674BF166198BE4B4874BF32
:10ACA000FE2099BE272A74BFCEE099BEDD0B74BF8B
:10ACB00086A09ABE6EED73BF27609BBED9CE73BFD0
:10ACC000AF1F9CBE1FB073BF20DF9CBE3F9173BF00
:10ACD000789E9DBE397273BFB85D9EBE0E5373BF22
:10ACE000DF1C9FBEBE3373BFEEDB9FBE471473BF36
:10ACF000E59AA0BEACF472BFC259A1BEEBD472BF3C
:10AD00008718A2BE04B572BF33D7A2BEF89472BF33
:10AD1000C595A3BEC77472BF3F54A4BE705472BF22
:10AD20009F12A5BEF43372BFE5D0A5BE521372BF09
:10AD3000128FA6BE8CF271BF254DA7BE9FD171BFE9
:10AD40001F0BA8BE8EB071BFFEC8A8BE578F71BFC3
:10AD5000C486A9BEFB6D71BF6F44AABE7A4C71BF99
:10AD60000102ABBED42A71BF77BFABBE080971BF69
:10AD7000D47CACBE17E770BF153AADBE02C570BF3C
:10AD80003CF7ADBEC6A270BF49B4AEBE668070BF10
:10AD90003A71AFBEE15D70BF102EB0BE373B70BFE1
:10ADA000CBEAB0BE671870BF6BA7B1BE73F56FBFBB
:10ADB000EF63B2BE5AD26FBF5820B3BE1BAF6FBF96
:10ADC000A5DCB3BEB88B6FBFD698B4BE30686FBF7A
:10ADD000EC54B5BE83446FBFE610B6BEB0206FBF63
:10ADE000C3CCB6BEBAFC6EBF8488B7BE9ED86EBF59
:10ADF0002A44B8BE5DB46EBFB2FFB8BEF88F6EBF56
:10AE00001EBBB9BE6D6B6EBF6E76BABEBE466EBF60
:10AE1000A031BBBEEB216EBFB6ECBBBEF2FC6DBF7A
:10AE2000AFA7BCBED5D76DBF8B62BDBE93B26DBFA1
:10AE30004A1DBEBE2D8D6DBFEBD7BEBEA1676DBFD7
:10AE40006F92BFBEF2416DBFD54CC0BE1D1C6DBF21
:10AE50001E07C1BE24F66CBF48C1C1BE07D06CBF7F
:10AE6000557BC2BEC5A96CBF4435C3BE5E836CBFF3
:10AE700015EFC3BED45C6CBFC8A8C4BE24366CBF7B
:10AE80005C62C5BE500F6CBFD21BC6BE58E86BBF1C
:10AE900029D5C6BE3BC16BBF628EC7BEFB996BBFD7
:10AEA0007C47C8BE95726BBF7700C9BE0C4B6BBFA9
:10AEB00053B9C9BE5E236BBF1072CABE8CFB6ABF9A
:10AEC000AE2ACBBE95D36ABF2CE3CBBE7BAB6ABFA9
:10AED0008B9BCCBE3C836ABFCA53CDBED95A6ABFD6
:10AEE000EA0BCEBE52326ABFEAC3CEBEA7096ABF22
:10AEF000CA7BCFBED7E069BF8A33D0BEE4B769BF93
:10AF00002AEBD0BECC8E69BFAAA2D1BE916569BF23
:10AF1000095AD2BE323C69BF4811D3BEAE1269BFD6
:10AF200067C8D3BE07E968BF647FD4BE3CBF68BFB3
:10AF30004136D5BE4C9568BFFDECD5BE396B68BFB8
:10AF400099A3D6BE034168BF135AD7BEA81668BFDF
:10AF50006B10D8BE2AEC67BFA3C6D8BE87C167BF37
:10AF6000B97CD9BEC19667BFAD32DABED86B67BFB8
:10AF700080E8DABECA4067BF319EDBBE991567BF65
:10AF8000C153DCBE45EA66BF2E09DDBECCBE66BF3E
:10AF900079BEDDBE309366BFA273DEBE716766BF49
:10AFA000A928DFBE8E3B66BF8DDDDFBE880F66BF82
:10AFB0004F92E0BE5EE365BFEE46E1BE10B765BFEF
:10AFC0006AFBE1BEA08A65BFC4AFE2BE0B5E65BF8F
:10AFD000FA63E3BE543165BF0E18E4BE790465BF61
:10AFE000FECBE4BE7BD764BFCB7FE5BE59AA64BF6E
:10AFF0007533E6BE147D64BFFBE6E6BEAC4F64BFAE
:10B000005D9AE7BE212264BF9C4DE8BE73F463BF26
:10B01000B700E9BEA1C663BFAEB3E9BEAC9863BFDB
:10B020008166EABE956A63BF3019EBBE5A3C63BFC6
:10B03000BBCBEBBEFC0D63BF217EECBE7BDF62BFF2
:10B040006330EDBED7B062BF80E2EDBE108262BF5A
:10B050007994EEBE265362BF4C46EFBE1A2462BFFF
:10B06000FBF7EFBEEAF461BF85A9F0BE98C561BFEA
:10B07000EA5AF1BE229661BF290CF2BE8A6661BF10
:10B0800043BDF2BED03661BF386EF3BEF20661BF7B
:10B09000071FF4BEF2D660BFB1CFF4BECFA660BF2B
:10B0A0003580F5BE897660BF9330F6BE214660BF1D
:10B0B000CBE0F6BE961560BFDC90F7BEE9E45FBF5B
:10B0C000C840F8BE19B45FBF8EF0F8BE27835FBFDB
:10B0D0002DA0F9BE12525FBFA54FFABEDB205FBFA5
:10B0E000F7FEFABE81EF5EBF22AEFBBE05BE5EBFBD
:10B0F000275DFCBE678C5EBF040CFDBEA65A5EBF1A
:10B10000BBBAFDBEC3285EBF4A69FEBEBEF65DBFC8
:10B11000B217FFBE97C45DBFF3C5FFBE4D925DBFC2
:10B12000063A00BFE15F5DBFFF9000BF532D5DBFDA
:10B13000E4E700BFA3FA5CBFB53E01BFD1C75CBF67
:10B14000739501BFDD945CBF1CEC01BFC7615CBFA0
:10B15000B14202BF8E2E5CBF329902BF34FB5BBF8F
:10B160009FEF02BFB8C75BBFF84503BF1A945BBF30
:10B170003D9C03BF5A605BBF6DF203BF792C5BBF80
:10B18000894804BF75F85ABF919E04BF50C45ABF86
:10B1900084F404BF09905ABF624A05BFA05B5ABF3E
:10B1A0002CA005BF16275ABFE2F505BF6AF259BFAA
:10B1B000824B06BF9CBD59BF0EA106BFAD8859BFCB
:10B1C00086F606BF9C5359BFE84B07BF6A1E59BF9E
:10B1D00036A107BF17E958BF6FF607BFA1B358BF25
:10B1E000924B08BF0B7E58BFA1A008BF534858BF61
:10B1F0009BF508BF791258BF7F4A09BF7FDC57BF54
:10B200004E9F09BF63A657BF09F409BF267057BFF9
:10B21000AD480ABFC73957BF3D9D0ABF480357BF56
:10B22000B7F10ABFA7CC56BF1C460BBFE59556BF6A
:10B230006B9A0BBF025F56BFA5EE0BBFFE2756BF32
:10B24000C9420CBFD9F055BFD7960CBF93B955BFB3
:10B25000D0EA0CBF2C8255BFB33E0DBFA44A55BFE8
:10B2600081920DBFFB1255BF38E60DBF31DB54BFD5
:10B27000DA390EBF47A354BF658D0EBF3B6B54BF79
:10B28000DBE00EBF0F3354BF3B340FBFC3FA53BFD5
:10B2900084870FBF55C253BFB8DA0FBFC78953BFEA
:10B2A000D52D10BF185153BFDC8010BF491853BFB4
:10B2B000CDD310BF59DF52BFA72611BF49A652BF39
:10B2C0006B7911BF186D52BF19CC11BFC63352BF75
:10B2D000B01E12BF54FA51BF307112BFC2C051BF6D
:10B2E0009AC312BF108751BFEE1513BF3D4D51BF1A
:10B2F0002A6813BF4A1351BF50BA13BF37D950BF82
:10B300005F0C14BF039F50BF585E14BFAF6450BFA3
:10B3100039B014BF3B2A50BF040215BFA8EF4FBF7E
:10B32000B75315BFF4B44FBF54A515BF1F7A4FBF15
:10B33000D9F615BF2B3F4FBF474816BF17044FBF65
:10B340009F9916BFE4C84EBFDFEA16BF908D4EBF6F
:10B35000073C17BF1C524EBF188D17BF89164EBF32
:10B3600012DE17BFD5DA4DBFF52E18BF029F4DBFB5
:10B37000C07F18BF10634DBF73D018BFFD264DBFEF
:10B380000F2119BFCBEA4CBF947119BF79AE4CBFE6
:10B3900000C219BF08724CBF55121ABF78354CBF96
:10B3A00093621ABFC7F84BBFB8B21ABFF8BB4BBF06
:10B3B000C6021BBF097F4BBFBB521BBFFA414BBF2D
:10B3C00099A21BBFCC044BBF5FF21BBF7FC74ABF14
:10B3D0000C421CBF138A4ABFA2911CBF874C4ABFB4
:10B3E0001FE11CBFDC0E4ABF84301DBF12D149BF14
:10B3F000D17F1DBF299349BF06CF1DBF215549BF2E
:10B40000221E1EBFFA1649BF266D1EBFB3D848BF05
:10B4100012BC1EBF4E9A48BFE50A1FBFCA5B48BF99
:10B420009F591FBF271D48BF41A81FBF65DE47BFEB
:10B43000CBF61FBF849F47BF3B4520BF856047BFFA
:10B44000939320BF672147BFD2E120BF2AE246BFC6
:10B45000F92F21BFCEA246BF067E21BF546346BF4F
:10B46000FBCB21BFBB2346BFD71922BF03E445BF97
:10B47000996722BF2DA445BF43B522BF396445BF9C
:10B48000D30223BF262445BF4B5023BFF5E344BF5F
:10B49000A99D23BFA5A344BFEEEA23BF376344BFE2
:10B4A0001A3824BFAB2244BF2C8524BF00E243BF1F
:10B4B00025D224BF38A143BF041F25BF516043BF1D
:10B4C000CB6B25BF4C1F43BF77B825BF29DE42BFDA
:10B4D0000A0526BFE89C42BF845126BF895B42BF54
:10B4E000E39D26BF0B1A42BF2AEA26BF70D841BF90
:10B4F000563627BFB79641BF688227BFE15441BF88
:10B5000061CE27BFEC1241BF401A28BFDAD040BF3E
:10B51000056628BFA98E40BFB0B128BF5C4C40BFB4
:10B5200041FD28BFF00940BFB84829BF67C73FBFEA
:10B53000159429BFC0843FBF57DF29BFFC413FBFDF
:10B54000802A2ABF1BFF3EBF8E752ABF1BBC3EBF91
:10B5500082C02ABFFF783EBF5B0B2BBFC5353EBF05
:10B560001B562BBF6EF23DBFBFA02BBFF9AE3DBF38
:10B570004AEB2BBF676B3DBFB9352CBFB8273DBF2A
:10B580000F802CBFECE33CBF49CA2CBF03A03CBFDB
:10B5900069142DBFFC5B3CBF6F5E2DBFD9173CBF4C
:10B5A00059A82DBF98D33BBF29F22DBF3B8F3BBF7E
:10B5B000DE3B2EBFC14A3BBF78852EBF29063BBF6D
:10B5C000F7CE2EBF75C13ABF5B182FBFA47C3ABF20
:10B5D000A5612FBFB7373ABFD3AA2FBFACF239BF8F
:10B5E000E6F32FBF85AD39BFDE3C30BF426839BFBF
:10B5F000BB8530BFE12239BF7CCE30BF65DD38BFAF
:10B60000221731BFCB9738BFAD5F31BF165238BF5D
:10B610001DA831BF430C38BF71F031BF55C637BFCD
:10B62000AA3832BF4A8037BFC78032BF233A37BFFC
:10B63000C9C832BFDFF336BFAF1033BF7FAD36BFEF
:10B640007A5833BF046736BF29A033BF6C2036BF9A
:10B65000BCE733BFB8D935BF342F34BFE79235BF0D
:10B660008F7634BFFB4B35BFCFBD34BFF30435BF3E
:10B67000F30435BFCFBD34BFFB4B35BF8F7634BF2E
:10B68000E79235BF342F34BFB8D935BFBCE733BFDD
:10B690006C2036BF29A033BF046736BF7A5833BF4A
:10B6A0007FAD36BFAF1033BFDFF336BFC9C832BF7F
:10B6B000233A37BFC78032BF4A8037BFAA3832BF6C
:10B6C00055C637BF71F031BF430C38BF1DA831BF1D
:10B6D000165238BFAD5F31BFCB9738BF221731BF8D
:10B6E00065DD38BF7CCE30BFE12239BFBB8530BFBE
:10B6F000426839BFDE3C30BF85AD39BFE6F32FBFAE
:10B70000ACF239BFD3AA2FBFB7373ABFA5612FBF5D
:10B71000A47C3ABF5B182FBF75C13ABFF7CE2EBFCE
:10B7200029063BBF78852EBFC14A3BBFDE3B2EBFFB
:10B730003B8F3BBF29F22DBF98D33BBF59A82DBFEC
:10B74000D9173CBF6F5E2DBFFC5B3CBF69142DBF9A
:10B7500003A03CBF49CA2CBFECE33CBF0F802CBF09
:10B76000B8273DBFB9352CBF676B3DBF4AEB2BBF38
:10B77000F9AE3DBFBFA02BBF6EF23DBF1B562BBF26
:10B78000C5353EBF5B0B2BBFFF783EBF82C02ABFD3
:10B790001BBC3EBF8E752ABF1BFF3EBF802A2ABF3F
:10B7A000FC413FBF57DF29BFC0843FBF159429BF6D
:10B7B00067C73FBFB84829BFF00940BF41FD28BF58
:10B7C0005C4C40BFB0B128BFA98E40BF056628BF02
:10B7D000DAD040BF401A28BFEC1241BF61CE27BF6C
:10B7E000E15441BF688227BFB79641BF563627BF95
:10B7F00070D841BF2AEA26BF0B1A42BFE39D26BF7D
:10B80000895B42BF845126BFE89C42BF0A0526BF20
:10B8100029DE42BF77B825BF4C1F43BFCB6B25BF86
:10B82000516043BF041F25BF38A143BF25D224BFA9
:10B8300000E243BF2C8524BFAB2244BF1A3824BF8B
:10B84000376344BFEEEA23BFA5A344BFA99D23BF2E
:10B85000F5E344BF4B5023BF262445BFD30223BF8B
:10B86000396445BF43B522BF2DA445BF996722BFA8
:10B8700003E445BFD71922BFBB2346BFFBCB21BF83
:10B88000546346BF067E21BFCEA246BFF92F21BF1B
:10B890002AE246BFD2E120BF672147BF939320BF72
:10B8A000856047BF3B4520BF849F47BFCBF61FBF86
:10B8B00065DE47BF41A81FBF271D48BF9F591FBF57
:10B8C000CA5B48BFE50A1FBF4E9A48BF12BC1EBFE5
:10B8D000B3D848BF266D1EBFFA1649BF221E1EBF31
:10B8E000215549BF06CF1DBF299349BFD17F1DBF39
:10B8F00012D149BF84301DBFDC0E4ABF1FE11CBFFF
:10B90000874C4ABFA2911CBF138A4ABF0C421CBF7E
:10B910007FC74ABF5FF21BBFCC044BBF99A21BBFBE
:10B92000FA414BBFBB521BBF097F4BBFC6021BBFB7
:10B93000F8BB4BBFB8B21ABFC7F84BBF93621ABF70
:10B9400078354CBF55121ABF08724CBF00C219BFE0
:10B9500079AE4CBF947119BFCBEA4CBF0F2119BF10
:10B96000FD264DBF73D018BF10634DBFC07F18BFF9
:10B97000029F4DBFF52E18BFD5DA4DBF12DE17BF9F
:10B9800089164EBF188D17BF1C524EBF073C17BFFC
:10B99000908D4EBFDFEA16BFE4C84EBF9F9916BF19
:10B9A00017044FBF474816BF2B3F4FBFD9F615BFEF
:10B9B0001F7A4FBF54A515BFF4B44FBFB75315BF7F
:10B9C000A8EF4FBF040215BF3B2A50BF39B014BFC8
:10B9D000AF6450BF585E14BF039F50BF5F0C14BFCD
:10B9E00037D950BF50BA13BF4A1351BF2A6813BF8B
:10B9F0003D4D51BFEE1513BF108751BF9AC312BF03
:10BA0000C2C051BF307112BF54FA51BFB01E12BF35
:10BA1000C63352BF19CC11BF186D52BF6B7911BF1D
:10BA200049A652BFA72611BF59DF52BFCDD310BFC1
:10BA3000491853BFDC8010BF185153BFD52D10BF1C
:10BA4000C78953BFB8DA0FBF55C253BF84870FBF32
:10BA5000C3FA53BF3B340FBF0F3354BFDBE00EBFFD
:10BA60003B6B54BF658D0EBF47A354BFDA390EBF81
:10BA700031DB54BF38E60DBFFB1255BF81920DBFBD
:10BA8000A44A55BFB33E0DBF2C8255BFD0EA0CBFB0
:10BA900093B955BFD7960CBFD9F055BFC9420CBF5B
:10BAA000FE2756BFA5EE0BBF025F56BF6B9A0BBFBA
:10BAB000E59556BF1C460BBFA7CC56BFB7F10ABFD2
:10BAC000480357BF3D9D0ABFC73957BFAD480ABF9E
:10BAD000267057BF09F409BF63A657BF4E9F09BF21
:10BAE0007FDC57BF7F4A09BF791258BF9BF508BF5B
:10BAF000534858BFA1A008BF0B7E58BF924B08BF48
:10BB0000A1B358BF6FF607BF17E958BF36A107BFEB
:10BB10006A1E59BFE84B07BF9C5359BF86F606BF44
:10BB2000AD8859BF0EA106BF9CBD59BF824B06BF51
:10BB30006AF259BFE2F505BF16275ABF2CA005BF10
:10BB4000A05B5ABF624A05BF09905ABF84F404BF84
:10BB500050C45ABF919E04BF75F85ABF894804BFAC
:10BB6000792C5BBF6DF203BF5A605BBF3D9C03BF86
:10BB70001A945BBFF84503BFB8C75BBF9FEF02BF16
:10BB800034FB5BBF329902BF8E2E5CBFB14202BF55
:10BB9000C7615CBF1CEC01BFDD945CBF739501BF46
:10BBA000D1C75CBFB53E01BFA3FA5CBFE4E700BFED
:10BBB000532D5DBFFF9000BFE15F5DBF063A00BF40
:10BBC0004D925DBFF3C5FFBE97C45DBFB217FFBE08
:10BBD000BEF65DBF4A69FEBEC3285EBFBBBAFDBEEE
:10BBE000A65A5EBF040CFDBE678C5EBF275DFCBE1F
:10BBF00005BE5EBF22AEFBBE81EF5EBFF7FEFABEA2
:10BC0000DB205FBFA54FFABE12525FBF2DA0F9BE69
:10BC100027835FBF8EF0F8BE19B45FBFC840F8BE7F
:10BC2000E9E45FBFDC90F7BE961560BFCBE0F6BEDF
:10BC3000214660BF9330F6BE897660BF3580F5BE81
:10BC4000CFA660BFB1CFF4BEF2D660BF071FF4BE6F
:10BC5000F20661BF386EF3BED03661BF43BDF2BE9F
:10BC60008A6661BF290CF2BE229661BFEA5AF1BE14
:10BC700098C561BF85A9F0BEEAF461BFFBF7EFBECE
:10BC80001A2462BF4C46EFBE265362BF7994EEBEC3
:10BC9000108262BF80E2EDBED7B062BF6330EDBEFE
:10BCA0007BDF62BF217EECBEFC0D63BFBBCBEBBE76
:10BCB0005A3C63BF3019EBBE956A63BF8166EABE2A
:10BCC000AC9863BFAEB3E9BEA1C663BFB700E9BE1F
:10BCD00073F463BF9C4DE8BE212264BF5D9AE7BE4A
:10BCE000AC4F64BFFBE6E6BE147D64BF7533E6BEB1
:10BCF00059AA64BFCB7FE5BE7BD764BFFECBE4BE51
:10BD0000790465BF0E18E4BE543165BFFA63E3BE23
:10BD10000B5E65BFC4AFE2BEA08A65BF6AFBE1BE31
:10BD200010B765BFEE46E1BE5EE365BF4F92E0BE71
:10BD3000880F66BF8DDDDFBE8E3B66BFA928DFBEE4
:10BD4000716766BFA273DEBE309366BF79BEDDBE8B
:10BD5000CCBE66BF2E09DDBE45EA66BFC153DCBE60
:10BD6000991567BF319EDBBECA4067BF80E8DABE67
:10BD7000D86B67BFAD32DABEC19667BFB97CD9BE9A
:10BD800087C167BFA3C6D8BE2AEC67BF6B10D8BEF9
:10BD9000A81668BF135AD7BE034168BF99A3D6BE81
:10BDA000396B68BFFDECD5BE4C9568BF4136D5BE3A
:10BDB0003CBF68BF647FD4BE07E968BF67C8D3BE15
:10BDC000AE1269BF4811D3BE323C69BF095AD2BE18
:10BDD000916569BFAAA2D1BECC8E69BF2AEBD0BE45
:10BDE000E4B769BF8A33D0BED7E069BFCA7BCFBE94
:10BDF000A7096ABFEAC3CEBE52326ABFEA0BCEBE03
:10BE0000D95A6ABFCA53CDBE3C836ABF8B9BCCBE96
:10BE10007BAB6ABF2CE3CBBE95D36ABFAE2ACBBE49
:10BE20008CFB6ABF1072CABE5E236BBF53B9C9BE1A
:10BE30000C4B6BBF7700C9BE95726BBF7C47C8BE09
:10BE4000FB996BBF628EC7BE3BC16BBF29D5C6BE17
:10BE500058E86BBFD21BC6BE500F6CBF5C62C5BE3C
:10BE600024366CBFC8A8C4BED45C6CBF15EFC3BE7B
:10BE70005E836CBF4435C3BEC5A96CBF557BC2BED3
:10BE800007D06CBF48C1C1BE24F66CBF1E07C1BE3F
:10BE90001D1C6DBFD54CC0BEF2416DBF6F92BFBEC1
:10BEA000A1676DBFEBD7BEBE2D8D6DBF4A1DBEBE57
:10BEB00093B26DBF8B62BDBED5D76DBFAFA7BCBE01
:10BEC000F2FC6DBFB6ECBBBEEB216EBFA031BBBEBA
:10BED000BE466EBF6E76BABE6D6B6EBF1EBBB9BE80
:10BEE000F88F6EBFB2FFB8BE5DB46EBF2A44B8BE55
:10BEF0009ED86EBF8488B7BEBAFC6EBFC3CCB6BE38
:10BF0000B0206FBFE610B6BE83446FBFEC54B5BE21
:10BF100030686FBFD698B4BEB88B6FBFA5DCB3BE18
:10BF20001BAF6FBF5820B3BE5AD26FBFEF63B2BE14
:10BF300073F56FBF6BA7B1BE671870BFCBEAB0BE19
:10BF4000373B70BF102EB0BEE15D70BF3A71AFBE1F
:10BF5000668070BF49B4AEBEC6A270BF3CF7ADBE2E
:10BF600002C570BF153AADBE17E770BFD47CACBE3A
:10BF7000080971BF77BFABBED42A71BF0102ABBE47
:10BF80007A4C71BF6F44AABEFB6D71BFC486A9BE57
:10BF9000578F71BFFEC8A8BE8EB071BF1F0BA8BE61
:10BFA0009FD171BF254DA7BE8CF271BF128FA6BE67
:10BFB000521372BFE5D0A5BEF43372BF9F12A5BE67
:10BFC000705472BF3F54A4BEC77472BFC595A3BE60
:10BFD000F89472BF33D7A2BE04B572BF8718A2BE51
:10BFE000EBD472BFC259A1BEACF472BFE59AA0BE39
:10BFF000471473BFEEDB9FBEBE3373BFDF1C9FBE13
:10C000000E5373BFB85D9EBE397273BF789E9DBEDE
:10C010003F9173BF20DF9CBE1FB073BFAF1F9CBE9C
:10C02000D9CE73BF27609BBE6EED73BF86A09ABE4C
:10C03000DD0B74BFCEE099BE272A74BFFE2099BEE7
:10C040004B4874BF166198BE496674BF17A197BE6E
:10C05000228474BF00E196BED5A174BFD22096BEE3
:10C0600062BF74BF8D6095BEC9DC74BF31A094BE41
:10C070000BFA74BFBFDF93BE271775BF351F93BE82
:10C080001D3475BF945E92BEED5075BFDD9D91BEAF
:10C09000976D75BF10DD90BE1C8A75BF2C1C90BEBD
:10C0A0007BA675BF325B8FBEB3C275BF229A8EBEB0
:10C0B000C6DE75BFFCD88DBEB3FA75BFC0178DBE86
:10C0C0007A1676BF6E568CBE1B3276BF07958BBE36
:10C0D000974D76BF8AD38ABEEC6876BFF8118ABEC8
:10C0E0001B8476BF505089BE249F76BF938E88BE36
:10C0F00007BA76BFC1CC87BEC4D476BFDA0A87BE82
:10C100005BEF76BFDF4886BECC0977BFCE8685BEA3
:10C11000172477BFAAC484BE3C3E77BF700284BE9A
:10C120003A5877BF224083BE137277BFC07D82BE6C
:10C13000C58B77BF4ABB81BE51A577BFC0F880BE13
:10C14000B7BE77BF223680BEF7D777BFE1E67EBEA7
:10C1500010F177BF56617DBE040A78BFA4DB7BBEB9
:10C16000D12278BFCB557ABE773B78BFCCCF78BE93
:10C17000F85378BFA64977BE526C78BF5AC375BED4
:10C18000868478BFE83C74BE939C78BF51B672BE7B
:10C190007BB478BF942F71BE3BCC78BFB2A86FBE82
:10C1A000D6E378BFAB216EBE4AFB78BF7F9A6CBEE8
:10C1B000981279BF2F136BBEBF2979BFBA8B69BEA6
:10C1C000C04079BF220468BE9A5779BF667C66BEBC
:10C1D0004E6E79BF86F464BEDC8479BF836C63BE27
:10C1E000439B79BF5CE461BE83B179BF135C60BEE1
:10C1F0009DC779BFA8D35EBE91DD79BF1A4B5DBEE6
:10C200005EF379BF6AC25BBE04097ABF97395ABE32
:10C21000841E7ABFA4B058BEDD337ABF8F2757BEC5
:10C2200010497ABF589E55BE1C5E7ABF011554BE98
:10C2300002737ABF898B52BEC1877ABFF10151BEAA
:10C24000599C7ABF38784FBECBB07ABF60EE4DBEF6
:10C2500016C57ABF67644CBE3AD97ABF4FDA4ABE78
:10C2600037ED7ABF185049BE0E017BBFC2C547BE2D
:10C27000BE147BBF4D3B46BE48287BBFB9B044BE11
:10C28000AB3B7BBF072643BEE74E7BBF379B41BE20
:10C29000FC617BBF491040BEEA747BBF3E853EBE59
:10C2A000B2877BBF15FA3CBE539A7BBFCF6E3BBEB5
:10C2B000CDAC7BBF6CE339BE20BF7BBFEC5738BE33
:10C2C0004DD17BBF50CC36BE53E37BBF984035BECB
:10C2D00031F57BBFC4B433BEE9067CBFD42832BE7F
:10C2E0007A187CBFC99C30BEE5297CBFA2102FBE46
:10C2F000283B7CBF61842DBE444C7CBF04F82BBE20
:10C300003A5D7CBF8D6B2ABE086E7CBFFCDE28BE0A
:10C31000B07E7CBF515227BE318F7CBF8CC525BEFD
:10C320008A9F7CBFAD3824BEBDAF7CBFB6AB22BEFA
:10C33000C9BF7CBFA51E21BEAECF7CBF7B911FBEF7
:10C340006CDF7CBF38041EBE03EF7CBFDE761CBEF4
:10C3500073FE7CBF6BE91ABEBC0D7DBFE05B19BEEE
:10C36000DD1C7DBF3DCE17BED82B7DBF834016BEE2
:10C37000AC3A7DBFB2B214BE59497DBFCA2413BEC8
:10C38000DE577DBFCC9611BE3D667DBFB70810BE9F
:10C3900074747DBF8B7A0EBE85827DBF4AEC0CBE65
:10C3A0006E907DBFF35D0BBE309E7DBF86CF09BE14
:10C3B000CCAB7DBF054108BE40B97DBF6EB206BEA5
:10C3C0008CC67DBFC22305BEB2D37DBF029503BE1E
:10C3D000B1E07DBF2E0602BE88ED7DBF457700BE71
:10C3E00038FA7DBF92D0FDBDC2067EBF73B2FABDE2
:10C3F00024137EBF2C94F7BD5E1F7EBFC075F4BDB5
:10C40000722B7EBF2E57F1BD5E377EBF7638EEBDF4
:10C4100023437EBF9A19EBBDC14E7EBF9AFAE7BD9A
:10C42000385A7EBF76DBE4BD88657EBF2EBCE1BD99
:10C43000B0707EBFC49CDEBDB17B7EBF377DDBBDEF
:10C440008B867EBF895DD8BD3D917EBFB93DD5BD90
:10C45000C99B7EBFC81DD2BD2DA67EBFB7FDCEBD78
:10C4600069B07EBF86DDCBBD7FBA7EBF36BDC8BD9D
:10C470006DC47EBFC69CC5BD34CE7EBF397CC2BDF7
:10C48000D4D77EBF8D5BBFBD4CE17EBFC33ABCBD80
:10C490009DEA7EBFDD19B9BDC7F37EBFDAF8B5BD31
:10C4A000C9FC7EBFBBD7B2BDA4057FBF80B6AFBD00
:10C4B000580E7FBF2B95ACBDE4167FBFBA73A9BDE4
:10C4C000491F7FBF3052A6BD87277FBF8C30A3BDD9
:10C4D0009D2F7FBFCF0EA0BD8D377FBFF9EC9CBDD8
:10C4E000543F7FBF0ACB99BDF4467FBF05A996BDD7
:10C4F0006D4E7FBFE78693BDBF557FBFB46490BDCF
:10C50000E95C7FBF6A428DBDEC637FBF0A208ABDB4
:10C51000C76A7FBF94FD86BD7B717FBF0ADB83BD89
:10C5200008787FBF6CB880BD6D7E7FBF742B7BBDEC
:10C53000AB847FBFE9E574BDC28A7FBF38A06EBD02
:10C54000B1907FBF625A68BD78967FBF681462BDA4
:10C55000189C7FBF4CCE5BBD91A17FBF0E8855BD9F
:10C56000E3A67FBFAF414FBD0DAC7FBF2FFB48BDE2
:10C570000FB17FBF91B442BDEAB57FBFD56D3CBD61
:10C580009EBA7FBFFC2636BD2ABF7FBF07E02FBD06
:10C590008FC37FBFF69829BDCCC77FBFCC5123BDC9
:10C5A000E2CB7FBF880A1DBDD1CF7FBF2CC316BD94
:10C5B00098D37FBFB87B10BD37D77FBF2F340ABD5C
:10C5C000AFDA7FBF90EC03BD00DE7FBFB949FBBC93
:10C5D00029E17FBF2DBAEEBC2BE47FBF7B2AE2BCF2
:10C5E00005E77FBFA69AD5BCB8E97FBFB00AC9BC32
:10C5F00043EC7FBF9B7ABCBCA7EE7FBF69EAAFBCB0
:10C60000E3F07FBF1C5AA3BCF8F27FBFB6C996BC4B
:10C61000E6F47FBF38398ABCACF67FBF4B517BBC98
:10C620004AF87FBF003062BCC1F97FBF900E49BCA1
:10C6300011FB7FBF02ED2FBC39FC7FBF59CB16BC6D
:10C6400039FD7FBF3053FBBB13FE7FBF890FC9BBD2
:10C65000C4FE7FBFC1CB96BB4EFF7FBFC70F49BB98
:10C66000B1FF7FBFD40FC9BAECFF7FBF00000080CD
:10C67000000080BFD40FC93AECFF7FBFC70F493B12
:10C68000B1FF7FBFC1CB963B4EFF7FBF890FC93B38
:10C69000C4FE7FBF3053FB3B13FE7FBF59CB163C1C
:10C6A00039FD7FBF02ED2F3C39FC7FBF900E493C26
:10C6B00011FB7FBF0030623CC1F97FBF4B517B3C17
:10C6C0004AF87FBF38398A3CACF67FBFB6C9963C82
:10C6D000E6F47FBF1C5AA33CF8F27FBF69EAAF3C87
:10C6E000E3F07FBF9B7ABC3CA7EE7FBFB00AC93C9A
:10C6F00043EC7FBFA69AD53CB8E97FBF7B2AE23CDA
:10C7000005E77FBF2DBAEE3C2BE47FBFB949FB3C68
:10C7100029E17FBF90EC033D00DE7FBF2F340A3D4F
:10C72000AFDA7FBFB87B103D37D77FBF2CC3163D34
:10C7300098D37FBF880A1D3DD1CF7FBFCC51233D09
:10C74000E2CB7FBFF698293DCCC77FBF07E02F3DE6
:10C750008FC37FBFFC26363D2ABF7FBFD56D3C3DD2
:10C760009EBA7FBF91B4423DEAB57FBF2FFB483DE3
:10C770000FB17FBFAF414F3D0DAC7FBF0E88553D20
:10C78000E3A67FBF4CCE5B3D91A17FBF6814623DA5
:10C79000189C7FBF625A683D78967FBF38A06E3D77
:10C7A000B1907FBFE9E5743DC28A7FBF742B7B3DAA
:10C7B000AB847FBF6CB8803D6D7E7FBF0ADB833D5D
:10C7C00008787FBF94FD863D7B717FBF0A208A3D3C
:10C7D000C76A7FBF6A428D3DEC637FBFB464903D02
:10C7E000E95C7FBFE786933DBF557FBF05A9963DB6
:10C7F0006D4E7FBF0ACB993DF4467FBFF9EC9C3D5F
:10C80000543F7FBFCF0EA03D8D377FBF8C30A33DFF
:10C810009D2F7FBF3052A63D87277FBFBA73A93DAA
:10C82000491F7FBF2B95AC3DE4167FBF80B6AF3D5F
:10C83000580E7FBFBBD7B23DA4057FBFDAF8B53D28
:10C84000C9FC7EBFDD19B93DC7F37EBFC33ABC3D0D
:10C850009DEA7EBF8D5BBF3D4CE17EBF397CC23D12
:10C86000D4D77EBFC69CC53D34CE7EBF36BDC83D45
:10C870006DC47EBF86DDCB3D7FBA7EBFB7FDCE3DAA
:10C8800069B07EBFC81DD23D2DA67EBFB93DD53D46
:10C89000C99B7EBF895DD83D3D917EBF377DDB3D25
:10C8A0008B867EBFC49CDE3DB17B7EBF2EBCE13D4E
:10C8B000B0707EBF76DBE43D88657EBF9AFAE73DC7
:10C8C000385A7EBF9A19EB3DC14E7EBF7638EE3D99
:10C8D00023437EBF2E57F13D5E377EBFC075F43DCA
:10C8E000722B7EBF2C94F73D5E1F7EBF73B2FA3D64
:10C8F00024137EBF92D0FD3DC2067EBF4577003E29
:10C9000038FA7DBF2E06023E88ED7DBF0295033EBC
:10C91000B1E07DBFC223053EB2D37DBF6EB2063EFD
:10C920008CC67DBF0541083E40B97DBF86CF093E1C
:10C93000CCAB7DBFF35D0B3E309E7DBF4AEC0C3E21
:10C940006E907DBF8B7A0E3E85827DBFB708103E0C
:10C9500074747DBFCC96113E3D667DBFCA24133EE4
:10C96000DE577DBFB2B2143E59497DBF8340163EAB
:10C97000AC3A7DBF3DCE173ED82B7DBFE05B193E64
:10C98000DD1C7DBF6BE91A3EBC0D7DBFDE761C3E13
:10C9900073FE7CBF38041E3E03EF7CBF7B911F3EBD
:10C9A0006CDF7CBFA51E213EAECF7CBFB6AB223E66
:10C9B000C9BF7CBFAD38243EBDAF7CBF8CC5253E12
:10C9C0008A9F7CBF5152273E318F7CBFFCDE283EC0
:10C9D000B07E7CBF8D6B2A3E086E7CBF04F82B3E78
:10C9E0003A5D7CBF61842D3E444C7CBFA2102F3E3B
:10C9F000283B7CBFC99C303EE5297CBFD428323E11
:10CA00007A187CBFC4B4333EE9067CBF9840353EFB
:10CA100031F57BBF50CC363E53E37BBFEC57383EFD
:10CA20004DD17BBF6CE3393E20BF7BBFCF6E3B3E19
:10CA3000CDAC7BBF15FA3C3E539A7BBF3E853E3E54
:10CA4000B2877BBF4910403EEA747BBF379B413EB3
:10CA5000FC617BBF0726433EE74E7BBFB9B0443E37
:10CA6000AB3B7BBF4D3B463E48287BBFC2C5473EE4
:10CA7000BE147BBF1850493E0E017BBF4FDA4A3EC1
:10CA800037ED7ABF67644C3E3AD97ABF60EE4D3ECF
:10CA900016C57ABF38784F3ECBB07ABFF101513E10
:10CAA000599C7ABF898B523EC1877ABF0115543E8B
:10CAB00002737ABF589E553E1C5E7ABF8F27573E41
:10CAC00010497ABFA4B0583EDD337ABF97395A3E39
:10CAD000841E7ABF6AC25B3E04097ABF1A4B5D3E70
:10CAE0005EF379BFA8D35E3E91DD79BF135C603EF3
:10CAF0009DC779BF5CE4613E83B179BF836C633EBF
:10CB0000439B79BF86F4643EDC8479BF667C663ED5
:10CB10004E6E79BF2204683E9A5779BFBA8B693E40
:10CB2000C04079BF2F136B3EBF2979BF7F9A6C3EFF
:10CB3000981279BFAB216E3E4AFB78BFB2A86F3E18
:10CB4000D6E378BF942F713E3BCC78BF51B6723E8E
:10CB50007BB478BFE83C743E939C78BF5AC3753E63
:10CB6000868478BFA649773E526C78BFCCCF783E9A
:10CB7000F85378BFCB557A3E773B78BFA4DB7B3E3A
:10CB8000D12278BF56617D3E040A78BFE1E67E3E41
:10CB900010F177BF2236803EF7D777BFC0F8803ECE
:10CBA000B7BE77BF4ABB813E51A577BFC07D823EED
:10CBB000C58B77BF2240833E137277BF7002843EDD
:10CBC0003A5877BFAAC4843E3C3E77BFCE86853EA6
:10CBD000172477BFDF48863ECC0977BFDA0A873E45
:10CBE0005BEF76BFC1CC873EC4D476BF938E883EC0
:10CBF00007BA76BF5050893E249F76BFF8118A3E0F
:10CC00001B8476BF8AD38A3EEC6876BF07958B3E3D
:10CC1000974D76BF6E568C3E1B3276BFC0178D3E49
:10CC20007A1676BFFCD88D3EB3FA75BF229A8E3E37
:10CC3000C6DE75BF325B8F3EB3C275BF2C1C903E03
:10CC40007BA675BF10DD903E1C8A75BFDD9D913EB1
:10CC5000976D75BF945E923EED5075BF351F933E44
:10CC60001D3475BFBFDF933E271775BF31A0943EBB
:10CC70000BFA74BF8D60953EC9DC74BFD220963E1E
:10CC800062BF74BF00E1963ED5A174BF17A1973E65
:10CC9000228474BF1661983E496674BFFE20993E97
:10CCA0004B4874BFCEE0993E272A74BF86A09A3EB7
:10CCB000DD0B74BF27609B3E6EED73BFAF1F9C3EC4
:10CCC000D9CE73BF20DF9C3E1FB073BF789E9D3EC0
:10CCD0003F9173BFB85D9E3E397273BFDF1C9F3EAC
:10CCE0000E5373BFEEDB9F3EBE3373BFE59AA03E8B
:10CCF000471473BFC259A13EACF472BF8718A23E5D
:10CD0000EBD472BF33D7A23E04B572BFC595A33E24
:10CD1000F89472BF3F54A43EC77472BF9F12A53EE1
:10CD2000705472BFE5D0A53EF43372BF128FA63E99
:10CD3000521372BF254DA73E8CF271BF1F0BA83E48
:10CD40009FD171BFFEC8A83E8EB071BFC486A93EF8
:10CD5000578F71BF6F44AA3EFB6D71BF0102AB3E9E
:10CD60007A4C71BF77BFAB3ED42A71BFD47CAC3E46
:10CD7000080971BF153AAD3E17E770BF3CF7AD3EED
:10CD800002C570BF49B4AE3EC6A270BF3A71AF3E95
:10CD9000668070BF102EB03EE15D70BFCBEAB03E42
:10CDA000373B70BF6BA7B13E671870BFEF63B23EF1
:10CDB00073F56FBF5820B33E5AD26FBFA5DCB33EA8
:10CDC0001BAF6FBFD698B43EB88B6FBFEC54B53E67
:10CDD00030686FBFE610B63E83446FBFC3CCB63E2B
:10CDE000B0206FBF8488B73EBAFC6EBF2A44B83EFD
:10CDF0009ED86EBFB2FFB83E5DB46EBF1EBBB93EDB
:10CE0000F88F6EBF6E76BA3E6D6B6EBFA031BB3EC3
:10CE1000BE466EBFB6ECBB3EEB216EBFAFA7BC3EBD
:10CE2000F2FC6DBF8B62BD3ED5D76DBF4A1DBE3EC5
:10CE300093B26DBFEBD7BE3E2D8D6DBF6F92BF3EDF
:10CE4000A1676DBFD54CC03EF2416DBF1E07C13E0C
:10CE50001D1C6DBF48C1C13E24F66CBF557BC23E50
:10CE600007D06CBF4435C33EC5A96CBF15EFC33EA8
:10CE70005E836CBFC8A8C43ED45C6CBF5C62C53E18
:10CE800024366CBFD21BC63E500F6CBF29D5C63EA0
:10CE900058E86BBF628EC73E3BC16BBF7C47C83E44
:10CEA000FB996BBF7700C93E95726BBF53B9C93E02
:10CEB0000C4B6BBF1072CA3E5E236BBFAE2ACB3EDB
:10CEC0008CFB6ABF2CE3CB3E95D36ABF8B9BCC3ED9
:10CED0007BAB6ABFCA53CD3E3C836ABFEA0BCE3EF2
:10CEE000D95A6ABFEAC3CE3E52326ABFCA7BCF3E2E
:10CEF000A7096ABF8A33D03ED7E069BF2AEBD03E8C
:10CF0000E4B769BFAAA2D13ECC8E69BF095AD23E0E
:10CF1000916569BF4811D33E323C69BF67C8D33EB3
:10CF2000AE1269BF647FD43E07E968BF4136D53E83
:10CF30003CBF68BFFDECD53E4C9568BF99A3D63E7B
:10CF4000396B68BF135AD73E034168BF6B10D83E98
:10CF5000A81668BFA3C6D83E2AEC67BFB97CD93EE5
:10CF600087C167BFAD32DA3EC19667BF80E8DA3E5F
:10CF7000D86B67BF319EDB3ECA4067BFC153DC3E02
:10CF8000991567BF2E09DD3E45EA66BF79BEDD3ED5
:10CF9000CCBE66BFA273DE3E309366BFA928DF3EDB
:10CFA000716766BF8DDDDF3E8E3B66BF4F92E03E10
:10CFB000880F66BFEE46E13E5EE365BF6AFBE13E79
:10CFC00010B765BFC4AFE23EA08A65BFFA63E33E17
:10CFD0000B5E65BF0E18E43E543165BFFECBE43EE8
:10CFE000790465BFCB7FE53E7BD764BF7533E63EF2
:10CFF00059AA64BFFBE6E63E147D64BF5D9AE73E36
:10D00000AC4F64BF9C4DE83E212264BFB700E93EAF
:10D0100073F463BFAEB3E93EA1C663BF8166EA3E67
:10D02000AC9863BF3019EB3E956A63BFBBCBEB3E58
:10D030005A3C63BF217EEC3EFC0D63BF6330ED3E86
:10D040007BDF62BF80E2ED3ED7B062BF7994EE3EF7
:10D05000108262BF4C46EF3E265362BFFBF7EF3EA5
:10D060001A2462BF85A9F03EEAF461BFEA5AF13E94
:10D0700098C561BF290CF23E229661BF43BDF23EC6
:10D080008A6661BF386EF33ED03661BF071FF43E3B
:10D09000F20661BFB1CFF43EF2D660BF3580F53EF7
:10D0A000CFA660BF9330F63E897660BFCBE0F63EF8
:10D0B000214660BFDC90F73E961560BFC840F83E41
:10D0C000E9E45FBF8EF0F83E19B45FBF2DA0F93ED2
:10D0D00027835FBFA54FFA3E12525FBFF7FEFA3EAD
:10D0E000DB205FBF22AEFB3E81EF5EBF275DFC3ED3
:10D0F00005BE5EBF040CFD3E678C5EBFBBBAFD3E45
:10D10000A65A5EBF4A69FE3EC3285EBFB217FF3E05
:10D11000BEF65DBFF3C5FF3E97C45DBF063A003F54
:10D120004D925DBFFF90003FE15F5DBFE4E7003FD0
:10D13000532D5DBFB53E013FA3FA5CBF7395013F20
:10D14000D1C75CBF1CEC013FDD945CBFB142023F24
:10D15000C7615CBF3299023F8E2E5CBF9FEF023FDA
:10D1600034FB5BBFF845033FB8C75BBF3D9C033F43
:10D170001A945BBF6DF2033F5A605BBF8948043F5E
:10D18000792C5BBF919E043F75F85ABF84F4043F2D
:10D1900050C45ABF624A053F09905ABF2CA0053FB0
:10D1A000A05B5ABFE2F5053F16275ABF824B063FE8
:10D1B0006AF259BF0EA1063F9CBD59BF86F6063FD5
:10D1C000AD8859BFE84B073F9C5359BF36A1073F75
:10D1D0006A1E59BF6FF6073F17E958BF924B083FC9
:10D1E000A1B358BFA1A0083F0B7E58BF9BF5083FD5
:10D1F000534858BF7F4A093F791258BF4E9F093F95
:10D200007FDC57BF09F4093F63A657BFAD480A3F0B
:10D21000267057BF3D9D0A3FC73957BFB7F10A3F38
:10D22000480357BF1C460B3FA7CC56BF6B9A0B3F1A
:10D23000E59556BFA5EE0B3F025F56BFC9420C3FB6
:10D24000FE2756BFD7960C3FD9F055BFD0EA0C3F0A
:10D2500093B955BFB33E0D3F2C8255BF81920D3F10
:10D26000A44A55BF38E60D3FFB1255BFDA390E3FD1
:10D2700031DB54BF658D0E3F47A354BFDBE00E3F4B
:10D280003B6B54BF3B340F3F0F3354BF84870F3F7A
:10D29000C3FA53BFB8DA0F3F55C253BFD52D103F65
:10D2A000C78953BFDC80103F185153BFCDD3103F07
:10D2B000491853BFA726113F59DF52BF6B79113F61
:10D2C00049A652BF19CC113F186D52BFB01E123F74
:10D2D000C63352BF3071123F54FA51BF9AC3123F46
:10D2E000C2C051BFEE15133F108751BF2A68133FCC
:10D2F0003D4D51BF50BA133F4A1351BF5F0C143F0D
:10D3000037D950BF585E143F039F50BF39B0143F08
:10D31000AF6450BF0402153F3B2A50BFB753153FBF
:10D32000A8EF4FBF54A5153FF4B44FBFD9F6153F32
:10D330001F7A4FBF4748163F2B3F4FBF9F99163F5D
:10D3400017044FBFDFEA163FE4C84EBF073C173F44
:10D35000908D4EBF188D173F1C524EBF12DE173FE7
:10D3600089164EBFF52E183FD5DA4DBFC07F183F46
:10D37000029F4DBF73D0183F10634DBF0F21193F5F
:10D38000FD264DBF9471193FCBEA4CBF00C2193F37
:10D3900079AE4CBF55121A3F08724CBF93621A3FC8
:10D3A00078354CBFB8B21A3FC7F84BBFC6021B3F17
:10D3B000F8BB4BBFBB521B3F097F4BBF99A21B3F22
:10D3C000FA414BBF5FF21B3FCC044BBF0C421C3FEA
:10D3D0007FC74ABFA2911C3F138A4ABF1FE11C3F6F
:10D3E000874C4ABF84301D3FDC0E4ABFD17F1D3FB2
:10D3F00012D149BF06CF1D3F299349BF221E1E3FB0
:10D40000215549BF266D1E3FFA1649BF12BC1E3F6B
:10D41000B3D848BFE50A1F3F4E9A48BF9F591F3FE8
:10D42000CA5B48BF41A81F3F271D48BFCBF61F3F1F
:10D4300065DE47BF3B45203F849F47BF9393203F16
:10D44000856047BFD2E1203F672147BFF92F213FC9
:10D450002AE246BF067E213FCEA246BFFBCB213F3C
:10D46000546346BFD719223FBB2346BF9967223F6B
:10D4700003E445BF43B5223F2DA445BFD302233F5C
:10D48000396445BF4B50233F262445BFA99D233F08
:10D49000F5E344BFEEEA233FA5A344BF1A38243F77
:10D4A000376344BF2C85243FAB2244BF25D2243FA1
:10D4B00000E243BF041F253F38A143BFCB6B253F8C
:10D4C000516043BF77B8253F4C1F43BF0A05263F35
:10D4D00029DE42BF8451263FE89C42BFE39D263FA0
:10D4E000895B42BF2AEA263F0B1A42BF5636273FC6
:10D4F00070D841BF6882273FB79641BF61CE273FB2
:10D50000E15441BF401A283FEC1241BF0566283F55
:10D51000DAD040BFB0B1283FA98E40BF41FD283FBF
:10D520005C4C40BFB848293FF00940BF1594293FE3
:10D5300067C73FBF57DF293FC0843FBF802A2A3FCC
:10D54000FC413FBF8E752A3F1BFF3EBF82C02A3F72
:10D550001BBC3EBF5B0B2B3FFF783EBF1B562B3FD8
:10D56000C5353EBFBFA02B3F6EF23DBF4AEB2B3F00
:10D57000F9AE3DBFB9352C3F676B3DBF0F802C3FE7
:10D58000B8273DBF49CA2C3FECE33CBF69142D3F8F
:10D5900003A03CBF6F5E2D3FFC5B3CBF59A82D3FF5
:10D5A000D9173CBF29F22D3F98D33BBFDE3B2E3F1E
:10D5B0003B8F3BBF78852E3FC14A3BBFF7CE2E3F06
:10D5C00029063BBF5B182F3F75C13ABFA5612F3FAE
:10D5D000A47C3ABFD3AA2F3FB7373ABFE6F32F3F19
:10D5E000ACF239BFDE3C303F85AD39BFBB85303F43
:10D5F000426839BF7CCE303FE12239BF2217313F2C
:10D6000065DD38BFAD5F313FCB9738BF1DA8313FD7
:10D61000165238BF71F0313F430C38BFAA38323F41
:10D6200055C637BFC780323F4A8037BFC9C8323F6F
:10D63000233A37BFAF10333FDFF336BF7A58333F5B
:10D640007FAD36BF29A0333F046736BFBCE7333F09
:10D650006C2036BF342F343FB8D935BF8F76343F76
:10D66000E79235BFCFBD343FFB4B35BFF304353FA9
:10D67000F30435BFFB4B353FCFBD34BFE792353F99
:10D680008F7634BFB8D9353F342F34BF6C20363F46
:10D69000BCE733BF0467363F29A033BF7FAD363FB9
:10D6A0007A5833BFDFF3363FAF1033BF233A373FEB
:10D6B000C9C832BF4A80373FC78032BF55C6373FDF
:10D6C000AA3832BF430C383F71F031BF1652383F91
:10D6D0001DA831BFCB97383FAD5F31BF65DD383F07
:10D6E000221731BFE122393F7CCE30BF4268393F3B
:10D6F000BB8530BF85AD393FDE3C30BFACF2393F32
:10D70000E6F32FBFB7373A3FD3AA2FBFA47C3A3FE7
:10D71000A5612FBF75C13A3F5B182FBF29063B3F5C
:10D72000F7CE2EBFC14A3B3F78852EBF3B8F3B3F94
:10D73000DE3B2EBF98D33B3F29F22DBFD9173C3F8C
:10D7400059A82DBFFC5B3C3F6F5E2DBF03A03C3F43
:10D7500069142DBFECE33C3F49CA2CBFB8273D3FBD
:10D760000F802CBF676B3D3FB9352CBFF9AE3D3FF5
:10D770004AEB2BBF6EF23D3FBFA02BBFC5353E3FEE
:10D780001B562BBFFF783E3F5B0B2BBF1BBC3E3FA6
:10D7900082C02ABF1BFF3E3F8E752ABFFC413F3F20
:10D7A000802A2ABFC0843F3F57DF29BF67C73F3F5A
:10D7B000159429BFF009403FB84829BF5C4C403F51
:10D7C00041FD28BFA98E403FB0B128BFDAD0403F0D
:10D7D000056628BFEC12413F401A28BFE154413F83
:10D7E00061CE27BFB796413F688227BF70D8413FBF
:10D7F000563627BF0B1A423F2AEA26BF895B423FB3
:10D80000E39D26BFE89C423F845126BF29DE423F6C
:10D810000A0526BF4C1F433F77B825BF5160433FE1
:10D82000CB6B25BF38A1433F041F25BF00E2433F18
:10D8300025D224BFAB22443F2C8524BF3763443F0D
:10D840001A3824BFA5A3443FEEEA23BFF5E3443FC3
:10D85000A99D23BF2624453F4B5023BF3964453F34
:10D86000D30223BF2DA4453F43B522BF03E4453F68
:10D87000996722BFBB23463FD71922BF5463463F57
:10D88000FBCB21BFCEA2463F067E21BF2AE2463F08
:10D89000F92F21BF6721473FD2E120BF8560473F75
:10D8A000939320BF849F473F3B4520BF65DE473FA2
:10D8B000CBF61FBF271D483F41A81FBFCA5B483F8B
:10D8C0009F591FBF4E9A483FE50A1FBFB3D8483F34
:10D8D00012BC1EBFFA16493F266D1EBF2155493F97
:10D8E000221E1EBF2993493F06CF1DBF12D1493FBB
:10D8F000D17F1DBFDC0E4A3F84301DBF874C4A3F9D
:10D900001FE11CBF138A4A3FA2911CBF7FC74A3F39
:10D910000C421CBFCC044B3F5FF21BBFFA414B3F94
:10D9200099A21BBF097F4B3FBB521BBFF8BB4B3FAC
:10D93000C6021BBFC7F84B3FB8B21ABF78354C3F81
:10D9400093621ABF08724C3F55121ABF79AE4C3F12
:10D9500000C219BFCBEA4C3F947119BFFD264D3F61
:10D960000F2119BF10634D3F73D018BF029F4D3F69
:10D97000C07F18BFD5DA4D3FF52E18BF89164E3F30
:10D9800012DE17BF1C524E3F188D17BF908D4E3FB1
:10D99000073C17BFE4C84E3FDFEA16BF17044F3FEE
:10D9A0009F9916BF2B3F4F3F474816BF1F7A4F3FE7
:10D9B000D9F615BFF4B44F3F54A515BFA8EF4F3F9C
:10D9C000B75315BF3B2A503F040215BFAF64503F09
:10D9D00039B014BF039F503F585E14BF37D9503F32
:10D9E0005F0C14BF4A13513F50BA13BF3D4D513F16
:10D9F0002A6813BF1087513FEE1513BFC2C0513FB5
:10DA00009AC312BF54FA513F307112BFC633523F0E
:10DA1000B01E12BF186D523F19CC11BF49A6523F1C
:10DA20006B7911BF59DF523FA72611BF4918533FE9
:10DA3000CDD310BF1851533FDC8010BFC789533F6F
:10DA4000D52D10BF55C2533FB8DA0FBFC3FA533FAD
:10DA500084870FBF0F33543F3B340FBF3B6B543FA2
:10DA6000DBE00EBF47A3543F658D0EBF31DB543F53
:10DA7000DA390EBFFB12553F38E60DBFA44A553FB9
:10DA800081920DBF2C82553FB33E0DBF93B9553FD8
:10DA9000D0EA0CBFD9F0553FD7960CBFFE27563FB2
:10DAA000C9420CBF025F563FA5EE0BBFE595563F3E
:10DAB0006B9A0BBFA7CC563F1C460BBF4803573F82
:10DAC000B7F10ABFC739573F3D9D0ABF2670573F80
:10DAD000AD480ABF63A6573F09F409BF7FDC573F33
:10DAE0004E9F09BF7912583F7F4A09BF5348583F9C
:10DAF0009BF508BF0B7E583FA1A008BFA1B3583FBC
:10DB0000924B08BF17E9583F6FF607BF6A1E593F8F
:10DB100036A107BF9C53593FE84B07BFAD88593F1B
:10DB200086F606BF9CBD593F0EA106BF6AF2593F5B
:10DB3000824B06BF16275A3FE2F505BFA05B5A3F4E
:10DB40002CA005BF09905A3F624A05BF50C45A3FF6
:10DB500084F404BF75F85A3F919E04BF792C5B3F53
:10DB6000894804BF5A605B3F6DF203BF1A945B3F64
:10DB70003D9C03BFB8C75B3FF84503BF34FB5B3F29
:10DB80009FEF02BF8E2E5C3F329902BFC7615C3FA0
:10DB9000B14202BFDD945C3F1CEC01BFD1C75C3FCA
:10DBA000739501BFA3FA5C3FB53E01BF532D5D3FA6
:10DBB000E4E700BFE15F5D3FFF9000BF4D925D3F36
:10DBC000063A00BF97C45D3FF3C5FFBEBEF65D3F9A
:10DBD000B217FFBEC3285E3F4A69FEBEA65A5E3F2B
:10DBE000BBBAFDBE678C5E3F040CFDBE05BE5E3F4A
:10DBF000275DFCBE81EF5E3F22AEFBBEDB205F3FB8
:10DC0000F7FEFABE12525F3FA54FFABE27835F3F71
:10DC10002DA0F9BE19B45F3F8EF0F8BEE9E45F3F76
:10DC2000C840F8BE9615603FDC90F7BE2146603FC5
:10DC3000CBE0F6BE8976603F9330F6BECFA6603F5C
:10DC40003580F5BEF2D6603FB1CFF4BEF206613F3B
:10DC5000071FF4BED036613F386EF3BE8A66613F5F
:10DC600043BDF2BE2296613F290CF2BE98C5613FCA
:10DC7000EA5AF1BEEAF4613F85A9F0BE1A24623F78
:10DC8000FBF7EFBE2653623F4C46EFBE1082623F69
:10DC90007994EEBED7B0623F80E2EDBE7BDF623F9B
:10DCA0006330EDBEFC0D633F217EECBE5A3C633F0A
:10DCB000BBCBEBBE956A633F3019EBBEAC98633FBC
:10DCC0008166EABEA1C6633FAEB3E9BE73F4633FAB
:10DCD000B700E9BE2122643F9C4DE8BEAC4F643FD3
:10DCE0005D9AE7BE147D643FFBE6E6BE59AA643F39
:10DCF0007533E6BE7BD7643FCB7FE5BE7904653FD5
:10DD0000FECBE4BE5431653F0E18E4BE0B5E653FAA
:10DD1000FA63E3BEA08A653FC4AFE2BE10B7653FB9
:10DD20006AFBE1BE5EE3653FEE46E1BE880F663FFB
:10DD30004F92E0BE8E3B663F8DDDDFBE7167663F72
:10DD4000A928DFBE3093663FA273DEBECCBE663F1D
:10DD500079BEDDBE45EA663F2E09DDBE9915673FF7
:10DD6000C153DCBECA40673F319EDBBED86B673F04
:10DD700080E8DABEC196673FAD32DABE87C1673F41
:10DD8000B97CD9BE2AEC673FA3C6D8BEA816683FA7
:10DD90006B10D8BE0341683F135AD7BE396B683F3A
:10DDA00099A3D6BE4C95683FFDECD5BE3CBF683FFD
:10DDB0004136D5BE07E9683F647FD4BEAE12693FE5
:10DDC00067C8D3BE323C693F4811D3BE9165693FF5
:10DDD000095AD2BECC8E693FAAA2D1BEE4B7693F30
:10DDE0002AEBD0BED7E0693F8A33D0BEA7096A3F8D
:10DDF000CA7BCFBE52326A3FEAC3CEBED95A6A3F0F
:10DE0000EA0BCEBE3C836A3FCA53CDBE7BAB6A3FB2
:10DE10008B9BCCBE95D36A3F2CE3CBBE8CFB6A3F79
:10DE2000AE2ACBBE5E236B3F1072CABE0C4B6B3F5B
:10DE300053B9C9BE95726B3F7700C9BEFB996B3F62
:10DE40007C47C8BE3BC16B3F628EC7BE58E86B3F84
:10DE500029D5C6BE500F6C3FD21BC6BE24366C3FC0
:10DE60005C62C5BED45C6C3FC8A8C4BE5E836C3F18
:10DE700015EFC3BEC5A96C3F4435C3BE07D06C3F88
:10DE8000557BC2BE24F66C3F48C1C1BE1D1C6D3F10
:10DE90001E07C1BEF2416D3FD54CC0BEA1676D3FAC
:10DEA0006F92BFBE2D8D6D3FEBD7BEBE93B26D3F5F
:10DEB0004A1DBEBED5D76D3F8B62BDBEF2FC6D3F25
:10DEC000AFA7BCBEEB216E3FB6ECBBBEBE466E3FFD
:10DED000A031BBBE6D6B6E3F6E76BABEF88F6E3FE3
:10DEE0001EBBB9BE5DB46E3FB2FFB8BE9ED86E3FDA
:10DEF0002A44B8BEBAFC6E3F8488B7BEB0206F3FDC
:10DF0000C3CCB6BE83446F3FE610B6BE30686F3FE9
:10DF1000EC54B5BEB88B6F3FD698B4BE1BAF6F3F05
:10DF2000A5DCB3BE5AD26F3F5820B3BE73F56F3F26
:10DF3000EF63B2BE6718703F6BA7B1BE373B703F4F
:10DF4000CBEAB0BEE15D703F102EB0BE6680703F80
:10DF50003A71AFBEC6A2703F49B4AEBE02C5703FB3
:10DF60003CF7ADBE17E7703F153AADBE0809713FEB
:10DF7000D47CACBED42A713F77BFABBE7A4C713F24
:10DF80000102ABBEFB6D713F6F44AABE578F713F5C
:10DF9000C486A9BE8EB0713FFEC8A8BE9FD1713F96
:10DFA0001F0BA8BE8CF2713F254DA7BE5213723FC6
:10DFB000128FA6BEF433723FE5D0A5BE7054723FF7
:10DFC0009F12A5BEC774723F3F54A4BEF894723F1F
:10DFD000C595A3BE04B5723F33D7A2BEEBD4723F42
:10DFE0008718A2BEACF4723FC259A1BE4714733F5A
:10DFF000E59AA0BEBE33733FEEDB9FBE0E53733F68
:10E00000DF1C9FBE3972733FB85D9EBE3F91733F68
:10E01000789E9DBE1FB0733F20DF9CBED9CE733F5C
:10E02000AF1F9CBE6EED733F27609BBEDD0B743F40
:10E0300086A09ABE272A743FCEE099BE4B48743F13
:10E04000FE2099BE4966743F166198BE2284743FD3
:10E0500017A197BED5A1743F00E196BE62BF743F81
:10E06000D22096BEC9DC743F8D6095BE0BFA743F1A
:10E0700031A094BE2717753FBFDF93BE1D34753F97
:10E08000351F93BEED50753F945E92BE976D753F00
:10E09000DD9D91BE1C8A753F10DD90BE7BA6753F4D
:10E0A0002C1C90BEB3C2753F325B8FBEC6DE753F7F
:10E0B000229A8EBEB3FA753FFCD88DBE7A16763F93
:10E0C000C0178DBE1B32763F6E568CBE974D763F85
:10E0D00007958BBEEC68763F8AD38ABE1B84763F59
:10E0E000F8118ABE249F763F505089BE07BA763F0A
:10E0F000938E88BEC4D4763FC1CC87BE5BEF763F9B
:10E10000DA0A87BECC09773FDF4886BE1724773FFF
:10E11000CE8685BE3C3E773FAAC484BE3A58773F40
:10E12000700284BE1372773F224083BEC58B773F57
:10E13000C07D82BE51A5773F4ABB81BEB7BE773F47
:10E14000C0F880BEF7D7773F223680BE10F1773F08
:10E15000E1E67EBE040A783F56617DBED122783F5B
:10E16000A4DB7BBE773B783FCB557ABEF853783F34
:10E17000CCCF78BE526C783FA64977BE8684783F74
:10E180005AC375BE939C783FE83C74BE7BB4783F1D
:10E1900051B672BE3BCC783F942F71BED6E3783F28
:10E1A000B2A86FBE4AFB783FAB216EBE9812793F92
:10E1B0007F9A6CBEBF29793F2F136BBEC040793F59
:10E1C000BA8B69BE9A57793F220468BE4E6E793F7A
:10E1D000667C66BEDC84793F86F464BE439B793FEF
:10E1E000836C63BE83B1793F5CE461BE9DC7793FB8
:10E1F000135C60BE91DD793FA8D35EBE5EF3793FCC
:10E200001A4B5DBE04097A3F6AC25BBE841E7A3F28
:10E2100097395ABEDD337A3FA4B058BE10497A3FD1
:10E220008F2757BE1C5E7A3F589E55BE02737A3FB9
:10E23000011554BEC1877A3F898B52BE599C7A3FE3
:10E24000F10151BECBB07A3F38784FBE16C57A3F48
:10E2500060EE4DBE3AD97A3F67644CBE37ED7A3FE7
:10E260004FDA4ABE0E017B3F185049BEBE147B3FB9
:10E27000C2C547BE48287B3F4D3B46BEAB3B7B3FBC
:10E28000B9B044BEE74E7B3F072643BEFC617B3FEF
:10E29000379B41BEEA747B3F491040BEB2877B3F4B
:10E2A0003E853EBE539A7B3F15FA3CBECDAC7B3FCC
:10E2B000CF6E3BBE20BF7B3F6CE339BE4DD17B3F71
:10E2C000EC5738BE53E37B3F50CC36BE31F57B3F35
:10E2D000984035BEE9067C3FC4B433BE7A187C3F13
:10E2E000D42832BEE5297C3FC99C30BE283B7C3F08
:10E2F000A2102FBE444C7C3F61842DBE3A5D7C3F12
:10E3000004F82BBE086E7C3F8D6B2ABEB07E7C3F2E
:10E31000FCDE28BE318F7C3F515227BE8A9F7C3F56
:10E320008CC525BEBDAF7C3FAD3824BEC9BF7C3F88
:10E33000B6AB22BEAECF7C3FA51E21BE6CDF7C3FBC
:10E340007B911FBE03EF7C3F38041EBE73FE7C3FF3
:10E35000DE761CBEBC0D7D3F6BE91ABEDD1C7D3F29
:10E36000E05B19BED82B7D3F3DCE17BEAC3A7D3F5A
:10E37000834016BE59497D3FB2B214BEDE577D3F81
:10E38000CA2413BE3D667D3FCC9611BE74747D3F9A
:10E39000B70810BE85827D3F8B7A0EBE6E907D3FA2
:10E3A0004AEC0CBE309E7D3FF35D0BBECCAB7D3F97
:10E3B00086CF09BE40B97D3F054108BE8CC67D3F72
:10E3C0006EB206BEB2D37D3FC22305BEB1E07D3F33
:10E3D000029503BE88ED7D3F2E0602BE38FA7D3FD2
:10E3E000457700BEC2067E3F92D0FDBD24137E3F1E
:10E3F00073B2FABD5E1F7E3F2C94F7BD722B7E3F39
:10E40000C075F4BD5E377E3F2E57F1BD23437E3F7E
:10E410007638EEBDC14E7E3F9A19EBBD385A7E3F2D
:10E420009AFAE7BD88657E3F76DBE4BDB0707E3F3B
:10E430002EBCE1BDB17B7E3FC49CDEBD8B867E3FA2
:10E44000377DDBBD3D917E3F895DD8BDC99B7E3F59
:10E45000B93DD5BD2DA67E3FC81DD2BD69B07E3F5A
:10E46000B7FDCEBD7FBA7E3F86DDCBBD6DC47E3F9E
:10E4700036BDC8BD34CE7E3FC69CC5BDD4D77E3F19
:10E48000397CC2BD4CE17E3F8D5BBFBD9DEA7E3FC6
:10E49000C33ABCBDC7F37E3FDD19B9BDC9FC7E3FA1
:10E4A000DAF8B5BDA4057F3FBBD7B2BD580E7F3F9C
:10E4B00080B6AFBDE4167F3F2B95ACBD491F7F3FB3
:10E4C000BA73A9BD87277F3F3052A6BD9D2F7F3FDE
:10E4D0008C30A3BD8D377F3FCF0EA0BD543F7F3F13
:10E4E000F9EC9CBDF4467F3F0ACB99BD6D4E7F3F52
:10E4F00005A996BDBF557F3FE78693BDE95C7F3F89
:10E50000B46490BDEC637F3F6A428DBDC76A7F3FB4
:10E510000A208ABD7B717F3F94FD86BD08787F3FCE
:10E520000ADB83BD6D7E7F3F6CB880BDAB847F3FCF
:10E53000742B7BBDC28A7F3FE9E574BDB1907F3FFC
:10E5400038A06EBD78967F3F625A68BD189C7F3FA9
:10E55000681462BD91A17F3F4CCE5BBDE3A67F3FB7
:10E560000E8855BD0DAC7F3FAF414FBD0FB17F3F12
:10E570002FFB48BDEAB57F3F91B442BD9EBA7F3FB5
:10E58000D56D3CBD2ABF7F3FFC2636BD8FC37F3F84
:10E5900007E02FBDCCC77F3FF69829BDE2CB7F3F78
:10E5A000CC5123BDD1CF7F3F880A1DBD98D37F3F7B
:10E5B0002CC316BD37D77F3FB87B10BDAFDA7F3F86
:10E5C0002F340ABD00DE7F3F90EC03BD29E17F3F81
:10E5D000B949FBBC2BE47F3F2DBAEEBC05E77F3F7A
:10E5E0007B2AE2BCB8E97F3FA69AD5BC43EC7F3FCB
:10E5F000B00AC9BCA7EE7F3F9B7ABCBCE3F07F3F6B
:10E6000069EAAFBCF8F27F3F1C5AA3BCE6F47F3F37
:10E61000B6C996BCACF67F3F38398ABC4AF87F3F12
:10E620004B517BBCC1F97F3F003062BC11FB7F3F87
:10E63000900E49BC39FC7F3F02ED2FBC39FD7F3F76
:10E6400059CB16BC13FE7F3F3053FBBBC4FE7F3F4C
:10E65000890FC9BB4EFF7F3FC1CB96BBB1FF7F3F48
:10E66000C70F49BBECFF7F3FD40FC9BA00000000C1
:10E67000000000000000000000000000000000009A
:10E68000000000000000000000000000000000008A
:10E690000000000C000C000C000C000C000C000C26
:10E6A000000C000C000C000C0000000C000C000022
:10E6B000000000000000001B001B001B001B001BD3
:10E6C000000000000000000000000000000000004A
:10E6D000000000000000000000008019801980196F
:10E6E0008019C07FC07F80190033C07FC07F003396
:10E6F0000033003300330000000000000000001E63
:10E70000003F807580650074003C001E0007800596
:10E71000806580658075003F001E000400040000D5
:10E720000000007000D840D8C0D880D9007300061F
:10E73000000C801BC036C066C046C00680030000C7
:10E74000000000000000001E003F003300330033D3
:10E75000001E000CC03CC066806380618063C03EC8
:10E76000801C0000000000000000000C000C000CE9
:10E77000000C000C00000000000000000000000081
:10E780000000000000000000000000008000000108
:10E790000003000600060004000C000C000C000C36
:10E7A000000C000C000400060006000300018000BD
:10E7B000002000100018000C000C000400060006E9
:10E7C00000060006000600060004000C000C0018FD
:10E7D000001000200000000C002D003F001E003340
:10E7E0000000000000000000000000000000000029
:10E7F0000000000000000000000000000000000C0D
:10E80000000C000C000CC0FFC0FF000C000C000C42
:10E81000000C0000000000000000000000000000EC
:10E8200000000000000000000000000000000000E8
:10E83000000000000000000C000C000400040008B0
:10E8400000000000000000000000000000000000C8
:10E850000000001E001E000000000000000000007C
:10E8600000000000000000000000000000000000A8
:10E870000000000000000000000000000000000C8C
:10E88000000C000000000000000000030003000373
:10E890000006000600060006000C000C000C000C30
:10E8A0000018001800180000000000000000001E02
:10E8B000003F0033806180618061806D806D806188
:10E8C000806180610033003F001E000000000000F6
:10E8D00000000006000E001E00360026000600069E
:10E8E00000060006000600060006000600060000FE
:10E8F000000000000000001E003F80738061806106
:10E90000800100030006000C001800300060807FCA
:10E91000807F0000000000000000001C003E00633B
:10E9200000630003000E000E00038001800180617F
:10E930008073003F001E0000000000000000000681
:10E94000000E000E001E001E001600360036006687
:10E95000807F807F000600060006000000000000A7
:10E960000000007F007F006000600060006E007F9C
:10E9700080638001800180618073003F001E000081
:10E98000000000000000001E003F80338061006036
:10E99000006E007F80738061806180618033003F02
:10E9A000001E0000000000000000807F807F8001CA
:10E9B0000003000300060006000C000C000C000819
:10E9C0000018001800180000000000000000001EE1
:10E9D000003F8063806180610021001E003F8061F4
:10E9E000806180618061003F001E00000000000027
:10E9F0000000001E003F00738061806180618073B1
:10EA0000803F801D800180610073003F001E000078
:10EA10000000000000000000000000000000000CEA
:10EA2000000C000000000000000000000000000CCE
:10EA3000000C0000000000000000000000000000CA
:10EA400000000000000C000C0000000000000000AE
:10EA50000000000C000C000400040008000000008E
:10EA60000000000080008003000E003800600038C5
:10EA7000000E800380000000000000000000000085
:10EA800000000000000000000000807F807F000088
:10EA90000000807F807F0000000000000000000078
:10EAA00000000000000000000000000000400070B6
:10EAB000001C000780010007001C007000400000DF
:10EAC00000000000000000000000001F803FC07137
:10EAD000C060C000C00180030007000E000C000CE5
:10EAE0000000000C000C0000000000000000001EF0
:10EAF000003F803180718063806F806D806D806F9A
:10EB0000806700600032003E001C00000000000032
:10EB10000000000E000E001B001B001B001B8031BC
:10EB20008031803F803F8031C060C060C0600000A5
:10EB3000000000000000007C007E006300630063B2
:10EB40000063007E007E0063806180618063007FDF
:10EB5000007E0000000000000000001E003F803129
:10EB600080610060006000600060006000608061A3
:10EB70008031003F001E0000000000000000007C0B
:10EB8000007F00638063806180618061806180615B
:10EB9000806100630063007E007C000000000000D4
:10EBA0000000807F807F0060006000600060007F68
:10EBB000007F0060006000600060807F807F000058
:10EBC000000000000000807F807F00600060006027
:10EBD0000060007F007F00600060006000600060F7
:10EBE00000600000000000000000001E003F8031B7
:10EBF000806100600060006080638063806180618C
:10EC00008031803F001E0000000000000000806195
:10EC100080618061806180618061807F807F8061B0
:10EC2000806180618061806180610000000000007F
:10EC30000000003F003F000C000C000C000C000C1A
:10EC4000000C000C000C000C000C003F003F00000A
:10EC5000000000000000800180018001800180012F
:10EC60008001800180018001806180618073003FAC
:10EC7000001E0000000000000000C0608061006312
:10EC800000660066006C0078007C00660066006329
:10EC900080618061C0600000000000000000006032
:10ECA0000060006000600060006000600060006064
:10ECB000006000600060807F807F00000000000036
:10ECC0000000C071C071C07BC07AC06AC06AC06EEB
:10ECD000C064C060C060C060C060C060C060000050
:10ECE0000000000000008071807180798079807957
:10ECF000806D806D806D80658067806780678063D0
:10ED000080630000000000000000001E003F003390
:10ED100080618061806180618061806180618061EB
:10ED20000033003F001E0000000000000000007ED5
:10ED3000007F80638061806180618063007F007EEE
:10ED400000600060006000600060000000000000E3
:10ED50000000001E003F003380618061806180619F
:10ED600080618061806580670033803F401E0000C5
:10ED7000000000000000007E007F806380618061F1
:10ED80008063007F007E00660063006380618061B5
:10ED9000C0600000000000000000000E001F803175
:10EDA000803100300038001E0007800380618061E0
:10EDB0008031003F001E0000000000000000C0FF86
:10EDC000C0FF000C000C000C000C000C000C000C30
:10EDD000000C000C000C000C000C000000000000F7
:10EDE00000008061806180618061806180618061FC
:10EDF00080618061806180618073003F001E00003F
:10EE0000000000000000C060C060C0608031803140
:10EE10008031001B001B001B001B000E000E000EAB
:10EE200000040000000000000000C0C0C0C0C0C05E
:10EE3000C0C0C0C0C0CC804C804C805E805280522C
:10EE40008073806180610000000000000000C0C08D
:10EE5000806080610033003B001E000C000C001E2F
:10EE6000001F003B80718061C0C0000000000000F6
:10EE70000000C0C08061806100330033001E001EAE
:10EE8000000C000C000C000C000C000C000C00002E
:10EE9000000000000000803F803F8001000300036D
:10EEA0000006000C000C0018001800300060807F85
:10EEB000807F000000000000000F000F000C000C1D
:10EEC000000C000C000C000C000C000C000C000CE2
:10EED000000C000C000C000C000F000F00000018CC
:10EEE00000180018000C000C000C000C00060006B6
:10EEF00000060006000300030003000000000000FD
:10EF0000001E001E000600060006000600060006A1
:10EF100000060006000600060006000600060006C1
:10EF2000001E001E0000000C000C001E001200332A
:10EF300000338061806100000000000000000000DC
:10EF400000000000000000000000000000000000C1
:10EF500000000000000000000000000000000000B1
:10EF60000000000000000000E0FF0000000000388A
:10EF70000018000C0000000000000000000000006D
:10EF80000000000000000000000000000000000081
:10EF900000000000000000000000001F803F8061B2
:10EFA0008001801F803F80618063807FC0380000C7
:10EFB0000000000000000060006000600060006E63
:10EFC000007F807380618061806180618073007FD9
:10EFD000006E0000000000000000000000000000C3
:10EFE0000000001E003F807380610060006080614F
:10EFF0008073003F001E0000000000000000800140
:10F00000800180018001801D803F8073806180616C
:10F01000806180618073803F801D000000000000DF
:10F0200000000000000000000000001E003F007310
:10F030008061807F807F00608071003F001E000043
:10F04000000000000000C007C00F000C000C807F13
:10F05000807F000C000C000C000C000C000C000C5D
:10F06000000C000000000000000000000000000094
:10F07000801D803F807380618061806180618073CA
:10F08000803F801D80018063007F003E00000060A3
:10F09000006000600060006F807F8071806180612F
:10F0A00080618061806180618061000000000000FB
:10F0B00000000006000600000000003E003E0006C2
:10F0C0000006000600060006000600060006000016
:10F0D000000000000006000600000000003E003EA8
:10F0E00000060006000600060006000600060006F0
:10F0F00000060046007E003C0000006000600060EA
:10F100000060806100630066006C007C0076006334
:10F1100000638061C0600000000000000000003E4D
:10F12000003E000600060006000600060006000677
:10F1300000060006000600060006000000000000B1
:10F140000000000000000000000080DDC0FFC0CE15
:10F15000C0CCC0CCC0CCC0CCC0CCC0CCC0CC0000DB
:10F160000000000000000000000000000000006F30
:10F17000807F807180618061806180618061806159
:10F18000806100000000000000000000000000009E
:10F190000000001E003F807380618061806180619B
:10F1A0008073003F001E000000000000000000000F
:10F1B00000000000006E007F8073806180618061CC
:10F1C00080618073007F006E0060006000600060FE
:10F1D0000000000000000000801D803F80738061FF
:10F1E0008061806180618073803F801D800180012B
:10F1F00080018001000000000000000000000067A6
:10F20000803F0039003000300030003000300030E6
:10F2100000300000000000000000000000000000BE
:10F220000000001E803F80610060007F803F800101
:10F230008061007F001E0000000000000000000050
:10F24000000800180018007F007F00180018001840
:10F25000001800180018801F800F00000000000038
:10F2600000000000000000000000806180618061FB
:10F2700080618061806180618063807F803D00006B
:10F280000000000000000000000000000000C0605E
:10F29000803180318031001B001B001B000E000EEE
:10F2A0000006000000000000000000000000000058
:10F2B000000080DD80DD80DD0055005500550077C1
:10F2C0000077002200220000000000000000000083
:10F2D000000000000000806100330033001E000CBD
:10F2E000000C001E003300338061000000000000AD
:10F2F0000000000000000000806180618031003368
:10F300000033001B001B001B000E000E000E001C33
:10F31000007C007000000000000000000000C07FC2
:10F32000C07F800100030006000C00180030C07F81
:10F33000C07F000000000000800380070006000678
:10F34000000600060006000E001C001C000E000651
:10F35000000600060006000680078003000600067F
:10F36000000600060006000600060006000600066D
:10F37000000600060006000600060006000600065D
:10F380000038003C000C000C000C000C000C000EBF
:10F3900000070007000E000C000C000C000C000C15
:10F3A000003C0038000000000000000000000000E9
:10F3B00000008038807F004700000000000000004F
:10F3C0000000000000000000E8F30008000000203A
:10F3D00014010000E8010008FCF4000814010020FA
:10F3E000741200000402000800000000010203047F
:10F3F00001020304060708090000000000000000E5
:10F40000FF0F00000000000000000000FF078F0950
:10F410000F0B710CAA0DA60E630FD80FFF0FD80F9C
:10F42000630FA60EA70D710C0F0B8F09FF076F0658
:10F43000EF048D03570258019B00260000002600B0
:10F440009B00580157028D03EF046F060000000176
:10F45000000200030004FF04FF05FF06FF07FF088A
:10F46000FF09FF0AFF0BFE0CFE0DFE0EFF0FFE0E46
:10F47000FE0DFE0CFF0BFF0AFF09FF08FF07FF064A
:10F48000FF05FF04000400030002000100008400E7
:10F4900008018C011002940218039C032104A504A6
:10F4A0002905AD053106B5063907BD074108C50870
:10F4B0004909CD09510AD50A590BDD0B620CE60C3E
:10F4C0006A0DEE0D720EF60E7A0FFF0F00000000AF
:10F4D0000000000000000000000000000B1200000F
:10F4E0006CE60008000000000095BA0A0000000069
:0CF4F000000000000102030406070809E8
:040000050800024DA0
:00000001FF
