:020000040800F2
:100000006808002041020008792C00087B2C0008B9
:100010007D2C00087F2C0008812C000800000000C7
:10002000000000000000000000000000832C000819
:10003000852C000800000000872C00088B2C00088D
:100040005B0200085B0200085B020008DD2100087B
:100050005B0200085B0200085B0200085B0200080C
:100060005B0200085B0200085B0200085B020008FC
:100070005B0200085B0200085B0200085B020008EC
:100080005B0200085B0200085B0200085B020008DC
:100090005B0200085B0200085B0200085B020008CC
:1000A0005B0200085B0200085B0200085B020008BC
:1000B0005B0200085B0200085B0200085B020008AC
:1000C0005B0200085B0200085B0200085B0200089C
:1000D0005B0200084F280008612800087928000802
:1000E0005B020008FF2100085B0200085B020008B9
:1000F0005B0200085B0200085B0200085B0200086C
:100100005B0200085B0200085B0200085B0200085B
:1001100091280008A92800085B0200085B0200087B
:100120005B0200085B0200085B0200085B0200083B
:100130005B0200085B0200085B0200085B0200082B
:100140005B0200085B0200085B0200085B0200081B
:100150005B0200085B0200085B020008BD28000883
:100160005B0200085B0200085B0200085B020008FB
:100170005B0200085B0200085B0200085B020008EB
:100180005B0200085B02000800F002F800F048F88B
:100190000AA090E8000C82448344AAF10107DA45E2
:1001A00001D100F03DF8AFF2090EBAE80F0013F0EC
:1001B000010F18BFFB1A43F0010318473832000043
:1001C00058320000103A24BF78C878C1FAD85207D4
:1001D00024BF30C830C144BF04680C6070470000C1
:1001E0000023002400250026103A28BF78C1FBD840
:1001F000520728BF30C148BF0B607047642902F026
:100200009986752902F09686002070471FB503F085
:10021000E2F89DE8030002F085FF1FBD10B510BD98
:1002200003F054F81146FFF7F1FF02F0AFFC03F0C2
:1002300072F803B4FFF7F2FF03BC03F09FF800006D
:100240000948804709480047FEE7FEE7FEE7FEE76A
:10025000FEE7FEE7FEE7FEE7FEE7FEE704480549A6
:10026000054A064B70470000372D00088901000839
:10027000680200206808002068040020680400204C
:100280002849084328490860704730B50F23C278D1
:1002900001780125FAB1244A126801F1E02102F443
:1002A000E062C2F5E062C2F30722C2F10404D34067
:1002B0004278A24084781C401443220181F8002433
:1002C000007800F01F018D404009800000F1E0201F
:1002D000C0F8005130BD01F01F0085404809800082
:1002E00000F1E020C0F8805130BD104A11400143B8
:1002F0000D48001F016070470B4A121D002911684C
:1003000001D0014300E08143116070474FF0E021CC
:100310000428086903D020F004000861704740F009
:100320000400FAE70000FA050CED00E080FFFF1F73
:10033000F848016841F001010160F64A00210832E5
:1003400011600268F44B1A400260031DF34A1A6000
:10035000F04BF34A84331A60F04A103A1B1D1A60BE
:10036000026822F480220260EA480C300160181D05
:1003700001607047E7490022891C0A7008707047C5
:1003800002460020510901290CD002290CD0E14974
:100390007431096802F01F02012393400B4200D020
:1003A00001207047DB49F4E7DA497031F1E718B50D
:1003B00000204FF4A04400903120FFF7E1FF0099A6
:1003C000491C0091A14201D00028F5D03120FFF74F
:1003D000D7FF002800D0012018BDCE4A116821F0B7
:1003E000F80141EAC00010607047CE4908607047CC
:1003F000C849002270310A700A70012802D004280E
:1004000001D1052008707047C7490860704741EA6C
:1004100082115A0810B5C54B029C03EB02421143EE
:10042000014341EA0460BB49091D086010BDBD4994
:1004300008667047800140EA0170B649843108605F
:100440007047B84988667047800140EA0160B14949
:1004500040EA0270883108607047B2490867704707
:10046000B049C8647047AB4B08331A68084322F0A0
:10047000EC62104318607047A64B08331A680843B3
:1004800022F07842104318607047A24A083211687F
:1004900021F003010143116070479E480830006855
:1004A00000F00C0070479B4A0832116821F0F001FF
:1004B000014311607047974A0832116821F4E051F6
:1004C000014311607047934A0832116821F460417A
:1004D00041EAC0001060704770B58E4B0833196850
:1004E000934C11F00C0104D06610042903D00829A4
:1004F00003D004601BE0066019E0864A121D1168F3
:10050000C1F38055116801F03F0115B1B6FBF1F15F
:1005100001E0B4FBF1F114681268C4F3881461437C
:10052000C2F30142521C5200B1FBF2F101601968A2
:100530000F2202EA11117F4A545C0168E1404160D8
:100540001C68072505EA9424145D21FA04F48460EC
:100550001B6805EA5333D25CD140C16070BDC0F363
:100560000121032908D16B4B08331968724A21F421
:10057000F81102400A431A60664970310A68C0F3F4
:100580000B0002430A6070476749443908607047AE
:1005900065494039086070476249C1F85C0170479D
:1005A0005C4A8C32116821F440110143116070479C
:1005B000584A8C32116821F44001014311607047A0
:1005C000544A8C321168401E21F01F010143116012
:1005D0007047504A8C3211686FF0FF0321F4F851D4
:1005E00003EB00200843106070474A4A8C321168C0
:1005F00021F440310143116070475049C1F8E001D6
:100600007047444A30320029116801D0014300E0AC
:100610008143116070473F4A34320029116801D08C
:10062000014300E08143116070473A4A38320029A3
:10063000116801D0014300E0814311607047354AE1
:1006400040320029116801D0014300E0814311606C
:100650007047304A44320029116801D0014300E05C
:100660008143116070472B4A10320029116801D074
:10067000014300E0814311607047264A143200298B
:10068000116801D0014300E0814311607047214AA5
:1006900018320029116801D0014300E08143116044
:1006A00070471C4A20320029116801D0014300E044
:1006B000814311607047174A24320029116801D024
:1006C000014300E0814311607047124A5032002913
:1006D000116801D0014300E08143116070470D4A69
:1006E00054320029116801D0014300E081431160B8
:1006F0007047084A58320029116801D0014300E0D0
:10070000814311607047034A60320029116817D095
:10071000014316E000380240FFFFF6EA10300024E3
:100720000030002000004742800E47420000FFFFDB
:100730000024F40000000020FFFCFF0F00104742DF
:10074000814311607047194A0029116801D00143A3
:1007500000E081431160704714490C31012808689A
:1007600003D020F008000860704740F00800FAE766
:100770000E4A573A0029117801D0014300E0814325
:100780001170704709481030016841F080710160B4
:1007900070470146054A0020583A12680A4200D0C4
:1007A000012070470149563908707047643802408B
:1007B000354900200860091D0860091D0860091DF1
:1007C00008603149314814310860704730B52E4A0D
:1007D0008379016853B313688B431360111D0B6851
:1007E0000468A3430B60017911440B680468234338
:1007F0000B60254B083319680468A14319601C1D60
:1008000021680568A94321604179102905D0114468
:100810000A68006802430A6030BD19680268114323
:100820001960216800680143216030BD00791044DF
:1008300002688A43026030BD0021016001710C2210
:10084000427181717047104910310A6802430A6091
:10085000704701460C4A0020143212680A4200D048
:100860000120704708491431086070470146064A64
:100870000020143212680A4200D001207047024959
:100880001431086070470000003C0140FFFF7F000A
:1008900010B501210C072046FFF703FF2046BDE8F5
:1008A00010400021FFF7FDBE3B49086270473B4AFC
:1008B000116821F0E0010143116070473649086179
:1008C00070473549C1F8A00070473349C1F8A4000A
:1008D0007047324A116821F440410143116070476A
:1008E0002D49086470472C49486470472B490028FB
:1008F000086802D040F4402001E020F44020086065
:100900007047254948627047244B10B51A6840F675
:100910000344A24302431A602148026842F00402E1
:100920000260012905D020BF016821F004010160A7
:1009300010BD30BFF8E7194B10B51A6840F60344F4
:10094000A24302431A601648026842F004020260A1
:10095000012905D020BF016821F00401016010BD0C
:1009600030BFF8E70D48016841F0020101600C4812
:10097000016841F00401016030BF7047074A014639
:10098000002052680A4200D00120704703490A68DB
:1009900042EA80000860704700000E42007000408C
:1009A00010ED00E018B50020FA4B0090CA20186046
:1009B00053201860F7491839086820F0A000086033
:1009C0004FF400340868009A00F02000521C009296
:1009D000A24201D00028F5D00868800601D5012088
:1009E00000E00020FF21196018BD08B5E94900208A
:1009F000183900900868400612D44FF0FF300860A4
:100A00008B130868009A00F04000521C00929A4232
:100A100001D00028F5D00868400601D4002008BDA8
:100A2000012008BD78B50024DA4ECA20009425467E
:100A3000306053203060FFF7D8FFE0B3D54824384A
:100A40000460D44942F20110203908600B1D186877
:100A500000F0070018608D131A1D1068009900F04F
:100A60000400491C0091A94201D00028F5D010686B
:100A7000400729D518681C60C6494FF6FF70103929
:100A80000860091FC4480860C2480C380460001D93
:100A90000460001D0460BF4808300460BD48183081
:100AA0000460BC4820300460001D04601460B94834
:100AB0001C30046000E003E0FFF774FF20B1012563
:100AC000FF203060284678BD0025F9E7B148183886
:100AD000016821F080010160704770B5AD4E044699
:100AE0000025CA20306053203060FFF77EFFA8B198
:100AF000A8481C38016821F04001016001682268A3
:100B000011430160A348A168143801600168A288FC
:100B100041EA02410160FFF7D9FF0125FF20306063
:100B2000284670BD002101607F214160FF21816066
:100B30007047984908B1FF2002E0CA20086053209E
:100B40000860704770B5934E05460024CA20306097
:100B500053203060FFF749FF60B18E481C380168B0
:100B600015B141F0100101E021F010010160FFF723
:100B7000ADFF0124FF203060204670BD854ACA21A8
:100B800011605321116083491C390028086802D084
:100B900040F0200001E000F0DF000860FF2010605E
:100BA00070472DE9F0410C4600267C4F010020786B
:100BB000396832464FEA416104D000292FDA00F04B
:100BC00008FC2DE0002900DBE27000F0F6FB0504D4
:100BD000607800F0F2FB45EA0025A07800F0EDFB1C
:100BE0000543E07845EA00456A4CCA20206053205E
:100BF0002060FFF7FAFE68B1694805406748083889
:100C00000560FFF763FF3868800602D4FFF7CAFE6D
:100C100000B10126FF2020603046BDE8F081E2707F
:100C2000A078217840EA01456078E178000240EA46
:100C300001400543D8E70021C17001704170817007
:100C40007047020010B557480C460168544801EA45
:100C50000001C1F305402070C1F30623637001F069
:100C60007F03A3704FF0400303EA1141E1700AD102
:100C700000F0AFFB2070607800F0ABFB6070A078F4
:100C800000F0A7FBA07010BD4248001D006843495A
:100C9000091F0968704770B50C460026010060788E
:100CA0000FD000F096FBA07800F093FBA078E178DD
:100CB00040EA014560782178000240EA413005436E
:100CC00015E0C10603D520F010000A306070E0780E
:100CD00000F073FB0504607800F06FFB45EA002527
:100CE000A07800F06AFB0543207845EA4035294C9E
:100CF000CA20206053202060FFF777FE70B12A4899
:100D000005402648001F0560FFF7E0FE2348006805
:100D1000800602D4FFF746FE00B10126FF202060C6
:100D2000304670BD01210170817041700021C17099
:100D30007047020010B51D480C4601681A4801EAC8
:100D400000014FEA1140E070C1F30423637001F029
:100D50003F03A370C1F3423121700AD100F039FB87
:100D6000E070607800F035FB6070A07800F031FB37
:100D7000A07010BD70B514460D46084A0021002829
:100D800010684FEA406013D000282ADA207800F07B
:100D900020FB27E024280040FF007F0008280040B7
:100DA0007F7F7F00002800403FFFFF0004280040B5
:100DB000002800DBE170207800F0FFFA060460787C
:100DC00000F0FBFA46EA0026A07800F0F6FA0643A7
:100DD000E07846EA0046207B00F0EFFA46EA006041
:100DE00010E0E170207B00F0F4FAA0782178E2783E
:100DF00040EA01406178090241EA02410843217B4F
:100E000040EA0160A168084361680843F849CA22C2
:100E10000A6053220A60B5F5807F04D00A1F106073
:100E2000FF20086070BDF24A083AF8E70021C1705F
:100E300001704170817001228160027341607047CE
:100E400010B514460246B1F5807F2AD0E848001F4D
:100E50000168C1F305402070C1F30623637001F0FF
:100E60007F03A370402303EA1143E370C1F30563DA
:100E7000237301F0804301F08031C4E90113002A9B
:100E80000ED100F0A6FA2070607800F0A2FA60702F
:100E9000A07800F09EFAA070207B00F09AFA2073F0
:100EA00010BDD3480838D3E738B50022D04C0092A3
:100EB000CA22226053222260CD4A1C3A00291168BE
:100EC00002D00143116012E081431160C84A183A10
:100ED00095131168009B01EA10215B1C0093AB4243
:100EE00001D00029F5D0116811EA102000D00120AE
:100EF000FF21216038BD10B5BD4BCA241C605324AE
:100F00001C601143B0F5807F05D0B94824300160E2
:100F1000FF20186010BDB6482030F8E7B0F5807F9C
:100F200005D0B34824300068C0F30E007047B048C5
:100F30002030F8E7AE4ACA21116053211160AC4954
:100F40001C390B6823F007030B600B6803430B602D
:100F5000FF2010607047A649CA220A6053220A6027
:100F6000A34A103A1060FF2008607047A04810386C
:100F7000006880B2704718B500219D4B0091CA21CE
:100F80001960532119609A491C390028086803D058
:100F900040F48060086014E020F4806008609449A8
:100FA00018398C130868009A00F00400521C009253
:100FB000A24201D00028F5D00868400701D40020E3
:100FC00000E00120FF21196018BD894B10B5CA222D
:100FD0001A6053221A60864A1C3A146824F480244A
:100FE00014601468084304431460FF20186010BDA7
:100FF0007F481C38006800F4802070477C4B10B597
:10100000CA221A6053221A60794A1C3A146824F4DE
:10101000E00414601468084304431460FF2018605F
:1010200010BDF0B5724D06460024CA200F46286058
:1010300053202860FFF7D9FC30B16D483E430C388F
:101040000660FFF743FD0124FF2028602046F0BD25
:1010500070B5674E05460024CA20306053203060CA
:10106000FFF7C3FC60B162481C38016815B141F05C
:10107000800101E021F080010160FFF727FD0124DC
:10108000FF203060204670BD594ACA2111605321AB
:10109000116057491C390028086802D040F400004C
:1010A00001E020F400000860FF2010607047504A03
:1010B000CA211160532111604D491C390B6823F47A
:1010C00000230B600B6803430B60FF201060704728
:1010D000F0B5474D0023CA242C6053242C60444CA7
:1010E000183C2668F60308D54FF400362768FF033E
:1010F00003D5B34201D05B1CF8E72368DB0306D4B9
:1011000008433B49104318310860012000E00020EB
:10111000FF212960F0BD364B10B51C3B1A6840F624
:101120000804A24342EA000209B142F400623048D6
:10113000CA210160532101601A60FF21016010BDC6
:1011400070B50D462A4914460C310968294A1140E8
:10115000274A103212684FF63F731A40C1F3054315
:101160002B70C1F306236B7001F07F03AB7040233B
:1011700003EA1141E9700021E170C2F304216170BA
:1011800002F03F01A170C2F342312170002817D153
:10119000287800F01EF92870687800F01AF9687055
:1011A000A87800F016F9A870607800F012F9607065
:1011B000A07800F00EF9A070207800F00AF92070F5
:1011C00070BD0B48143000687047094A1C32002972
:1011D000116803D041EA40001060704721EA4000E6
:1011E000FAE7034A1C320029116805D0014304E0E4
:1011F000242800407F7F7F00814311607047794938
:101200000A6822F4C0520A600A6802430A60704702
:1012100074490A6822F4E0620A600A6802430A60BC
:10122000704770490A6822F4C0420A600A680243A3
:101230000A6070476B490028086802D040F08000BF
:1012400001E020F0800008607047664900280868C7
:1012500002D020F4004001E040F4004008607047F4
:10126000604A08B5103202EB80000090016008BDB2
:101270005C4908B5103101EB80000090006808BDA2
:1012800058490A6822F480320A600A6802430A60F8
:10129000704754490A6822F400320A600A6802431F
:1012A0000A6070474F490A6822F480220A600A687F
:1012B00002430A60704770B54A4C0022CA231C3CA6
:1012C000236053232360474B343B1D682D0707D50C
:1012D0009E141D682D0703D5B24201D0521CF8E7B9
:1012E0001A6812070DD43F4A383A1268D20608D459
:1012F00001433C4814380160FFF754FB10B1012052
:1013000000E00020FF21216070BD30B5354DCA22BC
:101310001C3D2A6053222A60324C20F00402383CE3
:101320000029304B216800F0040004D011432160F3
:101330001968014303E091432160196881431960F2
:10134000FF20286030BD0246264900203439096854
:10135000254B1940114200D00120704780B240F067
:101360008000C1431F483438026802F080021143F4
:10137000016070471B4A0021126802F00403194AF9
:10138000383A126803EAD03302401A43174B1B68FD
:1013900003EA101003D00004000C00D0012108461D
:1013A0007047C0F30F1040F08000C1430F4802683F
:1013B00002F08002114301607047002103E0491CE4
:1013C0000A38C9B2C0B20A28F9D2090740EA116046
:1013D0007047010901EB810100F00F0000EB4100B3
:1013E000C0B27047402800407F3F01000C280040F9
:1013F000CD4910B5884206D101211020FFF75BF9D5
:101400000021102020E0C949884202D101214C046A
:1014100029E0C749884202D101218C0423E0C54953
:10142000884202D10121CC041DE0C349884202D187
:1014300001210C0517E0C149884209D10121202072
:10144000FFF739F900212020BDE81040FFF733B93C
:10145000BB49884202D101218C0704E0B949884286
:101460000AD1012144052046FFF71BF92046BDE8BB
:1014700010400021FFF715B910BD7FB50446008A62
:101480000D46C98820F4405001432182A08941F2D1
:101490000C618843A9882A8911436A890243114350
:1014A000A181A08A20F44071A8890843A0826846DF
:1014B000FFF712F89C48844202D0A048844201D130
:1014C000039800E00298A189090400EBC00101EB38
:1014D0000010296801D5490000E08900B0FBF1F057
:1014E0006422B0FBF2F109010B096FF018056B43A0
:1014F00000EB8300A3891D044FF0320306D503EBF4
:10150000C000B0FBF2F000F0070005E003EB0010B4
:10151000B0FBF2F000F00F00084320817FBD4FF4D4
:101520001651016000218180C18001810C2242811D
:101530008181704710B5028A4C8822F470630A8852
:1015400022438C88C9880C4322431A43028210BD6F
:101550000021018041808180C180704700298189FC
:1015600002D041F4005101E021F400518181704723
:10157000028B02F47F420283028B0A43028370478C
:101580000029818902D041F4004101E0C1F30E013C
:10159000818170470029818A02D041F4006101E015
:1015A00021F4006181827047C1F308018180704796
:1015B0008088C0F308007047028A22F00F0202827E
:1015C000028A0A43028270470029818902D041F0D1
:1015D000020101E021F0020181817047828922F439
:1015E0000062828182890A4382817047028A22F0E6
:1015F00020020282028A0A43028270470029018A7D
:1016000002D041F4804101E021F480410182704721
:10161000818941F00101818170470029818A02D0CE
:1016200041F0080101E021F0080181827047028B3E
:10163000D2B20283028B42EA012101837047002962
:10164000818A02D041F0200101E021F02001818255
:1016500070470029818A02D041F0100101E021F099
:10166000100181827047828A22F004028282828A7B
:101670000A43828270470029818A02D041F0020128
:1016800001E021F0020181827047002A828A01D0A4
:101690000A4300E08A438282704710B5C1F34213C7
:1016A00001F01F040121A140012B07D0022B07D01C
:1016B0001430002A026805D00A4304E00C30F8E731
:1016C0001030F6E78A43026010BD024600201288FF
:1016D0000A4200D001207047C9430180704770B5AD
:1016E00001F01F0501260024C1F3421306FA05F29A
:1016F000012B0FD0022B0FD0838A4FEA11210088D3
:10170000134206FA01F600EA060001D000B10124F6
:10171000204670BD8389F0E7038AEEE70A0A0121BB
:101720009140C943018070470010014000440040CF
:1017300000480040004C00400050004000140140B0
:1017400000780040007C004070B55A484168491C50
:101750004160816811B18168491E8160AFF30080EA
:101760000024554E18E006EB8405686890B1017BB3
:1017700081B1826872B1521E826069680AD148697B
:10178000096988476868016881606868416809B9C3
:1017900000210173641CE4B23078A042E3D870BD2C
:1017A000464801684FF47A70B1FBF0F0401EB0F18A
:1017B000807F12D24FF0E0225061414BF02083F83D
:1017C000140D00209061072010613E48B1FBF0F13C
:1017D0003848C160012101707047FEE73548007844
:1017E000002805D04FF0E020016941F002010161BD
:1017F00070474FF0E020016921F00201016170475C
:101800002DE9F0472C4C0546DDF8209020781E4647
:1018100017468846052802D30020BDE8F087182027
:1018200001F0F6FA0028F8D00560C0E901850773D9
:10183000C0E90469217804EB810148602178491CE2
:101840002170EAE770B51C4B00211A7806E003EB23
:1018500081046468844203D0491CC9B28A42F6D824
:101860008A4218D003EB81004068EFF3108472B60F
:1018700005E003EB8102491C9568C9B255601A78EE
:10188000521E8A42F5DC1978491E197001F0EFFAF0
:10189000002C00D162B670BD002101737047012198
:1018A0000173704701688160704741607047016053
:1018B0007047000010000020C8000020B400002085
:1018C0000FE000E0C0C62D001CB500200321CDE9CB
:1018D000000103464FF4704401222146184801F0EC
:1018E00057F817481A3004801CBD1CB5002102208F
:1018F000CDE900010B460A460121124801F048F8E3
:101900001CBD10480069C1070F4805D0017829B9EE
:1019100001210170084670470021017000207047C6
:1019200008480069C107084803D001210170002060
:10193000704701780029FAD000210170012070471A
:10194000000C024000000240200000202DE9F34F6F
:1019500081B090F80690DDF808C090F800A00679F4
:101960004579447A037AC279BCF1010F23D0DC4671
:1019700062F31F616AF3070C63F3070765F30F2136
:10198000E34664F30F2766F30701CC46C7F3072A43
:101990006CF31741BAF1630F7ED8FFB25FEA070E0E
:1019A0007AD0BEF10C0F77D80F0E00977ED05FEA89
:1019B0008A7747D04FE04FEA121C02F00F080CEB79
:1019C0008C0C08EB4C0C6CF31F614FEA131C03F0FA
:1019D0000F080CEB8C0C08EB4C0C6CF307074FEA70
:1019E000141C04F00F080CEB8C0C08EB4C0C6CF383
:1019F0000F274FEA151C05F00F080CEB8C0C08EBB9
:101A00004C0C6CF30F214FEA161C06F00F080CEB80
:101A10008C0C08EB4C0C6CF307014FEA1A1C0AF013
:101A20000F080CEB8C0C08EB4C08DC4668F3070C39
:101A3000E3464FEA191C09F00F080CEB8C0C08EB7D
:101A40004C0CA3E70AF5FA674FF0640CB7FBFCF8FF
:101A50000CFB18776FBB0AF5FA674FF4C87CB7FB2D
:101A6000FCF80CFB187727B3002707EB47074FF06C
:101A7000FF3CDFF824840CEB870C0EEB080717F80B
:101A80000CC0009FBC4511D3C1F30727172F0DD8F9
:101A9000CFB23B2F0AD800E008E00BF0FF073B2F46
:101AA00004D8C1F3074109B1072904D90120BDE8D1
:101AB000FE8F0127D9E7F84914390D704E70007870
:101AC0008870081D002182704370C47080F80090F7
:101AD000F24801601F21416040F2FF318160FEF752
:101AE000FCFF0298EC490128A1F1140112D000205A
:101AF000FFF757F8E84900201039FFF7CCF8E6481F
:101B00001838006820B144F221311320FFF7A8FBF8
:101B10000020CCE70120FFF744F8DF49103901200D
:101B2000EBE710B510B101280BD016E00120FEF74D
:101B30006BFC6120FEF724FC0028FAD04FF4007003
:101B400009E00120FEF754FC4120FEF719FC0028B3
:101B5000FAD04FF48070FEF702FD0120FEF714FD6D
:101B6000FEF720FFBDE8104041F234211320FFF7BB
:101B700077BBF0B5427A002340F2B27102F5FA6207
:101B80008A4201D20020F0BD6425AE004FF4B77741
:101B900040F26D1C0FE08C0704D1B1FBF5F405FB9E
:101BA00014147CB9B1FBF6F406FB141454B164466A
:101BB000491C234489B29142EDD30121DFF8D8C2F8
:101BC000077A18E03C46F3E7940704D1B2FBF5F43A
:101BD00005FB14242CBBB2FBF6F406FB142404B35F
:101BE000002404EB44040CEB84040C44491C14F85A
:101BF000014C89B223448F42E6D8C1795B1ECA18D2
:101C0000A7494A434179C1EB4113C3EB012102EBE0
:101C1000011201790078C1EB011102EB8101084446
:101C2000F0BD0124DDE770B50D009B490446A1F12C
:101C3000140122D00120FFF704F8974814380178E6
:101C400061714178217180782070964800689249CE
:101C5000608010399DB10120FFF76BF88E48103875
:101C6000C1786172417821728178E1710078A07148
:101C70002046FFF77EFFE06070BD0020DBE700201C
:101C8000EAE72DE9FF41074601210807FEF7D7FCE7
:101C90000120FEF709FE1320FFF7EAFA7E4D44F219
:101CA0002131183D4FF480444FF48008884211D10F
:101CB000296014E0FEF776FE2046FFF772FB4046EF
:101CC000FEF7DDFD00216846FFF7ADFF286804B090
:101CD000BDE8F08141F23426B04206D12E60002FDB
:101CE000E8D10020FFF71DFFE4E7002438462C6010
:101CF000FFF717FF01208DF807008DF806008DF81B
:101D000008008DF805408DF809408DF804408DF8E5
:101D1000004000216846FFF719FE00202E60D6E73C
:101D20007FB500210B468DF807106FF02F020AE0F7
:101D30009DF80750491C05EB850502EB45052C4431
:101D40008DF80740C9B2445CA4F13005092DEFD9E4
:101D5000491CC9B28DF808300AE09DF80850491CAA
:101D600005EB850502EB45052C448DF80840C9B20A
:101D7000445CA4F13005092DEFD9491CC9B28DF896
:101D800009300AE09DF80950491C05EB850502EB76
:101D900045052C448DF80940C9B2445CA4F13005D6
:101DA000092DEFD9491CC9B28DF806300AE09DF81B
:101DB0000650491C05EB850502EB45052C448DF8C2
:101DC0000640C9B2445CA4F13005092DEFD9491C85
:101DD000C9B28DF805300AE09DF80550491C05EBA5
:101DE000850502EB45052C448DF80540C9B2445CDD
:101DF000A4F13005092DEFD9491CC9B28DF8043082
:101E00000AE09DF80450491C05EB850502EB4505E9
:101E10002C448DF80440C9B2445CA4F13005092D6E
:101E2000EFD9491CC9B28DF800300AE09DF8004096
:101E3000491C04EB840402EB440423448DF8003075
:101E4000C9B2435CA3F13004092CEFD900216846E4
:101E5000FFF77CFD04B070BD08B10C2801D900204B
:101E600070478A0701F5FA6105D16422B1FBF2F3EC
:101E700002FB1312C2B94FF4C872B1FBF2F302FBBA
:101E8000131189B10021044A01EB410102EB8101E8
:101E9000084410F8010C70473C000020E0000020CE
:101EA00080510100282800400121ECE7810700F55E
:101EB000FA6005D16421B0FBF1F201FB120149B9CE
:101EC0004FF4C871B0FBF1F201FB120010B140F207
:101ED0006D10E0E74FF4B770DDE72DE9F0470446F9
:101EE0004FF480084046FEF7CAFC0020FFF743F895
:101EF0004FF4804A00215046FFF707FADFF8389385
:101F00000321002689F80010042189F8011089F8BE
:101F1000026089F803604846FEF7B7F909F1040743
:101F20000820C7F800803E717871BE713846FEF710
:101F30004DFC002C4BD0012689F80360381FFEF7BA
:101F4000A4F9BE713846FEF741FC0020FFF713F8F4
:101F5000012C12D0022C12D0032C12D0042C13D03E
:101F6000052C14D0062C15D0072C16D0082C17D011
:101F7000092C18D00A2C19D01AE0B04D18E0B04D39
:101F800016E04EF6FF7513E049F6FF7510E044F6D3
:101F9000FF750DE041F6FF750AE040F6FF7507E0BA
:101FA00040F2FF7504E040F2FF3501E040F2FF151A
:101FB0000120FEF7BFFF2846FEF7CDFF0121504666
:101FC000FFF7A3F9BDE8F0470120FEF7D4BFBDE855
:101FD000F0873C22B1FBF2F3F0B502FB1313C160B2
:101FE000B1FBF2F10370B1FBF2F302FB1313B1FB8F
:101FF000F2F103711822B1FBF2F302FB1313B1FBF0
:10200000F2F14371CA1C0723B2FBF3F403FB142261
:10201000521C4FF4B7748271A61E642340F2B27250
:102020009D00970704D1B2FBF3F703FB17275FB9B5
:10203000B2FBF5F705FB172737B1B14209D9A1F279
:102040006D11521C92B2ECE7A14202D3A1F5B77117
:10205000F7E7A2F5FA6444720024774F04720C3754
:1020600007F10C06940704D1B2FBF3F403FB14242C
:1020700024B9B2FBF5F405FB14241CB9047AA45D61
:102080008C4203D9047A3C5D8C4206D8091B047A41
:10209000641CE4B204720C2CE4D3027A521C027267
:1020A000491CC171F0BD10B510B1012817D108E06D
:1020B00000214FF48070FEF7F7FE00214FF48054AA
:1020C00007E000214FF40070FEF7EEFE00214FF410
:1020D00000542046FFF719F92046FFF73FF94FF467
:1020E00000342046FEF7CBFB53490020091D0C604D
:1020F00008710820487101248C710846FEF766FBC0
:102100004D4829210170042141708470C470BDE8DC
:102110001040FEF7BAB87FB516460C460546FFF7E5
:10212000C2FFE0788DF80000A0788DF8010060789B
:102130008DF802004FF00040019020780121F0B1AD
:1021400000200290207918B31F2800D91F208DF895
:102150000C0005B3012D11D16C026A4621463046B0
:10216000FEF708FE01212046FEF79EFE01214C03EA
:102170002046FFF7CAF82046FFF7F0F87FBD4FF082
:1021800080400290207918B10728E0D90720DEE7C7
:102190008DF80C10DDE74FF480746A462146304616
:1021A000FEF7E8FD01212046FEF77EFE01210C032B
:1021B000DEE7122804D8234A02EB0010C0F85018BA
:1021C00069E6122801D9002065E61E4901EB0010DE
:1021D000D0F850085FE65EE65DE65CE610B54FF4C9
:1021E00080442046FFF7C6F820B12046FFF7D9F813
:1021F00000F0FFFC14494FF48000086010BD10B5DA
:102200004FF480542046FFF7B5F820B12046FFF781
:10221000C8F8FFF7E1FF4FF400542046FFF7AAF893
:1022200020B12046FFF7BDF8FFF7D7FF06494FF46E
:102230000030086010BD000030000020FFBF030028
:10224000FFDF010000200040143C0140FE4A01462F
:10225000904200D10020FD4A914200D10120FC4A69
:10226000914200D10220FB4A914200D10420FA4A57
:10227000914200D10520F94A914200D106207047D1
:1022800070471CB50822032140B101280DD0032856
:1022900003D10821F148FFF7F3FF1CBDCDE900127F
:1022A00001230022C021EE4806E0CDE900120123FF
:1022B00000224FF48441EB4800F07BFB1CBD7CB551
:1022C00030B1032803D10821E348FFF7D9FF7CBDD3
:1022D00008250324012300221903E148CDE9004524
:1022E00000F067FB012300220421DF48CDE900450F
:1022F00000F05FFB7CBD1CB50822032140B1012822
:102300000DD0032803D10821D248FFF7B9FF1CBD27
:10231000CDE90012012300220321D44806E0CDE9D3
:102320000012012300224FF44061CD4800F041FB30
:102330001CBD1CB507220323990250B101280ED001
:10234000022812D0032803D10721C148FFF798FFC4
:102350001CBDCDE9003201230022C5480CE0CDE9C7
:10236000003201230022BE4806E0CDE900320123FD
:1023700000224FF44071BC4800F01BFB1CBD1CB593
:102380000722032140B101280DD0032803D10721E2
:10239000AE48FFF775FF1CBDCDE9001201230022F6
:1023A0000C21B24805E0CDE9001201230022602192
:1023B000AD4800F0FEFA1CBD1CB50722032140B158
:1023C00001280ED0032803D107219F48FFF758FFAB
:1023D0001CBDCDE90012012300224FF4C061A348C7
:1023E00005E0CDE9001201230022C021A04800F041
:1023F000E0FA1CBD944A0146904200D19D48934AA0
:10240000914201D19B481030914A914201D19948A3
:102410002030904A914201D1964830308E4A914204
:1024200001D1944840308D4A914201D191485030B9
:1024300070472DE9FF4F87B09A46DDE914B913467E
:102440000446DDF85C80FFF7D5FF05467E488A4FDD
:102450000193844209D1386840F010003860089830
:10246000FFF7AAFF25208DF80000834E7748361F1E
:10247000844209D1306840F4003030600898FFF79A
:102480007EFF26208DF800007148844209D1306813
:1024900040F4802030600898FFF74BFF27208DF82C
:1024A00000006C48844209D1306840F4002030605C
:1024B0000898FFF720FF34208DF80000664884421A
:1024C00009D1306840F4801030600898FFF7F7FEBB
:1024D00035208DF800006148844209D1386840F009
:1024E000200038600898FFF7CCFE47208DF80000E8
:1024F0002046FEF77DFF01268DF8036006208DF84B
:1025000001002046FFF7A2FE8DF802006846FDF7A5
:10251000BCFE1698ADF80A00ADF80EB0ADF810A0EC
:10252000ADF80C90ADF808800020287340F6FF70DD
:102530000590411E059101D30846FAE701A92046FE
:10254000FEF79BFFA08940F02000A0812E73A08998
:1025500040F40050A0810BB0BDE8F08F2DE9FF41A1
:102560000446394800250C2617468846844206D181
:10257000CDE90065029500230395FFF75AFF334824
:10258000844208D1CDE90065029500233A464146D0
:102590000395FFF74EFF2E48844208D1CDE9006530
:1025A000029500233A4641460395FFF742FF29482A
:1025B000844208D1CDE90065029500233A464146A0
:1025C0000395FFF736FF2448844208D1CDE9006522
:1025D000029500233A4641460395FFF72AFF1F481C
:1025E000844208D1CDE90065029500233A46414670
:1025F0000395FFF71EFFBDE8FF812DE9FF47044665
:10260000114800250C261F4690468946844205D174
:10261000CDE9006502950395FFF70BFF0B48844257
:1026200008D1CDE9006502953B46424649460395EF
:10263000FFF7FFFE0648844223D1CDE900650295ED
:102640003B464246494619E0001001400044004024
:1026500000480040004C0040005000400014014081
:102660000008024000180240000C02400000024036
:102670000004024054000020443802400395FFF754
:10268000D8FE9448844208D1CDE9006502953B46C6
:10269000424649460395FFF7CCFE8F48844208D155
:1026A000CDE9006502953B46424649460395FFF752
:1026B000C0FE8A48844208D1CDE9006502953B46B8
:1026C000424649460395FFF7B4FEBDE8FF8710B5C3
:1026D0000023FFF78FFEC18819B902894489A242FD
:1026E0000DD0428983889A4201D100224281036839
:1026F00092B29B56521C428109B1491EC180D8B288
:1027000010BD10B50C46FFF775FEC38842890DE079
:102710008188914200D100220168895CA14201D1E7
:10272000012010BD521C5B1E92B29BB2002BEFD158
:10273000002010BDF0B516460F4684460024FFF772
:1027400059FE0546C08840B1697B6046FFF7D9FF56
:1027500078B9E888A98888420BD00020F0BD60468F
:10276000FFF7B5FF3855697B884205D0641CA4B2D9
:1027700000E0761EB442F2DB0021641CA0B23954A2
:10278000F0BD00B5FFF736FEC18829B9018940893F
:10279000814201D1012000BD002000BD00B5FFF73E
:1027A00029FEC1888088814201D1012000BD00201E
:1027B00000BD00B5FFF71EFE0021C18001814181EF
:1027C00000BD00B50B46FFF715FE437300BD10B505
:1027D0000C460346FFF70EFE007B00280BD007E0F7
:1027E00019880906FCD59880641C18880006FCD559
:1027F00020780028F4D110BD70B515460E46044669
:10280000FFF7F8FD007B00280DD0002309E02088A9
:102810000006FCD5F05CA08020880006FCD55B1C7F
:102820009BB2AB42F3D370BDC388828893420DD272
:102830000389934201D10022028103890268D154A5
:102840000189491C0181C188491CC1807047244805
:102850000188890603D58088C1B22248E4E7704721
:1028600021480088800606D51F48001D0088C1B297
:102870001C481030D8E770471C480088800606D5F1
:102880001A48001D0088C1B216482030CCE77047B6
:1028900010480088800606D50E48001D0088C1B289
:1028A00010483030C0E770470B480188890604D5CE
:1028B0008088C1B20B484030B6E7704707480088AF
:1028C000800606D50548001D0088C1B20548503075
:1028D000AAE77047004C004000500040001401403F
:1028E0000010014054000020004400400048004017
:1028F000A3490844C0F38F2070472DE9F04F9A4652
:10290000DDE909B889460346FFF7F2FFC5B20020AA
:102910004FF0030E0121814011EA090F28D0994E92
:1029200036F815400C4326F81540DF6844000EFACF
:1029300004F6B7430BFA04FC47EA0C07DF601F6894
:1029400002FA04FCB74347EA0C071F60012A01D0D2
:10295000022A0DD15F6889B28F430AFA00F189B269
:102960000F435F60996808FA04F4B143214399600A
:10297000401CC0B21028CDD3BDE8F08F00B5FFF7E2
:10298000B7FF01218140804802681143016000BD0A
:10299000FCB51646DDE907C50C00074608D0FFF771
:1029A000EDFFCDE900C5324621463846FFF7A5FFC9
:1029B000FCBD2DE9FC4F9946DDE90BB792460D00B1
:1029C000064622D0FFF7DAFF002201214FF00F0C5C
:1029D00001FA02F028420DD0D00806EB8003186AF5
:1029E0005407E40E0CFA04F820EA080007FA04F48D
:1029F00020431862521C102AEAD3CDE9009B5346AB
:102A0000022229463046FFF778FFBDE8FC8FF0B57B
:102A10000E460546FFF76CFF00225A49C4B24FF03C
:102A2000010C03270CFA02F333420CD028684FEA5A
:102A3000420E07FA0EFE40EA0E00286031F814003C
:102A4000984321F81400521CD2B2102AEAD3F0BDE8
:102A5000F0B500220125032605FA02F30B4205D04A
:102A60000468570006FA07F39C430460521CD2B274
:102A7000102AF1D3F0BDF0B500220127032607FA92
:102A800002F33C460B4208D00568530006FA03FCEB
:102A900025EA0C059C4025430560521CD2B2102A41
:102AA000EDD3F0BDF0B500220125032605FA02F3AF
:102AB0000B4205D00468570006FA07F31C43046074
:102AC000521CD2B2102AF1D3F0BDF0B5002201267B
:102AD0000324022706FA02F30B4209D005685300CB
:102AE00004FA03FC25EA0C0507FA03F31D4305600D
:102AF000521CD2B2102AEDD3F0BDF0B5002301274D
:102B0000032507FA03F40C4209D0C6685C0005FAF5
:102B100004FC26EA0C0602FA04F42643C6605B1C99
:102B2000DBB2102BEDD3F0BD41F48032C261C16144
:102B3000C261C169C0697047002102E0491C89B2C5
:102B400040080128FAD80846704700B5FFF7D0FEC4
:102B5000012181400C4802688A43026000BD00B533
:102B6000FFF7C6FE074931F8100000BD00B5FFF7BA
:102B7000BFFE044931F81000C04380B200BD000020
:102B80000000FEBFAC0100203038024000F0D3F856
:102B9000FEF706FEFEF7A9FEFEF796FE4FF4E132C1
:102BA00000212648FFF7DAFC0020FFF76AF807202B
:102BB000FFF793F9224E0027224C4FF007084FF001
:102BC0003B094FF0370A4FF00E0B06253069C0075E
:102BD000FCD0677184F8049084F800A084F809B0F0
:102BE000257284F80780A57100211648FEF7AEFE15
:102BF000ECE710B586B000211248FFF714F8114831
:102C00000DF1040C417903780279C4688CE81E0048
:102C1000417A01F5FA610091037AC2790AA1343848
:102C200000F04CF9074905483439FFF7D0FD114849
:102C3000016881F4A041016006B010BD0048004069
:102C400000000240F8010020253032642E25303289
:102C5000642E2530346420253032643A25303264C5
:102C60003A253032642020556E69783A2025750A5D
:102C700000000000140C02407047FEE7FEE7FEE78C
:102C8000FEE7704770477047704710B5FEF75CFD70
:102C900010BD00000CB50022544900920192086852
:102CA00040F4803008604FF4A043086800F400301E
:102CB00001900098401C0090019810B9009898422B
:102CC000F3D10868800334D5012001904748403093
:102CD000026842F0805202604548026842F4404275
:102CE00002604248083002680260026842F4004212
:102CF0000260026842F4A0520260031F3D4A1A605B
:102D00000A6842F080720A600A689201FCD53A496A
:102D100040F205720A60016821F003010160016858
:102D200041F0020101600168C1F381010229FAD179
:102D30000CBD01920CBD314810B5016841F4700121
:102D400001602A48016841F001010160274A002121
:102D50000832116002682A4B1A400260031D294A9A
:102D60001A60026822F48022026020480C30016060
:102D7000FFF790FF21494FF000608039086010BDD7
:102D800070B51A4D083528681F4B204910F00C000B
:102D900004D05E10042803D0082803D00B601BE089
:102DA0000E6019E0114A121D1068C0F380541068BB
:102DB00000F03F0014B1B6FBF0F001E0B3FBF0F01F
:102DC00013681268C3F388135843C2F30142521CBC
:102DD0005200B0FBF2F0086028680C4AC0F3031000
:102DE000121D105C0A68C2400A6070BD00380240C3
:102DF0000070004008544007003C024088ED00E0AD
:102E0000FFFFF6FE103000240024F400B400002080
:102E100070B5064600F06AF9056806F10B0020F06F
:102E20000704B4429CBF002070BD2B466A68BAB14B
:102E30001068A04210D304F1080188423CBF5068DA
:102E4000586007D35168101941601168091B01606F
:102E500058601460101D70BD13465268002AE7D1F7
:102E60002146284600F04AF90028DED170BD70B531
:102E70000446051F00F03AF90068002C14BF4468AE
:102E800070BD002C18BFAC423CBF20466468F8D32C
:102E900001680A18AA4218BF456003D12A6805468E
:102EA0001144016028684119A1421CBF6C6070BDCB
:102EB0006168696021680844286070BD0FB41CB562
:102EC000074B06AA7B4469460090059800F0BFF9BD
:102ED0000020694600F0CEF91CBC5DF814FB000030
:102EE000AD03000070B5044685690068C10601D5D0
:102EF000302600E02026C00707D070BDD4E90121AC
:102F000030469047206A401C20626D1EF6D570BD89
:102F100070B5044685690078C00707D170BDD4E953
:102F2000012120209047206A401C20626D1EF6D5AA
:102F300070BD00002DE9F041064600241068752997
:102F4000314616A510D0AFF30080002802DA4042C7
:102F500013A507E031688A0701D512A502E04907E9
:102F600004D511A5012401E0AFF3008000210A225D
:102F700006F1240709E0B0FBF2FCB0FBF2F302FB20
:102F80001C00303078541846491C0028F3D12346E1
:102F90002A463046BDE8F04100F0FAB800000000D3
:102FA0002D0000002B000000200000002DE9F05F44
:102FB000894604464FF0000ADFF824B1FB44C0F80C
:102FC00020A02046E168884700287DD0252806D02B
:102FD000D4E901219047206A401C2062F1E70025D6
:102FE0005F462046E16888472028064607DB312EE9
:102FF00005D2B81910F8200C08B10543F1E7A8076D
:1030000001D525F00405C4F81CA00027C4F818A0B9
:103010002A2E09D0304600F0D7F938B304EB8708E0
:10302000303EC8F8186019E059F8041B204604EB3C
:1030300087029161E1688847012F064618D1E0694F
:10304000002820DA25F020051DE0D8F8180000EB54
:10305000800006EB40003038C8F818002046E168D0
:103060008847064600F0B0F90028EED1012F0AD0BB
:103070002E2E08D12046E16888477F1C0646022F85
:1030800045F02005C4DBA069002803DA404245F082
:103090000105A061E80701D025F01005A6B1A6F151
:1030A0004100192802D8203645F400654A463146C9
:1030B000204625604D46FDF7A1F860B1012807D0F4
:1030C000ED1D25F0070000E007E000F1080978E7B2
:1030D00005F1040975E730467AE7206ABDE8F09FFC
:1030E0002004000070477047704700000048704798
:1030F00010020020704770477047704738B504468B
:103100000A4600206946AFF30080002808BF38BD9A
:1031100002460099204600F0B7F8012038BD012092
:1031200000F0CCB8F8B5AFF30080054600200C469F
:10313000102000BF0646A819A0420DD932466946A4
:103140000020AFF30080070008BF00F0B7F8009838
:10315000A04218BF0546C419FFF7C8FF056007461F
:10316000F01D20F007004619284600F00AF8B44286
:1031700008BFF8BDA21B31463868BDE8F84000F032
:1031800083B800210160C0E901107047102070472A
:103190002DE9F0470D4699469246044600F1240871
:1031A0000168880604D5E06921F01001216000E083
:1031B0000120A84201DD471B00E00027A1697A1920
:1031C00002EB0900081AA0612078C00602D420464C
:1031D000FFF788FE002608E0D4E901211AF806006E
:1031E0009047206A401C761C20624E45F4DB207814
:1031F000C0060AD52046FFF775FE06E0D4E9012196
:1032000030209047206A401C2062381EA7F1010739
:10321000F4DC07E0D4E9012118F805009047206AA2
:10322000401C2062281EA5F10105F3DC2046FFF7B3
:103230006FFE2078000602D50220BDE8F08701204D
:10324000FBE7000001694A1C02610878704700B57D
:103250008FB0CDE901310021059105497944CDE9CF
:10326000031011466846FFF7A1FE0FB000BD000035
:10327000E5FFFFFF0A6802F8010B0A6070470000D3
:103280000048704708020020034640688C4600282A
:1032900018BF88423CBF03464068F8D318681844FA
:1032A000884207D00CF1030020F00700001D411AEE
:1032B000521A0146081D0A60FFF7D9BD10B500F08B
:1032C00035F8BDE8104000F02CB870477546FFF7A0
:1032D000D7FFAE4605006946534620F007008546F5
:1032E00018B020B5FCF7BAFFBDE820404FF000064B
:1032F0004FF000074FF000084FF0000B21F00701DE
:10330000AC46ACE8C009ACE8C009ACE8C009ACE820
:10331000C0098D4670470446AFF300802046FCF795
:1033200088FF002801D000F029B8704710B50128A7
:1033300005D0002103A000F027F8012010BD09A14D
:10334000F8E7000053494752544D454D3A204F7518
:1033500074206F662068656170206D656D6F72798D
:10336000000000003A2048656170206D656D6F7245
:103370007920636F7272757074656400014918205A
:10338000ABBEFEE72600020070B505460C460A20DB
:1033900000E06D1C00F011F835B128780028F8D154
:1033A00002E0641C00F009F814B120780028F8D17C
:1033B000BDE870400A20AFF3008008B569468DF87B
:1033C00000000320ABBE08BD30380A2801D201201E
:1033D0007047002070474FF04070E1EE100A7047D0
:1033E00004000008000000000000000200010000CE
:1033F000100000001434000800000020C800000085
:10340000C4010008DC340008C8000020A007000048
:10341000E0010008000000000102030401020304AF
:10342000060708090000000000000000000000007E
:10343000000000000000000000000000000000008C
:10344000000000000000000000000000000000007C
:103450001F1C1F1E1F1E1F1F1E1F1E1F1F1D1F1E86
:103460001F1E1F1F1E1F1E1FEC000020200000003B
:1034700000000000000A00000C01002020000000F5
:1034800000000000000A00002C01002020000000C5
:1034900000000000000A00004C0100202000000095
:1034A00000000000000A00006C0100202000000065
:1034B00000000000000A00008C0100202000000035
:1034C00000000000000A0000007A030A000000006B
:0C34D000000000000102030406070809C8
:040000050800018965
:00000001FF
