:020000040800F2
:1000000028280020550200086F37000871370008C3
:1000100073370008753700087737000800000000C4
:100020000000000000000000000000007937000818
:100030007B370008000000007D370008813700088A
:100040006F0200086F0200086F0200086F020008CC
:100050006F0200086F0200086F0200086F020008BC
:100060006F0200086F0200086F0200086F020008AC
:100070006F0200086F0200086F0200086F0200089C
:100080006F0200086F0200086F0200086F0200088C
:100090006F0200086F0200086F0200086F0200087C
:1000A0006F0200086F0200086F0200086F0200086C
:1000B0006F0200086F0200086F0200086F0200085C
:1000C0006F0200086F0200086F0200086F0200084C
:1000D0006F0200086F0200086F0200086F0200083C
:1000E0006F0200086F0200086F0200086F0200082C
:1000F0006F0200086F0200086F0200086F0200081C
:100100006F0200086F0200086F0200086F0200080B
:100110006F0200086F0200086F0200086F020008FB
:100120006F0200086F0200086F0200086F020008EB
:100130006F0200086F0200086F0200086F020008DB
:100140006F0200086F0200086F0200086F020008CB
:100150006F0200086F0200086F0200086F020008BB
:100160006F0200086F0200086F0200086F020008AB
:100170006F0200082F3A00086F0200086F020008A3
:100180006F0200086F0200086F0200086F0200088B
:100190006F0200086F0200086F0200086F0200087B
:1001A0006F0200086F0200086F02000800F002F8FA
:1001B00000F041F80AA090E8000C82448344AAF1C0
:1001C0000107DA4501D100F036F8AFF2090EBAE8BE
:1001D0000F0013F0010F18BFFB1A43F0010318477B
:1001E000707F0000907F0000103A24BF78C878C16B
:1001F000FAD8520724BF30C830C144BF04680C602D
:10020000704700000023002400250026103A28BF74
:1002100078C1FBD8520728BF30C148BF0B60704778
:10022000642905F0B587002070471FB506F02AF94C
:100230001FBD10B510BD06F0E8F81146FFF7F5FF39
:1002400003F090FA06F006F903B4FFF7F2FF03BCDF
:1002500006F00AF90948804709480047FEE7FEE72B
:10026000FEE7FEE7FEE7FEE7FEE7FEE7FEE7FEE766
:1002700004480549054A064B704700004738000806
:10028000AD01000828220020282800202824002072
:10029000282400202849084328490860704730B5C1
:1002A0000F23C27801780125FAB1244A126801F1BE
:1002B000E02102F4E062C2F5E062C2F30722C2F17B
:1002C0000404D3404278A24084781C4014432201A5
:1002D00081F80024007800F01F018D404009800063
:1002E00000F1E020C0F8005130BD01F01F00854052
:1002F0004809800000F1E020C0F8805130BD104A6C
:10030000114001430D48001F016070470B4A121D48
:100310000029116801D0014300E08143116070475A
:100320004FF0E0210428086903D020F004000861A0
:10033000704740F00400FAE70000FA050CED00E019
:1003400080FFFF1FF948016841F001010160F74A91
:100350000021083211600268F54B1A400260031D4B
:10036000F44A1A60F14BF44A84331A60F14A103AA5
:100370001B1D1A60026822F480220260EB480C30D8
:100380000160181D01607047E8490022891C0A704D
:100390000870704702460020510901290CD002293B
:1003A0000CD0E2497431096802F01F020123934026
:1003B0000B4200D001207047DC49F4E7DB49703183
:1003C000F1E718B500204FF4A04400903120FFF76A
:1003D000E1FF0099491C0091A14201D00028F5D00D
:1003E0003120FFF7D7FF002800D0012018BDCF4AE9
:1003F000116821F0F80141EAC00010607047CF4950
:1004000008607047C949002270310A700A700128DB
:1004100002D0042801D1052008707047C84908603F
:10042000704741EA82115A0810B5C64B029C03EB93
:1004300002421143014341EA0460BC49091D0860BE
:1004400010BDBE4908667047800140EA0160B749A7
:1004500040EA0270843108607047B8498866704786
:10046000800140EA0160B14940EA027088310860C9
:100470007047B24908677047B049C8647047AB4BD2
:1004800008331A68084322F0EC6210431860704782
:10049000A64B08331A68084322F0784210431860CC
:1004A0007047A24A0832116821F00301014311602C
:1004B00070479E480830006800F00C0070479B4A67
:1004C0000832116821F0F001014311607047974A2A
:1004D0000832116821F4E051014311607047934ADA
:1004E0000832116821F4604141EAC0001060704791
:1004F00070B58E4B08331968934C11F00C0104D081
:100500006610042903D0082903D004601BE00660AC
:1005100019E0864A121D1168C1F38055116801F077
:100520003F0115B1B6FBF1F101E0B4FBF1F1146844
:100530001268C4F388146143C2F30142521C520092
:10054000B1FBF2F1016019680F2202EA11117F4A32
:10055000545C0168E14041601C68072505EA942469
:10056000145D21FA04F484601B6805EA5333D25CFD
:10057000D140C16070BDC0F30121032908D16B4B8C
:1005800008331968724A21F4F81102400A431A60CC
:10059000664970310A68C0F30B0002430A60704775
:1005A00067494439086070476549403908607047B9
:1005B0006249C1F85C0170475C4A8C321168401E88
:1005C00021F01F01014311607047584A8C321168B5
:1005D0006FF0FF0321F4F85103EB00200843106093
:1005E0007047524A8C32116821F440110143116066
:1005F00070474E4A8C32116821F44001014311606A
:1006000070474A4A8C32116821F44031014311602D
:1006100070475049C1F8E0017047444A3032002920
:10062000116801D0014300E08143116070473F4AE7
:1006300034320029116801D0014300E08143116088
:1006400070473A4A38320029116801D0014300E06E
:10065000814311607047354A40320029116801D04A
:10066000014300E0814311607047304A4432002961
:10067000116801D0014300E08143116070472B4AAB
:1006800010320029116801D0014300E0814311605C
:100690007047264A14320029116801D0014300E056
:1006A000814311607047214A18320029116801D036
:1006B000014300E08143116070471C4A2032002949
:1006C000116801D0014300E0814311607047174A6F
:1006D00024320029116801D0014300E081431160F8
:1006E0007047124A50320029116801D0014300E0DE
:1006F0008143116070470D4A54320029116801D0BE
:10070000014300E0814311607047084A58320029D4
:10071000116801D0014300E0814311607047034A32
:1007200060320029116817D0014316E000380240FA
:10073000FFFFF6EA1030002400300020000047429E
:10074000800E47420000FFFF0024F400000000205C
:10075000FFFCFF0F00104742814311607047194AA8
:100760000029116801D0014300E081431160704706
:1007700014490C310128086803D020F008000860F3
:10078000704740F00800FAE70E4A573A00291178FE
:1007900001D0014300E081431170704709481030D7
:1007A000016841F08071016070470146054A0020F0
:1007B000583A12680A4200D0012070470149563960
:1007C0000870704764380240774910B5884206D1F6
:1007D00001210846FFF753FF002101205BE0734928
:1007E000884206D101210220FFF749FF00210220A3
:1007F00051E06F49884206D101210420FFF73FFFF5
:100800000021042047E06B49884206D101210820DD
:10081000FFF735FF002108203DE06749884206D1F7
:1008200001211020FFF72BFF0021102033E0634946
:10083000884206D101212020FFF721FF002120203E
:1008400029E05F49884206D101214020FFF717FFC8
:10085000002140201FE05B49884206D10121802011
:10086000FFF70DFF0021802015E05749884202D193
:10087000012184150AE05549884202D1012144151D
:1008800004E0534988420AD1012104152046FFF7AC
:10089000F6FE00212046BDE81040FFF7F0BE10BD77
:1008A000F0B5002201274FF0030C0B6807FA02F5A0
:1008B0002B40AB422CD1066853000CFA03F4A6433C
:1008C00006600E79D0F800E09E4046EA0E0606600B
:1008D0000E79012E01D0022E12D18668A6438660C1
:1008E0004E79D0F808E09E4046EA0E0686604668DB
:1008F000AE43466045688E799640B6B23543456052
:10090000C568A543C560CC799C40C3681C43C460DE
:10091000521C102AC9D3F0BD4FF6FF7101600021AF
:10092000017141718171C171704708B541F4803224
:100930000092C261C1610099C161C169C069009042
:1009400008BD0246002012690A4200D0012070470B
:10095000006980B270470246002052690A4200D006
:1009600001207047406980B270470183704741831E
:1009700070470AB1018370474183704741617047F6
:1009800042694A40426170474B07DB0E9A40C908F2
:1009900010B500EB8100016A0F249C40A143016265
:1009A000016A1143016210BD0000024000040240D0
:1009B00000080240000C02400010024000140240F7
:1009C00000180240001C02400020024000240240A7
:1009D0000028024010B501218C062046FFF777FE63
:1009E0002046BDE810400021FFF771BE30B5F74A40
:1009F0001368F7490B401360038A146845692C4358
:100A000044EA03441460121D13680B401360038B07
:100A10001468C5692C4344EA03441460121D13682A
:100A20000B401360038C1468456A2C4344EA03446A
:100A30001460121D13680B401360018D1368C46AA3
:100A4000234343EA01431360111D0A68E14B1A4036
:100A50000A60D0E900231A43D0E9023423431A4341
:100A60000B681A430A60416B0A02018E0B04D749D6
:100A700024310C6804F07F440C600C68806B1343D5
:100A800004431C430C6030BD002101604160816063
:100A9000C160016141618161C16101624162816244
:100AA000C1620163416381637047C8491031002806
:100AB000086802D040F0010001E020F00100086069
:100AC0007047C24910310028086802D040F48030D5
:100AD00001E020F4803008607047BC4910310A689A
:100AE000BC4B1A400A600A680B68C2F3021209681C
:100AF000C3F30223C1F302310260C0E90131704740
:100B000002210160416081607047B049383108605E
:100B10007047AE491C310860704770B58A884368D9
:100B200003F4704343600B6843EA024343608A89DD
:100B3000836803F4704383608B6843EA02438360F5
:100B4000026922F0070202610A690261CA6991F82A
:100B5000243014020A8C85691204002686618D698E
:100B600042EA0362254315438561426922F0FF0290
:100B700042614A694261C26940F207739A43C261A5
:100B8000D1E90A231A43C261826A86620A6B8262D1
:100B90000A8FC36A03F0E023C3624B6B43EA02434C
:100BA000C362026B6FF30A020263C96B016370BD1B
:100BB0000021016041608160FF22C160C0E9041230
:100BC0008161C1614FF4C0620162C0E9091207226C
:100BD000C0E90B2141638163C1637047002901684B
:100BE00002D041F0010101E021F0010101607047F4
:100BF00076493C310A6800220A600A680968120CCA
:100C000089B2C0E90021704700210160416070474E
:100C10006E4940310968014201D00120704700202F
:100C2000704710B592B1026842F0020202604A6851
:100C3000C46813020A8904F07F44C460C468096868
:100C400043EA02430C431C43C46003E0016821F003
:100C5000020101605D4901201C31086010BD0021C6
:100C600001604160816070470029016802D041F055
:100C7000100101E021F010010160544901201C31F4
:100C80000860704710B58A6814028A8913040A78CC
:100C900049681C4341EA02612143016410BD0021FF
:100CA000016041608160C160704710B5436803F422
:100CB00070434360836803F470438360434B1B1DA0
:100CC0001C6801EB144312FA84F20169521C5B1C8C
:100CD000F1B101291ED004291ED002291CD00329FC
:100CE0001AD0072918D00121C46AC4F30C04E41EE9
:100CF000B4FBF1F1046B1944491EC4F30A0443EA3E
:100D0000014114444160641E42EA0441816010BD07
:100D10000421E9E70321E7E70221E5E741617047A4
:100D200081627047F0B503690BB3012B21D0042B0E
:100D300021D0022B1FD0032B1DD0072B1BD001234A
:100D40004468C4F30C0584684E19C4F30C041719E5
:100D5000761E45EA064545607F1E44EA07448460E6
:100D60005943CB1C43EA0141C1620263F0BD042335
:100D7000E6E70323E4E70223E2E702690AB3012A74
:100D800021D0042A28D0022A26D0032A24D0072AD8
:100D900022D00122C36A1B0CB3FBF2F3F1B101298B
:100DA0001ED004291ED002291CD003291AD00729DD
:100DB00018D001225343DA1C42EA0342C2620161A5
:100DC00070470422E6E70322E4E7000008680140D8
:100DD00000F800F08F88FE0F0222DBE70422E9E72B
:100DE0000322E7E70222E5E7144A0029116801D04F
:100DF000014300E081431160704701460F4A002023
:100E0000121D12680A4200D0012070470B490831B8
:100E100008607047094A0021121D1268024200D082
:100E20000121064A1268024202D009B1012070472E
:100E3000002070470149083108607047346801405C
:100E400010B501214020FFF724FC0021BDE810402F
:100E50004020FFF71EBC1C490028086802D040F063
:100E6000040001E020F004000860704716480830D4
:100E70000068704714490028086802D040F0080054
:100E800001E020F008000860704701460E4A00208B
:100E9000121D12680A4200D0012070470A496FEA09
:100EA0000010091D086070470146074A0020121D06
:100EB00012680A4200D0012070470349C043091D4F
:100EC000C0B2086070470000000806508100A1F120
:100ED000C04140B143F2D20008606FF070404860FA
:100EE000C1F8040170474FF0204243F2DB0010606C
:100EF000F3E710B5D0E901121143D0E903231A43F7
:100F000011434269114382691143C2691143026A64
:100F10001143426A1143826A1143C26A1143026B50
:100F20001143426B114302689200A2F1C04211606A
:100F30008168082907D101688900A1F1C0410A68C8
:100F400042F040020A60416BB1F5801F15D1016883
:100F500099B14FF020414A680B6822F4700243F4C3
:100F600080130B600B6843F480730B60836BFA4C47
:100F70001B8A04EB035313434B60816BD1E90023BD
:100F800042EA03128B688C891B0243EA04431A432A
:100F90000B8A42EA03520B7D896942EA03620A43E3
:100FA00001688900A1F1C0414A60816AB1F5804FB2
:100FB00008D000686FF070418000A0F1C040C0F818
:100FC000041110BDC16BD1E9002342EA03128B6802
:100FD0000C8A1B0243EA04531A430B7D896942EAD7
:100FE000036200680A438000A0F1C040C0F80421F9
:100FF00010BD00210222C0E900121022C0E9021235
:101000000161C162416112028161C0E907125200AF
:10101000C0E9092101634163D0498163C16370471D
:101020008000A0F1C0400029016802D041F0010118
:1010300001E0CB4A11400160704710B518234024ED
:101040004FF020414FF0FC32102805D041F8803F8E
:101050004C608A60CA6010BD0B664C668A66CA66C0
:1010600010BD30B5D0E901121143D0E903231A4372
:101070001143426941EA4221826941EA423141F029
:101080000804C169D1E9002342EA03220B89097BE4
:101090001B0443EA01610A43016AD1E9003543EACE
:1010A00005230D89097B2D0445EA01610B43016885
:1010B0004FF02040102904D040F8804F8260C36078
:1010C00030BD04668266C36630BD10220021C0E9CF
:1010D0000021C0E90221016141618161C269FC21F5
:1010E0001160C2695160C2699160C269D160026ACF
:1010F0001160026A5160026A9160006AC1607047C3
:101100004FF0204251B1102804D052F8800F40F027
:1011100004000AE0106E40F004000AE09049C91E85
:10112000102804D052F8800F084010607047106EED
:101130000840106670474FF0204251B1102804D08B
:1011400052F8800F40F040000AE0106E40F040007E
:101150000AE083493F39102804D052F8800F084034
:1011600010607047106E0840106670474FF02041C5
:10117000102802D0D1F894007047486F70474FF0A4
:101180002040182140F8A01F002141604FF0FC31A1
:101190008160C1600161704710B5D0E9001241EA79
:1011A00042218268102343EA423211434FF0204229
:1011B00042F8A01FC168D1E9003443EA04230C8936
:1011C000097B240444EA01610B4393600169D1E97E
:1011D000003443EA04230C89097B240444EA0161B6
:1011E0000B43D3604069D0E9001341EA032103892E
:1011F000007B1B0443EA00600143116110BD002124
:10120000016041608160C268FC211160C268516068
:10121000C2689160C268D160026911600269516060
:10122000026991600269D16042691160426951604E
:10123000426991604069C16070474FF020410028C9
:1012400051F8A00F02D040F0040002E0444AD21E40
:101250001040086070478000A0F1C0404FF4347126
:10126000C0F840116FF07041C0F848114FF02041B4
:101270000020C1F85001C1F85401C1F8580170476D
:10128000F0B5D0E901121143D0E903231A43114309
:101290004269046A11438269436A1143C26906685C
:1012A0001143214319434FF0204586B322431A438B
:1012B000C5F8402102689200A2F1C042C2F8401174
:1012C0006FF00F02130114030168160419B3816A49
:1012D000D1E9007C02EB0C127F1E17438A6803EBF6
:1012E000022217430A8A04EB02421743CA68898A1A
:1012F000120306EB0151A2F580520A43C5F84821BA
:1013000000688000A0F1C040C0F84871F0BDFFE760
:10131000C5F84011D4E7806AD0E9001702EB071244
:10132000491E1143826803EB022211430D4BC26830
:1013300003EB02321143028A04EB02421143828A18
:10134000007E06EB025211431A0302EB00600143D8
:10135000C5F84811DAE700000000F0FF90640008CB
:10136000FEFF0F0000F0FFFF00220260426010212C
:1013700040238260C0E90313802343614B01C0E92D
:10138000063202624262826A1160826A5160826A37
:101390009160826AD160826A1161826A5161806A59
:1013A00081617047D0E90012114382686FF01F031A
:1013B000C06803EB421242EA402001434FF0204054
:1013C000C0F8501170474FF020410028D1F8580163
:1013D00003D000F018008008704700F00600704746
:1013E0004FF02041D1F8542142EA4000C1F85401A5
:1013F00070474FF02041D1F8502142EA4010C1F827
:10140000500170478000A0F1C0400029D0F8401181
:1014100002D041F4007102E047F6FF521140C0F8DB
:101420004011704730B54FF480752C014FF02043C8
:10143000A2B1102804D0A84205D153F8840F06E0C9
:10144000586E084313E0A04204D153F8A40F084398
:10145000186030BDD3F85401084313E0102804D0BD
:10146000A84206D153F8840F07E0586E88435866A7
:1014700030BDA04203D153F8A40F8843E8E7D3F866
:1014800054018843C3F8540130BD00224FF020437B
:1014900010280AD0B0F5807F09D0B0F5805F09D060
:1014A000D3F85801814309D107E0586EFAE7D3F821
:1014B0008400F7E7D3F8A400F4E701221046704750
:1014C0004FF0204210280BD0B0F5807F0CD0B0F543
:1014D000805F0CD0D2F854018843C2F854017047A1
:1014E000506E88435066704752F8840F01E052F8FE
:1014F000A40F88431060704730B500231C464FF09E
:101500002045102815D0B0F5807F14D0B0F5805F4D
:1015100014D0D5F85421D5F8584102EA010580B11C
:1015200001280ED002EAD10008B105B10123184606
:1015300030BD6A6EF1E7D5F88420EEE7D5F8A42037
:10154000EBE704F00100EFE74FF0204210280CD049
:10155000B0F5807F0ED0B0F5805F0ED0D2F8540188
:1015600040F00100C2F854017047506E20EAD100EB
:101570005066704752F8840F01E052F8A40F20EA39
:10158000D100106070470000C14910B5884202D1F7
:101590000121841424E0BF49884202D101210414AE
:1015A00004E0BD4988420AD10121C4132046FFF757
:1015B00084F82046BDE810400021FFF77EB8B74907
:1015C000884202D1012144140AE0B549884202D17F
:1015D00001210C0504E0B34988420AD101214C05E0
:1015E0002046FFF774F82046BDE810400021FFF7C1
:1015F0006EB810BD30B502884C8802F441530A8899
:10160000CD8822438C882C4322430C8922434C8969
:1016100022438C892243CC8922431A430280828B45
:1016200022F400628283098A018230BDF0B5022271
:101630000023858B01244FF24006354085830284C8
:10164000868B8D68022D3DD08A8802B10224964A8D
:1016500013681B0203D5136823F400031360924A36
:101660007C3213681268C3F388138F4FC2F302727F
:101670003F1F3D683F6805F03F057F0201D58B4F56
:1016800000E08B4FB7FBF5F55D43B5FBF2F2CB887D
:10169000B3F5007F2BD06301B2FBF3F202EB8202C1
:1016A0008B685200B2FBF3F2521D92B20A23B2FBD6
:1016B000F3F202F00103D21A4FF6FF74C2F34F02A5
:1016C00004EA0323941EFE2C01D302220023CC88BB
:1016D0001A43144304840A884B881A438B888989E7
:1016E0000B431A43324342F400618183F0BD120A76
:1016F000D4E70021018041808180C1800181418146
:101700008181C181072101827047002101804180D0
:101710008180C18002228260818170470029018816
:1017200002D041F0400101E021F04001018070470A
:101730000029818B02D041F4806101E021F48061B5
:1017400081837047028822F40062028002880A4383
:1017500002807047B1F5804F018803D021F48041A9
:101760000180704741F48041FAE7A1F57E4201888B
:10177000FF3A02D041F4807101E021F480710180D0
:1017800070470029818802D041F0040101E021F076
:101790000401818070470029818802D041F0100146
:1017A00001E021F010018180704730B5828B002369
:1017B0004FF240042240828302220284848B0A88F2
:1017C0004FF48075B2F5007F00D002B92B464A88ED
:1017D0008D8889892A4319430A43224342F40061D0
:1017E000818330BD808970478181704700290188DD
:1017F00002D041F4005101E021F400510180704712
:10180000018841F4805101807047012901D0008B8B
:101810007047808A7047008A7047002A828801D00A
:101820000A4300E08A4382807047090901238B4004
:10183000002A828899B201D00A4300E08A4382805C
:1018400070470246002012890A4200D001207047EA
:10185000C9430181704730B501F00F0301250246ED
:1018600005FA03F40020A3B2090905FA01F49188EE
:10187000A4B2128921401A4202D0002900D00120CE
:1018800030BD01F00F0201219140C9430181704731
:101890000030014000380040003C0040003401406E
:1018A00000500140005401400838024000127A0004
:1018B0000024F40022484168491C416081680029E5
:1018C00002D08168491E8160704710B51C4C207899
:1018D000002821D10120FEF757FDFEF772FD0028F8
:1018E000FBD0184801684FF47A70B1FBF0F0401E4D
:1018F000B0F1807F11D24FF0E0225061124BF02006
:1019000083F8140D00209061072010610F48B1FB8F
:10191000F0F0E0600120207010BDFEE7084800787C
:10192000002805D04FF0E020016941F0020101617B
:1019300070474FF0E020016921F00201016170471A
:1019400010000020440000200FE000E0C0C62D0081
:101950001CB501214020FEF760FE4FF4C04000900E
:1019600000208DF8060001218DF804108DF8070085
:1019700003208DF8050069460C48FEF791FF1CBD59
:101980001CB501210846FEF748FE0120009000200A
:101990008DF806008DF804008DF8070003208DF8FF
:1019A000050069460248FEF77BFF1CBD0018024097
:1019B00000000240FE48002181604171704770B50F
:1019C000FB4B00214FF050424FF4963402EB41069E
:1019D0009D68491CA142A853F8D370BDF4484FF448
:1019E0001631816001214171704730B591B01E20E0
:1019F000009040F20D1001900420029040F243103C
:101A0000039002200490FF2005900020069007908C
:101A1000089009904FF480600A9005200B9040F2E6
:101A2000E3100D90C01E0E904FF4A0700F904FF079
:101A30005040E04C0C9069462046FFF76EF8DE49B6
:101A40000C914FF4C0610A91DA4D07210B9180355A
:101A500069462846FFF761F80120FFF75AF801218F
:101A60002046FFF7BBF801212846FFF7B7F8012011
:101A7000FFF74FF80120FFF724F80120FFF715F8D2
:101A8000FF212046FFF74AF900212846FFF746F9D3
:101A90000120FFF73EF811B030BD00B501218FB035
:101AA0008806FEF7E2FD0121C805FEF7B6FD00201D
:101AB00002900390009001900C900D900E900422E3
:101AC0000721C020FEF7CCFC4FF48030FEF799FDD3
:101AD0000120FEF7CEFC3D20FEF75CFC0028FAD08A
:101AE00009200490012005901D20069003200790F6
:101AF00040F20D10089040F24310099040F2171088
:101B00000A9040F247100B906846FEF76FFF0FB047
:101B100000BD70B505464FF40051A848FEF727FFF9
:101B2000A74C04212046FEF722FF2946A54801F0D4
:101B3000AEF92046BDE870400421FEF716BF01B59E
:101B4000009801E0401E00900028FBD108BD70B550
:101B500005464FF400519948FEF707FF984C0421C1
:101B60002046FEF704FF2946964801F090F92046EA
:101B7000BDE870400421FEF7F8BE10B5CA20FFF79B
:101B8000C8FFC320FFF7E3FF0820FFF7E0FF502066
:101B9000FFF7DDFFCF20FFF7BCFF0020FFF7D7FFE7
:101BA000C120FFF7D4FF3020FFF7D1FFED20FFF772
:101BB000B0FF6420FFF7CBFF0320FFF7C8FF122020
:101BC000FFF7C5FF8120FFF7C2FFE820FFF7A1FF65
:101BD0008520FFF7BCFF0020FFF7B9FF7820FFF753
:101BE000B6FFCB20FFF795FF3920FFF7B0FF2C2081
:101BF000FFF7ADFF0020FFF7AAFF3420FFF7A7FF94
:101C00000220FFF7A4FFF720FFF783FF2020FFF754
:101C10009EFFEA20FFF77DFF0020FFF798FF0020DE
:101C2000FFF795FFB120FFF774FF0020FFF78FFF4C
:101C30001B20FFF78CFFB620FFF76BFF0A20FFF792
:101C400086FFA220FFF783FFC020FFF762FF10206E
:101C5000FFF77DFFC120FFF75CFF1020FFF777FF44
:101C6000C520FFF756FF4520FFF771FF1520FFF74E
:101C70006EFFC720FFF74DFF9020FFF768FF36206B
:101C8000FFF747FFC820FFF762FFF220FFF741FF91
:101C90000020FFF75CFFB020FFF73BFFC220FFF7FB
:101CA00056FFB620FFF735FF0A20FFF750FFA720A9
:101CB000FFF74DFF2720FFF74AFF0420FFF747FFFC
:101CC0002A20FFF726FF0020FFF741FF0020FFF743
:101CD0003EFF0020FFF73BFFEF20FFF738FF2B20F0
:101CE000FFF717FF0020FFF732FF0020FFF72FFF5D
:101CF0000120FFF72CFF3F20FFF729FFF620FFF719
:101D000008FF0120FFF723FF0020FFF720FF062038
:101D1000FFF71DFF2C20FFF7FCFE2B4C2046FFF7A2
:101D20000EFF2620FFF7F5FE0120FFF710FFE02051
:101D3000FFF7EFFE0F20FFF70AFF2920FFF707FF4D
:101D40002420FFF704FF0C20FFF701FF0E20FFF710
:101D5000FEFE0920FFF7FBFE4E20FFF7F8FE78207D
:101D6000FFF7F5FE3C20FFF7F2FE0920FFF7EFFE3C
:101D70001320FFF7ECFE0520FFF7E9FE1720FFF721
:101D8000E6FE1120FFF7E3FE0020FFF7E0FEE12072
:101D9000FFF7BFFE0020FFF7DAFE1620FFF7D7FEA1
:101DA0001B20FFF7D4FE0420FFF7D1FE11200DE029
:101DB000FC00002084680140005802D0000C024062
:101DC000000802400050014040420F00FFF7BFFEF4
:101DD0000720FFF7BCFE3120FFF7B9FE3320FFF7E5
:101DE000B6FE4220FFF7B3FE0520FFF7B0FE0C2041
:101DF000FFF7ADFE0A20FFF7AAFE2820FFF7A7FE97
:101E00002F20FFF7A4FE0F20FFF7A1FE1120FFF700
:101E100080FE2046FFF793FE2920FFF77AFEBDE8FB
:101E200010402C2075E62DE9FC4701216F20FEF7BC
:101E3000F4FB03208DF8050001258DF804500024E3
:101E40006803DFF810A48DF8064000908DF8074075
:101E500069465046FEF724FD0420FF4E0090694677
:101E60003046FEF71DFD280300908DF807506946A7
:101E70005046FEF715FDF94D0E2203212846FEF7C8
:101E800083FD0E2204212846FEF77EFD0E22062148
:101E90002846FEF779FD0E220B212846FEF774FD39
:101EA0000E220C212846FEF76FFDED4F092200217E
:101EB0003846FEF769FD092201213846FEF764FD28
:101EC0000E2208213846FEF75FFD0E220921384612
:101ED000FEF75AFD0E220A213846FEF755FD0E2266
:101EE0000B213846FEF750FD0E2206213046FEF744
:101EF0004BFD0E2207213046FEF746FD0E220A2139
:101F00003046FEF741FD0E2203215046FEF73CFD10
:101F10000E2206215046FEF737FDDFF848830E22D9
:101F20000A214046FEF730FDDFF83C930E220621E1
:101F30004846FEF729FD0E2207214846FEF724FDFC
:101F400009220A214846FEF71FFD0E220B214846B2
:101F5000FEF71AFD09220C214846FEF715FD022066
:101F60008DF8040041F6580000908DF8074069464E
:101F70002846FEF795FC40F6037000906946384607
:101F8000FEF78EFC4FF49860009069463046FEF7ED
:101F900087FC4820009069465046FEF781FC2815D2
:101FA000009069464046FEF77BFC4FF4E6500090F7
:101FB00069464846FEF774FCBDE8FC8710B5FFF79C
:101FC00032FF0421A448FEF7D0FC0021A74800F00E
:101FD0003FFF00F000FCFFF7D0FDFFF75EFDFFF7CD
:101FE00004FDA3480021F02241800180A148028025
:101FF0004FF4A07242800122027181734171FF226D
:10200000816002734173FFF7D5FC4FF6FF742046E1
:10201000FFF7D5FCFFF7E2FC2046FFF7D0FCBDE858
:102020001040C7E470B5934B1D8885421DD95C886C
:102030008C421AD99C7B9B684FF050465CB1012CB6
:102040000ED0022C12D0C1F1EF0189B2C0EB00100A
:1020500001EB001006E0C0F5963005FB110001E031
:1020600005FB010006EB40001A5270BDA0F23F10C4
:10207000404280B2EAE77F49F0224FF4A0738873B0
:1020800030B1012804D00B804A80002008717047CD
:102090000A804B800120F9E710B5764C7648217B09
:1020A000FEF73CFE7448617B8030FEF737FEBDE8EA
:1020B00010400120FEF72DBD6E490873ECE76D4915
:1020C0004873E9E76B4810B5407940B1FFF772FCFF
:1020D000FF20FFF7F1FF0020BDE81040EFE7FFF71A
:1020E0007DFC0020FFF7E8FFFF20F5E710B5634A0D
:1020F00000204FF4963341008C18A1F14051B4F800
:102100000048401C0C809842F5D310BD10B55B4AC6
:1021100000204FF496344100A1F1405311441B8834
:10212000401CA1F80038A042F5D310BD2DE9F047BE
:10213000DFF83CC1DDE908A9ACF800009046ACF836
:1021400002101A781E4610444A4A1288904206D954
:1021500070780844ACF802000020ACF800000025BC
:102160001EE0A8F1200111FB00507268002432F833
:10217000107011E007FA04F00004BCF802002844D3
:1021800081B2BCF80000204480B201D5524600E084
:102190004A46FFF747FF641C3078A042EAD86D1C1E
:1021A0007078A842DDD83078BCF800100844ACF84C
:1021B0000000BDE8F0872DE9FC432D4DDDE90998CD
:1021C00028801F461446064669800BE00A2A0ED076
:1021D0000D2A15D0CDE900983B4669882888641CF3
:1021E000FFF7A4FF2278002AF0D1BDE8FC836888BD
:1021F0007978401C0844688060780D2802D02E80D1
:10220000641CEFE700202880641CF9E730B54D78A6
:1022100000241D8002E00B7823449CB210F8013B9F
:10222000002BF8D1148030BD2DE9F84F9446114AA7
:102230000C46054611881F46481EA94200D885B2A3
:10224000614501D81FFA80FC5188481EA14200D880
:1022500084B215E0000C0240000802400000024079
:1022600000040240001402400018024000500140E7
:1022700030000020FC00002084680140005002D0A3
:10228000B94200D887B2654502D2ACEB050001E047
:10229000A5EB0C000FFA80F9BC4201D2381B00E01C
:1022A000E01B0FFA80F84FF0FF30654501D20121A5
:1022B00000E001460091BC4200D20120834648461E
:1022C000C14501DCC8F1000000EBD070401006B23F
:1022D000C9F1000A214628460A9AFFF7A3FE654580
:1022E00001D1BC4211D03046564505DDA0EB0801B6
:1022F0000EB2009929448DB24045EBDA06EB090095
:1023000006B204EB0B0084B2E4E7BDE8F88F2DE9D8
:10231000F8411D46079C16460F4680460B46009422
:10232000FFF782FF42462B46394610460094FFF7DE
:102330007BFF32462B46394610460094FFF774FF68
:102340002B463246194640460094FFF76DFFBDE824
:10235000F8812DE9F8411D4617460C468046079E38
:1023600008E023463A46194640460096FFF75CFFD0
:10237000641CA4B2AC42F4D3E9E72DE9FF4F074651
:10238000C2F1010014460FFA80FCC2EBC4304000D9
:102390000FFA80F881B00E46081981B24FF001099A
:1023A0000025B8B2049AFFF73DFE301B81B2B8B2E7
:1023B000049AFFF737FE3819B1B280B2049AFFF7DA
:1023C00031FE381BB1B280B259E0BCF1000F09DB1D
:1023D00008F102000FFA80F8641E0CEB080024B22A
:1023E0000FFA80FC09F102000FFA80F96D1C0CEB6A
:1023F00009002DB20FFA80FC781906EB040A009050
:102400001FFA8AF180B2049AFFF70CFEA7EB050BC6
:102410001FFA8AF11FFA8BF0049AFFF703FE009867
:10242000A6EB040A1FFA8AF180B2049AFFF7FAFDBC
:102430001FFA8AF11FFA8BF0049AFFF7F3FD38199F
:1024400006EB050A00901FFA8AF180B2049AFFF7A2
:10245000E9FDA7EB040B1FFA8AF11FFA8BF0049A2F
:10246000FFF7E0FD0098A6EB050A1FFA8AF180B29B
:10247000049AFFF7D7FD1FFA8AF11FFA8BF0049A2E
:10248000FFF7D0FDA542A0DB05B0BDE8F08F2DE938
:10249000FE4F0746C2F1010014460FFA80F8C2EB66
:1024A000C43040000FFA80FA0E46081981B29946EE
:1024B0004FF0010B0025B8B21A46FFF7B3FD301BF1
:1024C00081B2B8B24A46FFF7ADFD38190190B1B2FA
:1024D00080B24A46FFF7A6FDA7EB040CB1B21FFA83
:1024E0008CF04A46FFF79EFD0198B3B282B2CDF858
:1024F0000090B1B21FFA8CF042E0B8F1000F09DB96
:102500000AF102000FFA80FA641E08EB0A0024B2F6
:102510000FFA80F80BF102000FFA80FB6D1C08EB3C
:102520000B002DB20FFA80F8781982B20290781B56
:10253000CDE9009031198BB289B280B2FFF774FEF9
:102540000198311B82B202988BB2CDF8009089B20B
:1025500080B2FFF769FE381B82B202903819CDE9CC
:10256000009071198BB289B280B2FFF75DFE0298BC
:10257000711B82B201988BB2CDF8009089B280B203
:10258000FFF752FEA542B8DBBDE8FE8F10B5012172
:102590004020FEF74CF8BDE810400120FEF75BBC80
:1025A00010B50120FEF771FC0028FAD0BDE81040FC
:1025B000FEF75CBC1CB502208DF8040000208DF8ED
:1025C00006008DF8070003208DF805000121022088
:1025D000FEF723F8C54C0C2205212046FEF7D4F95E
:1025E0000C2206212046FEF7CFF9602100916946B2
:1025F0002046FEF755F901210420FEF70EF8BC4CE9
:102600000C2200212046FEF7BFF901210091694606
:102610002046FEF745F901210820FDF7FEFFB54CE5
:102620000C2200212046FEF7AFF90C2201212046A2
:10263000FEF7AAF90C2208212046FEF7A5F90C2284
:1026400009212046FEF7A0F90C220A212046FEF7B8
:102650009BF90C220E212046FEF796F90C220F2141
:102660002046FEF791F94CF203710091694620462D
:10267000FEF716F901211020FDF7CFFF9E4C0C222A
:1026800000212046FEF780F90C2201212046FEF7AA
:102690007BF90C2207212046FEF776F90C2208214F
:1026A0002046FEF771F90C2209212046FEF76CF94D
:1026B0000C220A212046FEF767F90C220B21204646
:1026C000FEF762F90C2211462046FEF75DF90C2256
:1026D0000D212046FEF758F90C220E212046FEF768
:1026E00053F90C220F212046FEF74EF94FF6837165
:1026F000009169462046FEF7D3F801212020FDF71E
:102700008CFF7E4C0C2200212046FEF73DF90C2266
:1027100001212046FEF738F90C2202212046FEF75F
:1027200033F90C2203212046FEF72EF90C22042156
:102730002046FEF729F90C2205212046FEF724F950
:102740000C220B212046FEF71FF90C2211462046D1
:10275000FEF71AF90C220D212046FEF715F90C227E
:102760000E212046FEF710F90C220F212046FEF71D
:102770000BF94FF63F01009169462046FEF790F8AD
:1027800001214020FDF749FF5D4C0C22002120462D
:10279000FEF7FAF80C2201212046FEF7F5F80C228C
:1027A00004212046FEF7F0F80C2205212046FEF712
:1027B000EBF80C2208212046FEF7E6F80C220F2148
:1027C0002046FEF7E1F848F23311009169462046B1
:1027D000FEF766F81CBD2DE9F04F4FF6FF7897B075
:1027E0004446FFF7E7FE01210846FDF72AFF0720D0
:1027F00002274FF0040ACDE9100ACDE912070F971E
:10280000012614974FF0100B402015970496CDE940
:1028100007B00025CDE9055A4FF4C070CDE9090590
:10282000F002CDE90B0580000D900FA80E9004A8D2
:10283000FEF726FD4FF00809CDE90069CDE90265F4
:1028400020210120FEF721FE08B1641EF8D268465F
:10285000FEF7A8FD00974F460395CDE90176A946FE
:102860004546444620210120FEF70FFE08B1641EB4
:10287000F8D26846FEF796FD0320CDE90007CDE9C2
:1028800002792C4620210120FEF7FFFD08B1641ECD
:10289000F8D26846FEF786FD40F23120CDE90260AD
:1028A000CDE900A72C4620210120FEF7EEFD08B15E
:1028B000641EF8D26846FEF775FD4FF42A70FEF7E5
:1028C0008FFD20210120FEF7E0FD08B16D1EF8D23A
:1028D0004FF0504000F850BF0078102803D000207F
:1028E00017B0BDE8F08F0120FAE7000000040240B5
:1028F00000080240000C0240001002400014024098
:102900000018024030B587B001214020FDF785FE58
:1029100000248DF81A408DF81B4003208DF8190013
:1029200002208DF818004FF4E040FF4D059005A9F6
:102930002846FDF7B5FF05220D212846FEF724F8AD
:1029400005220C212846FEF71FF805220E212846F5
:10295000FEF71AF801214805FDF787FE6846FEF7E5
:10296000C8FE2020ADF80C00ADF80040ADF80440E2
:102970004FF48270ADF80E40ADF80200ADF806409D
:10298000ADF808406815E94CADF80A0069462046E4
:10299000FEF730FE01212046FEF7C0FE07B030BD35
:1029A00030B587B000248DF81A408DF81B40032104
:1029B0008DF819100221DE4D8DF8181010B1012884
:1029C00018D03CE001212020FDF727FE4FF4607075
:1029D000059005A92846FDF763FF05220721284633
:1029E000FDF7D2FF052208212846FDF7CDFF05227D
:1029F000092121E001212020FDF70FFE0121802087
:102A0000FDF70BFEC020059005A92846FDF748FFFD
:102A10004FF40061059105A92846FDF741FF052205
:102A20000B212846FDF7B0FFC24D0522062128469E
:102A3000FDF7AAFF052207212846FDF7A5FF012182
:102A40000805FDF712FE6846FEF753FE2020ADF89C
:102A50000C00ADF80040ADF804404FF48270ADF8C2
:102A60000E40ADF80200ADF80640ADF808404FF456
:102A70000070B14CADF80A0069462046FEF7BAFD79
:102A800001212046FEF74AFE88E730B587B00024D2
:102A90008DF81A408DF81B4003218DF81910022182
:102AA000A64D8DF8181010B1012817D030E0012183
:102AB0001020FDF7B2FD6420059005A92846FDF71A
:102AC000EFFE052202212846FDF75EFF0522114692
:102AD0002846FDF759FF0522062116E001211020A6
:102AE000FDF79BFD4FF4E040059005A92846FDF752
:102AF000D7FE05220C212846FDF746FF05220D21B1
:102B00002846FDF741FF05220E212846FDF73CFF30
:102B100001214803FDF7A9FD6846FEF7EAFD2020E4
:102B2000ADF80C00ADF80040ADF804404FF48270F1
:102B3000ADF80E40ADF80200ADF80640ADF8084023
:102B40004FF400707E4CADF80A0069462046FEF74F
:102B500051FD01212046FEF7E1FD1FE730B587B0AA
:102B600000248DF81A408DF81B4003218DF81910B0
:102B700002218DF8181010B1012818D032E001217F
:102B80000220FDF74AFD38206E4D059005A9284624
:102B9000FDF786FE062203212846FDF7F5FE0622F4
:102BA00004212846FDF7F0FE0622052117E0012149
:102BB0000420FDF732FD4FF4E050634D059005A968
:102BC0002846FDF76DFE06220A212846FDF7DCFEA9
:102BD00006220B212846FDF7D7FE06220C212846A7
:102BE000FDF7D2FE0121C803FDF735FD6846FEF76B
:102BF00080FD2020ADF80C00ADF80040ADF8044099
:102C00004FF48270ADF80E40ADF80200ADF806400A
:102C1000ADF808404FF400704C4CADF80A0069461E
:102C20002046FEF7E7FC01212046FEF777FDB5E6DA
:102C300070B588B000248DF8064001218DF807108A
:102C400003218DF8051002213E4D8DF8041020B1AE
:102C5000012824D002283AD053E001210220FDF7B8
:102C6000DCFC01210420FDF7D8FC0C20364E00903E
:102C700069463046FDF714FE301500906946284637
:102C8000FDF70EFE052202213046FDF77DFE0522EE
:102C900003213046FDF778FE05220A212EE00121AE
:102CA0000220FDF7BAFC4FF46040009069462846C8
:102CB000FDF7F6FD05220D212846FDF765FE0522EC
:102CC0000E212846FDF760FE05220F2116E00121A6
:102CD0000802FDF7A2FC0D20009069462846FDF78A
:102CE000DFFD1B4D052200212846FDF74DFE052284
:102CF00002212846FDF748FE052203212846FDF75C
:102D000043FE01218803FDF7A6FC02A8FEF7F1FCB3
:102D10002020ADF81400ADF80C40ADF80840ADF837
:102D200016404FF4827015E0001802400054014034
:102D300000140240001C02400050014000100240FC
:102D4000003401400004024000080240003C004002
:102D500000200240ADF80A00ADF80E40ADF810407A
:102D60004FF40070984CADF8120002A92046FEF70F
:102D700041FC01212046FEF7D1FC08B070BD30B502
:102D800087B000248DF81A408DF81B4003218DF880
:102D9000191002218DF8181010B1012818D031E057
:102DA00001210846FDF739FCE020884D059005A972
:102DB0002846FDF775FD052211462846FDF7E4FD7E
:102DC000052206212846FDF7DFFD0522072116E032
:102DD00001210220FDF721FC38207D4D059005A939
:102DE0002846FDF75DFD052203212846FDF7CCFDB1
:102DF000052204212846FDF7C7FD05221146284675
:102E0000FDF7C2FD01210803FDF72FFC6846FEF720
:102E100070FC2020ADF80C00ADF80040ADF8044087
:102E20004FF48270ADF80E40ADF80200ADF80640E8
:102E3000ADF808404FF40070664CADF80A006946E2
:102E40002046FEF7D7FB01212046FEF767FCA5E5EB
:102E5000604A904201D1084691E75B4A904201D115
:102E60000846E5E65C4A904201D1084676E65B4AB0
:102E7000904201D1084608E6594A904201D10846DD
:102E80008EE5584A904201D108463BE5704710B59F
:102E90000446818102212046FEF7D3FC0028F9D0A8
:102EA00001212046FEF7CDFC0028F9D080212046E4
:102EB000FEF7C7FC0028F9D1A089C0B210BD2DE9EA
:102EC000F0411D4616460F468046002406E0395D57
:102ED0004046FFF7DCFF3055641CA4B2AC42F6D389
:102EE000BDE8F0812DE9F04115460E460746002465
:102EF00005E0315D3846FFF7CAFF641CA4B2AC425E
:102F0000F7D3EDE72DE9F0411D4617460E46804602
:102F1000002406E039464046FFF7B9FF3055641CEF
:102F2000A4B2AC42F6D3DBE710B50446818102219E
:102F30002046FEF786FC0028F9D001212046FEF746
:102F400080FC0028F9D080212046FEF77AFC00287A
:102F5000F9D1A08910BD2DE9F0411D4616460F4656
:102F60008046002408E037F814104046FFF7DCFFE5
:102F700026F81400641CA4B2AC42F4D3B0E72DE9E7
:102F8000F04115460E460746002406E036F81410B8
:102F90003846FFF7C9FF641CA4B2AC42F6D39FE7E2
:102FA0002DE9F0411D4617460E468046002407E0F5
:102FB00039464046FFF7B8FF26F81400641CA4B257
:102FC000AC42F5D38CE7000000380040000002401E
:102FD0000004024000300140003C00400034014049
:102FE000005001400054014008B528480090284B8B
:102FF000284A0021284802F053F828490120087087
:1030000008BD2648007810B1254800787047052093
:103010007047224810B5007830B11E491E4802F0B2
:1030200026FABDE81040ECE7052010BD1C490978E0
:10303000012901D0002070471A494A7842700A7865
:103040000270012008700020487001207047144968
:103050000978022901D00020704713490A880280AC
:103060004A8842808A888280CA88C2800A7A02722C
:103070008A7A82724A7A427200208880C88001204F
:10308000087288724872022070470000AC0000206D
:103090006C000020D81E00202C19002034000020D5
:1030A000F5000020F6000020BC21002038B532B128
:1030B000012A07D0022A08D0032A08D009E04BF2DF
:1030C000237306E04BF6CA3303E0002301E04FF41C
:1030D000784301EB41011B22009302EB41031624CC
:1030E00000EB4000072204EB410102EB4002032405
:1030F00004EB4000FFF72DF938BD10B504462DED67
:10310000028BFFF74DFA00EE100AB8EE400ADFED31
:10311000F98A20EE280A9FEDF88A20EE080ABDEE13
:10312000C00A10EE100A2070FFF73AFA00EE100AFB
:10313000B8EE400A20EE280A20EE080ABDEEC00ACA
:1031400010EE100A6070BDEC028B10BD30B500218E
:10315000EA4B11E003EB410292F9004090F9005074
:10316000AC4207D192F9012090F90140A24201D16D
:10317000012030BD491C89B2B3F8E22B8A42E9D85C
:10318000002030BD10B5DE48FFF7B7FFDC48FFF781
:10319000DDFF0028F7D1DA48022241780078BDE847
:1031A000104083E7D549B1F8E22B22B1B1F8E42B06
:1031B000521CA1F8E42BB1F8E22B521CA1F8E22B2F
:1031C0000278B1F8E43B01F813204078B1F8E42B21
:1031D00001EB42014870704770B5CA4A012082F87D
:1031E000E60BC64981F8E60B0020A1F8E40BA1F834
:1031F000E20BA1F8E80BFF20A2F8E80BC048801E04
:10320000FFF77BFFBE4D0320AD1E28706870284677
:10321000FFF7C8FF002404E0062C02D12878401CE8
:103220002870B748801EFFF7BDFF641CA4B2072CAE
:10323000F2D370BD38B54BF223704FF48074009018
:103240002346ED2214210120FFF783F8002000908F
:103250002346ED2214210120FFF759F838BDAA4872
:103260004178012908D94178491E417041784FF4CD
:103270007A72B2FBF1F141607047A34841780F299F
:1032800008D24178491C417041784FF47A72B2FB00
:10329000F1F141607047994A10B5B2F8E23B8342C0
:1032A0001CD902EB40031C780C705B784B7007E074
:1032B00002EB40018B780B70CB784B70401C80B2D6
:1032C000B2F8E41B8142F3D8B2F8E40B401EA2F836
:1032D000E40BB2F8E20B401EA2F8E20B10BD1CB5E5
:1032E00040F21D542046FEF76AFBFFF7A3FF0020C3
:1032F000CDE90004854B86A205212820FEF75BFF5F
:103300001CBD81480521417041784FF47A72B2FBAF
:10331000F1F14160002101720121017070471CB57B
:10332000FEF7D3FAFEF714FB7F484FF4C04101804B
:10333000FFF72CF9FEF742FE0120FEF79CFEFFF797
:1033400053FEFFF7DEFFFFF747FFFFF7C8FFFFF76A
:1033500019FF764800240460DFF8A4B101270BF1BF
:10336000040B694EDFF89C91DFF89081FFF751FE66
:1033700071686E48026891427DD8317A00297AD10D
:103380005F4BDB1F5978002975D1046099F8E60B73
:10339000C44688F8E60BB8F8E40B18F8100003F1FF
:1033A00009052870B8F8E40B08EB40004078687015
:1033B00095F900108BF8001095F901008BF80100C9
:1033C0001A7892B99CF8E62B32B1012A06D0022A6B
:1033D00007D0032A09D106E0491E00E0491C2970E4
:1033E00003E0401E00E0401C68703078002895F92A
:1033F000000000F1010113D011B1272803D003E030
:103400002620287000E02C7095F90100411C02D0A4
:10341000272803D00EE0262068700BE06C7009E0CE
:1034200039B1272805D095F90100411C01D0272882
:1034300000D15F7018789A4658B931490020891D2B
:10344000FFF729FF2E48801CFFF780FE08B18AF89D
:1034500001709AF80100C0B9294A95F9000092F963
:103460000010884211D195F9010092F901108842AB
:103470000BD1901C00E02AE0FFF794FEBCF8E80BAB
:10348000401CACF8E80BFFF77DFE9AF80100C8B9C4
:103490009AF8000018B91A48801CFFF783FE1848F4
:1034A0000022801D41780078FFF700FE69782878B7
:1034B0000322FFF7FBFD9BF801109BF8000001229F
:1034C000FFF7F4FD9AF80010504601B104700C4D5E
:1034D000ED1F6878A0B3A87898BBAF704FF6FF7A5D
:1034E000CDE900A4124B13A278215820FEF763FE09
:1034F000064B27E00000802F000018423E0100200C
:103500003C000020280D002014190020200000207D
:10351000536E616B652047616D652056312E3020FA
:10352000627920544D0000001A1802401400002057
:103530002800002047616D650A4F56455200000083
:1035400008E008E0CDE900A46DA2B4211C20FEF73C
:1035500032FE00E0AC70FFF754FD01284FF400503C
:1035600048D06E4908806E4801783278914203D184
:1035700041787278914216D031780170717841703B
:103580000F2000907378327866A16D4802F0C4FD78
:1035900040F21D50CDE900406A4B694A40F20911E2
:1035A0000A20FEF708FEB9F8E82B4946B8F8E83BD0
:1035B00040469A423FF4DAAEB0F8E82BA1F8E82B87
:1035C000B0F8E83B71784B433178B0F8E82BC1F1A3
:1035D00002014B435CA15A4802F09EFD40F21D508F
:1035E000CDE90040574B564A40F21D110A20FEF724
:1035F000E2FDBBE64949891E08805948FFF716FDE0
:10360000574801780029AED1407870285DD00BDC96
:10361000612820D064282FD0692853D06D28A2D1EA
:103620003078D0B334709EE7722854D0732835D0E8
:10363000752844D0772896D198F8E61B404639B1D2
:1036400090F8E61B012903D090F8E60B02288AD1F6
:103650003472022130E098F8E61B4046022907D078
:1036600090F8E61B032903D090F8E60B0028DAD186
:10367000347289F8E64B76E798F8E61B4046022953
:1036800007D090F8E61B032903D090F8E60B012839
:10369000C9D1347289F8E67B65E725E098F8E61B26
:1036A000404639B190F8E61B012903D090F8E60BAB
:1036B0000328B8D13472032189F8E61B53E7FFF7DA
:1036C000DCFD50E7FFF7CBFD4DE7307A08B13472EF
:1036D00049E7377247E7FFF7ADFDFFF77DFDFFF7DD
:1036E00051FD6C702F703EE737703CE7144A0B7841
:1036F000323202EB4000037049784170704700009D
:1037000050726573732027722720746F2073746161
:10371000727420616761696E212100001A180240ED
:10372000201900204D6F64653A2534643B205370A6
:103730006565643A202532642F253264000000005C
:103740000C01002020000020486974733A2534647D
:103750003B2053636F72653A2025356400000000FA
:103760003800002000F06FF8FFF7D9FDFEE7704742
:10377000FEE7FEE7FEE7FEE77047704770477047D9
:1037800010B5FEF797F810BD1CB500215B4A0091FB
:103790000191106840F4803010604FF4A04310682D
:1037A00000F4003001900098401C0090019810B97E
:1037B00000989842F3D11068800342D5012001900F
:1037C0004E484030016841F0805101604C49086822
:1037D00040F44040086049480830036803600368CB
:1037E00043F400430360036843F4A0530360041FE1
:1037F000444B2360136843F08073136013689B018C
:10380000FCD50A6842F480320A604A68D203FCD5CB
:103810000A6842F400320A604A689203FCD53A4AC8
:1038200040F205711160016821F003010160016837
:1038300041F0020101600168C1F381010229FAD15E
:103840001CBD01911CBD314810B5016841F47001E7
:1038500001602A48016841F001010160274A002106
:103860000832116002682A4B1A400260031D294A7F
:103870001A60026822F48022026020480C30016045
:10388000FFF782FF21494FF000608039086010BDCA
:1038900070B51A4D083528681F4B204910F00C00F0
:1038A00004D05E10042803D0082803D00B601BE06E
:1038B0000E6019E0114A121D1068C0F380541068A0
:1038C00000F03F0014B1B6FBF0F001E0B3FBF0F004
:1038D00013681268C3F388135843C2F30142521CA1
:1038E0005200B0FBF2F0086028680C4AC0F30310E5
:1038F000121D105C0A68C2400A6070BD00380240A8
:103900000070004008544007003C024088ED00E091
:10391000FFFFF6FE103000240024F40044000020D5
:103920007CB501210220FCF778FE4FF450400324BF
:1039300000908DF8054002208DF8040001208DF8DC
:1039400006003C4D8DF8070069462846FCF7A8FFA5
:103950000C2211462846FDF717F80C220E212846A6
:10396000FDF712F80C220F212846FDF70DF84FF451
:1039700000518DF80540002000918DF80400694643
:103980002846FCF78DFF01214807FCF746FE7CBD69
:1039900008B54FF4C060FCF77DFC4D208DF80000A9
:1039A00001208DF8010003218DF802108DF803002D
:1039B0006846FCF774FC08BD1F4800294FF0100151
:1039C00001D0FCF7D4BFFCF7D0BF08B50021C0EB95
:1039D0000010C00000910721B0FBF1F10098401CDD
:1039E00000908842FAD908BD4FF47A714843ECE759
:1039F0001CB501210420FCF710FE102000900320CC
:103A00008DF8050001208DF8040000208DF80600D7
:103A1000094C8DF8070069462046FCF741FF10214C
:103A20002046FCF7A2FFC820FFF7DEFF1CBD0348BD
:103A300001F0B9BA00040240000802402C1900202D
:103A4000F8B50026044637460096FE4D0320FFF7E2
:103A5000BCFFE068006900907F1CAF4201D90020E4
:103A6000F8BD00980028F1DA0098002140F001002C
:103A700000900098E2681061E06802690092491CB9
:103A8000A94202D8009AD207F7D10320FFF79DFF81
:103A90003046F8BD30B505460020EC78002C0CD13E
:103AA00005EB8202DB1C9B08D2F8D02003E051F822
:103AB000045B1560641C9C42F9D330BD10B504460C
:103AC0000023D21C9008D4F8D02003E0146841F8F9
:103AD000044B5B1C8342F9D3084610BD70B500222D
:103AE000C270012383704026868002261546144644
:103AF000012901D059B115E0C372082101700421D8
:103B00004FF0A04241709115C18006720AE0C47264
:103B10000C210170062141704FF4A061C180CA4A96
:103B20000672C37002F50061C0E9032100210AE0BA
:103B300002EB411303F5106600EB810403F53063DB
:103B4000A661491C636543788B42F1D802F5806118
:103B500041614031C0F8CC10002108E002EB411374
:103B600000EB810403F5A063491CC4F8903003788E
:103B70008B42F3D8002108E002EB013300EB810413
:103B800003F58053491CC4F8D03003788B42F3D836
:103B900002F56062C0F80C21284670BD70B504467D
:103BA000017A0025C068012915D0C16841F04001A3
:103BB000C1602046FFF744FF617A4FF4341009B129
:103BC0004FF47410E16888631420FFF70DFFE0786C
:103BD00001281BD022E0816B627A21F480310AB186
:103BE00041F480118163E068C16821F0401121F443
:103BF000202141F48011C1602046FFF721FFE078C9
:103C000001280BD1E1682A208860E0E7E06881683C
:103C100021F01E010A3141F020018160284670BD6B
:103C2000C0680022816841F0010181601046704740
:103C3000C0680022816821F0010181601046704750
:103C400038B50024034622460094009840F0200036
:103C50000090009861F38A1000900098D96808617C
:103C60007848D9680B690093521C824202D8009BA5
:103C70009B06F7D40320FFF7A8FE204638BD38B5D1
:103C80000024024621460094009840F01000009065
:103C90000098D36818616B48D26813690093491C77
:103CA000814202D8009BDB06F7D40320FFF78DFE8C
:103CB000204638BD10B5C3680024D868012920F01B
:103CC000C04201D019B104E042F0005201E042F0DC
:103CD0008042DA603220FFF787FE204610BDC068C0
:103CE000406900F001007047C068406910F0010FA2
:103CF00001D00020704701207047C068406910F073
:103D0000010000D001207047C06841698069084007
:103D10007047C0684068704710B5C36800221146FC
:103D20009A61C468531E6361C4686360C4686FF0BD
:103D300080436361C468454BA361C37803B9102114
:103D4000C06841F00C5141F00801836941F4001151
:103D50008B430B438361104610BDD0F8CC00006844
:103D600020F02E00704770B50C460546FFF724FE84
:103D70002846FFF7F2FFC10408D4012C04D1D5F87E
:103D8000CC1040F480500860C10405D524B9D5F8A2
:103D9000CC1020F480500860BDE87040C820FFF7C8
:103DA00023BE70B50546FFF7D8FF40F4807455F880
:103DB000CC0F04600A20FFF717FE296824F48070F6
:103DC00008601420FFF710FE012070BD40690268F2
:103DD00061F30102026070472DE9F04100270446BB
:103DE0003D463E46FFF704FED4F80C010660207AFB
:103DF00001280ED001212046FFF7E8FF2046FFF7FB
:103E0000D0FF6069016821F004010160E07A10B11F
:103E100017E00021EFE7E0684FF40071416230469F
:103E200061F30F00E268491061F31F4090624FF4A4
:103E30004072304662F30F0061F31F40E168C1F841
:103E4000000105E0400D0300000004400008008070
:103E500010212046FFF7F4FE2046FFF710FF4FF039
:103E6000FF3107E004EB850050F8902F9160006867
:103E7000C6606D1C2078A842F4D801212046FFF7C7
:103E800072FF2046FFF748FF3846BDE8F0814069E1
:103E9000806840F30000401C7047406940697047EB
:103EA000F0B500EB81060027D6F890403D467B1E1A
:103EB0002A46A360C378012B00D1042200EB4113F2
:103EC00093F8B14334B1012C1FD0022C02D0032C43
:103ED00027D10EE042F0890293F8AE4342F48262A9
:103EE00084B993F8B04342F04002D4B142F02002CA
:103EF00017E093F8AEC342F0990242F4C062BCF1FD
:103F0000000F0ED042F480720BE093F8AEC342F083
:103F1000010242F40872BCF1000F02D042F08002AC
:103F2000F0E7D6F89040E26001228A4041698C694E
:103F300014438C61C068816941F00071816193F81C
:103F4000AC0360F39C5593F8AD0360F3CE2593F872
:103F5000AE0360F3CF3593F8AF0302280CD025F4FD
:103F6000003093F8B113B3F8B22361F3934062F3D6
:103F70000A00032903D004E045F40030F1E740F0E3
:103F80000050D6F8901008603846F0BDF0B500EB50
:103F900041140026D4F8BC3305464FF4807C3746E4
:103FA0006BB1B4F8B2239818401EB0FBF2F080B2A7
:103FB000604505D912026046C4F8BC2300E0012028
:103FC00094F8AE23AAB1B4F8B2234243C4F8BC2398
:103FD00062F3120760F3DC4794F8B40305EB810346
:103FE00060F35E77D3F890000761E878012803D08A
:103FF00007E0D4F8BC23EBE7D3F89020D4F8B8035B
:10400000506153F8900F02682846FFF740FF60F3B5
:104010005D7222F080401A6840F000401060E8783D
:1040200090BB94F8AE0378BBD4F8BC2362B394F889
:10403000B10330B1012810D0022802D0032819D1D1
:104040000BE0E868C36AD21CC2F38F029BB29342B2
:1040500010D2826942F020020BE068690069D21C2C
:10406000C2F38F0280B2904204D2E868826942F0C3
:1040700080628261B4F8BC030A4683B2D4F8B80304
:1040800001462846FFF706FD3046F0BD10B500EBAF
:1040900081010023D1F89020116841F0404111F4D2
:1040A000402F09D0C1F38144022C05D0406900693A
:1040B00010F47F0F03D004E0C068C06AF8E721F075
:1040C00000411160184610BD10B500EB81000023BF
:1040D00050F8901F4FF00042012464F3DC420A6163
:1040E0000068016821F0804141F0004101601846FC
:1040F00010BD10B504460020616988616169401EE9
:10410000486100210AE004EB8100D0F890000268C9
:1041100022F0802242F080420260491C20788842CE
:10412000F1D82046FFF7ABFD2046BDE81040102136
:1041300086E510B5002204461346C0F8102304EBB0
:104140008200C0F81433C0F85033A01880F88C33C4
:10415000521CD2B20F2AF2D30820A4F8B203204690
:10416000FFF7BCFC2046FFF763FD2046FFF716FD76
:1041700001212046FFF79EFD2046FFF72DFE204639
:10418000FFF74EFD002010BDD0F8CC000068C0F352
:104190004140704710B5FFF704FE002010BDD0F875
:1041A000100370474069806880B27047084490F8F7
:1041B0009B03704700EB8100D0F850037047084420
:1041C00090F88C037047FFF76BBE0022431883F80A
:1041D0009B2300EB4113C3F8C023FFF7D7BE0000B9
:1041E0000CB50146D1F8900000680090009820F0CE
:1041F000004000F100400090009820F0804000F165
:1042000080400090009AD1F8900002600020019058
:10421000019820F4001000F5001001900198CA6880
:10422000506101200CBD38B5044600200090FE48C6
:104230000068816820468847009820F0005000F10F
:10424000005000900098E1684861012038BDFEB53B
:104250000446002600250020009002900190D4F82A
:10426000CC0000680290D4F8CC000068019001985E
:1042700020F004000190019820F0020001900198C4
:1042800020F008000190019820F020000190029891
:10429000C0F3400058B1019820F00200801C01904A
:1042A000E148006841682046884745F001050298CA
:1042B000C0F3C000002842D0019820F00800083068
:1042C00001900298C0F38000002838D0D6480068DA
:1042D0004168204688470298C0F34140022804D034
:1042E0000298C0F34140012828D16069006800901D
:1042F0000298C0F34140022811D141F27071606907
:104300004160009800F00300022818D0207A0228AB
:1043100003D102212046FFF759FD01260FE04BF69D
:10432000803160694160009800F00300012806D0E8
:1043300001212046FFF74AFD012600E001260298F0
:10434000C0F3401030B1019820F0200020300190DF
:1043500045F0010516B12046FFF723FD0199D4F879
:10436000CC0001602846FEBD7FB505460C4605F130
:10437000900050F82460B0680390F0680290DDE986
:1043800002100840039005F1900050F824000068E6
:1043900001900398C0F38000D0B1002000900098F5
:1043A00020F00400001D00900098B06005F190001E
:1043B00050F82400C0680090009820F00200801C93
:1043C000009005F1900050F824000099C160B4E11C
:1043D0000398C0F3401048B100200090009820F0EE
:1043E0002000203000900098B060A6E10398C0F350
:1043F0004020F8B105F1900050F82400C06800900A
:10440000009820F00200801C009005F1900050F808
:1044100024000099C160E1B22846FFF737FE002072
:104420000090009820F4007000F500700090009853
:10443000B06082E1039800F0010038B3002105F577
:10444000457040F8241005F1900050F82400C06831
:104450000090009820F00200801C009005F1900070
:1044600050F824000099C160E1B22846FFF70EFE23
:1044700000200090009820F00100401C009000985F
:10448000B060012105F56370015556E10398C0F352
:10449000C00010B300200090009820F00800083001
:1044A00000900098B06005F1900050F82400C068BA
:1044B0000090009820F00200801C009005F1900010
:1044C00050F824000099C160E1B22846FFF7DEFDF4
:1044D000052105F5637001552FE10398C0F3001025
:1044E00038B3002105F5457040F8241005F190001F
:1044F00050F82400C0680090009820F00200801C52
:10450000009005F1900050F824000099C160E1B2DC
:104510002846FFF7BBFD00200090009820F0100017
:10452000103000900098B060032105F563700155CC
:1045300003E10398C0F3C01040B305F1900050F8B8
:104540002400C0680090009820F00200801C0090B9
:1045500005F1900050F824000099C160E1B22846AE
:10456000FFF794FD05F5457050F82410491C40F8FC
:10457000241006217830015500200090009820F08A
:104580008000803000900098B060D6E00398C0F3BF
:10459000801038B3002105F5457040F8241005F16E
:1045A000900050F82400C0680090009820F00200AD
:1045B000801C009005F1900050F824000099C16023
:1045C000E1B22846FFF762FD00200090009820F03D
:1045D0004000403000900098B060042105F5637001
:1045E0000155AAE00398C0F3802078B305F190004C
:1045F00050F82400C0680090009820F00200801C51
:10460000009005F1900050F824000099C160E1B2DB
:104610002846FFF73BFD00200090009820F0100096
:1046200010300090009801E064000020B060082184
:1046300005F56370015500200090009820F480601B
:1046400000F5806000900098B06076E0FFE7039886
:10465000C0F34000002870D005F1900050F824000D
:10466000C0680090009820F00200009005F19000D2
:1046700050F824000099C16005F56370005D0128C1
:1046800015D1012105F29B3001550198C0F38140FD
:10469000022848D105F56B7000EB4410407E80F095
:1046A000010105F56B7000EB441041763BE005F528
:1046B0006370005D032804D1022105F29B3001558F
:1046C00031E005F56370005D04280FD105F56B70CE
:1046D00000EB44100079012803D1E1B22846FFF72E
:1046E000F3FC022105F29B3001551CE005F56370D7
:1046F000005D052804D1042105F29B30015512E02C
:1047000005F56370005D06280DD105F5457050F87C
:104710002400032807D1032105F29B300155002115
:10472000873840F8241000200090009820F0020004
:10473000801C00900098B06000BF012004B070BDE4
:1047400070B586B005460C4605F1900050F824601F
:10475000B0680590F0680490DDE904100840059009
:1047600005F1900050F824000068039000200490A8
:104770000598C0F38000D0B100200190019820F08E
:104780000400001D01900198B06005F1900050F800
:104790002400C0680190019820F00200801C019064
:1047A00005F1900050F824000199C16073E005986C
:1047B000C0F3401048B100200190019820F0200083
:1047C000203001900198B06065E00598C0F3C0000A
:1047D00078B305F1900050F82400C068019001986A
:1047E00020F00200801C019005F1900050F8240098
:1047F0000199C160052105F5637001550020019004
:10480000019820F01000103001900198B060002055
:104810000190019820F00800083001900198B060E4
:10482000059820F010000590E1B22846FFF72EFC15
:1048300031E0FFE70598C0F3802060B305F19000F8
:1048400050F82400C0680190019820F00200801CFC
:10485000019005F1900050F824000199C160E1B287
:104860002846FFF713FC00200190019820F010006B
:10487000103001900198B060082105F56370015572
:1048800000200190019820F4806000F58060019084
:104890000198B06000BF0598C0F34020F8B105F161
:1048A000900050F82400C0680190019820F00200A8
:1048B000801C019005F1900050F824000199C1601E
:1048C000E1B22846FFF7E2FB00200190019820F4B6
:1048D000007000F5007001900198B06042E1059809
:1048E00000F00100002871D0E878012812D105F10C
:1048F000900050F824000069029005F56B7000EB01
:10490000441000690299C1F31201411A05F554706F
:1049100040F82410012105F5637001550021783815
:1049200040F8241000200190019820F00100401C64
:1049300001900198B0600398C0F3814020B10398C2
:10494000C0F3814002282AD105F1900050F82400DC
:10495000C0680190019820F00200801C019005F1D0
:10496000900050F824000199C160E1B22846FFF799
:104970008DFB00200190019820F010001030019074
:104980000198B06005F56B7000EB4410007E80F07C
:10499000010105F56B7000EB44100176E2E003982D
:1049A000C0F38140032899D1039820F0005000F112
:1049B0000050039005F1900050F824000399016025
:1049C000012105F29B300155CCE0FFE70598C0F3CB
:1049D0004000002851D005F1900050F82400C06834
:1049E0000190019820F00200019005F1900050F82C
:1049F00024000199C16005F56370005D012804D1B0
:104A0000012105F29B3001552DE005F56370005D35
:104A1000052804D1042105F29B30015523E005F55A
:104A20006370005D062804D005F56370005D0828FA
:104A300008D1002105F5457040F824100321873086
:104A4000015510E00398C0F3814003280BD105F510
:104A50006B7000EB4410007E80F0010105F56B7077
:104A600000EB4410017600200190019820F0020034
:104A7000801C01900198B06074E00598C0F3C010EC
:104A800040B305F1900050F82400C06801900198EF
:104A900020F00200801C019005F1900050F82400E5
:104AA0000199C16005F5457050F82410491C40F883
:104AB0002410062178300155E1B22846FFF7E6FAC6
:104AC00000200190019820F0800080300190019832
:104AD000B06047E00598C0F30010E8B30398C0F356
:104AE0008140032815D105F1900050F82400C068DA
:104AF0000190019820F00200801C019005F19000C7
:104B000050F824000199C160E1B22846FFF7BEFACF
:104B100018E00398C0F3814020B10398C0F38140AE
:104B200002280FD1039820F0004000F100400390CC
:104B3000039820F08040039005F1900050F8240085
:104B400003990160032105F5637001550020019070
:104B5000019820F0100000E004E01030019001986E
:104B6000B06000BF012006B070BD7CB505460024D2
:104B700000262846FFF791F9019000BF1BE001983D
:104B800080B20121A1400840A0B105F1900050F889
:104B90002400006800900098C0F3C03028B121467E
:104BA0002846FFF7CDFD064304E021462846FFF7DF
:104BB000DBFB0643641C2878A042E0D830467CBD6D
:104BC000FEB504466069006900900198C0F3C30116
:104BD00004F56B7000EB41100069C01CC0F38F0638
:104BE00074E04FF6FF71009801EA80050198C0F368
:104BF000C30104F56B7000EB41100069A84216D2A6
:104C00000198C0F3C30104F56B7000EB4110008AFA
:104C100085B200200290029820F0806000F1806050
:104C20000290E068806902998843E1688861019890
:104C3000C0F3C30104F56B7000EB41100069C01CA8
:104C4000C0F38F060198C0F3C302C0F3C30304F599
:104C50006B7000EB43102B46C1682046FEF71AFF2D
:104C60000198C0F3C30104F56B7000EB4110C068FC
:104C700041190198C0F3C30204F56B7000EB4210B8
:104C8000C1600198C0F3C30104F56B7000EB4110E3
:104C90000069411B0198C0F3C30204F56B7000EB7F
:104CA000421001610198C0F3C30104F56B7000EB81
:104CB0004110406941190198C0F3C30204F56B70BB
:104CC00000EB42104161606900690090009880B279
:104CD000B0420ADD0198C0F3C30104F56B7000EB2C
:104CE0004110006900287FF47CAF0120FEBD7FB534
:104CF0000446E068C06A00900198C0F3C30104F55F
:104D00006B7000EB41100069C01CC0F38F0673E0AC
:104D10004FF6FF71009801EA80050198C0F3C301C6
:104D200004F56B7000EB41100069A84215D20198A0
:104D3000C0F3C30104F56B7000EB4110008A85B22B
:104D400000200390039820F0200020300390E068BA
:104D5000806903998843E16888610198C0F3C301C1
:104D600004F56B7000EB41100069C01CC0F38F06A6
:104D70000198C0F3C302C0F3C30304F56B7000EBEA
:104D800043102B46C1682046FEF784FE0198C0F30D
:104D9000C30104F56B7000EB4110C0684119019824
:104DA000C0F3C30204F56B7000EB4210C1600198C0
:104DB000C0F3C30104F56B7000EB41100069411BA7
:104DC0000198C0F3C30204F56B7000EB421001615F
:104DD0000198C0F3C30104F56B7000EB411040690A
:104DE00041190198C0F3C30204F56B7000EB421047
:104DF0004161E068C06A0090009880B2B0420ADD6C
:104E00000198C0F3C30104F56B7000EB4110006919
:104E100000287FF47DAF012004B070BD30B585B0AF
:104E20000446002000900390039820F010001030FA
:104E30000390E068806903998843E1688861E068CD
:104E4000006A0490049800F00F00009004F19000B4
:104E50009DF8001050F82100006801900498C0F3FC
:104E60004340022806D0032878D0052877D00728A9
:104E700073D175E00498C0F30A10002869DD04F5C9
:104E80006B709DF8001000EB4110C068002860D0E6
:104E90000498C0F30A1204F56B709DF8003000EB23
:104EA0004310C1682046FEF709FE049800F00F0188
:104EB00004F56B7000EB4110C0680499C1F30A114E
:104EC0000144049800F00F0204F56B7000EB4210EF
:104ED000C160049800F00F0104F56B7000EB411005
:104EE00040690499C1F30A110144049800F00F02CB
:104EF00004F56B7000EB4210416104F56B709DF896
:104F0000001000EB4110456904F554709DF8001045
:104F100040F8215004F190009DF8001050F8210055
:104F2000006902900298C0F3C940002811DD019881
:104F300020F0004000F100400190019820F08040F6
:104F4000019004F190009DF80020019950F8220092
:104F5000016006E002E002E0FFE700BF00BF00BF23
:104F600000BF00BF039820F0100010300390E068ED
:104F7000806903990843E1688861012005B030BD6C
:104F800038B504460020009031480068016820468A
:104F90008847009820F00800083000900098E168E9
:104FA0004861012038BD38B5054600240020009036
:104FB0002846FEF7A2FE002847D02846FEF7A4FEAA
:104FC0000090009808B9002038BD0098C0F3C000D8
:104FD00018B12846FFF7D4FF04430098C0F300102F
:104FE00018B12846FFF71AFF04430098C0F3401099
:104FF00018B12846FFF77BFE04430098C0F3806099
:1050000018B12846FFF7DCFD04430098C0F3406068
:1050100018B12846FFF7A9FD04430098C0F30060CB
:1050200018B12846FFF713F904430098C0F3407005
:1050300018B12846FFF7F7F804430098C0F3405032
:1050400018B12846FFF7CCF804432046BCE700001F
:10505000640000200121C0F81013002070470021D7
:10506000C0F81013084670470020704770B50C4612
:10507000002121706170A17001220546E270227743
:105080004020A07184F8201084F82120217928463E
:1050900000F00FFB6179284600F00BFB002070BD8B
:1050A0002DE9F0411D4614460F468046069EFEF748
:1050B00037FC0020FEF79CFC21464046FFF7D6FF58
:1050C000E4E91F5639464046FFF733F86068006848
:1050D00080474046BDE8F041FEF75ABC2DE9F05F3D
:1050E000002680468E740C46087F0B250927012177
:1050F000DFF8FC944FF0080B4FF0050A0C2817D28C
:10510000DFE800F0D1060E39415A677B849EAFC4B8
:10511000627904F11401404600F009FD0220AEE07E
:1051200061794046FFF742F8012802D003281ED0DB
:10513000B9E0207D618B00F0800051B141F28832EE
:10514000A9F80020802802D084F81CA008E00320E1
:1051500005E03222A9F80020802806D00720207719
:105160004046FFF71FF820829DE02777F8E7257774
:1051700084F812A097E02379A2894046A16800F044
:1051800005FD04207BE021794046FFF70FF8012858
:105190000DD004280DD0032876D04046FFF702F842
:1051A000218A411AB9F8000081426DD87BE0277747
:1051B000F3E76078207076E0627908EB421080F8BF
:1051C000C5136379A2894046A16800F0C4FC06209B
:1051D00055E061794046FEF7E9FF012804D0042834
:1051E00004D0022806D044E0072048E06078207010
:1051F0000C2044E084F81CA055E0002223791146DD
:10520000404600F0C3FC84F81CB04CE021794046D5
:10521000FEF7CCFF074601282ED0032F34D040469E
:10522000FEF7C0FF218A411AB9F8000081422BD84D
:10523000042F38D1607820700420A074032632E057
:105240006179002208EB411090F8C51381F001014B
:1052500080F8C51363791146404600F07CFC0A20B3
:105260000DE061794046FEF7A1FF012804D0022835
:1052700008D0032808D016E0607820700D20207731
:1052800011E001E027770EE025770CE0A07B401CC1
:10529000C0B2A073022801D8217704E084F812B0CC
:1052A0006078207002263046BDE8F09F70B50A2570
:1052B000044605290AD0042908D006290BD12570F7
:1052C000D0F880000068BDE870400047D4F8800046
:1052D000406C8047257070BD2DE9F0410C4680463A
:1052E000012589780026FF2092B02F460A2956D240
:1052F000DFE801F0052332565F71849BAEB80822C7
:105300002146404600F0E8FC002848D194F82900E6
:10531000A0714046FEF73EFFA770A0790023CDE9BB
:10532000006061791A46404600F090F9A0790023A8
:10533000CDE9006021791A462EE01222214640462E
:1053400000F0CAFC00282AD1D4F88000C16904F119
:1053500022008847022083E001222146404600F0D7
:10536000EBFD00287FD10220FEF73EFB84F8207081
:10537000D4F88000A41C006A8047032020700096A7
:105380000196A27FA1780023404600F05FF90096C5
:105390000196A27FE1780023404600F057F962E0D1
:1053A00009222146404600F079FD00285BD1042007
:1053B00056E0E28E2146404600F070FDA0BBD4F8D6
:1053C000800004F1500204F13E01436A04F134000C
:1053D0009847052044E094F83020062652B100900A
:1053E00002AB2146404600F083FDE8B9D4F88000C6
:1053F000816A11E0D4F88000816A12E094F83120CB
:1054000007265AB1009002AB2146404600F070FDDD
:1054100050B9D4F88000C16A02A803E0D4F8800033
:10542000C16A74A08847A6701DE094F8322008264F
:1054300052B1009002AB2146404600F059FD90B9B0
:10544000D4F88000016BE7E7D4F88000016BE8E74F
:1054500094F839202146404600F07AFD18B9092019
:10546000A07000E0002512B02846BDE8F0812DE9CB
:10547000FC4102260C4605468DF80060FEF78FFEC3
:1054800020B9207810B1022800D02670207800269C
:1054900004F120070B2848D2DFE800F006129447F9
:1054A0004965777F554784002846FEF778FE002837
:1054B0003BD001202070BDE8FC416420FEF794BA87
:1054C000D4F88000806880470021284600F0D7F893
:1054D00060718021284600F0D2F820712846FEF73E
:1054E00059FE002821D1D4F88000241DC0688047CF
:1054F0002846FEF749FEC0B26077042104F8041C78
:10550000E16F89698847A078CDE90060637F227FD9
:105510002178284600F070F8A078CDE90060637F1C
:10552000227F6178284600F067F8BDE8FC812146BB
:105530002846FFF7D1FE0028F7D1D4F88000406B51
:10554000804708200DE0D4F88000806B8047012858
:10555000EBD1E06F21460268284690470028E4D14D
:1055600005202070E1E7E06F2146826828469047D9
:105570008DF800009DF8000008B90620F1E79DF8BD
:1055800000102046BDE8FC4190E6E06F2146C2686D
:10559000284690478DF80000F1E721462846BDE8EF
:1055A000FC419BE521462846FFF760FDD4F88000CA
:1055B00040688047E06F3946426802B02846BDE83F
:1055C000F0411047D4F88000006980472146284602
:1055D000FFF74CFDD4F8800040688047E06F394603
:1055E000426828469047284600F06FF826709CE7EE
:1055F000680000204E2F41002DE9F04100EB4105ED
:10560000DDE9066795F88C4504F07F0C00EB41144A
:1056100084F8ADC395F88C55C5F3C01584F8AE5326
:1056200084F8AC2384F8B163A4F8B27384F8AF3380
:10563000002284F8C42384F8C52313B9012284F816
:10564000B023FEF72DFC0020BDE8F08170B500EB23
:105650004114059D0AB184F8AC23B4F8B223AA42E0
:1056600002D00DB1A4F8B25394F8AF239A4202D0FD
:105670000BB184F8AF33FEF713FC002070BD30B5DA
:10568000034600224FF6FF7403EB4205B5F88C5534
:105690002D0404D5521CD2B2082AF5D32246A242C8
:1056A00005D003EB420041F40041A0F88C15D0B2C4
:1056B00030BD082907D200EB4100B0F88C15C1F3CA
:1056C0000E01A0F88C15002070470221002200EB8B
:1056D0004103491CC9B2A3F88C250829F7D300203F
:1056E000704700002DE9FC47B94E8246062086F837
:1056F000420091F84400002501270C46012806D0FD
:10570000D1F88000006C80473846BDE8FC8794F8EB
:105710004500012802D0022802D003E0AD4800E095
:10572000AD4830654FF0000986F8429086F8459004
:1057300094F8520086F84800B4F85400A6F84600E1
:1057400094F85600A6F84A000A2802D20A20A6F8C1
:105750004A0094F84270022F00D902274FF0030844
:1057600029E004EBC50090F852100A060CD586F823
:10577000441090F8521050464036FFF780FF06F86C
:10578000060B36F846190AE086F8431090F85210D6
:105790005046FFF774FF86F84100B6F84610CDE991
:1057A0000081014694F8213094F820205046FFF7FC
:1057B00023FF6D1CEDB2BD42D3D3884981F8009020
:1057C0000027A1E770B5824C0646002594F84010EA
:1057D00041B1FEF75BFC94F840103046FFF769FFDB
:1057E00084F8405094F8411041B13046FEF74EFC29
:1057F00014F8411F3046FFF75CFF257077480570AD
:1058000070BD2DE9FC41724D0126044695F845C056
:1058100021230022374600F58870BCF1050F62D2C3
:10582000DFE80CF0032F033F51000922CDE900020D
:105830004FF404530122204600F036FA00BB6448BE
:1058400094F810115430017094F81111417094F8CB
:10585000121194F8132101EB0221418094F81411E4
:10586000017194F81511417194F81611817194F831
:10587000171194F8182101EB0221018185F8457078
:1058800031E0534A4FF4085354321289CDE90002F3
:105890000122204600F008FA28BB032085F84500C5
:1058A00021E00B750A234B75CA820A834A830023C1
:1058B00020461A4600F018F9042108B1032812D135
:1058C00085F845100FE00B750B234B75CF820A83CB
:1058D00017464A83002320461A4600F005F910B9FE
:1058E00085F8457000263046BDE8FC812DE9F0477B
:1058F000374C81460F4694F842004FF000080325CC
:1059000038B1364E032810D0042808D005284AD1D3
:105910001BE0206D00688047042084F84200484660
:10592000FEF7B5FA01283CD03DE014F8403F284985
:10593000A279484600F065F9012030700520A0707A
:105940004846FEF72FFCA0812DE04846FEF72AFCD2
:10595000B4F84C10401AB4F84A10884221D294F896
:1059600040104846FEF722FC012807D094F840106A
:105970004846FEF71BFC04280AD014E030780128C2
:1059800011D100203070206D4168114888470AE02D
:1059900094F8403094F848203946484600F0F1FA2F
:1059A00008B984F842504046BDE8F087F0B41C4680
:1059B000DDE9043521260E7509264E7544EA0222DA
:1059C000CA8200220A834B832A46F0BC00F08CB8BE
:1059D0005C1F00207C0000209C0000206A0000204A
:1059E00000F088BB2DE9F047354C0023A370E3702D
:1059F00023716370017802290DD020290BD019463C
:105A0000217000250221425C012A06D0022A04D01E
:105A1000032A02D002E00121F2E70125491CC9B2A4
:105A20000829F0D3012D36D0DFF89480A37008F157
:105A30000B08A8F106069946E370022206F10C0550
:105A4000875CB7B1A1787754491CA170002106E0AA
:105A5000875C15F801C0674503D0491CC9B299425B
:105A6000F6D3994205D1E178875C08F80170491CAA
:105A7000E170521CD2B2082AE2D3E07801280CD09F
:105A800084F80190A07820710020315C2954401CDA
:105A9000C0B20628F9D3BDE8F08798F8000060701E
:105AA00022780849012A06D0095C0648E830405CA3
:105AB00000F026FBE6E7085C0349085CF8E7000015
:105AC00084000020647F0008CE80000800F0B7BA90
:105AD00004490278CA7042780A7080784870084693
:105AE00000F0BFBAA400002030B50120CC780546F4
:105AF000012C0BD0022C08D10A7F0D2A10D00B2AC2
:105B000012D00C2A01D1CD70032030BD0C784C701E
:105B100007240C708A608B810D770222CA7030BD19
:105B2000CD700020087730BDCD70022030BD10B59B
:105B30000B4600EB4211002481F8AE43032481F8A8
:105B4000B443C1F8B8330823C1F8BC331146FEF79B
:105B50003CFBC0B210BD70B500EB4314002584F8C7
:105B6000AE53C4E9EE121AB194F8C51359B102E06C
:105B7000012184F8C513022184F8B4131946FEF7F5
:105B800024FB002070BD84F8B453F7E770B50C46D1
:105B900000EB4311012581F8AE53022581F8B4537F
:105BA000C1E9EE421946FEF710FB002070BD70B54A
:105BB00000EB4314002584F8AE53C4E9EE1294F8C8
:105BC000C51339B1022184F8B4131946FEF7FDFA62
:105BD000002070BD84F8B453F7E770B50C4600EBB5
:105BE0004311012581F8AE53C1E9EE4291F8C42377
:105BF00002B1022281F8B4231946FEF7E6FA00202A
:105C000070BD70B50C4600EB4311012581F8AE5311
:105C1000C1E9EE4291F8C4235AB1022481F8B44399
:105C200082F0010281F8C4231946FEF7CEFA002063
:105C300070BD0024F2E770B50D4600EB431400215F
:105C400084F8AE13C4E9EE5294F8C42302B10221E1
:105C500084F8B41382F0010184F8C4131946FEF7E6
:105C6000B4FA002070BD70B50C4600EB431101255D
:105C700081F8AE53C1E9EE42002281F8B4231946FF
:105C8000FEF7A3FA002070BD70B500EB43140025A9
:105C900084F8AE53C4E9EE1284F8B4531946FEF703
:105CA00094FA002070BD000030B442F08002DDE9BB
:105CB00002540A7506224A750322CB82B2EB132FD7
:105CC00002D140F2094200E000220A834C832346BD
:105CD0002A4630BCFFF708BF7CB51646044600F5DF
:105CE0008870CDE900060D464FF4807300222046EF
:105CF000FFF7DAFF00283CD194F8101105F8221FB5
:105D000094F81111697094F8121194F81321082E67
:105D100001EB0221698094F81411297194F815118E
:105D2000697194F81611A97194F81711E97120D9C5
:105D300094F8181194F8192101EB0221298194F8A3
:105D40001A1194F81B2101EB0221698194F81C11AE
:105D500094F81D2101EB0221A98194F81E11A97369
:105D600094F81F11E97394F82011297494F8211103
:105D700069747CBD0A8803781A440A800178084453
:105D800070472DE9FF4F85B0074618781299387093
:105D90005878787092469878DA781C4600EB0220A2
:105DA0007880187938715A797A719A79BA71DA7972
:105DB000FA71227A3A7209296DD90921DFF818821D
:105DC000ADF80C1002285CD960E003A92046FFF76B
:105DD000D1FF04464078042853D194F90260069814
:105DE00006EBC60101EB000BE078032849D22146FF
:105DF000684600F0DDF89DF804000025022840D830
:105E00003BE003A92046FFF7B5FF0446407805288C
:105E100033D10AEB061000EBC50998F80000B04238
:105E200002D088F8006007E02079617900EB012159
:105E3000B8F80200814224D36946584600F0B8F809
:105E4000217889F80010617889F80110A17889F823
:105E50000210E17889F80310217962796D1C01EB59
:105E60000221A9F80410A17989F806102079617936
:105E70006DB200EB0120A8F802009DF80400A842D2
:105E8000BFDC7888BDF80C1088429ED80020A8F8A6
:105E9000020088F8000009B0BDE8F08F2DE9FC474A
:105EA000154600F58878CDE90085002407460E46A2
:105EB0004FF400732246FFF7F7FE5FEA000907D0B0
:105EC00013E0391991F810110155641CA4B200E0D7
:105ED0004248AC42F5D3434606F1500206F13E017A
:105EE00006F134000095FFF74CFF4846BDE8FC87FB
:105EF0007CB500F58875069E1C46CDE9005642F437
:105F000040730022FFF7D0FE002814D169780329DE
:105F100011D129788A1EB24200DC16460021B2B2A5
:105F2000AD1C04E06B5C891C04F8013B89B2914212
:105F3000F8D3002121707CBD30B400230B750524FB
:105F40004C75CA820B834B8330BC1A46FFF7CCBD1D
:105F500030B400230B7509244C75CA820B834B8324
:105F600030BC1A46FFF7C0BD30B401240C750B24B9
:105F70004C75CB820A8300224A8330BC1346FFF75C
:105F8000B3BD30B402240C7501244C750024CC82BE
:105F90000A8315064C8300EB431202D582F8C443F2
:105FA00001E082F8C543002330BC1A46FFF79CBDD0
:105FB0000A7802704A7842708A788270CA78C27011
:105FC0000A7902714A7942718A798271CA79C271F9
:105FD000097A017270470000A8000020BC1F002051
:105FE0004B49032048707047494903204870704767
:105FF0004749002048707047454903204870704762
:106000004349032048707047002806D0012804D077
:10601000022802D03E490020487070477047704700
:10602000704770477047704770473949042048707F
:106030007047012070473649002048707047344847
:1060400002214170017800290AD0002101703148F5
:10605000018041808180C180012101724172817281
:10606000704770B502782B493AB190F900208A80C8
:106070000A8890F900301A440A8042783AB190F9BF
:106080000120CA804A8890F901301A444A80C278B7
:106090004FF00003D6071E4A4FF0010402F104023C
:1060A000157803D035B914700B7203E0012D01D1BE
:1060B00013700C72C578AE07154D05F104056D78A7
:1060C00003D535B954704B7203E0012D01D15370E3
:1060D0004C72C07845070E4800F10400807804D562
:1060E000002801D194708B7270BD0128FCD193708F
:1060F0008C7270BD064901204870891C0870704779
:1061000003490022891C0A704870704770470000DC
:10611000F4000020BC2100200FB41CB5074B06AAD8
:106120007B4469460090059800F057F900206946C5
:1061300000F066F91CBC5DF814FB0000DD020000F5
:1061400070B5044685690068C10601D5302600E0B7
:106150002026C00707D070BDD4E901213046904702
:10616000206A401C20626D1EF6D570BD70B50446D5
:1061700085690078C00707D170BDD4E901212020CE
:106180009047206A401C20626D1EF6D570BD00004D
:106190002DE9F0410646002410687529314616A500
:1061A00010D0AFF30080002802DA404213A507E0C8
:1061B00031688A0701D512A502E0490704D511A567
:1061C000012401E0AFF3008000210A2206F1240738
:1061D00009E0B0FBF2FCB0FBF2F302FB1C00303034
:1061E00078541846491C0028F3D123462A463046E5
:1061F000BDE8F04100F092B8000000002D00000062
:106200002B000000200000002DE9F0474FF0000AAD
:1062100089460446C0F820A02046E1688847002847
:1062200076D0252806D0D4E901219047206A401C69
:106230002062F1E7E168204600258847C4F81CA0E9
:1062400006460027C4F818A02A2E09D0304600F0D0
:1062500012F938B304EB8708303EC8F8186019E02B
:1062600059F8041B204604EB87029161E1688847D6
:10627000012F064618D1E069002820DA25F0200514
:106280001DE0D8F8180000EB800006EB4000303825
:10629000C8F818002046E1688847064600F0EBF889
:1062A0000028EED1012F0AD02E2E08D12046E16819
:1062B00088477F1C0646022F45F02005C4DBA069F5
:1062C000002803DA404245F00105A061E80701D04B
:1062D00025F01005B6B1A6F14100192802D82036E4
:1062E00045F400654A463146204625604D46F9F79B
:1062F00097FF58B1012806D0ED1D25F0070000F1E9
:10630000080989E704E005F1040985E730468AE7D2
:10631000206ABDE8F0877047704770472DE9F04765
:106320000D4699469246044600F124080168880605
:1063300004D5E06921F01001216000E00120A842AD
:1063400001DD471B00E00027A1697A1902EB090073
:10635000081AA0612078C00602D42046FFF7F0FE9C
:10636000002608E0D4E901211AF806009047206AC7
:10637000401C761C20624E45F4DB2078C0060AD50E
:106380002046FFF7DDFE06E0D4E9012130209047EA
:10639000206A401C2062381EA7F10107F4DC07E0E8
:1063A000D4E9012118F805009047206A401C2062BA
:1063B000281EA5F10105F3DC2046FFF7D7FE207863
:1063C000000602D50220BDE8F0870120FBE70000AF
:1063D00001694A1C02610878704700B58FB0CDE9A9
:1063E00001310021059105497944CDE90310114699
:1063F0006846FFF709FF0FB000BD0000E5FFFFFF93
:106400000A6802F8010B0A607047754600F028F828
:10641000AE4605006946534620F00700854618B091
:1064200020B5F9F725FFBDE820404FF000064FF0FA
:1064300000074FF000084FF0000B21F00701AC46B9
:10644000ACE8C009ACE8C009ACE8C009ACE8C009D8
:106450008D4670470446AFF300802046F9F7F4FEFE
:1064600000487047C821002001491820ABBEFEE754
:1064700026000200704730380A2801D201207047F8
:10648000002070474FF04070E1EE100A70470000A6
:106490000F0000000F000000FF0000000F000000D0
:1064A0000F0000000F0000000000000000000000CE
:1064B00000000000000000000000000000000000DC
:1064C000001000100010001000100010000000105C
:1064D0000000000000280028002800000000000044
:1064E000000000000000000000240024007C0024C4
:1064F0000048007C004800480000000000380054BC
:1065000000500038001400540054003800100000FF
:1065100000200054005800300028005400140008E7
:10652000000000000010002800280010003400487F
:1065300000480034000000000010001000100000AF
:106540000000000000000000000000000008001033
:106550000020002000200020002000200010000863
:1065600000200010000800080008000800080008CB
:10657000001000200010003800100028000000006B
:1065800000000000000000000000000000100010EB
:10659000007C00100010000000000000000000005F
:1065A00000000000000000000000001000100010BB
:1065B00000000000000000000000003800000000A3
:1065C00000000000000000000000000000000000CB
:1065D000000000100000000000080008001000107B
:1065E00000100010002000200000000000380044CF
:1065F00000440054004400440044003800000000FF
:1066000000100030005000100010001000100010AA
:10661000000000000038004400440004000800109E
:106620000020007C00000000003800440004001836
:1066300000040004004400380000000000080018B6
:10664000002800280048007C000800080000000026
:10665000007C004000400078000400040044003842
:10666000000000000038004400400078004400446E
:106670000044003800000000007C00040008001006
:10668000001000200020002000000000003800441E
:10669000004400380044004400440038000000007A
:1066A0000038004400440044003C0004004400382A
:1066B00000000000000000000010000000000000CA
:1066C00000000010000000000000000000000010AA
:1066D000000000000000001000100010000000008A
:1066E000000C003000400030000C000000000000F2
:1066F000000000000000007C0000007C00000000A2
:1067000000000000000000000060001800040018F5
:106710000060000000000000003800440004000891
:1067200000100010000000100000000000380044BD
:10673000004C0054005C00400040003800000000A5
:1067400000100028002800280028007C0044004495
:106750000000000000780044004400780044004439
:106760000044007800000000003800440040004071
:106770000040004000440038000000000070004865
:106780000044004400440044004800700000000041
:10679000007C00400040007C004000400040007C45
:1067A00000000000007C00400040007800400040F5
:1067B000004000400000000000380044004000405D
:1067C000005C004400440038000000000044004425
:1067D0000044007C004400440044004400000000E9
:1067E00000380010001000100010001000100038D9
:1067F0000000000000040004000400040004000481
:1068000000440038000000000044004800500060D0
:1068100000500048004800440000000000400040D4
:1068200000400040004000400040007C00000000AC
:106830000044006C006C00540044004400440044D8
:106840000000000000440064006400540054004C48
:10685000004C0044000000000038004400440044A4
:106860000044004400440038000000000078004468
:106870000044004400780040004000400000000058
:1068800000380044004400440044004400540038F0
:1068900000040000007800440044004400780048F0
:1068A0000048004400000000003800440040003070
:1068B000000800040044003800000000007C0010C4
:1068C0000010001000100010001000100000000068
:1068D00000440044004400440044004400440038A4
:1068E0000000000000440044004400280028002864
:1068F0000010001000000000004400440054005448
:106900000054006C0028002800000000004400280B
:10691000002800100010002800280044000000009B
:10692000004400440028002800100010001000104F
:1069300000000000007C000400080010001000208F
:106940000040007C00000000001800100010001043
:10695000001000100010001000100018002000208F
:1069600000100010001000100008000800000000D7
:106970000030001000100010001000100010001077
:106980000010003000100028002800440000000023
:1069900000000000000000000000000000000000F7
:1069A0000000000000000000000000FE00200010B9
:1069B00000000000000000000000000000000000D7
:1069C0000000000000380044003C0044004C00344B
:1069D00000000000004000400058006400440044F3
:1069E000006400580000000000000000003800446F
:1069F0000040004000440038000000000004000493
:106A00000034004C00440044004C003400000000FE
:106A10000000000000380044007C004000440038C2
:106A200000000000000C0010007C0010001000109E
:106A30000010001000000000000000000034004CB6
:106A400000440044004C0034000400780040004042
:106A5000005800640044004400440044000000006A
:106A60000010000000700010001000100010001056
:106A70000000000000100000007000100010001066
:106A800000100010001000E00040004000480050DE
:106A9000006000500048004400000000007000103A
:106AA0000010001000100010001000100000000086
:106AB00000000000007800540054005400540054BA
:106AC0000000000000000000005800640044004482
:106AD00000440044000000000000000000380044B2
:106AE00000440044004400380000000000000000A2
:106AF0000058006400440044006400580040004016
:106B0000000000000034004C00440044004C0034FD
:106B10000004000400000000005800640040004031
:106B20000040004000000000000000000038004469
:106B30000030000800440038000000000020002061
:106B40000078002000200020002000180000000035
:106B5000000000000044004400440044004C0034A5
:106B6000000000000000000000440044002800284D
:106B70000028001000000000000000000054005435
:106B80000054006C002800280000000000000000F5
:106B900000440028001000100028004400000000FD
:106BA00000000000004400440028002800100010ED
:106BB0000010006000000000007C000800100020B1
:106BC0000040007C000000000018001000100010C1
:106BD000002000200010001000100018001000100D
:106BE0000010001000100010001000100010001025
:106BF0000030001000100010000800080010001005
:106C0000001000300000000000000074004C000084
:106C10000000000000000000000000000000000074
:106C20000000000000000000000000000000000064
:106C30000000000000000000000000000000000054
:106C4000000000000000000000000000E003E0037E
:106C5000E003E003E003E003E003E003C003C0035C
:106C6000C001C001C001C001C0010000000000005F
:106C7000E003E003E003000000000000000000006B
:106C80003C1E3C1E3C1E3C1E3C1E3C1E3C1E00008E
:106C900000000000000000000000000000000000F4
:106CA00000000000000000000000000000000000E4
:106CB00000000000CE01CE03DE039E039C039C0770
:106CC000FF3FFF7F3807380F780F780F780EFFFFF0
:106CD000FFFFF01EF01CE01CE03CE03DE03900004E
:106CE0000000000000000000FC03FE0FEE1FE01E8D
:106CF000E01EE01EE01EE01FE00FE007F003FC01D5
:106D0000FE01FE01FE01FE01FE01FE01FE3DFC3F13
:106D1000F00FE001E001000000000000033E07F773
:106D20008FE78EE79EE3BCE3B8E7F8E7F0F7E03FD4
:106D3000C001FF03FF07F307F30FF31EF33CF33823
:106D4000F3787FF03FE0000000000000000000004A
:106D5000E007F80F780F781F781F781F780FF00F73
:106D6000E00F801FC37FC3FBE7F3F7F1F7F0FFF0FD
:106D70007FF03EF87F7CFF3FEF1F00000000000027
:106D800000000000E003E003E003E003E003C003D1
:106D9000C001000000000000000000000000000032
:106DA00000000000000000000000000000000000E3
:106DB00000000000000000003F007C00F001E00146
:106DC000C003C00780078007800F000F000F000F6F
:106DD000000F000F000F800F80078007C007C0035F
:106DE000E001F0017C003F000F000000007E001F6A
:106DF000C007C003E001F001F000F000F8007800E7
:106E000078007800780078007800F800F000F00052
:106E1000F001E001C003C007001F007E0078000001
:106E2000E003C003C001CE39FF3F7F3F2003700362
:106E3000F807780F3C1F3806000000000000000033
:106E40000000000000000000000000000000000042
:106E50000000000000000000000000000000000032
:106E6000C001C001C001C001C001C001C001FFFFDD
:106E7000FFFFC001C001C001C001C001C00100008E
:106E80000000000000000000000000000000000002
:106E900000000000000000000000000000000000F2
:106EA00000000000000000000000E003E003E00339
:106EB000E003E001E001E001C00180030000000008
:106EC00000000000000000000000000000000000C2
:106ED0000000FE3FFE3F0000000000000000000038
:106EE00000000000000000000000000000000000A2
:106EF0000000000000000000000000000000000092
:106F00000000000000000000000000000000000081
:106F10000000E003E003E003E003000000000000E5
:106F2000000000000F000F001E001E003C003C008F
:106F300078007800F000F000E001E001C003C00339
:106F400080078007000F000F001E001E003C003C61
:106F50000078007800F00000F007F80F7C1F3E3E3C
:106F60001E3C1F7C1F7C0F780F780F780F780F78EE
:106F70000F780F781F7C1F7C1E3C3E3E7C1FF80F55
:106F8000F00700000000000000000000F000F00723
:106F9000F03FF03FF001F001F001F001F001F001ED
:106FA000F001F001F001F001F001F001F001F00159
:106FB000F001FF3FFF3F0000000000000000000064
:106FC000E00FF83F7C3C3C003E003E003E003C00B1
:106FD0003C007C00F800F001E003C0078007000FD0
:106FE000001E003E003CFE3FFE3F0000000000008F
:106FF00000000000F00FF81F7C1C3E003E003E0029
:107000003C003C00F800F00FF80F7C003E001E0032
:107010001E001E001E003E007C1CF81FE01F00002A
:1070200000000000000000007800F800F800F801FF
:10703000F803F807F807780F781E781E783C787800
:107040007878FFFFFFFF78007800780078007800FC
:10705000780000000000000000000000FC1FFC1F82
:10706000FC1F001E001E001E001E001EE01FF81F59
:10707000FC007C003E003E001E003E003E003C0046
:107080007C1CF81FE01F0000000000000000000052
:10709000FC01FE078E0F001F001E003E003C003C5E
:1070A000F83DFC3F3E7F1F7E0F3C0F3C0F3C0F3CEA
:1070B0000F3E1F1E3E1FFC0FF003000000000000EB
:1070C00000000000FF3FFF3FFF3F0F001E001E00BB
:1070D0003C0038007800F000F000E001E001C0035F
:1070E000C0038007800F800F000F001F001F0000EB
:1070F0000000000000000000F807FC0F3E1F1E1EED
:107100001E3E1E3E1E1E3C1FF80FF007F80FFC1E11
:107110003E3E1F3C1F7C0F7C0F7C1F3C3E3FFC1FF4
:10712000F00700000000000000000000F007F80F6A
:107130007C1E3E3C1E3C1F7C1F7C1F7C1F7C1F3C1A
:107140003F3EFF1FEF071F001E001E003E003C00D9
:10715000F838F03FE01F00000000000000000000D1
:10716000000000000000000000000000E003E00359
:10717000E003E00300000000000000000000000049
:107180000000E003E003E003E00300000000000073
:1071900000000000000000000000000000000000EF
:1071A000E003E003E003E003000000000000000053
:1071B000000000000000E003E003E003E003E00162
:1071C000E001E001C00380030000000000000000B7
:1071D0000000000003000F003F00FC00F003C00FA0
:1071E000003F00FE003FC00FF003FC003F000F0017
:1071F000030000000000000000000000000000008C
:10720000000000000000000000000000000000007E
:10721000FFFFFFFF000000000000FFFFFFFF000076
:10722000000000000000000000000000000000005E
:1072300000000000000000000000000000E000F876
:10724000007E801FE007F8017E001F007E00F8012D
:10725000E007801F007E00F800E000000000000052
:1072600000000000F01FFC3F3E381F381F381E0092
:107270001E003C007800F000E001C003C003C0071E
:10728000C007000000000000C007C007C0070000E2
:107290000000000000000000F803FE0F1E1F0F3E5C
:1072A0007F3CFF78EF79C773C7F38FF38FF38FF3CA
:1072B0009FF39FF3FF73FF7BF779003C1C1FFC0FCC
:1072C000F8030000000000000000000000000000C3
:1072D0000000E003E003F007F007F007780F780FF5
:1072E0007C0E3C1E3C1E3E3CFE3FFF3F1F780F784D
:1072F0000FF007F007F000000000000000000000A1
:10730000000000000000F83FFC3F3E3C1E3C1E3CDD
:107310001E3C3E3C7C3CF03FF83F7E3C1F3C1F3C0B
:107320000F3C0F3C1F3CFE3FF83F000000000000F8
:1073300000000000000000000000FF01FF07871FA1
:10734000003E003C007C00780078007800780078EF
:10735000007C007C003E003F831FFF07FF01000010
:107360000000000000000000000000000000F07FAE
:10737000FC7F7E781F781F780F780F780F780F7852
:107380000F780F780F780F781F781E787E78F87F47
:10739000E07F00000000000000000000000000008E
:1073A0000000FF3FFF3F003E003E003E003E003E2B
:1073B000003EFE3FFE3F003E003E003E003E003EDF
:1073C000003EFF3FFF3F0000000000000000000003
:1073D000000000000000FF1FFF1F001E001E001E17
:1073E000001E001E001EFF1FFF1F001E001E001EAD
:1073F000001E001E001E001E001E000000000000F7
:1074000000000000000000000000FE03FF0F871FC7
:10741000003E007C007C007800F800F87FF87FF8E0
:107420000F780F7C0F7C0F3E8F1FFF0FFE030000B5
:1074300000000000000000000000000000001F7CB1
:107440001F7C1F7C1F7C1F7C1F7C1F7C1F7CFF7F81
:10745000FF7F1F7C1F7C1F7C1F7C1F7C1F7C1F7C71
:107460001F7C000000000000000000000000000081
:107470000000FF3FFF3FE003E003E003E003E00321
:10748000E003E003E003E003E003E003E003E003E4
:10749000E003FF3FFF3F000000000000000000008D
:1074A000000000000000FC1FFC1F7C007C007C0032
:1074B0007C007C007C007C007C007C007C007C00EC
:1074C00078007800F838F03FC03F0000000000006E
:1074D000000000000000000000001F3C1E3C3C3C7F
:1074E000783CF03CE03DE03FC03F803FC03FE03FA4
:1074F000F03DF03C783C7C3C3E3C1F3C0F3C0000A7
:107500000000000000000000000000000000003E3D
:10751000003E003E003E003E003E003E003E003E7B
:10752000003E003E003E003E003E003E003EFF3F6B
:10753000FF3F00000000000000000000000000000D
:1075400000001FF81FFC1FFC3FFE3FFE3FFE7FFFB9
:1075500077FF77FFF7F7E7F7E7F3E7F3C7F307F00E
:1075600007F007F007F00000000000000000000036
:107570000000000000000F7C0F7C0F7E0F7F0F7F4C
:107580008F7F8F7FCF7FEF7BEF79FF79FF78FF7859
:107590007F783F783F781F781F7800000000000058
:1075A00000000000000000000000F007FC1F3E3E4D
:1075B0001F7C0F780F780FF80FF80FF80FF80FF8FF
:1075C0000FF80F780F781F7C3E3EFC1FF00700007D
:1075D0000000000000000000000000000000FC3F70
:1075E000FF3F1F3E0F3E0F3E0F3E0F3E1F3E3F3EF2
:1075F000FC3FF03F003E003E003E003E003E003EAD
:10760000003E00000000000000000000000000003C
:107610000000F007FC1F3E3E1F7C0F780F780FF82C
:107620000FF80FF80FF80FF80FF80F780F781F7C8E
:107630003E3EFC1FF8077C003F000F0003000000E7
:10764000000000000000F03FFC3F7E3C3E3C1E3C42
:107650001E3C3E3C3C3CFC3CF03FE03FF03DF83CF7
:107660007C3C3E3C1E3C1F3C0F3C000000000000E8
:1076700000000000000000000000FC07FE1F0E3E9E
:10768000003C003C003C003EC01FF80FFE037F00A2
:107690001F000F000F001F203E3CFC3FF01F0000AA
:1076A0000000000000000000000000000000FFFFDC
:1076B000FFFFE003E003E003E003E003E003E00397
:1076C000E003E003E003E003E003E003E003E003A2
:1076D000E0030000000000000000000000000000C7
:1076E00000000F7C0F7C0F7C0F7C0F7C0F7C0F7CCD
:1076F0000F7C0F7C0F7C0F7C0F7C0F7C1E3C1E3C94
:107700003E3EFC1FF00700000000000000000000EB
:1077100000000000000007F007F007F80F780F7C6A
:107720001E3C1E3C1E3E3C1E3C1F781F780FF80F6F
:10773000F007F007F007E003E0030000000000009E
:107740000000000000000000000003E003F003F070
:1077500007F0E7F3E7F3E7F3E773F77BF77FFF7FE4
:107760007F7F7F7F7E7F7E3F3E3E3E3E3E3E0000EF
:10777000000000000000000000000000000007F80A
:107780000F7C1E3E3E3E3C1FF80FF007E007E00373
:10779000E003F007F80F7C0F7C1E3E3C1F780F784B
:1077A0000FF00000000000000000000000000000DA
:1077B000000007F807780F7C1E3C1E3E3C1F780F28
:1077C000F80FF007E003E003E003E003E003E00369
:1077D000E003E003E0030000000000000000000000
:1077E000000000000000FF7FFF7F0F001F003E0031
:1077F0007C00F800F000E001E003C007800F000FFC
:10780000001E003E007CFF7FFF7F000000000000A4
:1078100000000000FF0780078007800780078007BF
:107820008007800780078007800780078007800720
:107830008007800780078007800780078007800710
:107840008007FF07FF07000000780078003C003C3D
:10785000001E001E000F000F80078007C003C0033A
:10786000E001E001F000F000780078003C003C000E
:107870001E001E000F000F0007000000F07FF00048
:10788000F000F000F000F000F000F000F000F00078
:10789000F000F000F000F000F000F000F000F00068
:1078A000F000F000F000F000F000F07FF07F00004A
:1078B000C000C001C001E003E003F007F007780753
:1078C000780F380F3C1E3C1E1E3C1E3C0F380F78B4
:1078D0000778000000000000000000000000000029
:1078E0000000000000000000000000000000000098
:1078F0000000000000000000000000000000000088
:107900000000000000000000000000000000FFFF79
:10791000FFFF000000000000F00000000000000079
:107920000000000000000000000000000000000057
:107930000000000000000000000000000000000047
:107940000000000000000000000000000000000037
:107950000000000000000000F80FFC3F7C3C3E00EF
:107960003E003E00FE07FE1F3E3E3E7C3E783E7CD3
:107970007E7CFF3FCF1F00000000000000000000E1
:10798000003C003C003C003C003C003CF83DFE3F1D
:107990003E3F1F3E0F3C0F3C0F3C0F3C0F3C0F3C4B
:1079A0001F3C1E3C3E3FFC3FF03B0000000000003F
:1079B00000000000000000000000000000000000C7
:1079C000FE03FF0F871F003E003E003C007C007C52
:1079D000007C003C003E003E871FFF0FFE030000BE
:1079E00000000000000000001F001F001F001F001B
:1079F0001F001F00FF07FF1F3F3E1F3C1F7C1F7C17
:107A00001F7C1F781F781F7C1F7C3F3C7F3EFF1F21
:107A1000DF0F000000000000000000000000000078
:107A20000000000000000000F803FC0F3E1F1E3E97
:107A30001F3C1F7CFF7FFF7F007C007C003C003EE2
:107A4000071FFF0FFE030000000000000000000001
:107A5000FF01E103C003C007C007C007FF7FFF7F2E
:107A6000C007C007C007C007C007C007C007C007DE
:107A7000C007C007C007C007C00700000000000023
:107A800000000000000000000000000000000000F6
:107A9000EF07FF1F7F3E1F3C1F7C1F7C1F781F7856
:107AA0001F781F7C1F7C3F3C7F3EFF1FDF0F1E00A7
:107AB0001E001E007C38F83F003C003C003C003CAF
:107AC000003C003CFC3DFE3F9E3F1F3F1F3E1F3CD5
:107AD0001F3C1F3C1F3C1F3C1F3C1F3C1F3C1F3CCE
:107AE0001F3C00000000000000000000F001F00159
:107AF0000000000000000000E07FE07FE001E00106
:107B0000E001E001E001E001E001E001E001E0016D
:107B1000E001E001E00100000000000000000000C2
:107B2000F800F8000000000000000000F83FF83FF7
:107B3000F800F800F800F800F800F800F800F80085
:107B4000F800F800F800F800F800F800F800F0007D
:107B5000F071E07F003C003C003C003C003C003CFD
:107B60001F3C3E3C7C3CF83CF03DE03DC03FC03F0C
:107B7000E03FF03DF83C7C3C3E3C1F3C1F3C00009D
:107B80000000000000000000F07FF001F001F001B3
:107B9000F001F001F001F001F001F001F001F0015D
:107BA000F001F001F001F001F001F001F001F0014D
:107BB000F0010000000000000000000000000000D4
:107BC00000000000000000009EF7FFFFFFFFFFFF26
:107BD000E7FBE7F9C7F1C7F1C7F1C7F1C7F1C7F193
:107BE000C7F1C7F1C7F1000000000000000000006D
:107BF000000000000000000000000000FC3DFE3F0F
:107C00009E3F1F3F1F3E1F3C1F3C1F3C1F3C1F3C15
:107C10001F3C1F3C1F3C1F3C1F3C0000000000009D
:107C20000000000000000000000000000000000054
:107C3000F007FC1F3E3E1F3C1F7C0F780F780F782B
:107C40000F780F781F7C1F3C3E3EFC1FF0070000A2
:107C50000000000000000000000000000000000024
:107C600000000000F83DFE3F3E3F1F3E0F3C0F3C32
:107C70000F3C0F3C0F3C0F3C1F3C1E3E3E3FFC3F69
:107C8000F83F003C003C003C003C003C0000000091
:107C90000000000000000000EE07FE1F7E3E1E3CBC
:107CA0001E7C1E781E781E781E781E781E7C3E7CF8
:107CB0007E3EFE1FDE0F1E001E001E001E001E0068
:107CC0000000000000000000000000007F1FFF1FF8
:107CD000E71FC71F871F001F001F001F001F001F77
:107CE000001F001F001F001F001F000000000000F9
:107CF0000000000000000000000000000000000084
:107D0000FC07FE1F0E1E003E003E003FE01FFC076A
:107D1000FE003E001E001E003E3CFC3FF01F000027
:107D200000000000000000000000000000008007CC
:107D300080078007FF7FFF7F80078007800780071D
:107D4000800780078007800780078007C007FF0340
:107D5000FF01000000000000000000000000000023
:107D600000000000000000001E3C1E3C1E3C1E3CAB
:107D70001E3C1E3C1E3C1E3C1E3C1E3C3E3C7E3CB3
:107D8000FE3EFE1FDE0F00000000000000000000AD
:107D900000000000000000000000000007F00F7865
:107DA0000F781E3C1E3C1E3E3C1E3C1E780F780F7A
:107DB000F00FF007F007E003E00300000000000010
:107DC00000000000000000000000000000000000B3
:107DD00003F0E3F1E3F3E7F3F7F3F7F3F77F777FEC
:107DE0007F7F7F7F7F7F3E3E3E3E3E3E3E3E0000A9
:107DF0000000000000000000000000000000000083
:107E0000000000000F7C1E3E3C3E3C1FF80FF007B8
:107E1000F007E003F007F807F80F7C1E3E3E1F3C1A
:107E20001F780000000000000000000000000000BB
:107E3000000000000000000007F80F780F7C1E3CD7
:107E40001E3C3C1E3C1E3C1F780FF80FF007F0074D
:107E5000E003E003C003C003C0038007800F007F7E
:107E6000000000000000000000000000FF3FFF3F96
:107E70001F003E007C00F800F001E003C007800F07
:107E8000001F001E003CFF7FFF7F0000000000007D
:107E900000000000FE01E003C003C003C003C003F4
:107EA000E001E001E001C001C003803F803FC0036A
:107EB000C001E001E001E001C003C003C003C00352
:107EC000E003FE017E000000C001C001C001C0014E
:107ED000C001C001C001C001C001C001C001C0019A
:107EE000C001C001C001C001C001C001C001C0018A
:107EF000C001C001C001C001C0010000C03FE003DB
:107F0000E001E001E001E001C001C003C003C001E5
:107F1000E001FE00FE00E001C001C003C003C0019B
:107F2000E001E001E001E001E003C03F003F0000AC
:107F30000000000000000000000000000000000041
:107F4000000000000000073FC77FE773FFF17EF0ED
:107F50000000000000000000000000000000000021
:107F600000000000000000001F32302113222324F3
:107F7000182526273433191A111420151731122FFA
:107F8000162E02030405060708090A0B2B6E0F10B4
:107F90003D0C0D1B1C1D2A2829013536371E70711A
:107FA00072737475767778797A7B7C7D7E4B5055C9
:107FB0004C5156594F54535A5F64696A6C5D6267FD
:107FC0005C61665B606563682D81000000000000F5
:107FD00000000000000000000000000000000000A1
:107FE0000000000000000000006B003800000000EE
:107FF0000000000000000000000000000000000081
:108000000000000000000000000000000000000070
:108010000000000000000000000000000000000060
:108020000000000000000000000000000000000050
:108030000000000000000000000000000000000040
:10804000000000003A2C3C7F40393E800060313215
:1080500033343536373839302D3D000D09717765A9
:1080600072747975696F705B5D5C006173646667DB
:10807000686A6B6C3B27000A00007A786376626E50
:108080006D2C2E2F000000000020000000000000DA
:108090000000000000000000000000000D000000D3
:1080A00000000000000000373431002F3835323036
:1080B0002A3936332E2D2B000A0000000000000064
:1080C0000000000000000000000000000000007E32
:1080D00021402324255E262A28295F2B00000051F9
:1080E000574552545955494F507B7D7C004153446C
:1080F0004647484A4B4C3A22000A00005A58435619
:10810000424E4D3C3E3F00000000000000000000D9
:10811000000000000000000000000000000000005F
:10812000000000000000000000000000000000004F
:10813000000000000000000000000000000000003F
:10814000000000000000000000000000000000002F
:108150007081000800000020FC000000E801000819
:108160006C820008FC0000202C270000040200089C
:1081700000000000010203040102030406070809CD
:1081800000000000000000000000000000000000EF
:10819000070A0000AC640008101A0000186C000800
:1081A00000000000000100000000000000000000CE
:1081B00000000000007A030A000000000000000038
:1081C0000102030406070809695000085550000819
:1081D0005F5000085800002000000000E55600082D
:1081E000C557000803580008ED580008E159000879
:1081F000E559000800000000000000000000000039
:10820000000000000000000000000000CD5A00083F
:10821000D15A00080000000000000000E15F0008E3
:108220000D610008E95F000801600008F95F0008BF
:1082300037600008096000081D6000081F60000822
:1082400021600008236000082560000827600008FE
:108250002960000833600008000000002B6000085F
:0C826000F15F00080100000000000000B9
:040000050800025598
:00000001FF
