:020000040800F2
:10000000881400206D0200089D2B00089F2B00081B
:10001000A12B0008A32B0008A52B0008000000005E
:10002000000000000000000000000000A72B0008F6
:10003000A92B000800000000AB2B0008AF2B000824
:10004000870200088702000887020008870200086C
:10005000870200088702000887020008870200085C
:10006000870200088702000887020008012A0008AA
:10007000072A00080D2A0008132A0008192A000878
:100080001F2A0008252A00088702000887020008A6
:10009000870200088702000887020008870200081C
:1000A000870200088702000887020008870200080C
:1000B00087020008870200088702000887020008FC
:1000C00087020008870200088702000887020008EC
:1000D00087020008870200088702000887020008DC
:1000E00087020008870200088702000887020008CC
:1000F0008702000887020008870200082B2A0008F0
:1001000087020008870200088702000887020008AB
:10011000870200088702000887020008870200089B
:10012000312A0008352A00083B2A0008412A000825
:10013000472A000887020008870200088702000893
:10014000870200088702000887020008870200086B
:100150004D2A0008532A0008592A0008870200087F
:10016000870200088702000887020008870200084B
:10017000870200088702000887020008870200083B
:10018000870200088702000887020008870200082B
:10019000870200088702000887020008870200081B
:1001A00087020008870200088702000800F002F8B2
:1001B00000F04DF80AA090E8000C82448344AAF1B4
:1001C0000107DA4501D100F042F8AFF2090EBAE8B2
:1001D0000F0013F0010F18BFFB1A43F0010318477B
:1001E000A8540000C8540000103A24BF78C878C151
:1001F000FAD8520724BF30C830C144BF04680C602D
:10020000704700000023002400250026103A28BF74
:1002100078C1FBD8520728BF30C148BF0B60704778
:10022000662903F07787002070471FB503F06DFF44
:100230009DE8030002F0C4FE03F028F9040000204A
:10024000002103F0D5FEE0601FBD10B510BD03F026
:1002500037FA1146FFF7E9FF02F00AFC03F055FAFE
:1002600003B4FFF7F2FF03BC03F0C2FA094880476A
:1002700009480047FEE7FEE7FEE7FEE7FEE7FEE788
:10028000FEE7FEE7FEE7FEE704480549054A064BA0
:1002900070470000772C0008AD010008880100209D
:1002A000881400208805002088050020284908437C
:1002B00028490860704730B50F23C27801780125BE
:1002C000FAB1244A126801F1E02102F4E062C2F5B9
:1002D000E062C2F30722C2F10404D3404278A24094
:1002E00084781C401443220181F80024007800F037
:1002F0001F018D404009800000F1E020C0F800514E
:1003000030BD01F01F0085404809800000F1E02069
:10031000C0F8805130BD104A114001430D48001F04
:10032000016070470B4A121D0029116801D001437A
:1003300000E08143116070474FF0E0210428086914
:1003400003D020F004000861704740F00400FAE791
:100350000000FA050CED00E080FFFF1FF94801687E
:1003600041F001010160F74A002108321160026882
:10037000F54B1A400260031DF44A1A60F14BF44A2F
:1003800084331A60F14A103A1B1D1A60026822F485
:1003900080220260EB480C300160181D016070473C
:1003A000E8490022891C0A70087070470246002044
:1003B000510901290CD002290CD0E2497431096895
:1003C00002F01F02012393400B4200D0012070472E
:1003D000DC49F4E7DB497031F1E718B500204FF450
:1003E000A04400903120FFF7E1FF0099491C0091E3
:1003F000A14201D00028F5D03120FFF7D7FF002817
:1004000000D0012018BDCF4A116821F0F80141EA5F
:10041000C00010607047CF4908607047C94900228A
:1004200070310A700A70012802D0042801D1052019
:1004300008707047C8490860704741EA82115A083D
:1004400010B5C64B029C03EB02421143014341EA43
:100450000460BC49091D086010BDBE4908667047AC
:10046000800140EA0160B74940EA027084310860C7
:100470007047B84988667047800140EA0160B14919
:1004800040EA0270883108607047B24908677047D7
:10049000B049C8647047AB4B08331A68084322F070
:1004A000EC62104318607047A64B08331A68084383
:1004B00022F07842104318607047A24A083211684F
:1004C00021F003010143116070479E480830006825
:1004D00000F00C0070479B4A0832116821F0F001CF
:1004E000014311607047974A0832116821F4E051C6
:1004F000014311607047934A0832116821F460414A
:1005000041EAC0001060704770B58E4B083319681F
:10051000934C11F00C0104D06610042903D0082973
:1005200003D004601BE0066019E0864A121D1168C2
:10053000C1F38055116801F03F0115B1B6FBF1F12F
:1005400001E0B4FBF1F114681268C4F3881461434C
:10055000C2F30142521C5200B1FBF2F10160196872
:100560000F2202EA11117F4A545C0168E1404160A8
:100570001C68072505EA9424145D21FA04F48460BC
:100580001B6805EA5333D25CD140C16070BDC0F333
:100590000121032908D16B4B08331968724A21F4F1
:1005A000F81102400A431A60664970310A68C0F3C4
:1005B0000B0002430A60704767494439086070477E
:1005C00065494039086070476249C1F85C0170476D
:1005D0005C4A8C32116821F440110143116070476C
:1005E000584A8C32116821F4400101431160704770
:1005F000544A8C321168401E21F01F0101431160E2
:100600007047504A8C3211686FF0FF0321F4F851A3
:1006100003EB00200843106070474A4A8C3211688F
:1006200021F440310143116070475049C1F8E001A5
:100630007047444A30320029116801D0014300E07C
:100640008143116070473F4A34320029116801D05C
:10065000014300E08143116070473A4A3832002973
:10066000116801D0014300E0814311607047354AB1
:1006700040320029116801D0014300E0814311603C
:100680007047304A44320029116801D0014300E02C
:100690008143116070472B4A10320029116801D044
:1006A000014300E0814311607047264A143200295B
:1006B000116801D0014300E0814311607047214A75
:1006C00018320029116801D0014300E08143116014
:1006D00070471C4A20320029116801D0014300E014
:1006E000814311607047174A24320029116801D0F4
:1006F000014300E0814311607047124A50320029E3
:10070000116801D0014300E08143116070470D4A38
:1007100054320029116801D0014300E08143116087
:100720007047084A58320029116801D0014300E09F
:10073000814311607047034A60320029116817D065
:10074000014316E000380240FFFFF6EA10300024B3
:100750000030002000004742800E47420000FFFFAB
:100760000024F40000000020FFFCFF0F00104742AF
:10077000814311607047194A0029116801D0014373
:1007800000E081431160704714490C31012808686A
:1007900003D020F008000860704740F00800FAE736
:1007A0000E4A573A0029117801D0014300E08143F5
:1007B0001170704709481030016841F08071016084
:1007C00070470146054A0020583A12680A4200D094
:1007D000012070470149563908707047643802405B
:1007E000774910B5884206D101210846FFF753FF2B
:1007F000002101205BE07349884206D101210220DB
:10080000FFF749FF0021022051E06F49884206D1DD
:1008100001210420FFF73FFF0021042047E06B493E
:10082000884206D101210820FFF735FF002108206A
:100830003DE06749884206D101211020FFF72BFFD8
:100840000021102033E06349884206D10121202095
:10085000FFF721FF0021202029E05F49884206D1CF
:1008600001214020FFF717FF002140201FE05B49D6
:10087000884206D101218020FFF70DFF0021802052
:1008800015E05749884202D1012184150AE05549F3
:10089000884202D10121441504E0534988420AD11B
:1008A000012104152046FFF7F6FE00212046BDE891
:1008B0001040FFF7F0BE10BDF0B5002201274FF049
:1008C000030C0B6807FA02F52B40AB422CD10668EB
:1008D00053000CFA03F4A64306600E79D0F800E04A
:1008E0009E4046EA0E0606600E79012E01D0022EC9
:1008F00012D18668A64386604E79D0F808E09E4003
:1009000046EA0E0686604668AE43466045688E79C4
:100910009640B6B235434560C568A543C560CC79FD
:100920009C40C3681C43C460521C102AC9D3F0BD4C
:100930004FF6FF7101600021017141718171C17138
:10094000704708B541F480320092C261C1610099DC
:10095000C161C169C069009008BD024600201269EA
:100960000A4200D001207047006980B270470246F9
:10097000002052690A4200D001207047406980B2CD
:10098000704701837047418370470AB10183704704
:10099000418370474161704742694A4042617047F4
:1009A0004B07DB0E9A40C90810B500EB8100016AC5
:1009B0000F249C40A1430162016A1143016210BDF2
:1009C000000002400004024000080240000C024007
:1009D000001002400014024000180240001C0240B7
:1009E0000020024000240240002802402DE9F0438C
:1009F000016821F001010160002101604160816016
:100A0000C160016121214161B849B84A3D251039D1
:100A1000904202D18D60BDE8F083B44A4FF4746611
:100A20001832904201D18E60F5E7B04A4FF4741746
:100A30003032904201D18F60EDE7AC4A4FF0746CD8
:100A40004832904202D1C1F808C0E4E7A74BA84A57
:100A50006033984201D1CA60DDE7A44CA54B7834DD
:100A6000A04201D1CB60D6E7DFF88082A24C08F12A
:100A70009008404501D1CC60CDE7DFF870824FF09F
:100A80003D5908F1A808404502D1C1F80C90C2E7D1
:100A90009A49DFF868820839404501D10D60BAE70C
:100AA000964D1835A84201D10E60B4E7934D30350C
:100AB000A84201D10F60AEE7904D4835A84202D15F
:100AC000C1F800C0A7E78D4D8C496035091FA842C9
:100AD00001D10A609FE7894A7832904201D10B60C8
:100AE00099E7864A9032904201D10C6093E7834A9D
:100AF000A83290428FD1C1F800908CE730B50368DE
:100B00007F4ACC6813400A682243D1E905452C434B
:100B10002243CC6922430C6A22434C6A22438C6AEA
:100B200022434C6B22438C6B22431A43026042697E
:100B300022F00703D1E90B2422431A4342610A69D8
:100B400042604A6882608968C16030BD00210160EE
:100B500041608160C160016141618161C161016287
:100B600041628162C1620163416381637047002910
:100B7000016802D041F0010101E021F001010160B2
:100B800070470029016802D041F4004101E021F4DE
:100B90000041016070470029016802D041F0200146
:100BA00001E021F02001016070474160704740681A
:100BB00080B27047002A026802D042F4002201E0AD
:100BC00022F400220260016170470029016802D00E
:100BD00041F4802101E021F48021016070470AB1D5
:100BE00001617047C1607047014600200968090330
:100BF00000D501207047014600200968C90700D0D0
:100C000001207047406900F03800704702463B4BB6
:100C100000209A4202D2354A103A01E0374A103A8F
:100C20008B0001D5526800E01268364B1A400A4228
:100C300000D001207047314A904202D22B48103830
:100C400001E02E4810382F4A8B0001EA020101D53D
:100C5000C1607047816070470B0607D5436912B1C8
:100C600043F0800301E023F080034361802908D032
:100C7000002A026801F01E0101D00A4300E08A4305
:100C80000260704730B51D4A0024904202D2174AD4
:100C9000103A01E0194A103A1B4B194205D01E23A5
:100CA00003EAD12503682B4002E0406900F080038D
:100CB000880001D5506800E01068124A10400842D0
:100CC00001D003B10124204630BD0C4A904202D22B
:100CD0000648103801E0094810380A4A8B0001EA3A
:100CE000020101D5C1607047816070471060024009
:100CF0003D000020400F002000003D201064024015
:100D00003F801CF07D0F7D0F3C0F3C0FC14910B59B
:100D1000884202D10121841424E0BF49884202D1D3
:100D20000121041404E0BD4988420AD10121C41301
:100D30002046FFF7CEFC2046BDE810400021FFF71B
:100D4000C8BCB749884202D1012144140AE0B54920
:100D5000884202D101210C0504E0B34988420AD13E
:100D600001214C052046FFF7BEFC2046BDE810409F
:100D70000021FFF7B8BC10BD30B502884C8802F4E2
:100D800041530A88CD8822438C882C4322430C8906
:100D900022434C8922438C892243CC8922431A4323
:100DA0000280828B22F400628283098A018230BD34
:100DB000F0B502220023858B01244FF24006354016
:100DC00085830284868B8D68022D3DD08A8802B18E
:100DD0000224964A13681B0203D5136823F4000308
:100DE0001360924A7C3213681268C3F388138F4FE2
:100DF000C2F302723F1F3D683F6805F03F057F0266
:100E000001D58B4F00E08B4FB7FBF5F55D43B5FB8C
:100E1000F2F2CB88B3F5007F2BD06301B2FBF3F283
:100E200002EB82028B685200B2FBF3F2521D92B2C7
:100E30000A23B2FBF3F202F00103D21A4FF6FF7459
:100E4000C2F34F0204EA0323941EFE2C01D30222B4
:100E50000023CC881A43144304840A884B881A431D
:100E60008B8889890B431A43324342F400618183A2
:100E7000F0BD120AD4E70021018041808180C18049
:100E8000018141818181C181072101827047002157
:100E9000018041808180C18002228260818170470F
:100EA0000029018802D041F0400101E021F0400119
:100EB000018070470029818B02D041F4806101E0FC
:100EC00021F4806181837047028822F400620280ED
:100ED00002880A4302807047B1F5804F018803D031
:100EE00021F480410180704741F48041FAE7A1F587
:100EF0007E420188FF3A02D041F4807101E021F482
:100F00008071018070470029818802D041F004017E
:100F100001E021F00401818070470029818802D01E
:100F200041F0100101E021F010018180704730B5DF
:100F3000828B00234FF240042240828302220284EB
:100F4000848B0A884FF48075B2F5007F00D002B917
:100F50002B464A888D8889892A4319430A432243AC
:100F600042F40061818330BD808970478181704780
:100F70000029018802D041F4005101E021F4005120
:100F800001807047018841F4805101807047012938
:100F900001D0008B7047808A7047008A7047002A12
:100FA000828801D00A4300E08A43828070470909A1
:100FB00001238B40002A828899B201D00A4300E0C5
:100FC0008A43828070470246002012890A4200D07C
:100FD00001207047C9430181704730B501F00F030C
:100FE0000125024605FA03F40020A3B2090905FA17
:100FF00001F49188A4B2128921401A4202D000293A
:1010000000D0012030BD01F00F0201219140C94301
:10101000018170470030014000380040003C004032
:1010200000340140005001400054014008380240A3
:1010300000127A000024F40070B55A484168491C37
:101040004160816811B18168491E8160AFF3008001
:101050000024554E18E006EB8405686890B1017BCA
:1010600081B1826872B1521E826069680AD1486992
:10107000096988476868016881606868416809B9DA
:1010800000210173641CE4B23078A042E3D870BD43
:10109000464801684FF47A70B1FBF0F0401EB0F1A1
:1010A000807F12D24FF0E0225061414BF02083F854
:1010B000140D00209061072010613E48B1FBF0F153
:1010C0003848C160012101707047FEE7354800785B
:1010D000002805D04FF0E020016941F002010161D4
:1010E00070474FF0E020016921F002010161704773
:1010F0002DE9F0472C4C0546DDF8209020781E465F
:1011000017468846052802D30020BDE8F08718203E
:1011100001F01EFE0028F8D00560C0E901850773C4
:10112000C0E90469217804EB810148602178491CF9
:101130002170EAE770B51C4B00211A7806E003EB3A
:1011400081046468844203D0491CC9B28A42F6D83B
:101150008A4218D003EB81004068EFF3108472B626
:1011600005E003EB8102491C9568C9B255601A7805
:10117000521E8A42F5DC1978491E197001F017FEDB
:10118000002C00D162B670BD0021017370470121AF
:10119000017370470168816070474160704701606A
:1011A0007047000010000020B8000020A4000020BC
:1011B0000FE000E0C0C62D000288520601D40020D6
:1011C000704702899207FCD002891206F9D4818106
:1011D00001898907FCD001890906F9D48089C0B248
:1011E000704770B505464FF40051FE48FFF7CBFB42
:1011F000FD4C04212046FFF7C6FB2946FB48FFF7BC
:10120000DBFF2046BDE870400421FFF7BABB70B594
:1012100005464FF40051F348FFF7B3FBF24C0421AD
:101220002046FFF7B0FB2946F048FFF7C5FF2046F0
:10123000BDE870400421FFF7A4BB2DE9F04107464B
:101240001C4615460E462A20FFF7CBFF380AFFF74B
:10125000DEFFF8B2FFF7DBFF280AFFF7D8FFE8B29E
:10126000FFF7D5FF2B20FFF7BCFF300AFFF7CFFFBA
:10127000F0B2FFF7CCFF200AFFF7C9FFE0B2BDE8EC
:10128000F041C4E72DE9F0411D4614460E460746DD
:10129000DDF81880FFF7D1FF2C20FFF7A2FFE41B39
:1012A000A81B401C641CD04F444304213846FFF760
:1012B0006AFB4FF40051CB48FFF763FBCB4E012193
:1012C000304600F090FE4FF48035AC4201D3681EEA
:1012D00000E0204682B24146304601F04EFA3046E8
:1012E00001F080FA0028FAD1AC420AD3641CA2B201
:1012F0004146304601F041FA304601F073FA0028C9
:10130000FAD104213846FFF73CFB3046BDE8F041F6
:10131000002100F068BE08B580B20090B4480021FA
:1013200043880088401E82B20846FFF7ABFF08BD25
:1013300001B5009801E0401E00900028FBD108BDD7
:1013400070B5A84D4FF4805421462846FFF71BFB8B
:1013500044F620663046FFF7EBFF21462846FFF7AC
:1013600010FB3046FFF7E4FF0120FFF73AFF4CF295
:101370005030FFF7DDFFCB20FFF733FF3920FFF7B9
:1013800046FF2C20FFF743FF0020FFF740FF3420EB
:10139000FFF73DFF0220FFF73AFFCF20FFF721FFC5
:1013A0000020FFF734FFC120FFF731FF3020FFF7A7
:1013B0002EFFE820FFF715FF8520FFF728FF00200C
:1013C000FFF725FF7820FFF722FFEA20FFF709FF4C
:1013D0000020FFF71CFF0020FFF719FFED20FFF7AB
:1013E00000FF6420FFF713FF0320FFF710FF122018
:1013F000FFF70DFF8120FFF70AFFF720FFF7F1FE4F
:101400002020FFF704FFC020FFF7EBFE2320FFF7AB
:10141000FEFEC120FFF7E5FE1020FFF7F8FEC52015
:10142000FFF7DFFE3E20FFF7F2FE2820FFF7EFFE7A
:10143000C720FFF7D6FE8620FFF7E9FE3620FFF72C
:10144000D0FE4820FFF7E3FE3A20FFF7CAFE552002
:10145000FFF7DDFEB120FFF7C4FE0020FFF7D7FE47
:101460001820FFF7D4FEB620FFF7BBFE0820FFF7D9
:10147000CEFE8220FFF7CBFE2720FFF7C8FEF2202A
:10148000FFF7AFFE0020FFF7C2FE2A20FFF7A9FEFC
:101490000020FFF7BCFE0020FFF7B9FE0020FFF799
:1014A000B6FEEF20FFF7B3FE2B20FFF79AFE0020D9
:1014B000FFF7ADFE0020FFF7AAFE0120FFF7A7FE11
:1014C0003F20FFF7A4FE2620FFF78BFE0120FFF749
:1014D0009EFEE020FFF785FE0F20FFF798FE3120EB
:1014E000FFF795FE2B20FFF792FE0C20FFF78FFEF3
:1014F0000E20FFF78CFE0820FFF789FE4E20FFF735
:1015000086FEF120FFF783FE3720FFF780FE0720DD
:10151000FFF77DFE1020FFF77AFE0320FFF777FE2E
:101520000E20FFF774FE0920FFF771FE0020FFF781
:101530006EFEE120FFF755FE0020FFF768FE0E204B
:10154000FFF765FE1420FFF762FE0320FFF75FFE42
:101550001120FFF75CFE0720FFF759FE3120FFF74F
:1015600056FEC120FFF753FE4820FFF750FE08202B
:10157000FFF74DFE0F20FFF74AFE0C20FFF747FE56
:101580003120FFF744FE3620FFF741FE0F20FFF722
:101590003EFE1120FFF725FE1648FFF7C9FE292061
:1015A000FFF71FFEBDE870402C201AE62DE9FC4134
:1015B000012500240B4E23462A4669033046CDE917
:1015C000004500F0DFFE084F0023012204213846C9
:1015D000CDE9004500F0D6FE00230122110330467C
:1015E0000AE00000000C02400008024000500140E8
:1015F0003400002040420F00CDE9005400F0C2FE4C
:1016000004213846FFF7BDF9FE4E0021304600F0B8
:10161000D8FB304600F0D3FFFFF792FEFA48F021E6
:1016200044800480001D01804FF4A0714180057149
:10163000BDE8FC414FF6FF706DE62920D1E528207A
:10164000CFE510B514460B460246FFF7F6FD2C20F9
:10165000FFF7C7FDC4F30720FFF7D9FDE0B2BDE8EF
:101660001040D4E52DE9F04104463620FFF7B9FDDE
:10167000E54DF0272D1D4FF4A07634B1012C06D096
:10168000022C0BD0032C0BD00DE0582000E088205A
:10169000FFF7BDFD2F806E80012007E0282000E0CD
:1016A000E820FFF7B4FD2E806F8000202871BDE890
:1016B000F0812DE9F84F1D469146DDE90AA3D24A93
:1016C000108051802C782044141D2488A04204D915
:1016D0006878084450800020108098B200906B78A1
:1016E00090465188B8F800005A1893B22A780244FC
:1016F00092B2FFF7C7FD00261CE0A9F1200111FB03
:1017000000606A68002432F810700FE007FA04F0F5
:1017100000040AD5B8F80210B8F80000314420449B
:1017200089B280B25246FFF78CFF641C2878A04231
:10173000ECD8761C6878B042DFD82978B8F8002059
:101740001144A8F80010BDE8F88F2DE9FC47AE4D14
:10175000DDE90A9828801F461446064669800BE09A
:101760000A2A0ED00D2A15D0CDE900983B4669888B
:101770002888641CFFF79DFF2278002AF0D1BDE87D
:10178000FC8768887978401C0844688060780D2858
:1017900002D02E80641CEFE700202880641CF9E74B
:1017A00030B54D7800241D8002E00B7823449CB2B4
:1017B00010F8013B002BF8D1148030BD2DE9FC5FFF
:1017C0009046914A0C46121D054611881F46481E38
:1017D000A94200D885B2414501D81FFA80F8518846
:1017E000481EA14200D884B2B94200D887B245450C
:1017F00002D9284645468046BC4202D920463C468E
:101800000746A8EB050000B25FEA000AA7EB040058
:101810000FFA80F908D0B9F1000F05D04FF0FF3072
:1018200045450CD201210BE00C983B4680B200905C
:10183000424621462846FFF725FDBDE8FC9F0146AC
:101840000191BC4200D2012000905046CA4501DC03
:10185000C9F1000000EBD070401006B2CAF1000BD5
:10186000214628460C9AFFF7ECFE454501D1BC42C3
:10187000E3D030465E4505DDA0EB09010EB20199CB
:1018800029448DB24845EBDA06EB0A0006B200980F
:10189000204484B2E4E72DE9F8431D46089C16462F
:1018A0000F4680460B460094FFF788FF42462B46C2
:1018B000394610460094FFF781FF32462B463946E1
:1018C00010460094FFF77AFF2B46324619464046F1
:1018D0000094FFF773FFBDE8F88338B59042049D8C
:1018E00002D9044610462246994202D90C461946AE
:1018F0002346ACB20094FFF7C5FCBDE83840042194
:101900004248FFF73EB82DE9FF4F0746C2F10100FC
:1019100014460FFA80F8C2EBC43040000FFA80F989
:1019200083B00E46081981B24FF0010A0025B8B203
:10193000069AFFF786FE301B81B2B8B2069AFFF70F
:1019400080FE3819B1B280B2069AFFF77AFEB1B2C2
:10195000381B56E0B8F1000F09DB09F102000FFA5D
:1019600080F9641E08EB090024B20FFA80F80AF12E
:1019700002000FFA80FA6D1C08EB0A002DB20FFA74
:1019800080F87819019006EB040B1FFA8BF180B2F6
:10199000069AFFF756FE781B00901FFA8BF180B273
:1019A000069AFFF74EFE0198A6EB040B1FFA8BF187
:1019B00080B2069AFFF745FE00981FFA8BF180B2BD
:1019C000069AFFF73EFE3819019006EB050B1FFA49
:1019D0008BF180B2069AFFF734FE381B00901FFA95
:1019E0008BF180B2069AFFF72CFE0198A6EB050B4F
:1019F0001FFA8BF180B2069AFFF723FE1FFA8BF1D4
:101A0000009805E00050014030000020000802402E
:101A100080B2069AFFF715FEA5429BDB07B0BDE832
:101A2000F08F2DE9FE4F0746C2F1010014460FFA70
:101A300080F8C2EBC43040000FFA80FA0E46081955
:101A400081B299464FF0010B0025B8B21A46FFF754
:101A5000F8FD301B81B2B8B24A46FFF7F2FD3819E3
:101A60000290B1B280B24A46FFF7EBFD381B0190FD
:101A7000B1B280B24A46FFF7E4FD0298B3B2CDF8A6
:101A8000009082B2B1B240E0B8F1000F09DB0AF178
:101A900002000FFA80FA641E08EB0A0024B20FFA63
:101AA00080F80BF102000FFA80FB6D1C08EB0B00B5
:101AB0002DB20FFA80F8781982B20290781BCDE926
:101AC000009031198BB289B280B2FFF777FE01988E
:101AD000311B82B202988BB2CDF8009089B280B2ED
:101AE000FFF76CFE381B82B202903819CDE90090E6
:101AF00071198BB289B280B2FFF760FE711B029838
:101B00008BB2CDF8009082B289B2019880B2FFF713
:101B100055FEA542B8DBBDE8FE8F000070471CB53E
:101B200030B1032803D10521FE48FFF7F7FF1CBDA4
:101B300005210320CDE9000100231A464FF4E041BE
:101B4000F94800F030FC1CBD7CB50525F74E032498
:101B500040B101280CD0032803D10521F448FFF738
:101B6000DDFF7CBD00231A464FF4607130460CE067
:101B700000231A464FF400613046CDE9004500F0DD
:101B800012FC0023EB481A46C021CDE9004500F0C5
:101B90000AFC7CBD1CB50522E74C032140B101289D
:101BA0000CD0032803D10521E448FFF7B7FF1CBD83
:101BB000CDE9001200231A46642105E0CDE90012A8
:101BC00000231A464FF4E041204600F0ECFB1CBD18
:101BD0001CB50622032140B101280DD0032803D1F2
:101BE0000621D748FFF79AFF1CBDCDE9001200235C
:101BF0001A463821D34806E0CDE9001200231A46E0
:101C00004FF4E051D04800F0CEFB1CBD7CB505255B
:101C1000CC4E032450B1012816D002281AD0032834
:101C200003D10521C948FFF779FF7CBD00231A467F
:101C30004FF480613046CDE9004500F0B4FB00234D
:101C40001A460C21C04809E000231A464FF46041AF
:101C5000304603E00023BE481A460D21CDE9004579
:101C600000F0A1FB7CBD1CB50522032140B1012879
:101C70000DD0032803D10521B648FFF74FFF1CBD47
:101C8000CDE9001200231A46E021B34805E0CDE972
:101C9000001200231A463821AA4800F084FB1CBD1C
:101CA0002DE9FF4F85B00446DDE912BA9946164684
:101CB0006846FFF7E0F8A748A84F0025844208D1FE
:101CC000386840F4805038600698FFF7CCFFADF8D4
:101CD00004509E48DFF884828442A8F104080AD1A7
:101CE000D8F8001041F48041C8F800100698FFF7BA
:101CF0008DFFADF80450924884420AD1D8F8001004
:101D000041F40041C8F800100698FFF761FFADF8F4
:101D100004508A48844208D1386840F40050386042
:101D20000698FFF737FFADF804508148844208D188
:101D3000386840F4801038600698FFF705FFADF86A
:101D400004507848844208D1386840F40010386064
:101D50000698FFF7E4FEADF80450ADF80C90ADF82E
:101D600000504FF40070ADF80EA0ADF802B0ADF821
:101D70000A0046B10121012E08D00220022E08D00F
:101D8000032E0BD00EE0ADF8065004E0ADF806507F
:101D900006E0ADF80600ADF8085003E0ADF8060027
:101DA000ADF80810208820F04000208069462046C9
:101DB000FEF7E2FF208840F04000208009B0BDE837
:101DC000F08F2DE9FC410446624800250F464FF490
:101DD0008276844205D1CDE9006520230022FFF7F9
:101DE0005FFF5A48844206D1CDE9006520230022D6
:101DF0003946FFF755FF5248844206D1CDE90065C8
:101E0000202300223946FFF74BFF4C48844206D17D
:101E1000CDE90065202300223946FFF741FF444801
:101E2000844206D1CDE9006500231A463946FFF702
:101E300037FF3C48844206D1CDE9006520230022CB
:101E40003946FFF72DFFBDE8FC812DE9FC41044632
:101E500040480025174688464FF48276844204D1D4
:101E6000CDE900652023FFF71BFF3848844206D1E7
:101E7000CDE9006520233A464146FFF711FF30487F
:101E8000844206D1CDE9006520233A464146FFF75A
:101E900007FF2A48844206D1CDE9006520233A464F
:101EA0004146FFF7FDFE2248844206D1CDE9006598
:101EB00000233A464146FFF7F3FE1A488442C2D156
:101EC000CDE9006520233A464146FFF7E9FEBAE72F
:101ED0002DE9FC470446DDE90A651E481F46904689
:101EE0008946844205D1CDE9006513463A46FFF79D
:101EF000D7FE1648844206D1CDE9006543463A46EE
:101F00004946FFF7CDFE0E48844206D1CDE9006573
:101F100043463A464946FFF7C3FE0848844225D166
:101F200043461DE0005401400018024000140240E6
:101F300000500140001C02400010024000340140EB
:101F4000003C00400004024000080240003800400D
:101F500000200240003001400000024044380240AE
:101F6000CDE900653A464946FFF79AFE7748844234
:101F700006D1CDE9006543463A464946FFF790FE53
:101F80007348844206D1CDE9006543463A46494646
:101F9000FFF786FEBDE8FC877FB50D00044620D024
:101FA0006846FEF7B1FA6B48844208D06A4884421A
:101FB00005D06648844202D06548844201D1039925
:101FC00000E0029900200124421C04FA02F3B1FB54
:101FD000F3F3AB4202D8C00004B070BDD0B2082801
:101FE000F2D33820F8E702880388C2F3C02223F036
:101FF000400303800129018808D021F40061018099
:10200000018841F0400101801046704741F40061B1
:10201000F5E730B50488640614D50489A407FCD01C
:1020200004892406F9D400240AE00D5D8581058920
:10203000AD07FCD005892D06F9D485891555641C9A
:102040009C42F2D330BD10B503885B0613D50389DB
:102050009B07FCD003891B06F9D4002309E0CC5C64
:1020600084810489A407FCD004892406F9D48489D6
:102070005B1C9342F3D310BD30B50488640613D5BE
:102080000489A407FCD004892406F9D4002409E0BB
:1020900082810589AD07FCD005892D06F9D4858993
:1020A0000D55641C9C42F3D330BD30B504886406E2
:1020B00016D50489A407FCD004892406F9D4002489
:1020C0000CE031F8145085810589AD07FCD00589F5
:1020D0002D06F9D4858922F81450641C9C42F0D353
:1020E00030BD10B503885B0614D503899B07FCD06F
:1020F00003891B06F9D400230AE031F813408481D8
:102100000489A407FCD004892406F9D484895B1CC3
:102110009342F2D310BD30B50488640614D5048907
:10212000A407FCD004892406F9D400240AE08281A3
:102130000589AD07FCD005892D06F9D4858921F8DC
:102140001450641C9C42F2D330BD0000005001408A
:102150000054014000300140003401401CB5FEF73E
:1021600097FF01200090002301901A4602215B484E
:1021700000F008F900201CBD2DE9FE4F574D8246A6
:102180000221284600F071F9544902241A310C80CA
:102190004FF47A7000F09CF85048183004801E20EC
:1021A00000F096F80221284600F04CF900264B4F2B
:1021B000009610370AE00098142802D90220BDE8E2
:1021C000FE8F401C0090012000F082F838688007E4
:1021D000F1D4009609E00098552801D90320EEE7D4
:1021E000401C0090012000F073F838688007F2D599
:1021F000009609E00098552801D90420DFE7401C2B
:102200000090012000F064F838688007F2D40024C0
:102210000DF10408082508F804604FF00109009644
:1022200009E000984B2801D90520C8E7401C009020
:10223000012000F04DF838688007F2D5009608E0DC
:102240005A2801D90620BAE7401C0090012000F06E
:102250003FF8386880070098F2D4122801D9252861
:1022600007D318F804006B1E09FA03F1084308F8B5
:1022700004006D1E15F0FF05D1D1641CE4B2052CDD
:10228000C8D39DF804009DF8051042189DF806007B
:102290009DF8071043181A449DF80830D2B29A42AC
:1022A00001D007208BE7BDF8042052BAAAF802201B
:1022B000020605D500F07F0041EA0020404202E01E
:1022C000BDF8060040BAAAF80000002077E753E7FF
:1022D000034909684843401EFDD27047000C024084
:1022E0001C000020A3490844C0F38F2070472DE94B
:1022F000F04F9A46DDE909B889460346FFF7F2FF39
:10230000C5B200204FF0030E0121814011EA090FF0
:1023100028D0994E36F815400C4326F81540DF6852
:1023200044000EFA04F6B7430BFA04FC47EA0C0724
:10233000DF601F6802FA04FCB74347EA0C071F601E
:10234000012A01D0022A0DD15F6889B28F430AFAAF
:1023500000F189B20F435F60996808FA04F4B14351
:1023600021439960401CC0B21028CDD3BDE8F08F46
:1023700000B5FFF7B7FF0121814080480268114393
:10238000016000BDFCB51646DDE907C50C00074637
:1023900008D0FFF7EDFFCDE900C5324621463846AB
:1023A000FFF7A5FFFCBD2DE9FC4F9946DDE90BB712
:1023B00092460D00064622D0FFF7DAFF00220121E7
:1023C0004FF00F0C01FA02F028420DD0D00806EBB6
:1023D0008003186A5407E40E0CFA04F820EA080097
:1023E00007FA04F420431862521C102AEAD3CDE9FC
:1023F000009B5346022229463046FFF778FFBDE88E
:10240000FC8FF0B50E460546FFF76CFF00225A49D7
:10241000C4B24FF0010C03270CFA02F333420CD084
:1024200028684FEA420E07FA0EFE40EA0E002860C6
:1024300031F81400984321F81400521CD2B2102A2B
:10244000EAD3F0BDF0B500220125032605FA02F318
:102450000B4205D00468570006FA07F39C4304605A
:10246000521CD2B2102AF1D3F0BDF0B500220127E0
:10247000032607FA02F33C460B4208D005685300D6
:1024800006FA03FC25EA0C059C4025430560521C16
:10249000D2B2102AEDD3F0BDF0B5002201250326FB
:1024A00005FA02F30B4205D00468570006FA07F359
:1024B0001C430460521CD2B2102AF1D3F0BDF0B517
:1024C000002201260324022706FA02F30B4209D058
:1024D0000568530004FA03FC25EA0C0507FA03F328
:1024E0001D430560521CD2B2102AEDD3F0BDF0B5E9
:1024F00000230127032507FA03F40C4209D0C6681C
:102500005C0005FA04FC26EA0C0602FA04F42643F1
:10251000C6605B1CDBB2102BEDD3F0BD41F4803202
:10252000C261C161C261C169C0697047002102E036
:10253000491C89B240080128FAD80846704700B5FE
:10254000FFF7D0FE012181400C4802688A430260F7
:1025500000BD00B5FFF7C6FE074931F8100000BD09
:1025600000B5FFF7BFFE044931F81000C04380B248
:1025700000BD00000000FEBFD00000203038024047
:10258000B34A0146904200D1B248B34A914201D1C8
:10259000B0481030B14A914201D1AE482030B04A23
:1025A000914201D1AB483030AE4A914201D1A948A5
:1025B0004030AD4A914201D1A6485030704710B525
:1025C000FFF7DEFFA94AAA49436893420B6802D38A
:1025D00043F4800301E043F400130B60C0689042B1
:1025E000086802D340F4800001E040F40010086065
:1025F000A04900204861C861086248628862C862D8
:1026000008634863886310BD2DE9F0411F461446F6
:102610000D468046069EFFF7B3FF80E8F000404677
:10262000BDE8F041CBE710B5FFF7AAFF04464068CC
:10263000FEF7DCF9E068BDE81040FEF7D7B92DE9F8
:10264000F05F9A4617460D460646FFF799FF044687
:10265000C068406848BB6068406830BB55EA070006
:1026600023D07C484FF000090838DFF80882C0F812
:10267000049006F10C01C8F82090C8F810A0C8F822
:102680001C90C8F804102168C8F80010DFF8C4A135
:10269000402140464FF4806BAAF1040AC8F80C10A0
:1026A00035B18560C8F818B006E00020BDE8F09F9D
:1026B000C0F808A0C8F818903D21606800F0DCF868
:1026C0006C496068FEF71AFAA168C8F80010404625
:1026D0004946C8F80C901FB18760C8F818B003E0ED
:1026E000C0F808A0C8F818103D21E06800F0C4F850
:1026F0006049E068FEF702FAE068016841F0010114
:1027000001606068016841F001010160B08840F03B
:102710000300B0800120C9E72DE9F04116460F46BD
:102720000546FFF72DFF04464068406810B10020C1
:10273000BDE8F081474805F10C01083847604D4875
:1027400006614160002181612268026040220162CD
:10275000C260C1613D21606800F08EF84549606843
:10276000FEF7CCF96068016841F001010160A888BA
:1027700040F00200A8800120DAE72DE9F04116467A
:102780000F460546FFF7FCFE04464068406808B166
:102790000020CDE72F4805F10C01083807803548A7
:1027A000066141602B4908398160002181612168FF
:1027B00001604021C160C90101628910C1613D21F0
:1027C000606800F059F82B496068FEF797F9606877
:1027D000016841F001010160A88840F00200A88072
:1027E0000120A5E710B50446FFF7CAFEC168496895
:1027F00041B94068406828B92089800702D0208903
:10280000000601D5012010BD002010BD10B5FFF756
:10281000B7FE406810BD10B5FFF7B2FE406810BDAE
:1028200010B5FFF7ADFE0446406800F05BF8E068C5
:10283000BDE8104000F056B810B5FFF7A1FE044601
:10284000406800F07FF8E068BDE8104000F07AB81A
:10285000003001404400002000380040003C0040AF
:102860000034014000500140005401401064024017
:1028700030380240E8000020794A10B51823904211
:1028800002D2784A784C03E0754A754C083A6442A3
:102890002044B0FBF3F0042801D3001F121D734B3A
:1028A00001F03D01185C8140116010BD3D21E3E75E
:1028B0006B491822884203D26A496B4B083903E0FE
:1028C0006749674B10395B421844B0FBF2F00428AB
:1028D00001D3001F091D0968644A105CC14001F062
:1028E0003D00704738B504463D21FFF7C5FF5F49FD
:1028F0005B4B1820091D01229C4207D25A4B8DF8D0
:1029000001202344B3FBF0F0095C09E0544B5B4227
:102910002344B3FBF0F0022301448DF80130097A1F
:102920008DF800108DF803208DF802006846FDF741
:10293000C2FC206840F01E002060606940F080000A
:10294000606138BD10B504463D21FFF795FF47484B
:10295000434A1821001D944201D2434A01E0404AF3
:1029600052422244B2FBF1F14056012100F01F0215
:1029700091404009800000F1E020C0F880112068FB
:1029800020F01E002060606900F08000606110BDD2
:102990007047704770477047704770B505463D21D6
:1029A000FFF786FF84B23D212846FFF765FFA006AA
:1029B00005D52868C00602D52846FFF7E9FFE006DE
:1029C00005D52868000702D52846FFF7E2FF200753
:1029D00005D52868400702D52846FFF7DBFF6007CA
:1029E00005D52868800702D52846FFF7D4FFE00701
:1029F00005D06869000602D52846FFF7CDFF70BDF7
:102A000018480830C9E717482030C6E7154838305D
:102A1000C3E714485030C0E712486830BDE711489A
:102A20008030BAE70F489830B7E70E48B030B4E7C7
:102A30000B48B2E70A481830AFE709483030ACE736
:102A400007484830A9E706486030A6E704487830D0
:102A5000A3E703489030A0E70148A8309DE70000B5
:102A60001064024008600240F09FFDBFE05500087E
:102A70002DED028B90B000F0FEF8FEF709FBFEF79B
:102A800095FD0120FEF7EEFD4FF6E4373846FEF7E0
:102A900042FC00260A21284B28A20846CDE90067FF
:102AA000FEF753FE2B4B2CA24FF49B715A20CDE91D
:102AB0000067FEF74AFEFFF751FB2D4806604FF412
:102AC0007A7980464046D8F800104945FAD9066020
:102AD0000FA8FFF7FCFB0028F4D1BDF93C00B2EED3
:102AE000048A00EE100AF8EEC00A80EE880A10EEA2
:102AF000100A01F099FA0446BDF83E000D4600EEBA
:102B0000100AF8EE400A80EE880A10EE100A01F072
:102B10008BFA41EC100B17A153EC102B02A8CDE956
:102B2000004500F06BF9044B02AA64210A20CDE9AC
:102B30000067FEF70AFEC5E728000020414D32334A
:102B4000303120284448543231290A73656E736F3E
:102B5000720000002000002073746D333266342D43
:102B6000646973636F766572792E636F6D00000020
:102B70001400002048756D69646974793A20253223
:102B80002E31662025250A54656D70657261747555
:102B900072653A2025322E31662043007047FEE7E9
:102BA000FEE7FEE7FEE7704770477047704710B5D5
:102BB000FEF742FA10BD00001CB500215B4A0091EF
:102BC0000191106840F4803010604FF4A043106809
:102BD00000F4003001900098401C0090019810B95A
:102BE00000989842F3D11068800342D501200190EB
:102BF0004E484030016841F0805101604C490868FE
:102C000040F44040086049480830036803600368A6
:102C100043F400430360036843F4A0530360041FBC
:102C2000444B2360136843F08073136013689B0167
:102C3000FCD50A6842F480320A604A68D203FCD5A7
:102C40000A6842F400320A604A689203FCD53A4AA4
:102C500040F205711160016821F003010160016813
:102C600041F0020101600168C1F381010229FAD13A
:102C70001CBD01911CBD314810B5016841F47001C3
:102C800001602A48016841F001010160274A0021E2
:102C90000832116002682A4B1A400260031D294A5B
:102CA0001A60026822F48022026020480C30016021
:102CB000FFF782FF21494FF000608039086010BDA6
:102CC00070B51A4D083528681F4B204910F00C00CC
:102CD00004D05E10042803D0082803D00B601BE04A
:102CE0000E6019E0114A121D1068C0F3805410687C
:102CF00000F03F0014B1B6FBF0F001E0B3FBF0F0E0
:102D000013681268C3F388135843C2F30142521C7C
:102D10005200B0FBF2F0086028680C4AC0F30310C0
:102D2000121D105C0A68C2400A6070BD0038024083
:102D300000700040085A4007003C024088ED00E067
:102D4000FFFFF6FE103000240024F400A400002051
:102D500070B5064600F018F9056806F10B0020F082
:102D60000704B4429CBF002070BD2B466A68BAB10C
:102D70001068A04210D304F1080188423CBF50689B
:102D8000586007D35168101941601168091B016030
:102D900058601460101D70BD13465268002AE7D1B8
:102DA0002146284600F0F8F80028DED170BD70B545
:102DB0000446051F00F0E8F80068002C14BF4468C2
:102DC00070BD002C18BFAC423CBF20466468F8D3ED
:102DD00001680A18AA4218BF456003D12A6805464F
:102DE0001144016028684119A1421CBF6C6070BD8C
:102DF0006168696021680844286070BD0FB41CB523
:102E0000074B06AA7B4469460090059800F021FB19
:102E10000020694600F030FB1CBC5DF814FB00008C
:102E20007106000070B5044685690068C10601D5C9
:102E3000302600E02026C00707D070BDD4E901216C
:102E400030469047206A401C20626D1EF6D570BD4A
:102E500070B5044685690078C00707D170BDD4E914
:102E6000012120209047206A401C20626D1EF6D56B
:102E700070BD2DE9F0474FF0000A89460446C0F8BE
:102E800020A02046E1688847002876D0252806D073
:102E9000D4E901219047206A401C2062F1E7E168F3
:102EA000204600258847C4F81CA006460027C4F821
:102EB00018A02A2E09D0304601F093F838B304EB5D
:102EC0008708303EC8F8186019E059F8041B2046FE
:102ED00004EB87029161E1688847012F064618D10B
:102EE000E069002820DA25F020051DE0D8F8180058
:102EF00000EB800006EB40003038C8F81800204690
:102F0000E1688847064601F06CF80028EED1012FF1
:102F10000AD02E2E08D12046E16888477F1C06463D
:102F2000022F45F02005C4DBA069002803DA4042E7
:102F300045F00105A061E80701D025F01005B6B104
:102F4000A6F14100192802D8203645F400654A460A
:102F50003146204625604D46FDF762F958B10128FB
:102F600006D0ED1D25F0070000F1080989E704E00F
:102F700005F1040985E730468AE7206ABDE8F08755
:102F80007047704770470000004870472C010020D0
:102F9000704770477047704738B504460A460020AE
:102FA0006946AFF30080002808BF38BD024600998B
:102FB000204600F06FFA012038BD012000F078BBF8
:102FC000F8B5AFF30080054600200C46102000BF86
:102FD0000646A819A0420DD9324669460020AFF333
:102FE0000080070008BF00F063FB0098A04218BFF4
:102FF0000546C419FFF7C8FF05600746F01D20F01D
:1030000007004619284600F00AF8B44208BFF8BD88
:10301000A21B31463868BDE8F84000F03BBA0021F9
:103020000160C0E9011070471020704770472DE91A
:10303000FF4F0C461E464FF0FF378BB0D2E9000120
:10304000DDF860800A908A46C1F30A5505B93D460D
:10305000002108464FF00000BAF1000F00F44000D4
:1030600005DA00EB80004FF4400101EA50004FEA1E
:103070009059B9F1010F00DDB9460A9850EA4A00AB
:103080000ED044F61050A5F2FF3545432F14B8F189
:10309000000F1ED07542291E1EDDC9F100021CE082
:1030A000B8F1010F4FF0000001D0302103E0F243EE
:1030B00005E02154401CB042FBDB304600220021D9
:1030C00021540B99C1F80880C1E900200FB0BDE878
:1030D000F08FBD1B6D1CDEE74A4600DA694206A888
:1030E00000F078FA06AB93E8070003AB83E807002B
:1030F00050460A9900F0A2FB8DE80700A0F50050A9
:103100001F3800900398002D09DD42F21F014A4646
:10311000084403A90390684600F001FE08E0A0F50A
:1031200000504A461F3803A90390684600F00BFE82
:103130008DE807000004000C03D04FF0FF30410879
:1031400000E01046B8F1000F03D0002200921546AF
:103150001EE0751E05D400F0B7F9303262556D1EC1
:10316000F9D5B3460122084302D000227F1C04E0B7
:103170002078302801D100227F1E002A099786D0AE
:103180001DE0112D07DA00F09FF9303262556D1CF9
:1031900050EA0102F5D1084302D00098C8B10EE010
:1031A0000021681E05E0235C625C63542254401ECB
:1031B000491C8142F7DBAB46A81B401E099000204A
:1031C00004F80B000B98099AC0F80880C0E9002B9E
:1031D0007CE711264FF0000859E72DE9F04F8846AB
:1031E0000446D21D22F0070191B0D1E90001CDE9DA
:1031F0000A0100F0DEFE02460B98C00F01D02D2020
:1032000007E02068810701D52B2002E0202101EA98
:10321000C000032A099001D0072A05DB0346414676
:10322000204600F097F90BE12078800601D5E0698F
:1032300000E00620B8F1650F814606D0B8F1660FB0
:1032400018D0B8F1670F70D131E00020B9F1110F3B
:10325000009001DB112301E009F101030AAA01A991
:103260000CA8FFF7E4FEDDE90C70002609F101056A
:10327000834647E001204B4600904FF000470AAAE2
:1032800001A90CA8FFF7D3FEDDE90DB00C995D464E
:10329000002610B909F101000D18B9EB050003D49F
:1032A000C0F1FF3609F10105A5EB09002BE0B9F1EA
:1032B000010F01DA4FF001090020B9F1110F009060
:1032C000484601DD112300E003460AAA01A90CA823
:1032D000FFF7ADFEDDE90C704D46002683462078F1
:1032E00000070AD4AB4500DA5D4601A8012D04DDD4
:1032F000411911F8011C302907D04F4502DA17F1A6
:10330000040F04DA012082460FE06D1EEEE7002F65
:1033100002DCED1B3E4403E0781CA84200DD7D1C6E
:10332000B81B00F1010A4FF000472078000703D4D2
:10333000AA4501DB4FF0FF3A0021B7F1004F0DF134
:1033400043088DF8431024D002202B23002F01DAEC
:103350007F422D230A21021EA0F1010000DC5FB193
:1033600097FBF1FC97FBF1F201FB1C7C17460CF17B
:10337000300C08F801CDEEE7A8F1010003702188B8
:10338000090501D5452100E06521A0F1010800F8FB
:10339000011C09980FA9A1EB0807FF1D00B101202E
:1033A000411901EBEA70A1693844081A401EA06176
:1033B0002078C00602D42046FFF734FD099828B1D2
:1033C000D4E901219047206A401C20622078C00681
:1033D00022D52046FFF726FD1EE0002E04DBB34574
:1033E00002DD01A8805D00E03020D4E90121904792
:1033F000206A401C2062761CAAF101005FEA000AE4
:103400000AD100F043F8C0680168405CD4E90121AA
:103410009047206A401C2062281EA5F10105DCDCD3
:1034200007E0D4E9012118F8010B9047206A401CFD
:103430002062381EA7F10107F3DC2046FFF708FDE4
:10344000032011B043E6000001694A1C02610878BC
:10345000704700B58FB0CDE90131002105910549D4
:103460007944CDE9031011466846FFF702FD0FB01D
:1034700000BD0000E5FFFFFF0A6802F8010B0A60CB
:103480007047000000487047240100200048704742
:1034900044010020034640688C46002818BF88423B
:1034A0003CBF03464068F8D318681844884207D0E8
:1034B0000CF1030020F00700001D411A521A0146CA
:1034C000081D0A60FFF773BC30B5B0F10A024FEA7D
:1034D000900E71F100034EEA817EB0EB0E0061EBBD
:1034E00091014FEA101E4EEA017E10EB0E0041EBF7
:1034F00011114FEA102E4EEA016E10EB0E0041EB57
:1035000011214FEA104E4EEA014E10EB0E0041EB36
:103510001141401841F100014FEAD00040EA4170EA
:103520004FEAD10110EB80054FEA810444EA907420
:1035300044EB01046D1944EB0404521BA3414FF00A
:10354000000348BF0A3200D530BD401C41F10001E4
:1035500030BD00002DE9F0411F46044603260168F6
:10356000072A01F4006004DB08B116A505E016A5E2
:1035700003E008B115A500E015A521F010002060BA
:10358000A069C01EA0610FB1401EA0612046FFF7D8
:1035900049FC4FB1D4E9012138469047206A401CCC
:1035A0002062C01C206206E0206AFAE7D4E901210B
:1035B00015F8010B9047761EF8D22046FFF748FC1D
:1035C000BDE8F0814E414E006E616E00494E4600EE
:1035D000696E66002DE9F047814616468AB0334889
:1035E00078440DC88DE80D0030487844801C03AC49
:1035F0000DC884E80D0041F69B300844372190FB4C
:10360000F1F290FBF1F5A5F1800501FB12041B3CE2
:1036100002D56442012000E00020DFF890A080463F
:103620000027FA44AAF1BE0A0DE0E00709D03246AD
:10363000684607EB47010AEB810100F084FB8DE847
:10364000070064107F1C002CEFD1184F7F44AC3F63
:1036500018E0E80714D007EB04100DF1180A90E801
:103660000E008AE80E00C068F04201D19819089057
:10367000324606A903A800F066FB03AB83E8070007
:103680006D10641C002DE4D132466946B8F1000F7C
:1036900003A802D000F043FB01E000F054FBC9E9AD
:1036A0000001C9F808200AB0BDE8F0878C200000AE
:1036B00010B500F035F8BDE8104000F02CB87047A8
:1036C0007546FFF7DFFEAE4605006946534620F01B
:1036D0000700854618B020B5FCF7D6FDBDE82040B0
:1036E0004FF000064FF000074FF000084FF0000BBE
:1036F00021F00701AC46ACE8C009ACE8C009ACE871
:10370000C009ACE8C0098D4670470446AFF300809D
:103710002046FCF7A5FD002801D000F069B87047ED
:1037200010B5012805D0002103A000F067F80120A2
:1037300010BD09A1F8E7000053494752544D454DCB
:103740003A204F7574206F662068656170206D6542
:103750006D6F7279000000003A2048656170206D3D
:10376000656D6F727920636F727275707465640035
:103770004FF0013C50F8042B51F8043B9A4221D100
:10378000A2EB0C03934313EACC1317D150F8042B8C
:1037900051F8043B9A4215D1A2EB0C03934313EA70
:1037A000CC130BD150F8042B51F8043B9A4209D1A9
:1037B000A2EB0C03934313EACC13DBD04FF00000D1
:1037C000704700BFD01A01BAB1FA81F101F01801B7
:1037D00022FA01F0CB40C1F12001DBB2C0B2C01A25
:1037E0002CFA01F3D11A914311EAC311E6D17047C3
:1037F00001491820ABBEFEE72600020070B5054661
:103800000C460A2000E06D1C00F011F835B1287854
:103810000028F8D102E0641C00F009F814B1207807
:103820000028F8D1BDE870400A20AFF3008008B549
:1038300069468DF800000320ABBE08BD5FEA400C6E
:1038400008BF91F0000F4FEA8C234FEAC12243EAF0
:1038500051514FEA1C5018BF00F5F0404FEA3000BC
:1038600018BF41F000415FEA6C5C00F02980BCF1B8
:10387000FF3F08BF40F080407047130C06BF1204A2
:103880004FF0100C4FF0000C130E04BF12020CF19D
:10389000080C130F04BF12010CF1040C930F04BFAA
:1038A00092000CF1020CD30F04BF52000CF1010C7A
:1038B00011464FF00002A0F11F00A0EB0C00704772
:1038C00011F0004F08BF704731F000413FF4D5AF11
:1038D0000B0C06BF09044FF0100C4FF0000C0B0E40
:1038E00004BF09020CF1080C0B0F04BF09010CF115
:1038F000040C8B0F04BF89000CF1020CCB0F04BF2A
:1039000049000CF1010CCCF12003A0EB0C0022FAD1
:1039100003F302FA0CF241EA030100F101007047DF
:1039200020F07F4C80EA030023F07F47ACEB0703D5
:1039300003F57C5300F0004003F1FF032DE98049BB
:103940004FEA154B09B44FEA144325EA0B4E24EA1B
:1039500003480FF2042606EB132749083E785FEA76
:10396000320203FB0667C7F5000707FB06F64FEABE
:1039700054374FEAD64606F1020607FB066CCCF137
:10398000005C4FEA1C472CEA074C07FB06F40CFBD3
:1039900006F504EB15464FEA961634BF00204FF0AB
:1039A00000404FEAD13706FB07FC4FEA1C4C0CFBEA
:1039B0000BF7D21B03FB0CF761EB07010CFB0EF7B7
:1039C000B0EB074072EB17420CFB08F734BFA2EBD9
:1039D0000742B2EB074261EB17414FEA0C444FEA52
:1039E000910706FB07FC4FEA1C4C0CFB0BF7B0EBF6
:1039F000C74072EB573203FB0CF734BFA2EBC74250
:103A0000B2EBC74261EB57310CFB0EF7B0EBC700CE
:103A100072EB57720CFB08F734BFA2EBC702B2EB94
:103A2000C70261EB5771039F4FEA816141EA92112E
:103A300004EBCC044FEAD1374FEA826206FB07FC65
:103A400042EA90124FEA80604FEA1C4C0CFB0BF7E5
:103A5000D21B03FB0CF761EB07010CFB0EF7B0EB7D
:103A6000074072EB17420CFB08F734BFA2EB07428A
:103A7000B2EB074261EB17414FEA8C554FEA9107D1
:103A800004EB9C2406FB07FC4FEA1C4C0CFB0BF7D9
:103A9000B0EBC74072EB573203FB0CF734BFA2EB1D
:103AA000C742B2EBC74261EB57310CFB0EF7B0EBEC
:103AB000C70072EB57720CFB08F734BFA2EBC702CA
:103AC000B2EBC70261EB577115EB4C254FEA8161F0
:103AD00041EA92114FEA82624FEAD13742EA9012EC
:103AE00006FB07FC44F100044FEA80604FEA1C4CDF
:103AF0000CFB0BF7D21B03FB0CF761EB07010CFB74
:103B00000EF7B0EB074072EB17420CFB08F734BF1F
:103B1000A2EB0742B2EB074261EB174115EB1C1514
:103B20004FEA813141EA92414FEA823242EA9042C1
:103B30004FEA80304FEA0C7644F1000448EA034330
:103B40004EEA0B484FF0000EB2EB080C71EB030786
:103B500024BF624639464EEB0E0E4FF0000B0018A4
:103B6000524149414BEB0B0BB2EB080C71EB0307D5
:103B70007BF1000B24BF624639464EEB0E0E4FF030
:103B8000000B0018524149414BEB0B0BB2EB080CF8
:103B900071EB03077BF1000B24BF624639464EEB05
:103BA0000E0E51EA020718BF46F0010616EB0E761C
:103BB00055F1000254F1000103D5BDE88901BDE8CB
:103BC0000088BDE88901BDE80048B619524141EBC3
:103BD0000101A3F10103704780807F7E7D7C7B7AA9
:103BE0007978777676757473727171706F6E6E6DA9
:103BF0006C6C6B6A6A69686867666665646463634F
:103C000062616160605F5F5E5E5D5D5C5C5B5B5AD4
:103C10005A59595858575756565555555454535341
:103C200052525251515050504F4F4F4E4E4D4D4D9C
:103C30004C4C4C4B4B4B4A4A4A49494948484847E7
:103C40004747474646464545454444444443434325
:103C50004342424242414141002B26D4770021D0C9
:103C60001CB54FEA370703B44FF010004FF01001B6
:103C70004FF000000FBCBDE810400BF1010BBBF191
:103C8000010F08BF5FEA170722BF12F1010211F10D
:103C900001014FF0004143F1000300F0004043EA0E
:103CA00000007047F9D35708DAE746EA064613F1F1
:103CB000400F4FEA16461FDD13F1200FDFBF1643FA
:103CC0000A46002120335B42C8D0C3F1200746EAF0
:103CD000064602FA07F74FEA164646EA0706C3F118
:103CE000200722FA03F201FA07F721FA03F14FF055
:103CF000000342EA0702B1E746EA020646EA064640
:103D00004FEA164646EA0106BCBF46EA0646360CAE
:103D10004FF000034FF000024FF000019EE72DE945
:103D2000C048934630B491E8380007C831EA400CE7
:103D300048BF34EA430C03D5FFF7F2FDFFF78CFFD1
:103D4000F0BCBDE800882DE9C048934630B491E846
:103D5000380007C810F0804F08BF13F0804F03D120
:103D600000F005F8FFF778FFF0BCBDE8008820F010
:103D70007F4780EA030023F07F4C07EB0C03A3F599
:103D80007C5300F00040A3F1FE0392F0000F00F01E
:103D9000B38095F0000F00F077802DE901494FEADC
:103DA00011404FEA144621EA004800FB06FC24EAD1
:103DB000064708FB06F607FB08F800FB07F718EBB9
:103DC00006484CEB164C4FEA124B18EB07484FEAEB
:103DD00015464CEB174022EA0B4E0BFB06FC25EA7E
:103DE00006470EFB06F607FB0EFE0BFB07F71EEB66
:103DF000064E4CEB164C4FF000061EEB074E4CEBFC
:103E0000174B18EB0B0840F1000018EB0E0B58EBAA
:103E1000000840F100008F1A4FF000013CBFC94379
:103E2000661B14BFB5EB040C00213CBFC943F61B55
:103E30004FEA17444EEA8E0E27EA04454FEA1C4724
:103E400004FB07622CEA074C05FB07F70CFB05F6A1
:103E500004FB0CFC16EB074642EB174216EB0C4634
:103E600042EB1C421BEB060658EB0202414146EABC
:103E70009E0601D5BDE80189B619524141EB010109
:103E8000A3F10103BDE801894FEA14454FEA114748
:103E900024EA054621EA074C05FB07F406FB07F771
:103EA0000CFB06F105FB0CFC11EB074144EB17443E
:103EB0004FEA124711EB0C4144EB1C4422EA074C39
:103EC00005FB07F206FB07F70CFB06F605FB0CFCEF
:103ED00016EB074642EB174216EB0C4642EB1C452D
:103EE0006A1854F1000148BF7047B619524141EBBE
:103EF0000101A3F10103704795F0000F37D04FEA9D
:103F000011424FEA144721EA024624EA074C02FB19
:103F100007F106FB07F70CFB06F402FB0CFC14EBA5
:103F2000074441EB17414FEA154714EB0C4441EBB2
:103F30001C4125EA074C02FB07F506FB07F70CFBC3
:103F400006F602FB0CFC16EB074645EB174516EB95
:103F50000C4645EB1C42121951F1000148BF704755
:103F6000B619524141EB0101A3F1010370474FEA39
:103F700014454FEA114724EA054621EA074C05FBA0
:103F800007F106FB07F70CFB06F24FF0000605FBF6
:103F90000CFC12EB074241EB174112EB0C4251EBC8
:103FA0001C4148BF7047921841EB0101A3F1010386
:103FB000704703B401984100009850EAC12018BF2F
:103FC00004204A0D18BF40F0010040F2FF72B2EB2E
:103FD000515F08BF40F00200012808BF052002B071
:103FE000704730380A2801D20120704700207047FE
:103FF00010B500290AD00878002807D00548784471
:10400000FFF7B6FB002801D0002010BD024878441D
:1040100010BD0000AA160000A21600000808A0F5B6
:1040200000114FEA3101704743004FEAD30C4FEAC9
:104030003C0C43401FBF40070CF1605113F0FE4F92
:1040400070471CF0006F03D100200CF00041704756
:104050000CF0004343EA507010B540EACC0000F089
:104060000EF800BF000000924FEA0001FFF7D6BF34
:104070004FF000414FF00000A1F5002170470EF114
:10408000020E2EF0030E5EF8044B244204D44FEAD5
:104090004102B2F17F4F11D84FEA4003B3F17F4F95
:1040A0000CD80ED14FEAD07CB2F17F4F0CEB4C0C08
:1040B0000CF1020C08BF4CEBD17C04E04FF0080C73
:1040C00001E04FEAD17C0CEB4C0324FA03F404F03A
:1040D0000704B4F1040C06D20EEB840CBDE81040CA
:1040E0004CF0010C6047DFE80CF0070802024FF0CB
:1040F0000040A0F5800010BD0846420018BFD2F174
:10410000807288BF00F0004010BD4FF04070E1EEBB
:10411000100A7047FFF761B80000000000000000BF
:10412000000000000000000000000000001000106F
:10413000001000100010001000000010000000002F
:1041400000280028002800000000000000000000F7
:104150000000000000240024007C00240048007CB3
:1041600000480048000000000038005400500038AB
:1041700000140054005400380010000000200054C7
:10418000005800300028005400140008000000000F
:1041900000100028002800100034004800480034B7
:1041A00000000000001000100010000000000000DF
:1041B00000000000000000000008001000200020A7
:1041C0000020002000200020001000080020001027
:1041D000000800080008000800080008001000207F
:1041E000001000380010002800000000000000004F
:1041F000000000000000000000100010007C001013
:10420000001000000000000000000000000000009E
:10421000000000000000001000100010000000006E
:104220000000000000000038000000000000000056
:10423000000000000000000000000000000000106E
:10424000000000000008000800100010001000101E
:10425000002000200000000000380044004400540A
:10426000004400440044003800000000001000300A
:10427000005000100010001000100010000000009E
:104280000038004400440004000800100020007CB6
:10429000000000000038004400040018000400047E
:1042A0000044003800000000000800180028002822
:1042B0000048007C0008000800000000007C00406E
:1042C00000400078000400040044003800000000B2
:1042D00000380044004000780044004400440038A6
:1042E00000000000007C0004000800100010002006
:1042F0000020002000000000003800440044003886
:10430000004400440044003800000000003800442D
:1043100000440044003C0004004400380000000059
:10432000000000000010000000000000000000106D
:10433000000000000000000000000010000000006D
:10434000000000100010001000000000000C003001
:1043500000400030000C00000000000000000000E1
:104360000000007C0000007C000000000000000055
:104370000000000000600018000400180060000049
:104380000000000000380044000400080010001085
:10439000000000100000000000380044004C0054F1
:1043A000005C0040004000380000000000100028C1
:1043B000002800280028007C004400440000000081
:1043C0000078004400440078004400440044007831
:1043D0000000000000380044004000400040004061
:1043E0000044003800000000007000480044004411
:1043F000004400440048007000000000007C0040C1
:104400000040007C004000400040007C00000000B4
:10441000007C004000400078004000400040004028
:10442000000000000038004400400040005C0044F0
:104430000044003800000000004400440044007CB8
:104440000044004400440044000000000038001014
:1044500000100010001000100010003800000000D4
:1044600000040004000400040004000400440038B8
:104470000000000000440048005000600050004868
:1044800000480044000000000040004000400040A0
:10449000004000400040007C000000000044006C30
:1044A000006C00540044004400440044000000003C
:1044B00000440064006400540054004C004C00446C
:1044C0000000000000380044004400440044004460
:1044D000004400380000000000780044004400441C
:1044E0000078004000400040000000000038004418
:1044F000004400440044004400540038000400001C
:10450000007800440044004400780048004800441B
:1045100000000000003800440040003000080004A3
:104520000044003800000000007C00100010001063
:1045300000100010001000100000000000440044B3
:1045400000440044004400440044003800000000DF
:1045500000440044004400280028002800100010F7
:104560000000000000440044005400540054006C5B
:104570000028002800000000004400280028001047
:1045800000100028002800440000000000440044FF
:10459000002800280010001000100010000000008B
:1045A000007C000400080010001000200040007C87
:1045B0000000000000180010001000100010001093
:1045C0000010001000100018002000200010001043
:1045D000001000100008000800000000003000106B
:1045E000001000100010001000100010001000302B
:1045F0000010002800280044000000000000000017
:1046000000000000000000000000000000000000AA
:1046100000000000000000FE00200010000000006C
:10462000000000000000000000000000000000008A
:1046300000380044003C0044004C003400000000FE
:1046400000400040005800640044004400640058EA
:10465000000000000000000000380044004000405E
:104660000044003800000000000400040034004C46
:1046700000440044004C0034000000000000000032
:1046800000380044007C0040004400380000000076
:10469000000C0010007C0010001000100010001032
:1046A00000000000000000000034004C0044004402
:1046B000004C0034000400780040004000580064C2
:1046C00000440044004400440000000000100000CA
:1046D000007000100010001000100010000000001A
:1046E00000100000007000100010001000100010FA
:1046F000001000E000400040004800500060005002
:10470000004800440000000000700010001000107D
:104710000010001000100010000000000000000059
:10472000007800540054005400540054000000006D
:1047300000000000005800640044004400440044AD
:104740000000000000000000003800440044004465
:104750000044003800000000000000000058006421
:104760000044004400640058004000400000000085
:104770000034004C00440044004C003400040004A9
:10478000000000000058006400400040004000406D
:104790000000000000000000003800440030000865
:1047A00000440038000000000020002000780020B5
:1047B0000020002000200018000000000000000081
:1047C0000044004400440044004C00340000000059
:1047D00000000000004400440028002800280010C9
:1047E0000000000000000000005400540054006C61
:1047F00000280028000000000000000000440028FD
:10480000001000100028004400000000000000001C
:104810000044004400280028001000100010006030
:1048200000000000007C0008001000200040007C18
:1048300000000000001800100010001000200020F0
:1048400000100010001000180010001000100010E0
:1048500000100010001000100010001000300010B8
:1048600000100010000800080010001000100030B8
:104870000000000000000074004C00000000000078
:104880000000000000000000000000000000000028
:104890000000000000000000000000000000000018
:1048A00000000000000000000000000C000C000CE4
:1048B000000C000C000C000C000C000C000C000C98
:1048C0000000000C000C0000000000000000001BB5
:1048D000001B001B001B001B00000000000000006C
:1048E00000000000000000000000000000000000C8
:1048F00000008019801980198019C07FC07F80193D
:104900000033C07FC07F003300330033003300002A
:10491000000000000000001E003F807580650074EC
:10492000003C001E00078005806580658075003FA3
:10493000001E0004000400000000007000D840D8F1
:10494000C0D880D900730006000C801BC036C0663A
:10495000C046C00680030000000000000000001EEA
:10496000003F003300330033001E000CC03CC06623
:10497000806380618063C03E801C000000000000F6
:104980000000000C000C000C000C000C00000000EB
:104990000000000000000000000000000000000017
:1049A0000000000080000001000300060006000473
:1049B000000C000C000C000C000C000C00040006A5
:1049C0000006000300018000002000100018000C09
:1049D000000C0004000600060006000600060006A3
:1049E0000004000C000C0018001000200000000C57
:1049F000002D003F001E00330000000000000000FA
:104A000000000000000000000000000000000000A6
:104A1000000000000000000C000C000C000CC0FFA7
:104A2000C0FF000C000C000C000C00000000000097
:104A30000000000000000000000000000000000076
:104A40000000000000000000000000000000000C5A
:104A5000000C00040004000800000000000000003A
:104A600000000000000000000000001E001E00000A
:104A70000000000000000000000000000000000036
:104A80000000000000000000000000000000000026
:104A9000000000000000000C000C000000000000FE
:104AA00000000003000300030006000600060006E5
:104AB000000C000C000C000C00180018001800007E
:104AC000000000000000001E003F00338061806194
:104AD0008061806D806D8061806180610033003F06
:104AE000001E00000000000000000006000E001E76
:104AF0000036002600060006000600060006000636
:104B00000006000600060000000000000000001E75
:104B1000003F807380618061800100030006000C0B
:104B2000001800300060807F807F000000000000DF
:104B30000000001C003E006300630003000E000E36
:104B400000038001800180618073003F001E00002F
:104B50000000000000000006000E000E001E001EF7
:104B60000016003600360066807F807F0006000653
:104B700000060000000000000000007F007F0060D1
:104B800000600060006E007F8063800180018061B2
:104B90008073003F001E0000000000000000001EA7
:104BA000003F803380610060006E007F8073806111
:104BB000806180618033003F001E00000000000023
:104BC0000000807F807F8001000300030006000654
:104BD000000C000C000C0008001800180018000061
:104BE000000000000000001E003F806380618061C3
:104BF0000021001E003F8061806180618061003F74
:104C0000001E0000000000000000001E003F0073B6
:104C10008061806180618073803F801D8001806140
:104C20000073003F001E00000000000000000000B4
:104C3000000000000000000C000C0000000000005C
:104C4000000000000000000C000C0000000000004C
:104C5000000000000000000000000000000C000C3C
:104C600000000000000000000000000C000C000428
:104C70000004000800000000000000008000800325
:104C8000000E003800600038000E80038000000035
:104C90000000000000000000000000000000000014
:104CA0000000807F807F00000000807F807F000008
:104CB00000000000000000000000000000000000F4
:104CC0000000000000400070001C00078001000789
:104CD000001C007000400000000000000000000008
:104CE0000000001F803FC071C060C000C001800391
:104CF0000007000E000C000C0000000C000C00006F
:104D0000000000000000001E003F803180718063C1
:104D1000806F806D806D806F806700600032003E24
:104D2000001C0000000000000000000E000E001B30
:104D3000001B001B001B80318031803F803F803191
:104D4000C060C060C0600000000000000000007C87
:104D5000007E0063006300630063007E007E0063EA
:104D6000806180618063007F007E000000000000A1
:104D70000000001E003F8031806100600060006024
:104D800000600060006080618031003F001E000014
:104D9000000000000000007C007F006380638061F1
:104DA0008061806180618061806100630063007E5A
:104DB000007C0000000000000000807F807F006019
:104DC000006000600060007F007F006000600060A5
:104DD0000060807F807F0000000000000000807F76
:104DE000807F0060006000600060007F007F0060E6
:104DF00000600060006000600060000000000000D3
:104E00000000001E003F8031806100600060006093
:104E100080638063806180618031803F001E00007C
:104E2000000000000000806180618061806180611D
:104E30008061807F807F806180618061806180612E
:104E400080610000000000000000003F003F000CF7
:104E5000000C000C000C000C000C000C000C000CF2
:104E6000000C003F003F0000000000000000800137
:104E7000800180018001800180018001800180012A
:104E8000806180618073003F001E00000000000010
:104E90000000C0608061006300660066006C0078FE
:104EA000007C00660066006380618061C060000075
:104EB0000000000000000060006000600060006012
:104EC0000060006000600060006000600060807F43
:104ED000807F0000000000000000C071C071C07B36
:104EE000C07AC06AC06AC06EC064C060C060C06082
:104EF000C060C060C0600000000000000000807161
:104F00008071807980798079806D806D806D806519
:104F10008067806780678063806300000000000016
:104F20000000001E003F003380618061806180616D
:104F300080618061806180610033003F001E00005D
:104F4000000000000000007E007F806380618061BF
:104F500080618063007F007E006000600060006010
:104F600000600000000000000000001E003F003351
:104F7000806180618061806180618061806580671F
:104F80000033803F401E0000000000000000007E53
:104F9000007F8063806180618063007F007E0066A7
:104FA0000063006380618061C06000000000000059
:104FB0000000000E001F8031803100300038001EDC
:104FC00000078003806180618031003F001E000087
:104FD000000000000000C0FFC0FF000C000C000C2F
:104FE000000C000C000C000C000C000C000C000C61
:104FF000000C000000000000000080618061806102
:105000008061806180618061806180618061806198
:105010008073003F001E0000000000000000C06020
:10502000C060C060803180318031001B001B001BDC
:10503000001B000E000E000E000400000000000027
:105040000000C0C0C0C0C0C0C0C0C0C0C0CC804C88
:10505000804C805E8052805280738061806100004D
:10506000000000000000C0C0806080610033003B91
:10507000001E000C000C001E001F003B80718061B0
:10508000C0C00000000000000000C0C0806180615E
:1050900000330033001E001E000C000C000C000C3E
:1050A000000C000C000C0000000000000000803F1D
:1050B000803F8001000300030006000C000C001874
:1050C000001800300060807F807F0000000000003A
:1050D000000F000F000C000C000C000C000C000C6A
:1050E000000C000C000C000C000C000C000C000C60
:1050F000000F000F0000001800180018000C000C32
:10510000000C000C00060006000600060003000369
:105110000003000000000000001E001E0006000644
:10512000000600060006000600060006000600064F
:105130000006000600060006001E001E0000000C0F
:10514000000C001E001200330033806180610000FB
:10515000000000000000000000000000000000004F
:10516000000000000000000000000000000000003F
:10517000000000000000000000000000000000002F
:10518000E0FF0000000000380018000C00000000E4
:10519000000000000000000000000000000000000F
:1051A00000000000000000000000000000000000FF
:1051B0000000001F803F80618001801F803F806170
:1051C0008063807FC03800000000000000000060A5
:1051D000006000600060006E007F8073806180610D
:1051E000806180618073007F006E0000000000001D
:1051F00000000000000000000000001E003F80735F
:1052000080610060006080618073003F001E0000CC
:105210000000000000008001800180018001801DED
:10522000803F807380618061806180618073803F96
:10523000801D0000000000000000000000000000D1
:105240000000001E003F00738061807F807F00604F
:105250008071003F001E0000000000000000C00739
:10526000C00F000C000C807F807F000C000C000C35
:10527000000C000C000C000C000C000000000000F2
:105280000000000000000000801D803F80738061EE
:105290008061806180618073803F801D80018063B8
:1052A000007F003E00000060006000600060006F52
:1052B000807F8071806180618061806180618061B8
:1052C00080610000000000000000000600060000F1
:1052D0000000003E003E0006000600060006000634
:1052E00000060006000600000000000000060006A0
:1052F00000000000003E003E00060006000600061A
:10530000000600060006000600060046007E003C7F
:105310000000006000600060006080610063006663
:10532000006C007C0076006300638061C060000058
:10533000000000000000003E003E000600060006DF
:10534000000600060006000600060006000600062D
:105350000006000000000000000000000000000047
:10536000000080DDC0FFC0CEC0CCC0CCC0CCC0CC63
:10537000C0CCC0CCC0CC0000000000000000000089
:10538000000000000000006F807F807180618061FC
:1053900080618061806180618061000000000000A8
:1053A00000000000000000000000001E003F8073AD
:1053B00080618061806180618073003F001E000019
:1053C000000000000000000000000000006E007FF0
:1053D000807380618061806180618073007F006E76
:1053E000006000600060006000000000000000003D
:1053F000801D803F807380618061806180618073E7
:10540000803F801D8001800180018001000000003C
:105410000000000000000067803F003900300030CD
:10542000003000300030003000300000000000008C
:1054300000000000000000000000001E803F8061AE
:105440000060007F803F80018061007F001E0000BF
:105450000000000000000000000800180018007F95
:10546000007F001800180018001800180018801F8E
:10547000800F00000000000000000000000000009D
:1054800000008061806180618061806180618061F5
:105490008063807F803D000000000000000000006D
:1054A000000000000000C060803180318031001BAE
:1054B000001B001B000E000E000600000000000094
:1054C0000000000000000000000080DD80DD80DDC5
:1054D000005500550055007700770022002200009B
:1054E00000000000000000000000000000008061DB
:1054F00000330033001E000C000C001E003300338C
:1055000080610000000000000000000000000000BA
:1055100080618061803100330033001B001B001B61
:10552000000E000E000E001C007C00700000000049
:10553000000000000000C07FC07F80010003000663
:10554000000C00180030C07FC07F00000000000089
:105550008003800700060006000600060006000E15
:10556000001C001C000E00060006000600060006D7
:1055700080078003000600060006000600060006FD
:1055800000060006000600060006000600060006EB
:1055900000060006000600060038003C000C000C67
:1055A000000C000C000C000E00070007000E000CA1
:1055B000000C000C000C000C003C00380000000047
:1055C000000000000000000000008038807F0047DD
:1055D00000000000000000000000000000000000CB
:1055E000000610160B0C0D0E0F10112F38393A3B18
:1055F0003C44454602400000000000A000000000BE
:1056000005400000000000C8000000000C40000041
:105610000000409C00000000194000000020BCBEBB
:105620000000000034400000BFC91B8E00000004D1
:10563000B5400000504BCFD06607E2CF010000001C
:105640006C4100003E8251AADFEEA7340100000049
:10565000D9420000DCB5A0E23A301F97FFFFFFFF00
:10566000B4450000FD25A0C8E9A3C14FFFFFFFFF1F
:10567000FF3F00000000008000000000FF3F00002E
:105680000000008000000000C45600080000002058
:10569000B8000000E80100087C570008B8000020AE
:1056A000D0130000040200081C00000043000000AA
:1056B000F8FFFFFF0C0000000E0000000F000000CC
:1056C0002E00000000000000010203040102030498
:1056D00006070809000000000000000000000000AC
:1056E00000000000070A0000184100080B1200002B
:1056F00084480008000000000000000000000000D6
:105700000000000000000000000000065864024095
:10571000000000064064024000000000706002408B
:105720000000000058600240000000008860024055
:1057300000000000106002400000000810640240F9
:1057400000000008106402400000000EA064024047
:105750000000000E886402400000000288640240DD
:1057600000000002A06402400095BA0A0000000098
:0C57700000000000010203040607080905
:04000005080001AD41
:00000001FF
