:020000040800F2
:10000000D0080020C1010008652500086725000808
:100010006B2500086F25000873250008000000000C
:10002000000000000000000000000000772500082C
:1000300079250008000000007B2500087F250008C6
:10004000DB010008DB010008DB010008DB01000820
:10005000DB010008DB010008DB010008DB01000810
:10006000DB010008DB010008DB010008A921000812
:10007000B5210008C1210008CD210008D9210008C0
:10008000E5210008F1210008DB010008DB01000880
:10009000DB010008DB010008DB010008DB010008D0
:1000A000DB010008DB010008DB010008DB010008C0
:1000B000DB010008DB010008DB010008DB010008B0
:1000C000DB010008DB010008DB010008DB010008A0
:1000D000DB010008C51C0008DF1C0008FB1C000831
:1000E000DB010008DB010008DB010008DB01000880
:1000F000DB010008DB010008DB010008FD2100082E
:10010000DB010008DB010008DB010008DB0100085F
:10011000171D0008331D0008DB010008DB01000883
:1001200009220008132200081F2200082B220008C1
:1001300037220008DB010008DB010008DB010008B2
:10014000DB010008DB010008DB010008DB0100081F
:10015000432200084F2200085B2200084D1D0008C2
:10016000DB010008DB010008DB010008DB010008FF
:10017000DB010008DB010008DB010008DB010008EF
:10018000DB010008DB010008691D0008851D00086F
:10019000DB010008DB010008DB010008DB010008CF
:1001A000DB010008DB010008DB010008DFF80CD0F0
:1001B00002F014FB00480047D1240008D0080020BA
:1001C0000648804706480047FEE7FEE7FEE7FEE7F1
:1001D000FEE7FEE7FEE7FEE7FEE7FEE799260008FA
:1001E000AD01000832490143324A1160704770B5D1
:1001F000002100230F22C4781CB32E4C246804F481
:10020000E064C4F5E064C4F30721C1F10404E3B27F
:100210000A4144789C40E1B28478144021430C07A1
:10022000210E254C05786155047804F01F05012442
:10023000AC4005786D11AD0005F1E025C5F8004131
:1002400009E0047804F01F050124AC401B4D06783A
:10025000761145F8264070BD194A0A400243154BF5
:100260001B1F1A60704739B1124A121D12680243EF
:10027000104B1B1D1A6006E00E4A121D12688243C5
:100280000C4B1B1D1A607047042808D14FF0E02169
:10029000096941F004014FF0E022116107E04FF0DD
:1002A000E021096921F004014FF0E022116170475B
:1002B0000000FA050CED00E000E400E080E100E061
:1002C00080FFFF1FF648006840F00100F449086015
:1002D0000020F34908310860F1480068F1490840FE
:1002E000EF490860F048091D0860F048EC49843186
:1002F0000860ED481038091D0860E948006820F4DE
:100300008020E74908600020E5490C310860E44995
:100310008C31086070470021E14A921C117011462F
:100320000870704710B501460022002300204A11D2
:10033000012A02D1DA4C236808E0022A03D1D84C02
:100340007034236802E0D64C7434236801F01F0235
:10035000012494401C400CB1012000E0002010BD9D
:1003600038B5002000900024002500BF3120FFF7A1
:10037000D9FF05460098401C00900098B0F5A04FAA
:1003800001D0002DF2D03120FFF7CCFF08B10124BD
:1003900000E00024204638BD01460020C04A106815
:1003A00020F0F80040EAC10010607047C0490860C2
:1003B00070470021BA4A703211701170012802D0C2
:1003C00004280AD104E00121B54A7032117005E019
:1003D0000521B34A7032117000E000BF00BF7047C2
:1003E000B4490860704770B5049C41EA8215012643
:1003F000C6EB530645EA0645054345EA0465A84EA3
:10040000361D356070BDAA490866704710B5830176
:1004100043EA016343EA0273A14C8434236010BDB4
:10042000A3498866704710B5830143EA016343EA34
:1004300002739B4C8834236010BD9D490867704748
:100440009B49C864704702460020954B08331868E2
:1004500020F0EC6042EA01031843914B0833186026
:100460007047024600208E4B0833186820F0784011
:1004700042EA010318438A4B08331860704701466B
:100480000020874A0832106820F0030008431060FB
:10049000704783480830006800F00C007047014640
:1004A00000207F4A0832106820F0F00008431060F6
:1004B0007047014600207A4A0832106820F4E05064
:1004C00008431060704701460020754A08321068E2
:1004D00020F4604040EAC10010607047F0B5002190
:1004E000002200240225002602236D4F08373F68B2
:1004F00007F00C0121B1042905D0082937D105E006
:100500006D4F076036E06D4F076033E0644F3F1D6D
:100510003F68C7F38056624F3F1D3F6807F03F03B7
:100520006EB1664FB7FBF3F7DFF874C10CF1040C42
:10053000DCF800C0CCF3881C07FB0CF40CE05E4F29
:10054000B7FBF3F7DFF858C10CF1040CDCF800C07E
:10055000CCF3881C07FB0CF4514F3F1D3F68C7F3D9
:1005600001477F1C7D00B4FBF5F7076002E0524FA6
:10057000076000BF00BF4A4F08373F6807F0F0012F
:1005800009094F4F7A5C0768D7404760444F0837E6
:100590003F6807F4E051890A494F7A5C4768D740C1
:1005A00087603F4F08373F6807F46041490B444F6D
:1005B0007A5C4768D740C760F0BD002100F4407204
:1005C000B2F5407F0AD1364A0832116821F4F81199
:1005D0003C4A02401143324A08321160304A7032BC
:1005E0001268C0F30B031A432D4B70331A60704727
:1005F00030494439086070472E49403908607047D7
:1006000031490860704701460020254A8C32106845
:1006100020F4401008431060704701460020204A33
:100620008C32106820F44000084310607047014687
:1006300000201B4A8C32106820F01F004A1E104315
:10064000174A8C321060704701460020144A8C32E1
:10065000106820F4F8504A1E40EA0220104A8C32FA
:1006600010607047014600200D4A8C32106820F45B
:10067000403008431060704714490860704739B132
:10068000074A303212680243054B30331A6006E0E5
:10069000034A303212688243014B30331A6070478C
:1006A00000380240FFFFF6EA10300024003000203E
:1006B00000004742800E47420024F40000127A00F6
:1006C00000000020FFFCFF0F5C014742E0114742A1
:1006D00029B1934A12680243914B1A6004E0904A90
:1006E000126882438E4B1A60704739B18C4A121DD2
:1006F000126802438A4B1B1D1A6006E0884A121DCD
:1007000012688243864B1B1D1A60704739B1844AB8
:100710000C3212680243824B0C331A6006E0804AA6
:100720000C32126882437E4B0C331A60704739B129
:100730007B4A103212680243794B10331A6006E08C
:10074000774A103212688243754B10331A60704733
:1007500039B1734A243A12680243714B243B1A6040
:1007600006E06F4A243A126882436D4B243B1A60BC
:10077000704739B16A4A203A12680243684B203BFD
:100780001A6006E0664A203A12688243644B203BB6
:100790001A60704739B1624A1C3A12680243604BD2
:1007A0001C3B1A6006E05E4A1C3A126882435C4BAE
:1007B0001C3B1A60704739B1594A143A1268024317
:1007C000574B143B1A6006E0554A143A12688243AC
:1007D000534B143B1A60704739B1514A103A1268B2
:1007E00002434F4B103B1A6006E04D4A103A126824
:1007F00082434B4B103B1A60704739B1484A1C3258
:1008000012680243464B1C331A6006E0444A1C320D
:1008100012688243424B1C331A60704739B1404A18
:100820002032126802433E4B20331A6006E03C4AF5
:100830002032126882433A4B20331A60704739B134
:10084000374A243212680243354B24331A6006E0DB
:10085000334A243212688243314B24331A60704782
:1008600039B12F4A2C32126802432D4B2C331A60B7
:1008700006E02B4A2C3212688243294B2C331A6033
:10088000704739B1264A303212680243244B303364
:100890001A6006E0224A303212688243204B30331D
:1008A0001A607047012808D11D493C31096841F0A0
:1008B00008011B4A3C32116007E019493C310968C4
:1008C00021F00801164A3C321160704739B1144AD0
:1008D000273A12780243124B273B1A7006E0104A5F
:1008E000273A127882430E4B273B1A7070470C4808
:1008F0004030006840F0807009494031086070471E
:1009000001460020064A283A12680A400AB101202E
:1009100000E0002070470249263908707047000047
:1009200034380240016821F00101016000210160BA
:1009300041608160C160016121214161DB498842E0
:1009400004D13D21D94A103A91608CE0D749183141
:10095000884205D14FF47461D44A103A916082E024
:10096000D2493031884205D14FF47411CF4A103A40
:10097000916078E0CD494831884205D14FF07461EB
:10098000CA4A103A91606EE0C8496031884204D189
:10099000C749C64A103AD16065E0C44978318842F7
:1009A00004D1C449C14A103AD1605CE0BF499031DA
:1009B000884204D1C049BD4A103AD16053E0BB49D6
:1009C000A831884205D14FF03D51B84A103AD16064
:1009D00049E0BA49884204D13D21B84A083A116039
:1009E00041E0B6491831884205D14FF47461B34AE9
:1009F000083A116037E0B1493031884205D14FF4EF
:100A00007411AE4A083A11602DE0AC494831884271
:100A100005D14FF07461A94A083A116023E0A74953
:100A20006031884204D1A249A44A121F11601AE021
:100A3000A2497831884204D19E49A04A121F116010
:100A400011E09E499031884204D19B499B4A121F74
:100A5000116008E09949A831884204D14FF03D5116
:100A6000964A121F1160704710B500220268944B1D
:100A70001A40CC680B6823434C6923438C69234399
:100A8000CC6923430C6A23434C6A23438C6A234377
:100A90004C6B23438C6B23431A430260426922F060
:100AA0000702D1E90B3423431A4342610B694360C7
:100AB0004B6883608B68C36010BD0021016041609A
:100AC0008160C160016141618161C1610162416216
:100AD0008162C162016341638163704721B1026831
:100AE00042F00102026003E0026822F001020260AB
:100AF000704721B1026842F40042026003E00268DC
:100B000022F400420260704721B1026842F02002E4
:100B1000026003E0026822F0200202607047416038
:100B200070470146486880B2704722B1036843F4B9
:100B30000023036003E0036823F4002303600161E2
:100B4000704721B1026842F48022026003E002682B
:100B500022F48022026070470AB1016100E0C160A6
:100B60007047014600200A6802F400220AB1012001
:100B700000E000207047014600200A6802F00102F0
:100B80000AB1012000E000207047014600204A69B8
:100B900002F03800704730B503460A4600200024B2
:100BA000464DAB4202D24149103901E04349103968
:100BB00002F000550DB14C6800E00C68414D2C402E
:100BC00004EA02050DB1012000E0002030BD02461C
:100BD0003A4B9A4202D23548103801E03748103873
:100BE00001F000531BB1374B0B40C36002E0354BA3
:100BF0000B408360704710B501F080034BB122B108
:100C0000436943F08003436103E0436923F08003B9
:100C1000436180290BD02AB1036801F01E042343ED
:100C2000036004E0036801F01E04A343036010BDE9
:100C300070B50246002000240025204EB24202D2A8
:100C40001A4B103B01E01D4B103B1F4E0E4036B1BE
:100C50001E2606EAD124166806EA040502E0566953
:100C600006F0800501F000560EB15C6800E01C68DB
:100C7000144E344004EA010616B10DB1012000E023
:100C8000002070BD02460D4B9A4202D20748103830
:100C900001E00A48103801F000531BB1094B0B402A
:100CA000C36002E0074B0B40836070471060024056
:100CB0003D000020400F002000003D201064024055
:100CC0003F801CF07D0F7D0F3C0F3C0F10B504469C
:100CD000FA48844208D101211020FFF77DFD002150
:100CE0001020FFF779FD57E0F548844209D1012132
:100CF0004804FFF760FD00214FF40030FFF75BFD73
:100D00004AE0F048844209D101218804FFF753FDED
:100D100000214FF48020FFF74EFD3DE0EA48844279
:100D200009D10121C804FFF746FD00214FF400203E
:100D3000FFF741FD30E0E548844209D10121080573
:100D4000FFF739FD00214FF48010FFF734FD23E059
:100D5000DF48844208D101212020FFF73DFD00211A
:100D60002020FFF739FD17E0DA48844209D101213C
:100D70008807FFF720FD00214FF08040FFF71BFDA3
:100D80000AE0D548844207D101214005FFF713FD51
:100D900000216005FFF70FFD10BD2DE9FF47054657
:100DA0000E460024A14600BFA046B08900B100BF96
:100DB0002C8A24F44054F08804432C82AC8941F2FC
:100DC0000C608443B0883189084371890843044327
:100DD000AC81AC8A24F44074B0890443AC82684688
:100DE000FFF77CFBB548854202D0B948854202D165
:100DF000DDF80C9001E0DDF80890A88900F40040CF
:100E000040B109EBC90000EB091031684900B0FBA3
:100E1000F1F707E009EBC90000EB09103168890020
:100E2000B0FBF1F76420B7FBF0F004012009642166
:100E300001FB1078A88900F4004040B1322000EB9B
:100E4000C800B0FBF1F000F00700044308E03220D6
:100E500000EB08106421B0FBF1F000F00F00044338
:100E60002C81BDE8FF874FF416510160002181807D
:100E7000C18001810C21418100218181704710B521
:100E800002460020108A20F470600B884C882343AF
:100E90008C882343CC8823431843108210BD002143
:100EA000018041808180C180704721B1828942F4F4
:100EB0000052828104E082894DF6FF731A408281DC
:100EC0007047028B02F47F420283028B0A43028343
:100ED000704721B1828942F40042828103E0828915
:100EE000C2F30E028281704721B1828A42F400620D
:100EF000828204E0828A4FF2FF731A408282704736
:100F0000C1F308028280704701468888C0F3080058
:100F10007047028A4FF6F0731A400282028A0A432F
:100F20000282704721B1828942F00202828104E08C
:100F300082894FF6FD731A408281704782894FF291
:100F4000FF731A40828182890A4382817047028A34
:100F50004FF6DF731A400282028A0A430282704708
:100F600021B1028A42F48042028204E0028A4BF6F6
:100F7000FF731A4002827047818941F0010181812B
:100F8000704721B1828A42F00802828204E0828A9C
:100F90004FF6F7731A4082827047028BD2B20283F7
:100FA000028B42EA01220283704721B1828A42F019
:100FB0002002828204E0828A4FF6DF731A40828226
:100FC000704721B1828A42F01002828204E0828A54
:100FD0004FF6EF731A4082827047828A4FF6FB7396
:100FE0001A408282828A0A438282704721B1828AB1
:100FF00042F00202828204E0828A4FF6FD731A40B8
:10100000828270471AB1838A0B43838202E0838A0B
:101010008B4383827047F0B50346002400260025E9
:10102000002040F66A17B94200D100BF1846C1F34C
:10103000421401F01F06012707FA06F5012C01D121
:101040000C3004E0022C01D1103000E014301AB151
:1010500007682F43076002E00768AF430760F0BDF1
:1010600002460020B1F5007F00D100BF13880B407D
:101070000BB1012000E00020704701F40072B2F5CE
:10108000007F00D100BFCA430280704770B502469E
:10109000002400230025002040F66A16B14200D14A
:1010A00000BFC1F3421501F01F03012606FA03F346
:1010B000012D13D19689334017E000000010014044
:1010C0000044004000480040004C004000500040F8
:1010D0000014014000780040007C0040022D02D145
:1010E000168A334001E0968A33400C12012606FA34
:1010F00004F41688344013B10CB1012000E0002044
:1011000070BD10B50022002340F66A14A14200D140
:1011100000BF0A1201249440A3B2DC43048010BD36
:1011200001464FF40030081AC0F38F2070472DE9B4
:10113000F04304460E461546DDE907892046FFF7D1
:10114000EFFFC7B2002243E001209040304000B9D9
:101150003CE0B14830F81700012191400843AE4906
:1011600021F81700E0684FEA420C032101FA0CF164
:101170008843510008FA01F10843E06020684FEA13
:10118000420C032101FA0CF18843510005FA01F1E8
:1011900008432060012D01D0022D16D16168012085
:1011A000904080B221EA000003FA02F189B20843BC
:1011B0006060A0684FEA420C032101FA0CF18843F9
:1011C000510009FA01F10843A06000BF501CC2B2EF
:1011D000102AB9DBBDE8F08300B502461046FFF7E0
:1011E0009FFF012101FA00F08C49096808438B49EF
:1011F000086000BD2DE9FC4305460C4616461F4617
:10120000DDE909890CB9BDE8FC832846FFF7E4FF56
:101210003B46324621462846CDE90089FFF787FF45
:1012200000BFF0E72DE9FC4705460E4617469846F5
:10123000DDE90A9A0EB9BDE8FC872846FFF7CCFF26
:1012400000241AE00120A040304000B914E0E10879
:1012500005F1200050F821006107CA0E0F219140CE
:1012600088436107C90E0AFA01F10843E20805F153
:10127000200141F8220000BF641C102CE2D33B4641
:10128000022231462846CDE90089FFF750FF00BF12
:10129000D1E770B503460C461846FFF741FFC5B2CB
:1012A000002214E001209040204070B118685600E0
:1012B0000321B14008431860574830F81500012158
:1012C00091408843544921F81500501CC2B2102A9D
:1012D000E8DB70BD30B5024600200BE001238340FF
:1012E0000B402BB1136845000324AC40A3431360AB
:1012F000431CD8B21028F1DB30BD30B502460020C7
:101300000FE0012383400B404BB1136845000324D9
:10131000AC40A34345000124AC4023431360431C6D
:10132000D8B21028EDDB30BD30B5024600200BE00E
:10133000012383400B402BB1136845000324AC40CC
:1013400023431360431CD8B21028F1DB30BD30B505
:101350000246002011E0012383400B4003B90AE05C
:10136000136845000324AC40A34345000224AC406D
:101370002343136000BF431CD8B21028EBDB30BD01
:1013800070B50346002011E0012484400C4004B9EC
:101390000AE0DC6846000325B540AC43450002FA8C
:1013A00005F52C43DC6000BF441CE0B21028EBDBE9
:1013B00070BD41F48032C261C161C261C369C36959
:1013C00070470146002002E0421C90B249100129FA
:1013D000FADC704700B502461046FFF7A1FE012176
:1013E00081400E48006888430C49086000BD00B584
:1013F00002461046FFF794FE074931F8100000BD81
:1014000000B502461046FFF78BFE034931F8100085
:10141000C04380B200BD00006401002030380240AB
:101420000146FE4A914200D10020FD4A914200D17E
:101430000120FC4A914200D10220FB4A914200D196
:101440000420FA4A914200D10520F94A914200D184
:101450000620F84A914200D10720F74A914200D174
:101460000820704770471CB5044644B90820032182
:1014700001230022CDE90010F048FFF7D3FE032C32
:1014800003D10821EC48FFF7EDFF1CBD1CB5044655
:101490004CB90820032101230022CDE90010C90125
:1014A000E648FFF7BFFE012C09D1082003210123E4
:1014B0000022CDE90010C021E148FFF7B3FE032C64
:1014C00003D10821DB48FFF7CDFF1CBD1CB5044646
:1014D0004CB90820032101230022CDE90010C021CE
:1014E000D848FFF79FFE012C0AD1082003210123D1
:1014F0000022CDE900104FF48441D348FFF792FE5B
:10150000032C03D10821CA48FFF7ACFF1CBD1CB552
:1015100004469CB90820032101230022CDE90010D4
:101520004102C848FFF77EFE082003210123002264
:10153000CDE900100421C548FFF774FE032C03D148
:101540000821BA48FFF78EFF1CBD1CB5044644B9FC
:101550000820032101230022CDE90010BC48FFF739
:1015600061FE012C09D10820032101230022CDE9CD
:1015700000108902B348FFF755FE032C03D1082160
:10158000A948FFF76FFF1CBD1CB504464CB90720E6
:10159000032101230022CDE900108902AD48FFF7A5
:1015A00041FE012C09D10720032101230022CDE9AE
:1015B00000108902A348FFF735FE022C09D107204D
:1015C000032101230022CDE9001009029F48FFF703
:1015D00029FE032C03D107219248FFF743FF1CBDCE
:1015E0001CB504464CB90720032101230022CDE994
:1015F00000100C219648FFF715FE012C09D1072099
:10160000032101230022CDE9001060218F48FFF75C
:1016100009FE032C03D107218148FFF723FF1CBDDE
:101620001CB504464CB90720032101230022CDE953
:10163000001049028648FFF7F5FD012C09D107206B
:10164000032101230022CDE90010C0218148FFF7CA
:10165000E9FD032C03D107217048FFF703FF1CBDF0
:1016600001466E4A914200D17B486D4A914200D1B9
:101670007A486C4A914200D179486B4A914200D134
:1016800078486A4A914200D17748694A914200D12C
:101690007648684A914200D17548674A914200D124
:1016A000744870472DE9F04F87B004460D46164642
:1016B0001F46DDE911ABDDF840902046FFF7D0FF73
:1016C00080460396554884420BD16B48006840F031
:1016D0001000694908602846FFF7A2FF25208DF811
:1016E00008004F4884420DD16348001F006840F451
:1016F00000306149091F08602846FFF771FF262066
:101700008DF80800474884420DD15B48001F0068EF
:1017100040F480205849091F08602846FFF734FF2D
:1017200027208DF80800404884420DD15248001F00
:10173000006840F400205049091F08602846FFF760
:1017400004FF34208DF80800384884420DD14A48FF
:10175000001F006840F480104749091F08602846B0
:10176000FFF7D5FE35208DF80800314884420BD1B3
:101770004148006840F020003F4908602846FFF7D4
:10178000A5FE47208DF808002A4884420DD13A482A
:10179000001F006840F080403749091F0860284654
:1017A000FFF774FE52208DF80800234884420DD1C3
:1017B0003148001F006840F000402F49091F0860B1
:1017C0002846FFF750FE53208DF808002046FFF70B
:1017D0007DFA01208DF80B0006208DF809002046C7
:1017E000FFF71EFE8DF80A0002A8FEF700FDADF817
:1017F00018701FFA89F0ADF816001FFA8AF0ADF8DC
:1018000014001FFA8BF0ADF81200139880B2ADF8F7
:101810001000002088F80C0000BF2FE000100140ED
:101820000044004000480040004C00400050004090
:101830000014014000780040007C0040001002408D
:10184000001402400008024000180240000C024050
:101850000000024000040240100000202000002090
:1018600030000020400000205000002060000020D8
:1018700070000020800000204438024040F6FF70D5
:10188000019000BF0198411E01910028FAD100BFCC
:1018900003A92046FFF781FAA08940F02000A0812B
:1018A000012088F80C00A08940F40050A08107B006
:1018B000BDE8F08F7FB504460D461646F9488442D0
:1018C0000BD100200C23CDE90030029003463246B4
:1018D000294603902046FFF7E5FEF34884420BD1EA
:1018E00000200C23CDE90030029003463246294601
:1018F00003902046FFF7D6FEEC4884420BD100202F
:101900000C23CDE90030029003463246294603906D
:101910002046FFF7C7FEE64884420BD100200C2387
:10192000CDE9003002900346324629460390204616
:10193000FFF7B8FEDF4884420BD100200C23CDE92D
:101940000030029003463246294603902046FFF7B6
:10195000A9FED94884420BD100200C23CDE90030E8
:10196000029003463246294603902046FFF79AFE2E
:10197000D24884420BD100200C23CDE900300290E4
:1019800003463246294603902046FFF78BFECC489B
:1019900084420BD100200C23CDE900300290034695
:1019A0003246294603902046FFF77CFE7FBD2DE995
:1019B000FF4104460D4616461F46BA4884420BD1E5
:1019C00000200C23CDE9003002903B4632462946E8
:1019D00003902046FFF766FEB34884420BD10020F7
:1019E0000C23CDE9003002903B4632462946039055
:1019F0002046FFF757FEAD4884420BD100200C2350
:101A0000CDE9003002903B463246294603902046FD
:101A1000FFF748FEA64884420BD100200C23CDE9F5
:101A2000003002903B463246294603902046FFF79D
:101A300039FEA04884420BD100200C23CDE90030B0
:101A400002903B463246294603902046FFF72AFE85
:101A5000994884420BD100200C23CDE9003002903C
:101A60003B463246294603902046FFF71BFE93482B
:101A700084420BD100200C23CDE9003002903B467C
:101A80003246294603902046FFF70CFE8C488442DC
:101A90000BD100200C23CDE9003002903B463246AA
:101AA000294603902046FFF7FDFDBDE8FF8130B5D4
:101AB000044600252046FFF7D3FD0346D8880028BA
:101AC00003DC18895989884211D05889998888423D
:101AD00001D10020588159891868405C45B2588965
:101AE000401C5881D88810B1D888401ED880E8B2F0
:101AF00030BDF0B507460D463846FFF7B1FD034649
:101B0000DE885C890DE09888A04200D10024186826
:101B1000005DA84201D10120F0BD601C84B2701E9E
:101B200086B2002EEFDC0020F6E72DE9F04180467A
:101B30000E46174600244046FFF792FD0546E8880A
:101B400040B1697B4046FFF7D4FF30B9E888A988E7
:101B5000884202D00020BDE8F0810AE04046FFF74D
:101B6000A6FF3055305D697B884200D104E0601CDF
:101B700084B2781EA042F1DC00BF0021601C80B25C
:101B8000044631542046E6E710B504462046FFF7E8
:101B900067FD0346D88828B918895989884201D138
:101BA000012010BD0020FCE710B504462046FFF7D9
:101BB00057FD0346D8889988884201D1012010BD7D
:101BC0000020FCE710B504462046FFF749FD034618
:101BD0000020D8801881588110BD30B504460B46CE
:101BE0002046FFF73DFD05466B7330BD30B503461B
:101BF0000C461846FFF734FD0546287B00B930BD7A
:101C000012E000BF00BF188800F080000028FAD062
:101C100000BF14F8010B988000BF00BF188800F0C7
:101C200080000028FAD000BF20780028E9D100BF4A
:101C3000E5E7F0B503460D4616461846FFF710FDDA
:101C40000746387B00B9F0BD002413E000BF00BF99
:101C5000188800F080000028FAD000BF285D988026
:101C600000BF00BF188800F080000028FAD000BF35
:101C7000601C84B2B442E9DB00BFE4E7C288838819
:101C80009A420EDA028983889A4201D100220281A7
:101C900003890268D1540289521C0281C288521CF5
:101CA000C2807047001001400044004000480040DE
:101CB000004C0040005000400014014000780040FB
:101CC000007C004000B53648008800F0200028B1B4
:101CD00033488088C1B23348FFF7D0FF00BD00B55C
:101CE0003148008800F0200030B12F48001D0088E6
:101CF000C1B22E48FFF7C2FF00BD00B52C480088D6
:101D000000F0200030B12A48001D0088C1B22948E7
:101D1000FFF7B4FF00BD00B52748008800F02000A1
:101D200030B12548001D0088C1B22448FFF7A6FF46
:101D300000BD00B52248008800F0200028B12048EE
:101D40008088C1B21F48FFF799FF00BD00B51E484B
:101D5000008800F0200030B11B48001D0088C1B28F
:101D60001A48FFF78BFF00BD00B51948008800F046
:101D7000200030B11648001D0088C1B21548FFF799
:101D80007DFF00BD00B51448008800F0200030B190
:101D90001148001D0088C1B21048FFF76FFF00BD59
:101DA00000100140100000200044004020000020EE
:101DB0000048004030000020004C0040400000205F
:101DC000005000405000002000140140600000203E
:101DD0000078004070000020007C0040800000205F
:101DE0000146664A914200D16548664A914200D157
:101DF0006548664A914200D16548664A914200D1E1
:101E00006548664A914200D16548664A914200D1D0
:101E10006548664A914200D16548664A914200D1C0
:101E20006548704770B505462846FFF7D9FF044658
:101E300062496068884206D36148006840F48000C7
:101E40005F49086005E05E48006840F400105C49A6
:101E50000860606800F0D8F840205A49C860002047
:101E600048614FF4806088610020C8610862486260
:101E70008862C8620320086300204863886370BDDD
:101E80002DE9F04107460C4615463846FFF7A8FFF6
:101E90000646746035603846FFF7C4FFBDE8F08140
:101EA00010B504462046FFF79BFF406810BD70B593
:101EB00004462046FFF794FF05466868FEF732FDAA
:101EC00070BD2DE9F04105460E4617462846FFF73E
:101ED00087FF04466068406810B10020BDE8F081CB
:101EE00038492068086008460761281D4860084690
:101EF0008660606800F088F832496068FEF7B4FDDB
:101F00006068006840F0010061680860A88A40F0DD
:101F10008000A8820120E1E770B505460C46204606
:101F200000F054FC86B2324621462846FFF7C9FF2E
:101F300070BD70B504462046FFF752FF054668683D
:101F4000406808B1012070BD2088012121EAD0102D
:101F5000F9E770B504462046FFF742FF054668687A
:101F600000F07DF870BD70B504462046FFF738FFDD
:101F70000546686800F0A9F870BD00000010014037
:101F800090000020004400409800002000480040DD
:101F9000A0000020004C0040A8000020005000409D
:101FA000B000002000140140B8000020007800407C
:101FB000C0000020007C0040C800002010640240E7
:101FC000303802407C02002030B502460B46A64C59
:101FD000A24207D2A549A54C0834141B1825B4FB0E
:101FE000F5F006E0A04908399F4C141B1825B4FBF6
:101FF000F5F0042801D3091D001F03F03D049C4D9A
:102000002D5CAC400C6030BD10B504463D2120462F
:10201000FFF7DAFF10BD70B502460C460021002321
:102020000020914DAA4208D2904B083B8F4D0835B5
:10203000551B1826B5FBF6F106E08B4B103B8A4D7D
:10204000551B1826B5FBF6F1042901D31B1D091FEA
:102050001868874D6D5CE84000F03D0070BD38B5F4
:1020600004463D212046FFF7AFFF7F4884420DD252
:102070007E480830201A1821B0FBF1F501208DF8B8
:1020800001007C48405D8DF800000CE07648201A85
:102090001821B0FBF1F501208DF8010075480830DA
:1020A000405D8DF8000001208DF80300E8B28DF846
:1020B00002006846FEF79BF8206840F01E00206092
:1020C000606940F08000606138BD30B504463D2154
:1020D0002046FFF779FF6448844208D263480830FD
:1020E000201A1821B0FBF1F062490D5606E05E4857
:1020F000201A1821B0FBF1F05E490D5600BF05F023
:102100001F01012088405C496A0941F8220000BF94
:10211000206820F01E002060606900F0800060618F
:1021200030BD7047704770477047704770B50446C0
:102130003D212046FFF76FFF85B23D212046FFF786
:1021400043FF05F0200030B1206800F0100010B10E
:102150002046FFF7E6FF05F0100030B1206800F0E0
:10216000080010B12046FFF7DDFF05F0080030B190
:10217000206800F0040010B12046FFF7D4FF05F0FE
:10218000040030B1206800F0020010B12046FFF7D3
:10219000CBFF05F0010030B1606900F0800010B1A4
:1021A0002046FFF7C2FF70BD10B530480830FFF77A
:1021B000BDFF10BD10B52D482030FFF7B7FF10BD93
:1021C00010B52A483830FFF7B1FF10BD10B52748C9
:1021D0005030FFF7ABFF10BD10B524486830FFF753
:1021E000A5FF10BD10B521488030FFF79FFF10BD3F
:1021F00010B51E489830FFF799FF10BD10B51B4869
:10220000B030FFF793FF10BD10B51748FFF78EFFF2
:1022100010BD10B514481830FFF788FF10BD10B579
:1022200011483030FFF782FF10BD10B50E4848301E
:10223000FFF77CFF10BD10B50B486030FFF776FF4D
:1022400010BD10B508487830FFF770FF10BD10B50D
:1022500005489030FFF76AFF10BD10B50248A8305E
:10226000FFF764FF10BD00001064024008600240E8
:10227000302900083429000880E100E010B58B48BF
:102280000068401C894908608948006820B1884876
:102290000068401E86490860AFF30080002438E0E3
:1022A000844850F8240090B3824850F82400007B02
:1022B00068B3804850F82400806840B37D4850F8E7
:1022C00024008068401E7B4951F8241088607948BA
:1022D00050F824008068D0B9764A52F8242050691A
:1022E000744A52F8242011698847724850F8240033
:1022F0000168704850F8240081606E4850F824004E
:10230000406820B900216B4850F824000173601C1C
:10231000C4B26848001F0078A042C1DC10BD30B5CF
:10232000654800684FF47A72B0FBF2F1481EB0F1D4
:10233000807F01D301201BE0481E4FF0E022506156
:1023400050170F22002807DA13071D0E5B4B00F011
:102350000F04241F1D5503E013071C0E584B1C547B
:1023600000BF00204FF0E0229061072010610020A4
:1023700008B100BFFEE7504800685249B0FBF1F0D9
:102380005149086001205149087030BD4F4800781C
:1023900000B970474FF0E020006940F002004FF0B4
:1023A000E021086100BFF4E74FF0E020006920F071
:1023B00002004FF0E021086170472DE9F047054623
:1023C0000E4617469846DDF820903A48001F0078E0
:1023D000052802DB0020BDE8F087182000F072FA23
:1023E00004460CB90020F6E725602068A06066600E
:1023F0002773C4F81080C4F814902E48001F017889
:102400000078401C2B4A121F1070101D40F821400C
:102410002046E0E72DE9F0410646002407E0254884
:1024200050F82400B04200D106E0601CC4B221483C
:10243000001F0078A042F2DC00BF1E48001F007899
:10244000A04201D1BDE8F0811A4850F8247000BFC5
:10245000EFF31080054672B607E01648611C50F88D
:10246000211040F82410601CC4B21248001F0078EC
:10247000401EA042F1DC0F48001F0078401E0D49AD
:10248000091F087005B962B6384600F0F3F900BFBD
:10249000D8E700210173704701210173704701687B
:1024A000816070474160704701607047D400002030
:1024B000D8000020BC0200204801002018ED00E0F8
:1024C00000E400E0C0C62D00DC000020E000002099
:1024D00000F0E2F84FF4E13200211848FFF7EAF982
:1024E00017A11648FFF782FB1448FFF79BFC1C4816
:1024F00000F06CF984B2224619491048FFF7E1FC5C
:1025000000BF0E48FFF715FD0028FAD114E0642241
:1025100013490A48FFF709FB70B1114800F056F95A
:1025200084B222460E490548FFF7CBFC00BF0348A2
:10253000FFF7FFFC0028FAD1E9E70000004800405F
:1025400048656C6C6F207669612055534152543256
:1025500020776974686F757420444D410A0000004B
:10256000E1000020704700BFFEE700BFFEE700BFAC
:10257000FEE700BFFEE7704770477047704710B531
:10258000FFF77CFE10BD00000CB50020019000900C
:102590008348006840F480308149086000BF80486B
:1025A000006800F4003000900198401C01900098F1
:1025B00018B90198B0F5A04FF1D17948006800F43E
:1025C000003010B10120009001E000200090009840
:1025D000012860D172484030006840F08050704956
:1025E000403108606F48006840F440406D49086021
:1025F0006B48083000686A4908310860084600687E
:1026000040F4004008600846006840F4A0500860AC
:102610006548091F0860081F006840F08070091FA6
:10262000086000BF5E48006800F000700028F9D024
:102630005C48006840F480305A49086000BF59483F
:10264000406800F480300028F9D05648006840F413
:1026500000305449086000BF5248406800F4003020
:102660000028F9D040F20570504908604C48083005
:10267000006820F003004A490831086008460068F5
:1026800040F00200086000BF45480830006800F0D4
:102690000C000828F8D10CBD10B54548006840F47E
:1026A0007000434908603E48006840F001003C4922
:1026B000086000203A4908310860394800683D49FF
:1026C0000840374908603C48091D0860081F006839
:1026D00020F48020091F0860002031490C31086077
:1026E000FFF752FF4FF0006031498039086010BD9C
:1026F00070B500200022022300240221284D083555
:102700002D6805F00C0020B1042806D0082834D12B
:1027100007E02A4D2A4E356033E02A4D284E3560B9
:102720002FE01F4D2D1D2D68C5F380541C4D2D1D10
:102730002D6805F03F0154B1224DB5FBF1F5184E5F
:10274000361D3668C6F3881605FB06F209E01B4DF8
:10275000B5FBF1F5124E361D3668C6F3881605FB3B
:1027600006F20F4D2D1D2D68C5F301456D1C6B0044
:10277000B2FBF3F5124E356003E0104D104E35609C
:1027800000BF00BF064D08352D68C5F303150E4E7A
:10279000705D0B4D2D68C540094E356070BD000061
:1027A0000038024000700040085A4007003C0240D8
:1027B00088ED00E0FFFFF6FE103000240024F40056
:1027C0004801002000127A004C010020421C10F841
:1027D000011B0029FBD1801A70470000064C074DF1
:1027E00006E0E06840F0010394E8070098471034E1
:1027F000AC42F6D3FDF7DEFC44290008642900084A
:1028000070B58C1810F8015B15F0070301D110F8B2
:10281000013B2A1106D110F8012B03E010F8016BDF
:1028200001F8016B5B1EF9D12B0705D40023521E62
:102830000DD401F8013BFAE710F8013BCB1A921CCA
:1028400003E013F8015B01F8015B521EF9D5A142C8
:10285000D8D3002070BD02E008C8121F08C1002AAA
:10286000FAD170477047002001E001C1121F002A11
:10287000FBD1704710B5002821D0114B0022001F5A
:10288000196803E0814203D80A4649680029F9D152
:1028900052B11368841A9C4204D100681844106035
:1028A000104602E0506000E0186039B102680B1A6F
:1028B000934203D10B681A4402604968416010BD1D
:1028C0005C010020F0B50B30154D20F0070100240D
:1028D000144A0FE003688B420BD38B4205D95E1A72
:1028E00043184768C3E9006700E04368136002C00B
:1028F00004E0021D10680028ECD12046002802D117
:10290000286808B10020F0BD064A07481060074A51
:10291000121A22F00702C0E9002401202860D7E73C
:10292000600100205C010020D4020020D0040020BF
:10293000000610160B0C0D0E0F10112F38393A3BF4
:102940003C44454664290008000000206401000062
:1029500000280008DC290008640100206C07000042
:1029600066280008412D0102030404170607080920
:102970007A01832020220ADA9A10DABA10DADA1001
:10298000DAFA10CB1A0210DA3A10DA5A10312E089D
:10299000B8640240084BA060085A58085A70084AA8
:1029A000B8085A0A205B0A28084A1008E1481D485E
:1029B000656C6C6F2076696120555341525432200A
:1029C0007769746820545820444D417001467B95C6
:0C29D000BA4E8009010203040607080942
:04000005080001AD41
:00000001FF
