:020000040800F2
:10000000889B0020C1010008BD370008BF370008E9
:10001000C3370008C5370008C737000800000000D4
:10002000000000000000000000000000C9370008C8
:10003000CB37000800000000CD370008D13700089A
:10004000DB010008DB010008DB0100088F2D000840
:10005000DB010008DB010008DB010008DB01000810
:10006000DB010008DB010008DB010008DB01000800
:10007000DB010008DB010008DB010008DB010008F0
:10008000DB010008DB010008DB010008DB010008E0
:10009000DB010008DB010008DB010008DB010008D0
:1000A000DB010008DB010008DB010008DB010008C0
:1000B000DB010008DB010008DB010008DB010008B0
:1000C000DB010008DB010008DB010008DB010008A0
:1000D000DB0100088320000895200008AD200008FF
:1000E000DB010008B12D0008DB010008DB0100087E
:1000F000DB010008DB010008DB010008DB01000870
:10010000DB010008DB010008DB010008DB0100085F
:10011000C5200008DD200008DB010008DB01000825
:10012000DB010008DB010008DB010008DB0100083F
:10013000DB010008DB010008DB010008DB0100082F
:10014000DB010008DB010008DB010008DB0100081F
:10015000DB010008DB010008DB010008F1200008DA
:10016000DB010008DB010008DB010008DB010008FF
:10017000DB010008DB010008DB010008DB010008EF
:10018000DB010008DB01000809210008212100082B
:10019000DB010008DB010008DB010008DB010008CF
:1001A000DB010008DB010008DB010008DFF80CD0F0
:1001B0000BF0AAFC0048004751310008889B002042
:1001C0000648804706480047FEE7FEE7FEE7FEE7F1
:1001D000FEE7FEE7FEE7FEE7FEE7FEE797380008EA
:1001E000AD0100082849084328490860704730B528
:1001F0000F23C27801780125FAB1244A126801F16F
:10020000E02102F4E062C2F5E062C2F30722C2F12B
:100210000404D3404278A24084781C401443220155
:1002200081F80024007800F01F018D404009800013
:1002300000F1E020C0F8005130BD01F01F00854002
:100240004809800000F1E020C0F8805130BD104A1C
:10025000114001430D48001F016070470B4A121DF9
:100260000029116801D0014300E08143116070470B
:100270004FF0E0210428086903D020F00400086151
:10028000704740F00400FAE70000FA050CED00E0CA
:1002900080FFFF1FF948016841F001010160F74A42
:1002A0000021083211600268F54B1A400260031DFC
:1002B000F44A1A60F14BF44A84331A60F14A103A56
:1002C0001B1D1A60026822F480220260EB480C3089
:1002D0000160181D01607047E8490022891C0A70FE
:1002E0000870704702460020510901290CD00229EC
:1002F0000CD0E2497431096802F01F0201239340D7
:100300000B4200D001207047DC49F4E7DB49703133
:10031000F1E718B500204FF4A04400903120FFF71A
:10032000E1FF0099491C0091A14201D00028F5D0BD
:100330003120FFF7D7FF002800D0012018BDCF4A99
:10034000116821F0F80141EAC00010607047CF4900
:1003500008607047C949002270310A700A7001288C
:1003600002D0042801D1052008707047C8490860F0
:10037000704741EA82115A0810B5C64B029C03EB44
:1003800002421143014341EA0460BC49091D08606F
:1003900010BDBE4908667047800140EA0160B74958
:1003A00040EA0270843108607047B8498866704737
:1003B000800140EA0160B14940EA0270883108607A
:1003C0007047B24908677047B049C8647047AB4B83
:1003D00008331A68084322F0EC6210431860704733
:1003E000A64B08331A68084322F07842104318607D
:1003F0007047A24A0832116821F0030101431160DD
:1004000070479E480830006800F00C0070479B4A17
:100410000832116821F0F001014311607047974ADA
:100420000832116821F4E051014311607047934A8A
:100430000832116821F4604141EAC0001060704741
:1004400070B58E4B08331968934C11F00C0104D031
:100450006610042903D0082903D004601BE006605D
:1004600019E0864A121D1168C1F38055116801F028
:100470003F0115B1B6FBF1F101E0B4FBF1F11468F5
:100480001268C4F388146143C2F30142521C520043
:10049000B1FBF2F1016019680F2202EA11117F4AE3
:1004A000545C0168E14041601C68072505EA94241A
:1004B000145D21FA04F484601B6805EA5333D25CAE
:1004C000D140C16070BDC0F30121032908D16B4B3D
:1004D00008331968724A21F4F81102400A431A607D
:1004E000664970310A68C0F30B0002430A60704726
:1004F000674944390860704765494039086070476A
:100500006249C1F85C0170475C4A8C32116821F481
:100510004011014311607047584A8C32116821F430
:100520004001014311607047544A8C321168401EEB
:1005300021F01F01014311607047504A8C3211684D
:100540006FF0FF0321F4F85103EB00200843106023
:1005500070474A4A8C32116821F4403101431160DE
:1005600070475049C1F8E0017047444A30320029D1
:10057000116801D0014300E08143116070473F4A98
:1005800034320029116801D0014300E08143116039
:1005900070473A4A38320029116801D0014300E01F
:1005A000814311607047354A40320029116801D0FB
:1005B000014300E0814311607047304A4432002912
:1005C000116801D0014300E08143116070472B4A5C
:1005D00010320029116801D0014300E0814311600D
:1005E0007047264A14320029116801D0014300E007
:1005F000814311607047214A18320029116801D0E7
:10060000014300E08143116070471C4A20320029F9
:10061000116801D0014300E0814311607047174A1F
:1006200024320029116801D0014300E081431160A8
:100630007047124A50320029116801D0014300E08E
:100640008143116070470D4A54320029116801D06E
:10065000014300E0814311607047084A5832002985
:10066000116801D0014300E0814311607047034AE3
:1006700060320029116817D0014316E000380240AB
:10068000FFFFF6EA1030002400300020000047424F
:10069000800E47420000FFFF0024F400000000200D
:1006A000FFFCFF0F00104742814311607047194A59
:1006B0000029116801D0014300E0814311607047B7
:1006C00014490C310128086803D020F008000860A4
:1006D000704740F00800FAE70E4A573A00291178AF
:1006E00001D0014300E08143117070470948103088
:1006F000016841F08071016070470146054A0020A1
:10070000583A12680A4200D0012070470149563910
:10071000087070476438024010B501218C032046F0
:10072000FFF77DFF2046BDE810400021FFF777BFAF
:1007300014490860704714490862704710B58A0769
:1007400021F003041149120F21440F23D1F8084866
:1007500093409C43C1F80848D1F8083890400343BF
:10076000C1F8083810BD0849C1F8DC0070470849D5
:10077000086070470349002020310968C90500D589
:10078000012070470038014000002742003001403E
:1007900000042742354900200860091D0860091D32
:1007A0000860091D086031493148143108607047FC
:1007B00030B52E4A8379016853B313688B431360B5
:1007C000111D0B680468A3430B60017911440B6889
:1007D000046823430B60254B083319680468A14360
:1007E00019601C1D21680568A94321604179102901
:1007F00005D011440A68006802430A6030BD1968D8
:10080000026811431960216800680143216030BD0E
:100810000079104402688A43026030BD0021016003
:1008200001710C22427181717047104910310A68C0
:1008300002430A60704701460C4A002014321268D5
:100840000A4200D0012070470849143108607047FF
:100850000146064A0020143212680A4200D00120E4
:10086000704702491431086070470000003C0140A5
:10087000FFFF7F00CD4910B5884206D1012110202D
:10088000FFF7CDFE0021102020E0C949884202D1A7
:1008900001214C0429E0C749884202D101218C047E
:1008A00023E0C549884202D10121CC041DE0C3499F
:1008B000884202D101210C0517E0C149884209D1C3
:1008C00001212020FFF7ABFE00212020BDE81040D1
:1008D000FFF7A5BEBB49884202D101218C0704E085
:1008E000B94988420AD1012144052046FFF78DFE0F
:1008F0002046BDE810400021FFF787BE10BD7FB540
:100900000446008A0D46C98820F4405001432182E4
:10091000A08941F20C618843A9882A8911436A8918
:1009200002431143A181A08A20F44071A8890843A1
:10093000A0826846FFF784FD9C48844202D0A0480C
:10094000844201D1039800E00298A189090400EBD8
:10095000C00101EB0010296801D5490000E08900C1
:10096000B0FBF1F06422B0FBF2F109010B096FF06A
:1009700018056B4300EB8300A3891D044FF032037D
:1009800006D503EBC000B0FBF2F000F0070005E075
:1009900003EB0010B0FBF2F000F00F0008432081E1
:1009A0007FBD4FF41651016000218180C18001811B
:1009B0000C2242818181704710B5028A4C8822F452
:1009C00070630A8822438C88C9880C4322431A43E7
:1009D000028210BD0021018041808180C18070476A
:1009E0000029818902D041F4005101E021F4005135
:1009F00081817047028B02F47F420283028B0A439B
:100A0000028370470029818902D041F4004101E04E
:100A1000C1F30E01818170470029818A02D041F41F
:100A2000006101E021F4006181827047C1F3080197
:100A3000818070478088C0F308007047028A22F0E6
:100A40000F020282028A0A430282704700298189CA
:100A500002D041F0020101E021F0020181817047E2
:100A6000828922F40062828182890A4382817047EE
:100A7000028A22F020020282028A0A43028270471E
:100A80000029018A02D041F4804101E021F4804133
:100A900001827047818941F00101818170470029FD
:100AA000818A02D041F0080101E021F00801818231
:100AB0007047028BD2B20283028B42EA012101838A
:100AC00070470029818A02D041F0200101E021F025
:100AD0002001818270470029818A02D041F01001F3
:100AE00001E021F0100181827047828A22F0040225
:100AF0008282828A0A43828270470029818A02D0D8
:100B000041F0020101E021F0020181827047002AD8
:100B1000828A01D00A4300E08A438282704710B57E
:100B2000C1F3421301F01F040121A140012B07D0A2
:100B3000022B07D01430002A026805D00A4304E0D3
:100B40000C30F8E71030F6E78A43026010BD024629
:100B5000002012880A4200D001207047C94301805A
:100B6000704770B501F01F0501260024C1F3421340
:100B700006FA05F2012B0FD0022B0FD0838A4FEA21
:100B800011210088134206FA01F600EA060001D09E
:100B900000B10124204670BD8389F0E7038AEEE7A7
:100BA0000A0A01219140C9430180704700100140A9
:100BB0000044004000480040004C0040005000400D
:100BC0000014014000780040007C004018B500206F
:100BD000FA4B0090CA20186053201860F749183962
:100BE000086820F0A00008604FF400340868009AFC
:100BF00000F02000521C0092A24201D00028F5D043
:100C00000868800601D5012000E00020FF2119605E
:100C100018BD08B5E9490020183900900868400659
:100C200012D44FF0FF3008608B130868009A00F070
:100C30004000521C00929A4201D00028F5D008686A
:100C4000400601D4002008BD012008BD78B500246D
:100C5000DA4ECA2000942546306053203060FFF7FA
:100C6000D8FFE0B3D54824380460D44942F20110DB
:100C7000203908600B1D186800F0070018608D13FC
:100C80001A1D1068009900F00400491C0091A94247
:100C900001D00028F5D01068400729D518681C60DD
:100CA000C6494FF6FF7010390860091FC448086034
:100CB000C2480C380460001D0460001D0460BF4879
:100CC00008300460BD4818300460BC48203004601F
:100CD000001D04601460B9481C30046000E003E0AB
:100CE000FFF774FF20B10125FF203060284678BD52
:100CF0000025F9E7B1481838016821F0800101604A
:100D0000704770B5AD4E04460025CA2030605320B0
:100D10003060FFF77EFFA8B1A8481C38016821F0B9
:100D2000400101600168226811430160A348A16885
:100D3000143801600168A28841EA02410160FFF7AE
:100D4000D9FF0125FF203060284670BD00210160D9
:100D50007F214160FF2181607047984908B1FF20E1
:100D600002E0CA20086053200860704770B5934EB7
:100D700005460024CA20306053203060FFF749FF49
:100D800060B18E481C38016815B141F0100101E0D6
:100D900021F010010160FFF7ADFF0124FF2030605A
:100DA000204670BD854ACA211160532111608349D4
:100DB0001C390028086802D040F0200001E000F053
:100DC000DF000860FF20106070472DE9F0410C46FD
:100DD00000267C4F01002078396832464FEA416195
:100DE00004D000292FDA00F008FC2DE0002900DBF8
:100DF000E27000F0F6FB0504607800F0F2FB45EAD3
:100E00000025A07800F0EDFB0543E07845EA0045B9
:100E10006A4CCA20206053202060FFF7FAFE68B1B8
:100E200069480540674808380560FFF763FF386880
:100E3000800602D4FFF7CAFE00B10126FF20206021
:100E40003046BDE8F081E270A078217840EA0145A3
:100E50006078E178000240EA01400543D8E70021CC
:100E6000C1700170417081707047020010B5574821
:100E70000C460168544801EA0001C1F305402070A6
:100E8000C1F30623637001F07F03A3704FF04003AA
:100E900003EA1141E1700AD100F0AFFB20706078E5
:100EA00000F0ABFB6070A07800F0A7FBA07010BD55
:100EB0004248001D00684349091F0968704770B522
:100EC0000C460026010060780FD000F096FBA07859
:100ED00000F093FBA078E17840EA01456078217842
:100EE000000240EA4130054315E0C10603D520F079
:100EF00010000A306070E07800F073FB0504607841
:100F000000F06FFB45EA0025A07800F06AFB05437E
:100F1000207845EA4035294CCA20206053202060C3
:100F2000FFF777FE70B12A4805402648001F05608C
:100F3000FFF7E0FE23480068800602D4FFF746FE74
:100F400000B10126FF202060304670BD01210170F4
:100F5000817041700021C1707047020010B51D48BA
:100F60000C4601681A4801EA00014FEA1140E0709E
:100F7000C1F30423637001F03F03A370C1F3423156
:100F800021700AD100F039FBE070607800F035FB89
:100F90006070A07800F031FBA07010BD70B51446F1
:100FA0000D46084A0021002810684FEA406013D01F
:100FB00000282ADA207800F020FB27E024280040CF
:100FC000FF007F00082800407F7F7F00002800404E
:100FD0003FFFFF0004280040002800DBE17020787C
:100FE00000F0FFFA0604607800F0FBFA46EA0026FB
:100FF000A07800F0F6FA0643E07846EA0046207B47
:1010000000F0EFFA46EA006010E0E170207B00F0AB
:10101000F4FAA0782178E27840EA01406178090288
:1010200041EA02410843217B40EA0160A16808438C
:1010300061680843F849CA220A6053220A60B5F57C
:10104000807F04D00A1F1060FF20086070BDF24A44
:10105000083AF8E70021C1700170417081700122E7
:10106000816002734160704710B514460246B1F5C5
:10107000807F2AD0E848001F0168C1F30540207036
:10108000C1F30623637001F07F03A370402303EADA
:101090001143E370C1F30563237301F0804301F052
:1010A0008031C4E90113002A0ED100F0A6FA2070A5
:1010B000607800F0A2FA6070A07800F09EFAA0704C
:1010C000207B00F09AFA207310BDD3480838D3E78C
:1010D00038B50022D04C0092CA22226053222260EE
:1010E000CD4A1C3A0029116802D00143116012E078
:1010F00081431160C84A183A95131168009B01EAB0
:1011000010215B1C0093AB4201D00029F5D011687F
:1011100011EA102000D00120FF21216038BD10B558
:10112000BD4BCA241C6053241C601143B0F5807F62
:1011300005D0B94824300160FF20186010BDB648C2
:101140002030F8E7B0F5807F05D0B3482430006840
:10115000C0F30E007047B0482030F8E7AE4ACA210D
:10116000116053211160AC491C390B6823F007034F
:101170000B600B6803430B60FF2010607047A649AB
:10118000CA220A6053220A60A34A103A1060FF2064
:1011900008607047A0481038006880B2704718B5E2
:1011A00000219D4B0091CA211960532119609A4971
:1011B0001C390028086803D040F48060086014E0FF
:1011C00020F480600860944918398C130868009AEC
:1011D00000F00400521C0092A24201D00028F5D079
:1011E0000868400701D4002000E00120FF211960B9
:1011F00018BD894B10B5CA221A6053221A60864A5C
:101200001C3A146824F480241460146808430443CE
:101210001460FF20186010BD7F481C38006800F47F
:10122000802070477C4B10B5CA221A6053221A6086
:10123000794A1C3A146824F4E004146014680843E2
:1012400004431460FF20186010BDF0B5724D0646CF
:101250000024CA200F46286053202860FFF7D9FCDD
:1012600030B16D483E430C380660FFF743FD012462
:10127000FF2028602046F0BD70B5674E054600246B
:10128000CA20306053203060FFF7C3FC60B1624871
:101290001C38016815B141F0800101E021F08001A6
:1012A0000160FFF727FD0124FF203060204670BD5C
:1012B000594ACA2111605321116057491C3900282D
:1012C000086802D040F4000001E020F4000008604B
:1012D000FF2010607047504ACA21116053211160ED
:1012E0004D491C390B6823F400230B600B68034342
:1012F0000B60FF2010607047F0B5474D0023CA24F3
:101300002C6053242C60444C183C2668F60308D506
:101310004FF400362768FF0303D5B34201D05B1CAE
:10132000F8E72368DB0306D408433B491043183130
:101330000860012000E00020FF212960F0BD364B4D
:1013400010B51C3B1A6840F60804A24342EA0002AA
:1013500009B142F400623048CA21016053210160A2
:101360001A60FF21016010BD70B50D462A49144670
:101370000C310968294A1140274A103212684FF689
:101380003F731A40C1F305432B70C1F306236B7002
:1013900001F07F03AB70402303EA1141E9700021A3
:1013A000E170C2F30421617002F03F01A170C2F349
:1013B00042312170002817D1287800F01EF92870DA
:1013C000687800F01AF96870A87800F016F9A8702B
:1013D000607800F012F96070A07800F00EF9A0704B
:1013E000207800F00AF9207070BD0B4814300068B6
:1013F0007047094A1C320029116803D041EA4000B5
:101400001060704721EA4000FAE7034A1C320029C5
:10141000116805D0014304E0242800407F7F7F004D
:1014200081431160704779490A6822F4C0520A600A
:101430000A6802430A60704774490A6822F4E0624D
:101440000A600A6802430A60704770490A6822F419
:10145000C0420A600A6802430A6070476B4900286C
:10146000086802D040F0800001E020F080000860B1
:10147000704766490028086802D020F4004001E067
:1014800040F4004008607047604A08B5103202EB33
:1014900080000090016008BD5C4908B5103101EB87
:1014A00080000090006808BD58490A6822F4803224
:1014B0000A600A6802430A60704754490A6822F4C5
:1014C00000320A600A6802430A6070474F490A689E
:1014D00022F480220A600A6802430A60704770B5ED
:1014E0004A4C0022CA231C3C236053232360474BF1
:1014F000343B1D682D0707D59E141D682D0703D5A5
:10150000B24201D0521CF8E71A6812070DD43F4AC4
:10151000383A1268D20608D401433C4814380160B6
:10152000FFF754FB10B1012000E00020FF212160F3
:1015300070BD30B5354DCA221C3D2A6053222A6049
:10154000324C20F00402383C0029304B216800F076
:10155000040004D0114321601968014303E0914362
:101560002160196881431960FF20286030BD024660
:101570002649002034390968254B1940114200D012
:101580000120704780B240F08000C1431F483438CA
:10159000026802F080021143016070471B4A00217B
:1015A000126802F00403194A383A126803EAD03389
:1015B00002401A43174B1B6803EA101003D00004C3
:1015C000000C00D0012108467047C0F30F1040F016
:1015D0008000C1430F48026802F08002114301609D
:1015E0007047002103E0491C0A38C9B2C0B20A287A
:1015F000F9D2090740EA11607047010901EB810146
:1016000000F00F0000EB4100C0B2704740280040DE
:101610007F3F01000C28004010B501210C07204637
:10162000FEF7F3FF2046BDE810400021FEF7EDBFB6
:10163000444908627047444A116821F0E0010143BF
:10164000116070473F49086170473E49C1F8A000EA
:1016500070473C49C1F8A40070473B4A116821F427
:10166000404101431160704736490864704735496D
:101670004864704734490028086802D040F440208C
:1016800001E020F44020086070472E4900B101209D
:10169000C86270472B4900B1012088627047294910
:1016A00048627047284B10B51A6840F60344A243BD
:1016B00002431A602548026842F0040202600129D0
:1016C00005D020BF016821F00401016010BD30BFCA
:1016D000F8E71D4B10B51A6840F60344A2430243D5
:1016E0001A601A48026842F004020260012905D01B
:1016F00020BF016821F00401016010BD30BFF8E790
:101700001148016841F0020101601048016841F090
:101710000401016030BF70470B4A01460020526847
:101720000A4200D0012070470749B0F5402F04D08D
:101730000A6842EA800008607047486840F4402028
:101740004860704700000E420070004010ED00E05D
:1017500070B55A484168491C4160816811B181687F
:10176000491E816001F040FD0024554E18E006EB53
:101770008405686890B1017B81B1826872B1521EA4
:10178000826069680AD148690969884768680168A0
:1017900081606868416809B900210173641CE4B282
:1017A0003078A042E3D870BD464801684FF47A70A3
:1017B000B1FBF0F0401EB0F1807F12D24FF0E0227A
:1017C0005061414BF02083F8140D002090610720F8
:1017D00010613E48B1FBF0F13848C1600121017051
:1017E0007047FEE735480078002805D04FF0E0202C
:1017F000016941F00201016170474FF0E020016989
:1018000021F00201016170472DE9F0472C4C05469B
:10181000DDF8209020781E4617468846052802D31A
:101820000020BDE8F08718200AF04AFF0028F8D011
:101830000560C0E901850773C0E90469217804EBFC
:10184000810148602178491C2170EAE71C4B30B4C3
:1018500000211A7806E003EB81046468844203D017
:10186000491CC9B28A42F6D88A4218D003EB8100DB
:101870004068EFF3108472B605E003EB8102491C67
:101880009568C9B255601A78521E8A42F5DC1978FB
:10189000491E197004B962B630BC0AF0E9BE30BC0A
:1018A000704700210173704701210173704701687F
:1018B00081607047416070470160704710000020F0
:1018C0004C030020380100200FE000E0C0C62D00CE
:1018D0001CB503210020CDE9000103464C03012281
:1018E0002146194801F036FB17481A3004801CBD08
:1018F0001CB500210220CDE900010B460A4601215A
:10190000124801F027FB1CBD10480069C1071048B0
:1019100005D0017829B901210170084670470021DE
:1019200001700020704709480069C107084803D0CA
:10193000012101700020704701780029FAD00021B0
:1019400001700120704700000018024000000240B2
:1019500020000020FE4A0146904200D10020FD4AAE
:10196000914200D10120FC4A914200D10220FB4A61
:10197000914200D10420FA4A914200D10520F94A4F
:10198000914200D10620F84A914200D10720F74A3F
:10199000914200D10820704770471CB530B1032830
:1019A00003D10821F148FFF7F7FF1CBD08210320F0
:1019B000CDE90001014601230022ED4801F0DBFAE8
:1019C0001CBD1CB50822032140B101280ED00328FC
:1019D00003D10821E448FFF7DFFF1CBDCDE9001269
:1019E000012300224FF4C071E14805E0CDE9001267
:1019F00001230022C021DF4801F0BDFA1CBD1CB547
:101A00000822032140B101280DD0032803D1082169
:101A1000D448FFF7C1FF1CBDCDE90012012300220D
:101A2000C021D54806E0CDE90012012300224FF481
:101A30008441D24801F09FFA1CBD7CB530B1032827
:101A400003D10821C648FFF7A7FF7CBD0825032462
:101A5000012300221903C848CDE9004501F08BFAA3
:101A6000012300220421C648CDE9004501F083FA94
:101A70007CBD1CB50822032140B101280DD00328EC
:101A800003D10821B548FFF787FF1CBDCDE900123F
:101A9000012300220321BB4806E0CDE90012012307
:101AA00000224FF44061B44801F065FA1CBD1CB53A
:101AB00007220323990250B101280ED0022812D028
:101AC000032803D10721A448FFF766FF1CBDCDE919
:101AD000003201230022AC480CE0CDE900320123A2
:101AE0000022A54806E0CDE90032012300224FF490
:101AF0004071A34801F03FFA1CBD1CB50722032129
:101B000040B101280DD0032803D107219148FFF7E8
:101B100043FF1CBDCDE90012012300220C2199488E
:101B200005E0CDE90012012300226021944801F074
:101B300022FA1CBD1CB50722032140B101280ED09A
:101B4000032803D107218248FFF726FF1CBDCDE9FA
:101B50000012012300224FF4C0618A4805E0CDE95C
:101B6000001201230022C021874801F004FA1CBDA5
:101B7000774A0146904200D18448764A914201D189
:101B800082481030744A914201D180482030734A13
:101B9000914201D17D483030714A914201D17B4858
:101BA0004030704A914201D1784850306E4A91429B
:101BB00001D1764860306D4A914201D1734870304E
:101BC00070472DE9FF4F87B09846DDE9149B134617
:101BD0000446DDF85CA0FFF7CBFF05465C486C4F80
:101BE0000193844209D1386840F0100038600898A9
:101BF000FFF7A0FF25208DF80000654E5548361FE1
:101C0000844209D1306840F4003030600898FFF712
:101C100074FF26208DF800004F48844209D13068B7
:101C200040F4802030600898FFF741FF27208DF8AE
:101C300000004A48844209D1306840F400203060F6
:101C40000898FFF716FF34208DF8000044488442BE
:101C500009D1306840F4801030600898FFF7EDFE3D
:101C600035208DF800003F48844209D1386840F0A3
:101C7000200038600898FFF7C2FE47208DF800006A
:101C80003948844209D1306840F08040306008987B
:101C9000FFF797FE52208DF800003448844209D1A6
:101CA000306840F0004030600898FFF776FE53201F
:101CB0008DF800002046FEF7DDFD01268DF803605B
:101CC00006208DF801002046FFF744FE8DF8020043
:101CD0006846FEF78CFA1698ADF80A00ADF80E903B
:101CE000ADF81080ADF80CB0ADF808A00020287356
:101CF00040F6FF700590411E059101D30846FAE7B2
:101D000001A92046FEF7FBFDA08940F02000A0813C
:101D10002E73A08940F40050A0810BB0BDE8F08F75
:101D20002DE9FF4104460A4800250C26174688463F
:101D3000844206D1CDE90065029500230395FFF7A3
:101D400040FF044884422BD1CDE90065029521E093
:101D5000001001400044004000480040004C00409A
:101D6000005000400014014000780040007C00401A
:101D70000010024000140240000802400018024017
:101D8000000C024000000240000402402400002039
:101D90004438024000233A4641460395FFF711FFBD
:101DA000E548844208D1CDE90065029500233A4612
:101DB00041460395FFF705FFE048844208D1CDE98D
:101DC0000065029500233A4641460395FFF7F9FE68
:101DD000DB48844208D1CDE90065029500233A46EC
:101DE00041460395FFF7EDFED648844208D1CDE980
:101DF0000065029500233A4641460395FFF7E1FE50
:101E0000D148844208D1CDE90065029500233A46C5
:101E100041460395FFF7D5FECC48844208D1CDE971
:101E20000065029500233A4641460395FFF7C9FE37
:101E3000BDE8FF812DE9FF470446C54800250C2673
:101E40001F4690468946844205D1CDE9006502953A
:101E50000395FFF7B6FEBF48844208D1CDE900657F
:101E600002953B46424649460395FFF7AAFEB24813
:101E7000844208D1CDE9006502953B464246494679
:101E80000395FFF79EFEAD48844208D1CDE9006579
:101E900002953B46424649460395FFF792FEA84805
:101EA000844208D1CDE9006502953B464246494649
:101EB0000395FFF786FEA348844208D1CDE900656B
:101EC00002953B46424649460395FFF77AFE9E48F7
:101ED000844208D1CDE9006502953B464246494619
:101EE0000395FFF76EFE9948844208D1CDE900655D
:101EF00002953B46424649460395FFF762FEBDE820
:101F0000FF8710B50023FFF733FEC18819B9028996
:101F10004489A2420DD0428983889A4201D100228D
:101F20004281036892B29B56521C428109B1491EFC
:101F3000C180D8B210BD10B50C46FFF719FEC3889A
:101F400042890DE08188914200D100220168895CBC
:101F5000A14201D1012010BD521C5B1E92B29BB266
:101F6000002BEFD1002010BDF0B516460F46844679
:101F70000024FFF7FDFD0546C08840B1697B60463F
:101F8000FFF7D9FF78B9E888A98888420BD00020EC
:101F9000F0BD6046FFF7B5FF3855697B884205D034
:101FA000641CA4B200E0761EB442F2DB0021641C83
:101FB000A0B23954F0BD00B5FFF7DAFDC18829B9E8
:101FC00001894089814201D1012000BD002000BD6E
:101FD00000B5FFF7CDFDC1888088814201D1012085
:101FE00000BD002000BD00B5FFF7C2FD0021C1808B
:101FF0000181418100BD00B50B46FFF7B9FD437378
:1020000000BD10B50C460346FFF7B2FD007B00286B
:102010000BD007E019880906FCD59880641C188845
:102020000006FCD520780028F4D110BD70B5154607
:102030000E460446FFF79CFD007B00280DD00023D0
:1020400009E020880006FCD5F05CA080208800060E
:10205000FCD55B1C9BB2AB42F3D370BDC3888288B6
:1020600093420DD20389934201D100220281038958
:102070000268D1540189491C0181C188491CC18071
:10208000704733480188890603D58088C1B2324839
:10209000E4E770472F480088800606D52D48001DCC
:1020A0000088C1B22C481030D8E770472248008819
:1020B000800606D52048001D0088C1B22648203081
:1020C000CCE770471D480088800606D51B48001DD8
:1020D0000088C1B220483030C0E7704718480188F6
:1020E000890604D58088C1B21B484030B6E77047E6
:1020F00014480088800606D51248001D0088C1B229
:1021000015485030AAE770470F480088800606D56A
:102110000D48001D0088C1B20F4860309EE770472F
:102120000A480088800606D50848001D0088C1B20C
:102130000948703092E7704700480040004C00406A
:10214000005000400014014000780040007C004036
:102150000010014000440040240000202DE9F04719
:102160001C4615460E4607464FF00009FFF71CFBBC
:10217000CA494FF0010847B100200B183A5C401CD7
:10218000C0B21A710628F8D30BE0062008710520AA
:102190004871042088710320C8710220087281F8F8
:1021A0000980C0234FF0A80C00223EB10020375C0C
:1021B0000F54401CC0B20428F9D305E00B7081F81D
:1021C00001C08A707820C87045B100200E182B5CC1
:1021D000401CC0B2B3730428F8D305E08B7381F8B8
:1021E0000FC00A7481F8118044B100200D18235CDF
:1021F000401CC0B2AB720428F8D304E0FF20887200
:10220000C87208734A73CA7481F8148081F8482030
:1022100081F84C2081F84D200020C1E90A00C1E975
:102220000800C1E910000A63C1E90E00A1F84A20C4
:1022300081F84E2003F0A0FC08B94FF0010902F02C
:102240005BFD974880F800804846BDE8F0879449D8
:1022500010B5097829B1914C94F8481019B10020B3
:1022600010BD012010BDB4F84A1011B938B1A4F85E
:102270004A0002F06FFA012084F84800EFE750208E
:10228000F5E7874810B5007850B1844C94F84800C1
:10229000002804D002F06EFA002084F8480010BD37
:1022A000012010BD10B502F05DFD08B102F05CFD2B
:1022B0007B48406802F0A9FD002010BD78494A68BB
:1022C00010444860002070477448C17C19B1007DFB
:1022D00008B100207047012070477047FEB5704C70
:1022E000DDE909762478DDF820C024B16B4C94F840
:1022F0004E5085B901E00520FEBD257D6DB1E47C21
:102300006CB1CDE900C7029602F069FC10F10B0F29
:1023100007D00028F0D00120FEBD0320FEBD022022
:10232000FEBDFFF7DAFF0420FEBD0020704710B5A8
:102330005B4C0A46A17809B1012010BD01465948FD
:1023400002F01DFA0120A070002010BD10B5544C01
:10235000E2780AB1012010BD02F016FA0120E07007
:10236000002010BD7047704708B54D4B00225A70D1
:1023700059B1096849B10A0E0092C1F30743C1F38C
:102380000722C9B2FFF7EFFF08BDFFF7EBFF08BD5B
:102390007CB50446FFF798FF10B9414D687808B145
:1023A00001207CBD0023AFF23F0201A9204604F0CA
:1023B000D1FD10F1050F10D018B12046FFF7D2FF64
:1023C000EEE70198010E0091C0F30743C0F3072226
:1023D000C1B22046FFF7C7FF01E00120687000206E
:1023E0007CBD704770477047704770B50D46044616
:1023F0002DA1284609F018F92A4623462FA1104698
:1024000009F0C0FC31A1284609F0C4F834A12846DF
:1024100009F0C0F8284609F0E5F880B270BD7047B1
:102420007047704770477047012070477047002021
:1024300070474FF0FF307047704700207047002012
:102440007047704770470020704710B5FFF7FAFFDC
:1024500010BDF8B5114C069D0DB10026A674207074
:102460006170A270E3700126E6742675009500F095
:10247000F8FFF8BD094810B5012101750021C174AC
:1024800002F0A6FA01F025F810BD044910B50020AD
:10249000087502F09EFA01F019F810BD68040020DA
:1024A000A4000020C7320008474554202F2048547C
:1024B00054502F312E310D0A000000002573486F53
:1024C00073743A2025730D0A00000000436F6E6E8E
:1024D000656374696F6E3A20636C6F73650D0A00F3
:1024E0000D0A00002DE9F34F81B090F80690DDF859
:1024F00008C090F800A006794579447A037AC27939
:10250000BCF1010F23D0DC4662F31F616AF3070CB4
:1025100063F3070765F30F21E34664F30F2766F3C0
:102520000701CC46C7F3072A6CF31741BAF1630FD2
:102530007ED8FFB25FEA070E7AD0BEF10C0F77D8D3
:102540000F0E00977ED05FEA8A7747D04FE04FEAC0
:10255000121C02F00F080CEB8C0C08EB4C0C6CF30B
:102560001F614FEA131C03F00F080CEB8C0C08EBF7
:102570004C0C6CF307074FEA141C04F00F080CEB2B
:102580008C0C08EB4C0C6CF30F274FEA151C05F074
:102590000F080CEB8C0C08EB4C0C6CF30F214FEA82
:1025A000161C06F00F080CEB8C0C08EB4C0C6CF3B3
:1025B00007014FEA1A1C0AF00F080CEB8C0C08EB11
:1025C0004C08DC4668F3070CE3464FEA191C09F097
:1025D0000F080CEB8C0C08EB4C0CA3E70AF5FA6720
:1025E0004FF0640CB7FBFCF80CFB18776FBB0AF5D7
:1025F000FA674FF4C87CB7FBFCF80CFB187727B3DD
:10260000002707EB47074FF0FF3CDFF83C840CEB5B
:10261000870C0EEB080717F80CC0009FBC4511D3C0
:10262000C1F30727172F0DD8CFB23B2F0AD800E0F0
:1026300008E00BF0FF073B2F04D8C1F3074109B1B5
:10264000072904D90120BDE8FE8F0127D9E7FE49FB
:1026500014390D704E7000788870081D002182704A
:102660004370C47080F80090F84801601F214160F9
:1026700040F2FF318160FEF744FB0298F2490128E5
:10268000A1F1140112D00020FEF79FFBEE490020BB
:102690001039FEF714FCEC481838006820B144F2F9
:1026A00021311320FEF7F0FE0020CCE70120FEF7D9
:1026B0008CFBE54910390120EBE710B510B101287A
:1026C0000BD016E00120FDF751FE6120FDF70AFE58
:1026D0000028FAD04FF4007009E00120FDF73AFE1F
:1026E0004120FDF7FFFD0028FAD04FF48070FDF780
:1026F000EAFE0120FDF7FCFE0020FEF72EFBFEF7B0
:1027000065FA0120FEF729FBBDE8104041F23421B3
:102710001320FEF7B9BEF0B5427A002340F2B27141
:1027200002F5FA628A4201D20020F0BD6425AE00B3
:102730004FF4B77740F26D1C0FE08C0704D1B1FB6A
:10274000F5F405FB14147CB9B1FBF6F406FB141484
:1027500054B16446491C234489B29142EDD301210E
:10276000DFF8E4C2077A18E03C46F3E7940704D1A7
:10277000B2FBF5F405FB14242CBBB2FBF6F406FB0C
:10278000142404B3002404EB44040CEB84040C4430
:10279000491C14F8014C89B223448F42E6D8C17910
:1027A0005B1ECA18AA494A434179C1EB4113C3EBE6
:1027B000012102EB011201790078C1EB011102EB5A
:1027C00081010844F0BD0124DDE770B50D009E498C
:1027D0000446A1F1140122D00120FEF746FB9A48DD
:1027E000143801786171417821718078207099489E
:1027F00000689549608010399DB10120FEF7ADFB5E
:1028000091481038C1786172417821728178E17104
:102810000078A0712046FFF77EFFE06070BD0020C9
:10282000DBE70020EAE72DE9FF470746012108071B
:10283000FDF7B9FE0120FEF7FBFE1320FEF72CFE8C
:10284000814D44F22131DFF81082183D4FF4804968
:102850004FF48004884216D1296019E00020FEF769
:102860007CFAFEF7B3F90120FEF777FA4846FEF747
:10287000ACFEC8F8004000216846FFF7A6FF2868B4
:1028800004B0BDE8F08741F23426B04206D12E6094
:10289000002FE3D10020FFF710FFDFE700243846C8
:1028A0002C60FFF70AFF01208DF807008DF8060065
:1028B0008DF808008DF805408DF809408DF804402A
:1028C0008DF8004000216846FFF70CFE00202E60C6
:1028D000D6E77FB500210B468DF807106FF02F0269
:1028E0000AE09DF80750491C05EB850502EB4505FC
:1028F0002C448DF80740C9B2445CA4F13005092D81
:10290000EFD9491CC9B28DF808300AE09DF808508B
:10291000491C05EB850502EB45052C448DF8084064
:10292000C9B2445CA4F13005092DEFD9491CC9B2E4
:102930008DF809300AE09DF80950491C05EB850522
:1029400002EB45052C448DF80940C9B2445CA4F162
:102950003005092DEFD9491CC9B28DF806300AE0BF
:102960009DF80650491C05EB850502EB45052C44F6
:102970008DF80640C9B2445CA4F13005092DEFD9A9
:10298000491CC9B28DF805300AE09DF80550491C74
:1029900005EB850502EB45052C448DF80540C9B2D1
:1029A000445CA4F13005092DEFD9491CC9B28DF85A
:1029B00004300AE09DF80450491C05EB850502EB44
:1029C00045052C448DF80440C9B2445CA4F130059F
:1029D000092DEFD9491CC9B28DF800300AE09DF8E5
:1029E0000040491C04EB840402EB440423448DF8AA
:1029F0000030C9B2435CA3F13004092CEFD90021A7
:102A00006846FFF76FFD04B070BD08B10C2801D90E
:102A1000002070478A0701F5FA6105D16422B1FBF5
:102A2000F2F302FB1312E2B94FF4C872B1FBF2F3F6
:102A300002FB1311A9B10021034A01EB410102EB92
:102A4000810108440AE00000C4000020B80400200E
:102A50008051010028280040143C014010F8010C6E
:102A600070470121E8E7810700F5FA6005D164218C
:102A7000B0FBF1F201FB120149B94FF4C871B0FB90
:102A8000F1F201FB120010B140F26D1070474FF4EB
:102A9000B77070472DE9F0470446D3484FF48008DB
:102AA000C0F800800020FEF77AFB4FF4804A002136
:102AB0005046FEF73EFDDFF834930321002689F8E7
:102AC0000010042189F8011089F8026089F8036078
:102AD0004846FDF78CFB09F104070820C7F8008081
:102AE0003E717871BE713846FDF762FE002C4BD006
:102AF000012689F80360381FFDF779FBBE7138465F
:102B0000FDF756FE0020FEF74AFB012C12D0022CE6
:102B100012D0032C12D0042C13D0052C14D0062C68
:102B200015D0072C16D0082C17D0092C18D00A2C39
:102B300019D01AE0AE4D18E0AE4D16E04EF6FF7516
:102B400013E049F6FF7510E044F6FF750DE041F61D
:102B5000FF750AE040F6FF7507E040F2FF7504E0FC
:102B600040F2FF3501E040F2FF150120FEF7F6FAD2
:102B70002846FEF704FB01215046FEF7DAFCBDE8CB
:102B8000F0470120FEF70BBB7BE63C22B1FBF2F3E2
:102B9000F0B502FB1313C160B1FBF2F10370B1FB9E
:102BA000F2F302FB1313B1FBF2F103711822B1FB34
:102BB000F2F302FB1313B1FBF2F14371CA1C0723BA
:102BC000B2FBF3F403FB1422521C4FF4B77482716E
:102BD000A61E642340F2B2729D00970704D1B2FB97
:102BE000F3F703FB17275FB9B2FBF5F705FB1727D0
:102BF00037B1B14209D9A1F26D11521C92B2ECE782
:102C0000A14202D3A1F5B771F7E7A2F5FA644472C5
:102C10000024764F04720C3707F10C06940704D198
:102C2000B2FBF3F403FB1424ACB9B2FBF5F405FBDF
:102C3000142484B1047A3C5D8C4206D8091B047AC2
:102C4000641CE4B204720C2CE8D3027A521C0272A7
:102C5000491CC171F0BD047AA45DEDE710B510B157
:102C6000012817D108E000214FF48070FEF730FAF8
:102C700000214FF4805407E000214FF40070FEF76C
:102C800027FA00214FF400542046FEF752FC20465C
:102C9000FEF778FC54484FF400310160534801249A
:102CA000001D016000210171082141718471FDF74F
:102CB0007FFD4E4829210170042141708470C47049
:102CC000BDE81040FDF793BA7FB516460C460546A1
:102CD000FFF7C4FFE0788DF80000A0788DF80100C0
:102CE00060788DF802004FF00040019020780121BB
:102CF000F0B100200290207918B31F2800D91F20BE
:102D00008DF80C0005B3012D11D16C026A462146E5
:102D10003046FEF743F901212046FEF7D9F901219B
:102D20004C032046FEF705FC2046FEF72BFC7FBD3A
:102D30004FF080400290207918B10728E0D9072091
:102D4000DEE78DF80C10DDE74FF480746A4621460B
:102D50003046FEF723F901212046FEF7B9F901219B
:102D60000C03DEE7122804D8234A02EB0010C0F857
:102D700050187047122801D9002070471E4901EBF6
:102D80000010D0F85008704770477047704710B572
:102D90004FF480442046FEF701FC20B12046FEF7A8
:102DA00014FCFFF7F1FF10494FF48000086010BDDC
:102DB00010B54FF480542046FEF7F0FB20B12046BA
:102DC000FEF703FCFFF7E1FF4FF400542046FEF747
:102DD000E5FB20B12046FEF7F8FBFFF7D7FF0249DD
:102DE0004FF40030086010BD143C0140B8000020D2
:102DF000FFBF0300FFDF01000020004070B52B4B38
:102E0000002211461C68A40004D51C68012244F06D
:102E100080741C60264B45F255541C600B2801D36E
:102E2000072400E003245C6000B3012820D00228BE
:102E300020D0032820D0042820D0052820D0062820
:102E400020D0072820D040F2FF3408281FD040F2BD
:102E5000FF7509281DD040F6FF760A281BD00B28E5
:102E600015D00C2815D00D2815D015E0052113E03C
:102E70000A2111E00F210FE01F210DE03D210BE0A1
:102E80007B2109E0FF2107E040F2FF1104E0214629
:102E900002E0294600E0314699604AF6AA2018600F
:102EA0004CF6CC401860104670BD000074380240EB
:102EB00000300040A3490844C0F38F2070472DE93B
:102EC000F04F9A46DDE909B889460346FFF7F2FF5D
:102ED000C5B200204FF0030E0121814011EA090F15
:102EE00028D0994E36F815400C4326F81540DF6877
:102EF00044000EFA04F6B7430BFA04FC47EA0C0749
:102F0000DF601F6802FA04FCB74347EA0C071F6042
:102F1000012A01D0022A0DD15F6889B28F430AFAD3
:102F200000F189B20F435F60996808FA04F4B14375
:102F300021439960401CC0B21028CDD3BDE8F08F6A
:102F400000B5FFF7B7FF01218140804802681143B7
:102F5000016000BDFCB51646DDE907C50C0007465B
:102F600008D0FFF7EDFFCDE900C5324621463846CF
:102F7000FFF7A5FFFCBD2DE9FC4F9946DDE90BB736
:102F800092460D00064622D0FFF7DAFF002201210B
:102F90004FF00F0C01FA02F028420DD0D00806EBDA
:102FA0008003186A5407E40E0CFA04F820EA0800BB
:102FB00007FA04F420431862521C102AEAD3CDE920
:102FC000009B5346022229463046FFF778FFBDE8B2
:102FD000FC8FF0B50E460546FFF76CFF00225A49FC
:102FE000C4B24FF0010C03270CFA02F333420CD0A9
:102FF00028684FEA420E07FA0EFE40EA0E002860EB
:1030000031F81400984321F81400521CD2B2102A4F
:10301000EAD3F0BDF0B500220125032605FA02F33C
:103020000B4205D00468570006FA07F39C4304607E
:10303000521CD2B2102AF1D3F0BDF0B50022012704
:10304000032607FA02F33C460B4208D005685300FA
:1030500006FA03FC25EA0C059C4025430560521C3A
:10306000D2B2102AEDD3F0BDF0B50022012503261F
:1030700005FA02F30B4205D00468570006FA07F37D
:103080001C430460521CD2B2102AF1D3F0BDF0B53B
:10309000002201260324022706FA02F30B4209D07C
:1030A0000568530004FA03FC25EA0C0507FA03F34C
:1030B0001D430560521CD2B2102AEDD3F0BDF0B50D
:1030C00000230127032507FA03F40C4209D0C66840
:1030D0005C0005FA04FC26EA0C0602FA04F4264316
:1030E000C6605B1CDBB2102BEDD3F0BD41F4803227
:1030F000C261C161C261C169C0697047002102E05B
:10310000491C89B240080128FAD80846704700B522
:10311000FFF7D0FE012181400C4802688A4302601B
:1031200000BD00B5FFF7C6FE074931F8100000BD2D
:1031300000B5FFF7BFFE044931F81000C04380B26C
:1031400000BD00000000FEBFC40400203038024073
:1031500000F0A1FB4FF4E1320021E848FEF7E0FD6A
:103160000C20FFF74BFE10B1E5A008F0FBFDFEF7C9
:103170001BFBFEF7ADFBFEF7BBFBEAA008F0F2FD80
:103180000020FFF750FB10B9EBA0FFF7A2FB0023D4
:103190001A4619461846FEF7E1FFEC4908B34FF40A
:1031A00080400880EA4D4AF6AA242C605020FFF7A0
:1031B0004EF81521E748FFF7BAF8E648012108382C
:1031C000FFF7C4F80021E448FFF7FFFAE24803786C
:1031D00002794179E1A008F0C5FD2C60FFF762F8A3
:1031E000FBE74FF40050DCE70120FFF767B82DE95B
:1031F000FF5F1D461646002861D10024D34FDFF83B
:103200004C833F1F4FF4005BA14607F1060A53E0D1
:1032100056F82400D9A108F0C9F9B0B155F8240036
:103220000078312806D0322808D0332808D0342836
:1032300040D103E0386880F4005004E0386802E0D0
:10324000386880F48040386034E056F82400CEA11D
:1032500008F0ACF998B155F824000078312806D070
:10326000322806D0332806D0342823D101E058462E
:1032700003E0484601E04FF48040414619E056F82B
:103280002400C3A108F092F9A0B155F824000078F9
:10329000312806D0322807D0332807D0342809D166
:1032A00002E0AAF800B005E0484601E04FF4804093
:1032B00051460880641CE4B201988442A8DB04B043
:1032C000B5A0BDE8F09F7FB5B74C0D46042819DACC
:1032D000B64930B1012808D0022808D003283CD1D3
:1032E00003E00868C0F3403004E0086805E00868BF
:1032F000C0F3803008B1AEA100E0B5A1284608F0C7
:1033000041FDA9E006D1E178A078CDE9000163781C
:10331000227873E0A4490528CA6947D0896906283C
:103320001ED007281ED0082837D0092839D00A28EF
:103330003BD00B283FD00C2841D00D2846D00E287A
:103340004FD00F2854D010285DD0112862D01228F9
:1033500067D0132867D014287AD0002004B070BD3D
:103360000A4623E0BAB100EE101AF8EE400A00EE69
:10337000102AB8EE400A80EE801A9FED9D0A21EED9
:10338000000A10EE100A08F074F941EC100B99A134
:1033900053EC102B16E099A15BE0D4E9082398A127
:1033A00010E0D4E90A2396A10CE0226B96A12846EE
:1033B00008F0E8FC50E0D4E90E2391A102E0D4E942
:1033C00010238FA1284608F0DDFC45E0A079637A40
:1033D000227AE1798DE80F00637922798BA1284662
:1033E00032E0617C207CCDE90001E37BA27B05E03B
:1033F000617B207BCDE90001E37AA27A8BA128468C
:1034000008F0C0FC28E094F84C0008B18AA120E044
:103410008BA11EE094F84D0008B18BA119E08CA19E
:1034200017E08DA115E000214B48FFF7CEF94A487F
:10343000C1790478037942798DE81E00427A037AD3
:103440008AA1284602F5FA6208F09CFC04E0FFE736
:103450008EA1284608F0E8F8284608F0C3F880B2A4
:103460007CE73EB500931346069C0A4601460CB124
:103470008CA000E096A008F075FC4B4CE079627AD5
:10348000217A8DE80700A3796279217999A008F063
:1034900069FC607C0090237CE27BA17B9EA008F00D
:1034A00061FC607B0090237BE27AA17AA0A008F007
:1034B00059FC94F84C10A4A008F054FC94F84D105A
:1034C00003B0A5A0BDE8304008F04CBCA7A008F0B0
:1034D00049BCB5A008F046BC08B508498DF8000005
:1034E0008A89920408D50A881206FCD59DF8002026
:1034F0008A800A881206FCD508BD0000001401402D
:103500005265736574206F636375726564206265CC
:103510006361757365206F66205761746368646FBB
:10352000670A000050726F6772616D207374617278
:1035300074696E672E2E0A0032382E30322E3135E5
:103540002E363B32333A33353A33300018180240C6
:1035500000300040E4000020DC040020437572725B
:10356000656E7420646174653A20253032643A25B2
:103570003032643A253032640A0000006C656474AD
:103580006F67676C650000006C65646F6E0000001B
:103590006C65646F666600002F696E6465782E73D3
:1035A00068746D6C0000000068040020141802406C
:1035B0003C7370616E20636C6173733D226772654A
:1035C000656E223E4F6E3C2F7370616E3E000000B0
:1035D0003C7370616E20636C6173733D227265642D
:1035E000223E4F66663C2F7370616E3E0000000005
:1035F0000000C84225662025250000003020250057
:10360000256C6C75000000002575000025303258CF
:103610002D253032582D253032582D253032582D59
:10362000253032582D2530325800000025642E25D3
:10363000642E25642E2564003130304D626974009B
:1036400031304D626974000046756C6C00000000FA
:1036500048616C660000000053544D333246342DEF
:10366000446973636F7665727900000025303464B5
:103670002D253032642D2530326420253032643AD5
:10368000253032643A2530326400000041707220E7
:10369000323120323031362061742031333A3135C5
:1036A0003A33360049503A2025642E25642E25648D
:1036B0002E25642061737369676E656420627920CA
:1036C00044484350207365727665720A000000001A
:1036D00049503A2025642E25642E25642E25643B0E
:1036E0002053544154494320495020757365640A5E
:1036F000000000004D41433A20253032582D25303E
:1037000032582D253032582D253032582D25303263
:10371000582D253032580A004E65746D61736B3A2E
:103720002025642E25642E25642E25640A000000C1
:10373000476174657761793A2025642E25642E25CA
:10374000642E25640A0000004C696E6B2031303015
:103750004D3A2025640A000046756C6C2064757033
:103760006C65783A2025640A000000004C696E6B95
:1037700020697320646F776E2C20646F20796F75D9
:10378000206861766520636F6E6E65637465642082
:10379000746F20796F7572206D6F64656D2F726F15
:1037A000757465723F0A00004C696E6B2069732066
:1037B0007570206261636B0A00000000704701BEF3
:1037C000FEE7FEE7FEE7FEE7704770477047704789
:1037D00010B5FDF7BDFF10BD1CB500215B4A00917F
:1037E0000191106840F4803010604FF4A0431068DD
:1037F00000F4003001900098401C0090019810B92E
:1038000000989842F3D11068800342D501200190BE
:103810004E484030016841F0805101604C490868D1
:1038200040F440400860494808300368036003687A
:1038300043F400430360036843F4A0530360041F90
:10384000444B2360136843F08073136013689B013B
:10385000FCD50A6842F480320A604A68D203FCD57B
:103860000A6842F400320A604A689203FCD53A4A78
:1038700040F205711160016821F0030101600168E7
:1038800041F0020101600168C1F381010229FAD10E
:103890001CBD01911CBD314810B5016841F4700197
:1038A00001602A48016841F001010160274A0021B6
:1038B0000832116002682A4B1A400260031D294A2F
:1038C0001A60026822F48022026020480C300160F5
:1038D000FFF782FF21494FF000608039086010BD7A
:1038E00070B51A4D083528681F4B204910F00C00A0
:1038F00004D05E10042803D0082803D00B601BE01E
:103900000E6019E0114A121D1068C0F3805410684F
:1039100000F03F0014B1B6FBF0F001E0B3FBF0F0B3
:1039200013681268C3F388135843C2F30142521C50
:103930005200B0FBF2F0086028680C4AC0F3031094
:10394000121D105C0A68C2400A6070BD0038024057
:103950000070004008544007003C024088ED00E041
:10396000FFFFF6FE103000240024F4003801002090
:103970002DE9F041804600204B494C4E0125074679
:1039800000EB800201EB021292F84C20C2B1401C05
:103990000A28F5DB3C46E4B1404607F023FE322816
:1039A0001AD241462046FEF742FDA8B16576277639
:1039B000A760414604F11A00E76007F035FE23E0F6
:1039C00000EB800201EB021484F84C502074666115
:1039D000E1E70020BDE8F0816776354D05E040461F
:1039E000696807F006FE30B12D68002DF7D120463A
:1039F00000F045F8EDE7A8682060E8686060E868D6
:103A0000C4E90207287C20763088401C308020469C
:103A1000E0E7264A10B511880446491E1180407E11
:103A200010B12046FEF708FD2046BDE8104000F02A
:103A300026B870B50446407E0E4630B12046FEF7EB
:103A4000F8FCA1680144A16070BDD4E9013098423E
:103A500002D14FF0FF3070BD1D1A954200DD1546B2
:103A600021682A460144304607F070FDA0682844CA
:103A7000A060284670BDD0E90110081A70470A4AB4
:103A8000002101EB810302EB0313834207D101EB19
:103A9000810102EB0111002081F84C007047491CA4
:103AA0000A29EEDB70470000EC0400204C010020E6
:103AB00080D800082DE9F041044616460F46084616
:103AC00007F090FD050013D0264409E039788842BC
:103AD00005D12A463946204607F0AFFD40B1641CA7
:103AE000207810B16119B142F0D90020BDE8F08111
:103AF0002046FBE770B504000FD02068002510B108
:103B0000FFF787FF2560E06810B103F0FCFAE5607D
:103B10002046BDE8704003F0F6BA70BD2DE9F047CD
:103B20001488DFF8F088994616468A46054600272D
:103B30004B4622465146284605F0B4FC4346D3E99D
:103B40000E2112197941C8E90E21411C0BD1B5F89B
:103B5000661019B1B5F86810082901D3012402E0F4
:103B60006408012CE4D83480BDE8F0872DE9FC5FBF
:103B70000C0005464FF000076ED00026B4F8E202B4
:103B8000B146032858D2B5F86600ADF80000ADF88C
:103B900004003AE004EB8000D0F8D40207F022FDE4
:103BA000B4F8E0121FFA80F8BDF80020A8EB01007D
:103BB000904200DD104680B2ADF80400B4F8E22275
:103BC000824604EB82020023D2F8D4222846114414
:103BD00001AAFFF7A3FF060024D0ADF80490B4F8C3
:103BE000E002BDF80410084480B2A4F8E002BDF879
:103BF0000020511AADF80010404506D1B4F8E20299
:103C0000401CA4F8E202A4F8E092BDF800000028ED
:103C1000B4F8E2020CD003280CD2BDF8041000293D
:103C2000B8D10CE0BDF804108A45D8D00127D6E7FA
:103C3000032804D3606810B1606918B13BE001202B
:103C4000BDE8FC9F206818B1FFF715FF002804DCD1
:103C50002146284600F0EDF926E0E06810B1D4F8DE
:103C600010800EE0A87F0007E88E00D50C384FEAE0
:103C700040081FFA88F003F0C0FAE06068B1C4F8A9
:103C800010804246E1682068FFF7D3FE00280DDA75
:103C90002146284600F0CDF9D1E708EBD8704FEA6D
:103CA0006008B8F1640FE4DC0020C9E76061E168F6
:103CB0006160E161606294F82C0058B3B5F8662049
:103CC000ADF800206168E069DFF84CB74FF0010AF9
:103CD00004F12E08884248D9401A904201DCADF820
:103CE0000000A87F0007E88E00D50C38BDF8002042
:103CF00080B2B2EB400F05D94FF6FF7202EA4000E6
:103D0000ADF8000001236A462846FFF707FF0600CA
:103D10001ED026E0B5F866006169884202D2ADF88F
:103D2000000001E0ADF80010A87F0007E88E00D584
:103D30000C38BDF8001080B2B1EB400F05D94FF63A
:103D4000FF7101EA4000ADF80000002361682CE13A
:103D5000BDF8000061680127014461606169081ACB
:103D60006061B5F8660000287DD0EDE0BDF8002068
:103D7000002AF9D094F85012052910D2DFE801F09A
:103D800003102963B200E1690A783C2A03D184F860
:103D900050A2A4F828A0401E491CE1616062D3E053
:103DA000218D05290AD0E269DBF8003092F800C0C5
:103DB0005B5C9C4506D1491C218505E0A4F8289050
:103DC0000220BFE084F85092401E521CE261606203
:103DD000BAE0218D49B9E3691A78202A52D0092A1C
:103DE00050D00A2A4ED00D2A4CD0E06900782D28F8
:103DF0000ED020280CD009280AD00A2808D00D2877
:103E000006D0202916D24A1C228501F8080013E0AA
:103E100081B1032084F8500284F82D1001F8089035
:103E2000E169484609782D2901D0208504E0A4F8ED
:103E300028A001E084F85092606A401E6062E06948
:103E4000401CE06180E0218D49B9E3691A78202A9D
:103E500018D0092A16D00A2A14D00D2A12D0E269E5
:103E600012F801CB00E0B6E0DBF80430A0F101006D
:103E70005B5CE2619C45606231D1022907D0491C3C
:103E8000218561E0401E5B1CE36160625CE02046CE
:103E900000F07EFCA4F82890042084F85002E06929
:103EA0002062616888424FD9BDF80020401A9042D4
:103EB00024DAADF8000021E0012300E000236A4687
:103EC0002846FFF72BFE06003ED1BDF800006168D2
:103ED0000127014461606169081A606134E084F877
:103EE000509231E06168206A88420ED9401A9042AF
:103EF00004DA0004000CADF8000004D094F82C00A3
:103F00000028DBD0D8E70026DFE7208D618D8842CE
:103F100015D2091A914201DAADF8001004F14F01EF
:103F2000014401236A462846FFF7F8FD06000BD13D
:103F3000208DBDF8001001270844208504E0484684
:103F4000A4F8289084F85002606A10B1002E3FF463
:103F50000DAF94F85002042835D06168E0698842BA
:103F600031D9B5F86620401A904202DDADF8002044
:103F700001E0ADF80000AA7F1007E88E00D50C38EC
:103F8000BDF80030B3EB400F09DD1007E88E00D517
:103F90000C384FF6FF7202EA4000ADF8000094F8CA
:103FA0002C0008B1012300E000236A462846FFF7F1
:103FB000B5FD40B9BDF800006168012701446160AA
:103FC0006169081A6061606928B92068FFF753FDCC
:103FD00000287FF73DAE384632E610B50C460100AA
:103FE00010D0087E401CC0B2087604280AD00868A9
:103FF00030B12046FFF7BAFD10B1204605F039FC7C
:10400000002010BD204600F014F8F9E710B5034673
:10401000002008700C461846FEF713FA2078002896
:1040200006D1FE4841692046BDE8104007F0FCBAC1
:1040300010BD70B50546D1F8E4020C4648B1F74A08
:104040000020403AF54910703F2240392046FFF7E2
:10405000DDFF0021284604F0E6FA0021284604F09E
:10406000E4FA0021284604F0E4FA0022114628462A
:1040700004F0E4FA0021284604F0D9FA2046FFF7BC
:1040800039FD284603F0E9FF30B12846BDE870400D
:104090000422E34904F0D2BABDE87040FEF7C6B985
:1040A0002DE9F047DFF87C8304460D00D8F8600066
:1040B0004FF0000AC4F8D80207D0DBA1284607F069
:1040C00075FA48B1D8F83C0018E0D8F83C10C4F8AC
:1040D000D412D8F864004CE0D4A1284607F066FA60
:1040E00010B1D8F8400009E0D1A1284607F05EFAE7
:1040F00010B1D8F8440001E0D8F83800C4F8D40270
:104100003F21284607F064FA070001D087F800A095
:1041100000262E21284602E0401C06462E2107F0EC
:1041200057FA0028F8D1DFF8FC92002509F1680958
:1041300008E059F83500314607F05BFA58B16D1CBC
:10414000112D01D2002EF4D10FB13F20387056B19D
:10415000112D0CD00FE009EBC500416858F8210083
:10416000C4F8DC02F0E70320A4F8E202FCE4D8F88B
:104170003400C4F8DC02A4F8E2A2A4F8E0A2F3E45C
:1041800010B50446ABA02060FFF7F2FB00280DD16C
:10419000ABA02060FFF7ECFB002807D1ABA02060AC
:1041A000FFF7E6FB002801D10021216010BD2DE9B9
:1041B000F7434FF00008064680F82C80019891469E
:1041C00001782F2901D1417871B13F2107F000FA20
:1041D000050001D005F8018B924F1C3F786978B338
:1041E000386968B3002421E08B4F0024083757F862
:1041F0003400FFF7BDFB050057F83400019003D0F1
:1042000007EBC400007944E0641C052CEFD301A83F
:10421000FFF7B6FF054686F82C8040E0386950F875
:104220003410019807F0E5F980B1641C7869844284
:10423000F4DB7869844203D115B13F2005F8010C05
:104240000198FFF795FB050012D016E0294630468D
:1042500000F0E8FA0146386906F5257300EBC40062
:1042600006F51572D0F804C02046E0470190E0E75B
:1042700001A8FFF785FF050011D06A4F002486F8DA
:104280002C80F037019857F8241007F08FF918B1F7
:10429000012086F82C0002E0641C042CF2D34A466C
:1042A00029463046019B00F0F0FABDE8FE8370B568
:1042B0000C465A4901250860608928B125B121467C
:1042C0005648FEF7BCF805462046246803F066F918
:1042D000002CF1D10DB1002070BD6FF00C0070BD4D
:1042E00070B50446D0F8E4020A890025904202D253
:1042F000C4F8E45202E0801AC4F8E4022046FFF752
:10430000D6FF20B9D4F8E40208B1002070BD4348BC
:104310003F224038014605702046FFF777FE2046D1
:10432000BDE870403D490022403940E72DE9F041A9
:1043300006AC94E8E000394C84E80700A381C4E9A6
:1043400004562783002030702046FEF776F8054695
:104350006069017811B940A107F066F915B1002034
:10436000BDE8F0816FF00C00FAE72DE9F04F85B061
:104370009846109C0E9D9346A4EB08002A1A894685
:1043800038A1601C521EFFF795FB060040D0321B7F
:1043900036A1601C521EFFF78DFB002838D010306C
:1043A0000A2237A10746FFF785FB88B34FF0000AC2
:1043B00080F800A0384607F04FF9071E7DDDA6EB18
:1043C0000800621C011DA94201DD284600E0001D15
:1043D0001FFA80F8B01A011DA94200DC0D46012029
:1043E0008DF810000D4804A940383F2480F800A043
:1043F00000970391CDE90104ABB2554658460F9999
:10440000FFF794FF28B1054900224039584639E0AA
:1044100064E03CE06804002094D800084C0C0020C4
:10442000DB3F00086C0100203430340034303000B1
:10443000353031002F3430342E68746D6C0000003C
:104440002F3430342E68746D000000002F34303467
:104450002E7368746D6C00002F696E6465782E6829
:10446000746D6C000D0A0D0A00000000436F6E743D
:10447000656E742D4C656E6774683A20000000000C
:104480000D0A0000FFF793FE05B0BDE8F08FD9F8E4
:104490000040CBF8E47208E02046A8EB0101246854
:1044A0001FFA81F8056003F079F814B1618941457C
:1044B000F2D9C9F8005064B100E00CE0C8F1000086
:1044C00001B2204603F06DF921465846FFF708FF78
:1044D000DAE70020D8E76FF00D00D5E76FF00400B1
:1044E000D2E72DE9F74F0468086884B00D4608B993
:1044F000686818B16FF0070007B0C6E7FA4863892B
:10450000D0E91061F31841F10001C0E91031A86849
:1045100098B1214603F084F9A868016879B101894E
:1045200040F2FF32914200D3114688460A460023EA
:10453000EE4903F0F0F9ED4F04E0AC60ECE7B4F8BD
:104540000A8067684046B8F1070F64D30246AFF2AD
:10455000D0013846FFF7AEFA00285CD04FF0000AD1
:104560000422E3A13846CDF800A007F066F840B178
:104570000522E1A1384607F060F820B1002038712B
:1045800056E0FC1C02E04FF0010A3C1DE11BA8EBC9
:104590000100401E80B281460246D8A1601CFFF790
:1045A00089FA06000BD14A46AFF22C11601CFFF7C6
:1045B00081FA064601200090BAF1000F38D1301B75
:1045C000401E1FFA80FB36B3A64224D9002004F116
:1045D00001092070494609F80B00BAF1000F14D008
:1045E000CDF80080CDE9019605F108013B462A4649
:1045F0000698FFF7BAFE20B120212170317009F82A
:104600000B1010F10E0F13D076E7009A07B0284672
:10461000BDE8F04FCBE5A86803F0F3F8A968098975
:10462000B1F5806F04D20A2802D86FF0040063E766
:104630006FF00D0060E7002801D0FFF75BBA70470C
:1046400010B50A46010004D0002008761046FFF796
:104650008DFA002010BD2DE9FF41044602980E4658
:104660006FF0090563B130B10189304603F021FDD7
:10467000029802F093FF21463046FFF7DAFC28E06B
:104680000028F8D0002CEFD00189304603F011FD4E
:10469000D4F8E402002750B1277620460299FFF7AC
:1046A0001FFE19E021463046FFF760FA11E020684E
:1046B00028B93246214602A8FFF713FF0546681DB8
:1046C00005D0A06810B102F069FFA76025B10E35D2
:1046D000D1D0002004B043E6D4F8E4020028E1D0B1
:1046E000F7E770B580480D46016B491C0163284609
:1046F000FDF79AFE40B30121284603F012FF4FF464
:104700003A76304602F079FD040005D0314606F0D5
:1047100036FF0320A4F8E202210018D0284603F057
:1047200082FF7749284603F080FF7649284603F048
:1047300080FF04227449284603F080FF734928460D
:1047400003F075FF002070BD6FF00C0070BD4FF0DE
:10475000FF3070BD10B56E4C207828B1A069BDE85F
:1047600010406C4903F068BF6B4800F0F4F801207A
:10477000207010BD66480021806903F05DBF644B66
:10478000D960C3E901027047614AC2E90401704778
:104790002DE9F0415E4E054600F12E07716800F1EB
:1047A0004F0881B1F06870B1B06860B1002407E0D3
:1047B000F06850F82410384606F01BFF68B1641CFE
:1047C000B0688442F4DB384606F00CFFB0F5F37FA6
:1047D0000AD8384606F006FF08E073684FF4007206
:1047E0004146204698471BE040F2E710044612225B
:1047F0004AA1404606F0AAFE2246394605F161006C
:1048000006F0A4FE4AA128190A6840F8612F898899
:1048100081803E2181710021C171404606F0E2FE97
:1048200068859DE52DE9F047814691B1087880B112
:1048300000250C462F4609EB8506A046262120467A
:10484000C6F8544206F0C4FE28B100F8017B0446C5
:1048500008E000208AE42021404606F0B9FE00B1BD
:10486000077000243D21404606F0B2FE20B100F85A
:10487000017BC6F8940201E0C6F894726D1C102DFD
:1048800001DA002CD7D1284670E470B51D460446E5
:10489000002339B3238584F850320868E061486802
:1048A0006062086821602062086860604E7E0EB118
:1048B000636101E04E6866612376097E99B1FAB3BF
:1048C0001DA16269FFF7F6F838B16168401A001D52
:1048D000014461606169081A6061206818B1007E56
:1048E00008B136E02DE030E0680400200C0800201C
:1048F0004745542000000000504F53542000000052
:104900005746000837460008DB3F000841460008CC
:1049100050010020E34600083CD900083C623E2AD2
:104920002A2A554E4B4E4F574E20544147200000E7
:104930002A2A2A3C2F623E000D0A0D0A00000000C0
:1049400007E0236063606361237629462046FFF712
:10495000A7FB002070BD70B5054603F062FE0D4C4C
:104960000121A06103F0DDFD0B482946B0F84A2083
:10497000A06903F0C9FCFF21A06903F002FD014614
:10498000A06103F050FEA069BDE87040034903F048
:1049900053BE00005001002068040020E3460008D8
:1049A00070B50021CB4DCC4C0B4601EB411205EB11
:1049B0008202824207D18367C0F880302678761E53
:1049C000267082F86430491CC9B20429EDD370BD49
:1049D0007047C1480178002901D00121417070471A
:1049E00070B50446806F0D4678B1002103F01DFEBE
:1049F0000021A06F03F01BFE00221146A06F03F000
:104A00001DFEA06F08B103F028FBA06F02F07BFB36
:104A1000B248C169491CC16115B18169491C8161F4
:104A20002046FFF7BDFF29462046BDE87040FDF750
:104A3000F8BC70B505461BE00123616804F032FD47
:104A400020B1401C01D1C5F8804070BDA3486289E7
:104A5000D0E908319A1841F10001C0E90821206825
:104A6000C5F8800008B102F0D5FE204602F096FDA0
:104A7000D5F88040002CE8D0A86F6289B0F86610A5
:104A80008A42D9D970BD10B50446FDF7CBFC20464B
:104A9000BDE810400021A3E710B570B1D0F8801038
:104AA00011B1FFF7C6FF06E090F87C10032902D190
:104AB0000121FFF795FF002010BD084603F0F9FB28
:104AC0006FF0090010BD10B5D0F8801009B1FFF7E4
:104AD000B0FF002010BD2DE9F0411F4615008846AB
:104AE00006461FD0298940F2B450814213D87B4832
:104AF0002C46D0E90A32591842F10002C0E90A12E4
:104B0000628922B1238930466168FDF78CFC2468F4
:104B1000002CF5D135B1AFB1284602F03FFD384643
:104B2000BDE8F081032086F87C00D6F8800020B133
:104B30003046FFF77EFF0020F2E701213046FFF705
:104B40004FFFF8E72989404603F0B3FA284602F000
:104B500025FDF0E770B51600044604D00021FFF7EC
:104B60003FFF304670BD012084F87C0082025C4922
:104B70002046FDF73AFC05002AD0594806F032FDE0
:104B800081B20322002002F031FDC4F88000002829
:104B9000E7D02046FDF744FC2A465149D4F880006E
:104BA00002F0ECFE4F49A06F03F03FFD4E49A06FAD
:104BB00003F03DFD01224D49A06F03F03FFD4C493C
:104BC000A06F03F036FD2046FFF733FF002070BDD5
:104BD00001212046FFF704FF6FF00C0070BD2DE9A6
:104BE000FF4FDFF8F48081B01D4698F80000DDF833
:104BF000389016460F466FF00C0B28B198F801005C
:104C000010B1FDF76AFB63E0019806F0EBFC642845
:104C100004D36FF00D0005B0BDE8F08F00202D49E2
:104C2000824600EB401201EB820292F86420BAB394
:104C3000401CC0B20428F4D3544694B303F0F1FCF2
:104C4000A06778B34FEA096040EA054040EA0620D1
:104C50003843009084F8657084F8666084F8675083
:104C600084F868900F98A4F86A0084F86CA01098F3
:104C700060672046019906F0D7FC2146A06F03F03B
:104C8000D2FC1B49A06F03F0D4FC1A4BA06F6946FD
:104C90000F9A03F0CBFB2046FDF7C1FB0020BAE7DB
:104CA00001E00FE011E000EB401001EB8004012275
:104CB00084F8642098F80000401C88F80000C4F8CC
:104CC0007080BAE74FF0FF30A5E72046FFF768FE97
:104CD0005846A0E7681000206C02002068040020FD
:104CE000680C0020D74A0008C74A0008994A000803
:104CF000874A0008554B000810B586B002F0EEF95F
:104D000002F004FB02F03DF8002003900490604A9A
:104D1000604905908DE8070005AB04AA03A95E4829
:104D200002F080FB5C4802F0A1FB5C4800685C4C30
:104D3000112859480BD002F09CFB05202070FDF78C
:104D4000A4FB5849544802F01EFC06B010BD10F8F0
:104D5000351F41F0100101704F4802F0D6FB0120D1
:104D60002070EEE700F05DBC4B4806F021BB7FB53C
:104D70004B4C00252078012814D002281AD146492E
:104D800048682061B8B103202070084601F00DFC8E
:104D90002069030EC0F30742C0F307210124C0B20B
:104DA00000942FE0022020703B4801F0A5FD256112
:104DB000FDF71AFB7FBD486A407B0428FAD904201E
:104DC0002070354801F0F1FB374C03AB02AA207884
:104DD000D4F8011040EA01200190A07AD4F80B1019
:104DE00040EA01200290A07BD4F80F1040EA012095
:104DF000039001A9284802F006FB0095E378A27809
:104E000061782078FDF725FB7FBD31B5244C0098F3
:104E10006168401AFA2803D30098606003F0D3F960
:104E20000098A168411A41F28830814203D300986A
:104E3000A06005F031FF0098E168401AB0F57A7F74
:104E400002D3012000F0B0FE00986169401AB0F56D
:104E5000FA7F0ED30098606101F03EFB20780328B2
:104E600007D02078042804D02078052801D0FFF747
:104E70007EFF0098A169411A4EF66020814205D359
:104E80000098A061BDE8384001F0F9B938BD0000D4
:104E90003DB10008D7B30008781200209C02002022
:104EA000700200202F5C00086804002010B501216A
:104EB0004C062046FBF78BFB2046BDE81040002146
:104EC000FBF785BB012101600021416081604FF447
:104ED0008042C160C0E90412D2108161C0E90712AA
:104EE00041628162C1620163416340228163C0E922
:104EF0000F122022C0E91121C1640165416581655D
:104F00008022C165C0E918128166C16601674167E8
:104F1000D2048167C0E91F125210C0E92121131188
:104F2000C0E92331C0F89410C0F89810C0F89C1064
:104F3000C0E928125212C0F8A8209201C0F8AC2093
:104F40005212C0E92C21C0F8B810704738B50023C0
:104F50000093F94B1C694FF6FF7504F01C0405EA39
:104F6000C02020434FF4F86404EA8111014341F06A
:104F700003005A611861F1490098401C00901869BB
:104F8000C00702D000988842F6D30098884201D129
:104F9000002038BD012038BD18B500220092E64A35
:104FA00013694FF6FF7403F01C0304EAC020184392
:104FB0004FF4F86303EA8111014321F0020040F04D
:104FC00001001061DD490098401C00901069C00785
:104FD00002D000988842F6D30098884201D1002080
:104FE00018BD506980B218BD2DE9F04186B0002788
:104FF000044601200097D04ECDE90007306988466D
:1050000020F01C0502A8FBF71BFACD490398CD4AF6
:105010000144914202D245F0080516E0CA49CB4A44
:105020000144914202D245F00C050EE0C849C94A3C
:105030000144914209D3C8490844C849884202D270
:1050400045F0040501E045F0100535614FF40042DC
:1050500000214046FFF77AFFA0B1FF2000F03AFDA3
:10506000206878B3B54D01980121401C019040465D
:10507000FFF792FF400702D40198A842F3D30198AA
:10508000A84201D1009730E04FF480520021404601
:105090000197FFF75BFF00B9009701980121401CC1
:1050A00001904046FFF778FF800602D40198A8429D
:1050B000F3D30198A842E5D021464046019700F07D
:1050C0008FFD10E0FFE7206A6169C00840EA5100E7
:1050D00082B200214046FFF739FF00B9009740F641
:1050E000FF7000F0F7FC009820B94FF400602062D8
:1050F000C000606130689A490840D4E90112114348
:10510000E26854F8103F1A43114362681143A268E1
:105110001143E26811432269114354F8142F1143DB
:1051200062681143A2681143E26811432269114386
:10513000014331603568012000F0CCFC3560F4E9B2
:1051400005010843D4E902121143084321690843C9
:1051500061690843A1690843E169084370607568A3
:10516000012000F0B7FC7560206AB060606AF060F2
:10517000B0694FF641710840D4E90B121143238DF9
:10518000626B42EA03421143A26B1143E26B11438B
:105190000143B161B569012000F09CFCB561D4E91F
:1051A00010010843F061F569012000F093FCF561FE
:1051B0006C4DA9696C480140D4E912021043D4E94E
:1051C00014231A431043A26D1043E26D1043226E64
:1051D0001043626E1043A26E10430843A861AE698B
:1051E000012000F077FCAE61D4E91B010843616F38
:1051F00054F8782F11430843616840EA8100A168A0
:10520000084340F4000028602C68012000F062FC94
:105210002C60286840F0800028602C68012000F095
:1052200059FC2C600098012800D0002006B0BDE891
:10523000F0814C490028886902D040F0020001E06A
:1052400020F002008861704746490028886902D032
:1052500040F4005001E020F400508861704738B5F8
:10526000404CA06940F48010A061A069009001202A
:1052700000F030FC0098A06138BD38B500212E4CFC
:1052800000910028206802D040F0040001E020F0E6
:105290000400206020680090012000F01BFC0098B2
:1052A000206038BD38B50021234C009100282068CB
:1052B00002D040F0080001E020F0080020602068E3
:1052C0000090012000F006FC0098206038BD10B569
:1052D0000120FFF7E7FF0120FFF7CFFFFFF7BFFF38
:1052E0000120FFF7B1FFBDE810400120A1E710B594
:1052F0000020FFF7A9FF0020FFF79BFF0020FFF72A
:10530000BCFFFFF7ACFFBDE810400020CAE70A4928
:1053100000208969C90700D00120704738B5064CC4
:10532000A06940F00100A061A0690090012000F098
:10533000D1FB0098A06138BD00800240FFFF030050
:1053400000D3CEFEC0E1E40040F1E9FD40787D01EC
:1053500000796CFC005A6202001F0AFA80F0FA021F
:105360000F8120FF00900240233FDEF838B5002176
:10537000F64C00910028A06902D040F0010001E045
:1053800020F00100A061A0690090012000F0A2FBC4
:105390000098A061CFE7ED4A01460020926B0A42D7
:1053A00000D001207047E94A01460020926B0A4272
:1053B00000D001207047E54A0029D16B01D081431C
:1053C00000E00143D1637047E04B8A8818440264CF
:1053D0000A78D1F8011042EA012141647047DB4AA2
:1053E0000244106C030A4B710871506C020ECA70B3
:1053F000020C8A70020A4A700870704738B50022A1
:105400000092D24A8418206C11B140F0004001E0B3
:1054100020F000402064206C0090012000F05AFB36
:105420000098206487E738B500220092C74A8418A4
:105430000829206C02D040F0804001E020F080403C
:105440002064206C0090012000F044FB0098206450
:1054500071E738B50D46BD494418206C20F07C50EA
:105460002064206C0090012000F034FB0098206440
:10547000206C28432064206C0090012000F02AFB5F
:105480000098206457E730B5B14B59680A68C2F3F9
:105490000D449A68156812689268C9685960241F9B
:1054A0008560C0E9004230BD38B5A94B00240094A6
:1054B000D3E9012117E06D1C00951568AD0507D5EE
:1054C0001568ED0504D40A6001228A605A6808E074
:1054D0001568ED0511D41568AD050ED48D686D1CE9
:1054E0008D60D2685A601568002D02DB009D042D86
:1054F000E1D30460446084601DE74A608C68641CEA
:105500008C608C68012C00D10A605C682268C2F350
:105510000D458A682D1F012A02D90A68926800E0A9
:10552000A2680968E4685C600560C0E9012102E7DF
:10553000F0B5874E002231680B68002B01DA00209D
:10554000F0BD40F2F454A04215D9B0FBF4F5B0FB25
:10555000F4F304FB150505B15B1C012B0BD0C3F163
:105560000107C7EBC71707EB470700EB87005D1E76
:10557000C0F30C0023E00A6842F040520A60C0F316
:105580000C004860086840F000400860C96818E0F6
:105590000F6827F040570F601AB90F6847F080571F
:1055A0000F604C60AA4204D10F6847F000570F60AB
:1055B00048600F6847F000470F60C968521C9A4264
:1055C000E6D3644831604169490703D5042141614C
:1055D000002141600120F0BDF0B55D4F00234FF088
:1055E000004C44F2F45E561E786013E000EB431466
:1055F000C4F800C0C3EBC31505EB450501EB8505F9
:10560000C4E901E5B34203D204F12005E56000E0FE
:10561000E0605B1C9342E9D34E49C8604E48B860D5
:10562000F0BD4B4A51680B681046002B80680DDBBB
:105630000B68DB050AD583685B1C83608368012BDC
:1056400000D1016051684160012070470B68002B58
:105650000DDB0B689B050AD50B68DB0507D40160E1
:1056600000214160012181605068C0680CE00B6836
:10567000002B0ADB0B689B0507D40B68DB0504D401
:1056800083685B1C8360C868506000207047F0B579
:105690002F4C00234FF48017561E206011E000EBC2
:1056A00043142760C3EBC31505EB450501EB8505E6
:1056B000A560B34203D204F12005E56000E0E0609C
:1056C0005B1C9342EBD323490861F0BD02460020E6
:1056D00012680A4200D0012070470068C0F3C3007E
:1056E0007047016841F0004101607047002901687E
:1056F00002D041F0804101E021F08041016070471B
:1057000002680A430260704702680A4302607047F9
:105710000029016802D021F0006101E041F0006140
:10572000016070470029016802D041F4801101E056
:1057300021F48011016070470029016802D021F036
:10574000806101E041F080610160704700800240AB
:105750008C0200200090024054430020436841EA3C
:1057600002410B43436070470246002012680A4220
:1057700000D0012070470246002012690A4200D082
:1057800001207047016841F00041016070470068E6
:10579000C0F30D407047426811B122F0004101E0B2
:1057A00042F0004141607047406811B1C0F30C40C5
:1057B0007047C0F30C00704702680021002A08DB24
:1057C0000268120405D40268D20502D50068C0F34D
:1057D0000D410846704738B50021C14C00910028A2
:1057E000206802D040F0800001E020F080002060BE
:1057F00020680090012000F06DF9009820609AE583
:10580000B748016841F0010101607047B4490020C8
:105810000968C90700D001207047B14A014600203D
:1058200052690A4200D001207047AD494861704773
:10583000AB4A0029D16901D0014300E08143D16125
:105840007047A74A0146002052690A4200D0012051
:105850007047A34948617047A148406900F00100C2
:1058600070479F48406900F0400070479C49002005
:105870008969C90200D501207047994A0146002074
:10588000126A0A4200D0012070479548006AC0F3AE
:105890004A4070479248006A80B270479048806CD6
:1058A00070478F48C06C70478D48006D70478C48BA
:1058B000406D70478A490020486070478849002041
:1058C0008860704786494862704730B50C46054687
:1058D0000021FFF761FB14B140F4804201E020F4A5
:1058E000804200212846FFF731FB002800D001202C
:1058F00030BD38B57B4CE06A40F00040E062E06AC1
:105900000090012000F0E6F80098E06213E5F8B599
:1059100006460020734D0446009056F82400A86205
:10592000A86A0090012000F0D5F80098A862641CD5
:10593000082CF2D3F8BD38B500216A4C009100283C
:10594000E06A02D040F4007001E020F40070E062F0
:10595000E06A0090012000F0BDF80098E062EAE4FF
:10596000604A01460020D26A0A4200D001207047F6
:1059700038B500215B4C00910028E06A02D040F06D
:10598000040001E020F00400E062E06A00900120E1
:1059900000F0A0F80098E062CDE438B50021514C49
:1059A00000910028E06A02D040F0020001E020F0FF
:1059B0000200E062E06A0090012000F08BF800989D
:1059C000E062B8E438B50021464C00910028E06A56
:1059D00002D040F0010001E020F00100E062E06A46
:1059E0000090012000F076F80098E062A3E43D48C2
:1059F000D0F8001141F03001C0F80011704739486B
:105A0000D0F8001121F02001C0F80011D0F80011E9
:105A100041F01001C0F80011704732490028D1F858
:105A2000000102D040F0080001E020F00800C1F8B9
:105A3000000170472B490028D1F8000102D040F046
:105A4000040001E020F00400C1F80001704725497E
:105A50000028D1F8000102D020F0020001E040F05F
:105A60000200C1F8000170471E48D0F8001141F053
:105A70000101C0F8001170471A4AC3000BD5002974
:105A8000D2F80C1120F0805001D0814300E0014396
:105A9000C2F80C1170470029D2F8101101D08143CF
:105AA00000E00143C2F81011704700210D4AC30005
:105AB00002D5D2F8043101E0D2F80831034204D013
:105AC000D2F80C21024200D1012108467047054955
:105AD00040587047044909684843401EFDD270474A
:105AE00000900240008002401C000020A14810B538
:105AF000016841F000710160016841F000610160DE
:105B0000016841F080610160FFF7D0F9FFF778FE8E
:105B1000FFF77CFE0128FBD09748FFF7D3F99648A2
:105B200001214FF4007240F81C1B002140F80C1BAF
:105B3000E0E803215200416001618161C1610162BD
:105B400040F8102CD20313118365C0E913120166CB
:105B500041660421C0E91B128903416789018167FD
:105B60004912C1674900C0F8841001218248FFF73B
:105B70003BFA8249486010BD10B5FBF715FE00F0F6
:105B8000ABF8FFF7B3FF01210846FFF705FA7B4C9E
:105B9000400703D5606840F0100060600120FCF70A
:105BA00054FC6068C0B210BD70B501210846FFF713
:105BB000F3F9724C10F0040F4FF00105607806D035
:105BC000002803D16E4801F0B0FC657070BD00285C
:105BD000FCD025706A4801F0C9FC0020607070BDDF
:105BE00070B50C4610210120FFF7D6F943074FF49A
:105BF00000624FF0000101D5226200E021628007BF
:105C00004FF4804301D5616100E063615D4880F835
:105C10004C1080F84D10656901219D4201D180F83A
:105C20004C10236A934201D180F84D1070BD2DE9CC
:105C3000FF4100240646039490F83500524DC006FB
:105C40003DD54D4E306820B34FF4805200210120E5
:105C5000FFF77CF94D4F03980121401C0390084643
:105C6000FFF79AF9800602D40398B842F3D3424969
:105C700001200394FFF7B4FF454A1068336A716945
:105C800019430143116043480068401EFDD210686B
:105C90001060FFF71CFB009401940120029428700F
:105CA00002AB01AA6946364801F0ADFB344801F069
:105CB0002CFCFCF7DFFB31480470BDE8FF81FFF7E7
:105CC00016FB05202870304600F06FFC2C4801F0D0
:105CD000D0FBFCF7DAFBF0E77CB52648143001680E
:105CE00041F48041016000200324CDE900042A4EE4
:105CF00003460222D1013046FDF72CF90020FAF7C5
:105D000032FDFCF7A0FB002832D10B2500231A46F8
:105D100086213046CDE90045FDF72DF900231A46CE
:105D20004FF490711D48CDE90045FDF724F900239B
:105D30001A463E211A48CDE90045FDF71CF900231B
:105D40001A464FF4D0411748CDE90045FDF713F945
:105D500000231A46CC211448CDE90045FDF70BF984
:105D600000231A4631151148CDE90045FDF703F926
:105D70007CBD0000303802406043002098020020C3
:105D8000781200206804002070020020FFFF03004A
:105D9000008002401C00002000000240000402407D
:105DA0000008024000180240001C0240002002408F
:105DB00040BA704740BA704700BA704700BA70479F
:105DC000002812D0018B4369FF220B44491C018338
:105DD00083F8F020002205E043690B44491C01834D
:105DE00083F8F020018B4429F6D370472DE9F04168
:105DF00016460C4605000CD07CB100224FF49A7177
:105E0000104601F0F3FB206150B1627BFE4952B1B4
:105E10000CE06FF00D00BDE8F0816FF00500FAE7CF
:105E20004FF0FF30F7E70A68521C0A6009682160EA
:105E300040680121606101706069002741706169FB
:105E400095F82E0088706069C7702068FFF7B4FF6E
:105E50006169082E486060690781606947816069EF
:105E6000C76008D0042E06D0032E07D1207B05285A
:105E700001D0042802D161696868C860606907615F
:105E80006069476160698761002095F82E10814242
:105E900003D9291891F82F1000E0002100F11C020D
:105EA0006369401C80B299541028EED3002000F1A1
:105EB0002C016269401C80B257544028F7D300205F
:105EC00000F16C016269401C80B257548028F7D3FE
:105ED0006169CE48C1F8EC0027830020626900F1B7
:105EE000F0015054401C80B24428F7D301223521E0
:105EF000204600F0E0FD3146204600F0D4FD0020B1
:105F000089E7F8B5446A064600206062062120460B
:105F100000F0F2FD012221463046FFF767FF050041
:105F200030D102223921204600F0C5FDB18D204636
:105F300000F0D1FD04223721204600F0BCFD0121F4
:105F4000204600F0B0FD0321204600F0ACFD1C21EE
:105F5000204600F0A8FD0621204600F0A4FD2046C2
:105F6000FFF72EFF208BF03081B2206901F0F2FBA9
:105F700000964323A64A2169606803F04BFF204640
:105F800000F086FD607B401CC1B26173062902D21D
:105F90000120884000E03C2000EB4001C1EBC01034
:105FA0004FF6FF7101EAC0004FF4FA7100F2F310EE
:105FB000B0FBF1F060832846F8BD70B5446A054631
:105FC0000821204600F098FD002204F12401284613
:105FD00004F0BFFF607B40F2E731401C60734FF478
:105FE000FA70B1FBF0F0608370BD70B50646886A48
:105FF0000C46002819D005F0F5FA002815D0318B91
:10600000A56AC1F14101884200D30846C4B22246C4
:106010000C21304600F04FFD04E015F8011B30461E
:1060200000F041FD641EE4B2F7D270BD10B5028BE2
:1060300044690B0E1444521C028384F8F030028B26
:1060400044690B0C1444521C028384F8F030028B18
:1060500044690B0A1444521C028384F8F030028B0A
:1060600043691344521C028383F8F01010BDF8B545
:10607000446A06460121204600F03EFD03222146E7
:106080003046FFF7B3FE05004CD1022239212046ED
:1060900000F011FDB18D204600F01DFD04223221DB
:1060A000204600F008FD606AFFF788FE01462046A2
:1060B000FFF7BCFF04223621204600F0FCFC206ADA
:1060C000FFF77CFE01462046FFF7B0FF0422372190
:1060D000204600F0F0FC0121204600F0E4FC032102
:1060E000204600F0E0FC1C21204600F0DCFC0621EC
:1060F000204600F0D8FC31462046FFF776FF2046C8
:10610000FFF75EFE208BF03081B2206901F022FBA8
:10611000009643233E4A2169606803F07BFE2046D7
:1061200000F0B6FC607B401CC1B26173062902D24C
:106130000120884000E03C2000EB4001C1EBC01092
:106140004FF6FF7101EAC0004FF4FA7100F2F3104C
:10615000B0FBF1F060832846F8BDF8B5446A054607
:106160000521204600F0C8FC032221462846FFF7FF
:106170003DFE060020D102223921204600F09BFC82
:10618000A98D204600F0A7FC29462046FFF72DFFE9
:106190002046FFF715FE208BF03081B2206901F018
:1061A000D9FA0095432304F120022169606803F0C5
:1061B00031FE204600F06CFC607B401CC0B2607376
:1061C0000A2804D24FF4FA6110FB01F001E044F612
:1061D000206080B24FF4FA7100F2F310B0FBF1F0DE
:1061E00060833046F8BDF8B5446A05460421204670
:1061F00000F082FC032221462846FFF7F7FD060047
:1062000026D10222392105E0A002002063825363D7
:1062100040D90008204600F04EFCA98D204600F031
:106220005AFC29462046FFF7E0FE2046FFF7C8FD4E
:10623000208BF03081B2206901F08CFA0095432365
:10624000F84A2169606803F0E5FD204600F020FC73
:10625000607B401CC0B260730A2804D24FF47A718C
:1062600010FB01F001E042F2107080B24FF4FA71BD
:1062700000F2F310B0FBF1F060833046F8BDEA485D
:1062800010B5046825E0606A10B3C18B4A1EC28352
:10629000012906D0616A888B421E8A8301280CD0AE
:1062A00016E0616A2046097B012903D00A2901D042
:1062B00005290DD1FFF797FF0AE0616A2046097BA7
:1062C000012903D00A2901D0052901D1FFF745FF93
:1062D0002468002CD7D110BDF8B5446A06460321C6
:1062E000204600F009FC032221463046FFF77EFDE0
:1062F000050028D102223921204600F0DCFB4FF4B2
:106300001071204600F0E7FB04223221204600F005
:10631000D2FB606AFFF752FD01462046FFF786FE7A
:106320002046FFF74DFD208BF03081B2206901F04F
:1063300011FA00964323BB4A2169606803F06AFDA5
:10634000204600F0A5FB607B401CC0B260730A28A9
:1063500004D24FF47A7110FB01F001E042F21070A8
:1063600080B24FF4FA7100F2F310B0FBF1F06083E9
:106370002846F8BDF8B5446A05460021204600F0DD
:10638000BBFB002020626062A062E062A0636063E9
:106390002063072221462846FFF728FD060013D177
:1063A0002046FFF70DFD208BF03081B2206901F00F
:1063B000D1F90095432304F120022169606803F0BC
:1063C00029FD204600F064FB607B401CC0B2607376
:1063D0000A2804D24FF47A7110FB01F001E042F276
:1063E000107080B24FF4FA7100F2F310B0FBF1F0CC
:1063F0006083284601F03DF88C49284600F0D3FF21
:106400008A49284600F0C7FF8849284600F0C7FFA0
:106410003046F8BD2DE9FC4105005BD06C6A002CCC
:1064200058D0626B4FF03C01501C4FF480374FF056
:1064300001064FF6FF730AD01E32B2FBF1F0B842EC
:1064400000D318460204120CA28300D1A683A26BCB
:10645000501C0AD01E32B2FBF1F1B94200D31946EA
:106460000A04120CE28300D1E683A18BE08B814207
:1064700002D308B10020A083A07B08B1A06A09E084
:1064800094F824207F2A01D8FF2003E0C02A03D3F8
:106490006FF07F40009000E00093E06A019028B91F
:1064A000606A0099084040F08070019004F1240176
:1064B000284600F078FF6946284600F070FF01A9E1
:1064C000284600F068FF284601F01FF80A21204600
:1064D00000F012FBBDE8FC8170B55348002504684C
:1064E0000EE0606A58B1418B012903D9A1F1010185
:1064F000418304E003D14583204600F005FB246876
:10650000002CEED170BDF8B5446A0020484DA06261
:10651000E062E978A5F1280609B1F16821632979DB
:1065200009B1316901E0216B49086163697909B1F9
:10653000716900E0216BA163A16809696162A979B1
:1065400021B1B069FFF738FCA0620120A073E8799F
:1065500018B1F069FFF730FCE06200240BE006EBB5
:106560008400006AFFF728FC00906946204600F08E
:1065700049FB641CE4B22819007A002801D0022CDF
:10658000EDD3F8BD70B50D4604463C21284604F015
:10659000F6FF656270BD10B50446406A002803D05E
:1065A00000F0B1FD0020606210BD10B5002813D0CE
:1065B00050F8244F417C002C21F0080141740BD08D
:1065C000606818B103F0C6FC002060602046BDE89A
:1065D0001040002100F090BA10BD2DE9F34F83B0B8
:1065E000002104468B4601910A21114804F0C7FF9F
:1065F000049840892C281DD30499F0264868A0608F
:1066000004980089049F04E0721A401A3F6896B209
:1066100080B27FB17989B142F6D98046D7F804A01B
:10662000BAE0000040D90008C80200203CD90008A8
:10663000444400206FF0010005B0BDE8F08FB01CAD
:106640001FFA80F97A89701C4FF0FF34824203D917
:106650000AEB0600407803E0386808B1406800782B
:10666000342905463AD00BDC032925D003DCD1B10F
:1066700001290DD11CE0062923D0332908D129E0B6
:1066800035292FD0362931D03A2933D03B2937D07C
:1066900000253044801C86B285B300200090F84865
:1066A000005D60B366E00020761E0546B6B2F0E7F6
:1066B00004284DD10624ECE70425042848D30724F8
:1066C000E7E7810744D1082800D30825A8423FD333
:1066D0000824DEE704283BD10324DAE7012837D178
:1066E0000024D6E7012833D10124D2E704282FD192
:1066F0000224CEE704282BD10424CAE73AE003E0C1
:10670000042825D10524C4E7042D01D22A4600E03F
:1067100004224B466946384601F0FDF8042D13D992
:10672000A80715D1D649012008550098FFF744FB6A
:10673000D3492D1F2839EDB241F8240009F1040096
:106740001FFA80F9641CAAE7042D04D0012D06D09D
:106750006FF0050070E70098FFF730FB01E09DF84F
:106760000000C749009001200855C5480099283805
:1067700040F824107889B0420DD8311AA8EB0000F7
:106780008EB21FFA80F846450DD2B8F1000F0AD03C
:106790003F68D7F804A037B11AF80610FF2902D0D5
:1067A0004645FFF44CAFB649087868B1A1F128001E
:1067B000002200680A70012808D0022802D00328AD
:1067C00009D001E04FF0010B019838B100206C2690
:1067D0000190EC2016E74FF0010BF7E7BBF1000F3B
:1067E0004FF00000B6D083462C266C200AE72DE936
:1067F000F0410446456A5089516816464FF000083A
:106800002C2872D3087802286FD1002094F82E200B
:1068100008E023180F1893F82F303F7FBB4264D154
:10682000401CC0B28242F4D84868FFF7C7FA296812
:1068300088425AD131462846FFF7CFFE00BB904927
:106840004878E8B1A1F128021079052804D006287B
:1068500017D0022836D048E0287B012806D003282C
:106860000BD0042809D0052807D03EE02046FFF7CA
:106870004AFE2046FFF7A1FB37E02046FFF7CAFD9E
:1068800033E0287B032805D0012803D0042801D059
:1068900005282AD12046676A00F0EBFD7949204699
:1068A00000F081FD7749204600F075FD75492046CE
:1068B00000F075FD0C21384600F01EF92046FFF768
:1068C00020FB12E0287B06280FD1A5F81A80274666
:1068D000646A887848B19068FFF76EFA2062A06811
:1068E000006960623846FFF7C2FB3046C5F8088091
:1068F000BDE8F04100F052BE70B505006FF00D012B
:1069000008D095F835006C6A20F0080085F835004D
:10691000800601D4084670BDA88D4FF0FF36B0F553
:10692000107F2ED334B3606808B103F013FB3C2111
:10693000204604F024FE03F021FB606008B3017AD6
:10694000442241F0200101724E49606803F018FAB8
:1069500043224C49606803F0CFFA2A464A496068EE
:1069600003F0F5FA2846FFF7CCFA60B12846FFF7A6
:106970001CFE06E03C2000F040FC040001D06C62EC
:10698000D5E7304670BD15F8351F41F00801297074
:1069900070BD30B591B0050041D03C2101A804F094
:1069A000EEFD082101A800F0A7F8686A08B1446864
:1069B0006CB903F0E3FA040031D00294207A442247
:1069C00040F0200020722F49029803F0D9F90822E4
:1069D00001A92846FFF70AFAE0B90222392101A8E5
:1069E00000F069F8A98D01A800F075F801A8FFF77B
:1069F000E7F9BDF81C00F03081B2059800F0AAFE5E
:106A000000954323214A2046059903F003FA01A883
:106A100000F03EF80298002801D003F09BFA11B074
:106A200030BD70B5446A0546002C19D0217B002684
:106A300004290ED004DC002912D0032904D108E077
:106A4000052906D00A2904D06673BDE87040FFF717
:106A500058BA00F00EFD66732846BDE870403BE46E
:106A600070BD00280BD0426A002A08D0137B082B87
:106A700005D10968526A914201D100F088B8704787
:106A8000444400203CD90008EF67000840D90008C2
:106A900010B5040006D0206908B100F07FFD002089
:106AA0002061606110BD028B43691344521C028354
:106AB00083F8F010E3E710B5038B44691C445B1CBA
:106AC000038384F8F010018B43690B44491C018354
:106AD00083F8F02010BD10B5028B44690B0A1444F2
:106AE000521C028384F8F030028B43691344521C19
:106AF000028383F8F01010BD027B8A42BFD001737D
:106B0000002141734183BAE710B5426A0446117B04
:106B10000C2913D0062911D0012913D008291ED021
:106B2000052927D0042929D003292FD1507B0228F9
:106B300013D22046BDE81040FFF7CEBBBDE81040A1
:106B4000FFF7DFB9507B052804D82046BDE8104088
:106B5000FFF78DBA2046FFF70DFC2046EEE7507B8D
:106B60000128204603D8BDE81040FFF726BABDE84B
:106B700010404FE4BDE81040FFF7EFBA507B082803
:106B8000E8D82046BDE81040FFF72DBB10BDF8B592
:106B9000446A06460C212046FFF7AEFF0422214638
:106BA0003046FFF723F905001ED10422322120468A
:106BB000FFF781FF606AFFF701F901462046FFF702
:106BC00035FA2046FFF7FCF8208BF03081B22069BF
:106BD00000F0C0FD00964323094A2169606803F074
:106BE00019F92046FFF754FF607B4FF4FA71401CFF
:106BF000607342F60310B0FBF1F060832846F8BDE5
:106C000040D9000802280CD2F94A5268002A08D05C
:106C1000002906D00968002903D0F54A0C3242F851
:106C2000201070472DE9FE4F16461289B2F5007FFD
:106C300070D81A2A6ED3EE4C00233046A16800F0BB
:106C40006AFE3189884265D1A768A0463888FFF777
:106C5000AFF804285ED2C0EBC000E64900EB80002C
:106C600001EBC0042078022854D14FF0030984F8C6
:106C70000090F87800F00F006071B888FFF798F87E
:106C80008346F888FFF794F80546B8784FF0000A75
:106C9000000664D56079E0BBBBF1010F5FD1D8F885
:106CA000080004F10C010C308B4603464F4610F8E7
:106CB000012BB7EB921F10D009E091F800C090F8BB
:106CC0000080C4454BD1521E401CD2B2491C002A40
:106CD000F3D10278491C002AE9D1184600F080F966
:106CE0004FF480784FF48069001D36E000F078F9A9
:106CF000016800914168074601910089ADF80800DC
:106D0000BDF80000404520D1BDF8020040451CD12F
:106D100001E024E030E0BDF80800484515D10198B5
:106D2000FFF74CF8B449A060884200D9A160D7F8B9
:106D30000A00C4F80C01D4F81031EBB104F58671E7
:106D40005846D4F81421984716E0BDF80800FFF71C
:106D50002FF86D1E3844ADB20A30002DC6D1D4F8DC
:106D600010312BB1002104F10C00D4F81421984704
:106D700084F800A0C4F810A13046BDE8FE4F00F032
:106D80000DBC38B59D489A4C20F00300A0609CA033
:106D900003F092FC00906068002811D103F0EEF837
:106DA000606000280CD00022994902F0E9FF00221F
:106DB0009849606803F0CBF869460020FFF722FF8E
:106DC00038BD022804D28A490C3101EB800000E072
:106DD0008F48006870472DE9F0471646884681467F
:106DE00000224FF48871104600F000FC050047D0E7
:106DF0006C680027304627606760A760FEF7D8FF01
:106E000024F8020B012004F8020B020224F8082BDC
:106E1000A8F101082346641C002003E0401C04F88C
:106E2000011BC0B218F8011F2E2901D00029F5D18D
:106E3000187098F800000028ECD104F8017B62F388
:106E40000F0662F31F462660A888201A001D81B233
:106E5000284600F07FFC6648654E0C3000EB890147
:106E60000C463522706803F047F822463523294640
:106E7000706803F02AF80446284600F08FFB01E012
:106E80004FF0FF342046BDE8F08770B50246C0EBF6
:106E9000C200584900EB800001EBC00420780028B4
:106EA00013D0C2EBC201534B01EB810103EBC103D1
:106EB000002501260C33012808D002280DD0032814
:106EC00003D1A068401EA06032D070BD02202070A7
:106ED0006570A6702846E5700DE0A078401E10F0A1
:106EE000FF00A070F1D1E078401CC0B2E07004282F
:106EF00005D0A0706078BDE8704019466BE76078F7
:106F00000146401C02280BD2394A0C3202EB8101A7
:106F10000A1D05D0496819B16070A670E57070BD92
:106F2000D4F8106126B100211846D4F81421B047D6
:106F30002570C4F8105170BD2D4810B54068002868
:106F400007D000242046FFF7A0FF641CE4B2042C05
:106F5000F8D310BD2DE9F0470546254898469146DF
:106F600040680F4640B13FB135B1287820B128467E
:106F700004F038FBFF2802D96FF00D0083E72846A4
:106F800003F09AFB411C18D11A4E0024C4EBC40034
:106F900000EB800016F83010032906D106EBC00183
:106FA00028460C3104F025FB50B1641CE4B2042CDB
:106FB000ECD34FF0FF30411C0BD03860002062E76B
:106FC000C4EBC40000EB800006EBC000D0F80C015D
:106FD000F1E7424649462846BDE8F04700F026B8AA
:106FE000032210F8011BB2EB911F1DD017E0000027
:106FF000A402002050440020803A0900B348002039
:107000003230382E36372E3232322E3232320000C3
:107010003CD90008256C0008491EC9B2401C002953
:10702000FAD101780029DCD1401C70472DE9F047E6
:10703000DFF8A0C081460020274F9CF80030904622
:1070400006460546C5EBC50202EB820207EBC20409
:1070500022785AB1032A05D122799A1AB24201DD67
:10706000D6B228466D1CEDB2042DEBD3042D0FD102
:10707000042807D2C0EBC00202EB820217F83240AC
:10708000032C02D04FF0FF30FDE6054607EBC204AB
:107090000120207023715B1C8CF80030C4E9441877
:1070A000484604F09FFAFF2803D2484604F09AFAB3
:1070B00000E0FF2006460246494604F10C0004F0B9
:1070C00045FAA119002008732846FFF7DEFE6FF08D
:1070D0000400D8E6A402002050440020894810B5DE
:1070E000894A20F003014FF4205311600B800024E3
:1070F0004C800C7101F52050012450600471038014
:107100004380916010BD002810D07F490A689042EA
:107110000CD34A68904209D2002200F8042C8A68F5
:107120000838904200D2886000F0C5B870472DE959
:10713000F0474FF6FC72C91C11404FF420550C2942
:1071400001D20C2101E0A94213D8DFF8BCC1DCF860
:107150000040A0420FD3DCF8042090420BD2A0F1F3
:107160000802131B16889BB2F71A083FBFB2B94238
:1071700003D94FF00000BDE8F087FCD0E14606EBF4
:10718000040C614E9CF804804FF0000A3668B8F198
:10719000000F06F1020618D001F1140CBC45EAD824
:1071A000194408318FB2E119D9F80840A14201D23F
:1071B000C9F8081081F804A014880C804B8017804F
:1071C0000988A942D7D08F53D5E719440831D9F897
:1071D0000880BCF8007089B2E04503D104EB0108D7
:1071E000C9F808800C4484F804A0278063801180CB
:1071F0002288AA42BFD09153BDE7F0B5002847D0FE
:107200004FF6FC71C01C00EA01034FF4205C0C2B0C
:1072100001D20C2301E063453ED8DFF8ECE0C3F572
:107220002054DEF80850DEF80020A81A81B231E0C0
:10723000501806796EBB0688761A083E9E4228D3FF
:10724000048803F11406641A0127083CB44210D3E1
:107250000B4408339CB2131900261E7106881E8049
:107260005980048007711988614503D0931CCC5262
:1072700000E00771A84202D009E029888D18297919
:1072800019B1DEF804108D42F7D1CEF8085008305D
:10729000F0BD515A8C42CBDC0020F0BD70B500FB34
:1072A00001F5A8B2FFF7A9FF040002D0294604F0B7
:1072B00066F9204670BD30B5134C01882268114430
:1072C000931C88420DD00D795DB96568A94208D03C
:1072D000A5688D4200D1A0600D8805800988851AB7
:1072E000CD524188114481420BD00D79002D08D137
:1072F000A568854200D1A16004880C800088891AA5
:10730000C15230BDB64A0020B8020020F0B50020BE
:10731000401C80B20928FBD31C481C4C20F0030100
:1073200000201B4E0746273C06F1120544F820704A
:10733000002209E054F820300B6044F8201036F8A1
:107340001030521C194492B235F810309342F1D8E3
:10735000401C80B20928E9D3F0BD0146092801D3B9
:1073600000207047094A273A52F821000028F8D037
:10737000036842F821307047002906D0034A273AB3
:1073800052F820300B6042F820107047EF72002056
:10739000C4D80008704701B10968C160704701B1E5
:1073A00009688160704770B50C00054628D02068D8
:1073B000696888421ED07648006809E001686A68FA
:1073C000914204D1C66800F074FF304600E0C06806
:1073D0000028F3D16F48006809E007D0016829B19F
:1073E0006A68914202D144B121680160C0680028F6
:1073F000F3D12CB12068686070BD4FF00001F4E754
:107400004FF00000F7E770B51D4616460446FFF73B
:10741000CAFF31462046FFF7C2FF29462046BDE895
:107420007040B8E72DE9F041044606A890E8E00076
:1074300000206060A060E06084F835006062C4E90C
:107440000705554D287884F83800401C28702046E0
:107450002761FFF7D8FF2046B04710B10020BDE8F4
:10746000F0816868206020466C60F8E74A498860CF
:10747000704790F83510CA0707D021F0010180F855
:107480003510890601D503F09DBC704710B5040086
:1074900019D094F83500C00702D02046FFF7E9FF65
:1074A0003D4A5168A14210D12068506006E008684A
:1074B000A04209D120680860002904D09068A04249
:1074C00001D10020906010BD01460029EFD110BD10
:1074D00010B5010005D088783038C2B22E48406817
:1074E00010E0002010BD90F83830934209D10B789D
:1074F00090F83640A34204D14B7890F83740A3422D
:10750000F0D000680028EED110BD90F83510CA0701
:107510000AD141F0010180F83510CA0604D5890668
:1075200002D5011D03F0E6BC704710B5044690F883
:107530003500C10619D440F0100084F83500606AA7
:1075400010B12046FFF76DFA94F83500C10705D059
:10755000800603D5211D204603F0CCFCE1690029FB
:1075600003D02046BDE81040084710BD90F8351004
:10757000CA0607D521F0100180F83510C16900292D
:1075800000D008477047002800D0C1617047000054
:10759000EC020020E8020020C402002070B50028A0
:1075A0001BD00024C189491E0904090CC18113D1D3
:1075B000427B017B0568920702D50169884707E095
:1075C00003290BD001290CD002290AD0FFF79BFD1B
:1075D000641CE4B22800E5D1204670BD01460820B5
:1075E00001E001460720FFF7C7FEF1E72DE9F0476C
:1075F00017460D4630B1012806D0022806D00328D0
:1076000050D105E0362604E0222602E00E2600E0F6
:1076100000264FF001094FF00008EFB3012F5DD0B5
:10762000022F5BD0032F3DD10820FFF796FE041EEA
:1076300039D0A0191330277320F00300C4E900806B
:10764000F61C26F00300C0F5FA7041462581A842D9
:1076500000DD28466081A4F80E9026462D1A4FF4CE
:10766000FA7A884616E00820FFF777FEB8B107736C
:1076700080F80D80C0F80080A9B2306001815145CA
:1076800000D35146418100F110024260A0F80E90F3
:107690006D1A0646002D00E007E0E4DC2AE02046F3
:1076A000FFF77CFF0020BDE8F08706F1130020F013
:1076B0000301E81C20F00300084480B2FFF79DFDA1
:1076C000041EF0D0A019133020F003006060258163
:1076D0006581C4F8008084F80C800BE00720FFF778
:1076E0003CFE041EDFD0C4F8048025816581C4F807
:1076F00000802773A4F80E9084F80D802046D2E70E
:1077000070B5DDE9044530B1012806D0022806D065
:1077100003280DD105E0362004E0222002E00E20EF
:1077200000E00020C01C20F003004618AE4201D942
:10773000002070BD00251D6014B12044586000E099
:107740005D6002205873198159811A730120D88114
:10775000184670BD70B502898A4221D98A1A0D4631
:10776000044605E0281A85B2208910442081246847
:107770006089A842F6D3207B50B96089A84207D01F
:10778000A088001B284481B22046FFF7D0FC0446A5
:1077900065812581206808B1FFF700FF0020206087
:1077A00070BD10B541B138B1002907DA4A4293B231
:1077B00042899A4223D302E0002010BD8BB2027BA3
:1077C000446832B1032A04D0022A0AD0012A08D020
:1077D00015E0621A00F1100342609A4208D2446038
:1077E0000DE000290BDA42899A4208D3621A4260FE
:1077F00042890A444281028911440181DCE7012067
:1078000010BD002102E0491C0068C9B20028FAD16D
:1078100008467047002802D0C189491CC1817047C1
:1078200010B500280FD000290DD004E003890C8981
:107830002344038110460268002AF7D102890B898C
:107840001A440281016010BD10B50C46FFF7E8FF35
:107850002046BDE81040DDE710B504685CB1018941
:107860004289891A218100210160418901812046D4
:10787000FFF794FE08B1002010BD204610BD2DE991
:10788000F0474FF000070C4605003E466FF00D092B
:1078900032D07CB32889218988422DD36FF0050A24
:1078A00068896189C01B891B884201DB88B200E0BE
:1078B00080B280466068424681196868384403F0A7
:1078C00045FE07EB080087B206EB080086B2608928
:1078D000B04201D8246800266889B84202D12D68D8
:1078E000002745B154B160892189884206D12068BA
:1078F00058B903E000E064B14846D4E63DB1688978
:107900002989884203D1286808B15046CBE6002C6B
:10791000C6D10020C7E62DE9F047164689464FF04C
:107920000008002806D0B9F1000F02D00027044655
:107930001FE00020B7E62BB16089984202D8181AE0
:1079400083B215E06089C01A85B2B54200D93546C8
:1079500060682A46C11809EB070003F0F7FD08EB41
:1079600005001FFA80F8781987B2701B86B20023D1
:1079700024680EB1002CDED1404694E62DE9F0419A
:10798000002788461546002807D0B8F1000F1AD006
:107990000189A94203D26FF00D00BDE8F0810646CF
:1079A0000FE070892C46A04200D2044608EB070184
:1079B0002246706803F0CAFD281B85B23819366864
:1079C00087B2002DEDD10020E7E770B504460068CE
:1079D0000B4670B1218900221846FFF707FE05000B
:1079E00007D02146FFF74BFF2046FFF7D7FD28467B
:1079F00070BD204670BD02E0891A006889B2002877
:107A000004D042898A42F7D94068405C7047F0B59B
:107A100017460E46054602E0301A2D6886B2ADB113
:107A20006889B042F8D900240CE0301981B22846A8
:107A3000FFF7E1FF395D04F10104884201D0A0B2F3
:107A4000F0BDA4B29C42F0D30020F0BD4FF6FF7011
:107A5000F0BDF0B50746008916468C46811B8DB2F5
:107A6000D11888420CD31C4608E0334662462146B2
:107A70003846FFF7CCFF30B1204484B2AC42F4D991
:107A80004FF6FF70F0BD2046F0BD70B505460C0006
:107A90004FF6FF7609D0207838B12889B04204D05B
:107AA000084603F09FFDB04201D3304670BD82B25C
:107AB00021462846BDE870400023CAE72DE9F0477B
:107AC00007464068DFF85891002690F8098035464F
:107AD000D9F8004021E0217C41451BD12CB1206820
:107AE00018B150490968884214D1D4F814C0BCF1C7
:107AF000000F0FD04C4B3A462146A069E04748B1F1
:107B00000027012635B1E068E860D9F80010E1608F
:107B1000C9F800402546E4680EB9002CDBD1304698
:107B2000BDE8F08701B1096801600020704701B12C
:107B30000968416000207047C0E9051270472DE9CF
:107B4000FE430E460446904614213046FFF729FEB8
:107B50004FF0FF3768B1002211460120FFF746FDC4
:107B600005000DD0308970B131462846FFF76CFE14
:107B700009E035466FF013013046FFF712FE10B1F1
:107B80003846BDE8FE83404602F0AAFBA8B1E4B146
:107B90002168D1B12146227C637ACDE9003202907E
:107BA000A37A4246284602F06DFC0446B54202D054
:107BB0002846FFF7F3FC2046E3E7B54202D028460B
:107BC000FFF7ECFC6FF00300DBE7011DE3E7021DAC
:107BD000B5E713490A68824209D1D2680A6008E011
:107BE000D16819B1814201D1C168D1600A46002A29
:107BF000F6D101460020FFF7BFBB70B50546002057
:107C0000FFF7ABFB040009D01C2103F0B8FC25747E
:107C1000FF20A07202480168E1600460204670BD48
:107C2000D00200202C03002028030020704710B54C
:107C3000040009D0606808B1FFF7B0FC2146BDE838
:107C400010400420FFF798BB10BD10B503E0046896
:107C5000FFF7EDFF20460028F9D110BD70B50446AE
:107C6000007E002816D00A2814D0012812D0606F98
:107C7000002510B1FFF792FC65674FF0FF30A0863A
:107C8000E06EFFF7E2FF206FFFF7DFFFE566256795
:107C9000A4F86A5070BD2DE9FC47FD4F4FF4FA7A05
:107CA0004FF00009F868401CF860B878401CB870C4
:107CB0000026BC69F8E094F82110B878814201D11F
:107CC000E468F1E084F821000025227EA846022A1B
:107CD00003D194F8460006281BD094F846100C29CE
:107CE00019D094F89100C0B194F89010E94A491C59
:107CF000C9B284F89010825C914244D384F8909089
:107D0000072802D2401C84F89100204601F038FF79
:107D100039E0012543E0012535E0B4F934000028BD
:107D200001DB401CA086206F68B3B4F93400B4F9BD
:107D30004430984227DB022A0AD0B4F84200B4F952
:107D4000402000EBE200D44A515C8840A4F8440093
:107D5000A4F83490B4F84C00B4F86010884200D312
:107D600008464108A4F84E10E08EB1EB400F05D252
:107D70004FF6FF7101EA4001A4F84E10A4F84C0040
:107D8000204601F075FE207E062808D1A07FC0069F
:107D900005D5606AF968081A282800D96D1C207A70
:107DA000000729D5207E042801D0072824D1BB480C
:107DB000D4F88C10D7F80CC00844B0FBFAF2606A13
:107DC000ACEB0000824203D24FF001086D1C13E0BF
:107DD00094F8922042F29F4C12FB0CF201EBC2018C
:107DE000B1FBFAF1814207D2204601F0ABFE94F8D4
:107DF0009200401C84F89200207E032802D00928BB
:107E000007D00BE0606AF968081A282806D96D1CAB
:107E100004E0606AF968081AF028F8D84DB32046E3
:107E2000FFF71CFFE0680EB1F06000E0B861B8F148
:107E3000000F09D0A18B608BCDE90001231D2246E4
:107E4000A16A206D01F0D9FD2146D4F81080D4F844
:107E50008850E4680220FFF78FFA87F800901DB37E
:107E60006FF009014046A847387800287FF420AF1A
:107E70001AE02646E468F07F401CC0B2F07796F81E
:107E80002010884210D386F81F9087F80090D6F80B
:107E9000842032B131463069904739780029E5D1E4
:107EA00010B9304601F0E5FC002C7FF404AF00254A
:107EB000FC6914E0606AF968081AF0280DD92046B8
:107EC000FFF7CCFEE0680DB1E86000E0F861214604
:107ED000E4680220FFF750FA01E02546E468002C30
:107EE000E8D1BDE8FC8770B50C4601460068A042A9
:107EF00002D1C06808600BE0654906E0C068A04296
:107F000003D1096AE068C86002E008620028F5D180
:107F100000252046E560FFF7A1FE207E0A280AD052
:107F2000012808D0A07FC10705D040F00200A0774B
:107F3000204601F09EFC257670BD2DE9FC470446E5
:107F4000007E534E4FF00009012789B3042801D069
:107F5000072836D1616F21B9A18DA1F53062683A49
:107F60002FD0A18B608BCDE90001231D2246A16A91
:107F7000206D01F042FD2046FFF770FEB069A0427F
:107F800002D1C068B06107E0306228B1C068A04289
:107F9000FAD1316AE068C860C4F80C903770207E6E
:107FA000042806D021460220FFF7E6F9002098E7D2
:107FB00007E00A202076F069E060F46101F02EFE0F
:107FC000F4E74FF00508082840D2DFE800F0041C71
:107FD000252D2D3F3F35608B002578B13069A042BB
:107FE00002D1C068306107E0306228B1C068A042A9
:107FF000FAD1316AE068C860C4F80C9021460220CA
:10800000FFF7BAF927E02248002521461430FFF790
:108010006AFF21460320F3E71D480025214618305A
:10802000FFF761FF3770E9E7204601F0F3F905003B
:1080300009D184F8188006E0204601F0EBF905002C
:1080400001D10920207634B115B104E0002502E009
:10805000204601F00EFC284643E7017E012903D0AB
:10806000817F41F010018177012166E770B5858D30
:10807000826AC48E531940F2B456016BB44200D9DF
:1080800034460C441C1B0BD4C585581A70BD000027
:10809000D4020020E7D800081CD90008B84C0A0018
:1080A000531A002B01DD002100E0891AC185002050
:1080B000ECE710B50446808D084480B240F6683184
:1080C000A085884200D9A1852046FFF7CFFF40F266
:1080D000DA21884208DBA07F40F00200A07720462A
:1080E000BDE8104001F0C5BB10BD10B51400084636
:1080F00006D02189FFF7DDFF2046FFF74FFA00E0A9
:108100000BB1002010BDBDE81040A6E72DE9F041FD
:10811000456F044600206E7B6067E76F2FB1002338
:108120002A4621462069B84705E000232A46214611
:108130001846FFF7DAFF6FF0090728B10A3015D0AB
:1081400065670020BDE8F081B106FAD5A18DA1F5E3
:108150003062683A01D0491CA185E56F25B1002342
:108160001A4621462069A8470A30EAD13846E9E78D
:108170002DE9F041FE4EB078401CB0700027B46984
:108180001EE094F82110B078814219D084F82100C3
:10819000A07FC10709D040F00200A077204601F07F
:1081A00068FBA07F20F00300A077E568606F30B126
:1081B00037702046FFF7AAFF30780028DED12C4622
:1081C000002CDED1BEE710B5FFF7D2FFE8494878B2
:1081D000401C4870C00702D0BDE810405BE510BDF0
:1081E00010B50446007E6FF00C03012815D069B16C
:1081F000A07F40F01000A0770AB1012110E0606F6D
:1082000090B1FFF7CBF9002060670DE062B1032861
:1082100005D0042803D0072801D0184610BDC9B2E4
:108220002046BDE8104088E6002010BD2DE9FC473F
:108230000446007E0F460A282FD0CD48214618302C
:10824000D4F85090D4F828802669D4F88850FFF7E5
:108250004AFEC74901200870206F08B1FFF7F5FCFE
:10826000E06E08B1FFF7F1FC4FB1A18B608BCDE957
:108270000001231D22464146484601F0BEFB21462F
:108280000220FFF779F8002D12D002B03046AC463C
:10829000BDE8F0476FF009016047B54821461C3042
:1082A000FFF721FE2146BDE8FC470220FFF764B836
:1082B00017E60121BAE7F0B5AE4DAD4E00244FF6FA
:1082C000FF774FF4404C4FF4804EB088411CB18092
:1082D000B84201D1A6F804C0B288002155F82100A7
:1082E000006809E0438B934205D1641CA4B2744535
:1082F000EBD30020F0BDC0680028F3D1491CC9B2FF
:108300000429EBD390B2F0BD2DE9F0410546007E83
:108310000C46042610B16FF0050013E71AB9FFF7F9
:10832000CAFF020006D0DFF84CC200215CF8210031
:10833000006811E06FF0010004E7438B93420AD11B
:1083400030B1036823B11CB127680FB1BB4202D121
:108350006FF00700F6E6C0680028EED1491CB14274
:10836000E4DB14B1206800B1286081486A830169A8
:10837000E960056101F052FC0020E3E66FF00900BE
:10838000704770B50446007E08B100207EE60320E9
:10839000FEF7E3FF051EF9D020692861608B688332
:1083A00001202876607E6876207A40F002002872EC
:1083B000A07AA872607A687220682860608B80B1A9
:1083C0006B490869A04202D1C068086107E00862F1
:1083D00028B1C068A042FAD1096AE068C8600020EC
:1083E000E06021460220FEF7C7FF634868616048ED
:1083F00014300168E960056001F010FC284645E68C
:1084000010B50446084601F06BFF38B1808D28B1E5
:10841000283880B2844200D220460446204610BD4F
:108420005349D1E902021044886070472DE9F047B2
:108430000446007E98460E4618B16FF00800BDE86D
:10844000F08736B130686060A2832CB1206818B123
:1084500008E06FF00500F2E7201D01F041FF20B1B8
:1084600040682060658B1DB106E06FF00300E6E711
:10847000FFF721FF608350B3FFF7D2FF4FF00009F1
:1084800044F8289F3146A062401E2062606340F697
:108490006830A080E080C4F8089020874FF4067010
:1084A000E081FFF7ADFFE08100EB80004FF6FF7148
:1084B000012701EA4000A784E084C4F85880283CE2
:1084C0000221204600F052FF060003D027E06FF0A3
:1084D0000100B4E70220DFF8988020769DB1D8F83B
:1084E0001000A04203D1C068C8F8100009E0C8F825
:1084F000200030B1C068A042F9D1D8F82010E0685F
:10850000C860C4F80C90D8F81800E060C8F81840AB
:1085100001F084FB88F80070204601F0AAF930468B
:108520008DE7417670472DE9F04104460220FEF7C1
:1085300014FF0F4D06003ED100231A46EE68E8698D
:1085400006E0416A711A994201D30B460246C0689F
:108550000028F6D112B11046FFF7ABFE0220FEF75D
:10856000FCFE060027D17F2600273B4606E00000E0
:10857000D40200202CD900087D830008D5F80CC057
:10858000A8690DE0417EA14209D8B14207D8426AEC
:10859000ACEB0202BA4202D3174603460E46C0684D
:1085A0000028EFD113B11846FFF783FE0220FEF733
:1085B000D4FE060033D0942102F0E1FF747641F23C
:1085C000D060A6F866000023A6F868304010B08599
:1085D000F0857372FF20B0724FF40670F0860620AB
:1085E000A6F84400A6F84030A6F84200C01FB086A6
:1085F0000120A6F84C001036FFF712FFB06430647B
:10860000B063F064E8687061A8787074F373AFF2D7
:108610002550F0660E48F06786F88230103E3046EE
:1086200090E540207FE701617047C167704781672F
:108630007047C0F88810704741617047C0F88410D7
:1086400080F820207047034951F82000704700004F
:1086500000DD6D00F0D800082DE9F041FE4F044622
:108660004FF000063878C0067DD5B4F86050A16D93
:10867000626DF8686B18B2EB000C0BD4824202D129
:108680003A698A1A06D43A69914217D17968C98938
:10869000A94213D97968CA89A4F86020B4F8625055
:1086A000C9898D4201D2A4F8621060653869A0655D
:1086B00094F8910062B108B184F89160A26C3869B5
:1086C000811A002936DCA4F86460798841B12EE073
:1086D0000028F3D184F89060012084F89100EDE740
:1086E000B4F86050A16D2944994220D1B4F93410F6
:1086F00000291CDB82421AD194F84700411CC9B200
:10870000814201D984F8471094F84700032809D919
:10871000B4F84C00E18E014489B2814201D9A4F839
:108720004C10A8E002D1204601F0E0F9A3E084F863
:108730004760A0E001297AD4226D821A002A76DCF3
:10874000A27F530706D522F00402A277B4F84E2088
:10875000A4F84C2084F84660B4F84220B4F94030C4
:1087600002EBE30200E0C2E0A4F84420A4F86410A5
:10877000B4F866201144A4F8661084F84760A06439
:10878000207E042833D3B4F84C00B4F84E1088424D
:10879000E18E04D2014489B2814207D827E04943DF
:1087A00091FBF0F1014489B2884220D2A4F84C1028
:1087B0001DE0286820676868FFF723F8B4F86400B4
:1087C00050B1E8688089FDF7F5FAC00704D0B4F825
:1087D0006400401EA4F864006868FFF712F8B4F85B
:1087E0006810081AA4F868002846FFF720FA206FDE
:1087F000C8B1C0684068FDF7E1FA0546206FC0685F
:108800008089FDF7D7FA800700D001202844256F22
:10881000298908443969401A0028CADD1DB1A68695
:10882000E67728E003E04FF0FF30A086F8E7A4F8F1
:10883000646020E02868E06608B9A4F86A606868A7
:10884000FEF7DFFFB4F8640050B1E8688089FDF7F7
:10885000B1FAC00704D0B4F86400401EA4F8640064
:108860006868FEF7CEFFB4F86810081AA4F868002C
:108870002846FFF7DCF9E06EB8B1C0684068FDF744
:108880009DFA0546E06EC0688089FDF793FA80077F
:1088900000D001202844E56E298901443869411A35
:1088A00003D4216D401A0028C4DDA06BF8B1E16B40
:1088B0003A69891A1BD569490988081AB4F9401020
:1088C000A0EBE10000B201440AB2A4F84020002865
:1088D00001DA404200B2B4F94210A0EBA100084412
:1088E000A4F8420000EBE200A4F84400A6637B88F1
:1088F000002B7DD0207E07287AD2A06AFA68584DD6
:10890000811A012924D41344C31A5B1C002B1FDCD9
:10891000686842898A420ADA0289521A93B203E0ED
:10892000038146810068891A42898A42F8DB4942FC
:1089300009B2FEF736FFBA89A06A2989821A891A14
:108940002981F860E9684860A16A401A07D572E099
:10895000101A04D5A07F40F00200A0776BE0A18D33
:10896000A06A4218F9688A1A521C002A63DC8842FD
:1089700061D1E8688089FDF71DFA800700D00120E9
:108980002989084480B27880A18D81422DD2E8687F
:108990008089FDF70FFAC0070ED0E8688089FDF7DF
:1089A00009FA00F03E00FDF703FA0146E868828903
:1089B00022F47C5211438181A08D2881E86880894E
:1089C000FDF7F8F9800702D52889401E28812989FA
:1089D0006868FEF7BFFEE8688089FDF7EBF980075D
:1089E00000D0012029890844788080B2F96800E02D
:1089F00026E00144A162A18D081AA0852046FFF758
:108A000035FB6868018909B178616E60E868808922
:108A1000FDF7D0F9C00703D0787840F020007870D7
:108A2000A07FC10702D020F0010014E040F0010057
:108A3000A077BDE8F0812046BDE8F04100F0A0BE7F
:108A4000A06AF9680A1A05D4A28D1044081A401CBD
:108A50000028EEDDA07F05E0F8020020E002002003
:108A6000A094002040F00200E2E770B5FE4E0546FB
:108A7000706800F114048089FDF79CF90521B1EBC1
:108A8000103F1ED270688089FDF794F96FF00401E1
:108A900001EB1030090C01EA8003002140F2B456CA
:108AA0000DE0605C00280CD001280BD0022804EBFC
:108AB000010009D04078002803D0084481B29942CF
:108AC000EFD370BD491C0CE04278042AF9D1091D8E
:108AD0009942F6D8408842BAB24200D802B932462A
:108AE000EA8689B2EBE72DE9FC5F0446DE4E002002
:108AF0000090307841071CD5207E022814D0A06A4F
:108B0000F1680A1A14D4A28D1044081A00280FDC48
:108B1000707840F008007070A07F20F00100A0770E
:108B20006FF00A00BDE8FC9F206D31698842EFD0EC
:108B300068E1800709D5207E022806D0032804D0EA
:108B4000A07F40F00200A0775CE1A07FC00602D4C5
:108B5000C64800686062002084F892002046FFF753
:108B600084FF207EDFF808A3DFF80883C24FC34DDF
:108B7000801E4FF001094FF00A0B0828D8D2DFE819
:108B800000F0046DBFC3FABFEFEE3078C106CFD559
:108B9000800757D5206FC0684068FDF70FF931692D
:108BA000401C88424BD134F8660F401C24F83E0923
:108BB000F0680246401C20602162A0607068521E6E
:108BC000C1892187C08960870420E26204F8100C03
:108BD00034F80E0FA4F13201363CFFF711FC00EB24
:108BE00080014FF6FF72E08602EA4101A4F84E10C0
:108BF000B4F84C10012900D1400024F84C0FA08B90
:108C0000401EA083606A01686162FFF710F8606A25
:108C10004C3C70B10020A08684F84600D4F8803027
:108C20005BB1002221462069984700900A3032D07B
:108C300086E74FF0FF30A086F0E70098F6E730783F
:108C4000C006A4D570688E4B8E4A01884088CDE955
:108C500000017188F0680144306943E03078C10652
:108C600043D5A16C3069411A012931D4216D411AD3
:108C700000292DDC0420207663692BB100222146D7
:108C80002069984710B909E06FF00D000A3002D052
:108C90002046FFF70EFB6FF0090043E7B4F84C5095
:108CA0002046FFF7D9FCB4F8640010B1401EA4F8C8
:108CB0006400E08E012D00D14000A4F84C007078D3
:108CC000800611D5A07F40F00200A077072050E079
:108CD00071686B4B0A884988CDE900127288F16887
:108CE0001144684A00F089FE8CE0800707D5A06A2D
:108CF000F168401E884202D1204600F0CFFE81E09C
:108D00002046FFF7A9FCDAE72046FFF7A5FC7078BC
:108D1000800630784FEAC06024D5002819DA206D2B
:108D20003169884215D1A07F40F00200A07720462B
:108D3000FEF794FF3868A04202D1C068386047E06F
:108D4000286070B3C068A042FAD12968E068C860A2
:108D50003EE0A07F40F00200A077082009E043E059
:108D600020E008E000284DDA206D3169884249D1C1
:108D70000620207646E02046FFF76EFC70788006DD
:108D800040D5A07F40F00200A0772046FEF766FFA6
:108D90003868A042D1D0286018B1C068A042FAD18A
:108DA000D3E715E02046FFF757FC3078C00629D5F9
:108DB000206D3169884225D12046FEF74FFF386883
:108DC000A042BAD0286018B1C068A042FAD1BCE76E
:108DD0008AF8009084F818B0D8F80010E160C8F85C
:108DE000004000F01BFF0DE02046FFF735FC307817
:108DF000C00607D5206D3169884203D1707840F0F4
:108E00001000707000208DE67CB5174E0546307856
:108E1000410770D4C1060DD57068194B194A0188F5
:108E20004088CDE900017188F0680144306900F0A4
:108E3000E4FD60E080075ED5687EFFF774FB040008
:108E400051D0104800682060688B60830C4800682F
:108E5000606070680188A18303212176F1680A4669
:108E6000491CA16221630FE0F8020020E00200200B
:108E7000D4020020F0020020EC020020F4020020C6
:108E8000280300202C030020C189A4F86010C089A9
:108E9000A4F86200A4F84E10521E62652869206191
:108EA00068696061287A00F08C002072E5480168EA
:108EB000E160046000F0B2FEE34901200870204642
:108EC000FFF7D3FDE08E211DFFF79AFAE08612210D
:108ED000204600F04BFA050008D000212046FFF79D
:108EE000A5F928467CBD4FF0FF307CBD2046BDE88B
:108EF0007C4000F0BEBC00207CBD2DE9FC4705464F
:108F0000D24E40680C46B060017801F00F0100EBD2
:108F100081007060880041422846FEF742FC00282C
:108F200073D12889142870D3C94F2146386801F0BD
:108F30001DFB0028F4D13878C0F303100E2864D04C
:108F400070688089FCF736FF000B8000414228469C
:108F5000FEF727FC0028E3D170680088FCF72AFFA1
:108F60000146706801804088FCF724FF0146706864
:108F700041804068FCF722FF014670684160F16063
:108F80008068FCF71BFF716888603061C889FCF756
:108F900011FF01467068C1818089FCF70BFF00F06A
:108FA0003F0C86F800C029895FEA8C7000D0012050
:108FB00008447080DFF88CA2A6480023DAF800404D
:108FC0000068A14671683A681AE0A78BB1F8008082
:108FD000474513D1678BB1F8028047450ED16768CA
:108FE00087420BD12768974208D12BB1E768DF6031
:108FF000C4F80C90CAF8004024B13FE02346E4686E
:10900000002CE2D1944B1C6813E0E7E0A38B0F889F
:10901000BB420DD1638B4F88BB4209D16368834249
:1090200006D12368934203D1204600F0DCF8D5E056
:10903000E468002CEAD1DFF824A20027DAF8000067
:1090400081460BE0438BB1F80280434504D10368AD
:10905000934206D080B12BB10746C0680028F1D1F9
:109060000AE048B12FB1C168F960C0F80C90CAF8A5
:109070000000FFF7C9FEB1E0002C7AD0DFF8E081F4
:1090800000275FEA0C70C8F800702A89A8F8082049
:10909000C8F80450C8F80C107761777003D5687B66
:1090A00040F001006873606F40B12046FFF72EF872
:1090B0000A3075D0606F08B1708818BB2046B46163
:1090C000FFF711FD0A306BD07078010706D5D4F890
:1090D00088207AB16FF00A0120690AE0C00612D533
:1090E000A07FC00606D4D4F888201AB16FF00B0117
:1090F0002069904721465348FEF7F5FE214602209D
:10910000FEF73AF94CE0B4F86420002032B1A36FC6
:1091100013B12146206998470A3041D07069F0B1F7
:10912000A17FC90605D5FEF739FA2046FFF7C1F839
:1091300036E0E56F3DB1D4F810C002460023214669
:109140006046A84705E00023024621461846FEF780
:10915000CCFF10F10A0F23D008B1706960677078F6
:10916000800619D5606F28B1417B41F02001417321
:1091700012E021E0A08DA0F53061683901D0401CDB
:10918000A085E56F2DB100231A4621462069A84726
:1091900000E000200A3003D02046B76100F069FBF0
:1091A000B7617761D8F804004446002802D0FEF782
:1091B000F5F96760BDE8FC878889FCF7FBFD40078F
:1091C0000CD47068234B224A01884088CDE9000105
:1091D0007188F0680144306900F00FFC2846BDE852
:1091E000FC47FEF7DBB91CB5184C21784A0726D49A
:1091F0008A0715D5826AE1688B1A16D4838D1A44C2
:109200008A1A002A11DC6068124B02884088CDE976
:10921000000260880E4A0144206900F0EEFB0EE077
:10922000C90702D00F4909684162618839B1817F5D
:1092300041F002018177BDE81C4000F01ABB00201C
:109240001CBD0000EC020020D4020020F802002027
:109250002C03002028030020F0020020E802002058
:10926000A0940020E00200202DE9F0410546881876
:109270000F46143081B2984600220120FEF7B6F95D
:10928000060023D0688B7468FCF792FD2080A88BC1
:10929000FCF78EFD6080C4F80480A86AFCF78CFDA2
:1092A000A060B808000300F5A04080B240F01000B4
:1092B000FCF77EFDA081E88DFCF77AFDE0810020BF
:1092C00020826082E98DA86A084428633046BDE8A0
:1092D000F0812DE9F0478046089E9A4691460F4658
:1092E000F00700D00420B10701D50C2100E00021D7
:1092F00045180420FEF731F8040011D0A6720026AC
:10930000C4E9006738891421401B20813846FEF7E4
:1093100048FA48B12046FEF78AFC0020BDE8F087F5
:109320003846FEF73BF9F8E760684068E060B8F857
:109330001A00FCF73DFDE1680880B8F81C00FCF756
:1093400037FDE16848805046FCF736FDE16848602B
:10935000A808000300F5A04040EA0900FCF728FD3A
:10936000E1688881E06846822046D7E7F8B5044680
:109370000026B0F86800771E0D46082804D3A07FA9
:1093800040F08000A07720E0A80700D50126F00774
:1093900000D00420B10701D50C2100E000210144D8
:1093A000B4F8660088B100221046FEF71FF90028C5
:1093B000E5D0009601462A462046E36DFFF789FF77
:1093C0000200DCD0E06E10B104E03846F8BDE26681
:1093D00004E0084601680029FBD102600020A4F8DF
:1093E0006A00A80707D0E06D401CE065B4F866008D
:1093F000401EA4F86600E80703D0A07F40F02000DC
:10940000A0775068FEF7FDF934F8681F0844208003
:109410000020F8BD70B5C46E05460CB909E00C46D5
:1094200021680029FBD1E0688089FCF7C3FC400774
:1094300004D02846BDE87040012197E70120FCF7E1
:10944000B7FC0146E068828911438181A87F40F022
:109450002000A877002070BD2DE9F0411D46DDE910
:109460000637089E0C46914211D2BF0707D49F7F52
:109470007F060CD41EB1DE6E0EB91B6F3BB104F239
:10948000B75121F00301914200D80A4691B200225F
:10949000FEF7ACF8002804D04189091B298004811B
:1094A000448114E72DE9FF4F054600208BB00646A6
:1094B0000390079005900990ADF82000074682467A
:1094C00004468146E88EB5F862109046B0EB510F25
:1094D00000D3480806900C9860B1287E11460428F5
:1094E0000DD007280BD0022809D0032807D06FF031
:1094F0000C0015E06FF00D000FB0BDE8F08F71B1FA
:10950000B5F86600904203D3B5F86800082806D382
:10951000A87F40F08001A9774FF0FF3000E00020E5
:109520000028E9D1E86EB5F868B0002862D0064698
:1095300000680028FBD1B07AC10700D00421800761
:1095400001D50C2000E00020338908441918069842
:10955000401A82B2B5F86A00ADF8200078B13746FB
:109560004146404500D201468946A0EB0900ADF8CE
:10957000200004EB0901A2EB09008CB282B2444541
:1095800038D2002A36D0002B34D0A8EB0400904209
:1095900000DD104680B204900E983746C00714D004
:1095A00001210E980095CDE9010108AB0320049933
:1095B000FFF752FF039000286AD00C98049A011913
:1095C0000398406801F0C2FF0BE0012203200499D8
:1095D000FEF70CF8039000285AD00C980119039854
:1095E00041600498204484B20398FEF70AF9584475
:1095F0001FFA80FB63E0A8EB040081B2DDE90520DF
:10960000801A80B2814200D8084604900E98C007A4
:109610001ED0BAF1000F19D000200E990095CDE9A7
:109620000110049808AB104481B20020069AFFF79D
:1096300013FF019000282BD00C9801190198426863
:1096400005981044049A01F081FF15E00120E4E739
:10965000012200200499FDF7C9FF070018D00C98DB
:1096600000222044786010460599FDF7BFFF019065
:1096700078B13946FEF7D4F80198FEF7C2F858449D
:109680001FFA80FBBBF1080F05D90198FDF786FF93
:1096900066E03846FAE709980090E86D0022031961
:1096A00028460199FFF715FE070059D0BAF1000FBF
:1096B0000CD00798076004980797204484B244456B
:1096C00099D3B9F1000F1BD0746813E0BA46F2E7E2
:1096D000218901EB09002081206850B96189606807
:1096E0004A4608440C9901F031FF618901EB0900F9
:1096F00060812468002CEBD1318901EB09003081B5
:10970000BDF82000A5F86A00039840B1706803997D
:10971000FEF786F803983189008908443081E6B164
:10972000C6F800A055F85C1F01EB080028606989A5
:10973000A1EB08006881A5F80CB067B1F86850B1DA
:109740000E98800707D40820FCF732FB0146F86822
:109750008289114381810020CEE6C5F86CA0E1E743
:10976000A87F40F08000A877039808B1FDF716FFA6
:10977000BAF1000001D0FEF768FA4FF0FF30BBE607
:109780007CB504460025006DFCF716FB034600225D
:1097900029462046FFF768FD050012D0A07F06216C
:1097A00020F00300A077607ACDE90001A37A221DA2
:1097B0002146284600F0B9FE2846FDF7EFFE0020BE
:1097C0007CBD6FF001007CBD7CB505460C46886A07
:1097D000FCF7F2FAE9688860E08DFCF7E9FAE968DD
:1097E000C881E18DA06A08442063EE68A87A143627
:1097F000C00709D0211D40F2B450FEF701FE40F031
:109800000170FCF7D9FA3060B4F934000026401C2E
:1098100000D1A6860CB1206830B9201D00F060FD93
:10982000002825D040682060A06B38B9F94800684E
:10983000A063E8684068FCF7C1FAE0636968A8893A
:109840008A88801A4A89121A4A8169680A89101A14
:1098500008816968E868221D4860E8680621068278
:10986000607ACDE90001A37A2146686800F05DFEC8
:109870007CBD2DE9F0470446E7480068A04201D1CD
:1098800000204BE5B4F86010B4F84C00814200D2DF
:1098900008468146A07FE56E80070ED54DB1E86889
:1098A0004068FCF78BFAA16C401A298901444945AC
:1098B00003D92046BDE8F04762E7D4F870804FF046
:1098C000000A5FEA080001D182E08046D8F8000073
:1098D0000028FAD17CE0E8688089FCF76BFA206FF9
:1098E000A8B1A17F11F0440F11D1E06E28B1026838
:1098F0006AB90089E28E904209D2B4F8660030B1AC
:10990000B4F86800082802D211F0A00F6CD02868C3
:10991000E066207E02280BD01020FCF749FA0146B1
:10992000E868828911438181A07F20F00300A0773D
:1099300021462846FFF748FFE8684068FCF73EFAF2
:109940000646E8688089FCF735FA800700D00120D8
:10995000298930440844216D091A00D52065E8683A
:109960008089FCF727FA800700D001202989C842A6
:109970002AD0C5F800A0206F70B1E8684068FCF7F5
:109980001DFA0646D8F80C004068FCF717FA301AA2
:1099900016D504F1700602E0256713E036683068DA
:1099A00050B1C0684068FCF709FA0746E8684068AB
:1099B000FCF704FA381AF1D430682860356006E004
:1099C000C8F80050A84602E02846FEF730F9E56ED8
:1099D00055B1E8684068FCF7F1F9A16C401A298993
:1099E000014449457FF677AFE06E08B9A4F86AA054
:1099F000A07F20F08000A07742E72DE9FC5F1746AA
:109A0000DDE90C9A884683461E4600221421012077
:109A1000FDF7ECFD050029D048466C68FCF7C8F955
:109A200020805046FCF7C4F960805846FCF7C4F922
:109A300060604046FCF7C0F9A06045F21400FCF7F6
:109A4000B7F9A08146F60B00E081002020826082F9
:109A50000621CDE90001FF2332463946284600F0B1
:109A600064FD2846BDE8FC5FFDF798BDBDE8FC9F9E
:109A7000016F002911D000E011460A68002AFBD1CD
:109A8000C26E0A60016FC1660021016790F846202E
:109A9000521C80F846208163EBE670472DE9F041C7
:109AA000066F0546002E20D0306805F16C0428674B
:109AB00000E02468206850B1C0684068FCF77EF977
:109AC0000746F0684068FCF779F9381AF1D4206845
:109AD000306026603168002009B9A5F86A0015F8E1
:109AE000461F491C05F80E192860DAE410B5044633
:109AF000006F002825D0A07F400722D42046FFF722
:109B0000CDFFB4F84C00B4F86010884201D9480881
:109B100000E04008A4F84E0081B2E08EB1EB400FA7
:109B200005D24FF6FF7101EA4001A4F84E1089B248
:109B300000EB40000844A4F84C00A07F40F0040073
:109B4000A07710BD7CB50446006D401EFCF734F9CB
:109B50000346002211462046FFF786FB05000ED083
:109B600006210020CDE90001A37A221D21462846C6
:109B700000F0DBFC2846BDE87C40FDF70FBD7CBD56
:109B80002DE9FC41046F054614B9EC6E002C3ED063
:109B9000E0688089FCF70EF9C00701D02089C8B1C0
:109BA00000205FEA000817D00022E0680021436827
:109BB0002846FFF759FB070029D07E68B8F1000F4F
:109BC0000CD01120FCF7F4F8B18921F47C51084342
:109BD000B0810DE00120E4E70122E6E76068238917
:109BE00006F114010289D21A93B20122FDF793FE05
:109BF00006210020CDE90001AB7A2A1D294638460E
:109C000000F093FC3846BDE8FC41FDF7C7BCBDE859
:109C1000FC810000E00200201003002070470000DB
:109C200070472DE9F84FD0F804B0824602899BF8BE
:109C300000000F4600F00F00082101EB80018A426E
:109C40007ED3800041425046FDF7ABFD002877D11E
:109C5000DFF84493DAF804403946D9F8000000F000
:109C600085FC05462088FCF7A5F806466088FCF7C9
:109C7000A1F80024DFF824E30346442805D0C849AE
:109C8000002210464C68009444E0432E46D1786A86
:109C9000E8B34068D8B3011D05D0416819B1DEF8BA
:109CA000002091423AD104463DE0618A99422FD189
:109CB00015B99CB1216889B1D4F80080D9F800C0E9
:109CC000E0450BD025B34CB1B8F1000F06D0B96810
:109CD00008EA01080CEA010CE04519D118B9217C09
:109CE000490700D42046A18AB14211D1211D05D0D7
:109CF000616819B1DEF800C0614509D12AB1E16897
:109D0000D160A749009AE2604C602CB10BE005E0FD
:109D10002246E468002CC8D1040004D17968D9F83F
:109D20000000814227D16FF007015046FDF739FD51
:109D300030B95CB1A5691DB10096984B524600E060
:109D400019E02146E069A847BDE8F88F9DB999F868
:109D50000000C0F303100E280DD09BF8000000F0A7
:109D60000F01082000EB81015046FDF71AFD032189
:109D7000504600F0C2F95046BDE8F84FFDF70EBC62
:109D80002DE9F047864E00256FF0070973680FE054
:109D9000984201D101250AE05C8A944207D183B33D
:109DA0001F6877B369B30C685CB3A7422AD0DB683D
:109DB000002BEDD101B109680160FAB97768002480
:109DC0004FF6FF7C4FF440484FF4804A3288511CD4
:109DD0003180624501D1A6F800803946328809E019
:109DE0004B8A934205D1641CA4B25445EED30022A1
:109DF00003E0C9680029F3D192B212B1428225B1C1
:109E000006E0FFE74846BDE8F0877168C160706012
:109E10000020F8E72DE9FE4F9246428ADDF83090A7
:109E200098460F46054622B90146FFF7A9FF0028CC
:109E300014D108213846FDF7B4FC88B1002208216E
:109E40000120FDF7D3FB040006D0388948B139461C
:109E50002046FDF7F9FC04E04FF0FF30BDE8FE8F2F
:109E60003C46688A6668FBF7A3FF30804046FBF7F4
:109E70009FFF70800020F0806DB1286858B1D9F83C
:109E8000041088420AD0BC4202D02046FDF786FB6F
:109E90006FF00500E2E709F1040800E0A846208918
:109EA000FBF786FFB080697A11228DE80602AB7A53
:109EB00052464146204600F0E5FA0546BC4202D033
:109EC0002046FDF76BFB2846C8E7F8B507461D4658
:109ED0000E461446104600F003FA38B100902B46A7
:109EE000224631463846FFF795FFF8BD6FF0030074
:109EF000F8BD838A021DE8E770B51646428A0D4612
:109F0000044622B90146FFF73BFF002810D155B1A6
:109F100028686060A682207C214A40F004002074FA
:109F20005068014606E00020F3E7844201D100209A
:109F300070BDC0680028F8D1E1605460F7E70021E7
:109F400041608182017C21F0040101747047C0E905
:109F50000612704712494A68824209D1D2684A60A3
:109F600008E0D16819B1814201D1C168D1600A46C7
:109F7000002AF6D101460120FDF7FEB910B50120F7
:109F8000FDF7EBF9040004D0202101F0F8FAFF20DE
:109F9000A072204610BD00002C03002028030020E2
:109FA000140300202DE9FE4F456804468A462878B0
:109FB00000074FEA9068C8F100010F462046FDF700
:109FC000F0FB002862D1208904285FD36068007804
:109FD00000285BD0082859D14B4901260868C0F3F6
:109FE00003120E2A00D100268946514600F0BEFA1F
:109FF000E8BBE6B32089082848D3204600F04BF997
:10A00000A8BB22212046FDF7CCFBD0B1414620461B
:10A01000FDF7C7FB58BB218900220220FDF7E6FAB5
:10A02000060033D02146FDF72AFC00BB39463046F6
:10A030007568FDF7B6FBD0B92046FDF7AFFA344698
:10A0400005E06FF021012046FDF7ABFB78B96068B1
:10A05000D9F80010E9602D490026096829610670C9
:10A060004680FF2028726E814146204600E00DE0C8
:10A07000FDF797FB50B90121CDE90061FF230022D4
:10A08000CDF808A02049204600F0FCF92046BDE8A4
:10A09000FE4FFDF783BA2DE9FE4391460E46074673
:10A0A000002224210120FDF7A1FA050023D06C68CD
:10A0B000D7F804801C22267084F801900026A68020
:10A0C000E68068687968083001F040FA668069893E
:10A0D000204600F0DAF86080D8F80C0002900120E9
:10A0E000CDE90060FF2302AA0021284600F01DFAF6
:10A0F0002846FDF753FABDE8FE830A460321CAE766
:10A100000A460B21C7E700002C030020280300208B
:10A1100018B50022ADF8002010F001030BD0002983
:10A1200009DD10F8014B8DF80140491E03E030F8BD
:10A13000024B891E22440129F9DC002902DD007846
:10A140008DF80000BDF800001044010C11FA80F0F9
:10A15000010C11FA80F023B1C1B2C0F3072040EA2C
:10A16000012080B218BD2DE9F0470024994617461A
:10A17000884605462646DDF820A013E06989686810
:10A18000FFF7C6FF2044010C11FA80F4A87AC0073B
:10A1900007D0C6F10100C6B2E0B2C4F3072141EA1C
:10A1A00000242D68002DE9D126B1E0B2C4F30721C7
:10A1B00041EA0024D8F8000014FA80F101EB1041C4
:10A1C000386811FA80F101EB10444846FBF7F0FDC6
:10A1D00004445046FBF7ECFD2044010C11FA80F0DA
:10A1E000010C11FA80F0C04380B2BDE8F0872DE980
:10A1F000F05F00249B46924689460546A0460B9E8A
:10A200001AE06F89B74200D9374639466868FFF7C8
:10A210007FFFF11B20448EB2010C11FA80F4A87A62
:10A22000C00708D0C8F1010000F0FF08E0B2C4F395
:10A23000072141EA00242D680DB1002EE1D1B8F1CB
:10A24000000F04D0E0B2C4F3072141EA0024D9F89A
:10A25000000014FA80F101EB1041DAF8000011FA65
:10A2600080F101EB10445846FBF7A2FD04440A9824
:10A27000FBF79EFD2044010C11FA80F0010C11FA4D
:10A2800080F0C04380B2BDE8F09F10B5FFF740FFFB
:10A29000C04380B210BD70B500240546264613E0C9
:10A2A00069896868FFF734FF2044010C11FA80F4D3
:10A2B000A87AC00707D0C6F10100C6B2E0B2C4F365
:10A2C000072141EA00242D68002DE9D126B1E0B232
:10A2D000C4F3072141EA0024E04380B270BD0000CE
:10A2E00010B504469E480AE090F83510C90706D01C
:10A2F0008168226843680A400B409A420AD000688D
:10A300000028F1D19748006818B190F83510C907B6
:10A3100000D1002010BD2DE9F84F06460120009025
:10A3200075680F4604212878B1EB101F0FD100F09B
:10A330000F004FF6FF7101EA80096888FBF73AFDCC
:10A34000728901464A4502D33089884203D2304699
:10A35000FDF724F960E03046FDF7FCF982482969F1
:10A36000A0F1040B0160EA684FF001083C46824608
:10A37000CBF8002094F83500C0070DD0201D0BD07D
:10A38000616849B1DAF80000884203D0214600F044
:10A39000EDF808B174B116E0B8F1000F04D07048C0
:10A3A0004FF00008046800E02468BC4200D1246833
:10A3B000002CDFD1687A112805D105EB090040880F
:10A3C000B0F5884F26D0009870B1DBF8000058B186
:10A3D000D846394600F0CAF80028B8D198F80000ED
:10A3E000C0F303100E28B2D0002CB0D0E88830F0B3
:10A3F000C00005D0304600F09AFA06000CD075680F
:10A40000594C3946103C3046C4E90175FDF756FBFE
:10A4100028B12FE03C46E7E70020BDE8F88F687AD6
:10A42000012814D006280DD0112806D03946DAF8B4
:10A43000000000F09BF878B119E039463046FFF78C
:10A44000F0FB17E039463046FEF757FD12E039467B
:10A450003046FFF7A7FD0DE09AF80000C0F30310A7
:10A460000E2804D0022130467560FFF746FE3046C4
:10A47000FDF794F800206060A060CBF80000CAF8F7
:10A480000000C9E72DE9F84F9846DDE90BA6DDF895
:10A4900028B017008946054632D01421FDF781F90E
:10A4A00010B16FF00100B8E76C6884F8088084F898
:10A4B00009A0386820614520207084F801B02889FF
:10A4C000FBF776FCDFF8A08060804FF0000AA8F16F
:10A4D0001008A4F806A0B8F80000FBF769FCA080FB
:10A4E000B8F80000401CA8F80000B9F1000F02D035
:10A4F000D9F8000000B97068E060A4F80AA003E091
:10A5000068686F4600690090B08D40B1298981422A
:10A5100005D93A463146284600F0E3FA7DE77369EB
:10A520003A4629463046984777E72DE9FE4380466C
:10A53000DDE90A541F4616468C461046FFF7D0FE4A
:10A5400050B10095CDE901403B4632466146404658
:10A55000FFF798FFBDE8FE836FF00300FAE7000005
:10A56000C8020020CC0200202C030020421C12D084
:10A5700088B191F8352092070BD54A68824208D0FD
:10A58000896800EA01030A40934202D10143491C51
:10A5900001D0002070470120704710B5FBF70CFC7C
:10A5A0004FF00041084207D04908FBD106E00842BD
:10A5B00001D0002010BD49080029F8D1012010BDAC
:10A5C0002DE9FF4102780C4603466D46A2F13000AA
:10A5D0000A285ED200200A21302A06D113F8012F62
:10A5E000782A09D0582A07D00821A2F13006092E6E
:10A5F00004D800FB016014E0102112E0102913D1EF
:10A60000A2F16106052E03D9A2F14107052F0BD84F
:10A61000192E01D8612600E04126921B0A3242EA37
:10A62000001013F8012FE0E72E2A0DD09AB1202A4E
:10A6300011D00C2A0FD00A2A0DD00D2A0BD0092ACE
:10A6400009D00B2A25D106E003A98D4221D201C5EC
:10A6500013F8012FBAE76946691A012202EBA1013A
:10A66000052923D2DFE801F01522030A1300B0F117
:10A67000807F0ED2009940EA016017E0B0F5803F7C
:10A6800007D20099019A090641EA02410DE0FF282C
:10A6900003D9002004B0BDE8F0810099019A0906B1
:10A6A00041EA0241029A41EA0221084314B1FBF750
:10A6B00083FB20600120EDE708B56946FFF780FFC6
:10A6C00008B1009808BD4FF0FF3008BD2DE9FC43EC
:10A6D0000023006889466C461D464FF00A0801AF0A
:10A6E000009000202678B6FBF8FC08FB1C6CB6FB3B
:10A6F000F8F626700CF1300C07F800C0401CC0B210
:10A70000002EEFD106E01E465B1C964209DA3E5C45
:10A7100001F8016B401EC0B2F5D218465B1C904296
:10A7200002DB0020BDE8FC832E206D1CEDB2641C12
:10A7300001F8010B042DD4D3002001F8010C484688
:10A74000F0E710220049C1E7B09400202DE9F04164
:10A7500044680646884660680025818891B900688B
:10A760007060142206F10801606800F0EFFE01211C
:10A770002046FFF7C5FC2046FDF743F80546204676
:10A78000FCF70CFF74680AE06068274604683846E6
:10A79000FDF737F8284485B23846FCF7FFFE002C59
:10A7A000F2D14146304600F04FFAF7480188491B84
:10A7B00001802846BDE8F08170B5F3480025446863
:10A7C0000BE0E07F20B1401EE0772546246804E0DE
:10A7D000204624682946FFF7B9FF002CF1D170BD4F
:10A7E0002DE9F041DFF8A0830F4605460026002240
:10A7F00013461446D8F804001AE04169D5F80CC095
:10A80000614509D18169D5F810C0614504D18189BC
:10A81000B5F804C0614507D0641C22B1C17F92F82D
:10A820001FC0614500D80246016801B103460846D1
:10A830000028E2D122B119461046FFF787FF0644EF
:10A84000BE4201DA012CD2DC3046B3E72DE9F047F5
:10A85000D1F8048007460E4600240125B8F802000E
:10A86000FBF7A8FA014698F8000000F00F004042FC
:10A8700001EB8009B8F80600FBF79CFAC004726887
:10A88000030C0020106003EB090093801FFA80F88E
:10A89000A2F8068079681DE04868B0F804C06345F6
:10A8A0000DD2116044B1B4F806C0634532D380883C
:10A8B00080452FD8266000E07E6069B115E029D080
:10A8C000C1888B4226D31CB1E188614500D00025A8
:10A8D000016804460029DFD134B12660E088918800
:10A8E000884202D0002500E07E60B87FC0070DD00E
:10A8F0005DB178684068808830B9116829B14868CE
:10A90000D1888288914203D000252846BDE8F0878F
:10A910000246F2E73046FCF774FF01469A48028887
:10A92000511A01803046FCF739FE0020EEE72DE990
:10A93000F14F002700984468207800F00F000528A8
:10A940007ED1E088FBF736FAC0044FEA104A6088EF
:10A95000FBF730FA217801F00F01494200EB81004A
:10A960001FFA80F90098FCF74CFF874D06462888AF
:10A9700030440A2809D931462046FFF731FF002824
:10A980005ED0288830440A285AD8A8466D684FF00F
:10A99000000B0DE06869E168884207D1A869216968
:10A9A000884203D1A889A188884204D02F462D6807
:10A9B000002DEFD106E02DB1E088FBF7FBF9C004D4
:10A9C00024D02EE00520FCF7C8FC05000AD1314652
:10A9D0002046FFF705FFB04216DB0520FCF7BDFC63
:10A9E000050011D0202100F0CAFD0320E877D8F837
:10A9F000041029601422214605F10800C8F804500B
:10AA000000F0A4FDE5B10CE05D46FBE7E889FBF74B
:10AA1000D1F9C00405D01422214605F1080000F048
:10AA200095FDB8F800103144A8F80010A079800610
:10AA300008D4A87F40F00100A8770AEB090000E0E5
:10AA40003FE0A88328460099FFF700FF002836D092
:10AA5000A88B14221430A883686805F108014668A1
:10AA60003046346800F072FDA88BFBF7A1F97080C6
:10AA7000A6F806B0A6F80AB014213046FFF705FC88
:10AA800070816FF0130AD5F8049009E05146204612
:10AA90006668FCF786FE21464846FCF7C1FE34682E
:10AAA000002CF3D13946284600F0CEF84846FCF792
:10AAB000A8FEB8F80020101AA8F800004846BDE823
:10AAC000F88F0098FCF76AFD0020F8E710B50446FF
:10AAD000406908B1FCF762FD2046BDE8104000F077
:10AAE000C2B82DE9F74F8AB004460B98142500260A
:10AAF000878D60680690C088FBF75CF9C0F30C0195
:10AB000000F400500391089020891438143F1FFA74
:10AB100080F9F81707EB5070C0F3CF000797049047
:10AB200084E00799894501DC012000E000200399B9
:10AB3000089AC1F30C0111430591C8B148461FFAA8
:10AB400080FB002214210220FCF750FD0290A8B1E6
:10AB500040681422069900F0F9FC0298D0F804A08D
:10AB60006068284460606089401B60815D4634E015
:10AB700041F4005005900498C000E0E74FF0FF302A
:10AB80000DB0BDE8F08F0000300300206689AE42B2
:10AB900000D92E4606B30620FCF7DFFB07004BD09A
:10ABA0006068CDE900063B46022231460320FCF7EF
:10ABB000A7FD5FEA000843D02046FCF72BFE2C4897
:10ABC000C7E9040441460298FCF72AFEA81B0504C5
:10ABD0002D0C04D02468D9E72468002DD6D1354641
:10ABE0000598FBF7E5F8AAF806000BF1140080B20F
:10ABF000FBF7DEF8AAF802000021AAF80A101421D7
:10AC00005046FFF742FBAAF80A000B980C9A0299EB
:10AC1000436998470298FCF7C1FCA9EB0B001FFAA7
:10AC200080F9DDE90301084480B20390B9F1000F17
:10AC30007FF477AF0020A3E70298FCF7AFFC9DE715
:10AC4000384600F010F8F7E70A4A30B40B4654686B
:10AC50000168844201D1516000E01960014630BCB6
:10AC60000520FCF789BB01460620FCF785BB0000E8
:10AC7000CDAA00083003002070B5FB4D00EB800426
:10AC8000002655F8240018B1FCF788FC45F824602C
:10AC900005EB8400867470BD70B5F34D002404EBA1
:10ACA000840005EB8000827C92B1C17C491CC9B252
:10ACB000C174F02906D2012A02D0032A06D007E087
:10ACC000022905D32046FFF7D7FF01E00221817456
:10ACD000641CE4B20A2CE2D370BD2DE9F35F4FF09F
:10ACE0000A0B00210446DA46584688468C46D94667
:10ACF0000F46DD4B01EB810E03EB8E020A28937C9D
:10AD000008D0ABB154B125685668B54206D148B2F7
:10AD1000BDE8FC9F002BF5D148B209E0012B15D00E
:10AD2000022B05D3D27C624502D34FFA81FA9446B6
:10AD3000491CC9B20A29DCD301994FF0FF328907B7
:10AD40003ED40A2814D016DAC5B228E0C64B53F810
:10AD50002E3033B1D67CBE42EAD34FFA81F9374662
:10AD6000E6E7D57C4545E3D34FFA81FBA846DFE70C
:10AD70000198C00724D0BAF10A0F02DA0AF0FF05E1
:10AD80000AE0BBF10A0F02DA0BF0FF0504E0B9F1AB
:10AD90000A0F15DA09F0FF052846FFF76DFF34B1F9
:10ADA000B14805EB850200EB820021684160AE48A6
:10ADB00005EB850200EB82000021C17468B2A7E7B1
:10ADC0001046A5E770B5A84E0546002404EB8400A4
:10ADD00006EB8000817C29B18068A84202D1204620
:10ADE000FFF74AFF641CE4B20A2CEFD370BD70B5C4
:10ADF00008461C4615460221FFF76FFF00280DDBB1
:10AE0000994900EB800201EB82018A7C022A05D37A
:10AE100001F10C02091D2A60216070BD4FF0FF3066
:10AE200070BD2DE9F84F90468946050060D0B8F80E
:10AE30000A002A2859D3D8F804604FF4807A34469F
:10AE400034F80E0F504550D1207906284DD1607945
:10AE500004284AD16088082847D1D4F80E00009011
:10AE6000A169281D05D0686818B1814201D1012768
:10AE700000E000270FB1012300E0022304F10802E3
:10AE80006946284600F0AFF9E088504503D0B0F598
:10AE9000007F2AD125E01FB30220FAF789FFE08066
:10AEA000D4F80E00A0616868C4F80E00A068C4F869
:10AEB0001200A089E082A0683060A089B080D9F833
:10AEC0000010A160B9F80400A081D9F80010C6F8FC
:10AED0000610B9F804007081AA69414628469047D7
:10AEE00003E069462846FBF7BCFD4046FCF756FBED
:10AEF000BDE8F88F1FB501235C4C021DCDE902139C
:10AF0000CDE9002400F12F031946A21F00F0A7F994
:10AF100004B010BD70B505460E46534802EB8201E1
:10AF200000EB8104A07C022809D1E07CE42806D350
:10AF3000211D2846FFF7DEFF08B90320A07404F1A5
:10AF40000C0305F12F0231462846BDE8704000F0A1
:10AF50003AB92DE9F74F82B0884602984FF0FF3B8F
:10AF60002F300090086815465F460299FFF7FEFAF9
:10AF7000D8B9D8F80000C0F303110E2915D0B8F1E4
:10AF8000000F12D088B101214046FFF7A6FE040051
:10AF90000DD4DFF8D4A004EB84090AEB8906B07C59
:10AFA00040B1012808D03DB10DE06FF00D0005B0B3
:10AFB000BDE8F08F0120B07441460298FFF79AFF78
:10AFC0000746002DF3D0B07CD04602280AD328488B
:10AFD00006F10C0329460470009A029800F0F3F879
:10AFE000074628E0012826D100222846017B0129B6
:10AFF00003D100680028F9D172B101890022032031
:10B00000FCF7F4FA040015D02946FCF738FC40B1EF
:10B010002046FCF7C3FA0DE02C462846FCF7FAFB65
:10B0200044B158F8290008B1FCF7B8FA48F82940AB
:10B03000002700E05F463846B9E72DE9FC410E469F
:10B04000044615460E213046FCF7ABFB18B16FF0F5
:10B050000100BDE8FC8121462868FFF787FA48B166
:10B06000024B9B1F43E00000C09400204AD9000817
:10B07000380300202868C0F303110E2922D0A168EC
:10B08000636800EA01020B409A420BD080B2A0F53F
:10B090007E41A93906D014F10C0F2FD0E06868B3B7
:10B0A00004F10C05964B974A187800EB800102EBEF
:10B0B00081018F7C022F24D32F6849688F4220D1D1
:10B0C00002462CE001208DF8000000208DF80100E0
:10B0D0005E208DF8020068786B4600F07F008DF8E6
:10B0E0000300A8788DF80400E8788DF8050004F1D5
:10B0F0002F023146204600F066F8AAE76FF0030001
:10B10000A7E7002000EB800102EB81018F7C022F7A
:10B110000AD32F6849688F4206D1C2B21A703146ED
:10B120002046FFF7F7FE94E7401C40B20A28E9DB0F
:10B13000324629462046FFF70CFF8AE770B50446E1
:10B1400040890D460E283AD9606801788689CA0779
:10B1500014D0012905D006226B4900F058FA48B1F5
:10B160000CE0417851B980785E2807D1607B40F0CF
:10B17000100002E0607B40F008006073082E03D0EE
:10B18000B6F5C16F1BD10EE095F83500800616D5D7
:10B190006FF00D012046FCF704FB80B929462046DC
:10B1A000FFF7B9F809E095F83500800607D5224683
:10B1B00005F12F012846FFF734FE002070BD204620
:10B1C000FCF7ECF9F9E730B44C681D6825609B8802
:10B1D000A3801368C4F80630928862810822A28195
:10B1E000826930BC10472DE9F0411F4615460E001C
:10B1F000044631D0306870B32146FFF7B7F950BB31
:10B200003078C0F303100E2826D039463046FFF7B9
:10B2100064FD00281DDB3B4A00EB800102EB81004E
:10B220000223837484602B68C360AB88038200238D
:10B23000C37452F821605EB142F821302B4604F10C
:10B240002F0231462046FFF7BEFF3046FCF7A6F935
:10B250000020BDE8F081FFE76FF00D00F9E72DE970
:10B26000F05F9046894682461F4600222A2103202D
:10B27000DDF82CB0FCF7BAF906003DD075680D98E2
:10B2800005F10E04FAF794FDE0803868A060B888F4
:10B29000A081DBF80010C4F81210BBF80400E082B3
:10B2A000D8F800102960B8F80400A880D9F8001078
:10B2B000C5F80610B9F8040068810A98314600689C
:10B2C000C4F80E000C980068A0614FF480702080D4
:10B2D0000820608006202071042060714FF4C16056
:10B2E000A881DAF818205046904704463046FCF70B
:10B2F00055F92046BDE8F09F4FF0FF30FAE7000017
:10B3000038030020C094002044D900082DE9F05FE4
:10B3100080480E460568002081460446D5F808A0FE
:10B3200037E02868002802DA6FF0010036E0B6F84E
:10B330000A80002719E0A4F2F452524200F006F904
:10B34000ED682868002802DA6FF0070026E0D5F8DB
:10B3500008A0A9EB04003F1B00F2F450ABF2F45834
:10B360001FFA80F9002407F2F45708EB040B40F2AF
:10B37000F45170688B4500EB07010AEB0400DAD842
:10B38000424600F0E3F809EB080080B23668444416
:10B390008146002EC5D1FAF7CBF800205E494A69F4
:10B3A000920603D520224A6100224A60BDE8F09F40
:10B3B00070B5054600F05DF8040009D02A692946F9
:10B3C0009047050002D02046FCF7E8F8284670BDFB
:10B3D0004FF0FF3070BD10B550A18162732180F82D
:10B3E0003610742180F8371050494161504981610D
:10B3F00000F002F8002010BD70B50446062084F865
:10B400002E004C48017984F82F10417984F83010CF
:10B41000817984F83110C17984F83210017A84F886
:10B420003310407A84F8340004F12F010020F9F73A
:10B43000CBFF40F2DC50A085222084F835000422A6
:10B440003D493E48FAF723F904223D493D48FAF7C1
:10B45000C3F83A4D00244FF4400605EB4410314642
:10B46000FAF752F9641C042CF7DBBDE87040F9F7D9
:10B470002EBF2DE9FF5F00246846FAF704F89DE827
:10B4800007008946039281B203221046FCF7AEF80A
:10B49000019020B3039F054640F2F45BB5F80A80A3
:10B4A00000260DE0A4F2F452524200F04FF8FF687B
:10B4B000D7F80890361BAAF2F458002406F2F45686
:10B4C000686808EB040ADA4509EB04013044E9D85E
:10B4D000424600F03BF82D684444002DDED10021A7
:10B4E000194B4FF00042039802E00260C068491C0B
:10B4F0001C68A4688C42F8D8196800208860064946
:10B500004A69120602D580224A618860019804B017
:10B510004CE700008C02002000900240544D2D4565
:10B5200054482D4465766963650000003BB000080F
:10B530000DB3000868040020842B00203413002081
:10B54000B4130020B41200209402002040EA01034A
:10B550009B0703D009E008C9121F08C0042AFAD2C9
:10B5600003E011F8013B00F8013B521EF9D270478D
:10B57000D2B201E000F8012B491EFBD27047002235
:10B58000F6E710B513460A4604461946FFF7F0FFE2
:10B59000204610BD421E12F8013F002BFBD111F8CE
:10B5A000013B02F8013B002BF9D1704730B505464D
:10B5B0002A460B4612F8010B13F8014B08B1A042C2
:10B5C000F8D01CB1002802D06D1CF1E7284630BD30
:10B5D000CAB2401E10F8011F8A4202D00029F9D1D8
:10B5E00000207047421C10F8011B0029FBD1801A73
:10B5F000704710B5002200E0521C835C8C5CA342B3
:10B6000001D1002BF8D1D8B2E1B2401A10BD30B54B
:10B6100004460020034600E05B1C934203D2E05C3A
:10B62000CD5C401BF8D030BD034611F8012B00F86B
:10B63000012B002AF9D11846704730B50546002085
:10B64000034600E05B1C934205D2EC5CC85C201A08
:10B6500001D1002CF6D130BD70B5064600F0A6FB36
:10B66000046805460A220021304600F05CF82C6090
:10B6700070BD00F0004230F000400AD0C10D01F56D
:10B680006071C0F3160042EA0151C208400711433D
:10B69000704700200146704730B50B460146002038
:10B6A0002022012409E021FA02F59D4205D303FA84
:10B6B00002F5491B04FA02F52844151EA2F1010205
:10B6C000F1DC30BD2DE9F05F0546002092469B4637
:10B6D00088460646814640241BE0284641464746A8
:10B6E000224600F032FA53465A46C01A914110D30E
:10B6F00011461846224600F019FA2D1A67EB010888
:10B700004F4622460120002100F010FA17EB0009F5
:10B710004E41201EA4F10104DFDC484631462A4692
:10B720004346BDE8F09F2DE9F04791460F4680461D
:10B730000446002614F8015B2DB100F029FA0068D8
:10B74000405DC007F6D12B2D02D02D2D18D0641EE0
:10B750004A463946204600F01FFA27B13968A1420F
:10B7600001D1C7F8008071054FF002040BD54042AB
:10B77000002803DD00F01AFB0460A007BDE8F08795
:10B7800046F48066E4E70028F8DA00F00FFB046076
:10B790006FF00040F2E72DE9FE4F804681EA03009A
:10B7A000C00F0C46009021F0004123F00045B8EB9B
:10B7B0000200A94105D24046214690461C460B4650
:10B7C000024623F00040104347D0270DC7F30A007C
:10B7D000C3F30A510290401A019040286BDAC3F378
:10B7E000130040F4801B0098924620B10023D2EB56
:10B7F000030A63EB0B0B01985946C0F14002504617
:10B8000000F094F906460D4650465946019A00F05C
:10B81000ACF910EB08006141002487EA115284EA78
:10B82000E7731A4340D0009A62B3019A012A4FEAA3
:10B83000075215DC001B61EB02014FF0004202EAE7
:10B840000752CDE90042001C41F5801132462B46DB
:10B8500000F000FA03B0BDE8F08F40462146F9E75A
:10B86000001B61EB0201001C41F5801300185B41D5
:10B870002018A2F5001747EB030140EAD570B6196E
:10B880006D4111E06D084FEA360645EAC0754FEA92
:10B890000752001B61EB0201001C41F580114908B1
:10B8A0004FEA30000019514132462B4603B0BDE843
:10B8B000F04F00F0C0B90098012240000023D0EB07
:10B8C000020263EBE073009821464FEAE074B8EBA4
:10B8D000000061EB0401E9E783F000435BE781F0DE
:10B8E000004158E72DE9FE4F81EA030404F00044CB
:10B8F00021F0004100944FF0000B23F0004350EA88
:10B9000001045ED052EA03045BD0C3F30A54C1F3CE
:10B910000A552C44A4F2F3340194A0FB0254C1F361
:10B92000130141F48011C3F3130343F4801301FBAB
:10B93000024400FB034E840A970A44EA815447EA12
:10B940008357A4FB076802958D0A05FB07854FEA1C
:10B95000932C04FB0C542705029D4FEA065847EA36
:10B960001637B5EB08056EEB070C870E920E47EA0B
:10B97000811742EA8312A7FB0201B6EB0B0164EBCD
:10B9800000042B0D43EA0C335E1844EB1C50DA46DE
:10B990005146E7FB0201C5F313044FEA0B3343EAB8
:10B9A00014534FEA0432019C43EA0603A4F10C0449
:10B9B0000294009CCDE900B400F04CF903B0BDE85E
:10B9C000F08F00200146F9E72DE9F04D81EA0304EC
:10B9D00004F0004B21F0004514464FF0000A23F01C
:10B9E000004150EA050220D054EA01021DD0C5F3FF
:10B9F0000A570246C5F31303C1F31300C1F30A56F5
:10BA000040F4801543F48013A7EB0608101BD646BC
:10BA100008F2FD3873EB050002D308F1010801E0DC
:10BA200092185B41B8F1000F03DA00200146BDE82F
:10BA3000F08D00204FF48011064684460EE0171B5F
:10BA400073EB050705D3121B63EB050306434CEAB2
:10BA5000010C49084FEA300092185B4150EA010797
:10BA6000EDD152EA030012D082EA040083EA050114
:10BA7000084305D0101BAB4106D20122002306E08B
:10BA800000224FF0004302E06FF0010253101AEB66
:10BA900006004CEB085110EB0A0041EB0B01BDE82E
:10BAA000F04D00F0C8B8C1F30A52C1F3130140F2DF
:10BAB000FF3341F480119A4202DA002001467047B8
:10BAC00040F233439A42A2F2334202DC524200F087
:10BAD0003CB800F02BB8000030B5041E71F1000432
:10BAE00004DB4FF00044404264EB0101141E73F18B
:10BAF000000405DB1C464FF00043524263EB040395
:10BB0000994208BF904230BD064C074D06E0E06800
:10BB100040F0010394E8070098471034AC42F6D394
:10BB2000F4F748FB6CDF00088CDF0008202A04DBF8
:10BB3000203A00FA02F1002070479140C2F1200340
:10BB400020FA03F3194390407047202A04DB203A7F
:10BB500021FA02F00021704721FA02F3D040C2F12D
:10BB600020029140084319467047202A06DBCB1774
:10BB7000203A41FA02F043EAE07306E041FA02F3A8
:10BB8000D040C2F12002914008431946704700009E
:10BB900000487047D4D900082DE9F05F824600784C
:10BBA000002715468B460AF10104B946302801D01A
:10BBB0009DB113E014F8010B0127782803D0582811
:10BBC00001D045B10AE00DB1102D07D10027102595
:10BBD00014F8010B02E0082500E00A250026B04613
:10BBE0000EE005FB080005FB06F1012701EB1046FE
:10BBF0001FFA80F8B6F5803F00D3B94614F8010B60
:10BC0000294600F075F80028EBDABBF1000F05D0EB
:10BC10000FB1641E00E05446CBF80040B9F1000FAC
:10BC200006D000F0C3F802210160C81EBDE8F09FF5
:10BC300048EA0640FAE710B5141E73F1000408DA6A
:10BC4000401C41F1000192185B411A4301D120F0E0
:10BC5000010010BD2DE9F04D92469B4611B1B1FA9D
:10BC600081F202E0B0FA80F220329046FFF75EFFE8
:10BC700004460F4640EA0A0041EA0B0153465A4681
:10BC8000084313D0114653EA010019D0C8F140020D
:10BC90005046FFF75AFF05460E4650465946424663
:10BCA000FFF744FF084305D0012004E02046394651
:10BCB000BDE8F08D0020054346EAE0762C4337438B
:10BCC0000A986305E40AA0EB08000022FD0A44EA92
:10BCD00047540A3002D500200146E9E70105101952
:10BCE0006941DDE9084500196941BDE8F04DA2E769
:10BCF0003A2800D2303820F02002412A01D3A2F1A4
:10BD00003700884201D34FF0FF30704770B58C1870
:10BD100010F8015B15F0070301D110F8013B2A115F
:10BD200006D110F8012B03E010F8016B01F8016B4C
:10BD30005B1EF9D12B0705D40023521E0DD401F848
:10BD4000013BFAE710F8013BCB1A921C03E013F811
:10BD5000015B01F8015B521EF9D5A142D8D3002046
:10BD600070BD00000FB4054B10B503A9044A02983A
:10BD700000F0E2F810BC5DF814FB0000D9340008B4
:10BD80003C0300200FB4084B10B504A902AA039885
:10BD900000F0D2F8044602A9002000F064FC20461E
:10BDA00010BC5DF814FB000067C60008004870472F
:10BDB0004803002002E008C8121F08C1002AFAD177
:10BDC00070477047002001E001C1121F002AFBD11B
:10BDD000704700002DE9FF5FDDE90220010DDDF86D
:10BDE00038B0024318D044F61050A1F2FF3141435D
:10BDF0000D140F98012820D0A5EB0B00401C5FEA22
:10BE0000000A4FF00004474EDFF81C91A046504650
:10BE100016D5CAF1000728E00F98012443A2012893
:10BE200008D0002100980F9BC0E90021C0E902431F
:10BE3000BDE8FF9F6FEA0B01F4E7CBF10000DEE7FE
:10BE4000074612E0F80707D02246334640464946E7
:10BE5000FFF748FD8046894622463346104619467C
:10BE6000FFF740FD04460E467F10002FEAD1DDE9C2
:10BE70000201BAF1000F42464B4602DAFFF732FDEB
:10BE800001E0FFF7A1FD04460E460022284BFFF714
:10BE900023FE03D84FF0FF30014607E00022254B78
:10BEA00020463146FFF777FCFFF7FDFD102409E03F
:10BEB000002C0ADB0A220023FFF704FC019B30322E
:10BEC0001A55641E50EA0102F2D1641C019AC4F1B1
:10BED000110314440F9A012A03D0012208430DD103
:10BEE0000AE0084304D000204FF0110B0F9080E7C8
:10BEF000A3EB0B056D1E0DE05B4504DD4FF000026A
:10BF000005F1010504E003DA4FF00002A5F1010597
:10BF1000002AECD000980F99C0E90231C0E9004531
:10BF200086E70000000024400000F03F30000000E1
:10BF30000000F0430000E03F2DE9FF4F95B09B4625
:10BF40008946064600250FE2252877D1002427469A
:10BF5000F84A0121059400E0044316F8013F203B14
:10BF600001FA03F01042F7D130782A2811D06FF08F
:10BF70002F033078A0F13002092A16D8059A44F030
:10BF8000020402EB820203EB42021044761C05908D
:10BF9000EFE759F8042B0592002A03DA504244F4E3
:10BFA0000054059044F00204761C30782E2816D1F7
:10BFB00016F8010F44F004042A280DD06FF02F0268
:10BFC0003078A0F13003092B09D807EB870302EB87
:10BFD0004303C718761CF3E759F8047B761C3078C6
:10BFE0006C280FD006DC4C2817D068280DD06A28A2
:10BFF00014D104E0742810D07A280FD10DE044F455
:10C0000000140AE044F4801401E044F4401472780F
:10C01000824202D104F58014761C761C30786628A2
:10C020000BD013DC582877D009DC002875D04528C0
:10C03000F6D04628F4D047281AD19DE118E06328AD
:10C0400035D0642879D0652812D195E1702873D055
:10C0500008DC6728F1D069286FD06E280DD06F28D2
:10C0600006D1B5E073282CD0752875D0782874D007
:10C070005A46179990476D1C75E1C4F30250022887
:10C0800009D003280DD0D9F8001004280DD00D6078
:10C0900009F1040967E1D9F80010EA17C1E9005273
:10C0A000F6E7D9F800100D80F2E70D70F0E719F807
:10C0B000041B8DF8001000208DF80100EA460120D5
:10C0C00003E059F804AB4FF0FF3061074FF0000177
:10C0D00002D40DE008F101018846B9420FDA80452B
:10C0E000F8DB1AF808100029F4D108E008F1010182
:10C0F00088468142FADB1AF808100029F6D1059823
:10C100005B46A0EB080721463846179A00F094FAE0
:10C11000284400EB080507E04DE029E10DE01AF89E
:10C12000010B5A4617999047B8F10108F7D25B46C0
:10C1300021463846179A13E142E00A220092C4F3DE
:10C1400002524FF0000A022A08D059F804CB032A01
:10C150004FEAEC710AD00DE029E02AE009F107016D
:10C1600021F00702F2E802C1914609E00FFA8CFCC7
:10C170004FEAEC71042A03D14FFA8CFC4FEAEC71C0
:10C18000002907DA0A460021DCF1000C61EB02010C
:10C190002D2202E0220504D52B228DF80420012255
:10C1A00003E0E20701D02022F7E7904659E00A2198
:10C1B00002E010220DE010214FF0000A00910BE088
:10C1C00010224FF0000A44F004040827009203E014
:10C1D00008224FF0000A0092C4F30252022A05D04E
:10C1E00059F804CB0021032A08D009E009F107011E
:10C1F00021F00702F2E802C1914605E01FFA8CFC2B
:10C20000042A01D10CF0FF0C4FF00008220728D5BA
:10C21000702806D0009B83F0100353EA0A0305D070
:10C220000EE040228DF80420012208E05CEA0102C1
:10C2300006D030228DF804208DF8050002229046A9
:10C24000009B83F0080353EA0A030AD15CEA010267
:10C2500001D1620705D530228DF804204FF0010886
:10C260007F1E582804D034A003900EA802900DE041
:10C2700036A0F9E753466046009AFFF723FA844652
:10C280000398825C0298401E029002705CEA0100F2
:10C29000F0D1029806A9081A00F1200A600702D519
:10C2A00024F4803400E00127574502DDA7EB0A00A3
:10C2B00000E0002000EB0A01009005984144401A7C
:10C2C0000590E00306D45B462146179A059800F0D6
:10C2D000B3F90544002706E001A85A46C05D179946
:10C2E00090476D1C7F1C4745F6DBE0030CD55B4691
:10C2F0002146179A059800F09FF9054404E0302084
:10C300005A46179990476D1C0099481E00900029C5
:10C31000F5DC08E0029802995A460078491C02911F
:10C32000179990476D1CBAF10001AAF1010AF1DCDE
:10C3300065E10000092801003031323334353637E9
:10C340003839616263646566000000003031323361
:10C350003435363738394142434445460000000001
:10C3600000F058F90544761C307800287FF4ECADD5
:10C3700019B02846BDE8F08F620700D4062709F1FE
:10C38000070222F0070CFCE80223E14603F0004814
:10C390005FEA080C02D00FF2702C0DE05FEA045C3B
:10C3A00002D50FF2682C07E05FEAC47C02D00FF2DE
:10C3B000602C01E0AFF2700C4FF0FF3823F0004327
:10C3C000CDF850C065280CD006DC452809D0462899
:10C3D0001DD047283DD13DE0662818D067287ED182
:10C3E00038E00021112F01DB112000E0781CCDE99D
:10C3F000000106A90EA8FFF7EDFCDDE90F010E9A7A
:10C4000003910021009207F1010A04914DE04FF0E1
:10C4100000400097CDE9011006A90EA8FFF7DAFC4D
:10C42000DDE90F0203920E9B11990022DDF80CA0AA
:10C430000093049211B9791C00EB010AB7EB0A00D2
:10C4400004D4C0F1FF3007F1010A0490AAEB070001
:10C45000019044E0012F00DA01270021112F01DDB6
:10C46000112000E03846CDE9000106A90EA8FFF72B
:10C47000B1FCDDE90F010E9A0391002104910092B5
:10C48000BA4621070CD40399514500DA8A46BAF11D
:10C49000010F05DD009AAAF10101515C302908D095
:10C4A000B84202DA10F1040F06DA0121CDE90110D9
:10C4B00015E0AAF10101E9E7002805DC049901442F
:10C4C0000491AAEB000102E0411C514500DD8A46BF
:10C4D0000499401A401C01904FF000400290200740
:10C4E00004D40198504501DBCDF8048000208DF87C
:10C4F0004F0002980DF14F07B0F1004F25D02B20CF
:10C500000E9002984FF0020800280CDA4042029088
:10C510002D200E9007E00A210298FFF7BDF8303178
:10C52000029007F8011DB8F10001A8F10108F2DC42
:10C5300002980028EFD1791E0E980870307800F02C
:10C54000200040F0450007F8020D12A8C01B00F1C2
:10C5500007081498007800B1012000EB0A01019847
:10C5600001EBE07105984144401A401E0590E0033C
:10C5700006D45B462146179A059800F05DF80544FD
:10C580001498007818B15A46179990476D1CE0032B
:10C5900024D55B462146179A059800F04DF80544CE
:10C5A0001CE00498002807DBDDE90301884203DD75
:10C5B0000098405C179901E0179930205A4690473F
:10C5C000049805F10105401C04900198401E01905B
:10C5D00004D12E205A46179990476D1CBAF10001DC
:10C5E000AAF1010ADDDC05E017F8010B5A4617999C
:10C5F00090476D1CB8F10001A8F10108F4DC5B461E
:10C600002146179A0598ABE62D0000002B0000008C
:10C61000200000002DE9F041044600251E46174683
:10C62000880404D405E039462020B0476D1C641E00
:10C63000F9D52846BDE8F0812DE9F04104460025F2
:10C640001E469046C80301D5302700E02027880405
:10C6500004D505E041463846B0476D1C641EF9D547
:10C660002846BDE8F0810A68531C0B6010707047C3
:10C6700010B5002821D0114B0022001F196803E0DB
:10C68000814203D80A4649680029F9D152B113689A
:10C69000841A9C4204D1006818441060104602E0DD
:10C6A000506000E0186039B102680B1A934203D160
:10C6B0000B681A4402604968416010BD40030020C5
:10C6C000F0B50B30154D20F007010024144A0FE09F
:10C6D00003688B420BD38B4205D95E1A4318476817
:10C6E000C3E9006700E04368136002C004E0021D74
:10C6F00010680028ECD12046002802D1286808B133
:10C700000020F0BD064A07481060074A121A22F0BE
:10C710000702C0E9002401202860D7E74403002075
:10C72000400300208C9500208897002068746D6C71
:10C730002C626F64797B77696474683A3130302594
:10C740003B6D617267696E3A303B70616464696E1B
:10C75000673A303B666F6E742D66616D696C793A2D
:10C76000417269616C2C2043616C696272693B663D
:10C770006F6E742D73697A653A313170787D2368F4
:10C7800065616465727B6261636B67726F756E640D
:10C790003A234444444444443B746578742D616CAA
:10C7A00069676E3A63656E7465723B666F6E742D71
:10C7B00073697A653A333670783B70616464696E88
:10C7C000673A323070783B77686974652D737061B1
:10C7D00063653A6E6F777261703B626F7264657207
:10C7E0002D626F74746F6D3A31707820736F6C695D
:10C7F0006420233939393939397D236D61696E7B7C
:10C800006D617267696E3A30206175746F3B77694C
:10C810006474683A34353070787D7461626C657B1D
:10C82000626F726465722D636F6C6C617073653AD0
:10C83000636F6C6C617073653B626F726465723AB2
:10C8400031707820736F6C696420234444444444FD
:10C85000443B77696474683A3435307078202169D4
:10C860006D706F7274616E743B6D617267696E3A60
:10C8700030206175746F3B77696474683A31303089
:10C88000257D74682C74647B746578742D616C6983
:10C89000676E3A6C6566743B626F726465722D6395
:10C8A0006F6C6C617073653A636F6C6C617073650B
:10C8B0003B626F726465723A31707820736F6C6995
:10C8C0006420234343434343433B70616464696E84
:10C8D000673A3570783B666F6E742D73697A653A86
:10C8E000313170787D74642E74645F68656164654D
:10C8F000727B746578742D616C69676E3A63656EDE
:10C900007465723B70616464696E673A3470783B39
:10C910006261636B67726F756E643A23434343438E
:10C9200043433B666F6E742D73697A653A31337099
:10C93000783B666F6E742D7765696768743A626FCD
:10C940006C647D2E626C75657B636F6C6F723A628E
:10C950006C75657D2E7265647B636F6C6F723A7265
:10C9600065647D2E6F72616E67657B636F6C6F723D
:10C970003A6F72616E67657D2E677265656E7B6367
:10C980006F6C6F723A677265656E7D613A6C696E45
:10C990006B2C613A766973697465647B626F72644B
:10C9A00065723A31707820736F6C69642023434359
:10C9B000434343433B6261636B67726F756E643AD6
:10C9C000234545454545453B646973706C61793A3B
:10C9D000696E6C696E652D626C6F636B3B70616430
:10C9E00064696E673A337078203670783B636F6C99
:10C9F0006F723A233333333333333B6D617267697C
:10CA00006E3A30203270787D613A686F7665727B5D
:10CA1000626F726465722D636F6C6F723A2342426B
:10CA2000424242423B6261636B67726F756E643A69
:10CA3000234444444444447D2E626F6C647B666F9F
:10CA40006E742D7765696768743A626F6C647D2EC9
:10CA5000616C69676E5F63656E7465727B7465781F
:10CA6000742D616C69676E3A63656E7465727D2EB4
:10CA7000666C6F61745F72696768747B666C6F6106
:10CA8000743A72696768747D2E636C6561727B634A
:10CA90006C6561723A626F74687D696D677B6D6108
:10CAA000782D77696474683A34353070787D003C4D
:10CAB00068746D6C3E3C686561643E3C6D65746194
:10CAC00020687474702D65717569763D22636F6E90
:10CAD00074656E742D747970652220636F6E746551
:10CAE0006E743D22746578742F68746D6C222F3ECD
:10CAF0003C6D657461206E616D653D226175746881
:10CB00006F722220636F6E74656E743D2254696C7F
:10CB1000656E204D616A65726C65222F3E3C6D65C5
:10CB20007461206E616D653D2276696577706F7204
:10CB3000742220636F6E74656E743D22776964742D
:10CB4000683D6465766963652D77696474682C2037
:10CB5000696E697469616C2D7363616C653D312226
:10CB60002F3E3C6C696E6B2072656C3D227374794C
:10CB70006C6573686565742220687265663D227312
:10CB800074796C652E6373732220747970653D220D
:10CB9000746578742F637373222F3E3C7469746CD0
:10CBA000653E4572726F72203430343C2F74697464
:10CBB0006C653E3C2F686561643E3C626F64793E03
:10CBC0003C6469762069643D22686561646572220F
:10CBD0003E57656220736572766572206F6E2053D2
:10CBE000544D3332463478783C2F6469763E3C6449
:10CBF00069762069643D226D61696E223E3C703E1B
:10CC00003C6120687265663D22696E6465782E73AA
:10CC100068746D6C223E476F206261636B20746F95
:10CC200020666972737420736974653C2F613E3CA1
:10CC30002F703E3C7461626C653E3C74723E3C7485
:10CC40006420636C6173733D2274645F6865616422
:10CC50006572223E4572726F72203430343C2F74FC
:10CC6000643E3C2F74723E3C74723E3C74643E528F
:10CC7000657175657374656420706167652069739B
:10CC8000206E6F7420617661696C61626C65213C15
:10CC90002F74643E3C2F74723E3C2F7461626C654D
:10CCA0003E3C2F6469763E3C2F626F64793E3C2F98
:10CCB00068746D6C3E003C68746D6C3E3C686561E8
:10CCC000643E3C6D65746120687474702D65717587
:10CCD00069763D22636F6E74656E742D747970652C
:10CCE0002220636F6E74656E743D22746578742FB4
:10CCF00068746D6C22202F3E3C6D657461206E61FE
:10CD00006D653D22617574686F722220636F6E7469
:10CD1000656E743D2254696C656E204D616A657262
:10CD20006C6522202F3E3C212D2D3C6D65746120C9
:10CD3000687474702D65717569763D2272656672CE
:10CD40006573682220636F6E74656E743D223222B3
:10CD5000202F3E2D2D3E3C6D657461206E616D650A
:10CD60003D2276696577706F72742220636F6E74EE
:10CD7000656E743D2277696474683D6465766963A5
:10CD8000652D77696474682C20696E697469616CBB
:10CD90002D7363616C653D3122202F3E3C6C696EC2
:10CDA0006B2072656C3D227374796C657368656580
:10CDB000742220687265663D227374796C652E63F7
:10CDC00073732220747970653D22746578742F63C3
:10CDD000737322202F3E3C7469746C653E57656204
:10CDE000206F6E2053544D33324634787820666C71
:10CDF0006173683C2F7469746C653E3C2F68656193
:10CE0000643E3C626F64793E3C6469762069643DAF
:10CE100022686561646572223E576562207365729F
:10CE2000766572206F6E2053544D333246347878D5
:10CE30003C2F6469763E3C6469762069643D226DCE
:10CE400061696E223E3C7461626C653E3C74723E68
:10CE50003C746420636F6C7370616E3D22332220DA
:10CE6000636C6173733D2274645F686561646572AD
:10CE7000223E50726F6772616D3C2F74643E3C2F8E
:10CE800074723E3C74723E3C746420636F6C7370C9
:10CE9000616E3D22322220636C6173733D22626FAA
:10CEA0006C64223E436F6D70696C656420646174CC
:10CEB0006574696D653C2F74643E3C74643E3C212E
:10CEC0002D2D23636F6D70696C65642D2D3E3C2F95
:10CED000743E3C2F74723E3C74723E3C746420631A
:10CEE0006F6C7370616E3D22322220636C617373CC
:10CEF0003D22626F6C64223E4861726477617265A4
:10CF00003C2F74643E3C74643E3C212D2D236861AB
:10CF10007264776172652D2D3E3C2F743E3C2F74F8
:10CF2000723E3C74723E3C746420636F6C7370613B
:10CF30006E3D22322220636C6173733D22626F6CFE
:10CF400064223E43757272656E742074696D653C2F
:10CF50002F74643E3C74643E3C212D2D2372746317
:10CF60005F74696D652D2D3E3C2F743E3C2F7472AD
:10CF70003E3C74723E3C746420636F6C7370616EEF
:10CF80003D22332220636C6173733D2274645F68B9
:10CF90006561646572223E4E6574776F726B3C2FDB
:10CFA00074643E3C2F74723E3C74723E3C74642048
:10CFB000636F6C7370616E3D22322220636C61730B
:10CFC000733D22626F6C64223E4C6F63616C206122
:10CFD0006464726573733C2F74643E3C74643E3CBD
:10CFE000212D2D237372765F6164722D2D3E3C2FAF
:10CFF000743E3C2F74723E3C74723E3C74642063F9
:10D000006F6C7370616E3D22322220636C617373AA
:10D010003D22626F6C64223E4D4143206164647224
:10D020006573733C2F74643E3C74643E3C212D2D2B
:10D03000236D61635F6164722D2D3E3C2F743E3C15
:10D040002F74723E3C74723E3C746420636F6C7348
:10D0500070616E3D22322220636C6173733D2262E7
:10D060006F6C64223E476174657761793C2F74640C
:10D070003E3C74643E3C212D2D23676174657761CD
:10D08000792D2D3E3C2F743E3C2F74723E3C7472C1
:10D090003E3C746420636F6C7370616E3D2232227B
:10D0A00020636C6173733D22626F6C64223E4E6537
:10D0B000746D61736B3C2F74643E3C74643E3C2120
:10D0C0002D2D236E65746D61736B2D2D3E3C2F7479
:10D0D0003E3C2F74723E3C74723E3C746420636F1D
:10D0E0006C7370616E3D22322220636C6173733DFC
:10D0F00022626F6C64223E4C696E6B3C2F74643EFE
:10D100003C74643E3C212D2D236C696E6B2D2D3EAD
:10D110003C2F743E3C2F74723E3C74723E3C7464EF
:10D1200020636F6C7370616E3D22322220636C61EC
:10D1300073733D22626F6C64223E4475706C657837
:10D140003C2F74643E3C74643E3C212D2D23647559
:10D15000706C65782D2D3E3C2F743E3C2F74723ED2
:10D160003C74723E3C746420636F6C7370616E3DFE
:10D1700022332220636C6173733D2274645F68659F
:10D1800061646572223E4C6564733C2F74643E3C5E
:10D190002F74723E3C74723E3C74683E4C45443C75
:10D1A0002F74683E3C74683E5374617475733C2FF1
:10D1B00074683E3C74683E416374696F6E733C2FC3
:10D1C00074683E3C2F74723E3C74723E3C74642022
:10D1D000636C6173733D22626F6C64206772656576
:10D1E0006E223E475245454E3C2F74643E3C74646B
:10D1F0003E3C212D2D236C6564315F732D2D3E3C0B
:10D200002F74643E3C74643E3C6120687265663DE8
:10D21000272F6C6564616374696F6E2E6367693F65
:10D220006C6564746F67676C653D31273E546F674A
:10D23000676C653C2F613E3C6120687265663D27E6
:10D240002F6C6564616374696F6E2E6367693F6CF0
:10D2500065646F6E3D31273E4F6E3C2F613E3C61F1
:10D2600020687265663D272F6C6564616374696F21
:10D270006E2E6367693F6C65646F66663D31273E5D
:10D280004F66663C2F613E3C2F74643E3C2F7472A7
:10D290003E3C74723E3C746420636C6173733D2247
:10D2A000626F6C6420726564223E5245443C2F7468
:10D2B000643E3C74643E3C212D2D236C6564335FD9
:10D2C000732D2D3E3C2F74643E3C74643E3C6120C3
:10D2D000687265663D272F6C6564616374696F6E63
:10D2E0002E6367693F6C6564746F67676C653D3377
:10D2F000273E546F67676C653C2F613E3C61206838
:10D300007265663D272F6C6564616374696F6E2E6C
:10D310006367693F6C65646F6E3D33273E4F6E3CBB
:10D320002F613E3C6120687265663D272F6C656405
:10D33000616374696F6E2E6367693F6C65646F66C5
:10D34000663D33273E4F66663C2F613E3C2F74643A
:10D350003E3C2F74723E3C74723E3C746420636C9D
:10D360006173733D22626F6C64206F72616E6765DA
:10D37000223E4F52414E47453C2F74643E3C7464FC
:10D380003E3C212D2D236C6564325F732D2D3E3C78
:10D390002F74643E3C74643E3C6120687265663D57
:10D3A000272F6C6564616374696F6E2E6367693FD4
:10D3B0006C6564746F67676C653D32273E546F67B8
:10D3C000676C653C2F613E3C6120687265663D2755
:10D3D0002F6C6564616374696F6E2E6367693F6C5F
:10D3E00065646F6E3D32273E4F6E3C2F613E3C615F
:10D3F00020687265663D272F6C6564616374696F90
:10D400006E2E6367693F6C65646F66663D32273ECA
:10D410004F66663C2F613E3C2F74643E3C2F747215
:10D420003E3C74723E3C746420636C6173733D22B5
:10D43000626F6C6420626C7565223E424C55453CBF
:10D440002F74643E3C74643E3C212D2D236C656436
:10D45000345F732D2D3E3C2F74643E3C74643E3C1F
:10D460006120687265663D272F6C6564616374692D
:10D470006F6E2E6367693F6C6564746F67676C6578
:10D480003D34273E546F67676C653C2F613E3C61BD
:10D4900020687265663D272F6C6564616374696FEF
:10D4A0006E2E6367693F6C65646F6E3D34273E4F37
:10D4B0006E3C2F613E3C6120687265663D272F6C93
:10D4C0006564616374696F6E2E6367693F6C656440
:10D4D0006F66663D34273E4F66663C2F613E3C2FAB
:10D4E00074643E3C2F74723E3C74723E3C74642003
:10D4F000636F6C7370616E3D22332220636C6173C5
:10D50000733D2274645F686561646572223E436C9A
:10D5100069656E743C2F74643E3C2F74723E3C749B
:10D52000723E3C746420636F6C7370616E3D223296
:10D530002220636C6173733D22626F6C64223E41F2
:10D540006C6C20636F6E6E656374696F6E733C2FD5
:10D5500074643E3C74643E3C212D2D23636C745FE7
:10D56000615F632D2D3E3C2F74643E3C2F74723EF0
:10D570003C74723E3C746420636F6C7370616E3DEA
:10D5800022322220636C6173733D22626F6C6422CD
:10D590003E5375636365737366756C20636F6E6E5F
:10D5A000656374696F6E733C2F74643E3C74643EB3
:10D5B0003C212D2D23636C745F735F632D2D3E3CE6
:10D5C0002F74643E3C2F74723E3C74723E3C746413
:10D5D00020636F6C7370616E3D22322220636C6138
:10D5E00073733D22626F6C64223E50657263656E98
:10D5F000746167653C2F74643E3C74643E3C212D2D
:10D600002D23636C745F7065722D2D3E3C2F746406
:10D610003E3C2F74723E3C74723E3C746420636FD7
:10D620006C7370616E3D22322220636C6173733DB6
:10D6300022626F6C64223E54582042797465733CB8
:10D640002F74643E3C74643E3C212D2D23636C7426
:10D650005F74782D2D3E3C2F74643E3C2F74723ED7
:10D660003C74723E3C746420636F6C7370616E3DF9
:10D6700022322220636C6173733D22626F6C6422DC
:10D680003E52582042797465733C2F74643E3C745A
:10D69000643E3C212D2D23636C745F72782D2D3EEA
:10D6A0003C2F74643E3C2F74723E3C74723E3C745A
:10D6B0006420636F6C7370616E3D22332220636C53
:10D6C0006173733D2274645F686561646572223EB4
:10D6D0005365727665723C2F74643E3C2F74723EC3
:10D6E0003C74723E3C746420636F6C7370616E3D79
:10D6F00022322220636C6173733D22626F6C64225C
:10D700003E416C6C20636F6E6E656374696F6E73FF
:10D710003C2F74643E3C74643E3C212D2D23737277
:10D72000765F632D2D3E3C2F74643E3C2F74723E19
:10D730003C74723E3C746420636F6C7370616E3D28
:10D7400022322220636C6173733D22626F6C64220B
:10D750003E54582042797465733C2F74643E3C7487
:10D76000643E3C212D2D237372765F74782D2D3EFF
:10D770003C2F74643E3C2F74723E3C74723E3C7489
:10D780006420636F6C7370616E3D22322220636C83
:10D790006173733D22626F6C64223E52582042795D
:10D7A0007465733C2F74643E3C74643E3C212D2DA3
:10D7B000237372765F72782D2D3E3C2F74643E3C4D
:10D7C0002F74723E3C2F7461626C653E3C70206326
:10D7D0006C6173733D22666C6F61745F7269676818
:10D7E00074223E3C6120687265663D2268747470E4
:10D7F0003A2F2F73746D333266342D646973636FFF
:10D80000766572792E636F6D223E57656273697417
:10D81000652062792054696C656E204D616A65727D
:10D820006C653C2F613E3C2F703E3C646976206302
:10D830006C6173733D22636C656172223E3C2F64A0
:10D8400069763E3C2F6469763E3C2F626F64793E78
:10D850003C2F68746D6C3E00000000009CDA0008EC
:10D860002CC70008830300000100000058D80008FE
:10D87000A8DA0008AFCA0008070200000100000093
:10D880006CD80008B4DA0008B6CC0008A20B00007F
:10D890000100000044DE00084CDE0008B4DA000895
:10D8A0000100000060DE000801000000B8DE000892
:10D8B0000100000078DE000800000000ACDE000877
:10D8C000000000001C00200094001C00100020003C
:10D8D000180010000402040006000A0006000C00F4
:10D8E00005000F0032000A0003060C1830607800B3
:10D8F00018DF000840DF000860DF000820DF0008B4
:10D900000CDF0008F4DE000800DF000854DF000828
:10D910002CDF000834DF000848DF000801020304A0
:10D92000050607070707070707000000E8020020B1
:10D93000E4020020EC020020F002002000000000C1
:10D94000FFFFFFFFFFFFFFFFFFFF000000000000E1
:10D950000040404040404040404041414141414002
:10D9600040404040404040404040404040404040B7
:10D970004005020202020202020202020202020246
:10D98000022020202020202020202002020202024B
:10D9900002029090909090901010101010101010A3
:10D9A00010101010101010101010101002020202AF
:10D9B00002028888888888880808080808080808F3
:10D9C00008080808080808080808080802020202EF
:10D9D0004000000051D90008636C745F615F630010
:10D9E000636C745F735F63007372765F6300000043
:10D9F000636F6D70696C6564000000007274635F32
:10DA000074696D6500000000686172647761726519
:10DA1000000000002F6C6564616374696F6E2E6393
:10DA2000676900006C696E6B000000006E65746DC4
:10DA300061736B006D61635F616472007372765F26
:10DA400061647200636C745F706572006C65643150
:10DA50005F7300006C6564325F7300006C65643353
:10DA60005F7300006C6564345F7300006475706CF4
:10DA700065780000636C745F727800007372765F83
:10DA800072780000636C745F747800007372765F64
:10DA90007478000067617465776179002F73747919
:10DAA0006C652E63737300002F3430342E68746DF0
:10DAB0006C0000002F696E6465782E7368746D6C5D
:10DAC00000000000436F6E74656E742D747970658C
:10DAD0003A20746578742F68746D6C0D0A457870FF
:10DAE000697265733A204672692C2031302041708A
:10DAF0007220323030382031343A30303A303020F1
:10DB0000474D540D0A507261676D613A206E6F2D5A
:10DB100063616368650D0A0D0A000000436F6E744F
:10DB2000656E742D747970653A20696D6167652F33
:10DB30006769660D0A0D0A00436F6E74656E742D79
:10DB4000747970653A20696D6167652F6A706567E1
:10DB50000D0A0D0A00000000436F6E74656E742D8F
:10DB6000747970653A20696D6167652F706E670D15
:10DB70000A0D0A00436F6E74656E742D74797065BA
:10DB80003A206170706C69636174696F6E2F782DD3
:10DB900073686F636B776176652D666C6173680D72
:10DBA0000A0D0A00436F6E74656E742D747970658A
:10DBB0003A20746578742F68746D6C0D0A0D0A0034
:10DBC000436F6E74656E742D747970653A20746558
:10DBD00078742F786D6C0D0A0D0A0000436F6E7417
:10DBE000656E742D747970653A206170706C69632C
:10DBF0006174696F6E2F6F637465742D73747265D1
:10DC0000616D0D0A0D0A0000436F6E74656E742D10
:10DC1000747970653A20746578742F706C61696EE0
:10DC20000D0A0D0A00000000436F6E74656E742DBE
:10DC3000747970653A20696D6167652F782D696325
:10DC40006F6E0D0A0D0A0000436F6E74656E742DC1
:10DC5000747970653A20696D6167652F626D700D2A
:10DC60000A0D0A00436F6E74656E742D74797065C9
:10DC70003A20746578742F6373730D0A0D0A0000DF
:10DC8000436F6E74656E742D747970653A2061709F
:10DC9000706C69636174696F6E2F782D6A6176614B
:10DCA0007363726970740D0A0D0A00005365727611
:10DCB00065723A206C7749502F312E332E3120284F
:10DCC000687474703A2F2F736176616E6E61682E7E
:10DCD0006E6F6E676E752E6F72672F70726F6A65EA
:10DCE0006374732F6C776970290D0A000D0A3C6804
:10DCF000746D6C3E3C626F64793E3C68323E3430F9
:10DD0000343A205468652072657175657374656472
:10DD10002066696C652063616E6E6F742062652099
:10DD2000666F756E642E3C2F68323E3C2F626F64C6
:10DD3000793E3C2F68746D6C3E0D0A004854545077
:10DD40002F312E3020323030204F4B0D0A00000092
:10DD5000485454502F312E3120323030204F4B0D4B
:10DD60000A000000485454502F312E3020353031F5
:10DD7000204E6F7420496D706C656D656E746564BE
:10DD80000D0A0000485454502F312E3120353031C7
:10DD9000204E6F7420496D706C656D656E7465649E
:10DDA0000D0A0000485454502F312E3020343034A6
:10DDB0002046696C65206E6F7420666F756E640D09
:10DDC0000A000000485454502F312E312034303492
:10DDD0002046696C65206E6F7420666F756E640DE9
:10DDE0000A000000436F6E6E656374696F6E3A20BF
:10DDF000436C6F73650D0A00485454502F312E3018
:10DE0000203430302042616420526571756573742E
:10DE10000D0A0000485454502F312E312034303038
:10DE20002042616420526571756573740D0A0000AB
:10DE3000436F6E74656E742D4C656E6774683A201E
:10DE4000000000003C212D2D230000002D2D3E0060
:10DE50006769660073776600706E67006A706700B6
:10DE60002F696E6465782E73736900002E73736971
:10DE700000000000737369002F696E6465782E6876
:10DE8000746D6C002E7368746D6C00007368746D33
:10DE90006C00000068746D6C000000002E786D6CE2
:10DEA00000000000786D6C0072616D002F696E6477
:10DEB00065782E68746D00002F696E6465782E7326
:10DEC00068746D002E7368746D0000007368746D63
:10DED0000000000068746D0069636F00626D70007F
:10DEE0006A730000636C7300636C617373000000FD
:10DEF0006373730046494E5F574149545F310000D8
:10DF000046494E5F574149545F32000045535441E2
:10DF1000424C495348454400434C4F53454400004C
:10DF200053594E5F5243564400000000434C4F5338
:10DF3000494E47004C4153545F41434B00000000A1
:10DF40004C495354454E000054494D455F57414993
:10DF500054000000434C4F53455F57414954000063
:10DF600053594E5F53454E54000000008CDF0008AB
:10DF7000000000204C0300000CBD0008D4E00008A5
:10DF80004C0300203C980000C4BD0008412D010254
:10DF900003040405140607080913640383202022E0
:10DFA0000ADA8410DAA410DAC410DAE410CB04041C
:10DFB00010DA2410DA441001201D1F1C1F1E024914
:10DFC000058A1D0C1314DA1408EF311B084C081ACB
:10DFD00054041A5C041A64041A3C0413D8D91B08AC
:10DFE000E0041A440C1A84041A74041AE8101A8CF7
:10DFF000081A7C041A34041A94041A2C041A2404EF
:10E000001A6C041A08041AFC241AF004117B7A030F
:10E010009A000920010203040607080913A4DB1B68
:10E0200008C4441A1C081A58041A38041348DC1B84
:10E030000828041ADC0C1A800829041A64041A74CB
:10E04000101AC0041A080C133CDD1B08A4041AF8AB
:10E05000041A64041A50041AC4041B14DEBC190800
:10E060001A30081AE4081AAC2C1AEC041A9410415D
:10E070005AD4081A8C0832015ACC085A74081A501B
:10E080000832021A580832031A5C0832041ADC08F3
:10E0900032051AD80832061AE80832075AE4081A74
:10E0A000E00829591AA80829F51AF008320A1A5462
:10E0B000082A0BE81908320C1A84081AC4041A6CCE
:10E0C000045A9C8C01320335CDAB22C003376E1944
:04E0D000193C0134C2
:04000005080001AD41
:00000001FF
