:020000040800F2
:10000000681D002081020008191800081B1800084C
:100010001F18000823180008271800080000000017
:100020000000000000000000000000002B18000885
:100030002D180008000000002F18000833180008D1
:100040009B0200089B0200089B0200089B0200081C
:100050009B0200089B0200089B0200089B0200080C
:100060009B0200089B0200089B0200089B020008FC
:100070009B0200089B0200089B0200089B020008EC
:100080009B0200089B0200089B0200089B020008DC
:100090009B0200089B0200089B0200089B020008CC
:1000A0009B0200089B0200089B0200089B020008BC
:1000B0009B0200089B0200089B0200089B020008AC
:1000C0009B0200089B0200089B0200089B0200089C
:1000D0009B0200089B0200089B0200089B0200088C
:1000E0009B0200089B0200089B0200089B0200087C
:1000F0009B0200089B0200089B0200089B0200086C
:100100009B0200089B0200089B0200089B0200085B
:100110009B0200089B0200089B0200089B0200084B
:100120009B0200089B0200089B0200089B0200083B
:100130009B0200089B0200089B0200089B0200082B
:100140009B0200089B0200089B020008951B000808
:100150009B0200089B0200089B0200089B0200080B
:100160009B0200089B0200089B0200089B020008FB
:100170009B0200089B0200089B0200089B020008EB
:100180009B0200089B02000800F002F800F068F8EB
:100190000AA090E8000C82448344AAF10107DA45E2
:1001A00001D100F05DF8AFF2090EBAE80F0013F0CC
:1001B000010F18BFFB1A43F001031847549D0000BC
:1001C000749D00000A444FF0000C10F8013B13F03E
:1001D000070408BF10F8014B1D1108BF10F8015BA0
:1001E000641E05D010F8016B641E01F8016BF9D193
:1001F00013F0080F1EBF10F8014BAD1C0C1B09D1EA
:100200006D1E58BF01F801CBFAD505E014F8016B5B
:1002100001F8016B6D1EF9D59142D6D370470000ED
:100220000023002400250026103A28BF78C1FBD8FF
:10023000520728BF30C148BF0B607047752908F0CE
:100240009587732909F07781002070471FB509F061
:1002500065FB9DE8030009F0AFF81FBD10B510BDA8
:1002600009F094F91146FFF7F1FF01F0CBF909F01D
:10027000B2F903B4FFF7F2FF03BC09F0E3F90000A1
:100280000948804709480047FEE7FEE7FEE7FEE72A
:10029000FEE7FEE7FEE7FEE7FEE7FEE70448054966
:1002A000054A064B7047000019190008890100082B
:1002B00068170020681D00206819002068190020B8
:1002C00032490143324A1160704770B50021002362
:1002D0000F22C4781CB32E4C246804F4E064C4F5E7
:1002E000E064C4F30721C1F10404E3B20A41447895
:1002F0009C40E1B28478144021430C07210E254C28
:1003000005786155047804F01F050124AC40057898
:100310006D11AD0005F1E025C5F8004109E0047854
:1003200004F01F050124AC401B4D0678761145F8FA
:10033000264070BD194A0A400243154B1B1F1A6024
:10034000704739B1124A121D12680243104B1B1D2F
:100350001A6006E00E4A121D126882430C4B1B1DE8
:100360001A607047042808D14FF0E021096941F074
:1003700004014FF0E022116107E04FF0E02109692C
:1003800021F004014FF0E022116170470000FA05EE
:100390000CED00E000E400E080E100E080FFFF1FE2
:1003A000F948006840F00100F74908600020F6496C
:1003B00008310860F4480068F4490840F2490860D0
:1003C000F348091D0860F348EF4984310860F0489C
:1003D0001038091D0860EC48006820F48020EA49C4
:1003E00008600020E8490C310860E7498C3108605A
:1003F00070470021E44A921C117011460870704742
:1004000010B501460022002300204A11012A02D122
:10041000DD4C236808E0022A03D1DB4C70342368EA
:1004200002E0D94C7434236801F01F020124944087
:100430001C400CB1012000E0002010BD38B50020A8
:1004400000900024002500BF3120FFF7D9FF0546AA
:100450000098401C00900098B0F5A04F01D0002DEE
:10046000F2D03120FFF7CCFF08B1012400E00024D6
:10047000204638BD01460020C34A106820F0F8002D
:1004800040EAC10010607047C3490860704700210E
:10049000BD4A703211701170012802D004280AD1AF
:1004A00004E00121B84A7032117005E00521B64A16
:1004B0007032117000E000BF00BF7047B74908609C
:1004C000704770B5049C41EA82150126C6EB5306BD
:1004D00045EA0645054345EA0465AB4E361D3560E1
:1004E00070BDAD4908667047820142EA0172A64BB1
:1004F00084331A607047A8498866704710B5830135
:1005000043EA016343EA02739F4C8834236010BDC1
:10051000A14908677047A049C86470470246002097
:10052000994B0833186820F0EC6042EA0103184345
:10053000954B08331860704702460020924B0833F1
:10054000186820F0784042EA010318438E4B0833C4
:1005500018607047014600208B4A0832106820F06E
:10056000030008431060704787480830006800F0B7
:100570000C00704701460020834A0832106820F0C2
:10058000F000084310607047014600207E4A0832A0
:10059000106820F4E05008431060704701460020C6
:1005A000794A0832106820F4604040EAC1001060C7
:1005B0007047F0B500210022002402250026022306
:1005C000714F08373F6807F00C0121B1042905D0AD
:1005D000082937D105E0724F076036E0714F076098
:1005E00033E0694F3F1D3F68C7F38056664F3F1D9C
:1005F0003F6807F03F036EB16A4FB7FBF3F7DFF8D0
:1006000088C10CF1040CDCF800C0CCF3881C07FB9B
:100610000CF40CE0624FB7FBF3F7DFF86CC10CF1A0
:10062000040CDCF800C0CCF3881C07FB0CF4564F1C
:100630003F1D3F68C7F301477F1C7D00B4FBF5F702
:10064000076002E0564F076000BF00BF4E4F0837FB
:100650003F6807F0F0010909534F7A5C0768D740FB
:100660004760494F08373F6807F4E051890A4E4F09
:100670007A5C4768D7408760434F08373F6807F484
:100680006041490B484F7A5C4768D740C760F0BD6E
:10069000002100F44072B2F5407F0AD13A4A083294
:1006A000116821F4F811414A02401143364A0832D8
:1006B0001160354A70321268C0F30B031A43324B93
:1006C00070331A60704735494439086070473349C0
:1006D000403908607047364908607047014600207D
:1006E000294A8C32106820F440100843106070478B
:1006F00001460020244A8C32106820F44000084350
:1007000010607047014600201F4A8C32106820F0AC
:100710001F004A1E10431C4A8C321060704701466D
:100720000020194A8C32106820F4F8504A1E40EA22
:100730000220154A8C321060704701460020124A90
:100740008C32106820F4403008431060704719491B
:100750000860704739B10C4A3032126802430A4BC4
:1007600030331A6006E0084A303212688243064B82
:1007700030331A607047F9B1034A343212680243C9
:10078000014B34331A601CE000380240FFFFF6EAE8
:10079000103000240030002000004742800E474205
:1007A0000024F40000127A0000000020FFFCFF0F7C
:1007B0005C014742E01147428F4A126882438E4BE8
:1007C0001A60704739B18C4A121D126802438A4B75
:1007D0001B1D1A6006E0884A121D12688243864B70
:1007E0001B1D1A60704739B1834A0C3212680243EC
:1007F000814B0C331A6006E07F4A0C321268824348
:100800007D4B0C331A60704739B17B4A1032126845
:100810000243794B10331A6006E0774A10321268AF
:100820008243754B10331A60704739B1724A243ACB
:1008300012680243704B243B1A6006E06E4A243A69
:10084000126882436C4B243B1A60704739B16A4A84
:10085000203A12680243684B203B1A6006E0664A61
:10086000203A12688243644B203B1A60704739B1CA
:10087000614A1C3A126802435F4B1C3B1A6006E057
:100880005D4A1C3A126882435B4B1C3B1A607047FE
:1008900039B1594A143A12680243574B143B1A6053
:1008A00006E0554A143A12688243534B143B1A60CF
:1008B000704739B1504A103A126802434E4B103B10
:1008C0001A6006E04C4A103A126882434A4B103BC9
:1008D0001A60704739B1484A1C3212680243464BCD
:1008E0001C331A6006E0444A1C3212688243424BB1
:1008F0001C331A60704739B13F4A203212680243F4
:100900003D4B20331A6006E03B4A20321268824396
:10091000394B20331A60704739B1374A2432126894
:100920000243354B24331A6006E0334A24321268FE
:100930008243314B24331A60704739B12E4A2C322E
:10094000126802432C4B2C331A6006E02A4A2C32E0
:1009500012688243284B2C331A60704739B1264AFB
:10096000303212680243244B30331A6006E0224AC8
:10097000303212688243204B30331A6070470128AE
:1009800008D11D493C31096841F008011A4A3C323E
:10099000116007E018493C31096821F00801164A46
:1009A0003C321160704739B1134A273A127802433A
:1009B000114B273B1A7006E00F4A273A1278824300
:1009C0000D4B273B1A7070470B484030006840F0D1
:1009D0008070094940310860704701460020064A8E
:1009E000283A12680A400AB1012000E0002070474E
:1009F00001492639087070473438024010B5044662
:100A00009848844208D101210846FFF70EFF0021D3
:100A10000120FFF70AFF76E09348844208D10121C4
:100A20000220FFF702FF00210220FFF7FEFE6AE02E
:100A30008E48844208D101210420FFF7F6FE0021F0
:100A40000420FFF7F2FE5EE08948844208D10121CC
:100A50000820FFF7EAFE00210820FFF7E6FE52E03B
:100A60008448844208D101211020FFF7DEFE0021D6
:100A70001020FFF7DAFE46E07F48844208D10121CA
:100A80002020FFF7D2FE00212020FFF7CEFE3AE023
:100A90007A48844208D101214020FFF7C6FE002198
:100AA0004020FFF7C2FE2EE07548844208D10121A4
:100AB0008020FFF7BAFE00218020FFF7B6FE22E07B
:100AC0007048844208D101218015FFF7AEFE002155
:100AD000A015FFF7AAFE16E06B48844208D1012159
:100AE0004015FFF7A2FE00216015FFF79EFE0AE009
:100AF0006648844207D101210015FFF796FE0021C8
:100B00002015FFF792FE10BDF0B50A460021002324
:100B1000002400BF3DE0012505FA01F3156805EA50
:100B200003049C4234D105684F000326BE40B54300
:100B3000056015794E00B5400668354305601579A6
:100B4000012D02D01579022D16D185684F0003269C
:100B5000BE40B543856055794E00B5408668354343
:100B60008560456801268E40B543456045689679A5
:100B70008E40B6B235434560C5684F000326BE407F
:100B8000B543C560D5794E00B540C6683543C560EC
:100B9000491C1029BFD3F0BD4FF6FF710160002141
:100BA000017141718171C171704708B54FF4803294
:100BB0000092009A0A430092009AC261C161009AB1
:100BC000C261C2690092C269009208BD024600205B
:100BD00013690B400BB1012000E000207047014673
:100BE000086980B270470246002053690B400BB180
:100BF000012000E0002070470146486980B270473C
:100C000001837047418370470AB1018300E041834B
:100C100070474161704742694A4042617047F0B590
:100C2000002300244D07ED0E02FA05F3CE1000F16B
:100C3000200555F826504E07F70E0F26BE40B54347
:100C4000CF1000F1200646F82750CE1000F1200505
:100C500055F8265045EA0304CE1000F1200545F86A
:100C60002640F0BD0000024000040240000802409F
:100C7000000C024000100240001402400018024024
:100C8000001C0240002002400024024000280240D4
:100C900010B58B480068401C894908608948006885
:100CA00020B188480068401E86490860AFF3008084
:100CB000002438E0844850F8240090B3824850F86B
:100CC0002400007B68B3804850F82400806840B35B
:100CD0007D4850F824008068401E7B4951F824105C
:100CE0008860794850F824008068D0B9764A52F874
:100CF00024205069744A52F82420116988477248A8
:100D000050F824000168704850F8240081606E4853
:100D100050F82400406820B900216B4850F82400A6
:100D20000173601CC4B26848001F0078A042C1DC97
:100D300010BD30B5654800684FF47A72B0FBF2F12F
:100D4000481EB0F1807F01D301201BE0481E4FF008
:100D5000E022506150170F22002807DA13071D0EFA
:100D60005B4B00F00F04241F1D5503E013071C0EFE
:100D7000584B1C5400BF00204FF0E0229061072028
:100D80001061002008B100BFFEE7504800685249DA
:100D9000B0FBF1F05149086001205149087030BDA5
:100DA0004F48007800B970474FF0E020006940F0EC
:100DB00002004FF0E021086100BFF4E74FF0E020AF
:100DC000006920F002004FF0E021086170472DE932
:100DD000F04705460E4617469846DDF820903A48FB
:100DE000001F0078052802DB0020BDE8F0871820EE
:100DF00008F002F904460CB90020F6E725602068E7
:100E0000A06066602773C4F81080C4F814902E4860
:100E1000001F01780078401C2B4A121F1070101D13
:100E200040F821402046E0E72DE9F0410646002445
:100E300007E0254850F82400B04200D106E0601CCD
:100E4000C4B22148001F0078A042F2DC00BF1E4857
:100E5000001F0078A04201D1BDE8F0811A4850F887
:100E6000247000BFEFF31080054672B607E0164805
:100E7000611C50F8211040F82410601CC4B21248C4
:100E8000001F0078401EA042F1DC0F48001F0078D0
:100E9000401E0D49091F087005B962B6384608F0B2
:100EA000DAF800BFD8E70021017370470121017310
:100EB000704701688160704741607047016070470A
:100EC00014000020180000209001002028000020BD
:100ED00018ED00E000E400E0C0C62D001C0000207A
:100EE000200000201CB5032000210B460122CDE983
:100EF00000104FF470411E4800F06EFA4FF470403D
:100F00001B491A3108801CBD1CB500200221034674
:100F10000246CDE900100121164800F05DFA1CBD23
:100F20001448006900F0010080F0010030B9124857
:100F3000007830B9012010490870704700200E4930
:100F400008700020F9E70B48006900F0010080F00C
:100F5000010038B10848007838B10020064908700F
:100F6000012070470120044908700020F9E70000C3
:100F7000000C0240000002402100002070B52DED61
:100F8000048B82B006460C4601AA6946304606F03C
:100F9000E2FD054625B1284602B0BDEC048B70BDCC
:100FA00001998969891E019A927801FB02F008F083
:100FB000A4FB41EC190B9FEDB10B53EC102B08F087
:100FC000AFFB41EC180B08F06BFB206001998978AE
:100FD000009A01FB02F008F090FB41EC190B9FED29
:100FE000A70B53EC102B08F09BFB41EC180B08F0FF
:100FF00057FB60600020CFE77CB504460D4601AA90
:101000006946A0A006F0A7FD06460EB130467CBD9D
:1010100001988069801E01998978484340082060C2
:101020000198807800994843400828600020EEE746
:101030007CB504460D4601AA694693A006F08BFDD7
:1010400006460EB130467CBD01988069801E01992C
:101050008978484340082060019880780099484387
:10106000400828600020EEE72DE9F04FC3B081462C
:101070000D46D9F80C802E464FF0000AA8EB060763
:10108000029715B1B8F1000F03D1002043B0BDE8BD
:10109000F08F45450BD90021484606F099FB0446E0
:1010A0000CB12046F2E7484606F0D6FDEEE731E007
:1010B000B7F5807F02D94FF4807000E03846834650
:1010C0003146484606F084FB04460CB12046DDE775
:1010D00001AB5A4603A9484606F062F804460CB133
:1010E0002046D3E75146484606F072FB04460CB151
:1010F0002046CBE76B465A4603A9484606F020F93E
:1011000004460CB12046C1E7A7EB0B070198064443
:1011100000988244002FCBD14846029906F058FB34
:1011200004460CB12046B1E7484606F095FD04465A
:101130000021484606F04CFBA8E701207047034613
:10114000012070472DE9F04794B0064688461446C2
:101150004E4812904FF480701390314601A806F06B
:10116000F6FB071E57D1304608F0E7F8054644E085
:101170009DF839002E2800D13FE01298007808B180
:10118000129801E00DF139008246504608F0D5F87A
:101190002844401C404501D3112738E070195246BD
:1011A0003BA107F07FFF9DF8380000F0100098B1D8
:1011B0002068401C2060224600213046FFF7BFFF18
:1011C0008146B9F1000F10D0224641463046FFF764
:1011D000B9FF07464FB11AE06068401C60602246C4
:1011E00001213046FFF7ABFF814600207055B9F171
:1011F000000F00D007B10AE000BF0CA901A806F05B
:101200000DFC071E03D19DF839000028B0D100BFA6
:1012100001A806F0F1FB384614B0BDE8F0872DE9CF
:10122000F04780460C4615461E464FF00009002048
:10123000706030603CB9284607F0DEFE044614B901
:101240001120BDE8F087404608F077F8A8420CD29C
:10125000002020704146204608F04BF832462946CF
:101260002046FFF76FFF074600E01127B9F1000F96
:1012700002D0204607F0EFFE3846E2E7000000000B
:101280000000E03F303A0000313A0000A4010020A5
:101290002F2573001548007808B9052070471448B9
:1012A0000078FBE710B51148007818B111491248D1
:1012B00002F0CCFC10BD08B502200D4908700F48A3
:1012C0000F4B0C4A012100900B4802F089FA0120D3
:1012D00006490870FFF7E6FFFFF7DCFF08BD10B511
:1012E0000449054802F05FFA022010BD22000020E8
:1012F0002300002050080020A402002088000020C5
:101300007000002001464FF40030081AC0F38F200F
:1013100070472DE9F04304460E461546DDE907897E
:101320002046FFF7EFFFC7B2002243E001209040C4
:10133000304000B93CE0B14830F81700012191403D
:101340000843AE4921F81700E0684FEA420C032138
:1013500001FA0CF18843510008FA01F10843E060FA
:1013600020684FEA420C032101FA0CF18843510036
:1013700005FA01F108432060012D01D0022D16D19C
:1013800061680120904080B221EA000003FA02F176
:1013900089B208436060A0684FEA420C032101FA59
:1013A0000CF18843510009FA01F10843A06000BF25
:1013B000501CC2B2102AB9DBBDE8F08300B502466A
:1013C0001046FFF79FFF012101FA00F08C490968E0
:1013D00008438B49086000BD2DE9FC4305460C46D7
:1013E00016461F46DDE909890CB9BDE8FC8328468D
:1013F000FFF7E4FF3B46324621462846CDE9008907
:10140000FFF787FF00BFF0E72DE9FC4705460E46D2
:1014100017469846DDE90A9A0EB9BDE8FC872846CA
:10142000FFF7CCFF00241AE00120A040304000B9B3
:1014300014E0E10805F1200050F821006107CA0E10
:101440000F21914088436107C90E0AFA01F1084350
:10145000E20805F1200141F8220000BF641C102CB5
:10146000E2D33B46022231462846CDE90089FFF708
:1014700050FF00BFD1E770B503460C461846FFF792
:1014800041FFC5B2002214E001209040204070B11D
:10149000186856000321B14008431860574830F8D7
:1014A0001500012191408843544921F81500501C32
:1014B000C2B2102AE8DB70BD30B5024600200BE056
:1014C000012383400B402BB1136845000324AC403B
:1014D000A3431360431CD8B21028F1DB30BD30B5F4
:1014E000024600200FE0012383400B404BB11368FC
:1014F00045000324AC40A34345000124AC402343F2
:101500001360431CD8B21028EDDB30BD30B5024665
:1015100000200BE0012383400B402BB113684500F2
:101520000324AC4023431360431CD8B21028F1DBE2
:1015300030BD30B50246002011E0012383400B404E
:1015400003B90AE0136845000324AC40A3434500F7
:101550000224AC402343136000BF431CD8B21028C0
:10156000EBDB30BD70B50346002011E00124844060
:101570000C4004B90AE0DC6846000325B540AC43E2
:10158000450002FA05F52C43DC6000BF441CE0B2C4
:101590001028EBDB70BD41F48032C261C161C261D1
:1015A000C369C36970470146002002E0421C90B243
:1015B00049100129FADC704700B502461046FFF7D2
:1015C000A1FE012181400E48006888430C49086053
:1015D00000BD00B502461046FFF794FE074931F8FA
:1015E000100000BD00B502461046FFF78BFE034910
:1015F00031F81000C04380B200BD000098090020FF
:101600003038024090B0012400F086F9FFF791FBDA
:10161000FFF768FCFFF74FFE6AE0FFF743FEFFF7B6
:1016200039FE01285CD1002C62D0012231A133485F
:1016300005F09EFC3249087000284BD14FF48050D1
:1016400030490880132230A1344805F0BFFC2C49F2
:10165000087000283ED1002402A901A8FFF7E8FC89
:101660002E492FA007F050FA2C4938A007F04CFA69
:101670002A4944A007F048FA284950A007F044FA44
:101680000198000D00900198830A024652A103A818
:1016900007F008FD214903A807F036FA0298000D6B
:1016A00000900298830A024653A103A807F0FAFCAF
:1016B0001A4903A807F028FA184932A007F024FABB
:1016C000164805F084FF4FF480500E4908808000D2
:1016D000891C0880012207A1002005F049FC07E0D1
:1016E0004FF48040074908808010891C088001243D
:1016F00093E700005553423A00000000B009002073
:1017000024000020180C02405553423A7573625F62
:1017100066696C652E74787400000000E40B00208C
:1017200054686973206973206D79206669727374D7
:101730002066696C65207769746820555342206182
:101740006E642046617446530A000000776974682D
:1017500020555342204D534320484F5354206C6929
:1017600062726172792066726F6D2073746D3332AC
:1017700066342D646973636F766572792E636F6D5D
:101780000A0000002D2D2D2D2D2D2D2D2D2D2D2D33
:101790002D2D2D2D2D2D2D2D2D2D2D2D2D2D2D2D79
:1017A0002D2D2D2D2D2D2D2D2D2D2D2D2D2D2D2D69
:1017B0002D2D2D2D2D2D2D2D0A00000055534220AD
:1017C000746F74616C20616E64206672656520734D
:1017D000706163653A0A0A00546F74616C3A20259F
:1017E0003875206B423B20253575204D423B202526
:1017F00032752047420A0000467265653A2020256E
:101800003875206B423B20253575204D423B202505
:1018100032752047420A0000704700BFFEE700BF54
:10182000FEE700BFFEE700BFFEE770477047704766
:10183000704710B5FFF72CFA10BD00000CB5002062
:10184000019000907648006840F480307449086048
:1018500000BF7348006800F4003000900198401CFD
:101860000190009818B90198B0F5A04FF1D16C48DB
:10187000006800F4003010B10120009001E0002069
:1018800000900098012846D165484030006840F03B
:1018900080506349403108606248006840F440402D
:1018A000604908605E48083000685D49083108609A
:1018B0000846006840F4004008600846006840F4AC
:1018C000A05008605848091F0860081F006840F0D1
:1018D0008070091F086000BF5148006800F0007068
:1018E0000028F9D040F20570504908604C48083093
:1018F000006820F003004A49083108600846006883
:1019000040F00200086000BF45480830006800F061
:101910000C000828F8D10CBD10B54548006840F40B
:101920007000434908603E48006840F001003C49AF
:10193000086000203A4908310860394800683D498C
:101940000840374908603C48091D0860081F0068C6
:1019500020F48020091F0860002031490C31086004
:10196000FFF76CFF4FF0006031498039086010BD0F
:1019700070B500200022022300240221284D0835E2
:101980002D6805F00C0020B1042806D0082834D1B9
:1019900007E02A4D2A4E356033E02A4D284E356047
:1019A0002FE01F4D2D1D2D68C5F380541C4D2D1D9E
:1019B0002D6805F03F0154B1224DB5FBF1F5184EED
:1019C000361D3668C6F3881605FB06F209E01B4D86
:1019D000B5FBF1F5124E361D3668C6F3881605FBC9
:1019E00006F20F4D2D1D2D68C5F301456D1C6B00D2
:1019F000B2FBF3F5124E356003E0104D104E35602A
:101A000000BF00BF064D08352D68C5F303150E4E07
:101A1000705D0B4D2D68C540094E356070BD0000EE
:101A2000003802400070004008544007003C02406B
:101A300088ED00E0FFFFF6FE103000240024F400E3
:101A40002800002000127A002C00002070471CB5EE
:101A5000044601210846FEF77DFE4FF4C050009079
:101A6000009840F40070009003208DF805000220DB
:101A70008DF8040000208DF806008DF807006946F7
:101A80004748FFF741F80A2209214548FFF7C7F800
:101A90000A220B214248FFF7C2F80A220C214048D3
:101AA000FFF7BDF84FF48060009001208DF806002C
:101AB0008DF8070003208DF8050069463848FFF7C8
:101AC00023F80A2211463648FFF7A9F801218803B6
:101AD000FEF79AFE01218020FEF74DFE1CBD38B5B1
:101AE00004464FF4C060FEF7EBFB43208DF8000086
:101AF00001208DF801008DF802008DF80300684682
:101B0000FEF7E3FB38BD70B505460C4624B901214C
:101B10002448FFF775F803E001212248FFF772F827
:101B200070BD08B500220092C0EB0012D20007235E
:101B3000B2FBF3F100BF009A521C00928A4200D916
:101B400008BDF8E710B504464FF47A7104FB01F0C4
:101B5000FFF7E7FF10BD1CB5044601210420FEF786
:101B6000F9FD0120009002208DF8050001208DF87C
:101B7000040000208DF806008DF80700694609482A
:101B8000FEF7C2FF01210748FFF73AF8C820FFF728
:101B9000D9FF1CBD10B5044801F09FFD10BD000029
:101BA0000000024000080240A402002008B5002105
:101BB0000091491EC26851606FF08041C268516156
:101BC000009921F0004101F100410091009921F4B8
:101BD000006101F5006100910099C268916108BD42
:101BE000F8B50446002600250020009000BF032021
:101BF000FFF797FFE06800690090681C0546F94907
:101C0000884201D90020F8BD0098C00F0028EED00E
:101C10000025009820F00100401C00900098E16829
:101C2000086100BFE06800690090681C0546ED4946
:101C3000884200D904E0009800F001000028F1D1AA
:101C400000BF0320FFF76DFF3046DCE72DE9F041D0
:101C500004460026E078B0B900270020DD1C4FEADA
:101C6000E57805EB98784FEAA80704F1D00555F818
:101C700022C000BF04E00D68CCF80050401C091DD4
:101C8000B842F8D300BF3046BDE8F081F0B5034656
:101C90000024D01CC71700EB9777BD10D3F8D06095
:101CA00000BF03E030680860641C091DAC42F9D332
:101CB0000846F0BD70B502460C4600230020002502
:101CC000D5700125957040259580012C0CD14FF0E1
:101CD000A0430125D57208251570042555709D1562
:101CE000D580022515720EE06CB9BF4B0025D57268
:101CF0000C251570062555704FF4A065D58002257A
:101D000015720125D570D36003F5006515610021BA
:101D100010E003F5106505EB411602F1180545F8D2
:101D2000216003F5306505EB411602F1540545F8D5
:101D30002160491C55788D42EBD803F580655561CB
:101D40004035C2F8CC50002108E003F5A06505EB52
:101D5000411602F1900545F82160491C15788D4225
:101D6000F3D8002108E003F5805505EB013602F1B8
:101D7000D00545F82160491C15788D42F3D803F54C
:101D80006065C2F80C5170BD3EB5044600250020C8
:101D9000029001900090207A012843D1E068806B86
:101DA0000190019820F480300190607A28B1019868
:101DB00020F4801000F5801001900198E16888639C
:101DC00000200290E068C0680290029820F0400075
:101DD0000290029820F4801000F580100290029882
:101DE00020F480000290029820F4003002900298C3
:101DF00020F4002002900298E168C8602046FFF7B6
:101E0000EFFEE078012843D1009820F01E000A3050
:101E10000090009820F02000203000900098E168A9
:101E2000886035E0E068C0680290029820F04000C9
:101E3000403002900298E168C8602046FFF7D0FE6B
:101E400000200190019820F4803000F5803001904E
:101E5000019820F4802000F580200190019820F462
:101E6000002000F500200190019820F4001000F5FA
:101E700000100190607A28B1019820F4801000F5DC
:101E8000801001900198E16888631420FFF75AFEE2
:101E9000E07801280FD1E06880680090009820F079
:101EA0001E000A300090009820F0200020300090A2
:101EB0000098E168886028463EBD08B501460020CC
:101EC00000220092009A22F00102521C0092CA687D
:101ED0009268009B1A43CB689A6008BD08B501461A
:101EE000002000220092009A22F00102521C00926F
:101EF000CA689268009B9A43CB689A6008BDF8B59F
:101F000004460D460026002700200090009820F08F
:101F1000200020300090009865F38A10009000980F
:101F2000E168086100BFE06800690090781C07461E
:101F30002C49884200D904E00098C0F340100028E2
:101F4000F1D100BF0320FFF7ECFD3046F8BDF8B536
:101F500004460025002600200090009820F0100084
:101F6000103000900098E168086100BFE0680069E7
:101F70000090701C06461B49884200D904E0009876
:101F8000C0F300100028F1D100BF0320FFF7C9FD06
:101F90002846F8BDF8B504460D460026E068C0683E
:101FA0000090009820F000500090009820F08040B1
:101FB0000090012D06D1009820F0005000F1005053
:101FC000009006E02DB9009820F0804000F180409C
:101FD00000900098E168C8603220FFF7B3FD3046FA
:101FE000F8BD0000400D0300000004400146C86831
:101FF000406900F00100704700B502461046FFF747
:10200000F5FF012801D0012000BD0020FCE700B54C
:1020100002461046FFF7EAFF012800D100BD00206C
:10202000FCE701460020CA685069CA6892691040FE
:1020300070470146C8684068704738B504460025B7
:1020400000200090E1688861401EE16848612046F8
:10205000FFF7ACFDE07820B9009820F010001030B8
:102060000090009820F0807000F18070009000983F
:1020700020F0007000F100700090009820F00050F7
:1020800000F100500090009820F008000830009007
:10209000009820F4001000F500100090E0688069BE
:1020A000009988430843E1688861284638BD08B52F
:1020B0000146D1F8CC0000680090009820F00400A0
:1020C0000090009820F002000090009820F0080096
:1020D0000090009820F020000090009808BD38B5CE
:1020E00005460C460020009021462846FFF70BFDD0
:1020F0002846FFF7DCFF00900098C0F3003058B985
:10210000012C09D1009820F4805000F580500090F7
:102110000099D5F8CC0001600098C0F3003040B1C0
:102120003CB9009820F4805000900099D5F8CC007C
:102130000160C820FFF706FD38BD38B504462046CB
:10214000FFF7B5FF0090009820F4807000F58070D4
:1021500000900099D4F8CC0001600A20FFF7F2FC4F
:10216000009820F4807000900099D4F8CC000160B1
:102170001420FFF7E7FC012038BD08B5426912685A
:102180000092009A61F301020092009B4269136081
:1021900008BDFEB5044600260025002002900190EF
:1021A00000902046FFF7D7FC0021D4F80C01016015
:1021B000207A012803D12046FFF7DFFF03E0012149
:1021C0002046FFF7DAFF2046FFF7B7FF6069006897
:1021D0000090009820F00400009000996069016070
:1021E000E07A01281DD18020E168486202986FF3EF
:1021F0000F0080300290029880B200F5C00002907B
:102200000298E168886201986FF30F00E030019056
:10221000019880B200F5C00001900198E168C1F812
:102220000001E07A00BB4FF40070E1684862029858
:102230006FF30F0000F500700290029880B200F179
:10224000807002900298E168886201986FF30F0035
:1022500000F540700190019880B200F1807001900B
:102260000198E168C1F8000110212046FFF747FE00
:102270002046FFF76CFE00250DE04FF0FF3104F122
:10228000900050F825008160002104F1900050F882
:102290002500C1606D1C2078A842EED8012120469F
:1022A000FFF71DFF2046FFF7C8FE3046FEBD014682
:1022B0004869806800F0010080F001007047014625
:1022C0004869406970473FB502460020002300245A
:1022D000029403940194441E009402F1900454F873
:1022E0002140009DA56000240394D478012C04D1E2
:1022F000039C24F00404241D039402F56B7404EB86
:102300004114647934B1012C6AD0022C03D0032C1F
:1023100038D138E000BF039C24F00104641C03940E
:10232000039C24F0080408340394039C24F08004E4
:1023300080340394039C24F4806404F58064039443
:10234000039C24F010041034039402F56B7404EB26
:102350004114A47834B1039C24F4807404F580748F
:1023600003940FE0039C24F040044034039402F5EE
:102370006B7404EB4114247924B1039C24F02004F1
:10238000203403944EE0039C24F00104641C039465
:10239000039C24F0100410340394039C24F00804DC
:1023A00008340394039C24F0800480340394039C39
:1023B00024F4806404F580640394039C24F4007482
:1023C00004F50074039402F56B7404EB4114A478D3
:1023D0002CB1039C24F4807404F58074039421E0F0
:1023E000039C24F00104641C0394039C24F40074F3
:1023F00004F500740394039C24F020042034039417
:1024000002F56B7404EB4114A47854B1039C24F0DE
:10241000800480340394039C24F4807404F5807455
:10242000039400BF00BF02F1900454F82140039DC3
:10243000E560012404FA01F35469A4691C43556959
:10244000AC61029C24F0007404F100740294D4681E
:10245000A469029D2C43D568AC610024019402F567
:102460006B7404EB41142578019C65F39C54019432
:1024700002F56B7404EB41146578019C65F3CE247E
:10248000019402F56B7404EB4114A578019C65F38B
:10249000CF34019402F56B7404EB4114E478022C00
:1024A00001D1012500E00025019C65F35144019410
:1024B00002F56B7404EB41146579019C65F3934458
:1024C000019402F56B7404EB4114E588019C65F3FB
:1024D0000A04019402F56B7404EB41146479032C33
:1024E00005D1019C24F0005404F10054019402F140
:1024F000900454F82140019D256004B030BD2DE9C1
:10250000F04388B004460D464FF00009C8464FF42A
:102510008077002006900790009004F56B7000EB28
:102520004510006910B304F56B7000EB45100169AC
:1025300004F56B7000EB4510C0880144491E04F59A
:102540006B7000EB4510C088B1FBF0F086B2BE4264
:102550000DDD3E4604F56B7000EB4510C1887143FC
:1025600004F56B7000EB4510016100E0012604F5F5
:102570006B7000EB4510807850B104F56B7000EB88
:102580004510C188714304F56B7000EB4510016183
:1025900004F56B7000EB45100169069861F31200B9
:1025A0000690069866F3DC40069004F56B7000EB2D
:1025B0004510017A069861F35E70069004F1900070
:1025C00050F8250006990161E078012809D104F549
:1025D0006B7000EB4510C16804F1900050F82500C5
:1025E000416104F1900050F82500006807902046F2
:1025F000FFF75DFE079960F35D710791079820F082
:10260000004000F100400790079820F080400790BC
:1026100004F1900050F8250007990160E078002847
:1026200064D104F56B7000EB4510807800285DD113
:1026300004F56B7000EB45100069002856D004F5D6
:102640006B7000EB4510407930B1012821D0022891
:1026500003D0032839D11BE000BFE068C06A0390B3
:1026600004F56B7000EB45100069C01CC0F38F08C7
:10267000039880B240450ADA009820F0200020300C
:102680000090E068806900990843E16888611DE076
:1026900000BF60690069019004F56B7000EB4510A4
:1026A0000069C01CC0F38F08019880B240450BDA66
:1026B000009820F0806000F180600090E068806900
:1026C00000990843E168886100E000BF00BF04F59D
:1026D0006B7000EB4510008A83B204F56B7000EB61
:1026E00045102A46C1682046FFF7B0FA484608B0B0
:1026F000BDE8F08310B586B00246002000230393A6
:10270000019302F1900353F821301B680093009B62
:1027100023F0004303F100430093009B23F0804328
:1027200003F180430093009BC3F3814323B1009BDB
:10273000C3F38143022B0BD1D368DB6A0393039B62
:10274000C3F307437BB9009B23F0004300930AE0E7
:1027500053691B690193019BC3F307431BB9009B9A
:1027600023F00043009302F1900353F82130009CC2
:102770001C6006B010BD1CB502460020002300936B
:10278000009B23F0004303F1004300930124009BCE
:1027900064F3DC43009302F1900353F82130009C72
:1027A0001C6102F1900353F821301B680193019BD7
:1027B00023F0004303F100430193019B23F0804386
:1027C000019302F1900353F82130019C1C601CBD61
:1027D00038B50446002160698161491E6069416124
:1027E00000251AE004F1900050F8250000680090E0
:1027F000009820F000400090009820F0804000F108
:1028000080400090009820F40040009004F1900077
:1028100050F82500009901606D1C2078A842E1D88D
:102820002046FFF794FB10212046FFF768FB38BDD8
:1028300070B504460E4600250021C4F8101300BFF1
:102840000BE0002104F5457040F825103C3040F8BD
:1028500025103C304155681CC5B20F2DF1DB082115
:10286000A4F8B21331462046FFF724FA2046FFF7BA
:1028700035FB2046FFF788FA01212046FFF78AFB47
:102880002046FFF786FC2046FFF717FB002070BDAF
:1028900008B50146D1F8CC00006800900098C0F35C
:1028A000414008BD10B504462046FFF746FC002015
:1028B00010BD0146D1F81003704701464869806891
:1028C00080B27047024602F29B30405C704702467D
:1028D00002F5547050F821007047024602F563700B
:1028E000405C704770B504460D4629462046FFF708
:1028F000EAFC70BD70B504460D46002104F29B3021
:102900004155113000EB4510416129462046FFF743
:10291000F6FD70BD0CB50146D1F89000006800903E
:10292000009820F0004000F100400090009820F056
:10293000804000F180400090009AD1F89000026041
:1029400000200190019820F4001000F50010019083
:102950000198CA68506101200CBD38B504460020BA
:102960000090FE480068816820468847009820F063
:10297000005000F1005000900098E168486101208B
:1029800038BDFEB5044600260025002000900290C8
:102990000190D4F8CC0000680290D4F8CC00006814
:1029A0000190019820F004000190019820F00200AD
:1029B0000190019820F008000190019820F020007B
:1029C00001900298C0F3400058B1019820F0020035
:1029D000801C0190E148006841682046884745F026
:1029E00001050298C0F3C000002842D0019820F0F1
:1029F0000800083001900298C0F38000002838D009
:102A0000D64800684168204688470298C0F3414094
:102A1000022804D00298C0F34140012828D16069FF
:102A2000006800900298C0F34140022811D141F2A1
:102A3000707160694160009800F00300022818D0AE
:102A4000207A022803D102212046FFF796FB0126B7
:102A50000FE04BF6803160694160009800F00300A0
:102A6000012806D001212046FFF787FB012600E060
:102A700001260298C0F3401030B1019820F02000E8
:102A80002030019045F0010516B12046FFF755FBB7
:102A90000199D4F8CC0001602846FEBD7FB50546FB
:102AA0000C4605F1900050F82460B0680390F0687F
:102AB0000290DDE902100840039005F1900050F803
:102AC0002400006801900398C0F38000D0B100207A
:102AD0000090009820F00400001D00900098B06065
:102AE00005F1900050F82400C0680090009820F094
:102AF0000200801C009005F1900050F8240000991D
:102B0000C160B4E10398C0F3401048B100200090C8
:102B1000009820F02000203000900098B060A6E1DE
:102B20000398C0F34020F8B105F1900050F824005C
:102B3000C0680090009820F00200801C009005F111
:102B4000900050F824000099C160E1B22846FFF7D8
:102B5000D1FD00200090009820F4007000F5007076
:102B600000900098B06082E1039800F0010038B353
:102B7000002105F5457040F8241005F1900050F84B
:102B80002400C0680090009820F00200801C009093
:102B900005F1900050F824000099C160E1B2284688
:102BA000FFF7A8FD00200090009820F00100401CD5
:102BB00000900098B060012105F56370015556E161
:102BC0000398C0F3C00010B300200090009820F0DC
:102BD0000800083000900098B06005F1900050F8AF
:102BE0002400C0680090009820F00200801C009033
:102BF00005F1900050F824000099C160E1B2284628
:102C0000FFF778FD052105F5637001552FE1039865
:102C1000C0F3001038B3002105F5457040F82410CA
:102C200005F1900050F82400C0680090009820F052
:102C30000200801C009005F1900050F824000099DB
:102C4000C160E1B22846FFF755FD002000900098D2
:102C500020F01000103000900098B060032105F5BE
:102C60006370015503E10398C0F3C01040B305F150
:102C7000900050F82400C0680090009820F00200F6
:102C8000801C009005F1900050F824000099C1606C
:102C9000E1B22846FFF72EFD05F5457050F82410E7
:102CA000491C40F82410062178300155002000907E
:102CB000009820F08000803000900098B060D6E04E
:102CC0000398C0F3801038B3002105F5457040F833
:102CD000241005F1900050F82400C068009000987E
:102CE00020F00200801C009005F1900050F82400B4
:102CF0000099C160E1B22846FFF7FCFC002000907B
:102D0000009820F04000403000900098B06004210E
:102D100005F563700155AAE00398C0F3802078B3ED
:102D200005F1900050F82400C0680090009820F051
:102D30000200801C009005F1900050F824000099DA
:102D4000C160E1B22846FFF7D5FC00200090009852
:102D500020F0100010300090009801E048000020A2
:102D6000B060082105F563700155002000900098BF
:102D700020F4806000F5806000900098B06076E0FC
:102D8000FFE70398C0F34000002870D005F19000E1
:102D900050F82400C0680090009820F002000090D5
:102DA00005F1900050F824000099C16005F56370AA
:102DB000005D012815D1012105F29B3001550198D4
:102DC000C0F38140022848D105F56B7000EB441038
:102DD000407E80F0010105F56B7000EB44104176F8
:102DE0003BE005F56370005D032804D1022105F284
:102DF0009B30015531E005F56370005D04280FD16B
:102E000005F56B7000EB44100079012803D1E1B2A5
:102E10002846FFF7B0FC022105F29B3001551CE06B
:102E200005F56370005D052804D1042105F29B308F
:102E3000015512E005F56370005D06280DD105F51A
:102E4000457050F82400032807D1032105F29B3078
:102E500001550021873840F8241000200090009888
:102E600020F00200801C00900098B06000BF01209C
:102E700004B070BD70B586B005460C4605F19000F3
:102E800050F82460B0680590F0680490DDE9041003
:102E90000840059005F1900050F824000068039068
:102EA000002004900598C0F38000D0B1002001906C
:102EB000019820F00400001D01900198B06005F118
:102EC000900050F82400C0680190019820F00200A2
:102ED000801C019005F1900050F824000199C16018
:102EE00073E00598C0F3401048B1002001900198AC
:102EF00020F02000203001900198B06065E0059836
:102F0000C0F3C00078B305F1900050F82400C06809
:102F10000190019820F00200801C019005F19000C2
:102F200050F824000199C160052105F56370015531
:102F300000200190019820F01000103001900198BD
:102F4000B06000200190019820F008000830019046
:102F50000198B060059820F010000590E1B2284675
:102F6000FFF7C8FB31E0FFE70598C0F3802060B3AE
:102F700005F1900050F82400C0680190019820F0FD
:102F80000200801C019005F1900050F82400019986
:102F9000C160E1B22846FFF7ADFB00200190019827
:102FA00020F01000103001900198B060082105F564
:102FB0006370015500200190019820F4806000F5B5
:102FC000806001900198B06000BF0598C0F3402078
:102FD000F8B105F1900050F82400C0680190019804
:102FE00020F00200801C019005F1900050F82400B0
:102FF0000199C160E1B22846FFF77CFB00200190F7
:10300000019820F4007000F5007001900198B06004
:1030100042E1059800F00100002871D0E87801280D
:1030200012D105F1900050F824000069029005F5D6
:103030006B7000EB441000690299C1F31201411A50
:1030400005F5547040F82410012105F56370015511
:103050000021783840F8241000200190019820F0D9
:103060000100401C01900198B0600398C0F38140BA
:1030700020B10398C0F3814002282AD105F19000C5
:1030800050F82400C0680190019820F00200801CD4
:10309000019005F1900050F824000199C160E1B25F
:1030A0002846FFF727FB00200190019820F0100030
:1030B000103001900198B06005F56B7000EB441082
:1030C000007E80F0010105F56B7000EB4410017685
:1030D000E2E00398C0F38140032899D1039820F0DF
:1030E000005000F10050039005F1900050F82400CA
:1030F00003990160012105F29B300155CCE0FFE707
:103100000598C0F34000002851D005F1900050F818
:103110002400C0680190019820F00200019005F1A0
:10312000900050F824000199C16005F56370005DBE
:10313000012804D1012105F29B3001552DE005F550
:103140006370005D052804D1042105F29B30015510
:1031500023E005F56370005D062804D005F5637073
:10316000005D082808D1002105F5457040F82410BD
:1031700003218730015510E00398C0F381400328F4
:103180000BD105F56B7000EB4410007E80F001015F
:1031900005F56B7000EB441001760020019001985A
:1031A00020F00200801C01900198B06074E0059846
:1031B000C0F3C01040B305F1900050F82400C0687F
:1031C0000190019820F00200801C019005F1900010
:1031D00050F824000199C16005F5457050F824109D
:1031E000491C40F82410062178300155E1B22846E8
:1031F000FFF780FA00200190019820F080008030D5
:1032000001900198B06047E00598C0F30010E8B362
:103210000398C0F38140032815D105F1900050F8C0
:103220002400C0680190019820F00200801C0190E9
:1032300005F1900050F824000199C160E1B22846E0
:10324000FFF758FA18E00398C0F3814020B10398C3
:10325000C0F3814002280FD1039820F0004000F114
:1032600000400390039820F08040039005F1900007
:1032700050F8240003990160032105F5637001559E
:1032800000200190019820F0100000E004E01030D0
:1032900001900198B06000BF012006B070BD7CB500
:1032A0000546002400262846FFF709F8019000BFD4
:1032B0001BE0019880B20121A1400840A0B105F1B6
:1032C000900050F82400006800900098C0F3C030CF
:1032D00028B121462846FFF7CDFD064304E02146EC
:1032E0002846FFF7DBFB0643641C2878A042E0D8A1
:1032F00030467CBDFEB504466069006900900198C7
:10330000C0F3C30104F56B7000EB41100069C01CF1
:10331000C0F38F0674E04FF6FF71009801EA800554
:103320000198C0F3C30104F56B7000EB4110006914
:10333000A84216D20198C0F3C30104F56B7000EBEC
:103340004110008A85B200200290029820F080602F
:1033500000F180600290E068806902998843E1682A
:1033600088610198C0F3C30104F56B7000EB411054
:103370000069C01CC0F38F060198C0F3C302C0F3FC
:10338000C30304F56B7000EB43102B46C168204665
:10339000FEF75CFC0198C0F3C30104F56B7000EB11
:1033A0004110C06841190198C0F3C30204F56B7065
:1033B00000EB4210C1600198C0F3C30104F56B70CB
:1033C00000EB41100069411B0198C0F3C30204F5F2
:1033D0006B7000EB421001610198C0F3C30104F56A
:1033E0006B7000EB4110406941190198C0F3C302B2
:1033F00004F56B7000EB4210416160690069009058
:10340000009880B2B0420ADD0198C0F3C30104F510
:103410006B7000EB4110006900287FF47CAF012045
:10342000FEBD7FB50446E068C06A00900198C0F315
:10343000C30104F56B7000EB41100069C01CC0F3C0
:103440008F0673E04FF6FF71009801EA800501983E
:10345000C0F3C30104F56B7000EB41100069A84292
:1034600015D20198C0F3C30104F56B7000EB411055
:10347000008A85B200200390039820F020002030BD
:103480000390E068806903998843E1688861019846
:10349000C0F3C30104F56B7000EB41100069C01C60
:1034A000C0F38F060198C0F3C302C0F3C30304F551
:1034B0006B7000EB43102B46C1682046FEF7C6FB3D
:1034C0000198C0F3C30104F56B7000EB4110C068B4
:1034D00041190198C0F3C30204F56B7000EB421070
:1034E000C1600198C0F3C30104F56B7000EB41109B
:1034F0000069411B0198C0F3C30204F56B7000EB37
:10350000421001610198C0F3C30104F56B7000EB38
:103510004110406941190198C0F3C30204F56B7072
:1035200000EB42104161E068C06A0090009880B2F0
:10353000B0420ADD0198C0F3C30104F56B7000EBE3
:103540004110006900287FF47DAF012004B070BDF8
:1035500030B585B00446002000900390039820F019
:10356000100010300390E068806903998843E16897
:103570008861E068006A0490049800F00F000090F1
:1035800004F190009DF8001050F8210000680190AF
:103590000498C0F34340022806D0032878D00528B9
:1035A00077D0072873D175E00498C0F30A1000287B
:1035B00069DD04F56B709DF8001000EB4110C068E8
:1035C000002860D00498C0F30A1204F56B709DF8CF
:1035D000003000EB4310C1682046FEF757FB04980B
:1035E00000F00F0104F56B7000EB4110C068049906
:1035F000C1F30A110144049800F00F0204F56B7046
:1036000000EB4210C160049800F00F0104F56B70EC
:1036100000EB411040690499C1F30A110144049878
:1036200000F00F0204F56B7000EB4210416104F5ED
:103630006B709DF8001000EB4110456904F5547063
:103640009DF8001040F8215004F190009DF8001002
:1036500050F82100006902900298C0F3C940002888
:1036600011DD019820F0004000F100400190019828
:1036700020F08040019004F190009DF80020019915
:1036800050F82200016006E002E002E0FFE700BF20
:1036900000BF00BF00BF00BF039820F01000103033
:1036A0000390E068806903990843E168886101201C
:1036B00005B030BD38B504460020009031480068A0
:1036C000016820468847009820F0080008300090E4
:1036D0000098E1684861012038BD38B505460024EE
:1036E000002000902846FEF792FC002847D028468C
:1036F000FEF797FC0090009808B9002038BD0098AC
:10370000C0F3C00018B12846FFF7D4FF0443009867
:10371000C0F3001018B12846FFF71AFF04430098C1
:10372000C0F3401018B12846FFF77BFE0443009811
:10373000C0F3806018B12846FFF7DCFD0443009811
:10374000C0F3406018B12846FFF7A9FD0443009874
:10375000C0F3006018B12846FFF713F9044300983E
:10376000C0F3407018B12846FFF7F7F804430098FB
:10377000C0F3405018B12846FFF7CCF80443204668
:10378000BCE700004800002001460122C1F81023D8
:103790000020704701460022C1F810230020704726
:1037A00001460020704770B505460C460020207089
:1037B0006070A0700120E070012121774021A1718B
:1037C000002084F82000012121200155217928467C
:1037D00000F0B8FB6179284600F0B4FB002070BD12
:1037E0002DE9F04106460F4614461D46DDF81880C7
:1037F0003046FEF72CF90020FEF7ADF921463046A1
:10380000FFF7D1FFC4F84051C4F84481394630462F
:10381000FFF70EF8D4F84411086880473046FEF7E9
:103820005EF9BDE8F0812DE9F04106460C464FF007
:10383000000800250021A174207F0C2876D2DFE843
:1038400000F0FD060F3D466576919AC0D7ED62798E
:1038500004F11401304600F0D0FB02212177EEE0A4
:1038600061793046FFF72EF80546012D1FD1207DE6
:1038700000F08007608B58B141F28830FD49088024
:10388000802F02D1032121770CE00521217709E067
:103890003220F8490880802F02D10921217701E0E8
:1038A000072121773046FFF708F8208205E0032D35
:1038B00003D10B2121770521A174C0E02379A289CE
:1038C0003046A16800F0F1FB04212177B7E02179AF
:1038D0003046FEF7F7FF0546012D01D1092121777A
:1038E000042D02D1607820700FE0032D02D10B214E
:1038F00021770AE03046FEF7E0FF218A401ADD49D1
:103900000988884201D90B21217798E00121627949
:1039100006F56B7000EB421041766379A289304660
:10392000A16800F08BFB0621217788E086E06179B1
:103930003046FEF7C7FF0546012D02D1072121774A
:103940000FE0042D04D1607820700C21217708E06D
:10395000022D02D10521217703E0032D01D10B2196
:1039600021776CE0237900221146304600F09DFB60
:103970000821217763E021793046FEF7A3FF054651
:10398000012D04D1607820700D21217718E0032DDE
:1039900002D10B21217713E03046FEF78EFF218AFA
:1039A000401AB4490988884202D90B21217707E0DF
:1039B000042D05D1607820700421A1744FF0030814
:1039C0003DE0617906F56B7000EB4110407E80F0C0
:1039D0000101627906F56B7000EB42104176637964
:1039E00000221146304600F029FB0A21217726E00B
:1039F00061793046FEF766FF0546012D04D16078F7
:103A000020700D21217708E0022D02D109212177B4
:103A100003E0032D01D10B21217710E0A07B401C96
:103A2000C1B2A173022902DC0121217705E008213E
:103A3000A174607820704FF0020800E000BF00BF62
:103A40004046BDE8F08170B504460D46052D01D015
:103A5000042D06D1D4F84411486C80470A20207008
:103A600007E0062D05D10A202070D4F8441108681B
:103A7000804770BD70B592B005460C460126A0780F
:103A80000A287AD2DFE800F00528375D667A97B415
:103A9000D1DB08222146284601F0DEFAD8B994F895
:103AA0002910A1712846FEF7FDFE0120A070A07923
:103AB0000021CDE90010617900231A46284600F064
:103AC000E8F9A0790021CDE90010217900231A46F8
:103AD000284600F0DEF9B5E012222146284601F022
:103AE000BBFA38B9D4F84401C16904F1220088470F
:103AF0000220A070A6E001222146284601F0E4FB46
:103B0000F0B90220FEF71EF80120A41CA077D4F81B
:103B10004211086A80470320207000200090019025
:103B2000A27FA1780346284600F0B3F90020009058
:103B30000190A27FA41E61790346284600F0A9F9EE
:103B400080E009222146284601F059FB08B90420EB
:103B5000A07077E0E28E2146284601F050FB58B96C
:103B6000D4F8440104F16C0204F13E01436A04F10B
:103B7000340098470520A07064E062E094F83000BB
:103B800088B1FF20009094F8302002AB21462846EF
:103B900001F07CFB70B9D4F84401816A02A888471F
:103BA0000620A07006E0D4F84401816A32A088475C
:103BB0000620A07046E094F8310088B1FF20009004
:103BC00094F8312002AB2146284601F05FFB70B922
:103BD000D4F84401C16A02A888470720A07006E013
:103BE000D4F84401C16A24A088470720A07029E0C6
:103BF00094F8320088B1FF20009094F8322002AB94
:103C00002146284601F042FB70B9D4F84401016B0B
:103C100002A888470820A07006E0D4F84401016B90
:103C200015A088470820A0700CE094F839202146A0
:103C3000284601F05CFB08B90920A07002E00026CC
:103C400000E000BF00BF304612B070BD3EB5054673
:103C50000C46022002902846FEF72BFE30B9207851
:103C600020B12078022801D00220207020780B2873
:103C70006FD203E04C0000204E2F4100DFE800F03F
:103C80000610A0B94D6A7D8A598F90002846FEF72C
:103C900010FE20B1012020706420FDF753FFA9E041
:103CA000D4F84411886880470021284600F037F98D
:103CB00060718021284600F032F920712846FEF715
:103CC000F1FD48BBD4F84411C86880472846FEF788
:103CD000DFFDC1B221200155042020702122105D9A
:103CE000D4F8442191698847A0790021CDE90010DA
:103CF0002120035D94F820202179284600F07CF8EB
:103D0000A0790021CDE900102120035D94F8202046
:103D10006179284600F070F86CE021462846FFF7EC
:103D2000A9FE28B9D4F84411486B804708202070B8
:103D300060E0D4F84411886B8047012808D1D4F89A
:103D40004001214602682846904708B905202070A6
:103D500050E04EE0D4F84001214682682846904762
:103D600002909DF8080010B90620207004E09DF82C
:103D700008102046FFF767FE3CE0D4F840012146DA
:103D8000C2682846904702909DF808102046FFF729
:103D90005AFE2FE021462846FFF745FD2AE029E09C
:103DA00021462846FFF7FFFCD4F8441148688047B5
:103DB000D4F8400104F1200142682846904719E0F8
:103DC000D4F844110869804721462846FFF7EBFCE8
:103DD000D4F8441148688047D4F8400104F1200128
:103DE000426828469047284600F0BBF80020207023
:103DF00000E000BF00BF3EBD2DE9F04704460D4680
:103E000017461E46DDE9088904F28C5010F81500AB
:103E100000F07F0104F56B7000EB4510417004F277
:103E20008C5010F81500C0F3C01104F56B7000EB56
:103E30004510817004F56B7000EB4510077004F5B8
:103E40006B7000EB451080F8058004F56B7000EB9B
:103E50004510A0F8069004F56B7000EB4510C67095
:103E6000002104F56B7000EB4510017604F56B70D2
:103E700000EB451041762EB9012104F56B7000EB83
:103E80004510017129462046FEF71DFA0020BDE8C5
:103E9000F0872DE9F04704460D4617461E46DDE93A
:103EA000089827B104F56B7000EB4510077004F516
:103EB0006B7000EB4510C088404508D0B8F1000F8A
:103EC00005D004F56B7000EB4510A0F8068004F5F2
:103ED0006B7000EB4510C078B04205D026B104F5F8
:103EE0006B7000EB4510C67029462046FEF7EBF9D3
:103EF0000020BDE8F0870246002100BF0AE002F280
:103F00008C5030F8110000F4004008B908467047A2
:103F1000481CC1B20829F2DB4FF6FF70F7E770B515
:103F200005460E462846FFF7E6FF04464FF6FF70AB
:103F3000844205D046F4004105F28C5020F814105C
:103F4000E0B270BD0246082909DA02F28C5030F85E
:103F50001100C0F30E0302F28C5020F81130002043
:103F600070470246022106E0002302F28C5020F83E
:103F70001130481CC1B20829F6DB0020704710B58B
:103F80000346187858700720187099609A810124A8
:103F90001C77002010BD2DE9F04180460C461546E7
:103FA0001E460127E078012802D0022820D108E02F
:103FB000324629462046FFF7E2FF0220E070012743
:103FC00017E0207F0D2805D10120E0700021217726
:103FD00000270CE0207F0B2803D10120E07002278E
:103FE00005E0207F0C2802D10120E070032700E0CB
:103FF00000BF00BF3846BDE8F08170B505460E46EB
:104000001446002105F56B7000EB4410817003210C
:1040100005F56B7000EB4410017205F56B7000EB59
:104020004410C660082105F56B7000EB4410016177
:1040300021462846FEF75EFCC0B270BD2DE9F04176
:1040400005460F4616461C46002105F56B7000EB31
:104050004410817005F56B7000EB4410C76005F5E6
:104060006B7000EB441006612EB9012105F56B70F1
:1040700000EB4410417605F56B7000EB4410407E78
:1040800030B9002105F56B7000EB4410017205E0BA
:10409000022105F56B7000EB4410017221462846A1
:1040A000FEF728FC0020BDE8F0812DE9F04105462F
:1040B0000E4617461C46012105F56B7000EB4410B7
:1040C0008170022105F56B7000EB4410017205F55B
:1040D0006B7000EB4410C66005F56B7000EB44108C
:1040E000076121462846FEF705FC0020BDE8F08167
:1040F0002DE9F04105460E4617461C46002105F500
:104100006B7000EB4410817005F56B7000EB441090
:10411000C66005F56B7000EB4410076105F56B7028
:1041200000EB4410407E28B905F56B7000EB44109D
:10413000017205E0022105F56B7000EB441001727D
:1041400021462846FEF7D6FB0020BDE8F0812DE988
:10415000F04105460E4617461C46012105F56B70D9
:1041600000EB4410817005F56B7000EB4410C660E5
:1041700005F56B7000EB4410076105F56B7000EB03
:104180004410007E30B9002105F56B7000EB44103F
:10419000017205E0022105F56B7000EB441001721D
:1041A00021462846FEF7A6FB0020BDE8F0812DE958
:1041B000F04105460E4617461C46012105F56B7079
:1041C00000EB4410817005F56B7000EB4410C66085
:1041D00005F56B7000EB4410076105F56B7000EBA3
:1041E0004410007E30B9002105F56B7000EB4410DF
:1041F000017205E0022105F56B7000EB44100172BD
:1042000005F56B7000EB4410007E80F0010105F5B0
:104210006B7000EB4410017621462846FEF76AFBDE
:104220000020BDE8F0812DE9F04105460E46174615
:104230001C46002105F56B7000EB4410817005F5FC
:104240006B7000EB4410C66005F56B7000EB44101A
:10425000076105F56B7000EB4410007E28B905F589
:104260006B7000EB4410017205E0022105F56B70E4
:1042700000EB4410017205F56B7000EB4410007EFA
:1042800080F0010105F56B7000EB441001762146CA
:104290002846FEF72FFB0020BDE8F0812DE9F04114
:1042A00005460E4617461C46012105F56B7000EBCE
:1042B0004410817005F56B7000EB4410C66005F585
:1042C0006B7000EB44100761002105F56B7000EB8B
:1042D0004410017221462846FEF70CFB0020BDE881
:1042E000F0812DE9F04105460E4617461C46002197
:1042F00005F56B7000EB4410817005F56B7000EBF9
:104300004410C66005F56B7000EB4410076105F5BD
:104310006B7000EB4410017221462846FEF7EAFA62
:104320000020BDE8F081000010B504462046FEF7ED
:10433000C0FA48B1F848F9490860F94848600020D7
:1043400048730120F749C8700020F7490860F74911
:10435000087010BD2DE9F04105460E4614460127B0
:1043600014B1012C12D108E0F1480378C27831462B
:10437000284600F0E5FF074609E0ED4843788278DB
:104380003146284600F0DCFF074600E000BF00BFD2
:10439000E5480068401CE4490860084600680428B5
:1043A00000D904273846BDE8F0812DE9F0410546E3
:1043B0000F46002601242846FEF77BFA20B3DC488E
:1043C00001782846FEF783FA06460D2E01D0022416
:1043D0001CE0D8480068D849884216D1D5484068C2
:1043E000CE494968884211D1D248007B08B90024DF
:1043F0000CE0D048007B012801D1012406E0CD4823
:10440000007B022802D1022400E00224C548C473C4
:104410002046BDE8F0812DE9F0478046894600241A
:104420004046FEF746FA00287ED0BE4800790928AB
:104430007BD2DFE800F07A051251A3FEFDFCFB0001
:10444000BB4843781F22B5494046FFF751FE012083
:10445000B4494871022008718BE1B5484178404663
:10446000FEF730FA0446012C26D10020AE49086040
:104470000220AC494871A948007B00F08007A7489A
:104480008068A8B1A5488068AC490860A5488068E4
:10449000AB49086008460068AA490860802F03D12C
:1044A0000320A049087116E004209E49087112E01B
:1044B00005209C4908710EE0022C04D199484079EE
:1044C0009849087107E0042C05D101209E49087025
:1044D0000820944908714CE1954801784046FEF760
:1044E000F1F90446012C03D08E48407903283AD0D4
:1044F00000208D49086003208A4948718C488088D3
:104500008E490968884219D28948037882888C4884
:1045100001684046FFF71BFE854880888749096887
:10452000081A8649086001E024E121E1804880887A
:10453000834909680844824908601EE07F48006892
:1045400018B905207749087117E0794803787B4846
:10455000008882B27A4801684046FFF7F8FD0020E3
:104560007649086009E0042C07D1002076490870DC
:1045700007206C49087105204871FAE06C484178C1
:104580004046FEF79FF90446012C3BD100206649C6
:1045900008600420634948716548C0886749096814
:1045A00088421AD262484378C2886548016840460A
:1045B000FFF79EFD62480068624908605C48C08859
:1045C0005F49096808445E4908605948C0885B49EA
:1045D0000968081A5949086042E05848006818B943
:1045E0000520504908713BE0514843785348008802
:1045F00082B2534801684046FFF77AFD00204F49D8
:1046000008602DE0022C21D14D4800684D49096811
:10461000884212D046484378C288C088DFF820C15B
:10462000DCF800C0ACEB0001404603E08EE058E04F
:1046300036E016E0FFF75CFD12E03D484378C288A3
:104640003F4801684046FFF753FD09E0042C07D1BD
:1046500001203D4908700820324908710520487141
:1046600087E005202F494871324888603F208881C3
:104670000D2604E000202F498855701EC6B2002E7A
:10468000F8D100202B4908702948037825483F229B
:1046900081684046FFF75BFD06202249087168E00B
:1046A000234801784046FEF70DF90446012C0FD14E
:1046B00000201D49086005201A4948710846807885
:1046C000087049464046FFF770FE1649C87307E078
:1046D000042C05D100201C490870072011490871DD
:1046E00047E0002249464046FFF734FE054665B9DB
:1046F00015480078022803D108200A49087109E00A
:10470000084840790749087104E0042D02D10220CD
:104710000449C8732DE00000555342430C0E00209D
:10472000504030203C0E0020500000206C00002043
:104730004C0E00202C0E00205553425354000020F4
:10474000580000205C000020600000200122494643
:104750004046FFF7FFFD054625B907484079064961
:10476000087104E0042D02D102200349C87300E05F
:1047700000BF00BFBDE8F0873C0E00207CB50646B8
:104780000D462C4694F84300082856D194F845006D
:10479000502852D194F86E0000F0800038B194F89F
:1047A0006E00C549C870B4F87000888006E094F8BF
:1047B0006E00C1498870B4F87000C88094F8760023
:1047C00000F0800038B194F87600BB49C870B4F8A6
:1047D0007800888006E094F87600B7498870B4F8CD
:1047E0007800C880B44881783046FFF798FBB2491A
:1047F00048700846C1783046FFF791FBAE49087013
:104800000846C0880221CDE900102120035D94F8FC
:104810002020A94841783046FFF7EEFAA648808864
:104820000221CDE900102120035D94F82020A24848
:1048300001783046FFF7E0FA03E0D4F84411086C41
:10484000804700207CBD70B504460D469A484078EC
:1048500060B1994841782046FDF74CFF9648417871
:104860002046FFF76FFB002093494870924800787C
:1048700060B1914801782046FDF73CFF8E480178F1
:104880002046FFF75FFB00208B49087070BD10B514
:10489000024600200023894C237010BD012812D14C
:1048A00087490978491C864A1170114609780A29F6
:1048B00005DA0621814A11700121D1700AE00A212E
:1048C0007E4A117006E0022803D10A217B4A11704A
:1048D00000E000BF704770B505460C46A121217568
:1048E000FE2161750021E182218301216183012381
:1048F000714A083221462846FFF74DFB70BD70B55E
:1049000005460C4621212175FF2161750021E182B8
:104910002183618300231A4621462846FFF73BFB8B
:1049200070BD2DE9F04781460F463E460124032520
:104930004FF000084846FDF7BCFF002878D05F48DC
:1049400000780B2875D2DFE800F0060D1E55667959
:104950008A999E44B0004846FFF7E6FC012057497B
:104960000870A5E039464846FFF7C9FF044614B968
:10497000022052490870032C04D102204F4948708C
:104980000920087094E039464846FFF7A4FF044622
:10499000BCB94948007A484981F80802084690F8AD
:1049A000080200280ADD4748007838B90120454947
:1049B0000870D6F84411086C804779E003203F491D
:1049C0000870032C04D103203C494870092008706A
:1049D0006EE0737900223946484600F0B1FC044687
:1049E0003CB90020344981F8080234484078334902
:1049F00008705DE0484600F067F805463DB90420C0
:104A00002E49087000202E490870002402E0284634
:104A1000FFF744FF4CE0484600F0A7F805464DB9C3
:104A2000052026490870002025490870002404E06C
:104A30003FE03CE02846FFF731FF39E0484600F010
:104A4000F9F805463DB908201C49087000201C49AA
:104A50000870002402E02846FFF720FF28E04846BF
:104A600000F048F905462DB91448407813490870FC
:104A7000002402E02846FFF711FF19E039464846B6
:104A8000FFF7C9FC14E0D6F84411C86B804700F06A
:104A9000FF08B8F1000F03D108200849087003E0AF
:104AA000B8F1010F00D1062402E0042400E000BFA9
:104AB00000BF2046BDE8F0874C0E00203C0E0020D1
:104AC0006C0000208000002070B5054603262846B3
:104AD000FDF7EFFE002846D0FB48C078012802D041
:104AE00002283ED124E00020F8498860087306209F
:104AF0008873F748F44988603F20888103208870D4
:104B0000102405E00021F1480F300155601EC4B2A9
:104B1000002CF7D10020ED49C8730120EA49087143
:104B2000072008700320C8730220C870032619E00C
:104B3000E548C07B20B90120E349C87000260FE09A
:104B4000E148C07B012803D1DF49C870012607E096
:104B5000DD48C07B022803D10120DB49C870022652
:104B600000E000BF00BF304670BD70B505460326AB
:104B70002846FDF79EFE00285AD0D348C078012869
:104B800002D0022852D123E00820D049886080203A
:104B900008730A208873CF48CB4988600420887046
:104BA000102405E00021C9480F300155601EC4B231
:104BB000002CF7D12520C549C8730120C2490871CE
:104BC000072008700320C8730220C87003262EE057
:104BD000BD48C07BC8B9BF480078BF49C870BD4850
:104BE00040788870BB4880784870BA48C0780870B0
:104BF000B8488179B8484172B648C079B649087258
:104C00000120B149C87000260FE0AF48C07B0128E1
:104C100003D1AD49C870012607E0AB48C07B02282C
:104C200003D10120A849C870022600E000BF00BFE0
:104C3000304670BD70B5054603262846FDF739FE9F
:104C4000002855D0A048C078012802D002284DD1B4
:104C500027E03F209D498860802008730A208873E0
:104C60009C489949886005208870102405E000213F
:104C700096480F300155601EC4B2002CF7D11A209F
:104C80009249C8733F2191484174C17401208E49F3
:104C90000871072008700320C8730220C87003261B
:104CA00025E08948C07B80B98A48807800F0800080
:104CB00018B101208849087302E000208649087372
:104CC00001208149C87000260FE07F48C07B012881
:104CD00003D17D49C870012607E07B48C07B0228CC
:104CE00003D101207849C870022600E000BF00BF50
:104CF000304670BD70B5054603262846FDF7D9FD40
:104D000000285DD07048C078012802D0022855D113
:104D10002BE03F206D498860802008730A2088734B
:104D20006C48694988600846807848700620887019
:104D3000102405E0002165480F300155601EC4B203
:104D4000002CF7D103206149C87300215F4801742A
:104D50003F21C17401205C490871072008700320BD
:104D6000C8730220C870032629E05748C07BA0B949
:104D7000584801785848C171564841785648817161
:104D800054488178544841715248C078524908715A
:104D900001204D49C87000260FE04B48C07B012818
:104DA00003D14949C870012607E04748C07B022863
:104DB00003D101204449C870022600E000BF00BFB3
:104DC000304670BD2DE9FF4182B007460E461D46B4
:104DD0004FF003083846FDF76CFD00285BD03A48D9
:104DE000C078012802D0022853D138E037488560C6
:104DF0000020364908730A208873334886601024DF
:104E000005E0002131480F300155601EC4B2002C6E
:104E1000F7D12A202D49C8739DF813102B484174EF
:104E20009DF8121081749DF81110C1749DF8101036
:104E30000175C5F34F2001909DF805102348817539
:104E40009DF80410C17501201F49087107200870E2
:104E50000320C8730220C8704FF003081AE01A48F4
:104E6000C07B28B901201849C8704FF000080FE036
:104E70001548C07B012802D11349C87008E01248C8
:104E8000C07B022804D101200F49C8704FF00208EE
:104E900000E000BF00BF404606B0BDE8F081FFB5AE
:104EA00081B007460E461D4603200C49087038465F
:104EB000FDF7FFFC002876D00348C07801280FD00A
:104EC00002286ED146E000003C0E00200C0E0020AF
:104ED0002C0E0020681000205810002081000020B7
:104EE000334885608020324908730A20887331482E
:104EF0008660102405E000212D480F300155601E0A
:104F0000C4B2002CF7D128202949C8739DF80F108E
:104F1000274841749DF80E1081749DF80D10C174DE
:104F20009DF80C100175C5F34F2000909DF80110FD
:104F30001F4881759DF80010C17501201D49087139
:104F4000072008700320C8730220C87003201A4984
:104F5000087027E01748C07B50B93846FDF7A9FC18
:104F600030B101201349C87000201349087015E0C2
:104F70001048C07B012807D13846FDF79AFC18B1CC
:104F800001200C49C87009E00A48C07B022805D1FD
:104F900001200849C87002200749087002E002E0B9
:104FA000FFE700BF00BF0448007805B0F0BD000077
:104FB0000C0E00203C0E00208100002010B50B7864
:104FC00003704B7843708C78CB7804EB03234380D9
:104FD0000B7903714B7943718B798371CB79C371F1
:104FE000082A16DD0C7A4B7A04EB032303818C7AB2
:104FF000CB7A04EB032343810C7B4B7B04EB032331
:1050000083818B7B8373CB7BC3730B7C03744B7C5F
:10501000437410BD2DE9F04780460C4616461D46E8
:10502000DDE9089746F08001217506216175E5826A
:1050300005F47F40B0F5407F03D140F20941218360
:1050400001E00021218367833B464A4621464046D2
:10505000FEF7A1FFBDE8F0872DE9FC4104460D46AF
:10506000164604F588704FF4807300222946CDE976
:1050700000062046FFF7CEFF071E06D1324604F594
:10508000887105F12200FFF799FF3846BDE8FC81E1
:105090000A7802704A7842708A788270CA78C27040
:1050A0000B794A7903EB022282808A7982717047F8
:1050B0000A7802704A7842708A788270CA78C27020
:1050C0000A7902714A7942718A798271CA79C27108
:1050D0000A7A0272704710B502460B88147823448E
:1050E0000B801378981810BD2DE9F04F85B0064657
:1050F000894692461D462C460027B84600BF2878B0
:10510000307068787070A978E87801EB00207080C2
:105110002879307168797071A879B071E879F07187
:10512000287A30720E98092866DD092000903079BF
:1051300005285CDCBB4655E069462046FFF7CBFFFF
:105140000446607804284DD1A07847B207EBC70029
:1051500000EB090BE078032844DA214602A8FFF7A8
:10516000A7FF4FF000089DF80C0005283ADC34E05A
:1051700069462046FFF7AFFF0446607805282CD12A
:1051800007EB87000AEBC00000EBC80001907F48E6
:105190000078B84206D07D490F7002A95846FFF743
:1051A00087FF0CE02179607901EB002078490988BC
:1051B000884200DA15E002A95846FFF779FF214638
:1051C0000198FFF765FF2179607901EB00207049B4
:1051D000088008F101004FFA80F89DF80C00404566
:1051E000C6DC00BF7088BDF800108842A4DC002037
:1051F000674908806549087005B0BDE8F08F2DE962
:10520000FC4104460D461646002704F588704FF40D
:10521000007300222946CDE900062046FFF7FAFE7A
:10522000B0F1000814D106E004F58870C05D59495A
:10523000C855781C87B2B742F6DB04F5887305F1D0
:105240006C0205F13E0105F134000096FFF74CFFBA
:105250004046BDE8FC8130B513464578032D14D196
:105260000578AD1E9D4202DC0578AD1E00E01D46AE
:10527000ACB2801C002204E0855C0D70491C951CBA
:10528000AAB2A242F8DB00250D7030BD2DE9FC4723
:105290000446884615461E460A9F04F5887045F464
:1052A000407300224146CDE900072046FFF7B2FED9
:1052B000B0F1000905D13A46314604F58870FFF790
:1052C000CAFF4846BDE8FC8770B506460C46154641
:1052D0000021217505216175E5820021218361830B
:1052E00000231A4621463046FEF755FE70BD70B5C4
:1052F00006460C4615460021217509216175E58297
:1053000000212183618300231A4621463046FEF79F
:1053100042FE70BD2DE9F04107460C4615461E467B
:10532000012121750B216175E682258300216183AE
:1053300000231A4621463846FEF72DFEBDE8F081CF
:105340002DE9F04105460C4616461F4602212175FF
:10535000012161750021E1822683618306F08000CE
:10536000802805D105F56B7000EB4710017605E04C
:10537000002105F56B7000EB4710417600231A46BB
:1053800021462846FEF707FEBDE8F0818400002094
:1053900082000020681400200220224908700020AA
:1053A00021490870704702201E49087000201E49DC
:1053B0000870704702201B49087000201A490870C5
:1053C000704702201749087000201749087070477D
:1053D0000020154908707047704770477047704744
:1053E000704770477047704703200E490870704738
:1053F0000120704700200B49087070470A48007868
:1054000050B9012008490870064908700748007B18
:10541000012801D1042008700020704700200249B3
:105420000870704723000020D00000205810002092
:1054300010B5072902D0082900D010BD01EB810367
:105440006A4C026844F8232001EB810304EB8303D8
:1054500042685A6001EB810304EB830382689A601F
:1054600001EB810304EB830302691A6101EB810301
:1054700004EB8303C268DA6000BFDEE710B50446C0
:1054800004EB8400594951F8200030B104EB840149
:10549000564A52F82100804710BD0420FCE710B5A1
:1054A000044604EB8400514901EB8000406838B1A8
:1054B00004EB84014D4A02EB81014868804710BD2E
:1054C0000420FCE72DE9F04104460E4617461D4630
:1054D00015B90420BDE8F08104EB8400434901EBD9
:1054E0008000006948B104EB840001EB80002A468B
:1054F0003946036930469847ECE70420EAE72DE98E
:10550000F04104460E4617461D4615B90420BDE875
:10551000F08104EB8400354901EB8000C06848B19C
:1055200004EB840001EB80002A463946C36830460C
:105530009847ECE70420EAE770B504460D461646A6
:1055400004EB8400294901EB8000806840B104EB42
:10555000840001EB8000314682682846904770BD88
:105560000420FCE722487047012070470120704763
:1055700001207047012070470120704701207047CB
:1055800001207047012070470120704701207047BB
:105590000246012070470246012070470246012062
:1055A00070470246012070470246012070470346BB
:1055B00001207047034601207047034601207047D1
:1055C000034601207047034601207047034601202F
:1055D0007047034601207047034601207047034689
:1055E000012070470346012070470000D4000020CE
:1055F0000000FC4270B503460C4603E014F8015B62
:1056000003F8015B151EA2F10102F7D170BD30B5A0
:10561000034601E003F8011B141EA2F10102F9D1B7
:1056200030BDF0B503461C460D46002000BF161ED7
:10563000A2F1010207D014F8017B15F801CBA7EB0A
:105640000C06301EF3D0F0BD024600E0521C10786C
:1056500010B110788842F9D11078704730B5024601
:105660000B4600200446014621E001EB4100F74DC6
:1056700055F82000C8B101EB410055F8200015682D
:10568000A84213D101EB4100F04D05EB80004068CA
:105690009568A8420AD101EB4100EC4D05EB800072
:1056A0000089D588A84201D103E00124491C0A29B8
:1056B000DBD300BF0A2906D10CB9022B01D100208F
:1056C00030BD1220FCE743B901EB4100DF4D05EB93
:1056D00080004089B0F5807F01D11020F0E70020E4
:1056E000EEE7002100E0491C0A2906D201EB410047
:1056F000D64A52F820000028F5D10A2901D001200D
:1057000070470020FCE730B502460B4600211BE045
:1057100001EB4100CD4C54F820001468A04212D196
:1057200001EB4100C94C04EB800040689468A04242
:1057300009D101EB4100C54C04EB80000089D488FD
:10574000A04200D102E0491C0A29E1D300BF0A2986
:1057500027D1002100E0491C0A2906D201EB4100B3
:10576000BA4C54F820000028F5D10A2901D10020B4
:1057700030BD01EB4104B54D106845F8240001EB44
:10578000410405EB840490686060D08801EB41041B
:1057900005EB84042081002001EB410405EB840427
:1057A000608143B101EB4100A84C04EB80004089CB
:1057B00008B10020DCE713B14FF4807006E001EB84
:1057C0004100A24C04EB80004089401C01EB4104E5
:1057D0009E4D05EB84046081481CC9E730B5024644
:1057E000531E1A460A2B1BD202EB4203974C04EBC2
:1057F00083035989B1F5807F00D1002109B14B1E87
:1058000099B202EB4203914C04EB8303598129B90D
:10581000002302EB42048D4D45F82430002000E0C7
:10582000022030BD10B5014600200DE000EB400223
:10583000864B53F822208A4205D1002200EB400318
:10584000824C44F82320401C0A28EFD310BD2DE9D8
:10585000F041044600272079F8B1256B60780123D8
:105860002A4604F13401FFF74AFE08B1012714E08B
:1058700000202071606A281AE16988420DD2E6781A
:1058800009E0E0690544607801232A4604F1340107
:10589000FFF735FE761E022EF3D23846BDE8F081C2
:1058A00070B504460D460026206BA84210D0204655
:1058B000FFF7CDFF06465EB9607801232A4604F162
:1058C0003401FFF7FFFD10B14FF0FF3501262563CE
:1058D000304670BD70B504462046FFF7B8FF054658
:1058E000002D59D1207803284FD1607901284CD15F
:1058F0004202002104F13400FFF789FE552184F8AB
:105900003212AA2184F83312522084F83400522132
:10591000352001556121362001554121372001559F
:10592000722184F8181284F81912412184F81A128D
:10593000612184F81B12217C84F81C12208A010A40
:1059400084F81D122069010C84F81E122069010ED2
:1059500084F81F12217B84F82012A089010A84F8A0
:105960002112E068010C84F82212E068010E84F82C
:105970002312206A401C20636078012304F1340163
:10598000226BFFF7BCFD0020607160780022114699
:10599000FFF7D2FD00B10125284670BD0246891EE1
:1059A0009069801E884201D8002070479378D06AA1
:1059B00001FB0300F9E72DE9F04705460C46022CF0
:1059C00002D3A869A04202D84FF001096CE04FF061
:1059D000FF392878012804D002282ED003285FD16F
:1059E00042E0274607EB5707686A00EB5721284635
:1059F000FFF756FF00B156E038467F1CC0F30801A0
:105A000005F1340010F80180686A00EB5721284640
:105A1000FFF746FF00B146E0C7F3080105F1340087
:105A2000405C48EA002804F0010010B14FEA181069
:105A300001E0C8F30B00814635E0686A00EB1421F1
:105A40002846FFF72DFF18B12DE000008C1600202E
:105A500040F2FF1000EA440105F134000E183078DE
:105A6000717840EA01291EE0686A00EBD4112846EB
:105A7000FFF716FF00B116E040F2FF1000EA8401C4
:105A800005F134000E18F0780006B17840EA0140C4
:105A9000717840EA01203178084320F0704902E033
:105AA0004FF0010900BF00BF4846BDE8F0872DE96F
:105AB000F04705460E461746022E02D3A869B042AB
:105AC00002D84FF0020890E02878012804D002287C
:105AD00044D003287ED159E0B14609EB5909686AE0
:105AE00000EB59212846FFF7DBFE8046B8F1000F96
:105AF00000D079E0484609F10109C0F3080105F139
:105B000034000C1806F0010020B1F9B2207861F3DE
:105B10001F1000E03846207001202871686A00EBF1
:105B200059212846FFF7BCFE8046B8F1000F00D08F
:105B30005AE0C9F3080105F134000C1806F0010021
:105B400010B1C7F3071005E0207800F0F000C7F3AC
:105B50000321084320700120287145E0686A00EBAA
:105B600016212846FFF79CFE8046B8F1000F00D0B2
:105B70003AE040F2FF1000EA460105F134000C184B
:105B80002770380A6070012028712DE0686A00EBE8
:105B9000D6112846FFF784FE8046B8F1000F00D0EA
:105BA00022E040F2FF1000EA860105F134000C18F3
:105BB000E0780006A17840EA0140617840EA0120DF
:105BC0002178084300F0704007432770380A60705E
:105BD000380C00E005E0A070380EE070012028715C
:105BE00002E04FF0020800BF00BF4046BDE8F0876A
:105BF0002DE9F04104460E46022E02D3A069B042C0
:105C000001D8022727E0002721E031462046FFF790
:105C1000D2FE054605B91DE0012D01D1022719E08C
:105C2000681C08B9012715E0002231462046FFF71D
:105C30003EFF074607B10DE02069401C30B12069E6
:105C4000401C2061607940F0010060712E46A0691F
:105C5000B042DAD800BF3846BDE8F0812DE9F04700
:105C600004468946B9F1000F06D1E76817B1A0696B
:105C7000B84215D8012713E049462046FFF79BFE9E
:105C80000646022E02D20120BDE8F087701C08B93A
:105C90003046F9E7A069B04201D93046F4E74F46F3
:105CA0003D4600BF6D1CA069A84204D80225BD4234
:105CB00001D90020E8E729462046FFF77CFE06468A
:105CC00006B909E0701C08B1012E01D13046DBE7AE
:105CD000BD42E7D10020D7E700BF6FF070422946F0
:105CE0002046FFF7E4FE8046B8F1000F08D1B9F175
:105CF000000F05D02A4649462046FFF7D8FE8046C9
:105D0000B8F1000F0BD1E5602069401C78B1206923
:105D1000401E2061607940F00100607107E0B8F139
:105D2000010F02D14FF0FF3000E001200546284668
:105D3000AAE72DE9F04104460E46E680A568012D4C
:105D400003D020688069A84202D80220BDE8F08113
:105D50002DB920680078032801D12068856A45B9EB
:105D600020680089B04201D80220EFE72068876AE6
:105D70001EE0206880784FEA001812E0294620686B
:105D8000FFF719FE0546681C08B90120DEE7022D61
:105D900003D320688069A84201D80220D6E7A6EB89
:105DA00008064645EAD229462068FFF7F7FD074670
:105DB000E5600FB90220C9E707EB161020612068E3
:105DC000343006F00F0100EB411060610020BDE7A8
:105DD0002DE9F04104468846E088461CB0B208B17F
:105DE000206910B90420BDE8F08106F00F000028FA
:105DF0006BD12069401C2061E06828B920680089C7
:105E0000B04262D80420EEE720688078401E00EAA5
:105E10001610002859D1E1682068FFF7CCFD05462F
:105E2000012D01D80220DEE7681C08B90120DAE75D
:105E300020688069A84242D8B8F1000F01D104203F
:105E4000D1E7E1682068FFF709FF05460DB9072093
:105E5000C9E7012D01D10220C5E7681C08B901205E
:105E6000C1E72068FFF7F3FC08B10120BBE7216818
:105E700001F134004FF400720021FFF7C8FB2946FE
:105E80002068FFF78BFD2168086300270EE00120E2
:105E9000216808712068FFF7DAFC08B10120A2E749
:105EA0002068006B401C216808637F1C2068807894
:105EB000B842ECD82068006BC01B21680863E5601D
:105EC00029462068FFF76AFD2061E68020683430AB
:105ED00006F00F0100EB41106061002083E72DE91F
:105EE000F04104460E4600212046FFF722FF0546FA
:105EF000EDB9002700BF21692068FFF7D1FC0546F6
:105F000005B113E060690078E52802D06069007887
:105F100020B9781C0746B04201D107E000270121D3
:105F20002046FFF755FF0546002DE4D000BF042DA5
:105F300000D107252846BDE8F08110B502468C7EC9
:105F4000CB7E44EA03201378032B05D10C7D4B7DD7
:105F500044EA032340EA034010BD81760B0AC3766E
:105F60000A0C02750B0E437570472DE9F047804609
:105F70000C46A17EE07E41EA002010B10020BDE881
:105F8000F087207800F03F00401E00EB800101EB1D
:105F9000C0064FF00109002524E0F748405D205C71
:105FA000F549495D2144497840EA0127B9F1000FDC
:105FB00011D0FF2E0BD2384602F04BFF82463146FD
:105FC000761C38F8110002F044FF824501D0002011
:105FD000D5E7B94605E04FF6FF70874201D00020B3
:105FE000CDE76D1C0D2DD8D3207800F0400038B1DE
:105FF000B9F1000F04D038F8160008B10020BEE750
:106000000120BCE7F0B504468F7EC87E47EA002039
:1060100008B10020F0BD087800F03F00401E00EB02
:10602000800707EBC002012600231AE0D248C05CBB
:10603000085CD14FFF5C0F447F7840EA07254EB1E2
:10604000FF2A01D30020E5E72E461046521C24F813
:10605000105005E04FF6FF70854201D00020D9E7CF
:106060005B1C0D2BE2D3087800F0400030B1FF2A12
:1060700001D30020CEE7002024F812000120C9E758
:10608000F0B504461D464D730F27CF7200270F73DE
:106090008F76BC4681F81BC0571E07EB870C0CEBB4
:1060A000C706002738463B4600BF4FF6FF77B84289
:1060B00003D03746761C34F81700DFF8BCC21CF852
:1060C00003C001F80C000712DFF8ACC21CF803C0D3
:1060D0008C448CF8017008B94FF6FF705F1C3B468A
:1060E0000D2FE2D34FF6FF77B84202D034F8167086
:1060F0000FB942F040020A70F0BD2DE9FF4F83B0A6
:10610000814690461D460B2248460499FFF772FAD5
:10611000052D18D92F4611E038F802BB00240BE0FA
:10612000584667F35F0007464FEA6B0B07F4803071
:1061300008B192484740641C102CF1D3B8F8000015
:106140000028E9D13D46072400BF05F00F0000F10B
:10615000300ABAF1390F03DD0AF1070000F0FF0A37
:106160002046641E01A901F800A02D09002DECD1E4
:106170007E200855002600E0761CA64203D219F8BE
:1061800006002028F8D100BF082C04D22046641C49
:1061900001A9085C00E020203146761C09F80100C6
:1061A000082EF1D307B0BDE8F08F30B501460020CE
:1061B0000B2200BF431003EBC01411F8015B6319FD
:1061C000D8B2531E1A1EF5D130BD2DE9F047044652
:1061D00000212046FFF7ADFD074617B13846BDE860
:1061E000F0874FF0FF09CA464FF6FF70A08400BF4A
:1061F00021692068FFF754FB074607B157E065693E
:106200002E780EB9042752E0E87A00F03F08E52E18
:1062100005D008F0080040B1B8F10F0F05D04FF0DD
:10622000FF094FF6FF70A0843AE0B8F10F0F1CD1C0
:10623000206A78B306F0400030B195F80DA026F042
:106240004006B146E088A0844E450AD1687B50459F
:1062500007D12946206AFFF788FE10B1A9F1010095
:1062600000E0FF2000F0FF091AE0B9F1000F05D1AE
:106270002846FFF79AFF504500D118E0A069C07A80
:1062800000F0010038B90B222846A169FFF7C9F9CF
:1062900008B90CE004E04FF0FF094FF6FF70A0844E
:1062A00000212046FFF794FD0746002FA0D000BF35
:1062B000384694E72DE9F05F04468A464FF0FF091F
:1062C000CB4604274EE021692068FFF7E9FA07462C
:1062D00007B14AE065692E780EB9042745E0E87AEF
:1062E00000F03F08E52E09D000BF28F02000082864
:1062F00001D1012000E00020504502D04FF0FF09FD
:1063000029E0B8F10F0F1AD106F0400030B195F82E
:106310000DB026F04006B146E088A0844E450AD173
:10632000687B584507D12946206AFFF76BFE10B1FC
:10633000A9F1010000E0FF2000F0FF090BE0B9F136
:10634000000F04D12846FFF730FF584502D04FF622
:10635000FF70A08409E000212046FFF739FD0746C1
:1063600007B102E020690028ADD100BF0FB10020C5
:1063700020613846BDE8F09FA8990008211001006F
:106380002DE9FE4F0446D4F81880D4F820900C2252
:1063900041466846FFF72EF99DF80B0000F02000FB
:1063A00010B10620BDE8FE8F9DF80B0000F0010043
:1063B00018B3002088F80B00206201260CE0334659
:1063C0004A4669464046FFF798FE2046FFF7FDFE25
:1063D000054605B102E0761C642EF0D300BF642EA2
:1063E00001D10720DEE7042D01D02846DAE79DF829
:1063F0000B0088F80B00C4F820909DF80B0000F00B
:10640000020060B1002600E0761C39F81600002872
:10641000FAD106F119000D21B0FBF1F700E00127D8
:1064200039462046FFF75BFD054645BB781E071E33
:1064300025D0E088C11B2046FFF77BFC0546F5B957
:10644000A069FFF7B2FE824600BF21692068FFF70E
:1064500027FA054605B111E0FAB253466169206A90
:10646000FFF70EFE01202168087100212046FFF78A
:10647000AFFC054615B9781E071EE6D100BFC5B9A9
:1064800021692068FFF70CFA054695B92022002102
:106490006069FFF7BCF80B22D4E90501FFF7AAF801
:1064A000A069C07A00F018006169087301202168B2
:1064B0000871284676E770B50446E688A08C4FF64A
:1064C000FF72904201D1304600E0A08C0146204688
:1064D000FFF72FFC05460DBB00BF21692068FFF7C1
:1064E000DFF9054605B115E0202200216069FFF7BC
:1064F0008EF8E52061690870012021680871E08844
:10650000B04200D306E000212046FFF761FC0546BB
:10651000002DE2D000BF042D00D10225284670BD19
:106520002DE9F05F80460D4605F10907D8F8100007
:10653000002843D0D8F81440002626E03046761CC8
:1065400014F80090B9F1200F00D11EE0B9F1050F49
:1065500001D14FF0E509092E02D12E2007F8010BD9
:10656000B9F1410F0EDBB9F15A0F0BDC207B092E7C
:1065700001D3102100E00821084018B109F12000E2
:1065800000F0FF0907F8019B00BF0B2ED6D3E07A7D
:106590002872E07F0106A07F41EA0041607F41EA66
:1065A0000020217F08432860217E607E41EA002090
:1065B000A880A17DE07D41EA0020E88000203870BD
:1065C000A86960B30026AF69D8F8100028B3E8695D
:1065D00018B3B8F824004FF6FF7188421DD0D8F8E0
:1065E00020B014E00021504602F010FC8246BAF1BF
:1065F000000F01D100260FE000BFE869401EB04245
:1066000001D8002608E03046761C07F800A03BF8C9
:10661000021BB1F1000AE5D100BF0020B855BDE86A
:10662000F09F01460B685A1C0A601878612804DB49
:106630007A2802DCA0F1200290B2802803DBA0F1CE
:106640008002F84B985C70472DE9FF4782B0044602
:1066500090461D4607E003A8FFF7E3FF18B90020A6
:1066600006B0BDE8F087B8F10000A8F10108F2D14A
:10667000207810B90DB10120F2E700BF0194039812
:10668000009000BF019800783F2803D0019800785F
:106690002A2822D100208246074600BF019810F820
:1066A000011B01903F2901D17F1C01E04FF0010A3D
:1066B000019800783F28F1D0019800782A28EDD081
:1066C00053463A46DDE90010FFF7BEFF08B101204E
:1066D000C6E7009890F800900EE001A8FFF7A1FF30
:1066E00006466846FFF79DFF81464E4500D003E011
:1066F000002EC7D10120B3E700BF03A8FFF791FF29
:1067000015B1B9F1000FB9D10020A9E72DE9F34F78
:1067100083B0814604980068019002E00198401C13
:106720000190019800782F28F8D0019800785C2813
:10673000F4D0D9F820700025A84600BF404608F1E3
:10674000010801990C5C202C03DB2F2C01D05C2C60
:1067500000D11CE0FF2D03D3062005B0BDE8F08F6B
:10676000E4B20121204602F051FB04460CB9062098
:10677000F3E7802C06DA2146ABA0FEF765FF08B1EF
:106780000620EAE728466D1C27F81040D6E700BF30
:10679000019800EB080104980160202C01DA042024
:1067A00000E000200646012D04D1681E37F81000D5
:1067B0002E280BD0022D24D1681E37F810002E2869
:1067C0001FD1A81E37F810002E281AD1002027F854
:1067D000150083460AE0AB4501D22E2000E02020C0
:1067E000D9F8181001F80B000BF1010BBBF10B0FDE
:1067F000F1D346F02000D9F8181001F80B00002062
:10680000ABE708E0681E37F81040202C02D02E2C91
:1068100000D002E06D1E002DF4D100BF0DB906209E
:106820009BE7002027F815000B222021D9F818003B
:10683000FEF7EDFE4FF0000801E008F1010837F81F
:1068400018002028F9D037F818002E28F5D0B8F114
:10685000000F01D046F0030600E06D1E25B1681E52
:1068600037F810002E28F8D14FF0000AD346082040
:10687000029000BF404608F1010837F8104004B903
:1068800054E0202C03D02E2C04D1A84502D046F091
:106890000306EFE70298834501D2A84516D1029876
:1068A0000B2802D146F0030640E0A84501D046F08F
:1068B0000306A84500D939E0A8464FF0080B0B2085
:1068C00002904FEA8A604FEA106AD3E7802C0BDB14
:1068D0000021204602F09AFA04461CB1A4F180007F
:1068E00050490C5C46F0020600BF24B1214651A07D
:1068F000FEF7AAFE18B15F2446F003060FE0412C14
:1069000004DB5A2C02DC4AF0020A08E0612C06DBA8
:106910007A2C04DC4AF0010AA4F1200084B2584623
:106920000BF1010BD9F818301C54A3E700BFD9F8BC
:1069300018000078E52803D10520D9F81810087050
:106940000298082803D14FEA8A604FEA106A0AF0D9
:106950000C000C2803D00AF00300032801D146F0F4
:10696000020606F0020058B90AF00300012801D11E
:1069700046F010060AF00C00042801D146F0080683
:10698000D9F81800C6720020E7E62DE9F341044665
:10699000019800782F2803D0019800785C2805D151
:1069A0000198401C01900020A06002E0206840692E
:1069B000A06001980078202807D200212046FFF728
:1069C000B8F90546002060613FE000BF01A92046FC
:1069D000FFF79CFE054605B136E02046FFF7F5FBC4
:1069E0000546A069C67A95B1042D0FD106F02000A6
:1069F00040B10020A060606106F0040000B9E5E746
:106A0000002503E006F0040000B905251CE006F0AF
:106A1000040000B118E06769F87A00F0100068B966
:106A2000052511E028990008222A3A3C3E3F7C7F48
:106A3000000000002B2C3B3D5B5D000039462068C8
:106A4000FFF77BFAA060C1E700BF2846BDE8FC81E4
:106A50002DE9F04103464FF0FF30D3F800C0BCF100
:106A6000000F4ED0196800E0491C91F800C0BCF13D
:106A7000200F04D391F800C0BCF13A0FF4D191F883
:106A800000C0BCF13A0F38D11C6814F801CBACF14E
:106A900030020A2A0AD28C4208D1092A2BD2104687
:106AA00001F1010C6146C3F800C024E00022491C3A
:106AB00000BFDFF898C45CF822701C6800BF17F8AC
:106AC000015B14F8016B612E05DB7A2E03DCA6F165
:106AD000200C0CF0FF060DB1B542F0D00DB98C4280
:106AE00005D002F1010C6246BCF1090FE1D3092A7D
:106AF00001D210461960BDE8F081DFF854C49CF85B
:106B0000000000BFF7E770B504460D460020207175
:106B1000401E206329462046FEF7C2FE08B103202E
:106B200070BD94F8321294F8330241EA00204AF61C
:106B30005521884201D00220F2E794F86D00010649
:106B400094F86C0041EA004194F86B0041EA00209F
:106B500094F86A10084320F07F40FE49884201D132
:106B60000020DDE794F88900010694F8880041EAE6
:106B7000004194F8870041EA002094F88610084309
:106B800020F07F40F349884201D10020C8E701206E
:106B9000C6E72DE9F74F8AB000210A9801600B98EB
:106BA000FFF756FF09900998002803DA0B200DB073
:106BB000BDE8F08FE849099851F820400CB90C2045
:106BC000F5E70A980460207878B16078FEF767FCF2
:106BD000814609F0010040B90C9820B109F0040089
:106BE00008B10A20E3E70020E1E7002020700998BF
:106BF00060706078FEF742FC814609F0010008B140
:106C00000320D4E70C9820B109F0040008B10A2051
:106C1000CDE7002739462046FFF775FF0546012DD1
:106C200001D09DBB32E000261AE004F5F97000EBBC
:106C3000061898F8040070B198F80B00010698F84F
:106C40000A0041EA004198F8090041EA002098F85A
:106C50000810084300E0002002A941F82600761C35
:106C6000042EE2D3002606B1761E00BF02A850F81B
:106C7000267027B139462046FFF745FF00E0022085
:106C800005461DB1701C06460428EFD3032D01D123
:106C900001208CE70DB10D2089E73F20015D94F8BC
:106CA000400041EA0020B0F5007F01D00D207EE7D2
:106CB0004A20015D94F84B0041EA002ABAF1000F26
:106CC0000ED194F85B00010694F85A0041EA0041A5
:106CD00094F8590041EA002094F8581040EA010A5B
:106CE000C4F81CA04420005DE070E078012804D0C6
:106CF000E078022801D00D2059E7E0780AFB00FA7D
:106D00004120005DA070A07818B1A078411E084015
:106D100008B10D204BE74520015D94F8460041EA9B
:106D200000202081207A00F00F0008B10D203EE7FE
:106D30004720015D94F8480041EA00200890089837
:106D400070B994F85700010694F8560041EA0041E2
:106D500094F8550041EA002094F854100843089034
:106D60004220015D94F8430041EA0020019001981F
:106D700008B90D201BE701985044218900EB111040
:106D80000790DDE90701814201D20D200FE7DDE91F
:106D90000710401AA178B0FBF1FBBBF1000F01D145
:106DA0000D2004E7012540F6F670834500D3022547
:106DB0004FF6F670834500D303250BF10200A06166
:106DC000276201983844606207983844E062032DD6
:106DD00016D1208908B10D20E9E694F86300010678
:106DE00094F8620041EA004194F8610041EA002011
:106DF00094F860100843A062A0698000069014E037
:106E0000208908B90D20D2E6606A5044A062022DA4
:106E100002D1A069400007E0207E00F00100A169D6
:106E200001EB410100EB51000690E169069800F288
:106E3000FF10B1EB502F01D20D20B8E64FF0FF301C
:106E40002061E06080206071032D5AD194F86410B5
:106E500094F8650041EA0020012852D1791C2046AF
:106E6000FEF71EFDE8BB0020607194F8321294F822
:106E7000330241EA00204AF65521884241D13720A9
:106E8000005D01063620005D41EA00413520005DCD
:106E900041EA002094F8341008433049884230D148
:106EA00094F81B02010694F81A0241EA004194F892
:106EB000190241EA002094F8181208432849884230
:106EC0001FD194F81F02010694F81E0241EA004106
:106ED00094F81D0241EA002094F81C120843206136
:106EE00000E00EE094F82302010694F8220241EA41
:106EF000004194F8210241EA002094F8201208434E
:106F0000E060257017480088401C80B21549088051
:106F1000E080002060612046FEF784FC002046E609
:106F200070B505462C4684B1206870B120680078A1
:106F300058B12068C088A188884206D12168487865
:106F4000FEF7ADFA00F0010080B10DE0B89900083D
:106F50008A010020464154006816002052526141C7
:106F60007272416188010020092070BD0020FCE799
:106F7000F7B582B016460398019001A8FFF768FDA7
:106F80000546002D02DA0B2005B0F0BDF74850F899
:106F9000254024B12046FEF745FC002020700298D1
:106FA00010B1002002990870F049029841F82500BC
:106FB000029808B1012E01D00020E5E7002203A9C4
:106FC00002A8FFF7E6FD07463846DDE72DE9F7475B
:106FD0008FB0054616461DB9092012B0BDE8F087EE
:106FE0000020286006F01F0626F0010210A904A860
:106FF000FFF7CFFD0746002F7ED14FF4007001F060
:10700000F9FE8146B9F1000F01D11120E5E7CDF875
:10701000309001A80A9004A81099FFF7B6FC074623
:10702000099C6FB90CB906270AE026F0010008B1E7
:10703000012000E00020014604A8FEF70FFB0746F0
:1070400006F01C00002863D077B1042F08D1FEF7AA
:1070500048FB18B104A8FFF793F900E01220074697
:1070600046F00806099C09E0E07A00F0110008B13A
:10707000072703E006F0040000B10827002F56D1CF
:1070800006F00800002852D0FEF76CFA804684F81B
:107090000E804FEA1821E1734FEA184121744FEA3C
:1070A0001861617484F816804FEA1821E1754FEA7F
:1070B000184121764FEA186161760020E07220774E
:1070C00000216177A177E17721460498FEF735FF2B
:1070D000824600212046FEF740FF012004990871F6
:1070E000BAF1000F23D00498D0F8308051460498AC
:1070F000FEF77EFD074600E050E0C7B9AAF10100A7
:107100000499C86041460498FEF7CAFB07460EE0A2
:107110006FB9E07A00F0100008B1042707E006F02C
:10712000020020B1E07A00F0010000B10727B7B9F2
:1071300006F0080008B146F020060498006BE861EC
:107140002C6226F0010008B1012000E00020014679
:1071500004A8FEF7D8FA6862686A00B902274846B0
:1071600001F04EFED7B9AE710020E87121460498B7
:10717000FEF7E3FE2861E07F0106A07F41EA0041BF
:10718000607F41EA0020217F0843E8600020A8607A
:10719000A861049828602868C088A88038461CE741
:1071A0002DE9FF4F83B0044615469A46DDF810B02E
:1071B0000020CAF800002046FFF7B2FE02900298B5
:1071C00018B1029807B0BDE8F08FE07908B1E07916
:1071D000F8E7A07900F0010008B90720F2E7D4E948
:1071E0000210401A00900098854200D9009DA2E04C
:1071F0002089C0F3080000287ED120688078401ED6
:10720000A16800EA512000F0FF09B9F1000F17D181
:10721000A06810B92069019004E061692068FEF758
:10722000CAFB01900198022802D20220E071C9E74E
:107230000198401C10B90120E071C3E7019860611A
:1072400061692068FEF7AAFB064616B90220E071C4
:10725000B8E74E444FEA5528B8F1000F29D009EBA2
:10726000080021688978884203D920688078A0EBDB
:10727000090821684878434632465946FEF722F904
:1072800010B10120E0719DE7A07900F0400068B1E5
:10729000A069801B404509D2A169891B0BEB4120E5
:1072A0004FF4007204F12801FEF7A4F94FEA4827D1
:1072B00037E0A069B04220D0A07900F0400078B15A
:1072C00021684878012304F12801A269FEF717F923
:1072D00010B10120E07175E7A07920F04000A071A5
:1072E000216848780123324604F12801FEF7EAF8C4
:1072F00018B10120E07165E700E0A6612089C0F3C4
:107300000800C0F50077AF4200D92F462089C0F3AE
:10731000080204F1280011183A465846FEF76AF9A7
:1073200000BFBB44A0683844A060DAF800003844CD
:10733000CAF80000ED1B002D7FF45AAF002041E792
:107340002DE9FF4F83B0044615469B4604980190F3
:107350000020CBF800002046FFF7E2FD02900298E3
:1073600030B1029807B0BDE8F08F00006816002029
:10737000E07908B1E079F5E7A07900F0020008B9FA
:107380000720EFE7A0682844A168884200D20025C2
:10739000B5E02089C0F30800002877D12068807804
:1073A000401EA16800EA512000F0FF0ABAF1000F68
:1073B0001ED1A06838B9276957B900212068FEF7A7
:1073C0004DFC074604E061692068FEF747FC07466C
:1073D00007B997E0012F02D10220E071C2E7781CC3
:1073E00010B90120E071BDE76761206900B927612C
:1073F000A07900F0400078B121684878012304F1B9
:107400002801A269FEF77BF810B10120E071A9E71D
:10741000A07920F04000A07161692068FEF7BEFAF3
:10742000064616B90220E0719CE756444FEA5529FA
:10743000B9F1000F2BD00AEB090021688978884246
:1074400003D920688078A0EB0A09216848784B4668
:1074500032460199FEF753F810B10120E07181E73F
:10746000A069801B48450ED2A069801B019A02EBDF
:1074700040214FF4007204F12800FEF7BBF8A07918
:1074800020F04000A0714FEA49282BE013E0A069EA
:10749000B0420FD0D4E9020188420BD2216848786B
:1074A0000123324604F12801FEF70CF810B1012047
:1074B000E07157E7A6612089C0F30800C0F50078A5
:1074C000A84500D9A8462189C1F3080204F1280182
:1074D000501842460199FEF78DF8A07940F040001F
:1074E000A07100BF019840440190A0684044A06092
:1074F000DBF800004044CBF80000A5EB0805002DA8
:107500007FF447AF00BFD4E90201884201D9A068E7
:10751000E060A07940F02000A071002022E72DE972
:10752000F04104462046FFF7FBFC0746002F4CD1F4
:10753000A07900F02000002847D0A07900F040009A
:1075400078B121684878012304F12801A269FDF788
:10755000D6FF10B10120BDE8F081A07920F04000F5
:10756000A071E1692068FEF79BF90746002F2CD136
:10757000256AE87A40F02000E872207B2877A0890D
:10758000010A6977E068010CA977E068010EE977E4
:1075900028462169FEF7E1FCFDF7E4FF0646AE75DB
:1075A000310AE975310C2976310E69760020A8740C
:1075B0000021E974A07920F02000A0710120216849
:1075C00008712068FEF786F907463846C3E770B5AC
:1075D00005462846FFF7A3FF04465CB92846FFF797
:1075E0009FFC044634B9686AFEF7F8F804460CB903
:1075F00000202860204670BD31B56846FFF728FAA4
:107600000446002C01DA0B2038BDFA490C7000202A
:10761000FAE731B58EB000220EA903A8FFF7B9FA38
:10762000044654BB4FF4007001F0E4FB054615B965
:1076300011200FB030BD0B95CDF824D003A80E99C2
:10764000FFF7A3F90446284601F0DAFB94B908983D
:1076500018B90399059848610CE00898C07A00F0C1
:10766000100030B108990398FEF767FC0399486150
:1076700000E00524042C00D105242046D9E72DE99B
:10768000F34796B08846002016990870002216A984
:107690000BA8FFF77EFA0546002D7DD14FF4007050
:1076A00001F0A8FB8146B9F1000F03D1112018B0F9
:1076B000BDE8F087CDF84C90CDF844D046460B9805
:1076C00040690D905CE001210BA8FEF732FB0546F6
:1076D00005B15AE000210BA8FEF7ECFD054605B107
:1076E00053E010990B98FEF728FC0D9000210BA891
:1076F000FEF71FFB054605B147E000BF00210BA8C0
:10770000FEF7D8FD054605B10DE010990B98FEF780
:1077100014FC504500D106E000210BA8FEF758FBF1
:107720000546002DEAD000BF042D00D1022505B189
:107730002BE0169809900A9603A90BA8FEF7F0FE15
:107740000DF115041698007800B1169C002700E092
:107750007F1CE05D0028FBD1F81C864201D2112578
:1077600013E006E0781E0746215C701E0646169A56
:107770001154002FF6D12F21701E0646169A11546F
:10778000DDF834A0BAF1000F9DD100BF169CC5B939
:1077900098480078303000E018E004F8010B3A20F7
:1077A00004F8010B464503D12F2004F8010B08E033
:1077B00000BF3046761C1699085C04F8010B46455C
:1077C000F7D300202070484601F01AFB28466EE7E8
:1077D0002DE9F04704460E462046FFF7A1FB8246FE
:1077E000BAF1000F02D05046BDE8F087E07908B149
:1077F000E079F9E7E068B04204D2A07900F0020035
:1078000000B9E668D4F808904FF00008C4F8088082
:10781000002E67D0206880784702B9F1000F11D0A0
:10782000701EB0FBF7F1A9F10100B0FBF7F0814247
:1078300008D3A9F10100791E8843A060A068361A18
:10784000656912E025697DB900212068FEF706FA16
:107850000546012D02D10220E071C5E7681C10B970
:107860000120E071C0E725616561002D3AD023E079
:10787000A07900F0020038B129462068FEF7EEF941
:10788000054635B93E4619E029462068FEF793F8CB
:107890000546681C10B90120E071A5E7012D03D948
:1078A00020688069A84202D80220E0719CE76561E7
:1078B000A0683844A060F61BBE42D9D800BFA068BB
:1078C0003044A060C6F3080060B129462068FEF786
:1078D00065F88046B8F1000F02D10220E07183E71D
:1078E00008EB56282089C0F3080020B3A069404562
:1078F00021D0A07900F0400078B1216848780123B8
:1079000004F12801A269FDF7FAFD10B10120E07130
:107910006AE7A07920F04000A0712168487801232F
:10792000424604F12801FDF7CDFD10B10120E071C0
:107930005AE7C4F81880D4E90201884205D9A06842
:10794000E060A07940F02000A07150464CE773B58C
:1079500084B0044614B9092006B070BD002205A900
:1079600003A8FFF716F90546002D3DD103982060C6
:107970004FF4007001F03EFA06460EB91120EBE715
:107980002662C4F818D020460599FEF7FEFF05468A
:10799000304601F035FA0DBB606958B16069C07AB4
:1079A00000F0100028B161690398FEF7C6FAA060E4
:1079B00000E0052595B90398C088A08000212046E5
:1079C000FEF7B7F905464DB9A06840B10021204641
:1079D000FDF799FEE061E06900B9122501E00020A1
:1079E000E061042D00D105250DB10020206028465E
:1079F000B2E700008A01002070B504462046FFF778
:107A00008FFA054645B9E06918B1E069FDF7E6FE71
:107A100005460DB900202060284670BDFEB504461D
:107A20000F462046FFF77CFA0546002D2DD12FB9D1
:107A300000212046FEF77DF9054626E04FF4007050
:107A400001F0D8F906460EB91120FEBD2662C4F831
:107A500018D000212046FEF72DFC0546042D02D14A
:107A60000020206100256DB939462046FEF758FDFB
:107A700000212046FEF7ACF90546042D02D1002076
:107A800020610025304601F0BBF92846DDE770B5DE
:107A900005460C4600BF21462846FFF7BFFF0646B5
:107AA00016B90CB1607A00B913E0A06938B1A169C8
:107AB00000231A46A86AFEF7C7FD00B109E00023BB
:107AC0001A4604F10901A86AFEF7BEFD0028E2D0BB
:107AD00000BF00BF304670BD2DE9F0410446884626
:107AE00015461E46A66229462046FFF730FF074688
:107AF00027B941462046FFF7CAFF07463846BDE88A
:107B0000F08173B58EB00E4600220EA903A8FFF7D0
:107B100040F80546EDB94FF4007001F06BF90446EA
:107B200014B9112010B070BD0B94CDF824D003A867
:107B30000E99FEF72AFF054645B9089828B12EB1DF
:107B4000314603A8FEF7ECFC00E00625204601F0D4
:107B500057F92846E6E72DE9F74F82B08A4600221A
:107B600002A90498FFF715F8019004980468019899
:107B700000286DD1A069801E2169814203D8206947
:107B8000CAF8000064E094F800B00026BBF1010FD1
:107B90001CD1022700BF39462046FDF70CFF804666
:107BA00008F1010010B9012001900EE0B8F1010FB9
:107BB00002D10220019008E0B8F1000F00D1761C3C
:107BC000781C0746A1698842E5D33AE0A769606A54
:107BD00000904FF00009002500BFB9F1000F0ED151
:107BE0000098421C014620460092FDF759FE019084
:107BF000019800B124E004F134054FF40079BBF1A1
:107C0000020F09D12878697840EA012000B9761C72
:107C1000AD1CA9F1020910E0E8780006A97840EA55
:107C20000140697840EA01202978084320F070403B
:107C300000B9761C2D1DA9F10409781E071ECCD1B0
:107C400000BF2661607940F001006071CAF80060F1
:107C5000019805B0BDE8F08F70B504462046FFF7E7
:107C60005FF9054645B9E07908B1E57904E0A07906
:107C700000F0020000B90725002D47D1D4E9021019
:107C8000884241D9A068E060A07940F02000A0714E
:107C9000A06838B921692068FDF7AAFF05460020D1
:107CA00020611DE061692068FDF785FE064600251C
:107CB000701C00B90125012E00D1022585B920686C
:107CC0008069B0420CD96FF0704261692068FDF79D
:107CD000EEFE054625B931462068FDF789FF0546C9
:107CE00095B9A07900F0400070B12168487801236F
:107CF00004F12801A269FDF702FC08B1012503E0A7
:107D0000A07920F04000A07105B1E571284670BD52
:107D1000F1B59AB0002601221AA90FA8FEF739FF83
:107D20000446002C63D14FF4007001F063F807465D
:107D300017B911201BB0F0BD179701A815900FA817
:107D40001A99FEF722FE04462CB91598C07A00F065
:107D5000200000B1062424B902210FA8FDF77EFC03
:107D60000446002C40D1149D0DB9062404E0E87AA5
:107D700000F0010000B107242CBB29460F98FEF744
:107D8000DCF80646FEB1E87A00F01000D8B10F9892
:107D90004069B04201D1072415E02C220FA904A8A4
:107DA000FDF728FC0696022104A8FDF7C2FF044651
:107DB0004CB9002104A8FEF77DFA044604B9072453
:107DC000042C00D100247CB90FA8FEF774FB0446F4
:107DD0002CB926B131460F98FDF70AFF04461CB9AD
:107DE0000F98FDF777FD0446384601F009F8204664
:107DF000A0E72DE9F14F8EB0FDF7B4FB0646012256
:107E00000EA903A8FEF7C5FE0546002D74D14FF458
:107E1000007000F0EFFF8046B8F1000F03D1112091
:107E20000FB0BDE8F08FCDF82C80CDF824D003A89A
:107E30000E99FEF7AAFD054605B90825042D05D1C2
:107E40000998C07A00F0200000B10625042D7AD1EF
:107E500000210398FDF702FF0746002507B9072513
:107E6000012F00D10225781C00B901251DB9039806
:107E7000FDF7EDFC0546002D5BD139460398FDF773
:107E80008DFD8246039800F134044FF40072002106
:107E90002046FDF7BCFB0B2220212046FDF7B7FB57
:107EA0002E2020701020E072A675310AE175310C89
:107EB0002176310E617639462046FEF74EF82022B3
:107EC000214604F12000FDF795FB2E2084F82100C7
:107ED000DDF814B003980078032804D10398806A71
:107EE000584500D1AB46594604F12000FEF735F85D
:107EF000039890F8029018E03EE00398C0F830A094
:107F00000AF1010A0120039908710398FDF79FFC0B
:107F1000054605B10CE04FF4007200212046FDF744
:107F200076FBA9F1010000F0FF09B9F1000FE4D1DF
:107F300000BF1DB903A8FEF723FA054625B139464F
:107F40000398FDF755FE14E0089C1020E072A6751A
:107F5000310AE175310C2176310E617639462046C1
:107F6000FDF7FBFF0120039908710398FDF7B2FCB0
:107F70000546404600F044FF284651E72DE9F74109
:107F80008FB08846144601220FA904A8FEF701FE0F
:107F90000546002D2FD14FF4007000F02BFF07464F
:107FA0001FB9112012B0BDE8F0810C9701A80A900A
:107FB00004A80F99FEF7E9FC0546384600F020FFBB
:107FC0002DB90A98C07A00F0200000B1062595B9B5
:107FD000099E0EB906250EE004F0270408EA040005
:107FE000F17AA1430843F0720120049908710498C2
:107FF000FDF770FC05462846D4E72DE9F341A0B013
:10800000012220A915A8FEF7C4FD0446002C7CD14E
:1080100015980A904FF4007000F0ECFE07461FB967
:10802000112022B0BDE8F0811D9701A81B9015A872
:108030002099FEF7AAFC04462CB91B98C07A00F0E0
:10804000200000B1062424B9022115A8FDF706FB83
:108050000446002C69D11A9808B9042465E01A98DE
:1080600000F10B01152204A8FDF7C4FA2C2215A972
:108070000AA8FDF7BFFA21A8FEF7EAFC002805DBF5
:108080000AA82199FEF781FC044600E00B2404B9FC
:108090000824042C49D10AA8FEF772F90446002CE2
:1080A00043D10F9D13220DF1120105F10D00FDF7D3
:1080B000A1FA9DF8100040F02000E8720120159907
:1080C0000871E87A00F0100028B30C9917988842DC
:1080D00021D029461598FDF730FF80464146159876
:1080E000FDF75CFC06460EB9022414E031461598F3
:1080F000FDF7D6FB0446159800F154055CB9687885
:108100002E2808D128460C9900E011E0FDF725FF44
:1081100001201599087144B915A8FEF7CCF9044659
:108120001CB91598FDF7D6FB0446384600F068FEEA
:10813000204676E7F3B58FB00D4601220FA904A8BB
:10814000FEF727FD0646002E30D14FF4007000F0F8
:1081500051FE074617B9112011B0F0BD0C9701A8C8
:108160000A9004A80F99FEF710FC0646384600F066
:1081700047FE2EB90A98C07A00F0200000B106260A
:10818000A6B9099C0CB9062610E0A879A075E88864
:108190000112E17528792076A88801126176012004
:1081A000049908710498FDF795FB06463046D3E71D
:1081B0002DE9F7418BB00D46904600220BA9684689
:1081C000FEF7E7FC044624BB1DB30020029000210B
:1081D0006846FDF7AEFD0446DCB901216846FEF7AE
:1081E00069F8044684B90B2228460599FDF702FA7E
:1081F0000B2700BF0020E85507B904E0781E0746AA
:10820000285C2028F6D000BF042C02D10020287062
:10821000002444BBB8F1000F25D0009A1046116A23
:10822000FDF73EFB0446F4B900980078032801D11D
:10823000432000E027200646009834303044C078C0
:108240000106009834303044807841EA00410098BB
:1082500034303044407841EA002000993431895D5F
:108260000843C8F8000020460EB0BDE8F0812DE9B3
:10827000F14F8EB001220EA903A8FEF78AFC074633
:108280001FB138460FB0BDE8F08F00208DF8000018
:10829000002500E06D1C0E98405D0028FAD100E03A
:1082A0006D1E25B1681E0E99085C2028F8D0002D9F
:1082B00043D04FF00008C14600BF484609F101090C
:1082C0000E990E5C0121304600F0A0FD834600F0BF
:1082D000C0FD8246002100F099FD06465EB13146A0
:1082E000FEA0FDF7B1F930B9FF2E01DD0A2000E054
:1082F0000B20404501D80620C4E7FF2E05DD3212D1
:10830000404608F101080DF80020F2B2404608F19D
:1083100001080DF80020A945CFD305E020224046F2
:1083200008F101080DF80020B8F10B0FF6D39DF805
:108330000000E52801D10620A4E7002005900021D7
:1083400003A8FDF7F6FC0746002F55D1012103A82D
:10835000FDF7B0FF07460FBB9DF8000098B10B2258
:1083600069460898FDF746F9FDF7FCF804460899B8
:108370008C75210A0898C175210C08980176210E88
:108380000898417602E0E5200899087001200399D9
:1083900008710398FDF79EFA07462DE0042F2BD1B4
:1083A00000279DF8000038B3012103A8FDF797FDD1
:1083B00007460FBB202200210898FDF728F90B2261
:1083C00069460898FDF716F908200899C872FDF764
:1083D000C9F8044608998C75210A0898C175210CC2
:1083E00008980176210E08984176012003990871BA
:1083F0000398FDF76FFA0746384643E72DE9F74F34
:1084000090B090461198012803DD132013B0BDE809
:10841000F08F10A8FEF71CFB0F900F98002801DAD0
:108420000B20F3E7B1490F9851F820B0BBF1000FD2
:1084300001D10C20EAE700208BF800000F98C0B2B1
:108440000C9000200B900C98FDF718F80190019803
:1084500000F0010008B10320D8E7019800F0040003
:1084600008B10A20D2E700BF04AA01210C98FDF749
:1084700063F810B90498802801D20120C6E711984A
:1084800008B1002000E03F2081460498A0EB0900DD
:108490000490A8F1010000EA080008B14FF00008BC
:1084A000B8F1000F13D14FF4FA610498B0FBF1F06A
:1084B0000A904FF0000A01E00AF1010A8C4830F8F6
:1084C0001A100A988142F7D88A4830F81A80B8F50D
:1084D000007F01D34FEA5828B8F1000F01D14FF0C7
:1084E0000108B8F1800F01D94FF080080498B0FB63
:1084F000F8F7012540F6F670874200D302254FF6C3
:10850000F670874200D30325032D0AD1082000EB23
:10851000870000F2FF10460A2020039000200290FE
:1085200011E0012D05D107EB4700401C4008C01C9D
:1085300001E07800001D064606F2FF10460A012001
:1085400003902020029003984844079007983044F5
:108550000690029906980844059005984044A0EBBF
:1085600009000499884201D90E204FE709AA032186
:108570000C98FCF7E1FF28B9099818B10998B0F5F3
:10858000004F01D901200990099905980844401E1F
:10859000491E8843099009990598081A0990032DE6
:1085A00008D1099903980844039009990798084449
:1085B000079001E009980644DDE90301081A811BD0
:1085C0000298081AB0FBF8F7022D03D140F6F670B6
:1085D000874205D3032D05D14FF6F670874201D2AD
:1085E0000E2013E7032D02D10C200D9010E0012D79
:1085F00006D10498B0F5803F02D201200D9007E02B
:108600000498B0F5803F01D2042000E006200D90D0
:1086100000BF119810B1F0200E9044E04FF40072AA
:1086200000210BF13400FCF7F2FF0BF5F974012087
:108630006070A0700020E0700D982071FE206071C5
:10864000049848443F21B0FBF1F0FF21B0FBF1F06A
:1086500009903F21099841EA9000A0710998E071C2
:108660003F20207200216172A172E1720498207390
:108670000498010A61730498010CA1730498010E17
:10868000E17355218BF83212AA218BF833120123A2
:1086900000220BF134010C98FCF731FF08B10120E6
:1086A000B4E6F8200E900BF134044FF40072002170
:1086B0002046FCF7ACFF0B220FA12046FCF79AFFE7
:1086C0004FF4007A84F80BA04FEA1A21217384F842
:1086D0000D800398A0730398010A13E0222A2B2C23
:1086E0002E3A3B3C3D3E3F5B5D7C7F0068160020A0
:1086F000DC990008F2990008EBFE904D53444F536B
:10870000352E3000E17301202074032D01D10020AB
:1087100001E04FF40070824684F811A04FEA1A215C
:10872000A1740498B0F5803F05D20498E0740498D1
:10873000010A217510E0049884F820000498C0F321
:108740000721212001550498C0F30741222001553B
:108750000498010E232001550E9860753F20207665
:1087600000216176FF20A076E17684F81C904FEA24
:10877000192161774FEA1941A1774FEA1961E17731
:10878000FCF7F0FE0990032D3ED1099884F84300D0
:108790000998C0F30721442001550998C0F3074107
:1087A000452001550998010E4620015584F82460A2
:1087B000C6F3072125200155C6F3074126200155A0
:1087C000310E27200155022084F82C0000212D2095
:1087D00001552E2001552F200155012084F830002D
:1087E00031200155062084F83200332001558020C5
:1087F00084F84000292084F842001322FAA104F1F1
:108800004700FCF7F7FE1FE0099884F82700099855
:10881000C0F30721282001550998C0F307412920FA
:1088200001550998010E2A200155A675310AE175F6
:10883000802084F82400292084F826001322EFA148
:1088400004F12B00FCF7D6FE552084F8FE01AA2186
:1088500040F2FF10015501234A4621460C98FCF7CF
:108860004EFE08B10120D1E5032D06D1012309F107
:10887000060221460C98FCF742FE079808904FF03C
:10888000000A61E04FF4007200212046FCF7BFFEB1
:108890000E980990032D14D0012D01D1DC4801E080
:1088A0006FF0FF0009990843099009982070099812
:1088B000000A60700998000CA0700998000EE07022
:1088C00019E0099860F0FF00099009982070099854
:1088D000000A60700998000CA0700998000EE07002
:1088E000FF202071FF216171A171E171207261721D
:1088F000A1720F21E1720898411C024601230891E0
:1089000021460C98FCF7FBFD08B101207EE54FF4F1
:10891000007200212046FCF77AFE012009900EE04B
:108920000898411C02460123089121460C98FCF747
:10893000E6FD08B1012069E50998401C09900998F5
:10894000B042EDD30AF1010ABAF1000F9AD0032D1B
:1089500001D1404600E00298824600BF0898411CC1
:1089600002460123089121460C98FCF7C8FD08B186
:1089700001204BE5AAF10100B0F1000AEED1032D70
:1089800046D15220207060706120A0704120E070BC
:10899000722084F8E401722140F2E5100155412172
:1089A000401C01556121401C0155781E84F8E801E6
:1089B000C0F3072140F2E9100155781EC0F30741CA
:1089C0004FF4F5700155781E010E40F2EB10015581
:1089D000022084F8EC01002140F2ED100155401C0A
:1089E0000155401C0155552084F8FE01AA2140F292
:1089F000FF100155012309F1010221460C98FCF7F3
:108A00007EFD012309F1070221460C98FCF777FD52
:108A1000002211460C98FCF78FFD08B10120F5E407
:108A20000020F3E42DE9FC470746884691460025DF
:108A30003E4615E06B46012201A94846FEF7B0FB11
:108A40000098012800D00FE09DF804400D2C00D1C3
:108A500006E006F8014B6D1C0A2C00D104E000BFB3
:108A6000A8F10100A842E5DC00BF0020307015B17C
:108A70003846BDE8FC870020FBE7F8B504460E4603
:108A80000A2E03D10D212046FFF7F7FF6568002D60
:108A900000DAF8BD28466D1C04F10C010E543D2D82
:108AA0000CDB6B462A462068FEF74AFC0098A84279
:108AB00001D1002001E04FF0FF3005466560A0685D
:108AC000401CA06000BFE4E730B595B004460D46F9
:108AD0000295002003900490214602A8FFF7CDFFE5
:108AE000039800280DDB01AB05A9DDE90202FEF7C2
:108AF00027FC30B901990398884202D1049815B037
:108B000030BD4FF0FF30FAE730B595B004460D4662
:108B1000029500200390049004E014F8011B02A8C1
:108B2000FFF7ABFF20780028F7D1039800280DDB72
:108B300001AB05A9DDE90202FEF702FC30B901999B
:108B40000398884202D1049815B030BD4FF0FF3031
:108B5000FAE70FB42DE9F04F9BB024980190002064
:108B60000290039026A81A9000BF259810F8014B98
:108B7000259004B924E1252C04D0214601A8FFF753
:108B80007CFFF2E7002006468146259810F8014B4D
:108B90002590302C05D10126259810F8014B259001
:108BA00006E02D2C04D10226259810F8014B2590C3
:108BB00009E009EB890004EB4000A0F13009259899
:108BC00010F8014B2590302C01DB392CF1DD6C2C99
:108BD00001D04C2C05D146F00406259810F8014B25
:108BE0002590BCB9ECE000004E4F204E414D452091
:108BF0002020204641543332202020004E4F204E6A
:108C0000414D452020202046415420202020200096
:108C100000FFFF002546612D04DB7A2D02DCA5F163
:108C20002000C5B24F2D49D006DC422D43D0432D44
:108C300038D0442D4CD144E0532D04D0552D41D093
:108C4000582D45D141E01A9850F804BB1A904FF0C6
:108C5000000801E008F101081BF808000028F9D11C
:108C600006F0020048B903E0202101A8FFF705FF44
:108C7000404608F101084845F6D304E01BF8011B03
:108C800001A8FFF7FAFE9BF800000028F6D103E0E8
:108C9000202101A8FFF7F1FE404608F101084845F0
:108CA000F6D362E71A9810F8042BD1B21A9001A8F3
:108CB000FFF7E3FE59E7022019900EE00820199013
:108CC0000BE000BF0A20199007E01020199004E083
:108CD000214601A8FFF7D1FE47E700BF06F00400D8
:108CE00028B11A9800681A99091D1A910CE0442DB0
:108CF00005D11A9800681A99091D1A9104E01A986A
:108D000000681A99091D1A918246442D06D10AF06D
:108D1000004018B1CAF1000A46F00806002700BF5B
:108D20001998BAFBF0F100FB11A0C5B21998BAFB73
:108D3000F0FA092D06DD782C01D1272000E007206C
:108D40002844C5B205F13000C2B238467F1C14A9D0
:108D50000A54BAF1000F01D0102FE1D306F0080039
:108D600020B12D2238467F1C14A90A54B84606F0BB
:108D7000010008B1302000E02020054603E029462C
:108D800001A8FFF77AFE06F0020020B9404608F17C
:108D900001084845F3D300BF781E074614AA115CAA
:108DA00001A8FFF76AFE002FF6D103E0294601A8CB
:108DB000FFF763FE404608F101084845F6D3D4E6C4
:108DC00000BF00201A900298002810DB18AB04A9FD
:108DD000DDE90102FEF7B4FA48B918990298884211
:108DE00005D103981BB0BDE8F00F5DF814FB4FF000
:108DF000FF30F7E710B50446204600F0FDF810BD3F
:108E000010B50446204600F026F910BD10B5024604
:108E1000802A01DA10461BE051B1FF2A01DD002350
:108E200004E0A2F18003164C34F8133018460FE02A
:108E3000002007E0124B33F81030934200D103E0DA
:108E4000431C98B28028F5DB00BF00F18003D8B244
:108E500010BD0246002100E0491C0A4830F811000C
:108E600020B1084830F811009042F5D1054830F89B
:108E7000110018B1044830F8110070471046FCE7A3
:108E8000089A0008089B0008E89C000810B555489F
:108E9000F9F70FFD50B154480078012806D1534826
:108EA000007820F001005149087005E04F48007833
:108EB00040F001004D4908704C48007810BD4B4807
:108EC000007870472DE9F04105460E46144600270C
:108ED00014B90420BDE8F0814448007800F0010096
:108EE00008B10320F6E73F48F9F7E3FCB8B13E4884
:108EF0000078012813D100BF630232462946394861
:108F0000FBF7CDFF07463A493648FBF784FA354868
:108F1000F9F7CFFC08B90120DCE7032FECD00FB93B
:108F20000020D7E70120D5E72DE9F04105460E46A0
:108F30001446002714B90420BDE8F0812B480078BE
:108F400000F0010008B10320F6E727480078042864
:108F500001D10220F0E72348F9F7ABFCB8B1224871
:108F60000078012813D100BF6302324629461D480C
:108F7000FBF728FF07461E491A48FBF74CFA194829
:108F8000F9F797FC08B90120D6E7032FECD00FB909
:108F90000020D1E70120CFE70246002313480078E4
:108FA00000F0010008B10320704732B1012A06D059
:108FB000022A09D0032A10D10BE000230FE00D484C
:108FC0000068086000230AE04FF400700880002366
:108FD00005E04FF40070086001E0042300BF00BF0B
:108FE0001846E1E7A4020020230000208B010020A6
:108FF000500800205810002070B5064600F0C0F957
:10900000056806F10B0020F00704B4429CBF002065
:1090100070BD2B466A68BAB11068A04210D304F143
:10902000080188423CBF5068586007D35168101946
:1090300041601168091B016058601460101D70BD0B
:1090400013465268002AE7D12146284600F0A0F9CD
:109050000028DED170BD70B50446051F00F090F900
:109060000068002C14BF446870BD002C18BFAC42CF
:109070003CBF20466468F8D301680A18AA4218BFAA
:10908000456003D12A6805461144016028684119EA
:10909000A1421CBF6C6070BD6168696021680844B2
:1090A000286070BD0FB41CB5074B06AA7B44694607
:1090B0000090059800F015FA0020694600F024FAA7
:1090C0001CBC5DF814FB00005904000070B5044698
:1090D00085690068C10601D5302600E02026C0075A
:1090E00007D070BDD4E9012130469047206A401C6A
:1090F00020626D1EF6D570BD70B504468569007896
:10910000C00707D170BDD4E9012120209047206A13
:10911000401C20626D1EF6D570BD70B50C4605462C
:10912000012A05D02878800600D5EA69002302E0EC
:10913000012305E05B1C934202D2E05C0028F9D1D8
:10914000A869E618C01AA861286A18442862284647
:10915000FFF7BCFF04E0D5E9012114F8010B9047AB
:10916000B442F8D32846FFF7C7FF70BD2DE9F041A0
:109170000646002410687529314616A510D0AFF3B5
:109180000080002802DA404213A507E031688A0710
:1091900001D512A502E0490704D511A5012401E07B
:1091A000AFF3008000210A2206F1240709E0B0FB9A
:1091B000F2FCB0FBF2F302FB1C003030785418468E
:1091C000491C0028F3D123462A463046BDE8F04129
:1091D00000F028B9000000002D0000002B00000066
:1091E000200000002DE9F0474FF0000A89460446B0
:1091F000C0F820A02046E1688847002876D02528BE
:1092000006D0D4E901219047206A401C2062F1E792
:10921000E168204600258847C4F81CA006460027C0
:10922000C4F818A02A2E09D0304600F031FA38B31D
:1092300004EB8708303EC8F8186019E059F8041BA1
:10924000204604EB87029161E1688847012F0646BA
:1092500018D1E069002820DA25F020051DE0D8F8B3
:10926000180000EB800006EB40003038C8F818000A
:109270002046E1688847064600F00AFA0028EED149
:10928000012F0AD02E2E08D12046E16888477F1C86
:109290000646022F45F02005C4DBA069002803DA4A
:1092A000404245F00105A061E80701D025F0100516
:1092B000B6B1A6F14100192802D8203645F4006560
:1092C0004A463146204625604D46F6F7B7FF58B16D
:1092D000012806D0ED1D25F0070000F1080989E7F7
:1092E00004E005F1040985E730468AE7206ABDE815
:1092F000F08740EA0103024630B59B0710D14FF0DA
:10930000013400E008C208C91D1B9D4315EAC41FB3
:10931000F8D013F0FF0102F8011B0DD01B0AF8E78B
:1093200011F8013B002B02F8013B05D011F8013B7D
:10933000002B02F8013BF3D130BD10B5431C02E015
:1093400010F8011B71B18107FAD14FF0013202C848
:109350008C1A8C4314EAC211F9D0C01A0A0603D041
:10936000C01E10BDC01A10BD0A0401D0801E10BD61
:109370000902FCD0401E10BD7047704770470000C6
:10938000004870470C1700207047704770477047BF
:1093900038B504460A4600206946AFF3008000282D
:1093A00008BF38BD02460099204600F0CDF80120E4
:1093B00038BD012000F0E2B8F8B5AFF300800546F3
:1093C00000200C46102000BF0646A819A0420DD967
:1093D000324669460020AFF30080070008BF00F066
:1093E000CDF80098A04218BF0546C419FFF7C8FF82
:1093F00005600746F01D20F007004619284600F0DA
:109400000AF8B44208BFF8BDA21B31463868BDE86F
:10941000F84000F099B800210160C0E901107047E0
:10942000102070472DE9F0470D46994692460446B4
:1094300000F124080168880604D5E06921F01001D4
:10944000216000E00120A84201DD471B00E0002769
:10945000A1697A1902EB0900081AA0612078C006F8
:1094600002D42046FFF732FE002608E0D4E90121AD
:109470001AF806009047206A401C761C20624E4570
:10948000F4DB2078C0060AD52046FFF71FFE06E071
:10949000D4E9012130209047206A401C2062381E08
:1094A000A7F10107F4DC07E0D4E9012118F8050071
:1094B0009047206A401C2062281EA5F10105F3DCBC
:1094C0002046FFF719FE2078000602D50220BDE8ED
:1094D000F0870120FBE7000001694A1C026108785F
:1094E000704700B58FB0CDE90131002105910549E4
:1094F0007944CDE9031011466846FFF773FE0FB0BB
:1095000000BD0000E5FFFFFF0A6802F8010B0A60DA
:10951000704710B5436913B1AFF3008001E0FFF766
:10952000FCFD012010BD127800F124010A70002218
:109530004A700122EDE711684FF0FF32E9E70000C1
:109540000048704704170020034640688C460028F6
:1095500018BF88423CBF03464068F8D318681844D7
:10956000884207D00CF1030020F00700001D411ACB
:10957000521A0146081D0A60FFF76DBD10B500F0D4
:1095800039F8BDE8104000F02FB870477546FFF776
:10959000D7FFAE4605006946534620F007008546D2
:1095A00018B020B5F6F77AFEBDE820404FF000066F
:1095B0004FF000074FF000084FF0000B21F00701BB
:1095C000AC46ACE8C009ACE8C009ACE8C009ACE8FE
:1095D000C0098D46704710B50446AFF300802046A1
:1095E000BDE81040F6F745BE002801D000F02AB8CB
:1095F0007047000010B5012805D0002103A000F03D
:1096000027F8012010BD09A1F8E70000534947528F
:10961000544D454D3A204F7574206F662068656142
:1096200070206D656D6F7279000000003A2048650A
:109630006170206D656D6F727920636F72727570E5
:109640007465640001491820ABBEFEE726000200E5
:1096500070B505460C460A2000E06D1C00F011F8BC
:1096600035B128780028F8D102E0641C00F009F830
:1096700014B120780028F8D1BDE870400A20AFF37B
:10968000008008B569468DF800000320ABBE08BD18
:1096900030380A2801D201207047002070470000AE
:1096A0004FEA1153A3F58063D3F11E03A8BFD3F192
:1096B000200C08DB4FF0004242EAC12252EA50522D
:1096C00032FA03F0704709420BD4102BC4BF0020BC
:1096D000704703F5787CBCF1FF3F05D04FF0FF30B9
:1096E00070474FF00000704770B500F0C3F800BF3E
:1096F0004992248000207047F0E7B0FA80F310FA16
:1097000003F10AD0C3F11D0303F580634FEA415012
:109710004FEA035202EBD12170474FF0000070472F
:10972000DFF848C170B51CEA111E1EBF1CEA1315F4
:109730009EEA0C0F95EA0C0F00F06F8081EA03049B
:1097400023EA4C134EEAD47E21EA4C1141F48011F5
:1097500043F48013AE44A1FB024CA0FB0365AEF1C1
:109760007F7E361955EB0C05A1FB034C4CF1000331
:10977000A0FB021C16EB0C06654153F100030942E5
:1097800018BF46F0010613F4007F0BD14FEA0331F6
:109790004FEA0530340341EA155140EA16506FF0A4
:1097A00003020AE04FEAC3214FEAC520F40241EA6E
:1097B000555140EA56506FF0020202EB2E4201EB87
:1097C000025585EACE710AD05FEA440C18BF24F036
:1097D000004450F1000041F1000120EAD47040F251
:1097E000FE7C624500D270BDA84214BF4FF0804499
:1097F0004FF04044002E08BF0024BEF1806FA8BF88
:10980000A1F1C041BDE8704080F282804FF00000BD
:1098100001F1C04101F0004170479EEA0C0F0CEAD3
:10982000131518BF95EA0C0F06D04FF0000081EA1F
:10983000030E0EF0004170BD00F01CF88900013EDF
:1098400000F007B800F009B84FEA430C5FEA5C5C2F
:1098500008D081EA030100F05BB84FEA410C5FEAEF
:109860005C5CF6D14FF00000014970470000FF0733
:109870000000F87F0EF1020E2EF0030E5EF8046B6E
:10988000364205D4012A43EB030515F5001F12D813
:10989000012841EB010C1CF5001F0CD80ED14FEA3A
:1098A000D17C15F5001F0CEB4C0C0CF1020C08BF21
:1098B0004CEBD37C04E04FF0080C01E04FEAD37C82
:1098C0000CEB4C0526FA05F606F00706B6F1040C7B
:1098D00006D20EEB860CBDE870404CF0010C6047E0
:1098E000DFE80CF0090B02024FF000414FF00000DE
:1098F000A1F5002170BD19461046012851EB010465
:1099000018BFD4F5001484BF002001F0004170BDE1
:109910000808A0F500114FEA310170474FF0407080
:10992000E1EE100A70470000435545414141414373
:1099300045454549494941414592924F4F4F5555FB
:10994000594F554F9C4F9E9F41494F55A5A5A6A7DE
:10995000A8A9AAABACADAEAFB0B1B2B3B44141416E
:10996000B8B9BABBBCBDBEBFC0C1C2C3C4C541410A
:10997000C8C9CACBCCCDCECFD1D14545454949493F
:1099800049D9DADBDCDD49DF4FE14F4F4F4FE6E8E5
:10999000E85555555959EEEFF0F1F2F3F4F5F6F7B5
:1099A000F8F9FAFBFCFDFEFF01030507090E101292
:1099B0001416181C1E000000E89E0008009F0008F6
:1099C000089F0008F89E0008EC9E0008D09E000842
:1099D000E09E0008C89E0008D89E0008000400020F
:1099E0000001800040002000100008000400020078
:1099F000000000800040002000100008004000200F
:109A00000010000800040002C700FC00E900E200AA
:109A1000E400E000E500E700EA00EB00E800EF000A
:109A2000EE00EC00C400C500C900E600C600F4006A
:109A3000F600F200FB00F900FF00D600DC00F800A1
:109A4000A300D800D7009201E100ED00F300FA0076
:109A5000F100D100AA00BA00BF00AE00AC00BD000A
:109A6000BC00A100AB00BB009125922593250225E7
:109A70002425C100C200C000A90063255125572537
:109A80005D25A200A5001025142534252C251C25B4
:109A900000253C25E300C3005A2554256925662589
:109AA000602550256C25A400F000D000CA00CB0032
:109AB000C8003101CD00CE00CF0018250C25882527
:109AC0008425A600CC008025D300DF00D400D2007E
:109AD000F500D500B500FE00DE00DA00DB00D9009D
:109AE000FD00DD00AF00B400AD00B1001720BE00E6
:109AF000B600A700F700B800B000A800B700B90092
:109B0000B300B200A025A000610062006300640001
:109B1000650066006700680069006A006B006C0001
:109B20006D006E006F0070007100720073007400B1
:109B3000750076007700780079007A00A100A20015
:109B4000A300A500AC00AF00E000E100E200E300EC
:109B5000E400E500E600E700E800E900EA00EB00C9
:109B6000EC00ED00EE00EF00F000F100F200F30079
:109B7000F400F500F600F800F900FA00FB00FC0024
:109B8000FD00FE00FF0001010301050107010901BD
:109B90000B010D010F01110113011501170119012D
:109BA0001B011D011F01210123012501270129019D
:109BB0002B012D012F0131013301350137013A010C
:109BC0003C013E01400142014401460148014B0174
:109BD0004D014F01510153015501570159015B01DD
:109BE0005D015F01610163016501670169016B014D
:109BF0006D016F0171017301750177017A017C01BB
:109C00007E019201B103B203B303B403B503B603FB
:109C1000B703B803B903BA03BB03BC03BD03BE0358
:109C2000BF03C003C103C303C403C503C603C70303
:109C3000C803C903CA0330043104320433043404B2
:109C4000350436043704380439043A043B043C0430
:109C50003D043E043F0440044104420443044404E0
:109C6000450446044704480449044A044B044C0490
:109C70004D044E044F04510452045304540455043B
:109C800056045704580459045A045B045C045E04E7
:109C90005F04702171217221732174217521762155
:109CA0007721782179217A217B217C217D217E21D8
:109CB0007F2141FF42FF43FF44FF45FF46FF47FF2F
:109CC00048FF49FF4AFF4BFF4CFF4DFF4EFF4FFF40
:109CD00050FF51FF52FF53FF54FF55FF56FF57FFF0
:109CE00058FF59FF5AFF0000410042004300440062
:109CF000450046004700480049004A004B004C0020
:109D00004D004E004F0050005100520053005400CF
:109D1000550056005700580059005A002100E0FF36
:109D2000E1FFE5FFE2FFE3FFC000C100C200C300A6
:109D3000C400C500C600C700C800C900CA00CB00E7
:109D4000CC00CD00CE00CF00D000D100D200D30097
:109D5000D400D500D600D800D900DA00DB00DC0042
:109D6000DD00DE00780100010201040106010801A6
:109D70000A010C010E011001120114011601180153
:109D80001A011C011E0120012201240126012801C3
:109D90002A012C012E013001320134013601390132
:109DA0003B013D013F0141014301450147014A019A
:109DB0004C014E01500152015401560158015A0103
:109DC0005C015E01600162016401660168016A0173
:109DD0006C016E01700172017401760179017B01E1
:109DE0007D019101910392039303940395039603DC
:109DF0009703980399039A039B039C039D039E0377
:109E00009F03A003A103A303A403A503A603A70321
:109E1000A803A903AA0310041104120413041404D0
:109E2000150416041704180419041A041B041C044E
:109E30001D041E041F0420042104220423042404FE
:109E4000250426042704280429042A042B042C04AE
:109E50002D042E042F040104020403040404050449
:109E600006040704080409040A040B040C040E0485
:109E70000F04602161216221632164216521662133
:109E80006721682169216A216B216C216D216E2176
:109E90006F2121FF22FF23FF24FF25FF26FF27FF3D
:109EA00028FF29FF2AFF2BFF2CFF2DFF2EFF2FFF5E
:109EB00030FF31FF32FF33FF34FF35FF36FF37FF0E
:109EC00038FF39FF3AFF000055534552310000007A
:109ED00052465531000000005553455232000000F3
:109EE000524655320000000053440000535049468A
:109EF0004C41534800000000534452414D000000C3
:109F00005553424653000000555342485300000049
:109F1000309F0008000000208C010000C4010008F0
:109F2000E09F00088C010020DC1B000020020008DC
:109F3000412D0102030404051906070809847A0368
:109F40000A692C13A1371B0889041A9504223C02C4
:109F50002420137D47140847481B088F0413234906
:109F60001208620313995314081D541B08A7081AFA
:109F7000D1041AC3041AF5041AD9041ADB041ADD31
:109F8000041ADF041AE1041AE3041AE5041AE704C8
:109F90001AF1041AFD041AE9041AB50441136D55A7
:109FA0001B0881041A97041AD3041AB504138D8E62
:109FB0001B08BF0413998F1B0829041AC50C1A75B6
:109FC000181A89041AA3041ADF041AC1042A792C66
:109FD00019041AA9041AE5041AC70401670200014A
:040000050800018965
:00000001FF
