:020000040800F2
:10000000F0070020C1010008091700080B170008BD
:100010000D1700080F170008111700080000000056
:10002000000000000000000000000000131700089E
:100030001517000800000000171700081B1700081C
:10004000DB010008DB010008DB010008DB01000820
:10005000DB010008DB010008DB010008DB01000810
:10006000DB010008DB010008DB010008DB01000800
:10007000DB010008DB010008DB010008DB010008F0
:10008000DB010008DB010008DB010008DB010008E0
:10009000DB010008DB010008DB010008DB010008D0
:1000A000DB010008DB010008DB010008DB010008C0
:1000B000DB010008DB010008DB010008DB010008B0
:1000C000DB010008DB010008DB010008DB010008A0
:1000D000DB010008BB150008CD150008E515000878
:1000E000DB010008DB010008DB010008DB01000880
:1000F000DB010008DB010008DB010008DB01000870
:10010000DB010008DB010008DB010008DB0100085F
:10011000FD15000815160008DB010008DB010008CA
:10012000DB010008DB010008DB010008DB0100083F
:10013000DB010008DB010008DB010008DB0100082F
:10014000DB010008DB010008DB010008DB0100081F
:10015000DB010008DB010008DB01000829160008AC
:10016000DB010008DB010008DB010008DB010008FF
:10017000DB010008DB010008DB010008DB010008EF
:10018000DB010008DB0100084116000859160008D1
:10019000DB010008DB010008DB010008DB010008CF
:1001A000DB010008DB010008DB010008DFF80CD0F0
:1001B00001F084FB0048004795160008F007002076
:1001C0000648804706480047FEE7FEE7FEE7FEE7F1
:1001D000FEE7FEE7FEE7FEE7FEE7FEE7E3170008BF
:1001E000AD0100082849084328490860704730B528
:1001F0000F23C27801780125FAB1244A126801F16F
:10020000E02102F4E062C2F5E062C2F30722C2F12B
:100210000404D3404278A24084781C401443220155
:1002200081F80024007800F01F018D404009800013
:1002300000F1E020C0F8005130BD01F01F00854002
:100240004809800000F1E020C0F8805130BD104A1C
:10025000114001430D48001F016070470B4A121DF9
:100260000029116801D0014300E08143116070470B
:100270004FF0E0210428086903D020F00400086151
:10028000704740F00400FAE70000FA050CED00E0CA
:1002900080FFFF1FF948016841F001010160F74A42
:1002A0000021083211600268F54B1A400260031DFC
:1002B000F44A1A60F14BF44A84331A60F14A103A56
:1002C0001B1D1A60026822F480220260EB480C3089
:1002D0000160181D01607047E8490022891C0A70FE
:1002E0000870704702460020510901290CD00229EC
:1002F0000CD0E2497431096802F01F0201239340D7
:100300000B4200D001207047DC49F4E7DB49703133
:10031000F1E718B500204FF4A04400903120FFF71A
:10032000E1FF0099491C0091A14201D00028F5D0BD
:100330003120FFF7D7FF002800D0012018BDCF4A99
:10034000116821F0F80141EAC00010607047CF4900
:1003500008607047C949002270310A700A7001288C
:1003600002D0042801D1052008707047C8490860F0
:10037000704741EA82115A0810B5C64B029C03EB44
:1003800002421143014341EA0460BC49091D08606F
:1003900010BDBE4908667047800140EA0160B74958
:1003A00040EA0270843108607047B8498866704737
:1003B000800140EA0160B14940EA0270883108607A
:1003C0007047B24908677047B049C8647047AB4B83
:1003D00008331A68084322F0EC6210431860704733
:1003E000A64B08331A68084322F07842104318607D
:1003F0007047A24A0832116821F0030101431160DD
:1004000070479E480830006800F00C0070479B4A17
:100410000832116821F0F001014311607047974ADA
:100420000832116821F4E051014311607047934A8A
:100430000832116821F4604141EAC0001060704741
:1004400070B58E4B08331968934C11F00C0104D031
:100450006610042903D0082903D004601BE006605D
:1004600019E0864A121D1168C1F38055116801F028
:100470003F0115B1B6FBF1F101E0B4FBF1F11468F5
:100480001268C4F388146143C2F30142521C520043
:10049000B1FBF2F1016019680F2202EA11117F4AE3
:1004A000545C0168E14041601C68072505EA94241A
:1004B000145D21FA04F484601B6805EA5333D25CAE
:1004C000D140C16070BDC0F30121032908D16B4B3D
:1004D00008331968724A21F4F81102400A431A607D
:1004E000664970310A68C0F30B0002430A60704726
:1004F000674944390860704765494039086070476A
:100500006249C1F85C0170475C4A8C32116821F481
:100510004011014311607047584A8C32116821F430
:100520004001014311607047544A8C321168401EEB
:1005300021F01F01014311607047504A8C3211684D
:100540006FF0FF0321F4F85103EB00200843106023
:1005500070474A4A8C32116821F4403101431160DE
:1005600070475049C1F8E0017047444A30320029D1
:10057000116801D0014300E08143116070473F4A98
:1005800034320029116801D0014300E08143116039
:1005900070473A4A38320029116801D0014300E01F
:1005A000814311607047354A40320029116801D0FB
:1005B000014300E0814311607047304A4432002912
:1005C000116801D0014300E08143116070472B4A5C
:1005D00010320029116801D0014300E0814311600D
:1005E0007047264A14320029116801D0014300E007
:1005F000814311607047214A18320029116801D0E7
:10060000014300E08143116070471C4A20320029F9
:10061000116801D0014300E0814311607047174A1F
:1006200024320029116801D0014300E081431160A8
:100630007047124A50320029116801D0014300E08E
:100640008143116070470D4A54320029116801D06E
:10065000014300E0814311607047084A5832002985
:10066000116801D0014300E0814311607047034AE3
:1006700060320029116817D0014316E000380240AB
:10068000FFFFF6EA1030002400300020000047424F
:10069000800E47420000FFFF0024F400000000200D
:1006A000FFFCFF0F00104742814311607047194A59
:1006B0000029116801D0014300E0814311607047B7
:1006C00014490C310128086803D020F008000860A4
:1006D000704740F00800FAE70E4A573A00291178AF
:1006E00001D0014300E08143117070470948103088
:1006F000016841F08071016070470146054A0020A1
:10070000583A12680A4200D0012070470149563910
:100710000870704764380240CD4910B5884206D150
:1007200001211020FFF77BFF0021102020E0C949A4
:10073000884202D101214C0429E0C749884202D1F4
:1007400001218C0423E0C549884202D10121CC0457
:100750001DE0C349884202D101210C0517E0C149BF
:10076000884209D101212020FFF759FF00212020D4
:10077000BDE81040FFF753BFBB49884202D10121B9
:100780008C0704E0B94988420AD10121440520467A
:10079000FFF73BFF2046BDE810400021FFF735BFC3
:1007A00010BD7FB50446008A0D46C98820F440502C
:1007B00001432182A08941F20C618843A9882A89DA
:1007C00011436A8902431143A181A08A20F4407138
:1007D000A8890843A0826846FFF732FE9C488442FD
:1007E00002D0A048844201D1039800E00298A18978
:1007F000090400EBC00101EB0010296801D5490094
:1008000000E08900B0FBF1F06422B0FBF2F10901D5
:100810000B096FF018056B4300EB8300A3891D04DF
:100820004FF0320306D503EBC000B0FBF2F000F04E
:10083000070005E003EB0010B0FBF2F000F00F0042
:10084000084320817FBD4FF4165101600021818053
:10085000C18001810C2242818181704710B5028ADA
:100860004C8822F470630A8822438C88C9880C4320
:1008700022431A43028210BD002101804180818001
:10088000C18070470029818902D041F4005101E004
:1008900021F4005181817047028B02F47F42028370
:1008A000028B0A43028370470029818902D041F4F8
:1008B000004101E0C1F30E01818170470029818A66
:1008C00002D041F4006101E021F4006181827047AF
:1008D000C1F30801818070478088C0F30800704729
:1008E000028A22F00F020282028A0A4302827047C1
:1008F0000029818902D041F0020101E021F00201CA
:1009000081817047828922F40062828182890A4350
:1009100082817047028A22F020020282028A0A4300
:10092000028270470029018A02D041F4804101E02F
:1009300021F4804101827047818941F00101818168
:1009400070470029818A02D041F0080101E021F0BE
:10095000080181827047028BD2B20283028B42EA85
:100960000121018370470029818A02D041F02001D2
:1009700001E021F02001818270470029818A02D0A4
:1009800041F0100101E021F0100181827047828A5C
:1009900022F004028282828A0A43828270470029FE
:1009A000818A02D041F0020101E021F0020181823E
:1009B0007047002A828A01D00A4300E08A4382827B
:1009C000704710B5C1F3421301F01F040121A1408B
:1009D000012B07D0022B07D01430002A026805D063
:1009E0000A4304E00C30F8E71030F6E78A4302606F
:1009F00010BD0246002012880A4200D00120704734
:100A0000C9430180704770B501F01F05012600241D
:100A1000C1F3421306FA05F2012B0FD0022B0FD0BF
:100A2000838A4FEA11210088134206FA01F600EA90
:100A3000060001D000B10124204670BD8389F0E793
:100A4000038AEEE70A0A01219140C94301807047F9
:100A5000001001400044004000480040004C0040AD
:100A6000005000400014014000780040007C00402D
:100A700070B55A484168491C4160816811B181686C
:100A8000491E8160AFF300800024554E18E006EB4C
:100A90008405686890B1017B81B1826872B1521E91
:100AA000826069680AD1486909698847686801688D
:100AB00081606868416809B900210173641CE4B26F
:100AC0003078A042E3D870BD464801684FF47A7090
:100AD000B1FBF0F0401EB0F1807F12D24FF0E02267
:100AE0005061414BF02083F8140D002090610720E5
:100AF00010613E48B1FBF0F13848C160012101703E
:100B00007047FEE735480078002805D04FF0E02018
:100B1000016941F00201016170474FF0E020016975
:100B200021F00201016170472DE9F0472C4C054688
:100B3000DDF8209020781E4617468846052802D307
:100B40000020BDE8F087182000F002FF0028F8D050
:100B50000560C0E901850773C0E90469217804EBE9
:100B6000810148602178491C2170EAE71C4B30B4B0
:100B700000211A7806E003EB81046468844203D004
:100B8000491CC9B28A42F6D88A4218D003EB8100C8
:100B90004068EFF3108472B605E003EB8102491C54
:100BA0009568C9B255601A78521E8A42F5DC1978E8
:100BB000491E197004B962B630BC00F0A1BE30BC49
:100BC000704700210173704701210173704701686C
:100BD00081607047416070470160704710000020DD
:100BE000BC000020A00000200FE000E0C0C62D00E7
:100BF000A3490844C0F38F2070472DE9F04F9A466F
:100C0000DDE909B889460346FFF7F2FFC5B20020C7
:100C10004FF0030E0121814011EA090F28D0994EAF
:100C200036F815400C4326F81540DF6844000EFAEC
:100C300004F6B7430BFA04FC47EA0C07DF601F68B1
:100C400002FA04FCB74347EA0C071F60012A01D0EF
:100C5000022A0DD15F6889B28F430AFA00F189B286
:100C60000F435F60996808FA04F4B1432143996027
:100C7000401CC0B21028CDD3BDE8F08F00B5FFF7FF
:100C8000B7FF01218140804802681143016000BD27
:100C9000FCB51646DDE907C50C00074608D0FFF78E
:100CA000EDFFCDE900C5324621463846FFF7A5FFE6
:100CB000FCBD2DE9FC4F9946DDE90BB792460D00CE
:100CC000064622D0FFF7DAFF002201214FF00F0C79
:100CD00001FA02F028420DD0D00806EB8003186A12
:100CE0005407E40E0CFA04F820EA080007FA04F4AA
:100CF00020431862521C102AEAD3CDE9009B5346C8
:100D0000022229463046FFF778FFBDE8FC8FF0B598
:100D10000E460546FFF76CFF00225A49C4B24FF059
:100D2000010C03270CFA02F333420CD028684FEA77
:100D3000420E07FA0EFE40EA0E00286031F8140059
:100D4000984321F81400521CD2B2102AEAD3F0BD05
:100D5000F0B500220125032605FA02F30B4205D067
:100D60000468570006FA07F39C430460521CD2B291
:100D7000102AF1D3F0BDF0B500220127032607FAAF
:100D800002F33C460B4208D00568530006FA03FC08
:100D900025EA0C059C4025430560521CD2B2102A5E
:100DA000EDD3F0BDF0B500220125032605FA02F3CC
:100DB0000B4205D00468570006FA07F31C43046091
:100DC000521CD2B2102AF1D3F0BDF0B50022012698
:100DD0000324022706FA02F30B4209D005685300E8
:100DE00004FA03FC25EA0C0507FA03F31D4305602A
:100DF000521CD2B2102AEDD3F0BDF0B5002301276A
:100E0000032507FA03F40C4209D0C6685C0005FA12
:100E100004FC26EA0C0602FA04F42643C6605B1CB6
:100E2000DBB2102BEDD3F0BD41F48032C261C16161
:100E3000C261C169C0697047002102E0491C89B2E2
:100E400040080128FAD80846704700B5FFF7D0FEE1
:100E5000012181400C4802688A43026000BD00B550
:100E6000FFF7C6FE074931F8100000BD00B5FFF7D7
:100E7000BFFE044931F81000C04380B200BD00003D
:100E80000000FEBFD400002030380240FE4A014678
:100E9000904200D10020FD4A914200D10120FC4A3D
:100EA000914200D10220FB4A914200D10420FA4A2B
:100EB000914200D10520F94A914200D10620F84A1A
:100EC000914200D10720F74A914200D10820704793
:100ED00070471CB530B1032803D10821F148FFF752
:100EE000F7FF1CBD08210320CDE9000101460123C5
:100EF0000022ED48FFF7DDFE1CBD1CB508220321D2
:100F000040B101280ED0032803D10821E448FFF79F
:100F1000DFFF1CBDCDE90012012300224FF4C07198
:100F2000E14805E0CDE9001201230022C021DF489D
:100F3000FFF7BFFE1CBD1CB50822032140B10128EC
:100F40000DD0032803D10821D448FFF7C1FF1CBDF1
:100F5000CDE9001201230022C021D54806E0CDE9E9
:100F60000012012300224FF48441D248FFF7A1FE72
:100F70001CBD7CB530B1032803D10821C648FFF75A
:100F8000A7FF7CBD08250324012300221903C848BC
:100F9000CDE90045FFF78DFE012300220421C6485C
:100FA000CDE90045FFF785FE7CBD1CB50822032175
:100FB00040B101280DD0032803D10821B548FFF71F
:100FC00087FF1CBDCDE90012012300220321BB488D
:100FD00006E0CDE90012012300224FF44061B4483D
:100FE000FFF767FE1CBD1CB507220323990250B111
:100FF00001280ED0022812D0032803D10721A448CB
:10100000FFF766FF1CBDCDE9003201230022AC488A
:101010000CE0CDE9003201230022A54806E0CDE92D
:101020000032012300224FF44071A348FFF741FE34
:101030001CBD1CB50722032140B101280DD0032897
:1010400003D107219148FFF743FF1CBDCDE90012F2
:10105000012300220C21994805E0CDE9001201236B
:10106000002260219448FFF724FE1CBD1CB5072216
:10107000032140B101280ED0032803D10721824863
:10108000FFF726FF1CBDCDE90012012300224FF41B
:10109000C0618A4805E0CDE9001201230022C02189
:1010A0008748FFF706FE1CBD774A0146904200D1F3
:1010B0008448764A914201D182481030744A914264
:1010C00001D180482030734A914201D17D483030AF
:1010D000714A914201D17B484030704A914201D11E
:1010E000784850306E4A914201D1764860306D4A5E
:1010F000914201D17348703070472DE9FF4F87B09E
:101100009846DDE9149B13460446DDF85CA0FFF722
:10111000CBFF05465C486C4F0193844209D1386887
:1011200040F0100038600898FFF7A0FF25208DF8E8
:101130000000654E5548361F844209D1306840F49E
:10114000003030600898FFF774FF26208DF800000B
:101150004F48844209D1306840F4802030600898BC
:10116000FFF741FF27208DF800004A48844209D14B
:10117000306840F4002030600898FFF716FF3420F4
:101180008DF800004448844209D1306840F4801052
:1011900030600898FFF7EDFE35208DF800003F48DD
:1011A000844209D1386840F0200038600898FFF781
:1011B000C2FE47208DF800003948844209D13068CA
:1011C00040F0804030600898FFF797FE52208DF87D
:1011D00000003448844209D1306840F0004030605B
:1011E0000898FFF776FE53208DF800002046FFF7A1
:1011F00093FA01268DF8036006208DF80100204641
:10120000FFF744FE8DF802006846FEF7F0FF1698DF
:10121000ADF80A00ADF80E90ADF81080ADF80CB046
:10122000ADF808A00020287340F6FF700590411E1D
:10123000059101D30846FAE701A92046FFF7B1FA64
:10124000A08940F02000A0812E73A08940F40050B6
:10125000A0810BB0BDE8F08F2DE9FF4104460A489C
:1012600000250C2617468846844206D1CDE9006544
:10127000029500230395FFF740FF044884422BD1D9
:10128000CDE90065029521E00010014000440040D6
:1012900000480040004C0040005000400014014055
:1012A00000780040007C0040001002400014024022
:1012B0000008024000180240000C024000000240FA
:1012C00000040240200000204438024000233A4637
:1012D00041460395FFF711FFE548844208D1CDE967
:1012E0000065029500233A4641460395FFF705FF46
:1012F000E048844208D1CDE90065029500233A46D2
:1013000041460395FFF7F9FEDB48844208D1CDE959
:101310000065029500233A4641460395FFF7EDFE2E
:10132000D648844208D1CDE90065029500233A46AB
:1013300041460395FFF7E1FED148844208D1CDE94B
:101340000065029500233A4641460395FFF7D5FE16
:10135000CC48844208D1CDE90065029500233A4685
:1013600041460395FFF7C9FEBDE8FF812DE9FF4720
:101370000446C54800250C261F46904689468442EF
:1013800005D1CDE9006502950395FFF7B6FEBF488C
:10139000844208D1CDE9006502953B464246494664
:1013A0000395FFF7AAFEB248844208D1CDE9006553
:1013B00002953B46424649460395FFF79EFEAD48DF
:1013C000844208D1CDE9006502953B464246494634
:1013D0000395FFF792FEA848844208D1CDE9006545
:1013E00002953B46424649460395FFF786FEA348D1
:1013F000844208D1CDE9006502953B464246494604
:101400000395FFF77AFE9E48844208D1CDE9006536
:1014100002953B46424649460395FFF76EFE9948C2
:10142000844208D1CDE9006502953B4642464946D3
:101430000395FFF762FEBDE8FF8710B50023FFF7B5
:1014400033FEC18819B902894489A2420DD042896C
:1014500083889A4201D100224281036892B29B564E
:10146000521C428109B1491EC180D8B210BD10B5CD
:101470000C46FFF719FEC38842890DE0818891422E
:1014800000D100220168895CA14201D1012010BD78
:10149000521C5B1E92B29BB2002BEFD1002010BDFC
:1014A000F0B516460F4684460024FFF7FDFD0546BD
:1014B000C08840B1697B6046FFF7D9FF78B9E888FA
:1014C000A98888420BD00020F0BD6046FFF7B5FF29
:1014D0003855697B884205D0641CA4B200E0761EB2
:1014E000B442F2DB0021641CA0B23954F0BD00B557
:1014F000FFF7DAFDC18829B901894089814201D10C
:10150000012000BD002000BD00B5FFF7CDFDC18862
:101510008088814201D1012000BD002000BD00B5BE
:10152000FFF7C2FD0021C1800181418100BD00B5EE
:101530000B46FFF7B9FD437300BD10B50C460346DB
:10154000FFF7B2FD007B00280BD007E019880906E1
:10155000FCD59880641C18880006FCD520780028EB
:10156000F4D110BD70B515460E460446FFF79CFD3C
:10157000007B00280DD0002309E020880006FCD560
:10158000F05CA08020880006FCD55B1C9BB2AB42BF
:10159000F3D370BDC388828893420DD203899342EE
:1015A00001D10022028103890268D1540189491CBA
:1015B0000181C188491CC180704733480188890670
:1015C00003D58088C1B23248E4E770472F480088CD
:1015D000800606D52D48001D0088C1B22C48103069
:1015E000D8E7704722480088800606D52048001DAD
:1015F0000088C1B226482030CCE770471D480088DB
:10160000800606D51B48001D0088C1B22048303036
:10161000C0E7704718480188890604D58088C1B2A0
:101620001B484030B6E7704714480088800606D54E
:101630001248001D0088C1B215485030AAE7704713
:101640000F480088800606D50D48001D0088C1B2ED
:101650000F4860309EE770470A480088800606D52C
:101660000848001D0088C1B20948703092E77047F1
:1016700000480040004C0040005000400014014071
:1016800000780040007C0040001001400044004011
:10169000200000201CB500F0A4F8FFF715FA002088
:1016A0000321CDE900010346012249031248FFF757
:1016B000EFFA12484FF4806141830183104B1149C6
:1016C0004FF4FA744FF0E022186880F4C0401860BC
:1016D0000D6820460095EFF305852DB90D68009E35
:1016E000AD1B8542FAD3EFE71569ED0300D5401E27
:1016F0000028F9D1E8E7000000180240000002408D
:1017000014180240140000207047FEE7FEE7FEE7D1
:10171000FEE7704770477047704710B5FFF7A8F9AC
:1017200010BD00001CB500215B4A009101911068BA
:1017300040F4803010604FF4A043106800F4003093
:1017400001900098401C0090019810B900989842B0
:10175000F3D11068800342D5012001904E484030FB
:10176000016841F0805101604C49086840F44040F4
:1017700008604948083003680360036843F4004385
:101780000360036843F4A0530360041F444B2360C9
:10179000136843F08073136013689B01FCD50A68DB
:1017A00042F480320A604A68D203FCD50A6842F4E7
:1017B00000320A604A689203FCD53A4A40F2057149
:1017C0001160016821F003010160016841F002012C
:1017D00001600168C1F381010229FAD11CBD0191A8
:1017E0001CBD314810B5016841F4700101602A4800
:1017F000016841F001010160274A002108321160AF
:1018000002682A4B1A400260031D294A1A600268C6
:1018100022F48022026020480C300160FFF782FF32
:1018200021494FF000608039086010BD70B51A4D35
:10183000083528681F4B204910F00C0004D05E10BA
:10184000042803D0082803D00B601BE00E6019E0C9
:10185000114A121D1068C0F38054106800F03F0058
:1018600014B1B6FBF0F001E0B3FBF0F013681268BE
:10187000C3F388135843C2F30142521C5200B0FB19
:10188000F2F0086028680C4AC0F30310121D105CC7
:101890000A68C2400A6070BD003802400070004013
:1018A000085A4007003C024088ED00E0FFFFF6FECA
:1018B000103000240024F400A0000020064C074D46
:1018C00006E0E06840F0010394E807009847103410
:1018D000AC42F6D3FEF76EFCBC190008DC19000818
:1018E00002E008C8121F08C1002AFAD170477047E9
:1018F000002001E001C1121F002AFBD17047000047
:1019000010B5002821D0114B0022001F196803E0F8
:10191000814203D80A4649680029F9D152B11368B7
:10192000841A9C4204D1006818441060104602E0FA
:10193000506000E0186039B102680B1A934203D17D
:101940000B681A4402604968416010BDB400002071
:10195000F0B50B30154D20F007010024144A0FE0BC
:1019600003688B420BD38B4205D95E1A4318476834
:10197000C3E9006700E04368136002C004E0021D91
:1019800010680028ECD12046002802D1286808B150
:101990000020F0BD064A07481060074A121A22F0DC
:1019A0000702C0E9002401202860D7E7B800002022
:1019B000B4000020F4010020F0030020DC1900082E
:1019C00000000020BC000000E0180008981A000881
:1019D000BC00002034070000F018000800000000E0
:1019E00001020304010203040607080900000000C5
:1019F000000000000000000000000000EA000020DD
:101A00002000000000000000000A00000A01002081
:101A10002000000000000000000A00002A01002051
:101A20002000000000000000000A00004A01002021
:101A30002000000000000000000A00006A010020F1
:101A40002000000000000000000A00008A010020C1
:101A50002000000000000000000A0000AA01002091
:101A60002000000000000000000A0000CA01002061
:101A70002000000000000000000A00000095BA0AE3
:101A8000000000000000000001020304060708092E
:081A900000000000000000004E
:04000005080001AD41
:00000001FF
