:020000040800F2
:10000000801700209D0100085510000857100008B7
:10001000591000085B1000085D1000080000000087
:100020000000000000000000000000005F10000859
:10003000611000080000000063100008671000084D
:10004000B7010008B7010008B7010008B7010008B0
:10005000B7010008B7010008B7010008B7010008A0
:10006000B7010008B7010008B7010008B701000890
:10007000B7010008B7010008B7010008B701000880
:10008000B7010008B7010008B7010008B701000870
:10009000B7010008B7010008B7010008B701000860
:1000A000B7010008B7010008B7010008B701000850
:1000B000B7010008B7010008B7010008B701000840
:1000C000B7010008B7010008B7010008B701000830
:1000D000B7010008B7010008B7010008B701000820
:1000E000B7010008B7010008CD120008B7010008E9
:1000F000B7010008B7010008B7010008B701000800
:10010000B7010008B7010008B7010008B7010008EF
:10011000B7010008B7010008B7010008B7010008DF
:10012000B7010008B7010008B7010008B7010008CF
:10013000B7010008B7010008B7010008B7010008BF
:10014000B7010008B7010008B7010008D512000880
:10015000B7010008B7010008B7010008B70100089F
:10016000B7010008B7010008B7010008B70100088F
:10017000B7010008B7010008B7010008B70100087F
:10018000B7010008B7010008DFF80CD002F070FEDC
:1001900000480047191000088017002006488047D3
:1001A00006480047FEE7FEE7FEE7FEE7FEE7FEE75C
:1001B000FEE7FEE7FEE7FEE71311000889010008ED
:1001C0002849084328490860704730B50F23C27892
:1001D00001780125FAB1244A126801F1E02102F404
:1001E000E062C2F5E062C2F30722C2F10404D34028
:1001F0004278A24084781C401443220181F80024F4
:10020000007800F01F018D404009800000F1E020DF
:10021000C0F8005130BD01F01F0085404809800042
:1002200000F1E020C0F8805130BD104A1140014378
:100230000D48001F016070470B4A121D002911680C
:1002400001D0014300E08143116070474FF0E0218D
:100250000428086903D020F004000861704740F0CA
:100260000400FAE70000FA050CED00E080FFFF1F34
:10027000F848016841F001010160F64A00210832A6
:1002800011600268F44B1A400260031DF34A1A60C1
:10029000F04BF34A84331A60F04A103A1B1D1A607F
:1002A000026822F480220260EA480C300160181DC6
:1002B00001607047E7490022891C0A700870704786
:1002C00002460020510901290CD002290CD0E14935
:1002D0007431096802F01F02012393400B4200D0E1
:1002E00001207047DB49F4E7DA497031F1E718B5CE
:1002F00000204FF4A04400903120FFF7E1FF009967
:10030000491C0091A14201D00028F5D03120FFF70F
:10031000D7FF002800D0012018BDCE4A116821F077
:10032000F80141EAC00010607047CE49086070478C
:10033000C849002270310A700A70012802D00428CE
:1003400001D1052008707047C7490860704741EA2D
:1003500082115A0810B5C54B029C03EB02421143AF
:10036000014341EA0460BB49091D086010BDBD4955
:1003700008667047800140EA0170B6498431086020
:100380007047B84988667047800140EA0160B1490A
:1003900040EA0270883108607047B24908677047C8
:1003A000B049C8647047AB4B08331A68084322F061
:1003B000EC62104318607047A64B08331A68084374
:1003C00022F07842104318607047A24A0832116840
:1003D00021F003010143116070479E480830006816
:1003E00000F00C0070479B4A0832116821F0F001C0
:1003F000014311607047974A0832116821F4E051B7
:10040000014311607047934A0832116821F460413A
:1004100041EAC0001060704770B58E4B0833196810
:10042000934C11F00C0104D06610042903D0082964
:1004300003D004601BE0066019E0864A121D1168B3
:10044000C1F38055116801F03F0115B1B6FBF1F120
:1004500001E0B4FBF1F114681268C4F3881461433D
:10046000C2F30142521C5200B1FBF2F10160196863
:100470000F2202EA11117F4A545C0168E140416099
:100480001C68072505EA9424145D21FA04F48460AD
:100490001B6805EA5333D25CD140C16070BDC0F324
:1004A0000121032908D16B4B08331968724A21F4E2
:1004B000F81102400A431A60664970310A68C0F3B5
:1004C0000B0002430A60704767494439086070476F
:1004D00065494039086070476249C1F85C0170475E
:1004E0005C4A8C32116821F440110143116070475D
:1004F000584A8C32116821F4400101431160704761
:10050000544A8C321168401E21F01F0101431160D2
:100510007047504A8C3211686FF0FF0321F4F85194
:1005200003EB00200843106070474A4A8C32116880
:1005300021F440310143116070475049C1F8E00196
:100540007047444A30320029116801D0014300E06D
:100550008143116070473F4A34320029116801D04D
:10056000014300E08143116070473A4A3832002964
:10057000116801D0014300E0814311607047354AA2
:1005800040320029116801D0014300E0814311602D
:100590007047304A44320029116801D0014300E01D
:1005A0008143116070472B4A10320029116801D035
:1005B000014300E0814311607047264A143200294C
:1005C000116801D0014300E0814311607047214A66
:1005D00018320029116801D0014300E08143116005
:1005E00070471C4A20320029116801D0014300E005
:1005F000814311607047174A24320029116801D0E5
:10060000014300E0814311607047124A50320029D3
:10061000116801D0014300E08143116070470D4A29
:1006200054320029116801D0014300E08143116078
:100630007047084A58320029116801D0014300E090
:10064000814311607047034A60320029116817D056
:10065000014316E000380240FFFFF6EA10300024A4
:100660000030002000004742800E47420000FFFF9C
:100670000024F40000000020FFFCFF0F00104742A0
:10068000814311607047194A0029116801D0014364
:1006900000E081431160704714490C31012808685B
:1006A00003D020F008000860704740F00800FAE727
:1006B0000E4A573A0029117801D0014300E08143E6
:1006C0001170704709481030016841F08071016075
:1006D00070470146054A0020583A12680A4200D085
:1006E000012070470149563908707047643802404C
:1006F000774910B5884206D101210846FFF753FF1C
:10070000002101205BE07349884206D101210220CB
:10071000FFF749FF0021022051E06F49884206D1CE
:1007200001210420FFF73FFF0021042047E06B492F
:10073000884206D101210820FFF735FF002108205B
:100740003DE06749884206D101211020FFF72BFFC9
:100750000021102033E06349884206D10121202086
:10076000FFF721FF0021202029E05F49884206D1C0
:1007700001214020FFF717FF002140201FE05B49C7
:10078000884206D101218020FFF70DFF0021802043
:1007900015E05749884202D1012184150AE05549E4
:1007A000884202D10121441504E0534988420AD10C
:1007B000012104152046FFF7F6FE00212046BDE882
:1007C0001040FFF7F0BE10BDF0B5002201274FF03A
:1007D000030C0B6807FA02F52B40AB422CD10668DC
:1007E00053000CFA03F4A64306600E79D0F800E03B
:1007F0009E4046EA0E0606600E79012E01D0022EBA
:1008000012D18668A64386604E79D0F808E09E40F3
:1008100046EA0E0686604668AE43466045688E79B5
:100820009640B6B235434560C568A543C560CC79EE
:100830009C40C3681C43C460521C102AC9D3F0BD3D
:100840004FF6FF7101600021017141718171C17129
:10085000704708B541F480320092C261C1610099CD
:10086000C161C169C069009008BD024600201269DB
:100870000A4200D001207047006980B270470246EA
:10088000002052690A4200D001207047406980B2BE
:10089000704701837047418370470AB101837047F5
:1008A000418370474161704742694A4042617047E5
:1008B0004B07DB0E9A40C90810B500EB8100016AB6
:1008C0000F249C40A1430162016A1143016210BDE3
:1008D000000002400004024000080240000C0240F8
:1008E000001002400014024000180240001C0240A8
:1008F0000020024000240240002802403549002028
:100900000860091D0860091D0860091D086031495B
:10091000314814310860704730B52E4A8379016838
:1009200053B313688B431360111D0B680468A34312
:100930000B60017911440B68046823430B60254B5D
:10094000083319680468A14319601C1D21680568F3
:10095000A94321604179102905D011440A68006833
:1009600002430A6030BD19680268114319602168AA
:1009700000680143216030BD0079104402688A4359
:10098000026030BD0021016001710C224271817151
:100990007047104910310A6802430A6070470146E7
:1009A0000C4A0020143212680A4200D0012070471D
:1009B00008491431086070470146064A0020143285
:1009C00012680A4200D001207047024914310860C1
:1009D00070470000003C0140FFFF7F0070B55A489F
:1009E0004168491C4160816811B18168491E81607C
:1009F000AFF300800024554E18E006EB84056868CC
:100A000090B1017B81B1826872B1521E82606968C7
:100A10000AD148690969884768680168816068681F
:100A2000416809B900210173641CE4B23078A04226
:100A3000E3D870BD464801684FF47A70B1FBF0F01E
:100A4000401EB0F1807F12D24FF0E0225061414B46
:100A5000F02083F8140D00209061072010613E48BB
:100A6000B1FBF0F13848C160012101707047FEE729
:100A700035480078002805D04FF0E020016941F0AA
:100A80000201016170474FF0E020016921F002018D
:100A9000016170472DE9F0472C4C0546DDF82090A8
:100AA00020781E4617468846052802D30020BDE858
:100AB000F087182002F050FA0028F8D00560C0E94D
:100AC00001850773C0E90469217804EB810148605E
:100AD0002178491C2170EAE71C4B30B400211A78B8
:100AE00006E003EB81046468844203D0491CC9B268
:100AF0008A42F6D88A4218D003EB81004068EFF3AF
:100B0000108472B605E003EB8102491C9568C9B2F6
:100B100055601A78521E8A42F5DC1978491E197000
:100B200004B962B630BC02F0EFB930BC70470021A6
:100B3000017370470121017370470168816070473C
:100B40004160704701607047100000209C01002048
:100B5000340000200FE000E0C0C62D001CB50020CE
:100B60000321CDE9000103464FF4704401222146E0
:100B7000184800F053F917481A3004801CBD1CB502
:100B800000210220CDE900010B460A46012112484E
:100B900000F044F91CBD10480069C1070F4805D09A
:100BA000017829B9012101700846704700210170C0
:100BB0000020704708480069C107084803D0012198
:100BC00001700020704701780029FAD000210170DF
:100BD00001207047000C024000000240200000206D
:100BE00008B55F4800905F4B5F4A01215F4801F004
:100BF00005FD5F48002141608160C16001210170F5
:100C0000002008BD5A48C06808B100207047012084
:100C100070475748C068802801D0002070470120E5
:100C2000704711B55248514A8189008989B280B212
:100C3000803A0DE0802800D100209DF80040135C30
:100C4000A34201D1012018BD401C491E80B289B2C7
:100C50000029EFD1002018BD454910B5CB6800220E
:100C60008BB18B68802B00D38A60404B8C68803BB3
:100C70001C5D047088681A54401C8860C868401E57
:100C8000C860032010BD0270042010BD01B582B001
:100C90009DF808008DF800000121684601F083FCF2
:100CA00000200EBD10B5044602E0641CFFF7EEFF05
:100CB00020780028F9D110BD10B501F074FC002097
:100CC00010BD78B50D4606460024FFF79BFFD0B94E
:100CD0000A20FFF7A6FF10B9FFF79BFF98B16D1E22
:100CE000AC420CDA6846FFF7B7FF0328FAD19DF84B
:100CF0000000305504F101040A28A4B2F0D100200C
:100D00003055204678BD002078BD194B10B5D96804
:100D100080290DD25A68802A01D300225A60134CD0
:100D2000803CA054521C491C5A600020D96010BD60
:100D3000022010BD0E48007810B10E4800787047B0
:100D4000012070470C490A6802608A7942714A7929
:100D500082710A790271CA79C2710020C871704724
:100D600078010020B400002030010020340200206F
:100D70002400002074010020E0000020A349084462
:100D8000C0F38F2070472DE9F04F9A46DDE909B88E
:100D900089460346FFF7F2FFC5B200204FF0030E6D
:100DA0000121814011EA090F28D0994E36F81540EB
:100DB0000C4326F81540DF6844000EFA04F6B743EA
:100DC0000BFA04FC47EA0C07DF601F6802FA04FC18
:100DD000B74347EA0C071F60012A01D0022A0DD150
:100DE0005F6889B28F430AFA00F189B20F435F60EE
:100DF000996808FA04F4B14321439960401CC0B2D9
:100E00001028CDD3BDE8F08F00B5FFF7B7FF012163
:100E10008140804802681143016000BDFCB5164660
:100E2000DDE907C50C00074608D0FFF7EDFFCDE967
:100E300000C5324621463846FFF7A5FFFCBD2DE927
:100E4000FC4F9946DDE90BB792460D00064622D0CD
:100E5000FFF7DAFF002201214FF00F0C01FA02F038
:100E600028420DD0D00806EB8003186A5407E40E20
:100E70000CFA04F820EA080007FA04F42043186288
:100E8000521C102AEAD3CDE9009B53460222294680
:100E90003046FFF778FFBDE8FC8FF0B50E460546FB
:100EA000FFF76CFF00225A49C4B24FF0010C032730
:100EB0000CFA02F333420CD028684FEA420E07FACC
:100EC0000EFE40EA0E00286031F81400984321F825
:100ED0001400521CD2B2102AEAD3F0BDF0B50022A1
:100EE0000125032605FA02F30B4205D004685700DA
:100EF00006FA07F39C430460521CD2B2102AF1D3C5
:100F0000F0BDF0B500220127032607FA02F33C46A4
:100F10000B4208D00568530006FA03FC25EA0C05CD
:100F20009C4025430560521CD2B2102AEDD3F0BD7F
:100F3000F0B500220125032605FA02F30B4205D085
:100F40000468570006FA07F31C430460521CD2B22F
:100F5000102AF1D3F0BDF0B50022012603240227A8
:100F600006FA02F30B4209D00568530004FA03FCA9
:100F700025EA0C0507FA03F31D430560521CD2B2A3
:100F8000102AEDD3F0BDF0B500230127032507FAA1
:100F900003F40C4209D0C6685C0005FA04FC26EA9A
:100FA0000C0602FA04F42643C6605B1CDBB2102B6D
:100FB000EDD3F0BD41F48032C261C161C261C1694B
:100FC000C0697047002102E0491C89B2400801282D
:100FD000FAD80846704700B5FFF7D0FE01218140DE
:100FE0000C4802688A43026000BD00B5FFF7C6FEE8
:100FF000074931F8100000BD00B5FFF7BFFE0449F6
:1010000031F81000C04380B200BD00000000FEBFF8
:10101000280800203038024008B500F07AF8FFF7C1
:101020009DFDFFF7DDFD0A4DAC14AE1CFFF782FEFF
:10103000062801D03480F9E72C806846FFF70CFEC3
:101040000328F3D19DF80000FFF720FEEEE7000033
:10105000180C02407047FEE7FEE7FEE7FEE7704728
:1010600070477047704710B5FFF7B8FC10BD00001F
:101070000CB50022544900920192086840F4803077
:1010800008604FF4A043086800F400300190009815
:10109000401C0090019810B900989842F3D108685C
:1010A000800334D50120019047484030026842F067
:1010B000805202604548026842F440420260424861
:1010C000083002680260026842F40042026002686E
:1010D00042F4A0520260031F3D4A1A600A6842F0BF
:1010E00080720A600A689201FCD53A4940F20572A2
:1010F0000A60016821F003010160016841F002010A
:1011000001600168C1F381010229FAD10CBD01928D
:101110000CBD314810B5016841F4700101602A48E6
:10112000016841F001010160274A00210832116085
:1011300002682A4B1A400260031D294A1A6002689D
:1011400022F48022026020480C300160FFF790FFFB
:1011500021494FF000608039086010BD70B51A4D0C
:10116000083528681F4B204910F00C0004D05E1091
:10117000042803D0082803D00B601BE00E6019E0A0
:10118000114A121D1068C0F38054106800F03F002F
:1011900014B1B6FBF0F001E0B3FBF0F01368126895
:1011A000C3F388135843C2F30142521C5200B0FBF0
:1011B000F2F0086028680C4AC0F30310121D105C9E
:1011C0000A68C2400A6070BD0038024000700040EA
:1011D00008544007003C024088ED00E0FFFFF6FEA7
:1011E000103000240024F400340000202DE9FC41DC
:1011F00001210846FFF7A5F94FF4C05003250090E0
:101200008DF8055002208DF804000024334F8DF82E
:1012100006408DF8074069463846FFF7D5FA0A229E
:101220000B213846FFF744FB0A220C213846FFF712
:101230003FFB8DF8055078158DF80440012600908D
:101240008DF806608DF8074069463846FFF7BCFA0E
:10125000B0028DF8066000908DF807608DF805509B
:1012600069463846FFF7B0FA0A2211463846FFF7BA
:101270001FFB01218803FFF78CF901218020FFF774
:101280006AF9BDE8FC8108B54FF4C060FEF798FF2D
:1012900043208DF8000001208DF8010003218DF816
:1012A00002108DF803006846FEF78FFF08BDC0EB03
:1012B00000100021C0000722B0FBF2F0491C81425F
:1012C000FCD970474FF47A714843F0E74FF480201F
:1012D000FFF77BBB024800F038BE00000000024070
:1012E00034020020F8B50026044637460096F94D32
:1012F0000320FFF7DCFFE068006900907F1CAF422D
:1013000001D90020F8BD00980028F1DA00980021EA
:1013100040F0010000900098E2681061E068026906
:101320000092491CA94202D8009AD207F7D10320A3
:10133000FFF7BDFF3046F8BD30B505460020EC781C
:10134000002C0CD105EB8202DB1C9B08D2F8D020CC
:1013500003E051F8045B1560641C9C42F9D330BD76
:1013600010B504460023D21C9008D4F8D02003E026
:10137000146841F8044B5B1C8342F9D3084610BD46
:1013800070B500220123C2704026837015461446B2
:101390008680012901D061B114E0C3720821017077
:1013A00004214FF0A04241709115C18002210172C9
:1013B00008E0C4720C21017006214170C64A4FF446
:1013C000A061C18002F50061C0E9032100210AE0AB
:1013D00002EB411303F5106600EB810403F5306363
:1013E000A661491C636543788B42F1D802F58061A0
:1013F00041614031C0F8CC10002108E002EB4113FC
:1014000000EB810403F5A063491CC4F89030037815
:101410008B42F3D8002108E002EB013300EB81049A
:1014200003F58053491CC4F8D03003788B42F3D8BD
:1014300002F56062C0F80C21284670BD70B5044604
:10144000017A0025C068012915D0C16841F040012A
:10145000C1602046FFF746FF617A4FF4341009B1AE
:101460004FF47410E16888631420FFF72BFFE078D5
:10147000012819D020E0816B627A21F480310AB111
:1014800041F480118163E068C16821F0401121F4CA
:101490002021C1602046FFF725FFE07801280BD10D
:1014A000E1682A208860E2E7E068816821F01E0197
:1014B0000A3141F020018160284670BDC0680022D9
:1014C000816841F00101816010467047C0680022C8
:1014D000816821F0010181601046704738B5002411
:1014E000034622460094009840F0200000900098A7
:1014F00061F38A1000900098D96808617548D9682E
:101500000B690093521C824202D8009B9B06F7D4C1
:101510000320FFF7CCFE204638BD38B50024024634
:1015200021460094009840F0100000900098D36885
:1015300018616848D26813690093491C814202D837
:10154000009BDB06F7D40320FFF7B1FE204638BD31
:1015500010B5C3680024D868012920F0C04201D02A
:1015600019B104E042F0005201E042F08042DA603A
:101570003220FFF7A7FE204610BDC068406900F08A
:1015800001007047C068406910F0010F01D00020D1
:10159000704701207047C068406910F0010000D01A
:1015A00001207047C0684169806908407047C06881
:1015B000406870470069026861F301020260704789
:1015C00030B5C368002211469A61C4686FF0804349
:1015D0006361C568541E6C60C4686361C4683F4B36
:1015E000A361C37803B91021C06841F4872141F099
:1015F0000811836941F440118B430B43836110460A
:1016000030BD2DE9F04104460026D0F80C013546E6
:101610002B4606602069016821F4C0510160E07A20
:10162000012829D103212046FFF7C4FFE16880206B
:10163000486220212F46E26861F31F4760F30F07DD
:10164000976207EB174262F30F0360F31F43E068F2
:10165000C0F8043103EB134060F30F03E06861F35B
:101660001F43C0F8083103EB134060F30F03E06839
:1016700065F31F43C0F80C3110212046FFF72EFF01
:101680002046FFF74AFF206905612069456121690D
:101690004FF0FF3088612069C56100204FF0904312
:1016A000FF2711E004EB8002D2F818C0DCF800102C
:1016B000002901DA194600E02946CCF800109169AA
:1016C0000D6191698F60401C61788142EAD80020E9
:1016D00018E00000400D03000000044000080080F6
:1016E00004EB8002D2F854C0DCF80010002901DAC3
:1016F000194600E02946CCF80010516D0D61516D7E
:101700008F60401C61788142EAD82069016941F408
:1017100080710161E078012809D10320402161F343
:101720008A0040F4803061F3594021690863204603
:10173000FFF746FF3046BDE8F08101460020096909
:101740008968C1F3410139B1012903D0022905D0CB
:10175000032900D102207047032070470120704701
:1017600010B501690024896883691A68C1F34101D1
:1017700029B1012903D0022904D0032905D16FF32F
:101780000A0202E06FF30A02D21C1A600069416883
:1017900041F480714160204610BDF0B506460D78D9
:1017A00000204F780124AC40034606EB8502012F50
:1017B00018D0526D64F31F43146825040DD40D89AD
:1017C00065F30A04CD78897965F3934461F39954FC
:1017D00044F0805141F4004111603169CA691A43F3
:1017E000CA61F0BD926964F30F03E5E770B50B7849
:1017F000044600254E7801229A40284604EB8301D6
:10180000012E09D0496D62F31F400D602169CA693C
:101810008243CA61284670BD896962F30F00F4E70C
:10182000F0B54B780A7800240125D1F814C000EBFC
:101830008202012B17D0566D32683369BCF1000F5C
:1018400064D08D680CEB05077F1EB7FBF5F767F3D7
:10185000DC43C3F3C9476F4367F312033361C378B3
:10186000012B59D05EE097693A683E69BCF1000FE0
:101870000DD08B686CF312069C44ACF1010CBCFBE0
:10188000F3F363F3DC46CB78012B05D008E06FF36C
:10189000120665F3DC4603E026F0C04606F100566A
:1018A0003E61C378012B0ED0CB78012B12D04B694F
:1018B000BBB10B789D4003695E6B2E435E63CB78B2
:1018C000012B07D00DE00D780B6900EB8505AD69A4
:1018D0006B61F4E703699B681B0ADB070CD042F0DD
:1018E00080520B7842F0044200EB83039B691A603C
:1018F000CA78012A03D026E042F00052F1E78A8A32
:1019000093B20A78C968FFF717FD1CE08F6867F388
:10191000120365F3DC43A1E70D780B6900EB850545
:101920006D6D6B61CB78012B06D14B7913B142F011
:10193000005201E042F08052097842F0044200EB8C
:101940008100406D02602046F0BDF0B54B78002567
:101950004A69012B14D00B7800EB8304636D1E6879
:101960001B69E2B38A684A6162F3060323F4C0127A
:10197000636D02F500221A61C278012A32D037E085
:1019800083691F681C6932B18E68B24208D966F358
:1019900006044E6106E024F07F0222F4C01203E048
:1019A00062F3060424F4C01202F500221A61C27820
:1019B000012A05D10C780A6900EB8404A4696261EC
:1019C00047F004421A60C278CAB94A69BAB10A78C3
:1019D000006901219140426B0A4342630FE0FFE737
:1019E0000A7AC1E70B780A6900EB83035B6D5A61E1
:1019F000097846F0044200EB8100406D0260284601
:101A0000F0BD02464B780978002002EB8101012BE2
:101A100005D0496D0A6842F400120A6070478A696D
:101A20001168002901DA41F0804141F40011116090
:101A3000704710B503464C780A78002003EB820209
:101A4000012C09D0526D1368C97823F400130329BF
:101A500004D0022902D003E09269F4E743F08053F6
:101A6000136010BD00698169C0690840000C7047AF
:101A700000EB8101496D8968006940690840704741
:101A800000698169C069084080B27047426D5C4955
:101A90001161C178012908D1426D00F2CC51516128
:101AA000406D01684FF080210160704710B5044619
:101AB000D0F81801002819D020698068C00715D017
:101AC000A07A30B1D4F80C01D4F80C1120F0030046
:101AD00008602069416841F0010141600520FFF77D
:101AE000F1FB2069416821F00101416010BD817A5C
:101AF00000290AD001698968C90706D0D0F80C11FD
:101B0000D0F80C0121F003010160704710B50446C4
:101B1000012084F812010020FF2206E004EB80017E
:101B20008B699A60496D8A60401C61788142F5D862
:101B3000216900200861216948612169C861216922
:101B4000401E88612046FFF7E8FC2046BDE81040B3
:101B50001021C3E44A780978012A00EB810006D0FD
:101B6000406D006881020ED54FF480507047806947
:101B70000068810201D510207047800301D5202024
:101B8000704730207047800302D54FF400507047F3
:101B90004FF44050704730B44C780B78002500EB80
:101BA0008303012C0BD05C6D2368B2F5805F17D0E6
:101BB000B2F5005F17D0B2F5405F0CD007E09C692A
:101BC0002368102A05D0202A0DD0302A03D092B1E4
:101BD00013E030BC15E79A0208D54D7130BC28E7F8
:101BE00043F4001309E043F0006306E043F0806033
:101BF00040F0802301E023F40043236030BC7047B1
:101C0000180008C070B50446FFF7BAFB0120002396
:101C100084F8120184F814311A46402510E002EBD2
:101C2000820104EBC10181F81D0181F81C21A1F89A
:101C3000222181F81F31C1E94953521CC1F83031CA
:101C400061789142EBD8002010E000EB800104EBBA
:101C5000C10181F8753381F87403A1F87A0381F822
:101C60007733C1E9DF53401CC1F888336178814282
:101C7000EBD82046FFF72AFC2046FFF7DFFB0021C8
:101C80002046FFF765FC2046FFF7BBFC2046BDE879
:101C90007040FFF713BC70B50D460E0601F07F04CF
:101CA00004EB840100EBC10102D501F58E7101E066
:101CB00001F55D71ED090C704D708A60CB7000D03C
:101CC000CC80022B01D100220A71FFF766FD0020B3
:101CD00070BD10B50B460C0601F07F0202EB8201CD
:101CE00000EBC10102D501F58E7101E001F55D71D6
:101CF0000A70DA094A70FFF779FD002010BD10B5AF
:101D000001F07F0404EB840100EBC101C1F88833CA
:101D1000C1F880230023C1F88C3381F8753381F832
:101D20007443C37801F55D71012B00D10A6114F091
:101D3000FF0F03D0FFF774FD002010BDFFF705FE75
:101D4000FAE770B511F07F0404EB840100EBC101E8
:101D50004FF0010581F81D5181F81C41C1F828217F
:101D6000C1F82C2101F58E714FF00002C1E9053256
:101D700003D0FFF755FD002070BDFFF7E6FDFAE741
:101D80000A4610B5090602F07F0306D503EB83016E
:101D900000EBC10101F58E7105E002EB820100EB61
:101DA000C10101F55D7101248C700B70D2094A707C
:101DB000FFF727FE002010BD0A4610B5090602F005
:101DC0007F0306D503EB830100EBC10101F58E71A2
:101DD00005E002EB820100EBC10101F55D71002419
:101DE0008C700B70D2094A70FFF723FE002010BDE3
:101DF00010B50A0604D501F07F01FFF76FFB01E083
:101E0000FFF78BFB002010BD0069002261F30A126E
:101E100001681143016070470069416821F00201C7
:101E200041600320FFF74EBA0069416841F00201AA
:101E300041600320FFF746BA0A0608D501F07F018A
:101E400001EB810100EBC10101F58E7105E001EBB1
:101E5000810100EBC10101F55D71FFF77BBE0B064F
:101E600008D501F07F0101EB810100EBC10101F513
:101E70008E7105E001EB810100EBC10101F55D719F
:101E8000FFF789BE2DE9F04106460024FFF7F8FD73
:101E9000074655E0F80751D03069E1B20369426B5B
:101EA000CA4006EB810102F00102896943EAC212CD
:101EB0008D681540E9071AD00125426B05FA04F137
:101EC0008A43426306EB840080698560FE48E1B284
:101ED0000068426830469047F078012807D134B94D
:101EE00096F81101042802D13046FFF7CFFD2807EC
:101EF00004D506EB8400082580698560E80604D5D2
:101F000006EB8400102580698560680604D506EB21
:101F10008400402580698560A80704D506EB84000D
:101F2000022580698560280608D52146304600F0E4
:101F300060F906EB84018020896988607F08641C51
:101F4000002FA7D10120BDE8F0812DE9F04706461A
:101F50000024FFF717FB00287ED03046FFF722FB56
:101F6000051E7AD0280303D5304600F07AF90446DE
:101F7000680303D53046FFF785FF0443A8074FF0F9
:101F8000000A02D5F16802204861DFF83C834FF077
:101F90000109002D18DAB07A30B1D6F80C01D6F864
:101FA0000C1120F0030008603069416821F0010144
:101FB0004160D8F80000816930468847F1684FF0E9
:101FC0000040486144F00104280503D5304600F084
:101FD000DDF80443280709D5D8F80000C168304669
:101FE0008847F1680820486144F00104E80603D5F9
:101FF000304600F08DF80443E80403D5304600F085
:1020000047F80443A80419D53046FFF7A9FBF06848
:10201000C7683046FFF791FB03282FD086F802905F
:10202000402127F47050B18000F5A050F168C860DD
:10203000F1684FF40050486144F00104E8020AD509
:10204000D8F80000C16930468847F1684FF4801025
:10205000486144F0010401E00DE00DE0A8020AD55A
:10206000D8F80000016A30468847F1684FF4001044
:10207000486144F001042046BDE8F08786F802A0DC
:102080004FF4007127F47050B18000F51050CDE787
:1020900070B50446006900250126416821F0010160
:1020A000416029462046FFF719FA0020FF2206E08A
:1020B00004EB80018B699A60496D8A60401C6178ED
:1020C0008142F5D821694FF0FF30886128462169A7
:1020D00066F30F0066F31F40C861216945F00B00ED
:1020E0004861216945F00B0008612069016821F40D
:1020F000FE6101602046FFF7C9FCE1684FF48050A3
:10210000486171480068016920468847012070BD18
:1021100070B50546C068816921F010018161E868E9
:10212000066A06F00F0000EB800005EBC004C6F362
:10213000434004F55D74072821D2DFE800F0202039
:1021400004202020150047F6F070064217D0C6F391
:102150000A1632462846E168FFF702F9E068304483
:10216000E060A069304409E0082205F2CC5128461D
:10217000FFF7F6F8A069C6F30A110844A061E86801
:10218000816941F010018161012070BD38B50446BC
:1021900000208DF8000094F812018DF800004A48E4
:1021A000006841692046884720698068E2684FF4EA
:1021B00000615161A17AD1B1C00718D094F815011E
:1021C000012814D19DF80000032810D1D4F80C0187
:1021D000016841F001010160D4F80C01016841F08F
:1021E000030101603948016841F0060101600120E6
:1021F00038BD2DE9F0470E4601EB860100EBC10426
:102200008146D4E94C01401AD4F8241104F58E74A7
:10221000814200D20846C01C870809EB860812E0FC
:10222000451AA068A84200D20546E81C8708ABB250
:10223000F2B24846E168FFF77FF8E0682844E060C2
:10224000A0692844A061D8F81800806980B2B8421B
:1022500005D9D4E90501814201D20028E0D101204D
:102260000AE72DE9F04105460024FFF7FBFB07468E
:10227000DFF8548048E0F80744D0E1B22846FFF781
:10228000F7FB0646C0072AD005EB84000126416D06
:102290008E60E97801290CD1406D016904EB84005E
:1022A00005EBC000C1F31201D0F87C23511AC0F82D
:1022B0008C13D8F80000E1B2026828469047E8780D
:1022C00001280CD15CB903E02801002010ED00E0EA
:1022D00095F81101052802D12846FFF7D7FBB00772
:1022E00004D505EB84000226406D8660300709D5D1
:1022F000D8F8000081682846884705EB840108204B
:10230000496D88607F08641C002FB4D101201AE653
:1023100010B50446022340228121FFF7BCFC0223B2
:10232000402201212046FFF7B6FC03230822822128
:102330002046FFF7B0FC8149022008710020487157
:102340007F480168884740237E4A01212046FFF7E5
:10235000D6FC002010BD10B504468121FFF7B9FC62
:1023600001212046FFF7B5FC82212046FFF7B1FC92
:10237000734840688047002010BD70B50C46054684
:10238000714809783A2211F06003A0F1310622D099
:10239000202B05D02146284600F01EFB022070BDF0
:1023A0006748E28883688AB10806607806D566497E
:1023B000113998476449E288113920E0C6E90502DD
:1023C00061492846113900F0C4FA28E000226078FB
:1023D0001146984723E06178062904D00A2912D0D3
:1023E0000B291CD113E061882123B3EB112F05D1F8
:1023F0005548E28809303A2A00D93A22014628464F
:1024000000F08EFA0BE0504901222D39F7E7608881
:1024100010F0FF0F05D02146284600F0DDFA00201D
:1024200070BDC0B27060FAE710B5474C313C6069CE
:10243000FF2807D04249A2698B6804F12001984720
:10244000FF206061002010BD70B53F4D313D2978FF
:10245000012919D12A69002652B12946402AC968A2
:102460008CB207D940234031403AC5E9031205E058
:102470002E7009E01144C5E9031693B23149403189
:102480000A198121FFF75DFC002070BD10B50446DC
:1024900001EB810004EBC000B0F88C0381B2284846
:1024A0000269284890474023264A01212046FFF729
:1024B00026FC002010BDF0B4234D313D29780129C0
:1024C0000AD0E9680026B1F5006F00D1EE60D5E9C9
:1024D0000221914202D12E70F0BC704702D9C1F5A1
:1024E000006201E0A2EB01022A61402A8CB205D908
:1024F00040234031403AC5E9031203E01144C5E9E5
:10250000031693B2012129700E4940310A19F0BC1B
:102510008121FFF716BC0C4A10B5313AD169491C2C
:10252000D161062903D10021D161FFF7C4FF00204A
:1025300010BD43200880044809387047500100202E
:10254000E80000203E0800207900002000207047AD
:1025500000207047042824DD244A202802D02128A6
:102560001FD10DE0CB78086863F31F601060087915
:10257000107148795071887990710120D07110E004
:10258000107808701088000A48701068000C887075
:102590001068000EC87010790871507948719079F0
:1025A000887100207047F0B50022114E114C4FF495
:1025B000006C174608E03368855CE5545B1C3360AB
:1025C000634500D33760521C8A42F4D30020F0BD2B
:1025D00070B50D460646002403E0305DFEF795FB1E
:1025E000641CAC42F9D3002070BD0000E000002064
:1025F000500000207E080020002070472DE9F041A7
:102600001D46174688460446069EFEF7EFFD04F277
:10261000E452414682E8E0002046FFF7F3FAD4F89E
:10262000E805006880472046BDE8F041FEF72BBE74
:102630001CB50446694600F074FB9DF8002012F0BA
:102640001F010AD001290DD0022910D002F080010B
:102650002046FFF795FB00201CBD6946204600F090
:1026600067FAF8E76946204600F0D8FAF3E76946CA
:10267000204600F0EEFAEEE770B5054641B1D5F818
:10268000E4058269FAB195F8120103282AD02BE0FB
:1026900095F8110105F55D74032825D1A168E0695D
:1026A000884211D9401AE061E878012802D1E06837
:1026B0000844E060E069884200D3084682B22846B8
:1026C000E16800F056F90FE0D5F8E405016929B199
:1026D00095F81201032801D128468847284600F0C2
:1026E00051F901E028469047002070BD70B50546BD
:1026F00041B1D5F8E40542698AB395F8120103287F
:1027000046D047E095F81101002605F58E740228A1
:1027100033D1E169A06881420FD9081AE061E878F5
:10272000012803D1D4E902100844E060A08BE168DD
:1027300082B2284600F004F91FE0216AB1FBF0F2F2
:1027400000FB121262B981420AD3606A814207D249
:1027500000221146284600F0F3F866620DE016E00C
:10276000D5F8E405C16829B195F81201032801D113
:1027700028468847284600F016F995F816010128E2
:1027800008D1324800682969486085F8166101E07F
:1027900028469047002070BD10B500230446402213
:1027A0001946FFF778FA0023402280212046FFF7E0
:1027B00072FA012084F81201D4F8E815A07849686B
:1027C0008847002010BD10B50446D0F8E805006920
:1027D0008047032084F81201002010BD10B590F846
:1027E000121180F81311042180F81211D0F8E805B5
:1027F000C0688047002010BD10B5D0F8E415C96945
:1028000001B18847002010BD10B50446D0F8E4059A
:10281000026820469047D4F8E80580688047002089
:1028200010BD10B5D0F8E42552689047002010BDC7
:1028300010B5D0F8E415096A8847002010BD10B51E
:10284000D0F8E415496A8847002010BD2C0100200B
:102850001220088017487047042008801548001F80
:10286000704710B50A46144914A000F07CFA1248CB
:1028700010BD10B50A46104919A000F074FA0E48B0
:1028800010BD10B50A460C491AA000F06CFA0A48AF
:1028900010BD10B50A4608491AA000F064FA0648AF
:1028A00010BD10B50A46044919A000F05CFA0248B0
:1028B00010BD0000500100207E10002053544D3305
:1028C00032205669727475616C20436F6D506F725F
:1028D0007420696E204653204D6F6465000000002F
:1028E00053544D6963726F656C656374726F6E6982
:1028F00063730000303030303030303030353043AA
:102900000000000056435020436F6E666967000068
:1029100056435020496E746572666163650000001D
:1029200010B5C0F83C210223C0F8382180F81131DD
:10293000134600240A462146FFF703FA204610BD3D
:1029400010B5134600240A462146FFF7FAF920463F
:1029500010BD10B5C0F894230323C0F8902380F86D
:102960001131134600240A462146FFF7C8F92046D4
:1029700010BD10B5134600240A462146FFF7BFF9E3
:10298000204610BD70B505460024042085F81101CD
:102990002346224621462846FFF7D3F92846FFF76B
:1029A00075F8204670BD70B505460024052085F8F1
:1029B00011012346224621462846FFF7A0F9284662
:1029C000FFF764F8204670BD01EB810100EBC10008
:1029D000B0F88C0380B2704710B504468021FFF731
:1029E000CFF900212046FFF7CBF92046BDE8104083
:1029F000FFF74CB870B50A46FB4D8978044629703C
:102A0000012905D894F81201022806D003280BD01A
:102A10002046BDE870401146DEE7A1B184F81011F0
:102A2000032084F812010BE091B194F81001884260
:102A300009D001462046FFF7F4FE297884F81011EA
:102A40002046FFF7E1FE2046BDE87040FFF79ABF41
:102A5000022084F8120184F810112046FFF7E1FEED
:102A6000F1E738B5044648880D46010A04295AD2D0
:102A7000DFE801F059021420D4F8EC15A0780A68B8
:102A8000694690470146E888402803D094F812012F
:102A9000012837D10820ADF8000037E0D4F8E4155C
:102AA000A0788A6A69469047014602204870C4F8B7
:102AB000F01527E0C0B2062835D2DFE800F00308A1
:102AC0000D12171CD4F8EC15A0784A6817E0D4F85A
:102AD000EC15A0788A6812E0D4F8EC15A078CA68E2
:102AE0000DE0D4F8EC15A0780A6908E0D4F8EC15EC
:102AF000A0784A6903E0D4F8EC15A0788A696946A1
:102B000090470146BDF8000000280BD0EA88002A53
:102B100008D080B2824200D90246ADF8002020469B
:102B2000FFF7FEFE38BD29462046FFF755FF38BDAA
:102B30002DE9F0414A78002701260A2A43D2DFE82E
:102B400002F03C554252420805422A27FFF789FF0E
:102B500061E004468888C8B9C888B8B9887800F0A8
:102B60007F0594F81201032810D084F814512946E7
:102B70002046FFF749F92046FFF704FF1DB1022068
:102B800084F8120147E084F8126144E020461AE01C
:102B9000FFF730FF3FE0CA88012A14D190F81221D4
:102BA000022A02D0032A0ED103E08F490122083104
:102BB00016E0012200F5887112E090F81221022A35
:102BC00004D0032A02D0FFF707FF24E08649CE6035
:102BD000D0F818210AB10322CA60834902220C31BD
:102BE000FFF79EFE17E000F0E1F814E0044690F8CD
:102BF0001201022801D00328C8D1488801280AD12F
:102C00000020C4F81801D4F8E405826820469047F3
:102C10002046FFF7B7FE3846BDE8F08170B505469F
:102C200090F8120100260C4603280DD120790128C6
:102C30000AD8D5F8E405826828469047E08830B97C
:102C40002846FFF79FFE02E02846FFF7C5FE304604
:102C500070BD70B50D46044609796878002658B3F2
:102C6000012816D0032831D194F8120102282FD060
:102C7000032827D1688828B921B1802902D02046AD
:102C8000FFF77EF8D4F8E40529468268204690478D
:102C90000EE094F8120102281AD0032812D1688895
:102CA000A0B929B1802903D02046FFF785F8E9E7CC
:102CB0002046FFF767FE09E094F81201022807D0CA
:102CC00003280DD029462046FFF786FE304670BD0A
:102CD0000029FBD08029F9D02046FFF751F8F5E70D
:102CE000414A08064FF000034FF0010508D501F0F6
:102CF0007F0000EB800004EBC00090F81E0105E0AF
:102D000001EB810004EBC00090F8760308B1556038
:102D100000E0536034490222091D2046FFF700FEFF
:102D2000D4E790F8CC250A7090F8CD254A7090F839
:102D3000CE2590F8CF3502EB03224A8090F8D025BB
:102D400090F8D13502EB03228A8090F8D22590F8D2
:102D5000D33502EB032292B2CA800121C0F8402190
:102D600080F81111704770B5002300281DD004466B
:102D7000002502E06D1CEDB2641C2678002EF9D10E
:102D8000022404EB45041480CC545B1C0322CA5477
:102D900000245B1C06E0CA545B1CDAB28C54521C43
:102DA000D3B2401C0278002AF5D170BD10B504469C
:102DB0004888012201280FD0022833D1888810F0DA
:102DC000FF0F2FD121694968000A062821D2DFE8C8
:102DD00000F0200D1115191DC4F81821D4F8E405D0
:102DE00082682046904718E06401002021F07001BD
:102DF00010310EE021F0700120310AE021F0700165
:102E0000303106E021F07001403102E021F0700124
:102E100050310548016084F816212046BDE8104075
:102E2000FFF7B0BD10BD00002C0100200F490520A8
:102E3000087070470D490520087070470B4906203F
:102E40000870704709490520087070470749052038
:102E50000870704705490520087070470349052030
:102E60000870704701480078704700007401002026
:102E7000064C074D06E0E06840F0010394E80700C7
:102E800098471034AC42F6D3FDF782F9C42F0008FE
:102E9000E42F000870B58C1810F8015B15F00703DB
:102EA00001D110F8013B2A1106D110F8012B03E0E3
:102EB00010F8016B01F8016B5B1EF9D12B0705D4EB
:102EC0000023521E0DD401F8013BFAE710F8013B34
:102ED000CB1A921C03E013F8015B01F8015B521E50
:102EE000F9D5A142D8D3002070BD02E008C8121F56
:102EF00008C1002AFAD170477047002001E001C1E3
:102F0000121F002AFBD1704710B5002821D0114BA9
:102F10000022001F196803E0814203D80A4649686D
:102F20000029F9D152B11368841A9C4204D1006877
:102F300018441060104602E0506000E0186039B19B
:102F400002680B1A934203D10B681A440260496865
:102F5000416010BD94010020F0B50B30154D20F0FC
:102F600007010024144A0FE003688B420BD38B4205
:102F700005D95E1A43184768C3E9006700E0436853
:102F8000136002C004E0021D10680028ECD1204646
:102F9000002802D1286808B10020F0BD064A074881
:102FA0001060074A121A22F00702C0E9002401202B
:102FB0002860D7E7980100209401002084110020A8
:102FC00080130020E42F0008000000209C01000076
:102FD000942E0008D03000089C010020E415000069
:102FE000FA2E0008412D01020304040525060708F6
:102FF00009847A030A091A380213FF1409024313D9
:1030000002012DC03209043D190B130524161001CD
:1030100005240110090104240202052406170107F2
:103020000582030815FF0904012A026A2E0705011B
:103030000240072A8107111311231B0857041A7B2A
:1030400004411329241B0849041A8D044B17251425
:10305000412A330C33C2011C08014D0C1A51041AC9
:1030600055041AA7041AD1041379261B08ED041A73
:10307000310413F9271B0899041ADD041AC7041335
:1030800031281B083F048122FC42201A51141A598E
:10309000041A73041A63041A83041A93041AA30407
:1030A0001E0403090412B3311E4083044057E92B68
:1030B00002037FF13205132D2E1B0835041A3D043F
:1030C0001A45041A4D041A55041A5D0481000000C3
:040000050800018965
:00000001FF
