:020000040800F2
:1000000060080020AD010008490600084B06000802
:100010004D0600084F0600085106000800000000C9
:10002000000000000000000000000000530600086F
:100030005506000800000000570600085B0600088F
:10004000C7010008C7010008C7010008C701000870
:10005000C7010008C7010008C7010008C701000860
:10006000C7010008C7010008C7010008C701000850
:10007000C7010008C7010008C7010008C701000840
:10008000C7010008C7010008C70100080000000000
:10009000000000000000000000000000C701000890
:1000A000C7010008C7010008C7010008C701000810
:1000B000C7010008C7010008C7010008C701000800
:1000C000C7010008C7010008C7010008C7010008F0
:1000D000C7010008C7010008C701000800000000B0
:1000E000C7010008C7010008C701000800000000A0
:1000F000000000000000000000000000C701000830
:1001000000000000C7010008C7010008C70100087F
:1001100000000000000000000000000000000000DF
:10012000C7010008C7010008C7010008C70100088F
:10013000C7010008000000000000000000000000EF
:10014000000000000000000000000000C7010008DF
:10015000C7010008C7010008C7010008C70100085F
:10016000C7010008C70100080000000000000000EF
:10017000000000000000000000000000000000007F
:1001800000000000C701000800000000000000009F
:10019000C7010008C7010008DFF80CD000F02EFBF3
:1001A00000480047ED050008600800200648804729
:1001B00006480047FEE7FEE7FEE7FEE7FEE7FEE74C
:1001C000FEE7FEE7FEE7FEE7890700089901000861
:1001D00070B55A484168491C4160816811B1816815
:1001E000491E8160AFF300800024554E18E006EBF5
:1001F0008405686890B1017B81B1826872B1521E3A
:10020000826069680AD14869096988476868016835
:1002100081606868416809B900210173641CE4B217
:100220003078A042E3D870BD464801684FF47A7038
:10023000B1FBF0F0401EB0F1807F12D24FF0E0220F
:100240005061414BF02083F8140D0020906107208D
:1002500010613E48B1FBF0F13848C16001210170E6
:100260007047FEE735480078002805D04FF0E020C1
:10027000016941F00201016170474FF0E02001691E
:1002800021F00201016170472DE9F0472C4C054631
:10029000DDF8209020781E4617468846052802D3B0
:1002A0000020BDE8F087182000F0F2FA0028F8D00E
:1002B0000560C0E901850773C0E90469217804EB92
:1002C000810148602178491C2170EAE71C4B30B459
:1002D00000211A7806E003EB81046468844203D0AD
:1002E000491CC9B28A42F6D88A4218D003EB810071
:1002F0004068EFF3108472B605E003EB8102491CFD
:100300009568C9B255601A78521E8A42F5DC197890
:10031000491E197004B962B630BC00F091BA30BC05
:100320007047002101737047012101737047016814
:100330008160704741607047016070470000002095
:100340002C000020100000200FE000E0C0C62D00AF
:10035000A3490844C0F38F2070472DE9F04F9A4617
:10036000DDE909B889460346FFF7F2FFC5B2002070
:100370004FF0030E0121814011EA090F28D0994E58
:1003800036F815400C4326F81540DF6844000EFA95
:1003900004F6B7430BFA04FC47EA0C07DF601F685A
:1003A00002FA04FCB74347EA0C071F60012A01D098
:1003B000022A0DD15F6889B28F430AFA00F189B22F
:1003C0000F435F60996808FA04F4B14321439960D0
:1003D000401CC0B21028CDD3BDE8F08F00B5FFF7A8
:1003E000B7FF01218140804802681143016000BDD0
:1003F000FCB51646DDE907C50C00074608D0FFF737
:10040000EDFFCDE900C5324621463846FFF7A5FF8E
:10041000FCBD2DE9FC4F9946DDE90BB792460D0076
:10042000064622D0FFF7DAFF002201214FF00F0C21
:1004300001FA02F028420DD0D00806EB8003186ABA
:100440005407E40E0CFA04F820EA080007FA04F452
:1004500020431862521C102AEAD3CDE9009B534670
:10046000022229463046FFF778FFBDE8FC8FF0B541
:100470000E460546FFF76CFF00225A49C4B24FF002
:10048000010C03270CFA02F333420CD028684FEA20
:10049000420E07FA0EFE40EA0E00286031F8140002
:1004A000984321F81400521CD2B2102AEAD3F0BDAE
:1004B000F0B500220125032605FA02F30B4205D010
:1004C0000468570006FA07F39C430460521CD2B23A
:1004D000102AF1D3F0BDF0B500220127032607FA58
:1004E00002F33C460B4208D00568530006FA03FCB1
:1004F00025EA0C059C4025430560521CD2B2102A07
:10050000EDD3F0BDF0B500220125032605FA02F374
:100510000B4205D00468570006FA07F31C43046039
:10052000521CD2B2102AF1D3F0BDF0B50022012640
:100530000324022706FA02F30B4209D00568530090
:1005400004FA03FC25EA0C0507FA03F31D430560D2
:10055000521CD2B2102AEDD3F0BDF0B50023012712
:10056000032507FA03F40C4209D0C6685C0005FABB
:1005700004FC26EA0C0602FA04F42643C6605B1C5F
:10058000DBB2102BEDD3F0BD41F48032C261C1610A
:10059000C261C169C0697047002102E0491C89B28B
:1005A00040080128FAD80846704700B5FFF7D0FE8A
:1005B000012181400C4802688A43026000BD00B5F9
:1005C000FFF7C6FE074931F8100000BD00B5FFF780
:1005D000BFFE044931F81000C04380B200BD0000E6
:1005E0000000FEBF44000020303802401CB500254A
:1005F00002244FF6FF762B46032231460E48CDE902
:100600000045FFF7F5FE0023032231460B48CDE9F4
:100610000045FFF7EDFE0023032231460848CDE9EF
:100620000045FFF7E5FE0023032231460548CDE9EA
:100630000045FFF7DDFEFEE7000002400004024037
:1006400000080240000C02407047FEE7FEE7FEE7AC
:10065000FEE7704770477047704710B5FFF7B8FD69
:1006600010BD000070B55B4D28685B4B5B4910F016
:100670000C0004D05E10042803D0082803D00B60BF
:100680001BE00E6019E0534A121F1068C0F380543B
:10069000106800F03F0014B1B6FBF0F001E0B3FBCE
:1006A000F0F013681268C3F388135843C2F3014291
:1006B000521C5200B0FBF2F008602868474AC0F3B1
:1006C0000310121D105C0A68C2400A6070BD3CB481
:1006D00000224048009208380192016841F48031BC
:1006E00001604FF4A043016801F4003101910099C9
:1006F000491C0091019911B900999942F3D10168FF
:10070000890302D50121019100E00192314938317C
:100710000A6842F080520A6031490A6842F4404255
:100720000A602C490A680A600A680A600A6842F48A
:1007300080520A60019D0A1F2A4C40F20273012D6B
:1007400018D0294D1560026842F08072026002687C
:100750009201FCD52360086820F003000860086857
:1007600040F0020008600868C0F381000228FAD156
:100770003CBC77E71D4D1560026842F08072026054
:1007800002689201FCD5E5E7194810B5016841F40B
:10079000700101600F480838016841F001010160F3
:1007A0000C4A002111600268124B1A400260031DBE
:1007B000114A1A60026822F4802202600548001D76
:1007C0000160FFF784FF0A494FF00060803908603C
:1007D00010BD0000083802400024F4001000002082
:1007E00000700040003C02400864010808644108B1
:1007F00088ED00E0FFFFF6FE10300024064C074DA8
:1008000006E0E06840F0010394E8070098471034E0
:10081000AC42F6D3FFF7C4FCFC0800081C09000832
:1008200002E008C8121F08C1002AFAD170477047B9
:10083000002001E001C1121F002AFBD17047000017
:1008400010B5002821D0114B0022001F196803E0C9
:10085000814203D80A4649680029F9D152B1136888
:10086000841A9C4204D1006818441060104602E0CB
:10087000506000E0186039B102680B1A934203D14E
:100880000B681A4402604968416010BD24000020D2
:10089000F0B50B30154D20F007010024144A0FE08D
:1008A00003688B420BD38B4205D95E1A4318476805
:1008B000C3E9006700E04368136002C004E0021D62
:1008C00010680028ECD12046002802D1286808B121
:1008D0000020F0BD064A07481060074A121A22F0AD
:1008E0000702C0E9002401202860D7E72800002083
:1008F0002400002064000020600400201C0900087F
:10090000000000202C000000200800084809000812
:100910002C0000203408000030080008000000000F
:1009200000000000000000000000000000E1F505EC
:10093000000000000000000001020304060708098F
:080940000000000000000000AF
:040000050800019955
:00000001FF
